{
  "contractName": "BaseContract",
  "abi": [
    {
      "anonymous": false,
      "inputs": [
        {
          "indexed": true,
          "internalType": "address",
          "name": "owner",
          "type": "address"
        },
        {
          "indexed": true,
          "internalType": "address",
          "name": "approved",
          "type": "address"
        },
        {
          "indexed": true,
          "internalType": "uint256",
          "name": "tokenId",
          "type": "uint256"
        }
      ],
      "name": "Approval",
      "type": "event"
    },
    {
      "anonymous": false,
      "inputs": [
        {
          "indexed": true,
          "internalType": "address",
          "name": "owner",
          "type": "address"
        },
        {
          "indexed": true,
          "internalType": "address",
          "name": "operator",
          "type": "address"
        },
        {
          "indexed": false,
          "internalType": "bool",
          "name": "approved",
          "type": "bool"
        }
      ],
      "name": "ApprovalForAll",
      "type": "event"
    },
    {
      "anonymous": false,
      "inputs": [
        {
          "indexed": true,
          "internalType": "address",
          "name": "previousOwner",
          "type": "address"
        },
        {
          "indexed": true,
          "internalType": "address",
          "name": "newOwner",
          "type": "address"
        }
      ],
      "name": "OwnershipTransferred",
      "type": "event"
    },
    {
      "anonymous": false,
      "inputs": [
        {
          "indexed": true,
          "internalType": "bytes32",
          "name": "role",
          "type": "bytes32"
        },
        {
          "indexed": true,
          "internalType": "bytes32",
          "name": "previousAdminRole",
          "type": "bytes32"
        },
        {
          "indexed": true,
          "internalType": "bytes32",
          "name": "newAdminRole",
          "type": "bytes32"
        }
      ],
      "name": "RoleAdminChanged",
      "type": "event"
    },
    {
      "anonymous": false,
      "inputs": [
        {
          "indexed": true,
          "internalType": "bytes32",
          "name": "role",
          "type": "bytes32"
        },
        {
          "indexed": true,
          "internalType": "address",
          "name": "account",
          "type": "address"
        },
        {
          "indexed": true,
          "internalType": "address",
          "name": "sender",
          "type": "address"
        }
      ],
      "name": "RoleGranted",
      "type": "event"
    },
    {
      "anonymous": false,
      "inputs": [
        {
          "indexed": true,
          "internalType": "bytes32",
          "name": "role",
          "type": "bytes32"
        },
        {
          "indexed": true,
          "internalType": "address",
          "name": "account",
          "type": "address"
        },
        {
          "indexed": true,
          "internalType": "address",
          "name": "sender",
          "type": "address"
        }
      ],
      "name": "RoleRevoked",
      "type": "event"
    },
    {
      "anonymous": false,
      "inputs": [
        {
          "indexed": true,
          "internalType": "address",
          "name": "from",
          "type": "address"
        },
        {
          "indexed": true,
          "internalType": "address",
          "name": "to",
          "type": "address"
        },
        {
          "indexed": true,
          "internalType": "uint256",
          "name": "tokenId",
          "type": "uint256"
        }
      ],
      "name": "Transfer",
      "type": "event"
    },
    {
      "inputs": [],
      "name": "DEFAULT_ADMIN_ROLE",
      "outputs": [
        {
          "internalType": "bytes32",
          "name": "",
          "type": "bytes32"
        }
      ],
      "stateMutability": "view",
      "type": "function"
    },
    {
      "inputs": [],
      "name": "MAX_PER_MINT",
      "outputs": [
        {
          "internalType": "uint256",
          "name": "",
          "type": "uint256"
        }
      ],
      "stateMutability": "view",
      "type": "function"
    },
    {
      "inputs": [],
      "name": "MAX_SUPPLY",
      "outputs": [
        {
          "internalType": "uint256",
          "name": "",
          "type": "uint256"
        }
      ],
      "stateMutability": "view",
      "type": "function"
    },
    {
      "inputs": [],
      "name": "MINTER_ROLE",
      "outputs": [
        {
          "internalType": "bytes32",
          "name": "",
          "type": "bytes32"
        }
      ],
      "stateMutability": "view",
      "type": "function"
    },
    {
      "inputs": [],
      "name": "PRICE",
      "outputs": [
        {
          "internalType": "uint256",
          "name": "",
          "type": "uint256"
        }
      ],
      "stateMutability": "view",
      "type": "function"
    },
    {
      "inputs": [
        {
          "internalType": "address",
          "name": "to",
          "type": "address"
        },
        {
          "internalType": "uint256",
          "name": "tokenId",
          "type": "uint256"
        }
      ],
      "name": "approve",
      "outputs": [],
      "stateMutability": "nonpayable",
      "type": "function"
    },
    {
      "inputs": [
        {
          "internalType": "address",
          "name": "owner",
          "type": "address"
        }
      ],
      "name": "balanceOf",
      "outputs": [
        {
          "internalType": "uint256",
          "name": "",
          "type": "uint256"
        }
      ],
      "stateMutability": "view",
      "type": "function"
    },
    {
      "inputs": [],
      "name": "baseTokenURI",
      "outputs": [
        {
          "internalType": "string",
          "name": "",
          "type": "string"
        }
      ],
      "stateMutability": "view",
      "type": "function"
    },
    {
      "inputs": [
        {
          "internalType": "uint256",
          "name": "tokenId",
          "type": "uint256"
        }
      ],
      "name": "getApproved",
      "outputs": [
        {
          "internalType": "address",
          "name": "",
          "type": "address"
        }
      ],
      "stateMutability": "view",
      "type": "function"
    },
    {
      "inputs": [
        {
          "internalType": "bytes32",
          "name": "role",
          "type": "bytes32"
        }
      ],
      "name": "getRoleAdmin",
      "outputs": [
        {
          "internalType": "bytes32",
          "name": "",
          "type": "bytes32"
        }
      ],
      "stateMutability": "view",
      "type": "function"
    },
    {
      "inputs": [
        {
          "internalType": "bytes32",
          "name": "role",
          "type": "bytes32"
        },
        {
          "internalType": "address",
          "name": "account",
          "type": "address"
        }
      ],
      "name": "grantRole",
      "outputs": [],
      "stateMutability": "nonpayable",
      "type": "function"
    },
    {
      "inputs": [
        {
          "internalType": "bytes32",
          "name": "role",
          "type": "bytes32"
        },
        {
          "internalType": "address",
          "name": "account",
          "type": "address"
        }
      ],
      "name": "hasRole",
      "outputs": [
        {
          "internalType": "bool",
          "name": "",
          "type": "bool"
        }
      ],
      "stateMutability": "view",
      "type": "function"
    },
    {
      "inputs": [
        {
          "internalType": "address",
          "name": "owner",
          "type": "address"
        },
        {
          "internalType": "address",
          "name": "operator",
          "type": "address"
        }
      ],
      "name": "isApprovedForAll",
      "outputs": [
        {
          "internalType": "bool",
          "name": "",
          "type": "bool"
        }
      ],
      "stateMutability": "view",
      "type": "function"
    },
    {
      "inputs": [],
      "name": "name",
      "outputs": [
        {
          "internalType": "string",
          "name": "",
          "type": "string"
        }
      ],
      "stateMutability": "view",
      "type": "function"
    },
    {
      "inputs": [],
      "name": "owner",
      "outputs": [
        {
          "internalType": "address",
          "name": "",
          "type": "address"
        }
      ],
      "stateMutability": "view",
      "type": "function"
    },
    {
      "inputs": [
        {
          "internalType": "uint256",
          "name": "tokenId",
          "type": "uint256"
        }
      ],
      "name": "ownerOf",
      "outputs": [
        {
          "internalType": "address",
          "name": "",
          "type": "address"
        }
      ],
      "stateMutability": "view",
      "type": "function"
    },
    {
      "inputs": [],
      "name": "renounceOwnership",
      "outputs": [],
      "stateMutability": "nonpayable",
      "type": "function"
    },
    {
      "inputs": [
        {
          "internalType": "bytes32",
          "name": "role",
          "type": "bytes32"
        },
        {
          "internalType": "address",
          "name": "account",
          "type": "address"
        }
      ],
      "name": "renounceRole",
      "outputs": [],
      "stateMutability": "nonpayable",
      "type": "function"
    },
    {
      "inputs": [
        {
          "internalType": "bytes32",
          "name": "role",
          "type": "bytes32"
        },
        {
          "internalType": "address",
          "name": "account",
          "type": "address"
        }
      ],
      "name": "revokeRole",
      "outputs": [],
      "stateMutability": "nonpayable",
      "type": "function"
    },
    {
      "inputs": [
        {
          "internalType": "address",
          "name": "from",
          "type": "address"
        },
        {
          "internalType": "address",
          "name": "to",
          "type": "address"
        },
        {
          "internalType": "uint256",
          "name": "tokenId",
          "type": "uint256"
        }
      ],
      "name": "safeTransferFrom",
      "outputs": [],
      "stateMutability": "nonpayable",
      "type": "function"
    },
    {
      "inputs": [
        {
          "internalType": "address",
          "name": "from",
          "type": "address"
        },
        {
          "internalType": "address",
          "name": "to",
          "type": "address"
        },
        {
          "internalType": "uint256",
          "name": "tokenId",
          "type": "uint256"
        },
        {
          "internalType": "bytes",
          "name": "_data",
          "type": "bytes"
        }
      ],
      "name": "safeTransferFrom",
      "outputs": [],
      "stateMutability": "nonpayable",
      "type": "function"
    },
    {
      "inputs": [
        {
          "internalType": "address",
          "name": "operator",
          "type": "address"
        },
        {
          "internalType": "bool",
          "name": "approved",
          "type": "bool"
        }
      ],
      "name": "setApprovalForAll",
      "outputs": [],
      "stateMutability": "nonpayable",
      "type": "function"
    },
    {
      "inputs": [],
      "name": "symbol",
      "outputs": [
        {
          "internalType": "string",
          "name": "",
          "type": "string"
        }
      ],
      "stateMutability": "view",
      "type": "function"
    },
    {
      "inputs": [
        {
          "internalType": "uint256",
          "name": "index",
          "type": "uint256"
        }
      ],
      "name": "tokenByIndex",
      "outputs": [
        {
          "internalType": "uint256",
          "name": "",
          "type": "uint256"
        }
      ],
      "stateMutability": "view",
      "type": "function"
    },
    {
      "inputs": [
        {
          "internalType": "address",
          "name": "owner",
          "type": "address"
        },
        {
          "internalType": "uint256",
          "name": "index",
          "type": "uint256"
        }
      ],
      "name": "tokenOfOwnerByIndex",
      "outputs": [
        {
          "internalType": "uint256",
          "name": "",
          "type": "uint256"
        }
      ],
      "stateMutability": "view",
      "type": "function"
    },
    {
      "inputs": [],
      "name": "totalSupply",
      "outputs": [
        {
          "internalType": "uint256",
          "name": "",
          "type": "uint256"
        }
      ],
      "stateMutability": "view",
      "type": "function"
    },
    {
      "inputs": [
        {
          "internalType": "address",
          "name": "from",
          "type": "address"
        },
        {
          "internalType": "address",
          "name": "to",
          "type": "address"
        },
        {
          "internalType": "uint256",
          "name": "tokenId",
          "type": "uint256"
        }
      ],
      "name": "transferFrom",
      "outputs": [],
      "stateMutability": "nonpayable",
      "type": "function"
    },
    {
      "inputs": [
        {
          "internalType": "address",
          "name": "newOwner",
          "type": "address"
        }
      ],
      "name": "transferOwnership",
      "outputs": [],
      "stateMutability": "nonpayable",
      "type": "function"
    },
    {
      "inputs": [
        {
          "internalType": "string",
          "name": "_name",
          "type": "string"
        },
        {
          "internalType": "string",
          "name": "_symbol",
          "type": "string"
        },
        {
          "internalType": "string",
          "name": "_baseTokenURI",
          "type": "string"
        }
      ],
      "name": "initialize",
      "outputs": [],
      "stateMutability": "nonpayable",
      "type": "function"
    },
    {
      "inputs": [
        {
          "internalType": "string",
          "name": "baseURI_",
          "type": "string"
        }
      ],
      "name": "setBaseURI",
      "outputs": [],
      "stateMutability": "nonpayable",
      "type": "function"
    },
    {
      "inputs": [
        {
          "internalType": "uint256",
          "name": "tokenId",
          "type": "uint256"
        }
      ],
      "name": "tokenURI",
      "outputs": [
        {
          "internalType": "string",
          "name": "",
          "type": "string"
        }
      ],
      "stateMutability": "view",
      "type": "function"
    },
    {
      "inputs": [
        {
          "internalType": "bytes4",
          "name": "interfaceId",
          "type": "bytes4"
        }
      ],
      "name": "supportsInterface",
      "outputs": [
        {
          "internalType": "bool",
          "name": "",
          "type": "bool"
        }
      ],
      "stateMutability": "view",
      "type": "function"
    }
  ],
  "bytecode": "0x608060405234801561001057600080fd5b50614639806100206000396000f3fe608060405234801561001057600080fd5b506004361061020d576000357c01000000000000000000000000000000000000000000000000000000009004806370a082311161012c578063a6487c53116100bf578063d547741f1161008e578063d547741f146105d6578063d547cfb7146105f2578063e985e9c514610610578063f2fde38b146106405761020d565b8063a6487c5314610550578063b88d4fde1461056c578063c87b56dd14610588578063d5391393146105b85761020d565b806391d14854116100fb57806391d14854146104c857806395d89b41146104f8578063a217fddf14610516578063a22cb465146105345761020d565b806370a0823114610452578063715018a6146104825780638d859f3e1461048c5780638da5cb5b146104aa5761020d565b80632f2ff15d116101a457806342842e0e1161017357806342842e0e146103ba5780634f6ccce7146103d657806355f804b3146104065780636352211e146104225761020d565b80632f2ff15d146103345780632f745c591461035057806332cb6b0c1461038057806336568abe1461039e5761020d565b806309d42b30116101e057806309d42b30146102ac57806318160ddd146102ca57806323b872dd146102e8578063248a9ca3146103045761020d565b806301ffc9a71461021257806306fdde0314610242578063081812fc14610260578063095ea7b314610290575b600080fd5b61022c60048036038101906102279190612f62565b61065c565b6040516102399190612faa565b60405180910390f35b61024a61066e565b604051610257919061305e565b60405180910390f35b61027a600480360381019061027591906130b6565b610700565b6040516102879190613124565b60405180910390f35b6102aa60048036038101906102a5919061316b565b610785565b005b6102b461089d565b6040516102c191906131ba565b60405180910390f35b6102d26108a2565b6040516102df91906131ba565b60405180910390f35b61030260048036038101906102fd91906131d5565b6108af565b005b61031e6004803603810190610319919061325e565b61090f565b60405161032b919061329a565b60405180910390f35b61034e600480360381019061034991906132b5565b61092f565b005b61036a6004803603810190610365919061316b565b610958565b60405161037791906131ba565b60405180910390f35b6103886109fd565b60405161039591906131ba565b60405180910390f35b6103b860048036038101906103b391906132b5565b610a03565b005b6103d460048036038101906103cf91906131d5565b610a86565b005b6103f060048036038101906103eb91906130b6565b610aa6565b6040516103fd91906131ba565b60405180910390f35b610420600480360381019061041b919061342a565b610b17565b005b61043c600480360381019061043791906130b6565b610bae565b6040516104499190613124565b60405180910390f35b61046c60048036038101906104679190613473565b610c60565b60405161047991906131ba565b60405180910390f35b61048a610d18565b005b610494610da0565b6040516104a191906131ba565b60405180910390f35b6104b2610daa565b6040516104bf9190613124565b60405180910390f35b6104e260048036038101906104dd91906132b5565b610dd5565b6040516104ef9190612faa565b60405180910390f35b610500610e40565b60405161050d919061305e565b60405180910390f35b61051e610ed2565b60405161052b919061329a565b60405180910390f35b61054e600480360381019061054991906134cc565b610eda565b005b61056a6004803603810190610565919061350c565b610ef0565b005b61058660048036038101906105819190613654565b611034565b005b6105a2600480360381019061059d91906130b6565b611096565b6040516105af919061305e565b60405180910390f35b6105c061122a565b6040516105cd919061329a565b60405180910390f35b6105f060048036038101906105eb91906132b5565b61124e565b005b6105fa611277565b604051610607919061305e565b60405180910390f35b61062a600480360381019061062591906136d7565b611306565b6040516106379190612faa565b60405180910390f35b61065a60048036038101906106559190613473565b61139a565b005b600061066782611492565b9050919050565b60606065805461067d90613746565b80601f01602080910402602001604051908101604052809291908181526020018280546106a990613746565b80156106f65780601f106106cb576101008083540402835291602001916106f6565b820191906000526020600020905b8154815290600101906020018083116106d957829003601f168201915b5050505050905090565b600061070b8261150c565b61074a576040517f08c379a0000000000000000000000000000000000000000000000000000000008152600401610741906137ea565b60405180910390fd5b6069600083815260200190815260200160002060009054906101000a900473ffffffffffffffffffffffffffffffffffffffff169050919050565b600061079082610bae565b90508073ffffffffffffffffffffffffffffffffffffffff168373ffffffffffffffffffffffffffffffffffffffff161415610801576040517f08c379a00000000000000000000000000000000000000000000000000000000081526004016107f89061387c565b60405180910390fd5b8073ffffffffffffffffffffffffffffffffffffffff16610820611578565b73ffffffffffffffffffffffffffffffffffffffff16148061084f575061084e81610849611578565b611306565b5b61088e576040517f08c379a00000000000000000000000000000000000000000000000000000000081526004016108859061390e565b60405180910390fd5b6108988383611580565b505050565b606481565b600060fd80549050905090565b6108c06108ba611578565b82611639565b6108ff576040517f08c379a00000000000000000000000000000000000000000000000000000000081526004016108f6906139a0565b60405180910390fd5b61090a838383611717565b505050565b600060c96000838152602001908152602001600020600101549050919050565b6109388261090f565b61094981610944611578565b611973565b6109538383611a11565b505050565b600061096383610c60565b82106109a4576040517f08c379a000000000000000000000000000000000000000000000000000000000815260040161099b90613a32565b60405180910390fd5b60fb60008473ffffffffffffffffffffffffffffffffffffffff1673ffffffffffffffffffffffffffffffffffffffff168152602001908152602001600020600083815260200190815260200160002054905092915050565b61c35081565b610a0b611578565b73ffffffffffffffffffffffffffffffffffffffff168173ffffffffffffffffffffffffffffffffffffffff1614610a78576040517f08c379a0000000000000000000000000000000000000000000000000000000008152600401610a6f90613ac4565b60405180910390fd5b610a828282611af2565b5050565b610aa183838360405180602001604052806000815250611034565b505050565b6000610ab06108a2565b8210610af1576040517f08c379a0000000000000000000000000000000000000000000000000000000008152600401610ae890613b56565b60405180910390fd5b60fd8281548110610b0557610b04613b76565b5b90600052602060002001549050919050565b610b1f611578565b73ffffffffffffffffffffffffffffffffffffffff16610b3d610daa565b73ffffffffffffffffffffffffffffffffffffffff1614610b93576040517f08c379a0000000000000000000000000000000000000000000000000000000008152600401610b8a90613bf1565b60405180910390fd5b8061015f9080519060200190610baa929190612e53565b5050565b6000806067600084815260200190815260200160002060009054906101000a900473ffffffffffffffffffffffffffffffffffffffff169050600073ffffffffffffffffffffffffffffffffffffffff168173ffffffffffffffffffffffffffffffffffffffff161415610c57576040517f08c379a0000000000000000000000000000000000000000000000000000000008152600401610c4e90613c83565b60405180910390fd5b80915050919050565b60008073ffffffffffffffffffffffffffffffffffffffff168273ffffffffffffffffffffffffffffffffffffffff161415610cd1576040517f08c379a0000000000000000000000000000000000000000000000000000000008152600401610cc890613d15565b60405180910390fd5b606860008373ffffffffffffffffffffffffffffffffffffffff1673ffffffffffffffffffffffffffffffffffffffff168152602001908152602001600020549050919050565b610d20611578565b73ffffffffffffffffffffffffffffffffffffffff16610d3e610daa565b73ffffffffffffffffffffffffffffffffffffffff1614610d94576040517f08c379a0000000000000000000000000000000000000000000000000000000008152600401610d8b90613bf1565b60405180910390fd5b610d9e6000611bd4565b565b655af3107a400081565b600061012d60009054906101000a900473ffffffffffffffffffffffffffffffffffffffff16905090565b600060c9600084815260200190815260200160002060000160008373ffffffffffffffffffffffffffffffffffffffff1673ffffffffffffffffffffffffffffffffffffffff16815260200190815260200160002060009054906101000a900460ff16905092915050565b606060668054610e4f90613746565b80601f0160208091040260200160405190810160405280929190818152602001828054610e7b90613746565b8015610ec85780601f10610e9d57610100808354040283529160200191610ec8565b820191906000526020600020905b815481529060010190602001808311610eab57829003601f168201915b5050505050905090565b600060010281565b610eec610ee5611578565b8383611c9c565b5050565b600060019054906101000a900460ff1680610f16575060008054906101000a900460ff16155b610f55576040517f08c379a0000000000000000000000000000000000000000000000000000000008152600401610f4c90613da7565b60405180910390fd5b60008060019054906101000a900460ff161590508015610fa5576001600060016101000a81548160ff02191690831515021790555060016000806101000a81548160ff0219169083151502179055505b610faf8484611e09565b816101609080519060200190610fc6929190612e53565b50610fdc6000600102610fd7610daa565b611a11565b61100d7f9f2df0fed2c77648de5860a4cc508cd0818c85b8b8a1ab4ceeef8d981c8956a6611008610daa565b611a11565b801561102e5760008060016101000a81548160ff0219169083151502179055505b50505050565b61104561103f611578565b83611639565b611084576040517f08c379a000000000000000000000000000000000000000000000000000000000815260040161107b906139a0565b60405180910390fd5b61109084848484611efe565b50505050565b6060816040518060600160405280602f81526020016145d5602f91396110bb8261150c565b81906110fd576040517f08c379a00000000000000000000000000000000000000000000000000000000081526004016110f4919061305e565b60405180910390fd5b5060006101616000868152602001908152602001600020805461111f90613746565b80601f016020809104026020016040519081016040528092919081815260200182805461114b90613746565b80156111985780601f1061116d57610100808354040283529160200191611198565b820191906000526020600020905b81548152906001019060200180831161117b57829003601f168201915b5050505050905060006111a9611f5a565b90506000815114156111bf578194505050611223565b6000825111156111f45780826040516020016111dc929190613e03565b60405160208183030381529060405294505050611223565b806111fe87611fed565b60405160200161120f929190613e03565b604051602081830303815290604052945050505b5050919050565b7f9f2df0fed2c77648de5860a4cc508cd0818c85b8b8a1ab4ceeef8d981c8956a681565b6112578261090f565b61126881611263611578565b611973565b6112728383611af2565b505050565b610160805461128590613746565b80601f01602080910402602001604051908101604052809291908181526020018280546112b190613746565b80156112fe5780601f106112d3576101008083540402835291602001916112fe565b820191906000526020600020905b8154815290600101906020018083116112e157829003601f168201915b505050505081565b6000606a60008473ffffffffffffffffffffffffffffffffffffffff1673ffffffffffffffffffffffffffffffffffffffff16815260200190815260200160002060008373ffffffffffffffffffffffffffffffffffffffff1673ffffffffffffffffffffffffffffffffffffffff16815260200190815260200160002060009054906101000a900460ff16905092915050565b6113a2611578565b73ffffffffffffffffffffffffffffffffffffffff166113c0610daa565b73ffffffffffffffffffffffffffffffffffffffff1614611416576040517f08c379a000000000000000000000000000000000000000000000000000000000815260040161140d90613bf1565b60405180910390fd5b600073ffffffffffffffffffffffffffffffffffffffff168173ffffffffffffffffffffffffffffffffffffffff161415611486576040517f08c379a000000000000000000000000000000000000000000000000000000000815260040161147d90613e99565b60405180910390fd5b61148f81611bd4565b50565b60007f780e9d63000000000000000000000000000000000000000000000000000000007bffffffffffffffffffffffffffffffffffffffffffffffffffffffff1916827bffffffffffffffffffffffffffffffffffffffffffffffffffffffff1916148061150557506115048261216d565b5b9050919050565b60008073ffffffffffffffffffffffffffffffffffffffff166067600084815260200190815260200160002060009054906101000a900473ffffffffffffffffffffffffffffffffffffffff1673ffffffffffffffffffffffffffffffffffffffff1614159050919050565b600033905090565b816069600083815260200190815260200160002060006101000a81548173ffffffffffffffffffffffffffffffffffffffff021916908373ffffffffffffffffffffffffffffffffffffffff160217905550808273ffffffffffffffffffffffffffffffffffffffff166115f383610bae565b73ffffffffffffffffffffffffffffffffffffffff167f8c5be1e5ebec7d5bd14f71427d1e84f3dd0314c0f7b2291e5b200ac8c7c3b92560405160405180910390a45050565b60006116448261150c565b611683576040517f08c379a000000000000000000000000000000000000000000000000000000000815260040161167a90613f2b565b60405180910390fd5b600061168e83610bae565b90508073ffffffffffffffffffffffffffffffffffffffff168473ffffffffffffffffffffffffffffffffffffffff1614806116fd57508373ffffffffffffffffffffffffffffffffffffffff166116e584610700565b73ffffffffffffffffffffffffffffffffffffffff16145b8061170e575061170d8185611306565b5b91505092915050565b8273ffffffffffffffffffffffffffffffffffffffff1661173782610bae565b73ffffffffffffffffffffffffffffffffffffffff161461178d576040517f08c379a000000000000000000000000000000000000000000000000000000000815260040161178490613fbd565b60405180910390fd5b600073ffffffffffffffffffffffffffffffffffffffff168273ffffffffffffffffffffffffffffffffffffffff1614156117fd576040517f08c379a00000000000000000000000000000000000000000000000000000000081526004016117f49061404f565b60405180910390fd5b6118088383836121e7565b611813600082611580565b6001606860008573ffffffffffffffffffffffffffffffffffffffff1673ffffffffffffffffffffffffffffffffffffffff1681526020019081526020016000206000828254611863919061409e565b925050819055506001606860008473ffffffffffffffffffffffffffffffffffffffff1673ffffffffffffffffffffffffffffffffffffffff16815260200190815260200160002060008282546118ba91906140d2565b92505081905550816067600083815260200190815260200160002060006101000a81548173ffffffffffffffffffffffffffffffffffffffff021916908373ffffffffffffffffffffffffffffffffffffffff160217905550808273ffffffffffffffffffffffffffffffffffffffff168473ffffffffffffffffffffffffffffffffffffffff167fddf252ad1be2c89b69c2b068fc378daa952ba7f163c4a11628f55a4df523b3ef60405160405180910390a4505050565b61197d8282610dd5565b611a0d576119a28173ffffffffffffffffffffffffffffffffffffffff1660146121f7565b6119b1836001900460206121f7565b6040516020016119c29291906141c0565b6040516020818303038152906040526040517f08c379a0000000000000000000000000000000000000000000000000000000008152600401611a04919061305e565b60405180910390fd5b5050565b611a1b8282610dd5565b611aee57600160c9600084815260200190815260200160002060000160008373ffffffffffffffffffffffffffffffffffffffff1673ffffffffffffffffffffffffffffffffffffffff16815260200190815260200160002060006101000a81548160ff021916908315150217905550611a93611578565b73ffffffffffffffffffffffffffffffffffffffff168173ffffffffffffffffffffffffffffffffffffffff16837f2f8788117e7eff1d82e926ec794901d17c78024a50270940304540a733656f0d60405160405180910390a45b5050565b611afc8282610dd5565b15611bd057600060c9600084815260200190815260200160002060000160008373ffffffffffffffffffffffffffffffffffffffff1673ffffffffffffffffffffffffffffffffffffffff16815260200190815260200160002060006101000a81548160ff021916908315150217905550611b75611578565b73ffffffffffffffffffffffffffffffffffffffff168173ffffffffffffffffffffffffffffffffffffffff16837ff6391f5c32d9c69d2a47ea670b442974b53935d1edc7fd64eb21e047a839171b60405160405180910390a45b5050565b600061012d60009054906101000a900473ffffffffffffffffffffffffffffffffffffffff1690508161012d60006101000a81548173ffffffffffffffffffffffffffffffffffffffff021916908373ffffffffffffffffffffffffffffffffffffffff1602179055508173ffffffffffffffffffffffffffffffffffffffff168173ffffffffffffffffffffffffffffffffffffffff167f8be0079c531659141344cd1fd0a4f28419497f9722a3daafe3b4186f6b6457e060405160405180910390a35050565b8173ffffffffffffffffffffffffffffffffffffffff168373ffffffffffffffffffffffffffffffffffffffff161415611d0b576040517f08c379a0000000000000000000000000000000000000000000000000000000008152600401611d0290614246565b60405180910390fd5b80606a60008573ffffffffffffffffffffffffffffffffffffffff1673ffffffffffffffffffffffffffffffffffffffff16815260200190815260200160002060008473ffffffffffffffffffffffffffffffffffffffff1673ffffffffffffffffffffffffffffffffffffffff16815260200190815260200160002060006101000a81548160ff0219169083151502179055508173ffffffffffffffffffffffffffffffffffffffff168373ffffffffffffffffffffffffffffffffffffffff167f17307eab39ab6107e8899845ad3d59bd9653f200f220920489ca2b5937696c3183604051611dfc9190612faa565b60405180910390a3505050565b600060019054906101000a900460ff1680611e2f575060008054906101000a900460ff16155b611e6e576040517f08c379a0000000000000000000000000000000000000000000000000000000008152600401611e6590613da7565b60405180910390fd5b60008060019054906101000a900460ff161590508015611ebe576001600060016101000a81548160ff02191690831515021790555060016000806101000a81548160ff0219169083151502179055505b611ec661245a565b611ece612533565b611ed8838361260c565b8015611ef95760008060016101000a81548160ff0219169083151502179055505b505050565b611f09848484611717565b611f1584848484612715565b611f54576040517f08c379a0000000000000000000000000000000000000000000000000000000008152600401611f4b906142d8565b60405180910390fd5b50505050565b606061015f8054611f6a90613746565b80601f0160208091040260200160405190810160405280929190818152602001828054611f9690613746565b8015611fe35780601f10611fb857610100808354040283529160200191611fe3565b820191906000526020600020905b815481529060010190602001808311611fc657829003601f168201915b5050505050905090565b60606000821415612035576040518060400160405280600181526020017f30000000000000000000000000000000000000000000000000000000000000008152509050612168565b600082905060005b60008214612067578080612050906142f8565b915050600a826120609190614370565b915061203d565b60008167ffffffffffffffff811115612083576120826132ff565b5b6040519080825280601f01601f1916602001820160405280156120b55781602001600182028036833780820191505090505b5090505b60008514612161576001826120ce919061409e565b9150600a856120dd91906143a1565b60306120e991906140d2565b7f01000000000000000000000000000000000000000000000000000000000000000281838151811061211e5761211d613b76565b5b60200101907effffffffffffffffffffffffffffffffffffffffffffffffffffffffffffff1916908160001a905350600a8561215a9190614370565b94506120b9565b8093505050505b919050565b60007f7965db0b000000000000000000000000000000000000000000000000000000007bffffffffffffffffffffffffffffffffffffffffffffffffffffffff1916827bffffffffffffffffffffffffffffffffffffffffffffffffffffffff191614806121e057506121df826128d5565b5b9050919050565b6121f28383836129b7565b505050565b60606000600283600261220a91906143d2565b61221491906140d2565b67ffffffffffffffff81111561222d5761222c6132ff565b5b6040519080825280601f01601f19166020018201604052801561225f5781602001600182028036833780820191505090505b5090507f30000000000000000000000000000000000000000000000000000000000000008160008151811061229757612296613b76565b5b60200101907effffffffffffffffffffffffffffffffffffffffffffffffffffffffffffff1916908160001a9053507f7800000000000000000000000000000000000000000000000000000000000000816001815181106122fb576122fa613b76565b5b60200101907effffffffffffffffffffffffffffffffffffffffffffffffffffffffffffff1916908160001a9053506000600184600261233b91906143d2565b61234591906140d2565b90505b600181111561240c577f3031323334353637383961626364656600000000000000000000000000000000600f86166010811061238757612386613b76565b5b1a7f0100000000000000000000000000000000000000000000000000000000000000028282815181106123bd576123bc613b76565b5b60200101907effffffffffffffffffffffffffffffffffffffffffffffffffffffffffffff1916908160001a905350600485908060020a82049150509450806124059061442c565b9050612348565b5060008414612450576040517f08c379a0000000000000000000000000000000000000000000000000000000008152600401612447906144a2565b60405180910390fd5b8091505092915050565b600060019054906101000a900460ff1680612480575060008054906101000a900460ff16155b6124bf576040517f08c379a00000000000000000000000000000000000000000000000000000000081526004016124b690613da7565b60405180910390fd5b60008060019054906101000a900460ff16159050801561250f576001600060016101000a81548160ff02191690831515021790555060016000806101000a81548160ff0219169083151502179055505b80156125305760008060016101000a81548160ff0219169083151502179055505b50565b600060019054906101000a900460ff1680612559575060008054906101000a900460ff16155b612598576040517f08c379a000000000000000000000000000000000000000000000000000000000815260040161258f90613da7565b60405180910390fd5b60008060019054906101000a900460ff1615905080156125e8576001600060016101000a81548160ff02191690831515021790555060016000806101000a81548160ff0219169083151502179055505b80156126095760008060016101000a81548160ff0219169083151502179055505b50565b600060019054906101000a900460ff1680612632575060008054906101000a900460ff16155b612671576040517f08c379a000000000000000000000000000000000000000000000000000000000815260040161266890613da7565b60405180910390fd5b60008060019054906101000a900460ff1615905080156126c1576001600060016101000a81548160ff02191690831515021790555060016000806101000a81548160ff0219169083151502179055505b82606590805190602001906126d7929190612e53565b5081606690805190602001906126ee929190612e53565b5080156127105760008060016101000a81548160ff0219169083151502179055505b505050565b60006127368473ffffffffffffffffffffffffffffffffffffffff16612acb565b156128c8578373ffffffffffffffffffffffffffffffffffffffff1663150b7a0261275f611578565b8786866040518563ffffffff167c010000000000000000000000000000000000000000000000000000000002815260040161279d9493929190614517565b6020604051808303816000875af19250505080156127d957506040513d601f19601f820116820180604052508101906127d69190614578565b60015b61285c573d8060008114612809576040519150601f19603f3d011682016040523d82523d6000602084013e61280e565b606091505b50600081511415612854576040517f08c379a000000000000000000000000000000000000000000000000000000000815260040161284b906142d8565b60405180910390fd5b805181602001fd5b63150b7a027c0100000000000000000000000000000000000000000000000000000000027bffffffffffffffffffffffffffffffffffffffffffffffffffffffff1916817bffffffffffffffffffffffffffffffffffffffffffffffffffffffff1916149150506128cd565b600190505b949350505050565b60007f80ac58cd000000000000000000000000000000000000000000000000000000007bffffffffffffffffffffffffffffffffffffffffffffffffffffffff1916827bffffffffffffffffffffffffffffffffffffffffffffffffffffffff191614806129a057507f5b5e139f000000000000000000000000000000000000000000000000000000007bffffffffffffffffffffffffffffffffffffffffffffffffffffffff1916827bffffffffffffffffffffffffffffffffffffffffffffffffffffffff1916145b806129b057506129af82612ade565b5b9050919050565b6129c2838383612b48565b600073ffffffffffffffffffffffffffffffffffffffff168373ffffffffffffffffffffffffffffffffffffffff161415612a0557612a0081612b4d565b612a44565b8173ffffffffffffffffffffffffffffffffffffffff168373ffffffffffffffffffffffffffffffffffffffff1614612a4357612a428382612b96565b5b5b600073ffffffffffffffffffffffffffffffffffffffff168273ffffffffffffffffffffffffffffffffffffffff161415612a8757612a8281612d03565b612ac6565b8273ffffffffffffffffffffffffffffffffffffffff168273ffffffffffffffffffffffffffffffffffffffff1614612ac557612ac48282612dd4565b5b5b505050565b600080823b905060008111915050919050565b60007f01ffc9a7000000000000000000000000000000000000000000000000000000007bffffffffffffffffffffffffffffffffffffffffffffffffffffffff1916827bffffffffffffffffffffffffffffffffffffffffffffffffffffffff1916149050919050565b505050565b60fd8054905060fe60008381526020019081526020016000208190555060fd81908060018154018082558091505060019003906000526020600020016000909190919091505550565b60006001612ba384610c60565b612bad919061409e565b9050600060fc6000848152602001908152602001600020549050818114612c9257600060fb60008673ffffffffffffffffffffffffffffffffffffffff1673ffffffffffffffffffffffffffffffffffffffff16815260200190815260200160002060008481526020019081526020016000205490508060fb60008773ffffffffffffffffffffffffffffffffffffffff1673ffffffffffffffffffffffffffffffffffffffff1681526020019081526020016000206000848152602001908152602001600020819055508160fc600083815260200190815260200160002081905550505b60fc60008481526020019081526020016000206000905560fb60008573ffffffffffffffffffffffffffffffffffffffff1673ffffffffffffffffffffffffffffffffffffffff16815260200190815260200160002060008381526020019081526020016000206000905550505050565b6000600160fd80549050612d17919061409e565b9050600060fe6000848152602001908152602001600020549050600060fd8381548110612d4757612d46613b76565b5b906000526020600020015490508060fd8381548110612d6957612d68613b76565b5b90600052602060002001819055508160fe60008381526020019081526020016000208190555060fe60008581526020019081526020016000206000905560fd805480612db857612db76145a5565b5b6001900381819060005260206000200160009055905550505050565b6000612ddf83610c60565b90508160fb60008573ffffffffffffffffffffffffffffffffffffffff1673ffffffffffffffffffffffffffffffffffffffff1681526020019081526020016000206000838152602001908152602001600020819055508060fc600084815260200190815260200160002081905550505050565b828054612e5f90613746565b90600052602060002090601f016020900481019282612e815760008555612ec8565b82601f10612e9a57805160ff1916838001178555612ec8565b82800160010185558215612ec8579182015b82811115612ec7578251825591602001919060010190612eac565b5b509050612ed59190612ed9565b5090565b5b80821115612ef2576000816000905550600101612eda565b5090565b6000604051905090565b600080fd5b600080fd5b60007fffffffff0000000000000000000000000000000000000000000000000000000082169050919050565b612f3f81612f0a565b8114612f4a57600080fd5b50565b600081359050612f5c81612f36565b92915050565b600060208284031215612f7857612f77612f00565b5b6000612f8684828501612f4d565b91505092915050565b60008115159050919050565b612fa481612f8f565b82525050565b6000602082019050612fbf6000830184612f9b565b92915050565b600081519050919050565b600082825260208201905092915050565b60005b83811015612fff578082015181840152602081019050612fe4565b8381111561300e576000848401525b50505050565b6000601f19601f8301169050919050565b600061303082612fc5565b61303a8185612fd0565b935061304a818560208601612fe1565b61305381613014565b840191505092915050565b600060208201905081810360008301526130788184613025565b905092915050565b6000819050919050565b61309381613080565b811461309e57600080fd5b50565b6000813590506130b08161308a565b92915050565b6000602082840312156130cc576130cb612f00565b5b60006130da848285016130a1565b91505092915050565b600073ffffffffffffffffffffffffffffffffffffffff82169050919050565b600061310e826130e3565b9050919050565b61311e81613103565b82525050565b60006020820190506131396000830184613115565b92915050565b61314881613103565b811461315357600080fd5b50565b6000813590506131658161313f565b92915050565b6000806040838503121561318257613181612f00565b5b600061319085828601613156565b92505060206131a1858286016130a1565b9150509250929050565b6131b481613080565b82525050565b60006020820190506131cf60008301846131ab565b92915050565b6000806000606084860312156131ee576131ed612f00565b5b60006131fc86828701613156565b935050602061320d86828701613156565b925050604061321e868287016130a1565b9150509250925092565b6000819050919050565b61323b81613228565b811461324657600080fd5b50565b60008135905061325881613232565b92915050565b60006020828403121561327457613273612f00565b5b600061328284828501613249565b91505092915050565b61329481613228565b82525050565b60006020820190506132af600083018461328b565b92915050565b600080604083850312156132cc576132cb612f00565b5b60006132da85828601613249565b92505060206132eb85828601613156565b9150509250929050565b600080fd5b600080fd5b7f4e487b7100000000000000000000000000000000000000000000000000000000600052604160045260246000fd5b61333782613014565b810181811067ffffffffffffffff82111715613356576133556132ff565b5b80604052505050565b6000613369612ef6565b9050613375828261332e565b919050565b600067ffffffffffffffff821115613395576133946132ff565b5b61339e82613014565b9050602081019050919050565b82818337600083830152505050565b60006133cd6133c88461337a565b61335f565b9050828152602081018484840111156133e9576133e86132fa565b5b6133f48482856133ab565b509392505050565b600082601f830112613411576134106132f5565b5b81356134218482602086016133ba565b91505092915050565b6000602082840312156134405761343f612f00565b5b600082013567ffffffffffffffff81111561345e5761345d612f05565b5b61346a848285016133fc565b91505092915050565b60006020828403121561348957613488612f00565b5b600061349784828501613156565b91505092915050565b6134a981612f8f565b81146134b457600080fd5b50565b6000813590506134c6816134a0565b92915050565b600080604083850312156134e3576134e2612f00565b5b60006134f185828601613156565b9250506020613502858286016134b7565b9150509250929050565b60008060006060848603121561352557613524612f00565b5b600084013567ffffffffffffffff81111561354357613542612f05565b5b61354f868287016133fc565b935050602084013567ffffffffffffffff8111156135705761356f612f05565b5b61357c868287016133fc565b925050604084013567ffffffffffffffff81111561359d5761359c612f05565b5b6135a9868287016133fc565b9150509250925092565b600067ffffffffffffffff8211156135ce576135cd6132ff565b5b6135d782613014565b9050602081019050919050565b60006135f76135f2846135b3565b61335f565b905082815260208101848484011115613613576136126132fa565b5b61361e8482856133ab565b509392505050565b600082601f83011261363b5761363a6132f5565b5b813561364b8482602086016135e4565b91505092915050565b6000806000806080858703121561366e5761366d612f00565b5b600061367c87828801613156565b945050602061368d87828801613156565b935050604061369e878288016130a1565b925050606085013567ffffffffffffffff8111156136bf576136be612f05565b5b6136cb87828801613626565b91505092959194509250565b600080604083850312156136ee576136ed612f00565b5b60006136fc85828601613156565b925050602061370d85828601613156565b9150509250929050565b7f4e487b7100000000000000000000000000000000000000000000000000000000600052602260045260246000fd5b6000600282049050600182168061375e57607f821691505b6020821081141561377257613771613717565b5b50919050565b7f4552433732313a20617070726f76656420717565727920666f72206e6f6e657860008201527f697374656e7420746f6b656e0000000000000000000000000000000000000000602082015250565b60006137d4602c83612fd0565b91506137df82613778565b604082019050919050565b60006020820190508181036000830152613803816137c7565b9050919050565b7f4552433732313a20617070726f76616c20746f2063757272656e74206f776e6560008201527f7200000000000000000000000000000000000000000000000000000000000000602082015250565b6000613866602183612fd0565b91506138718261380a565b604082019050919050565b6000602082019050818103600083015261389581613859565b9050919050565b7f4552433732313a20617070726f76652063616c6c6572206973206e6f74206f7760008201527f6e6572206e6f7220617070726f76656420666f7220616c6c0000000000000000602082015250565b60006138f8603883612fd0565b91506139038261389c565b604082019050919050565b60006020820190508181036000830152613927816138eb565b9050919050565b7f4552433732313a207472616e736665722063616c6c6572206973206e6f74206f60008201527f776e6572206e6f7220617070726f766564000000000000000000000000000000602082015250565b600061398a603183612fd0565b91506139958261392e565b604082019050919050565b600060208201905081810360008301526139b98161397d565b9050919050565b7f455243373231456e756d657261626c653a206f776e657220696e646578206f7560008201527f74206f6620626f756e6473000000000000000000000000000000000000000000602082015250565b6000613a1c602b83612fd0565b9150613a27826139c0565b604082019050919050565b60006020820190508181036000830152613a4b81613a0f565b9050919050565b7f416363657373436f6e74726f6c3a2063616e206f6e6c792072656e6f756e636560008201527f20726f6c657320666f722073656c660000000000000000000000000000000000602082015250565b6000613aae602f83612fd0565b9150613ab982613a52565b604082019050919050565b60006020820190508181036000830152613add81613aa1565b9050919050565b7f455243373231456e756d657261626c653a20676c6f62616c20696e646578206f60008201527f7574206f6620626f756e64730000000000000000000000000000000000000000602082015250565b6000613b40602c83612fd0565b9150613b4b82613ae4565b604082019050919050565b60006020820190508181036000830152613b6f81613b33565b9050919050565b7f4e487b7100000000000000000000000000000000000000000000000000000000600052603260045260246000fd5b7f4f776e61626c653a2063616c6c6572206973206e6f7420746865206f776e6572600082015250565b6000613bdb602083612fd0565b9150613be682613ba5565b602082019050919050565b60006020820190508181036000830152613c0a81613bce565b9050919050565b7f4552433732313a206f776e657220717565727920666f72206e6f6e657869737460008201527f656e7420746f6b656e0000000000000000000000000000000000000000000000602082015250565b6000613c6d602983612fd0565b9150613c7882613c11565b604082019050919050565b60006020820190508181036000830152613c9c81613c60565b9050919050565b7f4552433732313a2062616c616e636520717565727920666f7220746865207a6560008201527f726f206164647265737300000000000000000000000000000000000000000000602082015250565b6000613cff602a83612fd0565b9150613d0a82613ca3565b604082019050919050565b60006020820190508181036000830152613d2e81613cf2565b9050919050565b7f496e697469616c697a61626c653a20636f6e747261637420697320616c72656160008201527f647920696e697469616c697a6564000000000000000000000000000000000000602082015250565b6000613d91602e83612fd0565b9150613d9c82613d35565b604082019050919050565b60006020820190508181036000830152613dc081613d84565b9050919050565b600081905092915050565b6000613ddd82612fc5565b613de78185613dc7565b9350613df7818560208601612fe1565b80840191505092915050565b6000613e0f8285613dd2565b9150613e1b8284613dd2565b91508190509392505050565b7f4f776e61626c653a206e6577206f776e657220697320746865207a65726f206160008201527f6464726573730000000000000000000000000000000000000000000000000000602082015250565b6000613e83602683612fd0565b9150613e8e82613e27565b604082019050919050565b60006020820190508181036000830152613eb281613e76565b9050919050565b7f4552433732313a206f70657261746f7220717565727920666f72206e6f6e657860008201527f697374656e7420746f6b656e0000000000000000000000000000000000000000602082015250565b6000613f15602c83612fd0565b9150613f2082613eb9565b604082019050919050565b60006020820190508181036000830152613f4481613f08565b9050919050565b7f4552433732313a207472616e73666572206f6620746f6b656e2074686174206960008201527f73206e6f74206f776e0000000000000000000000000000000000000000000000602082015250565b6000613fa7602983612fd0565b9150613fb282613f4b565b604082019050919050565b60006020820190508181036000830152613fd681613f9a565b9050919050565b7f4552433732313a207472616e7366657220746f20746865207a65726f2061646460008201527f7265737300000000000000000000000000000000000000000000000000000000602082015250565b6000614039602483612fd0565b915061404482613fdd565b604082019050919050565b600060208201905081810360008301526140688161402c565b9050919050565b7f4e487b7100000000000000000000000000000000000000000000000000000000600052601160045260246000fd5b60006140a982613080565b91506140b483613080565b9250828210156140c7576140c661406f565b5b828203905092915050565b60006140dd82613080565b91506140e883613080565b9250827fffffffffffffffffffffffffffffffffffffffffffffffffffffffffffffffff0382111561411d5761411c61406f565b5b828201905092915050565b7f416363657373436f6e74726f6c3a206163636f756e7420000000000000000000600082015250565b600061415e601783613dc7565b915061416982614128565b601782019050919050565b7f206973206d697373696e6720726f6c6520000000000000000000000000000000600082015250565b60006141aa601183613dc7565b91506141b582614174565b601182019050919050565b60006141cb82614151565b91506141d78285613dd2565b91506141e28261419d565b91506141ee8284613dd2565b91508190509392505050565b7f4552433732313a20617070726f766520746f2063616c6c657200000000000000600082015250565b6000614230601983612fd0565b915061423b826141fa565b602082019050919050565b6000602082019050818103600083015261425f81614223565b9050919050565b7f4552433732313a207472616e7366657220746f206e6f6e20455243373231526560008201527f63656976657220696d706c656d656e7465720000000000000000000000000000602082015250565b60006142c2603283612fd0565b91506142cd82614266565b604082019050919050565b600060208201905081810360008301526142f1816142b5565b9050919050565b600061430382613080565b91507fffffffffffffffffffffffffffffffffffffffffffffffffffffffffffffffff8214156143365761433561406f565b5b600182019050919050565b7f4e487b7100000000000000000000000000000000000000000000000000000000600052601260045260246000fd5b600061437b82613080565b915061438683613080565b92508261439657614395614341565b5b828204905092915050565b60006143ac82613080565b91506143b783613080565b9250826143c7576143c6614341565b5b828206905092915050565b60006143dd82613080565b91506143e883613080565b9250817fffffffffffffffffffffffffffffffffffffffffffffffffffffffffffffffff04831182151516156144215761442061406f565b5b828202905092915050565b600061443782613080565b9150600082141561444b5761444a61406f565b5b600182039050919050565b7f537472696e67733a20686578206c656e67746820696e73756666696369656e74600082015250565b600061448c602083612fd0565b915061449782614456565b602082019050919050565b600060208201905081810360008301526144bb8161447f565b9050919050565b600081519050919050565b600082825260208201905092915050565b60006144e9826144c2565b6144f381856144cd565b9350614503818560208601612fe1565b61450c81613014565b840191505092915050565b600060808201905061452c6000830187613115565b6145396020830186613115565b61454660408301856131ab565b818103606083015261455881846144de565b905095945050505050565b60008151905061457281612f36565b92915050565b60006020828403121561458e5761458d612f00565b5b600061459c84828501614563565b91505092915050565b7f4e487b7100000000000000000000000000000000000000000000000000000000600052603160045260246000fdfe4552433732314d657461646174613a2055524920717565727920666f72206e6f6e6578697374656e7420746f6b656ea26469706673582212207245b7ae4a67bcb5590c509e55aa25f387c290a7fdae29ff3f8c6d4245f4221d64736f6c634300080a0033",
  "immutableReferences": {},
  "source": "// SPDX-License-Identifier: MIT\npragma solidity >=0.4.22 <0.9.0;\n\nimport \"@openzeppelin/contracts-upgradeable/utils/math/SafeMathUpgradeable.sol\";\nimport \"@openzeppelin/contracts-upgradeable/utils/CountersUpgradeable.sol\";\nimport \"@openzeppelin/contracts-upgradeable/token/ERC721/ERC721Upgradeable.sol\";\nimport \"@openzeppelin/contracts-upgradeable/access/OwnableUpgradeable.sol\";\nimport \"@openzeppelin/contracts-upgradeable/token/ERC721/extensions/ERC721URIStorageUpgradeable.sol\";\nimport \"@openzeppelin/contracts-upgradeable/access/AccessControlUpgradeable.sol\";\nimport \"@openzeppelin/contracts-upgradeable/proxy/utils/Initializable.sol\";\nimport \"@openzeppelin/contracts-upgradeable/token/ERC721/extensions/ERC721EnumerableUpgradeable.sol\";\n\ncontract BaseContract is\n    Initializable,\n    ERC721Upgradeable,\n    ERC721URIStorageUpgradeable,\n    AccessControlUpgradeable,\n    ERC721EnumerableUpgradeable,\n    OwnableUpgradeable\n{\n    using StringsUpgradeable for uint256;\n    using SafeMathUpgradeable for uint256;\n\n    uint256 public constant MAX_SUPPLY = 50000;\n    uint256 public constant PRICE = 0.0001 ether;\n    uint256 public constant MAX_PER_MINT = 100;\n    bytes32 public constant MINTER_ROLE = keccak256(\"MINTER_ROLE\");\n\n    // Base URI\n    string private _baseURIextended;\n    string public baseTokenURI;\n\n    // <tokenURIs mapping>\n    mapping(uint256 => string) internal tokenURIs;\n\n    /*\n     * Modifiers\n     */\n    modifier tokenExists(uint256 _tokenId, string memory message) {\n        require(_exists(_tokenId), message);\n        _;\n    }\n\n    /// @notice Instead of the constructor we need this function as we are using the upgreadable plugin. Only called once when contract is initialized. Same s constructor.\n    /// @dev upgrade will hopefully work soon\n    /// @param _name The address, the Token should be transfered to\n    /// @param _symbol The CID of the Tokens metadata\n    /// @param _baseTokenURI The CID of the Tokens metadata\n    function initialize(\n        string memory _name,\n        string memory _symbol,\n        string memory _baseTokenURI\n    ) public virtual initializer {\n        __ERC721_init(_name, _symbol);\n        baseTokenURI = _baseTokenURI;\n        _grantRole(DEFAULT_ADMIN_ROLE, owner());\n        _grantRole(MINTER_ROLE, owner());\n    }\n\n    /// @notice Sets the _baseURI of the contract\n    /// @param baseURI_ baseUri for Token (ipfs)\n    function setBaseURI(string memory baseURI_) external onlyOwner {\n        _baseURIextended = baseURI_;\n    }\n\n    /// @notice Set tokenUri of a token\n    /// @inheritdoc ERC721URIStorageUpgradeable\n    function _setTokenURI(uint256 tokenId, string memory _tokenURI)\n        internal\n        virtual\n        override(ERC721URIStorageUpgradeable)\n        tokenExists(tokenId, \"ERC721Metadata: URI set of nonexistent token\")\n    {\n        tokenURIs[tokenId] = _tokenURI;\n    }\n\n    /// @notice Returns the _baseURI of the contract\n    function _baseURI() internal view virtual override returns (string memory) {\n        return _baseURIextended;\n    }\n\n    /// @notice Burns tokens\n    /// @param tokenId of Token that should be burned\n    /// @inheritdoc ERC721Upgradeable\n    function _burn(uint256 tokenId)\n        internal\n        virtual\n        override(ERC721Upgradeable, ERC721URIStorageUpgradeable)\n    {\n        super._burn(tokenId);\n    }\n\n    /// @notice Returns tokenURI. If baseURI is set, concatenate the baseURI and tokenURI (via abi.encodePacked).\n    /// @dev If there is no base URI, return the token URI. If there is a baseURI but no tokenURI, concatenate the tokenID to the baseURI.\n    /// @param tokenId of Token that should be burned\n    /// @return tokenURI\n    function tokenURI(uint256 tokenId)\n        public\n        view\n        virtual\n        override(ERC721Upgradeable, ERC721URIStorageUpgradeable)\n        tokenExists(tokenId, \"ERC721Metadata: URI query for nonexistent token\")\n        returns (string memory)\n    {\n        string memory _tokenURI = tokenURIs[tokenId];\n        string memory base = _baseURI();\n\n        if (bytes(base).length == 0) {\n            return _tokenURI;\n        }\n\n        if (bytes(_tokenURI).length > 0) {\n            return string(abi.encodePacked(base, _tokenURI));\n        }\n\n        return string(abi.encodePacked(base, tokenId.toString()));\n    }\n\n    // The following functions are overrides for ERC721Enumerable required by Solidity.\n    /// @inheritdoc ERC721Upgradeable\n    function _beforeTokenTransfer(\n        address from,\n        address to,\n        uint256 tokenId\n    )\n        internal\n        virtual\n        override(ERC721Upgradeable, ERC721EnumerableUpgradeable)\n    {\n        super._beforeTokenTransfer(from, to, tokenId);\n    }\n\n    /// @inheritdoc ERC721Upgradeable\n    function supportsInterface(bytes4 interfaceId)\n        public\n        view\n        virtual\n        override(\n            ERC721Upgradeable,\n            ERC721EnumerableUpgradeable,\n            AccessControlUpgradeable\n        )\n        returns (bool)\n    {\n        return super.supportsInterface(interfaceId);\n    }\n}\n",
  "sourcePath": "/Users/lenahierzi/Developer/consensys/blockchain-developer-bootcamp-final-project/contracts/BaseContract.sol",
  "compiler": {
    "name": "solc",
    "version": "0.8.10+commit.fc410830.Emscripten.clang"
  },
  "schemaVersion": "3.4.3",
  "updatedAt": "2021-11-30T14:18:40.975Z",
  "devdoc": {
    "kind": "dev",
    "methods": {
      "approve(address,uint256)": {
        "details": "See {IERC721-approve}."
      },
      "balanceOf(address)": {
        "details": "See {IERC721-balanceOf}."
      },
      "getApproved(uint256)": {
        "details": "See {IERC721-getApproved}."
      },
      "getRoleAdmin(bytes32)": {
        "details": "Returns the admin role that controls `role`. See {grantRole} and {revokeRole}. To change a role's admin, use {_setRoleAdmin}."
      },
      "grantRole(bytes32,address)": {
        "details": "Grants `role` to `account`. If `account` had not been already granted `role`, emits a {RoleGranted} event. Requirements: - the caller must have ``role``'s admin role."
      },
      "hasRole(bytes32,address)": {
        "details": "Returns `true` if `account` has been granted `role`."
      },
      "initialize(string,string,string)": {
        "details": "upgrade will hopefully work soon",
        "params": {
          "_baseTokenURI": "The CID of the Tokens metadata",
          "_name": "The address, the Token should be transfered to",
          "_symbol": "The CID of the Tokens metadata"
        }
      },
      "isApprovedForAll(address,address)": {
        "details": "See {IERC721-isApprovedForAll}."
      },
      "name()": {
        "details": "See {IERC721Metadata-name}."
      },
      "owner()": {
        "details": "Returns the address of the current owner."
      },
      "ownerOf(uint256)": {
        "details": "See {IERC721-ownerOf}."
      },
      "renounceOwnership()": {
        "details": "Leaves the contract without owner. It will not be possible to call `onlyOwner` functions anymore. Can only be called by the current owner. NOTE: Renouncing ownership will leave the contract without an owner, thereby removing any functionality that is only available to the owner."
      },
      "renounceRole(bytes32,address)": {
        "details": "Revokes `role` from the calling account. Roles are often managed via {grantRole} and {revokeRole}: this function's purpose is to provide a mechanism for accounts to lose their privileges if they are compromised (such as when a trusted device is misplaced). If the calling account had been revoked `role`, emits a {RoleRevoked} event. Requirements: - the caller must be `account`."
      },
      "revokeRole(bytes32,address)": {
        "details": "Revokes `role` from `account`. If `account` had been granted `role`, emits a {RoleRevoked} event. Requirements: - the caller must have ``role``'s admin role."
      },
      "safeTransferFrom(address,address,uint256)": {
        "details": "See {IERC721-safeTransferFrom}."
      },
      "safeTransferFrom(address,address,uint256,bytes)": {
        "details": "See {IERC721-safeTransferFrom}."
      },
      "setApprovalForAll(address,bool)": {
        "details": "See {IERC721-setApprovalForAll}."
      },
      "setBaseURI(string)": {
        "params": {
          "baseURI_": "baseUri for Token (ipfs)"
        }
      },
      "supportsInterface(bytes4)": {
        "details": "See {IERC165-supportsInterface}."
      },
      "symbol()": {
        "details": "See {IERC721Metadata-symbol}."
      },
      "tokenByIndex(uint256)": {
        "details": "See {IERC721Enumerable-tokenByIndex}."
      },
      "tokenOfOwnerByIndex(address,uint256)": {
        "details": "See {IERC721Enumerable-tokenOfOwnerByIndex}."
      },
      "tokenURI(uint256)": {
        "details": "If there is no base URI, return the token URI. If there is a baseURI but no tokenURI, concatenate the tokenID to the baseURI.",
        "params": {
          "tokenId": "of Token that should be burned"
        },
        "returns": {
          "_0": "tokenURI"
        }
      },
      "totalSupply()": {
        "details": "See {IERC721Enumerable-totalSupply}."
      },
      "transferFrom(address,address,uint256)": {
        "details": "See {IERC721-transferFrom}."
      },
      "transferOwnership(address)": {
        "details": "Transfers ownership of the contract to a new account (`newOwner`). Can only be called by the current owner."
      }
    },
    "version": 1
  },
  "userdoc": {
    "kind": "user",
    "methods": {
      "initialize(string,string,string)": {
        "notice": "Instead of the constructor we need this function as we are using the upgreadable plugin. Only called once when contract is initialized. Same s constructor."
      },
      "setBaseURI(string)": {
        "notice": "Sets the _baseURI of the contract"
      },
      "tokenURI(uint256)": {
        "notice": "Returns tokenURI. If baseURI is set, concatenate the baseURI and tokenURI (via abi.encodePacked)."
      }
    },
    "version": 1
  }
}