{
  "contractName": "BaseContract",
  "abi": [
    {
      "anonymous": false,
      "inputs": [
        {
          "indexed": true,
          "internalType": "address",
          "name": "owner",
          "type": "address"
        },
        {
          "indexed": true,
          "internalType": "address",
          "name": "approved",
          "type": "address"
        },
        {
          "indexed": true,
          "internalType": "uint256",
          "name": "tokenId",
          "type": "uint256"
        }
      ],
      "name": "Approval",
      "type": "event"
    },
    {
      "anonymous": false,
      "inputs": [
        {
          "indexed": true,
          "internalType": "address",
          "name": "owner",
          "type": "address"
        },
        {
          "indexed": true,
          "internalType": "address",
          "name": "operator",
          "type": "address"
        },
        {
          "indexed": false,
          "internalType": "bool",
          "name": "approved",
          "type": "bool"
        }
      ],
      "name": "ApprovalForAll",
      "type": "event"
    },
    {
      "anonymous": false,
      "inputs": [
        {
          "indexed": true,
          "internalType": "address",
          "name": "previousOwner",
          "type": "address"
        },
        {
          "indexed": true,
          "internalType": "address",
          "name": "newOwner",
          "type": "address"
        }
      ],
      "name": "OwnershipTransferred",
      "type": "event"
    },
    {
      "anonymous": false,
      "inputs": [
        {
          "indexed": true,
          "internalType": "bytes32",
          "name": "role",
          "type": "bytes32"
        },
        {
          "indexed": true,
          "internalType": "bytes32",
          "name": "previousAdminRole",
          "type": "bytes32"
        },
        {
          "indexed": true,
          "internalType": "bytes32",
          "name": "newAdminRole",
          "type": "bytes32"
        }
      ],
      "name": "RoleAdminChanged",
      "type": "event"
    },
    {
      "anonymous": false,
      "inputs": [
        {
          "indexed": true,
          "internalType": "bytes32",
          "name": "role",
          "type": "bytes32"
        },
        {
          "indexed": true,
          "internalType": "address",
          "name": "account",
          "type": "address"
        },
        {
          "indexed": true,
          "internalType": "address",
          "name": "sender",
          "type": "address"
        }
      ],
      "name": "RoleGranted",
      "type": "event"
    },
    {
      "anonymous": false,
      "inputs": [
        {
          "indexed": true,
          "internalType": "bytes32",
          "name": "role",
          "type": "bytes32"
        },
        {
          "indexed": true,
          "internalType": "address",
          "name": "account",
          "type": "address"
        },
        {
          "indexed": true,
          "internalType": "address",
          "name": "sender",
          "type": "address"
        }
      ],
      "name": "RoleRevoked",
      "type": "event"
    },
    {
      "anonymous": false,
      "inputs": [
        {
          "indexed": true,
          "internalType": "address",
          "name": "from",
          "type": "address"
        },
        {
          "indexed": true,
          "internalType": "address",
          "name": "to",
          "type": "address"
        },
        {
          "indexed": true,
          "internalType": "uint256",
          "name": "tokenId",
          "type": "uint256"
        }
      ],
      "name": "Transfer",
      "type": "event"
    },
    {
      "inputs": [],
      "name": "DEFAULT_ADMIN_ROLE",
      "outputs": [
        {
          "internalType": "bytes32",
          "name": "",
          "type": "bytes32"
        }
      ],
      "stateMutability": "view",
      "type": "function"
    },
    {
      "inputs": [],
      "name": "MAX_PER_MINT",
      "outputs": [
        {
          "internalType": "uint256",
          "name": "",
          "type": "uint256"
        }
      ],
      "stateMutability": "view",
      "type": "function"
    },
    {
      "inputs": [],
      "name": "MAX_SUPPLY",
      "outputs": [
        {
          "internalType": "uint256",
          "name": "",
          "type": "uint256"
        }
      ],
      "stateMutability": "view",
      "type": "function"
    },
    {
      "inputs": [],
      "name": "MINTER_ROLE",
      "outputs": [
        {
          "internalType": "bytes32",
          "name": "",
          "type": "bytes32"
        }
      ],
      "stateMutability": "view",
      "type": "function"
    },
    {
      "inputs": [],
      "name": "PRICE",
      "outputs": [
        {
          "internalType": "uint256",
          "name": "",
          "type": "uint256"
        }
      ],
      "stateMutability": "view",
      "type": "function"
    },
    {
      "inputs": [
        {
          "internalType": "address",
          "name": "to",
          "type": "address"
        },
        {
          "internalType": "uint256",
          "name": "tokenId",
          "type": "uint256"
        }
      ],
      "name": "approve",
      "outputs": [],
      "stateMutability": "nonpayable",
      "type": "function"
    },
    {
      "inputs": [
        {
          "internalType": "address",
          "name": "owner",
          "type": "address"
        }
      ],
      "name": "balanceOf",
      "outputs": [
        {
          "internalType": "uint256",
          "name": "",
          "type": "uint256"
        }
      ],
      "stateMutability": "view",
      "type": "function"
    },
    {
      "inputs": [],
      "name": "baseTokenURI",
      "outputs": [
        {
          "internalType": "string",
          "name": "",
          "type": "string"
        }
      ],
      "stateMutability": "view",
      "type": "function"
    },
    {
      "inputs": [
        {
          "internalType": "uint256",
          "name": "tokenId",
          "type": "uint256"
        }
      ],
      "name": "getApproved",
      "outputs": [
        {
          "internalType": "address",
          "name": "",
          "type": "address"
        }
      ],
      "stateMutability": "view",
      "type": "function"
    },
    {
      "inputs": [
        {
          "internalType": "bytes32",
          "name": "role",
          "type": "bytes32"
        }
      ],
      "name": "getRoleAdmin",
      "outputs": [
        {
          "internalType": "bytes32",
          "name": "",
          "type": "bytes32"
        }
      ],
      "stateMutability": "view",
      "type": "function"
    },
    {
      "inputs": [
        {
          "internalType": "bytes32",
          "name": "role",
          "type": "bytes32"
        },
        {
          "internalType": "address",
          "name": "account",
          "type": "address"
        }
      ],
      "name": "grantRole",
      "outputs": [],
      "stateMutability": "nonpayable",
      "type": "function"
    },
    {
      "inputs": [
        {
          "internalType": "bytes32",
          "name": "role",
          "type": "bytes32"
        },
        {
          "internalType": "address",
          "name": "account",
          "type": "address"
        }
      ],
      "name": "hasRole",
      "outputs": [
        {
          "internalType": "bool",
          "name": "",
          "type": "bool"
        }
      ],
      "stateMutability": "view",
      "type": "function"
    },
    {
      "inputs": [
        {
          "internalType": "address",
          "name": "owner",
          "type": "address"
        },
        {
          "internalType": "address",
          "name": "operator",
          "type": "address"
        }
      ],
      "name": "isApprovedForAll",
      "outputs": [
        {
          "internalType": "bool",
          "name": "",
          "type": "bool"
        }
      ],
      "stateMutability": "view",
      "type": "function"
    },
    {
      "inputs": [],
      "name": "name",
      "outputs": [
        {
          "internalType": "string",
          "name": "",
          "type": "string"
        }
      ],
      "stateMutability": "view",
      "type": "function"
    },
    {
      "inputs": [],
      "name": "owner",
      "outputs": [
        {
          "internalType": "address",
          "name": "",
          "type": "address"
        }
      ],
      "stateMutability": "view",
      "type": "function"
    },
    {
      "inputs": [
        {
          "internalType": "uint256",
          "name": "tokenId",
          "type": "uint256"
        }
      ],
      "name": "ownerOf",
      "outputs": [
        {
          "internalType": "address",
          "name": "",
          "type": "address"
        }
      ],
      "stateMutability": "view",
      "type": "function"
    },
    {
      "inputs": [],
      "name": "renounceOwnership",
      "outputs": [],
      "stateMutability": "nonpayable",
      "type": "function"
    },
    {
      "inputs": [
        {
          "internalType": "bytes32",
          "name": "role",
          "type": "bytes32"
        },
        {
          "internalType": "address",
          "name": "account",
          "type": "address"
        }
      ],
      "name": "renounceRole",
      "outputs": [],
      "stateMutability": "nonpayable",
      "type": "function"
    },
    {
      "inputs": [
        {
          "internalType": "bytes32",
          "name": "role",
          "type": "bytes32"
        },
        {
          "internalType": "address",
          "name": "account",
          "type": "address"
        }
      ],
      "name": "revokeRole",
      "outputs": [],
      "stateMutability": "nonpayable",
      "type": "function"
    },
    {
      "inputs": [
        {
          "internalType": "address",
          "name": "from",
          "type": "address"
        },
        {
          "internalType": "address",
          "name": "to",
          "type": "address"
        },
        {
          "internalType": "uint256",
          "name": "tokenId",
          "type": "uint256"
        }
      ],
      "name": "safeTransferFrom",
      "outputs": [],
      "stateMutability": "nonpayable",
      "type": "function"
    },
    {
      "inputs": [
        {
          "internalType": "address",
          "name": "from",
          "type": "address"
        },
        {
          "internalType": "address",
          "name": "to",
          "type": "address"
        },
        {
          "internalType": "uint256",
          "name": "tokenId",
          "type": "uint256"
        },
        {
          "internalType": "bytes",
          "name": "_data",
          "type": "bytes"
        }
      ],
      "name": "safeTransferFrom",
      "outputs": [],
      "stateMutability": "nonpayable",
      "type": "function"
    },
    {
      "inputs": [
        {
          "internalType": "address",
          "name": "operator",
          "type": "address"
        },
        {
          "internalType": "bool",
          "name": "approved",
          "type": "bool"
        }
      ],
      "name": "setApprovalForAll",
      "outputs": [],
      "stateMutability": "nonpayable",
      "type": "function"
    },
    {
      "inputs": [],
      "name": "symbol",
      "outputs": [
        {
          "internalType": "string",
          "name": "",
          "type": "string"
        }
      ],
      "stateMutability": "view",
      "type": "function"
    },
    {
      "inputs": [
        {
          "internalType": "uint256",
          "name": "index",
          "type": "uint256"
        }
      ],
      "name": "tokenByIndex",
      "outputs": [
        {
          "internalType": "uint256",
          "name": "",
          "type": "uint256"
        }
      ],
      "stateMutability": "view",
      "type": "function"
    },
    {
      "inputs": [
        {
          "internalType": "address",
          "name": "owner",
          "type": "address"
        },
        {
          "internalType": "uint256",
          "name": "index",
          "type": "uint256"
        }
      ],
      "name": "tokenOfOwnerByIndex",
      "outputs": [
        {
          "internalType": "uint256",
          "name": "",
          "type": "uint256"
        }
      ],
      "stateMutability": "view",
      "type": "function"
    },
    {
      "inputs": [],
      "name": "totalSupply",
      "outputs": [
        {
          "internalType": "uint256",
          "name": "",
          "type": "uint256"
        }
      ],
      "stateMutability": "view",
      "type": "function"
    },
    {
      "inputs": [
        {
          "internalType": "address",
          "name": "from",
          "type": "address"
        },
        {
          "internalType": "address",
          "name": "to",
          "type": "address"
        },
        {
          "internalType": "uint256",
          "name": "tokenId",
          "type": "uint256"
        }
      ],
      "name": "transferFrom",
      "outputs": [],
      "stateMutability": "nonpayable",
      "type": "function"
    },
    {
      "inputs": [
        {
          "internalType": "address",
          "name": "newOwner",
          "type": "address"
        }
      ],
      "name": "transferOwnership",
      "outputs": [],
      "stateMutability": "nonpayable",
      "type": "function"
    },
    {
      "inputs": [
        {
          "internalType": "string",
          "name": "_name",
          "type": "string"
        },
        {
          "internalType": "string",
          "name": "_symbol",
          "type": "string"
        },
        {
          "internalType": "string",
          "name": "_baseTokenURI",
          "type": "string"
        }
      ],
      "name": "initialize",
      "outputs": [],
      "stateMutability": "nonpayable",
      "type": "function"
    },
    {
      "inputs": [
        {
          "internalType": "uint256",
          "name": "tokenId",
          "type": "uint256"
        }
      ],
      "name": "tokenURI",
      "outputs": [
        {
          "internalType": "string",
          "name": "",
          "type": "string"
        }
      ],
      "stateMutability": "view",
      "type": "function"
    },
    {
      "inputs": [
        {
          "internalType": "bytes4",
          "name": "interfaceId",
          "type": "bytes4"
        }
      ],
      "name": "supportsInterface",
      "outputs": [
        {
          "internalType": "bool",
          "name": "",
          "type": "bool"
        }
      ],
      "stateMutability": "view",
      "type": "function"
    }
  ],
  "bytecode": "0x608060405234801561001057600080fd5b50614532806100206000396000f3fe608060405234801561001057600080fd5b5060043610610202576000357c01000000000000000000000000000000000000000000000000000000009004806370a082311161012c578063a6487c53116100bf578063d547741f1161008e578063d547741f146105af578063d547cfb7146105cb578063e985e9c5146105e9578063f2fde38b1461061957610202565b8063a6487c5314610529578063b88d4fde14610545578063c87b56dd14610561578063d53913931461059157610202565b806391d14854116100fb57806391d14854146104a157806395d89b41146104d1578063a217fddf146104ef578063a22cb4651461050d57610202565b806370a082311461042b578063715018a61461045b5780638d859f3e146104655780638da5cb5b1461048357610202565b8063248a9ca3116101a457806336568abe1161017357806336568abe1461039357806342842e0e146103af5780634f6ccce7146103cb5780636352211e146103fb57610202565b8063248a9ca3146102f95780632f2ff15d146103295780632f745c591461034557806332cb6b0c1461037557610202565b8063095ea7b3116101e0578063095ea7b31461028557806309d42b30146102a157806318160ddd146102bf57806323b872dd146102dd57610202565b806301ffc9a71461020757806306fdde0314610237578063081812fc14610255575b600080fd5b610221600480360381019061021c9190612ea4565b610635565b60405161022e9190612eec565b60405180910390f35b61023f610647565b60405161024c9190612fa0565b60405180910390f35b61026f600480360381019061026a9190612ff8565b6106d9565b60405161027c9190613066565b60405180910390f35b61029f600480360381019061029a91906130ad565b61075e565b005b6102a9610876565b6040516102b691906130fc565b60405180910390f35b6102c761087b565b6040516102d491906130fc565b60405180910390f35b6102f760048036038101906102f29190613117565b610888565b005b610313600480360381019061030e91906131a0565b6108e8565b60405161032091906131dc565b60405180910390f35b610343600480360381019061033e91906131f7565b610908565b005b61035f600480360381019061035a91906130ad565b610931565b60405161036c91906130fc565b60405180910390f35b61037d6109d6565b60405161038a91906130fc565b60405180910390f35b6103ad60048036038101906103a891906131f7565b6109dc565b005b6103c960048036038101906103c49190613117565b610a5f565b005b6103e560048036038101906103e09190612ff8565b610a7f565b6040516103f291906130fc565b60405180910390f35b61041560048036038101906104109190612ff8565b610af0565b6040516104229190613066565b60405180910390f35b61044560048036038101906104409190613237565b610ba2565b60405161045291906130fc565b60405180910390f35b610463610c5a565b005b61046d610ce2565b60405161047a91906130fc565b60405180910390f35b61048b610cec565b6040516104989190613066565b60405180910390f35b6104bb60048036038101906104b691906131f7565b610d17565b6040516104c89190612eec565b60405180910390f35b6104d9610d82565b6040516104e69190612fa0565b60405180910390f35b6104f7610e14565b60405161050491906131dc565b60405180910390f35b61052760048036038101906105229190613290565b610e1c565b005b610543600480360381019061053e9190613405565b610e32565b005b61055f600480360381019061055a919061354d565b610f76565b005b61057b60048036038101906105769190612ff8565b610fd8565b6040516105889190612fa0565b60405180910390f35b61059961116c565b6040516105a691906131dc565b60405180910390f35b6105c960048036038101906105c491906131f7565b611190565b005b6105d36111b9565b6040516105e09190612fa0565b60405180910390f35b61060360048036038101906105fe91906135d0565b611248565b6040516106109190612eec565b60405180910390f35b610633600480360381019061062e9190613237565b6112dc565b005b6000610640826113d4565b9050919050565b6060606580546106569061363f565b80601f01602080910402602001604051908101604052809291908181526020018280546106829061363f565b80156106cf5780601f106106a4576101008083540402835291602001916106cf565b820191906000526020600020905b8154815290600101906020018083116106b257829003601f168201915b5050505050905090565b60006106e48261144e565b610723576040517f08c379a000000000000000000000000000000000000000000000000000000000815260040161071a906136e3565b60405180910390fd5b6069600083815260200190815260200160002060009054906101000a900473ffffffffffffffffffffffffffffffffffffffff169050919050565b600061076982610af0565b90508073ffffffffffffffffffffffffffffffffffffffff168373ffffffffffffffffffffffffffffffffffffffff1614156107da576040517f08c379a00000000000000000000000000000000000000000000000000000000081526004016107d190613775565b60405180910390fd5b8073ffffffffffffffffffffffffffffffffffffffff166107f96114ba565b73ffffffffffffffffffffffffffffffffffffffff1614806108285750610827816108226114ba565b611248565b5b610867576040517f08c379a000000000000000000000000000000000000000000000000000000000815260040161085e90613807565b60405180910390fd5b61087183836114c2565b505050565b606481565b600060fd80549050905090565b6108996108936114ba565b8261157b565b6108d8576040517f08c379a00000000000000000000000000000000000000000000000000000000081526004016108cf90613899565b60405180910390fd5b6108e3838383611659565b505050565b600060c96000838152602001908152602001600020600101549050919050565b610911826108e8565b6109228161091d6114ba565b6118b5565b61092c8383611953565b505050565b600061093c83610ba2565b821061097d576040517f08c379a00000000000000000000000000000000000000000000000000000000081526004016109749061392b565b60405180910390fd5b60fb60008473ffffffffffffffffffffffffffffffffffffffff1673ffffffffffffffffffffffffffffffffffffffff168152602001908152602001600020600083815260200190815260200160002054905092915050565b61c35081565b6109e46114ba565b73ffffffffffffffffffffffffffffffffffffffff168173ffffffffffffffffffffffffffffffffffffffff1614610a51576040517f08c379a0000000000000000000000000000000000000000000000000000000008152600401610a48906139bd565b60405180910390fd5b610a5b8282611a34565b5050565b610a7a83838360405180602001604052806000815250610f76565b505050565b6000610a8961087b565b8210610aca576040517f08c379a0000000000000000000000000000000000000000000000000000000008152600401610ac190613a4f565b60405180910390fd5b60fd8281548110610ade57610add613a6f565b5b90600052602060002001549050919050565b6000806067600084815260200190815260200160002060009054906101000a900473ffffffffffffffffffffffffffffffffffffffff169050600073ffffffffffffffffffffffffffffffffffffffff168173ffffffffffffffffffffffffffffffffffffffff161415610b99576040517f08c379a0000000000000000000000000000000000000000000000000000000008152600401610b9090613b10565b60405180910390fd5b80915050919050565b60008073ffffffffffffffffffffffffffffffffffffffff168273ffffffffffffffffffffffffffffffffffffffff161415610c13576040517f08c379a0000000000000000000000000000000000000000000000000000000008152600401610c0a90613ba2565b60405180910390fd5b606860008373ffffffffffffffffffffffffffffffffffffffff1673ffffffffffffffffffffffffffffffffffffffff168152602001908152602001600020549050919050565b610c626114ba565b73ffffffffffffffffffffffffffffffffffffffff16610c80610cec565b73ffffffffffffffffffffffffffffffffffffffff1614610cd6576040517f08c379a0000000000000000000000000000000000000000000000000000000008152600401610ccd90613c0e565b60405180910390fd5b610ce06000611b16565b565b655af3107a400081565b600061012d60009054906101000a900473ffffffffffffffffffffffffffffffffffffffff16905090565b600060c9600084815260200190815260200160002060000160008373ffffffffffffffffffffffffffffffffffffffff1673ffffffffffffffffffffffffffffffffffffffff16815260200190815260200160002060009054906101000a900460ff16905092915050565b606060668054610d919061363f565b80601f0160208091040260200160405190810160405280929190818152602001828054610dbd9061363f565b8015610e0a5780601f10610ddf57610100808354040283529160200191610e0a565b820191906000526020600020905b815481529060010190602001808311610ded57829003601f168201915b5050505050905090565b600060010281565b610e2e610e276114ba565b8383611bde565b5050565b600060019054906101000a900460ff1680610e58575060008054906101000a900460ff16155b610e97576040517f08c379a0000000000000000000000000000000000000000000000000000000008152600401610e8e90613ca0565b60405180910390fd5b60008060019054906101000a900460ff161590508015610ee7576001600060016101000a81548160ff02191690831515021790555060016000806101000a81548160ff0219169083151502179055505b610ef18484611d4b565b816101609080519060200190610f08929190612d95565b50610f1e6000600102610f19610cec565b611953565b610f4f7f9f2df0fed2c77648de5860a4cc508cd0818c85b8b8a1ab4ceeef8d981c8956a6610f4a610cec565b611953565b8015610f705760008060016101000a81548160ff0219169083151502179055505b50505050565b610f87610f816114ba565b8361157b565b610fc6576040517f08c379a0000000000000000000000000000000000000000000000000000000008152600401610fbd90613899565b60405180910390fd5b610fd284848484611e40565b50505050565b6060816040518060600160405280602f81526020016144ce602f9139610ffd8261144e565b819061103f576040517f08c379a00000000000000000000000000000000000000000000000000000000081526004016110369190612fa0565b60405180910390fd5b506000610161600086815260200190815260200160002080546110619061363f565b80601f016020809104026020016040519081016040528092919081815260200182805461108d9061363f565b80156110da5780601f106110af576101008083540402835291602001916110da565b820191906000526020600020905b8154815290600101906020018083116110bd57829003601f168201915b5050505050905060006110eb611e9c565b9050600081511415611101578194505050611165565b60008251111561113657808260405160200161111e929190613cfc565b60405160208183030381529060405294505050611165565b8061114087611f2f565b604051602001611151929190613cfc565b604051602081830303815290604052945050505b5050919050565b7f9f2df0fed2c77648de5860a4cc508cd0818c85b8b8a1ab4ceeef8d981c8956a681565b611199826108e8565b6111aa816111a56114ba565b6118b5565b6111b48383611a34565b505050565b61016080546111c79061363f565b80601f01602080910402602001604051908101604052809291908181526020018280546111f39061363f565b80156112405780601f1061121557610100808354040283529160200191611240565b820191906000526020600020905b81548152906001019060200180831161122357829003601f168201915b505050505081565b6000606a60008473ffffffffffffffffffffffffffffffffffffffff1673ffffffffffffffffffffffffffffffffffffffff16815260200190815260200160002060008373ffffffffffffffffffffffffffffffffffffffff1673ffffffffffffffffffffffffffffffffffffffff16815260200190815260200160002060009054906101000a900460ff16905092915050565b6112e46114ba565b73ffffffffffffffffffffffffffffffffffffffff16611302610cec565b73ffffffffffffffffffffffffffffffffffffffff1614611358576040517f08c379a000000000000000000000000000000000000000000000000000000000815260040161134f90613c0e565b60405180910390fd5b600073ffffffffffffffffffffffffffffffffffffffff168173ffffffffffffffffffffffffffffffffffffffff1614156113c8576040517f08c379a00000000000000000000000000000000000000000000000000000000081526004016113bf90613d92565b60405180910390fd5b6113d181611b16565b50565b60007f780e9d63000000000000000000000000000000000000000000000000000000007bffffffffffffffffffffffffffffffffffffffffffffffffffffffff1916827bffffffffffffffffffffffffffffffffffffffffffffffffffffffff191614806114475750611446826120af565b5b9050919050565b60008073ffffffffffffffffffffffffffffffffffffffff166067600084815260200190815260200160002060009054906101000a900473ffffffffffffffffffffffffffffffffffffffff1673ffffffffffffffffffffffffffffffffffffffff1614159050919050565b600033905090565b816069600083815260200190815260200160002060006101000a81548173ffffffffffffffffffffffffffffffffffffffff021916908373ffffffffffffffffffffffffffffffffffffffff160217905550808273ffffffffffffffffffffffffffffffffffffffff1661153583610af0565b73ffffffffffffffffffffffffffffffffffffffff167f8c5be1e5ebec7d5bd14f71427d1e84f3dd0314c0f7b2291e5b200ac8c7c3b92560405160405180910390a45050565b60006115868261144e565b6115c5576040517f08c379a00000000000000000000000000000000000000000000000000000000081526004016115bc90613e24565b60405180910390fd5b60006115d083610af0565b90508073ffffffffffffffffffffffffffffffffffffffff168473ffffffffffffffffffffffffffffffffffffffff16148061163f57508373ffffffffffffffffffffffffffffffffffffffff16611627846106d9565b73ffffffffffffffffffffffffffffffffffffffff16145b80611650575061164f8185611248565b5b91505092915050565b8273ffffffffffffffffffffffffffffffffffffffff1661167982610af0565b73ffffffffffffffffffffffffffffffffffffffff16146116cf576040517f08c379a00000000000000000000000000000000000000000000000000000000081526004016116c690613eb6565b60405180910390fd5b600073ffffffffffffffffffffffffffffffffffffffff168273ffffffffffffffffffffffffffffffffffffffff16141561173f576040517f08c379a000000000000000000000000000000000000000000000000000000000815260040161173690613f48565b60405180910390fd5b61174a838383612129565b6117556000826114c2565b6001606860008573ffffffffffffffffffffffffffffffffffffffff1673ffffffffffffffffffffffffffffffffffffffff16815260200190815260200160002060008282546117a59190613f97565b925050819055506001606860008473ffffffffffffffffffffffffffffffffffffffff1673ffffffffffffffffffffffffffffffffffffffff16815260200190815260200160002060008282546117fc9190613fcb565b92505081905550816067600083815260200190815260200160002060006101000a81548173ffffffffffffffffffffffffffffffffffffffff021916908373ffffffffffffffffffffffffffffffffffffffff160217905550808273ffffffffffffffffffffffffffffffffffffffff168473ffffffffffffffffffffffffffffffffffffffff167fddf252ad1be2c89b69c2b068fc378daa952ba7f163c4a11628f55a4df523b3ef60405160405180910390a4505050565b6118bf8282610d17565b61194f576118e48173ffffffffffffffffffffffffffffffffffffffff166014612139565b6118f383600190046020612139565b6040516020016119049291906140b9565b6040516020818303038152906040526040517f08c379a00000000000000000000000000000000000000000000000000000000081526004016119469190612fa0565b60405180910390fd5b5050565b61195d8282610d17565b611a3057600160c9600084815260200190815260200160002060000160008373ffffffffffffffffffffffffffffffffffffffff1673ffffffffffffffffffffffffffffffffffffffff16815260200190815260200160002060006101000a81548160ff0219169083151502179055506119d56114ba565b73ffffffffffffffffffffffffffffffffffffffff168173ffffffffffffffffffffffffffffffffffffffff16837f2f8788117e7eff1d82e926ec794901d17c78024a50270940304540a733656f0d60405160405180910390a45b5050565b611a3e8282610d17565b15611b1257600060c9600084815260200190815260200160002060000160008373ffffffffffffffffffffffffffffffffffffffff1673ffffffffffffffffffffffffffffffffffffffff16815260200190815260200160002060006101000a81548160ff021916908315150217905550611ab76114ba565b73ffffffffffffffffffffffffffffffffffffffff168173ffffffffffffffffffffffffffffffffffffffff16837ff6391f5c32d9c69d2a47ea670b442974b53935d1edc7fd64eb21e047a839171b60405160405180910390a45b5050565b600061012d60009054906101000a900473ffffffffffffffffffffffffffffffffffffffff1690508161012d60006101000a81548173ffffffffffffffffffffffffffffffffffffffff021916908373ffffffffffffffffffffffffffffffffffffffff1602179055508173ffffffffffffffffffffffffffffffffffffffff168173ffffffffffffffffffffffffffffffffffffffff167f8be0079c531659141344cd1fd0a4f28419497f9722a3daafe3b4186f6b6457e060405160405180910390a35050565b8173ffffffffffffffffffffffffffffffffffffffff168373ffffffffffffffffffffffffffffffffffffffff161415611c4d576040517f08c379a0000000000000000000000000000000000000000000000000000000008152600401611c449061413f565b60405180910390fd5b80606a60008573ffffffffffffffffffffffffffffffffffffffff1673ffffffffffffffffffffffffffffffffffffffff16815260200190815260200160002060008473ffffffffffffffffffffffffffffffffffffffff1673ffffffffffffffffffffffffffffffffffffffff16815260200190815260200160002060006101000a81548160ff0219169083151502179055508173ffffffffffffffffffffffffffffffffffffffff168373ffffffffffffffffffffffffffffffffffffffff167f17307eab39ab6107e8899845ad3d59bd9653f200f220920489ca2b5937696c3183604051611d3e9190612eec565b60405180910390a3505050565b600060019054906101000a900460ff1680611d71575060008054906101000a900460ff16155b611db0576040517f08c379a0000000000000000000000000000000000000000000000000000000008152600401611da790613ca0565b60405180910390fd5b60008060019054906101000a900460ff161590508015611e00576001600060016101000a81548160ff02191690831515021790555060016000806101000a81548160ff0219169083151502179055505b611e0861239c565b611e10612475565b611e1a838361254e565b8015611e3b5760008060016101000a81548160ff0219169083151502179055505b505050565b611e4b848484611659565b611e5784848484612657565b611e96576040517f08c379a0000000000000000000000000000000000000000000000000000000008152600401611e8d906141d1565b60405180910390fd5b50505050565b606061015f8054611eac9061363f565b80601f0160208091040260200160405190810160405280929190818152602001828054611ed89061363f565b8015611f255780601f10611efa57610100808354040283529160200191611f25565b820191906000526020600020905b815481529060010190602001808311611f0857829003601f168201915b5050505050905090565b60606000821415611f77576040518060400160405280600181526020017f300000000000000000000000000000000000000000000000000000000000000081525090506120aa565b600082905060005b60008214611fa9578080611f92906141f1565b915050600a82611fa29190614269565b9150611f7f565b60008167ffffffffffffffff811115611fc557611fc46132da565b5b6040519080825280601f01601f191660200182016040528015611ff75781602001600182028036833780820191505090505b5090505b600085146120a3576001826120109190613f97565b9150600a8561201f919061429a565b603061202b9190613fcb565b7f0100000000000000000000000000000000000000000000000000000000000000028183815181106120605761205f613a6f565b5b60200101907effffffffffffffffffffffffffffffffffffffffffffffffffffffffffffff1916908160001a905350600a8561209c9190614269565b9450611ffb565b8093505050505b919050565b60007f7965db0b000000000000000000000000000000000000000000000000000000007bffffffffffffffffffffffffffffffffffffffffffffffffffffffff1916827bffffffffffffffffffffffffffffffffffffffffffffffffffffffff19161480612122575061212182612817565b5b9050919050565b6121348383836128f9565b505050565b60606000600283600261214c91906142cb565b6121569190613fcb565b67ffffffffffffffff81111561216f5761216e6132da565b5b6040519080825280601f01601f1916602001820160405280156121a15781602001600182028036833780820191505090505b5090507f3000000000000000000000000000000000000000000000000000000000000000816000815181106121d9576121d8613a6f565b5b60200101907effffffffffffffffffffffffffffffffffffffffffffffffffffffffffffff1916908160001a9053507f78000000000000000000000000000000000000000000000000000000000000008160018151811061223d5761223c613a6f565b5b60200101907effffffffffffffffffffffffffffffffffffffffffffffffffffffffffffff1916908160001a9053506000600184600261227d91906142cb565b6122879190613fcb565b90505b600181111561234e577f3031323334353637383961626364656600000000000000000000000000000000600f8616601081106122c9576122c8613a6f565b5b1a7f0100000000000000000000000000000000000000000000000000000000000000028282815181106122ff576122fe613a6f565b5b60200101907effffffffffffffffffffffffffffffffffffffffffffffffffffffffffffff1916908160001a905350600485908060020a820491505094508061234790614325565b905061228a565b5060008414612392576040517f08c379a00000000000000000000000000000000000000000000000000000000081526004016123899061439b565b60405180910390fd5b8091505092915050565b600060019054906101000a900460ff16806123c2575060008054906101000a900460ff16155b612401576040517f08c379a00000000000000000000000000000000000000000000000000000000081526004016123f890613ca0565b60405180910390fd5b60008060019054906101000a900460ff161590508015612451576001600060016101000a81548160ff02191690831515021790555060016000806101000a81548160ff0219169083151502179055505b80156124725760008060016101000a81548160ff0219169083151502179055505b50565b600060019054906101000a900460ff168061249b575060008054906101000a900460ff16155b6124da576040517f08c379a00000000000000000000000000000000000000000000000000000000081526004016124d190613ca0565b60405180910390fd5b60008060019054906101000a900460ff16159050801561252a576001600060016101000a81548160ff02191690831515021790555060016000806101000a81548160ff0219169083151502179055505b801561254b5760008060016101000a81548160ff0219169083151502179055505b50565b600060019054906101000a900460ff1680612574575060008054906101000a900460ff16155b6125b3576040517f08c379a00000000000000000000000000000000000000000000000000000000081526004016125aa90613ca0565b60405180910390fd5b60008060019054906101000a900460ff161590508015612603576001600060016101000a81548160ff02191690831515021790555060016000806101000a81548160ff0219169083151502179055505b8260659080519060200190612619929190612d95565b508160669080519060200190612630929190612d95565b5080156126525760008060016101000a81548160ff0219169083151502179055505b505050565b60006126788473ffffffffffffffffffffffffffffffffffffffff16612a0d565b1561280a578373ffffffffffffffffffffffffffffffffffffffff1663150b7a026126a16114ba565b8786866040518563ffffffff167c01000000000000000000000000000000000000000000000000000000000281526004016126df9493929190614410565b6020604051808303816000875af192505050801561271b57506040513d601f19601f820116820180604052508101906127189190614471565b60015b61279e573d806000811461274b576040519150601f19603f3d011682016040523d82523d6000602084013e612750565b606091505b50600081511415612796576040517f08c379a000000000000000000000000000000000000000000000000000000000815260040161278d906141d1565b60405180910390fd5b805181602001fd5b63150b7a027c0100000000000000000000000000000000000000000000000000000000027bffffffffffffffffffffffffffffffffffffffffffffffffffffffff1916817bffffffffffffffffffffffffffffffffffffffffffffffffffffffff19161491505061280f565b600190505b949350505050565b60007f80ac58cd000000000000000000000000000000000000000000000000000000007bffffffffffffffffffffffffffffffffffffffffffffffffffffffff1916827bffffffffffffffffffffffffffffffffffffffffffffffffffffffff191614806128e257507f5b5e139f000000000000000000000000000000000000000000000000000000007bffffffffffffffffffffffffffffffffffffffffffffffffffffffff1916827bffffffffffffffffffffffffffffffffffffffffffffffffffffffff1916145b806128f257506128f182612a20565b5b9050919050565b612904838383612a8a565b600073ffffffffffffffffffffffffffffffffffffffff168373ffffffffffffffffffffffffffffffffffffffff1614156129475761294281612a8f565b612986565b8173ffffffffffffffffffffffffffffffffffffffff168373ffffffffffffffffffffffffffffffffffffffff1614612985576129848382612ad8565b5b5b600073ffffffffffffffffffffffffffffffffffffffff168273ffffffffffffffffffffffffffffffffffffffff1614156129c9576129c481612c45565b612a08565b8273ffffffffffffffffffffffffffffffffffffffff168273ffffffffffffffffffffffffffffffffffffffff1614612a0757612a068282612d16565b5b5b505050565b600080823b905060008111915050919050565b60007f01ffc9a7000000000000000000000000000000000000000000000000000000007bffffffffffffffffffffffffffffffffffffffffffffffffffffffff1916827bffffffffffffffffffffffffffffffffffffffffffffffffffffffff1916149050919050565b505050565b60fd8054905060fe60008381526020019081526020016000208190555060fd81908060018154018082558091505060019003906000526020600020016000909190919091505550565b60006001612ae584610ba2565b612aef9190613f97565b9050600060fc6000848152602001908152602001600020549050818114612bd457600060fb60008673ffffffffffffffffffffffffffffffffffffffff1673ffffffffffffffffffffffffffffffffffffffff16815260200190815260200160002060008481526020019081526020016000205490508060fb60008773ffffffffffffffffffffffffffffffffffffffff1673ffffffffffffffffffffffffffffffffffffffff1681526020019081526020016000206000848152602001908152602001600020819055508160fc600083815260200190815260200160002081905550505b60fc60008481526020019081526020016000206000905560fb60008573ffffffffffffffffffffffffffffffffffffffff1673ffffffffffffffffffffffffffffffffffffffff16815260200190815260200160002060008381526020019081526020016000206000905550505050565b6000600160fd80549050612c599190613f97565b9050600060fe6000848152602001908152602001600020549050600060fd8381548110612c8957612c88613a6f565b5b906000526020600020015490508060fd8381548110612cab57612caa613a6f565b5b90600052602060002001819055508160fe60008381526020019081526020016000208190555060fe60008581526020019081526020016000206000905560fd805480612cfa57612cf961449e565b5b6001900381819060005260206000200160009055905550505050565b6000612d2183610ba2565b90508160fb60008573ffffffffffffffffffffffffffffffffffffffff1673ffffffffffffffffffffffffffffffffffffffff1681526020019081526020016000206000838152602001908152602001600020819055508060fc600084815260200190815260200160002081905550505050565b828054612da19061363f565b90600052602060002090601f016020900481019282612dc35760008555612e0a565b82601f10612ddc57805160ff1916838001178555612e0a565b82800160010185558215612e0a579182015b82811115612e09578251825591602001919060010190612dee565b5b509050612e179190612e1b565b5090565b5b80821115612e34576000816000905550600101612e1c565b5090565b6000604051905090565b600080fd5b600080fd5b60007fffffffff0000000000000000000000000000000000000000000000000000000082169050919050565b612e8181612e4c565b8114612e8c57600080fd5b50565b600081359050612e9e81612e78565b92915050565b600060208284031215612eba57612eb9612e42565b5b6000612ec884828501612e8f565b91505092915050565b60008115159050919050565b612ee681612ed1565b82525050565b6000602082019050612f016000830184612edd565b92915050565b600081519050919050565b600082825260208201905092915050565b60005b83811015612f41578082015181840152602081019050612f26565b83811115612f50576000848401525b50505050565b6000601f19601f8301169050919050565b6000612f7282612f07565b612f7c8185612f12565b9350612f8c818560208601612f23565b612f9581612f56565b840191505092915050565b60006020820190508181036000830152612fba8184612f67565b905092915050565b6000819050919050565b612fd581612fc2565b8114612fe057600080fd5b50565b600081359050612ff281612fcc565b92915050565b60006020828403121561300e5761300d612e42565b5b600061301c84828501612fe3565b91505092915050565b600073ffffffffffffffffffffffffffffffffffffffff82169050919050565b600061305082613025565b9050919050565b61306081613045565b82525050565b600060208201905061307b6000830184613057565b92915050565b61308a81613045565b811461309557600080fd5b50565b6000813590506130a781613081565b92915050565b600080604083850312156130c4576130c3612e42565b5b60006130d285828601613098565b92505060206130e385828601612fe3565b9150509250929050565b6130f681612fc2565b82525050565b600060208201905061311160008301846130ed565b92915050565b6000806000606084860312156131305761312f612e42565b5b600061313e86828701613098565b935050602061314f86828701613098565b925050604061316086828701612fe3565b9150509250925092565b6000819050919050565b61317d8161316a565b811461318857600080fd5b50565b60008135905061319a81613174565b92915050565b6000602082840312156131b6576131b5612e42565b5b60006131c48482850161318b565b91505092915050565b6131d68161316a565b82525050565b60006020820190506131f160008301846131cd565b92915050565b6000806040838503121561320e5761320d612e42565b5b600061321c8582860161318b565b925050602061322d85828601613098565b9150509250929050565b60006020828403121561324d5761324c612e42565b5b600061325b84828501613098565b91505092915050565b61326d81612ed1565b811461327857600080fd5b50565b60008135905061328a81613264565b92915050565b600080604083850312156132a7576132a6612e42565b5b60006132b585828601613098565b92505060206132c68582860161327b565b9150509250929050565b600080fd5b600080fd5b7f4e487b7100000000000000000000000000000000000000000000000000000000600052604160045260246000fd5b61331282612f56565b810181811067ffffffffffffffff82111715613331576133306132da565b5b80604052505050565b6000613344612e38565b90506133508282613309565b919050565b600067ffffffffffffffff8211156133705761336f6132da565b5b61337982612f56565b9050602081019050919050565b82818337600083830152505050565b60006133a86133a384613355565b61333a565b9050828152602081018484840111156133c4576133c36132d5565b5b6133cf848285613386565b509392505050565b600082601f8301126133ec576133eb6132d0565b5b81356133fc848260208601613395565b91505092915050565b60008060006060848603121561341e5761341d612e42565b5b600084013567ffffffffffffffff81111561343c5761343b612e47565b5b613448868287016133d7565b935050602084013567ffffffffffffffff81111561346957613468612e47565b5b613475868287016133d7565b925050604084013567ffffffffffffffff81111561349657613495612e47565b5b6134a2868287016133d7565b9150509250925092565b600067ffffffffffffffff8211156134c7576134c66132da565b5b6134d082612f56565b9050602081019050919050565b60006134f06134eb846134ac565b61333a565b90508281526020810184848401111561350c5761350b6132d5565b5b613517848285613386565b509392505050565b600082601f830112613534576135336132d0565b5b81356135448482602086016134dd565b91505092915050565b6000806000806080858703121561356757613566612e42565b5b600061357587828801613098565b945050602061358687828801613098565b935050604061359787828801612fe3565b925050606085013567ffffffffffffffff8111156135b8576135b7612e47565b5b6135c48782880161351f565b91505092959194509250565b600080604083850312156135e7576135e6612e42565b5b60006135f585828601613098565b925050602061360685828601613098565b9150509250929050565b7f4e487b7100000000000000000000000000000000000000000000000000000000600052602260045260246000fd5b6000600282049050600182168061365757607f821691505b6020821081141561366b5761366a613610565b5b50919050565b7f4552433732313a20617070726f76656420717565727920666f72206e6f6e657860008201527f697374656e7420746f6b656e0000000000000000000000000000000000000000602082015250565b60006136cd602c83612f12565b91506136d882613671565b604082019050919050565b600060208201905081810360008301526136fc816136c0565b9050919050565b7f4552433732313a20617070726f76616c20746f2063757272656e74206f776e6560008201527f7200000000000000000000000000000000000000000000000000000000000000602082015250565b600061375f602183612f12565b915061376a82613703565b604082019050919050565b6000602082019050818103600083015261378e81613752565b9050919050565b7f4552433732313a20617070726f76652063616c6c6572206973206e6f74206f7760008201527f6e6572206e6f7220617070726f76656420666f7220616c6c0000000000000000602082015250565b60006137f1603883612f12565b91506137fc82613795565b604082019050919050565b60006020820190508181036000830152613820816137e4565b9050919050565b7f4552433732313a207472616e736665722063616c6c6572206973206e6f74206f60008201527f776e6572206e6f7220617070726f766564000000000000000000000000000000602082015250565b6000613883603183612f12565b915061388e82613827565b604082019050919050565b600060208201905081810360008301526138b281613876565b9050919050565b7f455243373231456e756d657261626c653a206f776e657220696e646578206f7560008201527f74206f6620626f756e6473000000000000000000000000000000000000000000602082015250565b6000613915602b83612f12565b9150613920826138b9565b604082019050919050565b6000602082019050818103600083015261394481613908565b9050919050565b7f416363657373436f6e74726f6c3a2063616e206f6e6c792072656e6f756e636560008201527f20726f6c657320666f722073656c660000000000000000000000000000000000602082015250565b60006139a7602f83612f12565b91506139b28261394b565b604082019050919050565b600060208201905081810360008301526139d68161399a565b9050919050565b7f455243373231456e756d657261626c653a20676c6f62616c20696e646578206f60008201527f7574206f6620626f756e64730000000000000000000000000000000000000000602082015250565b6000613a39602c83612f12565b9150613a44826139dd565b604082019050919050565b60006020820190508181036000830152613a6881613a2c565b9050919050565b7f4e487b7100000000000000000000000000000000000000000000000000000000600052603260045260246000fd5b7f4552433732313a206f776e657220717565727920666f72206e6f6e657869737460008201527f656e7420746f6b656e0000000000000000000000000000000000000000000000602082015250565b6000613afa602983612f12565b9150613b0582613a9e565b604082019050919050565b60006020820190508181036000830152613b2981613aed565b9050919050565b7f4552433732313a2062616c616e636520717565727920666f7220746865207a6560008201527f726f206164647265737300000000000000000000000000000000000000000000602082015250565b6000613b8c602a83612f12565b9150613b9782613b30565b604082019050919050565b60006020820190508181036000830152613bbb81613b7f565b9050919050565b7f4f776e61626c653a2063616c6c6572206973206e6f7420746865206f776e6572600082015250565b6000613bf8602083612f12565b9150613c0382613bc2565b602082019050919050565b60006020820190508181036000830152613c2781613beb565b9050919050565b7f496e697469616c697a61626c653a20636f6e747261637420697320616c72656160008201527f647920696e697469616c697a6564000000000000000000000000000000000000602082015250565b6000613c8a602e83612f12565b9150613c9582613c2e565b604082019050919050565b60006020820190508181036000830152613cb981613c7d565b9050919050565b600081905092915050565b6000613cd682612f07565b613ce08185613cc0565b9350613cf0818560208601612f23565b80840191505092915050565b6000613d088285613ccb565b9150613d148284613ccb565b91508190509392505050565b7f4f776e61626c653a206e6577206f776e657220697320746865207a65726f206160008201527f6464726573730000000000000000000000000000000000000000000000000000602082015250565b6000613d7c602683612f12565b9150613d8782613d20565b604082019050919050565b60006020820190508181036000830152613dab81613d6f565b9050919050565b7f4552433732313a206f70657261746f7220717565727920666f72206e6f6e657860008201527f697374656e7420746f6b656e0000000000000000000000000000000000000000602082015250565b6000613e0e602c83612f12565b9150613e1982613db2565b604082019050919050565b60006020820190508181036000830152613e3d81613e01565b9050919050565b7f4552433732313a207472616e73666572206f6620746f6b656e2074686174206960008201527f73206e6f74206f776e0000000000000000000000000000000000000000000000602082015250565b6000613ea0602983612f12565b9150613eab82613e44565b604082019050919050565b60006020820190508181036000830152613ecf81613e93565b9050919050565b7f4552433732313a207472616e7366657220746f20746865207a65726f2061646460008201527f7265737300000000000000000000000000000000000000000000000000000000602082015250565b6000613f32602483612f12565b9150613f3d82613ed6565b604082019050919050565b60006020820190508181036000830152613f6181613f25565b9050919050565b7f4e487b7100000000000000000000000000000000000000000000000000000000600052601160045260246000fd5b6000613fa282612fc2565b9150613fad83612fc2565b925082821015613fc057613fbf613f68565b5b828203905092915050565b6000613fd682612fc2565b9150613fe183612fc2565b9250827fffffffffffffffffffffffffffffffffffffffffffffffffffffffffffffffff0382111561401657614015613f68565b5b828201905092915050565b7f416363657373436f6e74726f6c3a206163636f756e7420000000000000000000600082015250565b6000614057601783613cc0565b915061406282614021565b601782019050919050565b7f206973206d697373696e6720726f6c6520000000000000000000000000000000600082015250565b60006140a3601183613cc0565b91506140ae8261406d565b601182019050919050565b60006140c48261404a565b91506140d08285613ccb565b91506140db82614096565b91506140e78284613ccb565b91508190509392505050565b7f4552433732313a20617070726f766520746f2063616c6c657200000000000000600082015250565b6000614129601983612f12565b9150614134826140f3565b602082019050919050565b600060208201905081810360008301526141588161411c565b9050919050565b7f4552433732313a207472616e7366657220746f206e6f6e20455243373231526560008201527f63656976657220696d706c656d656e7465720000000000000000000000000000602082015250565b60006141bb603283612f12565b91506141c68261415f565b604082019050919050565b600060208201905081810360008301526141ea816141ae565b9050919050565b60006141fc82612fc2565b91507fffffffffffffffffffffffffffffffffffffffffffffffffffffffffffffffff82141561422f5761422e613f68565b5b600182019050919050565b7f4e487b7100000000000000000000000000000000000000000000000000000000600052601260045260246000fd5b600061427482612fc2565b915061427f83612fc2565b92508261428f5761428e61423a565b5b828204905092915050565b60006142a582612fc2565b91506142b083612fc2565b9250826142c0576142bf61423a565b5b828206905092915050565b60006142d682612fc2565b91506142e183612fc2565b9250817fffffffffffffffffffffffffffffffffffffffffffffffffffffffffffffffff048311821515161561431a57614319613f68565b5b828202905092915050565b600061433082612fc2565b9150600082141561434457614343613f68565b5b600182039050919050565b7f537472696e67733a20686578206c656e67746820696e73756666696369656e74600082015250565b6000614385602083612f12565b91506143908261434f565b602082019050919050565b600060208201905081810360008301526143b481614378565b9050919050565b600081519050919050565b600082825260208201905092915050565b60006143e2826143bb565b6143ec81856143c6565b93506143fc818560208601612f23565b61440581612f56565b840191505092915050565b60006080820190506144256000830187613057565b6144326020830186613057565b61443f60408301856130ed565b818103606083015261445181846143d7565b905095945050505050565b60008151905061446b81612e78565b92915050565b60006020828403121561448757614486612e42565b5b60006144958482850161445c565b91505092915050565b7f4e487b7100000000000000000000000000000000000000000000000000000000600052603160045260246000fdfe4552433732314d657461646174613a2055524920717565727920666f72206e6f6e6578697374656e7420746f6b656ea264697066735822122070117e71db85ae10f93c908ee4847661fe4ee2b70ee5f999eb3c18f8efc9412c64736f6c634300080a0033",
  "immutableReferences": {},
  "source": "// SPDX-License-Identifier: MIT\npragma solidity 0.8.10;\n\nimport \"@openzeppelin/contracts-upgradeable/utils/math/SafeMathUpgradeable.sol\";\nimport \"@openzeppelin/contracts-upgradeable/utils/CountersUpgradeable.sol\";\nimport \"@openzeppelin/contracts-upgradeable/token/ERC721/ERC721Upgradeable.sol\";\nimport \"@openzeppelin/contracts-upgradeable/access/OwnableUpgradeable.sol\";\nimport \"@openzeppelin/contracts-upgradeable/token/ERC721/extensions/ERC721URIStorageUpgradeable.sol\";\nimport \"@openzeppelin/contracts-upgradeable/access/AccessControlUpgradeable.sol\";\nimport \"@openzeppelin/contracts-upgradeable/proxy/utils/Initializable.sol\";\nimport \"@openzeppelin/contracts-upgradeable/token/ERC721/extensions/ERC721EnumerableUpgradeable.sol\";\n\ncontract BaseContract is\n    Initializable,\n    ERC721Upgradeable,\n    ERC721URIStorageUpgradeable,\n    AccessControlUpgradeable,\n    ERC721EnumerableUpgradeable,\n    OwnableUpgradeable\n{\n    using StringsUpgradeable for uint256;\n    using SafeMathUpgradeable for uint256;\n\n    uint256 public constant MAX_SUPPLY = 50000;\n    uint256 public constant PRICE = 0.0001 ether;\n    uint256 public constant MAX_PER_MINT = 100;\n    bytes32 public constant MINTER_ROLE = keccak256(\"MINTER_ROLE\");\n\n    // Base URI\n    string private _baseURIextended;\n    string public baseTokenURI;\n\n    // <tokenURIs mapping>\n    mapping(uint256 => string) internal tokenURIs;\n\n    /*\n     * Modifiers\n     */\n    modifier tokenExists(uint256 _tokenId, string memory message) {\n        require(_exists(_tokenId), message);\n        _;\n    }\n\n    /// @notice Instead of the constructor we need this function as we are using the upgreadable plugin. Only called once when contract is initialized. Same s constructor.\n    /// @dev upgrade will hopefully work soon\n    /// @param _name The address, the Token should be transfered to\n    /// @param _symbol The CID of the Tokens metadata\n    /// @param _baseTokenURI The CID of the Tokens metadata\n    function initialize(\n        string memory _name,\n        string memory _symbol,\n        string memory _baseTokenURI\n    ) public virtual initializer {\n        __ERC721_init(_name, _symbol);\n        baseTokenURI = _baseTokenURI;\n        _grantRole(DEFAULT_ADMIN_ROLE, owner());\n        _grantRole(MINTER_ROLE, owner());\n    }\n\n    /// @notice Sets the _baseURI of the contract\n    /// @param baseURI_ baseUri for Token (ipfs)\n    function setBaseURI(string memory baseURI_) internal {\n        _baseURIextended = baseURI_;\n    }\n\n    /// @notice Set tokenUri of a token\n    /// @inheritdoc ERC721URIStorageUpgradeable\n    function _setTokenURI(uint256 tokenId, string memory _tokenURI)\n        internal\n        virtual\n        override(ERC721URIStorageUpgradeable)\n    {\n        tokenURIs[tokenId] = _tokenURI;\n    }\n\n    /// @notice Returns the _baseURI of the contract\n    function _baseURI() internal view virtual override returns (string memory) {\n        return _baseURIextended;\n    }\n\n    /// @notice Burns tokens\n    /// @param tokenId of Token that should be burned\n    /// @inheritdoc ERC721Upgradeable\n    function _burn(uint256 tokenId)\n        internal\n        virtual\n        override(ERC721Upgradeable, ERC721URIStorageUpgradeable)\n    {\n        super._burn(tokenId);\n    }\n\n    /// @notice Returns tokenURI. If baseURI is set, concatenate the baseURI and tokenURI (via abi.encodePacked).\n    /// @dev If there is no base URI, return the token URI. If there is a baseURI but no tokenURI, concatenate the tokenID to the baseURI.\n    /// @param tokenId of Token that should be burned\n    /// @return tokenURI\n    function tokenURI(uint256 tokenId)\n        public\n        view\n        virtual\n        override(ERC721Upgradeable, ERC721URIStorageUpgradeable)\n        tokenExists(tokenId, \"ERC721Metadata: URI query for nonexistent token\")\n        returns (string memory)\n    {\n        string memory _tokenURI = tokenURIs[tokenId];\n        string memory base = _baseURI();\n\n        if (bytes(base).length == 0) {\n            return _tokenURI;\n        }\n\n        if (bytes(_tokenURI).length > 0) {\n            return string(abi.encodePacked(base, _tokenURI));\n        }\n\n        return string(abi.encodePacked(base, tokenId.toString()));\n    }\n\n    // The following functions are overrides for ERC721Enumerable required by Solidity.\n    /// @inheritdoc ERC721Upgradeable\n    function _beforeTokenTransfer(\n        address from,\n        address to,\n        uint256 tokenId\n    )\n        internal\n        virtual\n        override(ERC721Upgradeable, ERC721EnumerableUpgradeable)\n    {\n        super._beforeTokenTransfer(from, to, tokenId);\n    }\n\n    /// @inheritdoc ERC721Upgradeable\n    function supportsInterface(bytes4 interfaceId)\n        public\n        view\n        virtual\n        override(\n            ERC721Upgradeable,\n            ERC721EnumerableUpgradeable,\n            AccessControlUpgradeable\n        )\n        returns (bool)\n    {\n        return super.supportsInterface(interfaceId);\n    }\n}\n",
  "sourcePath": "/Users/lenahierzi/Developer/consensys/blockchain-developer-bootcamp-final-project/contracts/BaseContract.sol",
  "compiler": {
    "name": "solc",
    "version": "0.8.10+commit.fc410830.Emscripten.clang"
  },
  "schemaVersion": "3.4.3",
  "updatedAt": "2021-12-01T09:49:15.224Z",
  "devdoc": {
    "kind": "dev",
    "methods": {
      "approve(address,uint256)": {
        "details": "See {IERC721-approve}."
      },
      "balanceOf(address)": {
        "details": "See {IERC721-balanceOf}."
      },
      "getApproved(uint256)": {
        "details": "See {IERC721-getApproved}."
      },
      "getRoleAdmin(bytes32)": {
        "details": "Returns the admin role that controls `role`. See {grantRole} and {revokeRole}. To change a role's admin, use {_setRoleAdmin}."
      },
      "grantRole(bytes32,address)": {
        "details": "Grants `role` to `account`. If `account` had not been already granted `role`, emits a {RoleGranted} event. Requirements: - the caller must have ``role``'s admin role."
      },
      "hasRole(bytes32,address)": {
        "details": "Returns `true` if `account` has been granted `role`."
      },
      "initialize(string,string,string)": {
        "details": "upgrade will hopefully work soon",
        "params": {
          "_baseTokenURI": "The CID of the Tokens metadata",
          "_name": "The address, the Token should be transfered to",
          "_symbol": "The CID of the Tokens metadata"
        }
      },
      "isApprovedForAll(address,address)": {
        "details": "See {IERC721-isApprovedForAll}."
      },
      "name()": {
        "details": "See {IERC721Metadata-name}."
      },
      "owner()": {
        "details": "Returns the address of the current owner."
      },
      "ownerOf(uint256)": {
        "details": "See {IERC721-ownerOf}."
      },
      "renounceOwnership()": {
        "details": "Leaves the contract without owner. It will not be possible to call `onlyOwner` functions anymore. Can only be called by the current owner. NOTE: Renouncing ownership will leave the contract without an owner, thereby removing any functionality that is only available to the owner."
      },
      "renounceRole(bytes32,address)": {
        "details": "Revokes `role` from the calling account. Roles are often managed via {grantRole} and {revokeRole}: this function's purpose is to provide a mechanism for accounts to lose their privileges if they are compromised (such as when a trusted device is misplaced). If the calling account had been revoked `role`, emits a {RoleRevoked} event. Requirements: - the caller must be `account`."
      },
      "revokeRole(bytes32,address)": {
        "details": "Revokes `role` from `account`. If `account` had been granted `role`, emits a {RoleRevoked} event. Requirements: - the caller must have ``role``'s admin role."
      },
      "safeTransferFrom(address,address,uint256)": {
        "details": "See {IERC721-safeTransferFrom}."
      },
      "safeTransferFrom(address,address,uint256,bytes)": {
        "details": "See {IERC721-safeTransferFrom}."
      },
      "setApprovalForAll(address,bool)": {
        "details": "See {IERC721-setApprovalForAll}."
      },
      "supportsInterface(bytes4)": {
        "details": "See {IERC165-supportsInterface}."
      },
      "symbol()": {
        "details": "See {IERC721Metadata-symbol}."
      },
      "tokenByIndex(uint256)": {
        "details": "See {IERC721Enumerable-tokenByIndex}."
      },
      "tokenOfOwnerByIndex(address,uint256)": {
        "details": "See {IERC721Enumerable-tokenOfOwnerByIndex}."
      },
      "tokenURI(uint256)": {
        "details": "If there is no base URI, return the token URI. If there is a baseURI but no tokenURI, concatenate the tokenID to the baseURI.",
        "params": {
          "tokenId": "of Token that should be burned"
        },
        "returns": {
          "_0": "tokenURI"
        }
      },
      "totalSupply()": {
        "details": "See {IERC721Enumerable-totalSupply}."
      },
      "transferFrom(address,address,uint256)": {
        "details": "See {IERC721-transferFrom}."
      },
      "transferOwnership(address)": {
        "details": "Transfers ownership of the contract to a new account (`newOwner`). Can only be called by the current owner."
      }
    },
    "version": 1
  },
  "userdoc": {
    "kind": "user",
    "methods": {
      "initialize(string,string,string)": {
        "notice": "Instead of the constructor we need this function as we are using the upgreadable plugin. Only called once when contract is initialized. Same s constructor."
      },
      "tokenURI(uint256)": {
        "notice": "Returns tokenURI. If baseURI is set, concatenate the baseURI and tokenURI (via abi.encodePacked)."
      }
    },
    "version": 1
  }
}