{
  "contractName": "BaseContract",
  "abi": [
    {
      "inputs": [
        {
          "internalType": "string",
          "name": "_name",
          "type": "string"
        },
        {
          "internalType": "string",
          "name": "_symbol",
          "type": "string"
        }
      ],
      "stateMutability": "nonpayable",
      "type": "constructor"
    },
    {
      "anonymous": false,
      "inputs": [
        {
          "indexed": true,
          "internalType": "address",
          "name": "owner",
          "type": "address"
        },
        {
          "indexed": true,
          "internalType": "address",
          "name": "approved",
          "type": "address"
        },
        {
          "indexed": true,
          "internalType": "uint256",
          "name": "tokenId",
          "type": "uint256"
        }
      ],
      "name": "Approval",
      "type": "event"
    },
    {
      "anonymous": false,
      "inputs": [
        {
          "indexed": true,
          "internalType": "address",
          "name": "owner",
          "type": "address"
        },
        {
          "indexed": true,
          "internalType": "address",
          "name": "operator",
          "type": "address"
        },
        {
          "indexed": false,
          "internalType": "bool",
          "name": "approved",
          "type": "bool"
        }
      ],
      "name": "ApprovalForAll",
      "type": "event"
    },
    {
      "anonymous": false,
      "inputs": [
        {
          "indexed": true,
          "internalType": "address",
          "name": "previousOwner",
          "type": "address"
        },
        {
          "indexed": true,
          "internalType": "address",
          "name": "newOwner",
          "type": "address"
        }
      ],
      "name": "OwnershipTransferred",
      "type": "event"
    },
    {
      "anonymous": false,
      "inputs": [
        {
          "indexed": true,
          "internalType": "address",
          "name": "from",
          "type": "address"
        },
        {
          "indexed": true,
          "internalType": "address",
          "name": "to",
          "type": "address"
        },
        {
          "indexed": true,
          "internalType": "uint256",
          "name": "tokenId",
          "type": "uint256"
        }
      ],
      "name": "Transfer",
      "type": "event"
    },
    {
      "inputs": [
        {
          "internalType": "address",
          "name": "to",
          "type": "address"
        },
        {
          "internalType": "uint256",
          "name": "tokenId",
          "type": "uint256"
        }
      ],
      "name": "approve",
      "outputs": [],
      "stateMutability": "nonpayable",
      "type": "function"
    },
    {
      "inputs": [
        {
          "internalType": "address",
          "name": "owner",
          "type": "address"
        }
      ],
      "name": "balanceOf",
      "outputs": [
        {
          "internalType": "uint256",
          "name": "",
          "type": "uint256"
        }
      ],
      "stateMutability": "view",
      "type": "function"
    },
    {
      "inputs": [
        {
          "internalType": "uint256",
          "name": "tokenId",
          "type": "uint256"
        }
      ],
      "name": "getApproved",
      "outputs": [
        {
          "internalType": "address",
          "name": "",
          "type": "address"
        }
      ],
      "stateMutability": "view",
      "type": "function"
    },
    {
      "inputs": [
        {
          "internalType": "address",
          "name": "owner",
          "type": "address"
        },
        {
          "internalType": "address",
          "name": "operator",
          "type": "address"
        }
      ],
      "name": "isApprovedForAll",
      "outputs": [
        {
          "internalType": "bool",
          "name": "",
          "type": "bool"
        }
      ],
      "stateMutability": "view",
      "type": "function"
    },
    {
      "inputs": [],
      "name": "name",
      "outputs": [
        {
          "internalType": "string",
          "name": "",
          "type": "string"
        }
      ],
      "stateMutability": "view",
      "type": "function"
    },
    {
      "inputs": [],
      "name": "owner",
      "outputs": [
        {
          "internalType": "address",
          "name": "",
          "type": "address"
        }
      ],
      "stateMutability": "view",
      "type": "function"
    },
    {
      "inputs": [
        {
          "internalType": "uint256",
          "name": "tokenId",
          "type": "uint256"
        }
      ],
      "name": "ownerOf",
      "outputs": [
        {
          "internalType": "address",
          "name": "",
          "type": "address"
        }
      ],
      "stateMutability": "view",
      "type": "function"
    },
    {
      "inputs": [],
      "name": "renounceOwnership",
      "outputs": [],
      "stateMutability": "nonpayable",
      "type": "function"
    },
    {
      "inputs": [
        {
          "internalType": "address",
          "name": "from",
          "type": "address"
        },
        {
          "internalType": "address",
          "name": "to",
          "type": "address"
        },
        {
          "internalType": "uint256",
          "name": "tokenId",
          "type": "uint256"
        }
      ],
      "name": "safeTransferFrom",
      "outputs": [],
      "stateMutability": "nonpayable",
      "type": "function"
    },
    {
      "inputs": [
        {
          "internalType": "address",
          "name": "from",
          "type": "address"
        },
        {
          "internalType": "address",
          "name": "to",
          "type": "address"
        },
        {
          "internalType": "uint256",
          "name": "tokenId",
          "type": "uint256"
        },
        {
          "internalType": "bytes",
          "name": "_data",
          "type": "bytes"
        }
      ],
      "name": "safeTransferFrom",
      "outputs": [],
      "stateMutability": "nonpayable",
      "type": "function"
    },
    {
      "inputs": [
        {
          "internalType": "address",
          "name": "operator",
          "type": "address"
        },
        {
          "internalType": "bool",
          "name": "approved",
          "type": "bool"
        }
      ],
      "name": "setApprovalForAll",
      "outputs": [],
      "stateMutability": "nonpayable",
      "type": "function"
    },
    {
      "inputs": [
        {
          "internalType": "bytes4",
          "name": "interfaceId",
          "type": "bytes4"
        }
      ],
      "name": "supportsInterface",
      "outputs": [
        {
          "internalType": "bool",
          "name": "",
          "type": "bool"
        }
      ],
      "stateMutability": "view",
      "type": "function"
    },
    {
      "inputs": [],
      "name": "symbol",
      "outputs": [
        {
          "internalType": "string",
          "name": "",
          "type": "string"
        }
      ],
      "stateMutability": "view",
      "type": "function"
    },
    {
      "inputs": [
        {
          "internalType": "address",
          "name": "from",
          "type": "address"
        },
        {
          "internalType": "address",
          "name": "to",
          "type": "address"
        },
        {
          "internalType": "uint256",
          "name": "tokenId",
          "type": "uint256"
        }
      ],
      "name": "transferFrom",
      "outputs": [],
      "stateMutability": "nonpayable",
      "type": "function"
    },
    {
      "inputs": [
        {
          "internalType": "address",
          "name": "newOwner",
          "type": "address"
        }
      ],
      "name": "transferOwnership",
      "outputs": [],
      "stateMutability": "nonpayable",
      "type": "function"
    },
    {
      "inputs": [
        {
          "internalType": "string",
          "name": "baseURI_",
          "type": "string"
        }
      ],
      "name": "setBaseURI",
      "outputs": [],
      "stateMutability": "nonpayable",
      "type": "function"
    },
    {
      "inputs": [
        {
          "internalType": "uint256",
          "name": "tokenId",
          "type": "uint256"
        }
      ],
      "name": "tokenURI",
      "outputs": [
        {
          "internalType": "string",
          "name": "",
          "type": "string"
        }
      ],
      "stateMutability": "view",
      "type": "function"
    }
  ],
  "bytecode": "0x60806040523480156200001157600080fd5b5060405162003063380380620030638339818101604052810190620000379190620003c2565b818181600090805190602001906200005192919062000175565b5080600190805190602001906200006a92919062000175565b5050506200009f6200008a620000a7640100000000026401000000009004565b620000af640100000000026401000000009004565b5050620004ac565b600033905090565b6000600660009054906101000a900473ffffffffffffffffffffffffffffffffffffffff16905081600660006101000a81548173ffffffffffffffffffffffffffffffffffffffff021916908373ffffffffffffffffffffffffffffffffffffffff1602179055508173ffffffffffffffffffffffffffffffffffffffff168173ffffffffffffffffffffffffffffffffffffffff167f8be0079c531659141344cd1fd0a4f28419497f9722a3daafe3b4186f6b6457e060405160405180910390a35050565b828054620001839062000476565b90600052602060002090601f016020900481019282620001a75760008555620001f3565b82601f10620001c257805160ff1916838001178555620001f3565b82800160010185558215620001f3579182015b82811115620001f2578251825591602001919060010190620001d5565b5b50905062000202919062000206565b5090565b5b808211156200022157600081600090555060010162000207565b5090565b6000604051905090565b600080fd5b600080fd5b600080fd5b600080fd5b6000601f19601f8301169050919050565b7f4e487b7100000000000000000000000000000000000000000000000000000000600052604160045260246000fd5b6200028e8262000243565b810181811067ffffffffffffffff82111715620002b057620002af62000254565b5b80604052505050565b6000620002c562000225565b9050620002d3828262000283565b919050565b600067ffffffffffffffff821115620002f657620002f562000254565b5b620003018262000243565b9050602081019050919050565b60005b838110156200032e57808201518184015260208101905062000311565b838111156200033e576000848401525b50505050565b60006200035b6200035584620002d8565b620002b9565b9050828152602081018484840111156200037a57620003796200023e565b5b620003878482856200030e565b509392505050565b600082601f830112620003a757620003a662000239565b5b8151620003b984826020860162000344565b91505092915050565b60008060408385031215620003dc57620003db6200022f565b5b600083015167ffffffffffffffff811115620003fd57620003fc62000234565b5b6200040b858286016200038f565b925050602083015167ffffffffffffffff8111156200042f576200042e62000234565b5b6200043d858286016200038f565b9150509250929050565b7f4e487b7100000000000000000000000000000000000000000000000000000000600052602260045260246000fd5b600060028204905060018216806200048f57607f821691505b60208210811415620004a657620004a562000447565b5b50919050565b612ba780620004bc6000396000f3fe608060405234801561001057600080fd5b5060043610610128576000357c01000000000000000000000000000000000000000000000000000000009004806370a08231116100bf578063a22cb4651161008e578063a22cb465146102c1578063b88d4fde146102dd578063c87b56dd146102f9578063e985e9c514610329578063f2fde38b1461035957610128565b806370a082311461024b578063715018a61461027b5780638da5cb5b1461028557806395d89b41146102a357610128565b806323b872dd116100fb57806323b872dd146101c757806342842e0e146101e357806355f804b3146101ff5780636352211e1461021b57610128565b806301ffc9a71461012d57806306fdde031461015d578063081812fc1461017b578063095ea7b3146101ab575b600080fd5b61014760048036038101906101429190611a1a565b610375565b6040516101549190611a62565b60405180910390f35b610165610457565b6040516101729190611b16565b60405180910390f35b61019560048036038101906101909190611b6e565b6104e9565b6040516101a29190611bdc565b60405180910390f35b6101c560048036038101906101c09190611c23565b61056e565b005b6101e160048036038101906101dc9190611c63565b610686565b005b6101fd60048036038101906101f89190611c63565b6106e6565b005b61021960048036038101906102149190611deb565b610706565b005b61023560048036038101906102309190611b6e565b61079c565b6040516102429190611bdc565b60405180910390f35b61026560048036038101906102609190611e34565b61084e565b6040516102729190611e70565b60405180910390f35b610283610906565b005b61028d61098e565b60405161029a9190611bdc565b60405180910390f35b6102ab6109b8565b6040516102b89190611b16565b60405180910390f35b6102db60048036038101906102d69190611eb7565b610a4a565b005b6102f760048036038101906102f29190611f98565b610a60565b005b610313600480360381019061030e9190611b6e565b610ac2565b6040516103209190611b16565b60405180910390f35b610343600480360381019061033e919061201b565b610c35565b6040516103509190611a62565b60405180910390f35b610373600480360381019061036e9190611e34565b610cc9565b005b60007f80ac58cd000000000000000000000000000000000000000000000000000000007bffffffffffffffffffffffffffffffffffffffffffffffffffffffff1916827bffffffffffffffffffffffffffffffffffffffffffffffffffffffff1916148061044057507f5b5e139f000000000000000000000000000000000000000000000000000000007bffffffffffffffffffffffffffffffffffffffffffffffffffffffff1916827bffffffffffffffffffffffffffffffffffffffffffffffffffffffff1916145b80610450575061044f82610dc1565b5b9050919050565b6060600080546104669061208a565b80601f01602080910402602001604051908101604052809291908181526020018280546104929061208a565b80156104df5780601f106104b4576101008083540402835291602001916104df565b820191906000526020600020905b8154815290600101906020018083116104c257829003601f168201915b5050505050905090565b60006104f482610e2b565b610533576040517f08c379a000000000000000000000000000000000000000000000000000000000815260040161052a9061212e565b60405180910390fd5b6004600083815260200190815260200160002060009054906101000a900473ffffffffffffffffffffffffffffffffffffffff169050919050565b60006105798261079c565b90508073ffffffffffffffffffffffffffffffffffffffff168373ffffffffffffffffffffffffffffffffffffffff1614156105ea576040517f08c379a00000000000000000000000000000000000000000000000000000000081526004016105e1906121c0565b60405180910390fd5b8073ffffffffffffffffffffffffffffffffffffffff16610609610e97565b73ffffffffffffffffffffffffffffffffffffffff161480610638575061063781610632610e97565b610c35565b5b610677576040517f08c379a000000000000000000000000000000000000000000000000000000000815260040161066e90612252565b60405180910390fd5b6106818383610e9f565b505050565b610697610691610e97565b82610f58565b6106d6576040517f08c379a00000000000000000000000000000000000000000000000000000000081526004016106cd906122e4565b60405180910390fd5b6106e1838383611036565b505050565b61070183838360405180602001604052806000815250610a60565b505050565b61070e610e97565b73ffffffffffffffffffffffffffffffffffffffff1661072c61098e565b73ffffffffffffffffffffffffffffffffffffffff1614610782576040517f08c379a000000000000000000000000000000000000000000000000000000000815260040161077990612350565b60405180910390fd5b806008908051906020019061079892919061190b565b5050565b6000806002600084815260200190815260200160002060009054906101000a900473ffffffffffffffffffffffffffffffffffffffff169050600073ffffffffffffffffffffffffffffffffffffffff168173ffffffffffffffffffffffffffffffffffffffff161415610845576040517f08c379a000000000000000000000000000000000000000000000000000000000815260040161083c906123e2565b60405180910390fd5b80915050919050565b60008073ffffffffffffffffffffffffffffffffffffffff168273ffffffffffffffffffffffffffffffffffffffff1614156108bf576040517f08c379a00000000000000000000000000000000000000000000000000000000081526004016108b690612474565b60405180910390fd5b600360008373ffffffffffffffffffffffffffffffffffffffff1673ffffffffffffffffffffffffffffffffffffffff168152602001908152602001600020549050919050565b61090e610e97565b73ffffffffffffffffffffffffffffffffffffffff1661092c61098e565b73ffffffffffffffffffffffffffffffffffffffff1614610982576040517f08c379a000000000000000000000000000000000000000000000000000000000815260040161097990612350565b60405180910390fd5b61098c6000611292565b565b6000600660009054906101000a900473ffffffffffffffffffffffffffffffffffffffff16905090565b6060600180546109c79061208a565b80601f01602080910402602001604051908101604052809291908181526020018280546109f39061208a565b8015610a405780601f10610a1557610100808354040283529160200191610a40565b820191906000526020600020905b815481529060010190602001808311610a2357829003601f168201915b5050505050905090565b610a5c610a55610e97565b8383611358565b5050565b610a71610a6b610e97565b83610f58565b610ab0576040517f08c379a0000000000000000000000000000000000000000000000000000000008152600401610aa7906122e4565b60405180910390fd5b610abc848484846114c5565b50505050565b6060610acd82610e2b565b610b0c576040517f08c379a0000000000000000000000000000000000000000000000000000000008152600401610b0390612506565b60405180910390fd5b6000600760008481526020019081526020016000208054610b2c9061208a565b80601f0160208091040260200160405190810160405280929190818152602001828054610b589061208a565b8015610ba55780601f10610b7a57610100808354040283529160200191610ba5565b820191906000526020600020905b815481529060010190602001808311610b8857829003601f168201915b505050505090506000610bb6611521565b9050600081511415610bcc578192505050610c30565b600082511115610c01578082604051602001610be9929190612562565b60405160208183030381529060405292505050610c30565b80610c0b856115b3565b604051602001610c1c929190612562565b604051602081830303815290604052925050505b919050565b6000600560008473ffffffffffffffffffffffffffffffffffffffff1673ffffffffffffffffffffffffffffffffffffffff16815260200190815260200160002060008373ffffffffffffffffffffffffffffffffffffffff1673ffffffffffffffffffffffffffffffffffffffff16815260200190815260200160002060009054906101000a900460ff16905092915050565b610cd1610e97565b73ffffffffffffffffffffffffffffffffffffffff16610cef61098e565b73ffffffffffffffffffffffffffffffffffffffff1614610d45576040517f08c379a0000000000000000000000000000000000000000000000000000000008152600401610d3c90612350565b60405180910390fd5b600073ffffffffffffffffffffffffffffffffffffffff168173ffffffffffffffffffffffffffffffffffffffff161415610db5576040517f08c379a0000000000000000000000000000000000000000000000000000000008152600401610dac906125f8565b60405180910390fd5b610dbe81611292565b50565b60007f01ffc9a7000000000000000000000000000000000000000000000000000000007bffffffffffffffffffffffffffffffffffffffffffffffffffffffff1916827bffffffffffffffffffffffffffffffffffffffffffffffffffffffff1916149050919050565b60008073ffffffffffffffffffffffffffffffffffffffff166002600084815260200190815260200160002060009054906101000a900473ffffffffffffffffffffffffffffffffffffffff1673ffffffffffffffffffffffffffffffffffffffff1614159050919050565b600033905090565b816004600083815260200190815260200160002060006101000a81548173ffffffffffffffffffffffffffffffffffffffff021916908373ffffffffffffffffffffffffffffffffffffffff160217905550808273ffffffffffffffffffffffffffffffffffffffff16610f128361079c565b73ffffffffffffffffffffffffffffffffffffffff167f8c5be1e5ebec7d5bd14f71427d1e84f3dd0314c0f7b2291e5b200ac8c7c3b92560405160405180910390a45050565b6000610f6382610e2b565b610fa2576040517f08c379a0000000000000000000000000000000000000000000000000000000008152600401610f999061268a565b60405180910390fd5b6000610fad8361079c565b90508073ffffffffffffffffffffffffffffffffffffffff168473ffffffffffffffffffffffffffffffffffffffff16148061101c57508373ffffffffffffffffffffffffffffffffffffffff16611004846104e9565b73ffffffffffffffffffffffffffffffffffffffff16145b8061102d575061102c8185610c35565b5b91505092915050565b8273ffffffffffffffffffffffffffffffffffffffff166110568261079c565b73ffffffffffffffffffffffffffffffffffffffff16146110ac576040517f08c379a00000000000000000000000000000000000000000000000000000000081526004016110a39061271c565b60405180910390fd5b600073ffffffffffffffffffffffffffffffffffffffff168273ffffffffffffffffffffffffffffffffffffffff16141561111c576040517f08c379a0000000000000000000000000000000000000000000000000000000008152600401611113906127ae565b60405180910390fd5b611127838383611733565b611132600082610e9f565b6001600360008573ffffffffffffffffffffffffffffffffffffffff1673ffffffffffffffffffffffffffffffffffffffff168152602001908152602001600020600082825461118291906127fd565b925050819055506001600360008473ffffffffffffffffffffffffffffffffffffffff1673ffffffffffffffffffffffffffffffffffffffff16815260200190815260200160002060008282546111d99190612831565b92505081905550816002600083815260200190815260200160002060006101000a81548173ffffffffffffffffffffffffffffffffffffffff021916908373ffffffffffffffffffffffffffffffffffffffff160217905550808273ffffffffffffffffffffffffffffffffffffffff168473ffffffffffffffffffffffffffffffffffffffff167fddf252ad1be2c89b69c2b068fc378daa952ba7f163c4a11628f55a4df523b3ef60405160405180910390a4505050565b6000600660009054906101000a900473ffffffffffffffffffffffffffffffffffffffff16905081600660006101000a81548173ffffffffffffffffffffffffffffffffffffffff021916908373ffffffffffffffffffffffffffffffffffffffff1602179055508173ffffffffffffffffffffffffffffffffffffffff168173ffffffffffffffffffffffffffffffffffffffff167f8be0079c531659141344cd1fd0a4f28419497f9722a3daafe3b4186f6b6457e060405160405180910390a35050565b8173ffffffffffffffffffffffffffffffffffffffff168373ffffffffffffffffffffffffffffffffffffffff1614156113c7576040517f08c379a00000000000000000000000000000000000000000000000000000000081526004016113be906128d3565b60405180910390fd5b80600560008573ffffffffffffffffffffffffffffffffffffffff1673ffffffffffffffffffffffffffffffffffffffff16815260200190815260200160002060008473ffffffffffffffffffffffffffffffffffffffff1673ffffffffffffffffffffffffffffffffffffffff16815260200190815260200160002060006101000a81548160ff0219169083151502179055508173ffffffffffffffffffffffffffffffffffffffff168373ffffffffffffffffffffffffffffffffffffffff167f17307eab39ab6107e8899845ad3d59bd9653f200f220920489ca2b5937696c31836040516114b89190611a62565b60405180910390a3505050565b6114d0848484611036565b6114dc84848484611738565b61151b576040517f08c379a000000000000000000000000000000000000000000000000000000000815260040161151290612965565b60405180910390fd5b50505050565b6060600880546115309061208a565b80601f016020809104026020016040519081016040528092919081815260200182805461155c9061208a565b80156115a95780601f1061157e576101008083540402835291602001916115a9565b820191906000526020600020905b81548152906001019060200180831161158c57829003601f168201915b5050505050905090565b606060008214156115fb576040518060400160405280600181526020017f3000000000000000000000000000000000000000000000000000000000000000815250905061172e565b600082905060005b6000821461162d57808061161690612985565b915050600a8261162691906129fd565b9150611603565b60008167ffffffffffffffff81111561164957611648611cc0565b5b6040519080825280601f01601f19166020018201604052801561167b5781602001600182028036833780820191505090505b5090505b600085146117275760018261169491906127fd565b9150600a856116a39190612a2e565b60306116af9190612831565b7f0100000000000000000000000000000000000000000000000000000000000000028183815181106116e4576116e3612a5f565b5b60200101907effffffffffffffffffffffffffffffffffffffffffffffffffffffffffffff1916908160001a905350600a8561172091906129fd565b945061167f565b8093505050505b919050565b505050565b60006117598473ffffffffffffffffffffffffffffffffffffffff166118f8565b156118eb578373ffffffffffffffffffffffffffffffffffffffff1663150b7a02611782610e97565b8786866040518563ffffffff167c01000000000000000000000000000000000000000000000000000000000281526004016117c09493929190612ae3565b6020604051808303816000875af19250505080156117fc57506040513d601f19601f820116820180604052508101906117f99190612b44565b60015b61187f573d806000811461182c576040519150601f19603f3d011682016040523d82523d6000602084013e611831565b606091505b50600081511415611877576040517f08c379a000000000000000000000000000000000000000000000000000000000815260040161186e90612965565b60405180910390fd5b805181602001fd5b63150b7a027c0100000000000000000000000000000000000000000000000000000000027bffffffffffffffffffffffffffffffffffffffffffffffffffffffff1916817bffffffffffffffffffffffffffffffffffffffffffffffffffffffff1916149150506118f0565b600190505b949350505050565b600080823b905060008111915050919050565b8280546119179061208a565b90600052602060002090601f0160209004810192826119395760008555611980565b82601f1061195257805160ff1916838001178555611980565b82800160010185558215611980579182015b8281111561197f578251825591602001919060010190611964565b5b50905061198d9190611991565b5090565b5b808211156119aa576000816000905550600101611992565b5090565b6000604051905090565b600080fd5b600080fd5b60007fffffffff0000000000000000000000000000000000000000000000000000000082169050919050565b6119f7816119c2565b8114611a0257600080fd5b50565b600081359050611a14816119ee565b92915050565b600060208284031215611a3057611a2f6119b8565b5b6000611a3e84828501611a05565b91505092915050565b60008115159050919050565b611a5c81611a47565b82525050565b6000602082019050611a776000830184611a53565b92915050565b600081519050919050565b600082825260208201905092915050565b60005b83811015611ab7578082015181840152602081019050611a9c565b83811115611ac6576000848401525b50505050565b6000601f19601f8301169050919050565b6000611ae882611a7d565b611af28185611a88565b9350611b02818560208601611a99565b611b0b81611acc565b840191505092915050565b60006020820190508181036000830152611b308184611add565b905092915050565b6000819050919050565b611b4b81611b38565b8114611b5657600080fd5b50565b600081359050611b6881611b42565b92915050565b600060208284031215611b8457611b836119b8565b5b6000611b9284828501611b59565b91505092915050565b600073ffffffffffffffffffffffffffffffffffffffff82169050919050565b6000611bc682611b9b565b9050919050565b611bd681611bbb565b82525050565b6000602082019050611bf16000830184611bcd565b92915050565b611c0081611bbb565b8114611c0b57600080fd5b50565b600081359050611c1d81611bf7565b92915050565b60008060408385031215611c3a57611c396119b8565b5b6000611c4885828601611c0e565b9250506020611c5985828601611b59565b9150509250929050565b600080600060608486031215611c7c57611c7b6119b8565b5b6000611c8a86828701611c0e565b9350506020611c9b86828701611c0e565b9250506040611cac86828701611b59565b9150509250925092565b600080fd5b600080fd5b7f4e487b7100000000000000000000000000000000000000000000000000000000600052604160045260246000fd5b611cf882611acc565b810181811067ffffffffffffffff82111715611d1757611d16611cc0565b5b80604052505050565b6000611d2a6119ae565b9050611d368282611cef565b919050565b600067ffffffffffffffff821115611d5657611d55611cc0565b5b611d5f82611acc565b9050602081019050919050565b82818337600083830152505050565b6000611d8e611d8984611d3b565b611d20565b905082815260208101848484011115611daa57611da9611cbb565b5b611db5848285611d6c565b509392505050565b600082601f830112611dd257611dd1611cb6565b5b8135611de2848260208601611d7b565b91505092915050565b600060208284031215611e0157611e006119b8565b5b600082013567ffffffffffffffff811115611e1f57611e1e6119bd565b5b611e2b84828501611dbd565b91505092915050565b600060208284031215611e4a57611e496119b8565b5b6000611e5884828501611c0e565b91505092915050565b611e6a81611b38565b82525050565b6000602082019050611e856000830184611e61565b92915050565b611e9481611a47565b8114611e9f57600080fd5b50565b600081359050611eb181611e8b565b92915050565b60008060408385031215611ece57611ecd6119b8565b5b6000611edc85828601611c0e565b9250506020611eed85828601611ea2565b9150509250929050565b600067ffffffffffffffff821115611f1257611f11611cc0565b5b611f1b82611acc565b9050602081019050919050565b6000611f3b611f3684611ef7565b611d20565b905082815260208101848484011115611f5757611f56611cbb565b5b611f62848285611d6c565b509392505050565b600082601f830112611f7f57611f7e611cb6565b5b8135611f8f848260208601611f28565b91505092915050565b60008060008060808587031215611fb257611fb16119b8565b5b6000611fc087828801611c0e565b9450506020611fd187828801611c0e565b9350506040611fe287828801611b59565b925050606085013567ffffffffffffffff811115612003576120026119bd565b5b61200f87828801611f6a565b91505092959194509250565b60008060408385031215612032576120316119b8565b5b600061204085828601611c0e565b925050602061205185828601611c0e565b9150509250929050565b7f4e487b7100000000000000000000000000000000000000000000000000000000600052602260045260246000fd5b600060028204905060018216806120a257607f821691505b602082108114156120b6576120b561205b565b5b50919050565b7f4552433732313a20617070726f76656420717565727920666f72206e6f6e657860008201527f697374656e7420746f6b656e0000000000000000000000000000000000000000602082015250565b6000612118602c83611a88565b9150612123826120bc565b604082019050919050565b600060208201905081810360008301526121478161210b565b9050919050565b7f4552433732313a20617070726f76616c20746f2063757272656e74206f776e6560008201527f7200000000000000000000000000000000000000000000000000000000000000602082015250565b60006121aa602183611a88565b91506121b58261214e565b604082019050919050565b600060208201905081810360008301526121d98161219d565b9050919050565b7f4552433732313a20617070726f76652063616c6c6572206973206e6f74206f7760008201527f6e6572206e6f7220617070726f76656420666f7220616c6c0000000000000000602082015250565b600061223c603883611a88565b9150612247826121e0565b604082019050919050565b6000602082019050818103600083015261226b8161222f565b9050919050565b7f4552433732313a207472616e736665722063616c6c6572206973206e6f74206f60008201527f776e6572206e6f7220617070726f766564000000000000000000000000000000602082015250565b60006122ce603183611a88565b91506122d982612272565b604082019050919050565b600060208201905081810360008301526122fd816122c1565b9050919050565b7f4f776e61626c653a2063616c6c6572206973206e6f7420746865206f776e6572600082015250565b600061233a602083611a88565b915061234582612304565b602082019050919050565b600060208201905081810360008301526123698161232d565b9050919050565b7f4552433732313a206f776e657220717565727920666f72206e6f6e657869737460008201527f656e7420746f6b656e0000000000000000000000000000000000000000000000602082015250565b60006123cc602983611a88565b91506123d782612370565b604082019050919050565b600060208201905081810360008301526123fb816123bf565b9050919050565b7f4552433732313a2062616c616e636520717565727920666f7220746865207a6560008201527f726f206164647265737300000000000000000000000000000000000000000000602082015250565b600061245e602a83611a88565b915061246982612402565b604082019050919050565b6000602082019050818103600083015261248d81612451565b9050919050565b7f4552433732314d657461646174613a2055524920717565727920666f72206e6f60008201527f6e6578697374656e7420746f6b656e0000000000000000000000000000000000602082015250565b60006124f0602f83611a88565b91506124fb82612494565b604082019050919050565b6000602082019050818103600083015261251f816124e3565b9050919050565b600081905092915050565b600061253c82611a7d565b6125468185612526565b9350612556818560208601611a99565b80840191505092915050565b600061256e8285612531565b915061257a8284612531565b91508190509392505050565b7f4f776e61626c653a206e6577206f776e657220697320746865207a65726f206160008201527f6464726573730000000000000000000000000000000000000000000000000000602082015250565b60006125e2602683611a88565b91506125ed82612586565b604082019050919050565b60006020820190508181036000830152612611816125d5565b9050919050565b7f4552433732313a206f70657261746f7220717565727920666f72206e6f6e657860008201527f697374656e7420746f6b656e0000000000000000000000000000000000000000602082015250565b6000612674602c83611a88565b915061267f82612618565b604082019050919050565b600060208201905081810360008301526126a381612667565b9050919050565b7f4552433732313a207472616e73666572206f6620746f6b656e2074686174206960008201527f73206e6f74206f776e0000000000000000000000000000000000000000000000602082015250565b6000612706602983611a88565b9150612711826126aa565b604082019050919050565b60006020820190508181036000830152612735816126f9565b9050919050565b7f4552433732313a207472616e7366657220746f20746865207a65726f2061646460008201527f7265737300000000000000000000000000000000000000000000000000000000602082015250565b6000612798602483611a88565b91506127a38261273c565b604082019050919050565b600060208201905081810360008301526127c78161278b565b9050919050565b7f4e487b7100000000000000000000000000000000000000000000000000000000600052601160045260246000fd5b600061280882611b38565b915061281383611b38565b925082821015612826576128256127ce565b5b828203905092915050565b600061283c82611b38565b915061284783611b38565b9250827fffffffffffffffffffffffffffffffffffffffffffffffffffffffffffffffff0382111561287c5761287b6127ce565b5b828201905092915050565b7f4552433732313a20617070726f766520746f2063616c6c657200000000000000600082015250565b60006128bd601983611a88565b91506128c882612887565b602082019050919050565b600060208201905081810360008301526128ec816128b0565b9050919050565b7f4552433732313a207472616e7366657220746f206e6f6e20455243373231526560008201527f63656976657220696d706c656d656e7465720000000000000000000000000000602082015250565b600061294f603283611a88565b915061295a826128f3565b604082019050919050565b6000602082019050818103600083015261297e81612942565b9050919050565b600061299082611b38565b91507fffffffffffffffffffffffffffffffffffffffffffffffffffffffffffffffff8214156129c3576129c26127ce565b5b600182019050919050565b7f4e487b7100000000000000000000000000000000000000000000000000000000600052601260045260246000fd5b6000612a0882611b38565b9150612a1383611b38565b925082612a2357612a226129ce565b5b828204905092915050565b6000612a3982611b38565b9150612a4483611b38565b925082612a5457612a536129ce565b5b828206905092915050565b7f4e487b7100000000000000000000000000000000000000000000000000000000600052603260045260246000fd5b600081519050919050565b600082825260208201905092915050565b6000612ab582612a8e565b612abf8185612a99565b9350612acf818560208601611a99565b612ad881611acc565b840191505092915050565b6000608082019050612af86000830187611bcd565b612b056020830186611bcd565b612b126040830185611e61565b8181036060830152612b248184612aaa565b905095945050505050565b600081519050612b3e816119ee565b92915050565b600060208284031215612b5a57612b596119b8565b5b6000612b6884828501612b2f565b9150509291505056fea26469706673582212201a5004d79a5f6735d097d4f83032d9e8ec3e5a8eebcc678d28e11ad604e4208f64736f6c634300080b0033",
  "immutableReferences": {},
  "source": "// SPDX-License-Identifier: MIT\npragma solidity >=0.4.22 <0.9.0;\n\nimport \"@openzeppelin/contracts/token/ERC721/ERC721.sol\";\nimport \"@openzeppelin/contracts/access/Ownable.sol\";\n\nimport \"@openzeppelin/contracts/utils/math/SafeMath.sol\";\nimport \"@openzeppelin/contracts/utils/Counters.sol\";\nimport \"@openzeppelin/contracts/token/ERC721/extensions/ERC721Enumerable.sol\";\n\ncontract BaseContract is ERC721, Ownable {\n    using Strings for uint256;\n\n    // Optional mapping for token URIs\n    mapping(uint256 => string) internal tokenURIs;\n\n    // Base URI\n    string private _baseURIextended;\n\n    constructor(string memory _name, string memory _symbol)\n        ERC721(_name, _symbol)\n    {}\n\n    function setBaseURI(string memory baseURI_) external onlyOwner {\n        _baseURIextended = baseURI_;\n    }\n\n    function _setTokenUri(uint256 tokenId, string memory _tokenURI)\n        internal\n        virtual\n    {\n        require(\n            _exists(tokenId),\n            \"ERC721Metadata: URI set of nonexistent token\"\n        );\n        tokenURIs[tokenId] = _tokenURI;\n    }\n\n    function _baseURI() internal view virtual override returns (string memory) {\n        return _baseURIextended;\n    }\n\n    function tokenURI(uint256 tokenId)\n        public\n        view\n        virtual\n        override\n        returns (string memory)\n    {\n        require(\n            _exists(tokenId),\n            \"ERC721Metadata: URI query for nonexistent token\"\n        );\n\n        string memory _tokenURI = tokenURIs[tokenId];\n        string memory base = _baseURI();\n\n        // If there is no base URI, return the token URI.\n        if (bytes(base).length == 0) {\n            return _tokenURI;\n        }\n        // If both are set, concatenate the baseURI and tokenURI (via abi.encodePacked).\n        if (bytes(_tokenURI).length > 0) {\n            return string(abi.encodePacked(base, _tokenURI));\n        }\n        // If there is a baseURI but no tokenURI, concatenate the tokenID to the baseURI.\n        return string(abi.encodePacked(base, tokenId.toString()));\n    }\n}\n",
  "sourcePath": "/Users/lenahierzi/Developer/consensys/blockchain-developer-bootcamp-final-project/contracts/BaseContract.sol",
  "compiler": {
    "name": "solc",
    "version": "0.8.11+commit.d7f03943.Emscripten.clang"
  },
  "schemaVersion": "3.4.3",
  "updatedAt": "2022-01-08T00:27:23.525Z",
  "networkType": "ethereum",
  "devdoc": {
    "kind": "dev",
    "methods": {
      "approve(address,uint256)": {
        "details": "See {IERC721-approve}."
      },
      "balanceOf(address)": {
        "details": "See {IERC721-balanceOf}."
      },
      "getApproved(uint256)": {
        "details": "See {IERC721-getApproved}."
      },
      "isApprovedForAll(address,address)": {
        "details": "See {IERC721-isApprovedForAll}."
      },
      "name()": {
        "details": "See {IERC721Metadata-name}."
      },
      "owner()": {
        "details": "Returns the address of the current owner."
      },
      "ownerOf(uint256)": {
        "details": "See {IERC721-ownerOf}."
      },
      "renounceOwnership()": {
        "details": "Leaves the contract without owner. It will not be possible to call `onlyOwner` functions anymore. Can only be called by the current owner. NOTE: Renouncing ownership will leave the contract without an owner, thereby removing any functionality that is only available to the owner."
      },
      "safeTransferFrom(address,address,uint256)": {
        "details": "See {IERC721-safeTransferFrom}."
      },
      "safeTransferFrom(address,address,uint256,bytes)": {
        "details": "See {IERC721-safeTransferFrom}."
      },
      "setApprovalForAll(address,bool)": {
        "details": "See {IERC721-setApprovalForAll}."
      },
      "supportsInterface(bytes4)": {
        "details": "See {IERC165-supportsInterface}."
      },
      "symbol()": {
        "details": "See {IERC721Metadata-symbol}."
      },
      "tokenURI(uint256)": {
        "details": "See {IERC721Metadata-tokenURI}."
      },
      "transferFrom(address,address,uint256)": {
        "details": "See {IERC721-transferFrom}."
      },
      "transferOwnership(address)": {
        "details": "Transfers ownership of the contract to a new account (`newOwner`). Can only be called by the current owner."
      }
    },
    "version": 1
  },
  "userdoc": {
    "kind": "user",
    "methods": {},
    "version": 1
  }
}