{
  "contractName": "BaseContract",
  "abi": [
    {
      "anonymous": false,
      "inputs": [
        {
          "indexed": true,
          "internalType": "address",
          "name": "owner",
          "type": "address"
        },
        {
          "indexed": true,
          "internalType": "address",
          "name": "approved",
          "type": "address"
        },
        {
          "indexed": true,
          "internalType": "uint256",
          "name": "tokenId",
          "type": "uint256"
        }
      ],
      "name": "Approval",
      "type": "event"
    },
    {
      "anonymous": false,
      "inputs": [
        {
          "indexed": true,
          "internalType": "address",
          "name": "owner",
          "type": "address"
        },
        {
          "indexed": true,
          "internalType": "address",
          "name": "operator",
          "type": "address"
        },
        {
          "indexed": false,
          "internalType": "bool",
          "name": "approved",
          "type": "bool"
        }
      ],
      "name": "ApprovalForAll",
      "type": "event"
    },
    {
      "anonymous": false,
      "inputs": [
        {
          "indexed": true,
          "internalType": "address",
          "name": "previousOwner",
          "type": "address"
        },
        {
          "indexed": true,
          "internalType": "address",
          "name": "newOwner",
          "type": "address"
        }
      ],
      "name": "OwnershipTransferred",
      "type": "event"
    },
    {
      "anonymous": false,
      "inputs": [
        {
          "indexed": true,
          "internalType": "bytes32",
          "name": "role",
          "type": "bytes32"
        },
        {
          "indexed": true,
          "internalType": "bytes32",
          "name": "previousAdminRole",
          "type": "bytes32"
        },
        {
          "indexed": true,
          "internalType": "bytes32",
          "name": "newAdminRole",
          "type": "bytes32"
        }
      ],
      "name": "RoleAdminChanged",
      "type": "event"
    },
    {
      "anonymous": false,
      "inputs": [
        {
          "indexed": true,
          "internalType": "bytes32",
          "name": "role",
          "type": "bytes32"
        },
        {
          "indexed": true,
          "internalType": "address",
          "name": "account",
          "type": "address"
        },
        {
          "indexed": true,
          "internalType": "address",
          "name": "sender",
          "type": "address"
        }
      ],
      "name": "RoleGranted",
      "type": "event"
    },
    {
      "anonymous": false,
      "inputs": [
        {
          "indexed": true,
          "internalType": "bytes32",
          "name": "role",
          "type": "bytes32"
        },
        {
          "indexed": true,
          "internalType": "address",
          "name": "account",
          "type": "address"
        },
        {
          "indexed": true,
          "internalType": "address",
          "name": "sender",
          "type": "address"
        }
      ],
      "name": "RoleRevoked",
      "type": "event"
    },
    {
      "anonymous": false,
      "inputs": [
        {
          "indexed": true,
          "internalType": "address",
          "name": "from",
          "type": "address"
        },
        {
          "indexed": true,
          "internalType": "address",
          "name": "to",
          "type": "address"
        },
        {
          "indexed": true,
          "internalType": "uint256",
          "name": "tokenId",
          "type": "uint256"
        }
      ],
      "name": "Transfer",
      "type": "event"
    },
    {
      "inputs": [],
      "name": "DEFAULT_ADMIN_ROLE",
      "outputs": [
        {
          "internalType": "bytes32",
          "name": "",
          "type": "bytes32"
        }
      ],
      "stateMutability": "view",
      "type": "function"
    },
    {
      "inputs": [],
      "name": "MAX_PER_MINT",
      "outputs": [
        {
          "internalType": "uint256",
          "name": "",
          "type": "uint256"
        }
      ],
      "stateMutability": "view",
      "type": "function"
    },
    {
      "inputs": [],
      "name": "MAX_SUPPLY",
      "outputs": [
        {
          "internalType": "uint256",
          "name": "",
          "type": "uint256"
        }
      ],
      "stateMutability": "view",
      "type": "function"
    },
    {
      "inputs": [],
      "name": "MINTER_ROLE",
      "outputs": [
        {
          "internalType": "bytes32",
          "name": "",
          "type": "bytes32"
        }
      ],
      "stateMutability": "view",
      "type": "function"
    },
    {
      "inputs": [],
      "name": "PRICE",
      "outputs": [
        {
          "internalType": "uint256",
          "name": "",
          "type": "uint256"
        }
      ],
      "stateMutability": "view",
      "type": "function"
    },
    {
      "inputs": [
        {
          "internalType": "address",
          "name": "to",
          "type": "address"
        },
        {
          "internalType": "uint256",
          "name": "tokenId",
          "type": "uint256"
        }
      ],
      "name": "approve",
      "outputs": [],
      "stateMutability": "nonpayable",
      "type": "function"
    },
    {
      "inputs": [
        {
          "internalType": "address",
          "name": "owner",
          "type": "address"
        }
      ],
      "name": "balanceOf",
      "outputs": [
        {
          "internalType": "uint256",
          "name": "",
          "type": "uint256"
        }
      ],
      "stateMutability": "view",
      "type": "function"
    },
    {
      "inputs": [],
      "name": "baseTokenURI",
      "outputs": [
        {
          "internalType": "string",
          "name": "",
          "type": "string"
        }
      ],
      "stateMutability": "view",
      "type": "function"
    },
    {
      "inputs": [
        {
          "internalType": "uint256",
          "name": "tokenId",
          "type": "uint256"
        }
      ],
      "name": "getApproved",
      "outputs": [
        {
          "internalType": "address",
          "name": "",
          "type": "address"
        }
      ],
      "stateMutability": "view",
      "type": "function"
    },
    {
      "inputs": [
        {
          "internalType": "bytes32",
          "name": "role",
          "type": "bytes32"
        }
      ],
      "name": "getRoleAdmin",
      "outputs": [
        {
          "internalType": "bytes32",
          "name": "",
          "type": "bytes32"
        }
      ],
      "stateMutability": "view",
      "type": "function"
    },
    {
      "inputs": [
        {
          "internalType": "bytes32",
          "name": "role",
          "type": "bytes32"
        },
        {
          "internalType": "address",
          "name": "account",
          "type": "address"
        }
      ],
      "name": "grantRole",
      "outputs": [],
      "stateMutability": "nonpayable",
      "type": "function"
    },
    {
      "inputs": [
        {
          "internalType": "bytes32",
          "name": "role",
          "type": "bytes32"
        },
        {
          "internalType": "address",
          "name": "account",
          "type": "address"
        }
      ],
      "name": "hasRole",
      "outputs": [
        {
          "internalType": "bool",
          "name": "",
          "type": "bool"
        }
      ],
      "stateMutability": "view",
      "type": "function"
    },
    {
      "inputs": [
        {
          "internalType": "address",
          "name": "owner",
          "type": "address"
        },
        {
          "internalType": "address",
          "name": "operator",
          "type": "address"
        }
      ],
      "name": "isApprovedForAll",
      "outputs": [
        {
          "internalType": "bool",
          "name": "",
          "type": "bool"
        }
      ],
      "stateMutability": "view",
      "type": "function"
    },
    {
      "inputs": [],
      "name": "name",
      "outputs": [
        {
          "internalType": "string",
          "name": "",
          "type": "string"
        }
      ],
      "stateMutability": "view",
      "type": "function"
    },
    {
      "inputs": [],
      "name": "owner",
      "outputs": [
        {
          "internalType": "address",
          "name": "",
          "type": "address"
        }
      ],
      "stateMutability": "view",
      "type": "function"
    },
    {
      "inputs": [
        {
          "internalType": "uint256",
          "name": "tokenId",
          "type": "uint256"
        }
      ],
      "name": "ownerOf",
      "outputs": [
        {
          "internalType": "address",
          "name": "",
          "type": "address"
        }
      ],
      "stateMutability": "view",
      "type": "function"
    },
    {
      "inputs": [],
      "name": "renounceOwnership",
      "outputs": [],
      "stateMutability": "nonpayable",
      "type": "function"
    },
    {
      "inputs": [
        {
          "internalType": "bytes32",
          "name": "role",
          "type": "bytes32"
        },
        {
          "internalType": "address",
          "name": "account",
          "type": "address"
        }
      ],
      "name": "renounceRole",
      "outputs": [],
      "stateMutability": "nonpayable",
      "type": "function"
    },
    {
      "inputs": [
        {
          "internalType": "bytes32",
          "name": "role",
          "type": "bytes32"
        },
        {
          "internalType": "address",
          "name": "account",
          "type": "address"
        }
      ],
      "name": "revokeRole",
      "outputs": [],
      "stateMutability": "nonpayable",
      "type": "function"
    },
    {
      "inputs": [
        {
          "internalType": "address",
          "name": "from",
          "type": "address"
        },
        {
          "internalType": "address",
          "name": "to",
          "type": "address"
        },
        {
          "internalType": "uint256",
          "name": "tokenId",
          "type": "uint256"
        }
      ],
      "name": "safeTransferFrom",
      "outputs": [],
      "stateMutability": "nonpayable",
      "type": "function"
    },
    {
      "inputs": [
        {
          "internalType": "address",
          "name": "from",
          "type": "address"
        },
        {
          "internalType": "address",
          "name": "to",
          "type": "address"
        },
        {
          "internalType": "uint256",
          "name": "tokenId",
          "type": "uint256"
        },
        {
          "internalType": "bytes",
          "name": "_data",
          "type": "bytes"
        }
      ],
      "name": "safeTransferFrom",
      "outputs": [],
      "stateMutability": "nonpayable",
      "type": "function"
    },
    {
      "inputs": [
        {
          "internalType": "address",
          "name": "operator",
          "type": "address"
        },
        {
          "internalType": "bool",
          "name": "approved",
          "type": "bool"
        }
      ],
      "name": "setApprovalForAll",
      "outputs": [],
      "stateMutability": "nonpayable",
      "type": "function"
    },
    {
      "inputs": [],
      "name": "symbol",
      "outputs": [
        {
          "internalType": "string",
          "name": "",
          "type": "string"
        }
      ],
      "stateMutability": "view",
      "type": "function"
    },
    {
      "inputs": [
        {
          "internalType": "uint256",
          "name": "index",
          "type": "uint256"
        }
      ],
      "name": "tokenByIndex",
      "outputs": [
        {
          "internalType": "uint256",
          "name": "",
          "type": "uint256"
        }
      ],
      "stateMutability": "view",
      "type": "function"
    },
    {
      "inputs": [
        {
          "internalType": "address",
          "name": "owner",
          "type": "address"
        },
        {
          "internalType": "uint256",
          "name": "index",
          "type": "uint256"
        }
      ],
      "name": "tokenOfOwnerByIndex",
      "outputs": [
        {
          "internalType": "uint256",
          "name": "",
          "type": "uint256"
        }
      ],
      "stateMutability": "view",
      "type": "function"
    },
    {
      "inputs": [],
      "name": "totalSupply",
      "outputs": [
        {
          "internalType": "uint256",
          "name": "",
          "type": "uint256"
        }
      ],
      "stateMutability": "view",
      "type": "function"
    },
    {
      "inputs": [
        {
          "internalType": "address",
          "name": "from",
          "type": "address"
        },
        {
          "internalType": "address",
          "name": "to",
          "type": "address"
        },
        {
          "internalType": "uint256",
          "name": "tokenId",
          "type": "uint256"
        }
      ],
      "name": "transferFrom",
      "outputs": [],
      "stateMutability": "nonpayable",
      "type": "function"
    },
    {
      "inputs": [
        {
          "internalType": "address",
          "name": "newOwner",
          "type": "address"
        }
      ],
      "name": "transferOwnership",
      "outputs": [],
      "stateMutability": "nonpayable",
      "type": "function"
    },
    {
      "inputs": [
        {
          "internalType": "string",
          "name": "_name",
          "type": "string"
        },
        {
          "internalType": "string",
          "name": "_symbol",
          "type": "string"
        },
        {
          "internalType": "string",
          "name": "_baseTokenURI",
          "type": "string"
        }
      ],
      "name": "initialize",
      "outputs": [],
      "stateMutability": "nonpayable",
      "type": "function"
    },
    {
      "inputs": [
        {
          "internalType": "string",
          "name": "baseURI_",
          "type": "string"
        }
      ],
      "name": "setBaseURI",
      "outputs": [],
      "stateMutability": "nonpayable",
      "type": "function"
    },
    {
      "inputs": [
        {
          "internalType": "uint256",
          "name": "tokenId",
          "type": "uint256"
        }
      ],
      "name": "tokenURI",
      "outputs": [
        {
          "internalType": "string",
          "name": "",
          "type": "string"
        }
      ],
      "stateMutability": "view",
      "type": "function"
    },
    {
      "inputs": [
        {
          "internalType": "bytes4",
          "name": "interfaceId",
          "type": "bytes4"
        }
      ],
      "name": "supportsInterface",
      "outputs": [
        {
          "internalType": "bool",
          "name": "",
          "type": "bool"
        }
      ],
      "stateMutability": "view",
      "type": "function"
    }
  ],
  "bytecode": "0x608060405234801561001057600080fd5b5061467c806100206000396000f3fe608060405234801561001057600080fd5b506004361061020d576000357c01000000000000000000000000000000000000000000000000000000009004806370a082311161012c578063a6487c53116100bf578063d547741f1161008e578063d547741f146105d6578063d547cfb7146105f2578063e985e9c514610610578063f2fde38b146106405761020d565b8063a6487c5314610550578063b88d4fde1461056c578063c87b56dd14610588578063d5391393146105b85761020d565b806391d14854116100fb57806391d14854146104c857806395d89b41146104f8578063a217fddf14610516578063a22cb465146105345761020d565b806370a0823114610452578063715018a6146104825780638d859f3e1461048c5780638da5cb5b146104aa5761020d565b80632f2ff15d116101a457806342842e0e1161017357806342842e0e146103ba5780634f6ccce7146103d657806355f804b3146104065780636352211e146104225761020d565b80632f2ff15d146103345780632f745c591461035057806332cb6b0c1461038057806336568abe1461039e5761020d565b806309d42b30116101e057806309d42b30146102ac57806318160ddd146102ca57806323b872dd146102e8578063248a9ca3146103045761020d565b806301ffc9a71461021257806306fdde0314610242578063081812fc14610260578063095ea7b314610290575b600080fd5b61022c60048036038101906102279190612f42565b61065c565b6040516102399190612f8a565b60405180910390f35b61024a61066e565b604051610257919061303e565b60405180910390f35b61027a60048036038101906102759190613096565b610700565b6040516102879190613104565b60405180910390f35b6102aa60048036038101906102a5919061314b565b610785565b005b6102b461089d565b6040516102c1919061319a565b60405180910390f35b6102d26108a2565b6040516102df919061319a565b60405180910390f35b61030260048036038101906102fd91906131b5565b6108af565b005b61031e6004803603810190610319919061323e565b61090f565b60405161032b919061327a565b60405180910390f35b61034e60048036038101906103499190613295565b61092f565b005b61036a6004803603810190610365919061314b565b610958565b604051610377919061319a565b60405180910390f35b6103886109fd565b604051610395919061319a565b60405180910390f35b6103b860048036038101906103b39190613295565b610a03565b005b6103d460048036038101906103cf91906131b5565b610a86565b005b6103f060048036038101906103eb9190613096565b610aa6565b6040516103fd919061319a565b60405180910390f35b610420600480360381019061041b919061340a565b610b17565b005b61043c60048036038101906104379190613096565b610bae565b6040516104499190613104565b60405180910390f35b61046c60048036038101906104679190613453565b610c60565b604051610479919061319a565b60405180910390f35b61048a610d18565b005b610494610da0565b6040516104a1919061319a565b60405180910390f35b6104b2610daa565b6040516104bf9190613104565b60405180910390f35b6104e260048036038101906104dd9190613295565b610dd5565b6040516104ef9190612f8a565b60405180910390f35b610500610e40565b60405161050d919061303e565b60405180910390f35b61051e610ed2565b60405161052b919061327a565b60405180910390f35b61054e600480360381019061054991906134ac565b610eda565b005b61056a600480360381019061056591906134ec565b610ef0565b005b61058660048036038101906105819190613634565b611034565b005b6105a2600480360381019061059d9190613096565b611096565b6040516105af919061303e565b60405180910390f35b6105c061120a565b6040516105cd919061327a565b60405180910390f35b6105f060048036038101906105eb9190613295565b61122e565b005b6105fa611257565b604051610607919061303e565b60405180910390f35b61062a600480360381019061062591906136b7565b6112e6565b6040516106379190612f8a565b60405180910390f35b61065a60048036038101906106559190613453565b61137a565b005b600061066782611472565b9050919050565b60606065805461067d90613726565b80601f01602080910402602001604051908101604052809291908181526020018280546106a990613726565b80156106f65780601f106106cb576101008083540402835291602001916106f6565b820191906000526020600020905b8154815290600101906020018083116106d957829003601f168201915b5050505050905090565b600061070b826114ec565b61074a576040517f08c379a0000000000000000000000000000000000000000000000000000000008152600401610741906137ca565b60405180910390fd5b6069600083815260200190815260200160002060009054906101000a900473ffffffffffffffffffffffffffffffffffffffff169050919050565b600061079082610bae565b90508073ffffffffffffffffffffffffffffffffffffffff168373ffffffffffffffffffffffffffffffffffffffff161415610801576040517f08c379a00000000000000000000000000000000000000000000000000000000081526004016107f89061385c565b60405180910390fd5b8073ffffffffffffffffffffffffffffffffffffffff16610820611558565b73ffffffffffffffffffffffffffffffffffffffff16148061084f575061084e81610849611558565b6112e6565b5b61088e576040517f08c379a0000000000000000000000000000000000000000000000000000000008152600401610885906138ee565b60405180910390fd5b6108988383611560565b505050565b606481565b600060fd80549050905090565b6108c06108ba611558565b82611619565b6108ff576040517f08c379a00000000000000000000000000000000000000000000000000000000081526004016108f690613980565b60405180910390fd5b61090a8383836116f7565b505050565b600060c96000838152602001908152602001600020600101549050919050565b6109388261090f565b61094981610944611558565b611953565b61095383836119f1565b505050565b600061096383610c60565b82106109a4576040517f08c379a000000000000000000000000000000000000000000000000000000000815260040161099b90613a12565b60405180910390fd5b60fb60008473ffffffffffffffffffffffffffffffffffffffff1673ffffffffffffffffffffffffffffffffffffffff168152602001908152602001600020600083815260200190815260200160002054905092915050565b61c35081565b610a0b611558565b73ffffffffffffffffffffffffffffffffffffffff168173ffffffffffffffffffffffffffffffffffffffff1614610a78576040517f08c379a0000000000000000000000000000000000000000000000000000000008152600401610a6f90613aa4565b60405180910390fd5b610a828282611ad2565b5050565b610aa183838360405180602001604052806000815250611034565b505050565b6000610ab06108a2565b8210610af1576040517f08c379a0000000000000000000000000000000000000000000000000000000008152600401610ae890613b36565b60405180910390fd5b60fd8281548110610b0557610b04613b56565b5b90600052602060002001549050919050565b610b1f611558565b73ffffffffffffffffffffffffffffffffffffffff16610b3d610daa565b73ffffffffffffffffffffffffffffffffffffffff1614610b93576040517f08c379a0000000000000000000000000000000000000000000000000000000008152600401610b8a90613bd1565b60405180910390fd5b806101619080519060200190610baa929190612e33565b5050565b6000806067600084815260200190815260200160002060009054906101000a900473ffffffffffffffffffffffffffffffffffffffff169050600073ffffffffffffffffffffffffffffffffffffffff168173ffffffffffffffffffffffffffffffffffffffff161415610c57576040517f08c379a0000000000000000000000000000000000000000000000000000000008152600401610c4e90613c63565b60405180910390fd5b80915050919050565b60008073ffffffffffffffffffffffffffffffffffffffff168273ffffffffffffffffffffffffffffffffffffffff161415610cd1576040517f08c379a0000000000000000000000000000000000000000000000000000000008152600401610cc890613cf5565b60405180910390fd5b606860008373ffffffffffffffffffffffffffffffffffffffff1673ffffffffffffffffffffffffffffffffffffffff168152602001908152602001600020549050919050565b610d20611558565b73ffffffffffffffffffffffffffffffffffffffff16610d3e610daa565b73ffffffffffffffffffffffffffffffffffffffff1614610d94576040517f08c379a0000000000000000000000000000000000000000000000000000000008152600401610d8b90613bd1565b60405180910390fd5b610d9e6000611bb4565b565b655af3107a400081565b600061012d60009054906101000a900473ffffffffffffffffffffffffffffffffffffffff16905090565b600060c9600084815260200190815260200160002060000160008373ffffffffffffffffffffffffffffffffffffffff1673ffffffffffffffffffffffffffffffffffffffff16815260200190815260200160002060009054906101000a900460ff16905092915050565b606060668054610e4f90613726565b80601f0160208091040260200160405190810160405280929190818152602001828054610e7b90613726565b8015610ec85780601f10610e9d57610100808354040283529160200191610ec8565b820191906000526020600020905b815481529060010190602001808311610eab57829003601f168201915b5050505050905090565b600060010281565b610eec610ee5611558565b8383611c7c565b5050565b600060019054906101000a900460ff1680610f16575060008054906101000a900460ff16155b610f55576040517f08c379a0000000000000000000000000000000000000000000000000000000008152600401610f4c90613d87565b60405180910390fd5b60008060019054906101000a900460ff161590508015610fa5576001600060016101000a81548160ff02191690831515021790555060016000806101000a81548160ff0219169083151502179055505b610faf8484611de9565b816101609080519060200190610fc6929190612e33565b50610fdc6000600102610fd7610daa565b6119f1565b61100d7f9f2df0fed2c77648de5860a4cc508cd0818c85b8b8a1ab4ceeef8d981c8956a6611008610daa565b6119f1565b801561102e5760008060016101000a81548160ff0219169083151502179055505b50505050565b61104561103f611558565b83611619565b611084576040517f08c379a000000000000000000000000000000000000000000000000000000000815260040161107b90613980565b60405180910390fd5b61109084848484611ede565b50505050565b60606110a1826114ec565b6110e0576040517f08c379a00000000000000000000000000000000000000000000000000000000081526004016110d790613e19565b60405180910390fd5b600061015f6000848152602001908152602001600020805461110190613726565b80601f016020809104026020016040519081016040528092919081815260200182805461112d90613726565b801561117a5780601f1061114f5761010080835404028352916020019161117a565b820191906000526020600020905b81548152906001019060200180831161115d57829003601f168201915b50505050509050600061118b611f3a565b90506000815114156111a1578192505050611205565b6000825111156111d65780826040516020016111be929190613e75565b60405160208183030381529060405292505050611205565b806111e085611fcd565b6040516020016111f1929190613e75565b604051602081830303815290604052925050505b919050565b7f9f2df0fed2c77648de5860a4cc508cd0818c85b8b8a1ab4ceeef8d981c8956a681565b6112378261090f565b61124881611243611558565b611953565b6112528383611ad2565b505050565b610160805461126590613726565b80601f016020809104026020016040519081016040528092919081815260200182805461129190613726565b80156112de5780601f106112b3576101008083540402835291602001916112de565b820191906000526020600020905b8154815290600101906020018083116112c157829003601f168201915b505050505081565b6000606a60008473ffffffffffffffffffffffffffffffffffffffff1673ffffffffffffffffffffffffffffffffffffffff16815260200190815260200160002060008373ffffffffffffffffffffffffffffffffffffffff1673ffffffffffffffffffffffffffffffffffffffff16815260200190815260200160002060009054906101000a900460ff16905092915050565b611382611558565b73ffffffffffffffffffffffffffffffffffffffff166113a0610daa565b73ffffffffffffffffffffffffffffffffffffffff16146113f6576040517f08c379a00000000000000000000000000000000000000000000000000000000081526004016113ed90613bd1565b60405180910390fd5b600073ffffffffffffffffffffffffffffffffffffffff168173ffffffffffffffffffffffffffffffffffffffff161415611466576040517f08c379a000000000000000000000000000000000000000000000000000000000815260040161145d90613f0b565b60405180910390fd5b61146f81611bb4565b50565b60007f780e9d63000000000000000000000000000000000000000000000000000000007bffffffffffffffffffffffffffffffffffffffffffffffffffffffff1916827bffffffffffffffffffffffffffffffffffffffffffffffffffffffff191614806114e557506114e48261214d565b5b9050919050565b60008073ffffffffffffffffffffffffffffffffffffffff166067600084815260200190815260200160002060009054906101000a900473ffffffffffffffffffffffffffffffffffffffff1673ffffffffffffffffffffffffffffffffffffffff1614159050919050565b600033905090565b816069600083815260200190815260200160002060006101000a81548173ffffffffffffffffffffffffffffffffffffffff021916908373ffffffffffffffffffffffffffffffffffffffff160217905550808273ffffffffffffffffffffffffffffffffffffffff166115d383610bae565b73ffffffffffffffffffffffffffffffffffffffff167f8c5be1e5ebec7d5bd14f71427d1e84f3dd0314c0f7b2291e5b200ac8c7c3b92560405160405180910390a45050565b6000611624826114ec565b611663576040517f08c379a000000000000000000000000000000000000000000000000000000000815260040161165a90613f9d565b60405180910390fd5b600061166e83610bae565b90508073ffffffffffffffffffffffffffffffffffffffff168473ffffffffffffffffffffffffffffffffffffffff1614806116dd57508373ffffffffffffffffffffffffffffffffffffffff166116c584610700565b73ffffffffffffffffffffffffffffffffffffffff16145b806116ee57506116ed81856112e6565b5b91505092915050565b8273ffffffffffffffffffffffffffffffffffffffff1661171782610bae565b73ffffffffffffffffffffffffffffffffffffffff161461176d576040517f08c379a00000000000000000000000000000000000000000000000000000000081526004016117649061402f565b60405180910390fd5b600073ffffffffffffffffffffffffffffffffffffffff168273ffffffffffffffffffffffffffffffffffffffff1614156117dd576040517f08c379a00000000000000000000000000000000000000000000000000000000081526004016117d4906140c1565b60405180910390fd5b6117e88383836121c7565b6117f3600082611560565b6001606860008573ffffffffffffffffffffffffffffffffffffffff1673ffffffffffffffffffffffffffffffffffffffff16815260200190815260200160002060008282546118439190614110565b925050819055506001606860008473ffffffffffffffffffffffffffffffffffffffff1673ffffffffffffffffffffffffffffffffffffffff168152602001908152602001600020600082825461189a9190614144565b92505081905550816067600083815260200190815260200160002060006101000a81548173ffffffffffffffffffffffffffffffffffffffff021916908373ffffffffffffffffffffffffffffffffffffffff160217905550808273ffffffffffffffffffffffffffffffffffffffff168473ffffffffffffffffffffffffffffffffffffffff167fddf252ad1be2c89b69c2b068fc378daa952ba7f163c4a11628f55a4df523b3ef60405160405180910390a4505050565b61195d8282610dd5565b6119ed576119828173ffffffffffffffffffffffffffffffffffffffff1660146121d7565b611991836001900460206121d7565b6040516020016119a2929190614232565b6040516020818303038152906040526040517f08c379a00000000000000000000000000000000000000000000000000000000081526004016119e4919061303e565b60405180910390fd5b5050565b6119fb8282610dd5565b611ace57600160c9600084815260200190815260200160002060000160008373ffffffffffffffffffffffffffffffffffffffff1673ffffffffffffffffffffffffffffffffffffffff16815260200190815260200160002060006101000a81548160ff021916908315150217905550611a73611558565b73ffffffffffffffffffffffffffffffffffffffff168173ffffffffffffffffffffffffffffffffffffffff16837f2f8788117e7eff1d82e926ec794901d17c78024a50270940304540a733656f0d60405160405180910390a45b5050565b611adc8282610dd5565b15611bb057600060c9600084815260200190815260200160002060000160008373ffffffffffffffffffffffffffffffffffffffff1673ffffffffffffffffffffffffffffffffffffffff16815260200190815260200160002060006101000a81548160ff021916908315150217905550611b55611558565b73ffffffffffffffffffffffffffffffffffffffff168173ffffffffffffffffffffffffffffffffffffffff16837ff6391f5c32d9c69d2a47ea670b442974b53935d1edc7fd64eb21e047a839171b60405160405180910390a45b5050565b600061012d60009054906101000a900473ffffffffffffffffffffffffffffffffffffffff1690508161012d60006101000a81548173ffffffffffffffffffffffffffffffffffffffff021916908373ffffffffffffffffffffffffffffffffffffffff1602179055508173ffffffffffffffffffffffffffffffffffffffff168173ffffffffffffffffffffffffffffffffffffffff167f8be0079c531659141344cd1fd0a4f28419497f9722a3daafe3b4186f6b6457e060405160405180910390a35050565b8173ffffffffffffffffffffffffffffffffffffffff168373ffffffffffffffffffffffffffffffffffffffff161415611ceb576040517f08c379a0000000000000000000000000000000000000000000000000000000008152600401611ce2906142b8565b60405180910390fd5b80606a60008573ffffffffffffffffffffffffffffffffffffffff1673ffffffffffffffffffffffffffffffffffffffff16815260200190815260200160002060008473ffffffffffffffffffffffffffffffffffffffff1673ffffffffffffffffffffffffffffffffffffffff16815260200190815260200160002060006101000a81548160ff0219169083151502179055508173ffffffffffffffffffffffffffffffffffffffff168373ffffffffffffffffffffffffffffffffffffffff167f17307eab39ab6107e8899845ad3d59bd9653f200f220920489ca2b5937696c3183604051611ddc9190612f8a565b60405180910390a3505050565b600060019054906101000a900460ff1680611e0f575060008054906101000a900460ff16155b611e4e576040517f08c379a0000000000000000000000000000000000000000000000000000000008152600401611e4590613d87565b60405180910390fd5b60008060019054906101000a900460ff161590508015611e9e576001600060016101000a81548160ff02191690831515021790555060016000806101000a81548160ff0219169083151502179055505b611ea661243a565b611eae612513565b611eb883836125ec565b8015611ed95760008060016101000a81548160ff0219169083151502179055505b505050565b611ee98484846116f7565b611ef5848484846126f5565b611f34576040517f08c379a0000000000000000000000000000000000000000000000000000000008152600401611f2b9061434a565b60405180910390fd5b50505050565b60606101618054611f4a90613726565b80601f0160208091040260200160405190810160405280929190818152602001828054611f7690613726565b8015611fc35780601f10611f9857610100808354040283529160200191611fc3565b820191906000526020600020905b815481529060010190602001808311611fa657829003601f168201915b5050505050905090565b60606000821415612015576040518060400160405280600181526020017f30000000000000000000000000000000000000000000000000000000000000008152509050612148565b600082905060005b600082146120475780806120309061436a565b915050600a8261204091906143e2565b915061201d565b60008167ffffffffffffffff811115612063576120626132df565b5b6040519080825280601f01601f1916602001820160405280156120955781602001600182028036833780820191505090505b5090505b60008514612141576001826120ae9190614110565b9150600a856120bd9190614413565b60306120c99190614144565b7f0100000000000000000000000000000000000000000000000000000000000000028183815181106120fe576120fd613b56565b5b60200101907effffffffffffffffffffffffffffffffffffffffffffffffffffffffffffff1916908160001a905350600a8561213a91906143e2565b9450612099565b8093505050505b919050565b60007f7965db0b000000000000000000000000000000000000000000000000000000007bffffffffffffffffffffffffffffffffffffffffffffffffffffffff1916827bffffffffffffffffffffffffffffffffffffffffffffffffffffffff191614806121c057506121bf826128b5565b5b9050919050565b6121d2838383612997565b505050565b6060600060028360026121ea9190614444565b6121f49190614144565b67ffffffffffffffff81111561220d5761220c6132df565b5b6040519080825280601f01601f19166020018201604052801561223f5781602001600182028036833780820191505090505b5090507f30000000000000000000000000000000000000000000000000000000000000008160008151811061227757612276613b56565b5b60200101907effffffffffffffffffffffffffffffffffffffffffffffffffffffffffffff1916908160001a9053507f7800000000000000000000000000000000000000000000000000000000000000816001815181106122db576122da613b56565b5b60200101907effffffffffffffffffffffffffffffffffffffffffffffffffffffffffffff1916908160001a9053506000600184600261231b9190614444565b6123259190614144565b90505b60018111156123ec577f3031323334353637383961626364656600000000000000000000000000000000600f86166010811061236757612366613b56565b5b1a7f01000000000000000000000000000000000000000000000000000000000000000282828151811061239d5761239c613b56565b5b60200101907effffffffffffffffffffffffffffffffffffffffffffffffffffffffffffff1916908160001a905350600485908060020a82049150509450806123e59061449e565b9050612328565b5060008414612430576040517f08c379a000000000000000000000000000000000000000000000000000000000815260040161242790614514565b60405180910390fd5b8091505092915050565b600060019054906101000a900460ff1680612460575060008054906101000a900460ff16155b61249f576040517f08c379a000000000000000000000000000000000000000000000000000000000815260040161249690613d87565b60405180910390fd5b60008060019054906101000a900460ff1615905080156124ef576001600060016101000a81548160ff02191690831515021790555060016000806101000a81548160ff0219169083151502179055505b80156125105760008060016101000a81548160ff0219169083151502179055505b50565b600060019054906101000a900460ff1680612539575060008054906101000a900460ff16155b612578576040517f08c379a000000000000000000000000000000000000000000000000000000000815260040161256f90613d87565b60405180910390fd5b60008060019054906101000a900460ff1615905080156125c8576001600060016101000a81548160ff02191690831515021790555060016000806101000a81548160ff0219169083151502179055505b80156125e95760008060016101000a81548160ff0219169083151502179055505b50565b600060019054906101000a900460ff1680612612575060008054906101000a900460ff16155b612651576040517f08c379a000000000000000000000000000000000000000000000000000000000815260040161264890613d87565b60405180910390fd5b60008060019054906101000a900460ff1615905080156126a1576001600060016101000a81548160ff02191690831515021790555060016000806101000a81548160ff0219169083151502179055505b82606590805190602001906126b7929190612e33565b5081606690805190602001906126ce929190612e33565b5080156126f05760008060016101000a81548160ff0219169083151502179055505b505050565b60006127168473ffffffffffffffffffffffffffffffffffffffff16612aab565b156128a8578373ffffffffffffffffffffffffffffffffffffffff1663150b7a0261273f611558565b8786866040518563ffffffff167c010000000000000000000000000000000000000000000000000000000002815260040161277d9493929190614589565b6020604051808303816000875af19250505080156127b957506040513d601f19601f820116820180604052508101906127b691906145ea565b60015b61283c573d80600081146127e9576040519150601f19603f3d011682016040523d82523d6000602084013e6127ee565b606091505b50600081511415612834576040517f08c379a000000000000000000000000000000000000000000000000000000000815260040161282b9061434a565b60405180910390fd5b805181602001fd5b63150b7a027c0100000000000000000000000000000000000000000000000000000000027bffffffffffffffffffffffffffffffffffffffffffffffffffffffff1916817bffffffffffffffffffffffffffffffffffffffffffffffffffffffff1916149150506128ad565b600190505b949350505050565b60007f80ac58cd000000000000000000000000000000000000000000000000000000007bffffffffffffffffffffffffffffffffffffffffffffffffffffffff1916827bffffffffffffffffffffffffffffffffffffffffffffffffffffffff1916148061298057507f5b5e139f000000000000000000000000000000000000000000000000000000007bffffffffffffffffffffffffffffffffffffffffffffffffffffffff1916827bffffffffffffffffffffffffffffffffffffffffffffffffffffffff1916145b80612990575061298f82612abe565b5b9050919050565b6129a2838383612b28565b600073ffffffffffffffffffffffffffffffffffffffff168373ffffffffffffffffffffffffffffffffffffffff1614156129e5576129e081612b2d565b612a24565b8173ffffffffffffffffffffffffffffffffffffffff168373ffffffffffffffffffffffffffffffffffffffff1614612a2357612a228382612b76565b5b5b600073ffffffffffffffffffffffffffffffffffffffff168273ffffffffffffffffffffffffffffffffffffffff161415612a6757612a6281612ce3565b612aa6565b8273ffffffffffffffffffffffffffffffffffffffff168273ffffffffffffffffffffffffffffffffffffffff1614612aa557612aa48282612db4565b5b5b505050565b600080823b905060008111915050919050565b60007f01ffc9a7000000000000000000000000000000000000000000000000000000007bffffffffffffffffffffffffffffffffffffffffffffffffffffffff1916827bffffffffffffffffffffffffffffffffffffffffffffffffffffffff1916149050919050565b505050565b60fd8054905060fe60008381526020019081526020016000208190555060fd81908060018154018082558091505060019003906000526020600020016000909190919091505550565b60006001612b8384610c60565b612b8d9190614110565b9050600060fc6000848152602001908152602001600020549050818114612c7257600060fb60008673ffffffffffffffffffffffffffffffffffffffff1673ffffffffffffffffffffffffffffffffffffffff16815260200190815260200160002060008481526020019081526020016000205490508060fb60008773ffffffffffffffffffffffffffffffffffffffff1673ffffffffffffffffffffffffffffffffffffffff1681526020019081526020016000206000848152602001908152602001600020819055508160fc600083815260200190815260200160002081905550505b60fc60008481526020019081526020016000206000905560fb60008573ffffffffffffffffffffffffffffffffffffffff1673ffffffffffffffffffffffffffffffffffffffff16815260200190815260200160002060008381526020019081526020016000206000905550505050565b6000600160fd80549050612cf79190614110565b9050600060fe6000848152602001908152602001600020549050600060fd8381548110612d2757612d26613b56565b5b906000526020600020015490508060fd8381548110612d4957612d48613b56565b5b90600052602060002001819055508160fe60008381526020019081526020016000208190555060fe60008581526020019081526020016000206000905560fd805480612d9857612d97614617565b5b6001900381819060005260206000200160009055905550505050565b6000612dbf83610c60565b90508160fb60008573ffffffffffffffffffffffffffffffffffffffff1673ffffffffffffffffffffffffffffffffffffffff1681526020019081526020016000206000838152602001908152602001600020819055508060fc600084815260200190815260200160002081905550505050565b828054612e3f90613726565b90600052602060002090601f016020900481019282612e615760008555612ea8565b82601f10612e7a57805160ff1916838001178555612ea8565b82800160010185558215612ea8579182015b82811115612ea7578251825591602001919060010190612e8c565b5b509050612eb59190612eb9565b5090565b5b80821115612ed2576000816000905550600101612eba565b5090565b6000604051905090565b600080fd5b600080fd5b60007fffffffff0000000000000000000000000000000000000000000000000000000082169050919050565b612f1f81612eea565b8114612f2a57600080fd5b50565b600081359050612f3c81612f16565b92915050565b600060208284031215612f5857612f57612ee0565b5b6000612f6684828501612f2d565b91505092915050565b60008115159050919050565b612f8481612f6f565b82525050565b6000602082019050612f9f6000830184612f7b565b92915050565b600081519050919050565b600082825260208201905092915050565b60005b83811015612fdf578082015181840152602081019050612fc4565b83811115612fee576000848401525b50505050565b6000601f19601f8301169050919050565b600061301082612fa5565b61301a8185612fb0565b935061302a818560208601612fc1565b61303381612ff4565b840191505092915050565b600060208201905081810360008301526130588184613005565b905092915050565b6000819050919050565b61307381613060565b811461307e57600080fd5b50565b6000813590506130908161306a565b92915050565b6000602082840312156130ac576130ab612ee0565b5b60006130ba84828501613081565b91505092915050565b600073ffffffffffffffffffffffffffffffffffffffff82169050919050565b60006130ee826130c3565b9050919050565b6130fe816130e3565b82525050565b600060208201905061311960008301846130f5565b92915050565b613128816130e3565b811461313357600080fd5b50565b6000813590506131458161311f565b92915050565b6000806040838503121561316257613161612ee0565b5b600061317085828601613136565b925050602061318185828601613081565b9150509250929050565b61319481613060565b82525050565b60006020820190506131af600083018461318b565b92915050565b6000806000606084860312156131ce576131cd612ee0565b5b60006131dc86828701613136565b93505060206131ed86828701613136565b92505060406131fe86828701613081565b9150509250925092565b6000819050919050565b61321b81613208565b811461322657600080fd5b50565b60008135905061323881613212565b92915050565b60006020828403121561325457613253612ee0565b5b600061326284828501613229565b91505092915050565b61327481613208565b82525050565b600060208201905061328f600083018461326b565b92915050565b600080604083850312156132ac576132ab612ee0565b5b60006132ba85828601613229565b92505060206132cb85828601613136565b9150509250929050565b600080fd5b600080fd5b7f4e487b7100000000000000000000000000000000000000000000000000000000600052604160045260246000fd5b61331782612ff4565b810181811067ffffffffffffffff82111715613336576133356132df565b5b80604052505050565b6000613349612ed6565b9050613355828261330e565b919050565b600067ffffffffffffffff821115613375576133746132df565b5b61337e82612ff4565b9050602081019050919050565b82818337600083830152505050565b60006133ad6133a88461335a565b61333f565b9050828152602081018484840111156133c9576133c86132da565b5b6133d484828561338b565b509392505050565b600082601f8301126133f1576133f06132d5565b5b813561340184826020860161339a565b91505092915050565b6000602082840312156134205761341f612ee0565b5b600082013567ffffffffffffffff81111561343e5761343d612ee5565b5b61344a848285016133dc565b91505092915050565b60006020828403121561346957613468612ee0565b5b600061347784828501613136565b91505092915050565b61348981612f6f565b811461349457600080fd5b50565b6000813590506134a681613480565b92915050565b600080604083850312156134c3576134c2612ee0565b5b60006134d185828601613136565b92505060206134e285828601613497565b9150509250929050565b60008060006060848603121561350557613504612ee0565b5b600084013567ffffffffffffffff81111561352357613522612ee5565b5b61352f868287016133dc565b935050602084013567ffffffffffffffff8111156135505761354f612ee5565b5b61355c868287016133dc565b925050604084013567ffffffffffffffff81111561357d5761357c612ee5565b5b613589868287016133dc565b9150509250925092565b600067ffffffffffffffff8211156135ae576135ad6132df565b5b6135b782612ff4565b9050602081019050919050565b60006135d76135d284613593565b61333f565b9050828152602081018484840111156135f3576135f26132da565b5b6135fe84828561338b565b509392505050565b600082601f83011261361b5761361a6132d5565b5b813561362b8482602086016135c4565b91505092915050565b6000806000806080858703121561364e5761364d612ee0565b5b600061365c87828801613136565b945050602061366d87828801613136565b935050604061367e87828801613081565b925050606085013567ffffffffffffffff81111561369f5761369e612ee5565b5b6136ab87828801613606565b91505092959194509250565b600080604083850312156136ce576136cd612ee0565b5b60006136dc85828601613136565b92505060206136ed85828601613136565b9150509250929050565b7f4e487b7100000000000000000000000000000000000000000000000000000000600052602260045260246000fd5b6000600282049050600182168061373e57607f821691505b60208210811415613752576137516136f7565b5b50919050565b7f4552433732313a20617070726f76656420717565727920666f72206e6f6e657860008201527f697374656e7420746f6b656e0000000000000000000000000000000000000000602082015250565b60006137b4602c83612fb0565b91506137bf82613758565b604082019050919050565b600060208201905081810360008301526137e3816137a7565b9050919050565b7f4552433732313a20617070726f76616c20746f2063757272656e74206f776e6560008201527f7200000000000000000000000000000000000000000000000000000000000000602082015250565b6000613846602183612fb0565b9150613851826137ea565b604082019050919050565b6000602082019050818103600083015261387581613839565b9050919050565b7f4552433732313a20617070726f76652063616c6c6572206973206e6f74206f7760008201527f6e6572206e6f7220617070726f76656420666f7220616c6c0000000000000000602082015250565b60006138d8603883612fb0565b91506138e38261387c565b604082019050919050565b60006020820190508181036000830152613907816138cb565b9050919050565b7f4552433732313a207472616e736665722063616c6c6572206973206e6f74206f60008201527f776e6572206e6f7220617070726f766564000000000000000000000000000000602082015250565b600061396a603183612fb0565b91506139758261390e565b604082019050919050565b600060208201905081810360008301526139998161395d565b9050919050565b7f455243373231456e756d657261626c653a206f776e657220696e646578206f7560008201527f74206f6620626f756e6473000000000000000000000000000000000000000000602082015250565b60006139fc602b83612fb0565b9150613a07826139a0565b604082019050919050565b60006020820190508181036000830152613a2b816139ef565b9050919050565b7f416363657373436f6e74726f6c3a2063616e206f6e6c792072656e6f756e636560008201527f20726f6c657320666f722073656c660000000000000000000000000000000000602082015250565b6000613a8e602f83612fb0565b9150613a9982613a32565b604082019050919050565b60006020820190508181036000830152613abd81613a81565b9050919050565b7f455243373231456e756d657261626c653a20676c6f62616c20696e646578206f60008201527f7574206f6620626f756e64730000000000000000000000000000000000000000602082015250565b6000613b20602c83612fb0565b9150613b2b82613ac4565b604082019050919050565b60006020820190508181036000830152613b4f81613b13565b9050919050565b7f4e487b7100000000000000000000000000000000000000000000000000000000600052603260045260246000fd5b7f4f776e61626c653a2063616c6c6572206973206e6f7420746865206f776e6572600082015250565b6000613bbb602083612fb0565b9150613bc682613b85565b602082019050919050565b60006020820190508181036000830152613bea81613bae565b9050919050565b7f4552433732313a206f776e657220717565727920666f72206e6f6e657869737460008201527f656e7420746f6b656e0000000000000000000000000000000000000000000000602082015250565b6000613c4d602983612fb0565b9150613c5882613bf1565b604082019050919050565b60006020820190508181036000830152613c7c81613c40565b9050919050565b7f4552433732313a2062616c616e636520717565727920666f7220746865207a6560008201527f726f206164647265737300000000000000000000000000000000000000000000602082015250565b6000613cdf602a83612fb0565b9150613cea82613c83565b604082019050919050565b60006020820190508181036000830152613d0e81613cd2565b9050919050565b7f496e697469616c697a61626c653a20636f6e747261637420697320616c72656160008201527f647920696e697469616c697a6564000000000000000000000000000000000000602082015250565b6000613d71602e83612fb0565b9150613d7c82613d15565b604082019050919050565b60006020820190508181036000830152613da081613d64565b9050919050565b7f4552433732314d657461646174613a2055524920717565727920666f72206e6f60008201527f6e6578697374656e7420746f6b656e0000000000000000000000000000000000602082015250565b6000613e03602f83612fb0565b9150613e0e82613da7565b604082019050919050565b60006020820190508181036000830152613e3281613df6565b9050919050565b600081905092915050565b6000613e4f82612fa5565b613e598185613e39565b9350613e69818560208601612fc1565b80840191505092915050565b6000613e818285613e44565b9150613e8d8284613e44565b91508190509392505050565b7f4f776e61626c653a206e6577206f776e657220697320746865207a65726f206160008201527f6464726573730000000000000000000000000000000000000000000000000000602082015250565b6000613ef5602683612fb0565b9150613f0082613e99565b604082019050919050565b60006020820190508181036000830152613f2481613ee8565b9050919050565b7f4552433732313a206f70657261746f7220717565727920666f72206e6f6e657860008201527f697374656e7420746f6b656e0000000000000000000000000000000000000000602082015250565b6000613f87602c83612fb0565b9150613f9282613f2b565b604082019050919050565b60006020820190508181036000830152613fb681613f7a565b9050919050565b7f4552433732313a207472616e73666572206f6620746f6b656e2074686174206960008201527f73206e6f74206f776e0000000000000000000000000000000000000000000000602082015250565b6000614019602983612fb0565b915061402482613fbd565b604082019050919050565b600060208201905081810360008301526140488161400c565b9050919050565b7f4552433732313a207472616e7366657220746f20746865207a65726f2061646460008201527f7265737300000000000000000000000000000000000000000000000000000000602082015250565b60006140ab602483612fb0565b91506140b68261404f565b604082019050919050565b600060208201905081810360008301526140da8161409e565b9050919050565b7f4e487b7100000000000000000000000000000000000000000000000000000000600052601160045260246000fd5b600061411b82613060565b915061412683613060565b925082821015614139576141386140e1565b5b828203905092915050565b600061414f82613060565b915061415a83613060565b9250827fffffffffffffffffffffffffffffffffffffffffffffffffffffffffffffffff0382111561418f5761418e6140e1565b5b828201905092915050565b7f416363657373436f6e74726f6c3a206163636f756e7420000000000000000000600082015250565b60006141d0601783613e39565b91506141db8261419a565b601782019050919050565b7f206973206d697373696e6720726f6c6520000000000000000000000000000000600082015250565b600061421c601183613e39565b9150614227826141e6565b601182019050919050565b600061423d826141c3565b91506142498285613e44565b91506142548261420f565b91506142608284613e44565b91508190509392505050565b7f4552433732313a20617070726f766520746f2063616c6c657200000000000000600082015250565b60006142a2601983612fb0565b91506142ad8261426c565b602082019050919050565b600060208201905081810360008301526142d181614295565b9050919050565b7f4552433732313a207472616e7366657220746f206e6f6e20455243373231526560008201527f63656976657220696d706c656d656e7465720000000000000000000000000000602082015250565b6000614334603283612fb0565b915061433f826142d8565b604082019050919050565b6000602082019050818103600083015261436381614327565b9050919050565b600061437582613060565b91507fffffffffffffffffffffffffffffffffffffffffffffffffffffffffffffffff8214156143a8576143a76140e1565b5b600182019050919050565b7f4e487b7100000000000000000000000000000000000000000000000000000000600052601260045260246000fd5b60006143ed82613060565b91506143f883613060565b925082614408576144076143b3565b5b828204905092915050565b600061441e82613060565b915061442983613060565b925082614439576144386143b3565b5b828206905092915050565b600061444f82613060565b915061445a83613060565b9250817fffffffffffffffffffffffffffffffffffffffffffffffffffffffffffffffff0483118215151615614493576144926140e1565b5b828202905092915050565b60006144a982613060565b915060008214156144bd576144bc6140e1565b5b600182039050919050565b7f537472696e67733a20686578206c656e67746820696e73756666696369656e74600082015250565b60006144fe602083612fb0565b9150614509826144c8565b602082019050919050565b6000602082019050818103600083015261452d816144f1565b9050919050565b600081519050919050565b600082825260208201905092915050565b600061455b82614534565b614565818561453f565b9350614575818560208601612fc1565b61457e81612ff4565b840191505092915050565b600060808201905061459e60008301876130f5565b6145ab60208301866130f5565b6145b8604083018561318b565b81810360608301526145ca8184614550565b905095945050505050565b6000815190506145e481612f16565b92915050565b600060208284031215614600576145ff612ee0565b5b600061460e848285016145d5565b91505092915050565b7f4e487b7100000000000000000000000000000000000000000000000000000000600052603160045260246000fdfea264697066735822122016142bb9f2650be73543f357752d49d93066852779107f178f32c35ee2bf4ea264736f6c634300080a0033",
  "immutableReferences": {},
  "source": "// SPDX-License-Identifier: MIT\npragma solidity >=0.4.22 <0.9.0;\n\nimport \"@openzeppelin/contracts-upgradeable/utils/math/SafeMathUpgradeable.sol\";\nimport \"@openzeppelin/contracts-upgradeable/utils/CountersUpgradeable.sol\";\nimport \"@openzeppelin/contracts-upgradeable/token/ERC721/ERC721Upgradeable.sol\";\nimport \"@openzeppelin/contracts-upgradeable/access/OwnableUpgradeable.sol\";\nimport \"@openzeppelin/contracts-upgradeable/token/ERC721/extensions/ERC721URIStorageUpgradeable.sol\";\nimport \"@openzeppelin/contracts-upgradeable/access/AccessControlUpgradeable.sol\";\nimport \"@openzeppelin/contracts-upgradeable/proxy/utils/Initializable.sol\";\nimport \"@openzeppelin/contracts-upgradeable/token/ERC721/extensions/ERC721EnumerableUpgradeable.sol\";\n\ncontract BaseContract is\n    Initializable,\n    ERC721Upgradeable,\n    ERC721URIStorageUpgradeable,\n    AccessControlUpgradeable,\n    ERC721EnumerableUpgradeable,\n    OwnableUpgradeable\n{\n    using StringsUpgradeable for uint256;\n    using SafeMathUpgradeable for uint256;\n\n    // Optional mapping for token URIs\n    mapping(uint256 => string) internal tokenURIs;\n\n    string public baseTokenURI;\n\n    uint256 public constant MAX_SUPPLY = 50000;\n    uint256 public constant PRICE = 0.0001 ether;\n    uint256 public constant MAX_PER_MINT = 100;\n    bytes32 public constant MINTER_ROLE = keccak256(\"MINTER_ROLE\");\n\n    // Base URI\n    string private _baseURIextended;\n\n    function initialize(\n        string memory _name,\n        string memory _symbol,\n        string memory _baseTokenURI\n    ) public virtual initializer {\n        __ERC721_init(_name, _symbol);\n        baseTokenURI = _baseTokenURI;\n\n        _grantRole(DEFAULT_ADMIN_ROLE, owner());\n        _grantRole(MINTER_ROLE, owner());\n    }\n\n    function setBaseURI(string memory baseURI_) external onlyOwner {\n        _baseURIextended = baseURI_;\n    }\n\n    function _setTokenURI(uint256 tokenId, string memory _tokenURI)\n        internal\n        virtual\n        override(ERC721URIStorageUpgradeable)\n    {\n        require(\n            _exists(tokenId),\n            \"ERC721Metadata: URI set of nonexistent token\"\n        );\n        tokenURIs[tokenId] = _tokenURI;\n    }\n\n    function _baseURI() internal view virtual override returns (string memory) {\n        return _baseURIextended;\n    }\n\n    function _burn(uint256 tokenId)\n        internal\n        virtual\n        override(ERC721Upgradeable, ERC721URIStorageUpgradeable)\n    {\n        super._burn(tokenId);\n    }\n\n    function tokenURI(uint256 tokenId)\n        public\n        view\n        virtual\n        override(ERC721Upgradeable, ERC721URIStorageUpgradeable)\n        returns (string memory)\n    {\n        require(\n            _exists(tokenId),\n            \"ERC721Metadata: URI query for nonexistent token\"\n        );\n\n        string memory _tokenURI = tokenURIs[tokenId];\n        string memory base = _baseURI();\n\n        // If there is no base URI, return the token URI.\n        if (bytes(base).length == 0) {\n            return _tokenURI;\n        }\n        // If both are set, concatenate the baseURI and tokenURI (via abi.encodePacked).\n        if (bytes(_tokenURI).length > 0) {\n            return string(abi.encodePacked(base, _tokenURI));\n        }\n        // If there is a baseURI but no tokenURI, concatenate the tokenID to the baseURI.\n        return string(abi.encodePacked(base, tokenId.toString()));\n    }\n\n    // The following functions are overrides for ERC721Enumerable required by Solidity.\n    function _beforeTokenTransfer(\n        address from,\n        address to,\n        uint256 tokenId\n    )\n        internal\n        virtual\n        override(ERC721Upgradeable, ERC721EnumerableUpgradeable)\n    {\n        super._beforeTokenTransfer(from, to, tokenId);\n    }\n\n    function supportsInterface(bytes4 interfaceId)\n        public\n        view\n        virtual\n        override(\n            ERC721Upgradeable,\n            ERC721EnumerableUpgradeable,\n            AccessControlUpgradeable\n        )\n        returns (bool)\n    {\n        return super.supportsInterface(interfaceId);\n    }\n}\n",
  "sourcePath": "/Users/lenahierzi/Developer/consensys/blockchain-developer-bootcamp-final-project/contracts/BaseContract.sol",
  "compiler": {
    "name": "solc",
    "version": "0.8.10+commit.fc410830.Emscripten.clang"
  },
  "schemaVersion": "3.4.3",
  "updatedAt": "2021-11-29T21:57:43.796Z",
  "devdoc": {
    "kind": "dev",
    "methods": {
      "approve(address,uint256)": {
        "details": "See {IERC721-approve}."
      },
      "balanceOf(address)": {
        "details": "See {IERC721-balanceOf}."
      },
      "getApproved(uint256)": {
        "details": "See {IERC721-getApproved}."
      },
      "getRoleAdmin(bytes32)": {
        "details": "Returns the admin role that controls `role`. See {grantRole} and {revokeRole}. To change a role's admin, use {_setRoleAdmin}."
      },
      "grantRole(bytes32,address)": {
        "details": "Grants `role` to `account`. If `account` had not been already granted `role`, emits a {RoleGranted} event. Requirements: - the caller must have ``role``'s admin role."
      },
      "hasRole(bytes32,address)": {
        "details": "Returns `true` if `account` has been granted `role`."
      },
      "isApprovedForAll(address,address)": {
        "details": "See {IERC721-isApprovedForAll}."
      },
      "name()": {
        "details": "See {IERC721Metadata-name}."
      },
      "owner()": {
        "details": "Returns the address of the current owner."
      },
      "ownerOf(uint256)": {
        "details": "See {IERC721-ownerOf}."
      },
      "renounceOwnership()": {
        "details": "Leaves the contract without owner. It will not be possible to call `onlyOwner` functions anymore. Can only be called by the current owner. NOTE: Renouncing ownership will leave the contract without an owner, thereby removing any functionality that is only available to the owner."
      },
      "renounceRole(bytes32,address)": {
        "details": "Revokes `role` from the calling account. Roles are often managed via {grantRole} and {revokeRole}: this function's purpose is to provide a mechanism for accounts to lose their privileges if they are compromised (such as when a trusted device is misplaced). If the calling account had been revoked `role`, emits a {RoleRevoked} event. Requirements: - the caller must be `account`."
      },
      "revokeRole(bytes32,address)": {
        "details": "Revokes `role` from `account`. If `account` had been granted `role`, emits a {RoleRevoked} event. Requirements: - the caller must have ``role``'s admin role."
      },
      "safeTransferFrom(address,address,uint256)": {
        "details": "See {IERC721-safeTransferFrom}."
      },
      "safeTransferFrom(address,address,uint256,bytes)": {
        "details": "See {IERC721-safeTransferFrom}."
      },
      "setApprovalForAll(address,bool)": {
        "details": "See {IERC721-setApprovalForAll}."
      },
      "symbol()": {
        "details": "See {IERC721Metadata-symbol}."
      },
      "tokenByIndex(uint256)": {
        "details": "See {IERC721Enumerable-tokenByIndex}."
      },
      "tokenOfOwnerByIndex(address,uint256)": {
        "details": "See {IERC721Enumerable-tokenOfOwnerByIndex}."
      },
      "totalSupply()": {
        "details": "See {IERC721Enumerable-totalSupply}."
      },
      "transferFrom(address,address,uint256)": {
        "details": "See {IERC721-transferFrom}."
      },
      "transferOwnership(address)": {
        "details": "Transfers ownership of the contract to a new account (`newOwner`). Can only be called by the current owner."
      }
    },
    "version": 1
  },
  "userdoc": {
    "kind": "user",
    "methods": {},
    "version": 1
  }
}