{
  "contractName": "Booking",
  "abi": [
    {
      "anonymous": false,
      "inputs": [
        {
          "indexed": true,
          "internalType": "address",
          "name": "previousOwner",
          "type": "address"
        },
        {
          "indexed": true,
          "internalType": "address",
          "name": "newOwner",
          "type": "address"
        }
      ],
      "name": "OwnershipTransferred",
      "type": "event"
    },
    {
      "inputs": [],
      "name": "owner",
      "outputs": [
        {
          "internalType": "address",
          "name": "",
          "type": "address"
        }
      ],
      "stateMutability": "view",
      "type": "function"
    },
    {
      "inputs": [],
      "name": "renounceOwnership",
      "outputs": [],
      "stateMutability": "nonpayable",
      "type": "function"
    },
    {
      "inputs": [
        {
          "internalType": "address",
          "name": "newOwner",
          "type": "address"
        }
      ],
      "name": "transferOwnership",
      "outputs": [],
      "stateMutability": "nonpayable",
      "type": "function"
    },
    {
      "inputs": [
        {
          "internalType": "uint256",
          "name": "appId",
          "type": "uint256"
        }
      ],
      "name": "book",
      "outputs": [
        {
          "internalType": "uint256",
          "name": "",
          "type": "uint256"
        }
      ],
      "stateMutability": "nonpayable",
      "type": "function"
    },
    {
      "inputs": [],
      "name": "getPatients",
      "outputs": [
        {
          "internalType": "address[6]",
          "name": "",
          "type": "address[6]"
        }
      ],
      "stateMutability": "view",
      "type": "function"
    }
  ],
  "bytecode": "0x608060405234801561001057600080fd5b5061003f61002b610044640100000000026401000000009004565b61004c640100000000026401000000009004565b610110565b600033905090565b60008060009054906101000a900473ffffffffffffffffffffffffffffffffffffffff169050816000806101000a81548173ffffffffffffffffffffffffffffffffffffffff021916908373ffffffffffffffffffffffffffffffffffffffff1602179055508173ffffffffffffffffffffffffffffffffffffffff168173ffffffffffffffffffffffffffffffffffffffff167f8be0079c531659141344cd1fd0a4f28419497f9722a3daafe3b4186f6b6457e060405160405180910390a35050565b6108e78061011f6000396000f3fe608060405234801561001057600080fd5b5060043610610074576000357c0100000000000000000000000000000000000000000000000000000000900480631116fd041461007957806312ad1c37146100a9578063715018a6146100c75780638da5cb5b146100d1578063f2fde38b146100ef575b600080fd5b610093600480360381019061008e919061050f565b61010b565b6040516100a0919061054b565b60405180910390f35b6100b16101bc565b6040516100be9190610643565b60405180910390f35b6100cf61023d565b005b6100d96102c5565b6040516100e6919061066d565b60405180910390f35b610109600480360381019061010491906106b4565b6102ee565b005b60008160008110158015610120575060058111155b61015f576040517f08c379a000000000000000000000000000000000000000000000000000000000815260040161015690610764565b60405180910390fd5b336001846006811061017457610173610784565b5b0160006101000a81548173ffffffffffffffffffffffffffffffffffffffff021916908373ffffffffffffffffffffffffffffffffffffffff16021790555082915050919050565b6101c46104b2565b6001600680602002604051908101604052809291908260068015610233576020028201915b8160009054906101000a900473ffffffffffffffffffffffffffffffffffffffff1673ffffffffffffffffffffffffffffffffffffffff16815260200190600101908083116101e9575b5050505050905090565b6102456103e6565b73ffffffffffffffffffffffffffffffffffffffff166102636102c5565b73ffffffffffffffffffffffffffffffffffffffff16146102b9576040517f08c379a00000000000000000000000000000000000000000000000000000000081526004016102b0906107ff565b60405180910390fd5b6102c360006103ee565b565b60008060009054906101000a900473ffffffffffffffffffffffffffffffffffffffff16905090565b6102f66103e6565b73ffffffffffffffffffffffffffffffffffffffff166103146102c5565b73ffffffffffffffffffffffffffffffffffffffff161461036a576040517f08c379a0000000000000000000000000000000000000000000000000000000008152600401610361906107ff565b60405180910390fd5b600073ffffffffffffffffffffffffffffffffffffffff168173ffffffffffffffffffffffffffffffffffffffff1614156103da576040517f08c379a00000000000000000000000000000000000000000000000000000000081526004016103d190610891565b60405180910390fd5b6103e3816103ee565b50565b600033905090565b60008060009054906101000a900473ffffffffffffffffffffffffffffffffffffffff169050816000806101000a81548173ffffffffffffffffffffffffffffffffffffffff021916908373ffffffffffffffffffffffffffffffffffffffff1602179055508173ffffffffffffffffffffffffffffffffffffffff168173ffffffffffffffffffffffffffffffffffffffff167f8be0079c531659141344cd1fd0a4f28419497f9722a3daafe3b4186f6b6457e060405160405180910390a35050565b6040518060c00160405280600690602082028036833780820191505090505090565b600080fd5b6000819050919050565b6104ec816104d9565b81146104f757600080fd5b50565b600081359050610509816104e3565b92915050565b600060208284031215610525576105246104d4565b5b6000610533848285016104fa565b91505092915050565b610545816104d9565b82525050565b6000602082019050610560600083018461053c565b92915050565b600060069050919050565b600081905092915050565b6000819050919050565b600073ffffffffffffffffffffffffffffffffffffffff82169050919050565b60006105b182610586565b9050919050565b6105c1816105a6565b82525050565b60006105d383836105b8565b60208301905092915050565b6000602082019050919050565b6105f581610566565b6105ff8184610571565b925061060a8261057c565b8060005b8381101561063b57815161062287826105c7565b965061062d836105df565b92505060018101905061060e565b505050505050565b600060c08201905061065860008301846105ec565b92915050565b610667816105a6565b82525050565b6000602082019050610682600083018461065e565b92915050565b610691816105a6565b811461069c57600080fd5b50565b6000813590506106ae81610688565b92915050565b6000602082840312156106ca576106c96104d4565b5b60006106d88482850161069f565b91505092915050565b600082825260208201905092915050565b7f4d6178696d756d206e756d626572206f66206170706f696e746d656e7420626f60008201527f6f6b696e67732069732072656163686564000000000000000000000000000000602082015250565b600061074e6031836106e1565b9150610759826106f2565b604082019050919050565b6000602082019050818103600083015261077d81610741565b9050919050565b7f4e487b7100000000000000000000000000000000000000000000000000000000600052603260045260246000fd5b7f4f776e61626c653a2063616c6c6572206973206e6f7420746865206f776e6572600082015250565b60006107e96020836106e1565b91506107f4826107b3565b602082019050919050565b60006020820190508181036000830152610818816107dc565b9050919050565b7f4f776e61626c653a206e6577206f776e657220697320746865207a65726f206160008201527f6464726573730000000000000000000000000000000000000000000000000000602082015250565b600061087b6026836106e1565b91506108868261081f565b604082019050919050565b600060208201905081810360008301526108aa8161086e565b905091905056fea2646970667358221220fe49b671c0c55a1001f264b5e981ac198fe47f1249c99897d61d9ec038f2ed9064736f6c634300080a0033",
  "immutableReferences": {},
  "source": "// SPDX-License-Identifier: MIT\npragma solidity 0.8.10;\n/// @title An NFT game for newcomer to the blockchain world. Can be used complementary to Bootcamps to get used to MetaMask and Dapps.\n/// @author Lena Hierzi\n/// @notice This contract is not aiming for security as it is designed for a playful entry into Dapps and only to be deployed on testnet.\n/// @custom:experimental This is an experimental contract.\n\nimport \"@openzeppelin/contracts/access/Ownable.sol\";\n\ncontract Booking is Ownable {\n    address[6] patients;\n\n    modifier appIdInrange(uint256 _appId) {\n        require(\n            _appId >= 0 && _appId <= 5,\n            \"Maximum number of appointment bookings is reached\"\n        );\n        _;\n    }\n\n    /// Booking a medical appointment\n    function book(uint256 appId) public appIdInrange(appId) returns (uint256) {\n        patients[appId] = msg.sender;\n\n        return appId;\n    }\n\n    /// Retrieving the appointment\n    function getPatients() public view returns (address[6] memory) {\n        return patients;\n    }\n}\n",
  "sourcePath": "/Users/lenahierzi/Developer/consensys/blockchain-developer-bootcamp-final-project/contracts/marlene.sol",
  "compiler": {
    "name": "solc",
    "version": "0.8.10+commit.fc410830.Emscripten.clang"
  },
  "schemaVersion": "3.4.3",
  "updatedAt": "2022-01-10T21:30:08.891Z",
  "devdoc": {
    "kind": "dev",
    "methods": {
      "owner()": {
        "details": "Returns the address of the current owner."
      },
      "renounceOwnership()": {
        "details": "Leaves the contract without owner. It will not be possible to call `onlyOwner` functions anymore. Can only be called by the current owner. NOTE: Renouncing ownership will leave the contract without an owner, thereby removing any functionality that is only available to the owner."
      },
      "transferOwnership(address)": {
        "details": "Transfers ownership of the contract to a new account (`newOwner`). Can only be called by the current owner."
      }
    },
    "version": 1
  },
  "userdoc": {
    "kind": "user",
    "methods": {
      "book(uint256)": {
        "notice": "Booking a medical appointment"
      },
      "getPatients()": {
        "notice": "Retrieving the appointment"
      }
    },
    "version": 1
  }
}