{
  "contractName": "Nft",
  "abi": [
    {
      "inputs": [],
      "stateMutability": "nonpayable",
      "type": "constructor"
    },
    {
      "anonymous": false,
      "inputs": [
        {
          "indexed": true,
          "internalType": "address",
          "name": "owner",
          "type": "address"
        },
        {
          "indexed": true,
          "internalType": "address",
          "name": "approved",
          "type": "address"
        },
        {
          "indexed": true,
          "internalType": "uint256",
          "name": "tokenId",
          "type": "uint256"
        }
      ],
      "name": "Approval",
      "type": "event"
    },
    {
      "anonymous": false,
      "inputs": [
        {
          "indexed": true,
          "internalType": "address",
          "name": "owner",
          "type": "address"
        },
        {
          "indexed": true,
          "internalType": "address",
          "name": "operator",
          "type": "address"
        },
        {
          "indexed": false,
          "internalType": "bool",
          "name": "approved",
          "type": "bool"
        }
      ],
      "name": "ApprovalForAll",
      "type": "event"
    },
    {
      "anonymous": false,
      "inputs": [
        {
          "indexed": true,
          "internalType": "address",
          "name": "previousOwner",
          "type": "address"
        },
        {
          "indexed": true,
          "internalType": "address",
          "name": "newOwner",
          "type": "address"
        }
      ],
      "name": "OwnershipTransferred",
      "type": "event"
    },
    {
      "anonymous": false,
      "inputs": [
        {
          "indexed": true,
          "internalType": "address",
          "name": "from",
          "type": "address"
        },
        {
          "indexed": true,
          "internalType": "address",
          "name": "to",
          "type": "address"
        },
        {
          "indexed": true,
          "internalType": "uint256",
          "name": "tokenId",
          "type": "uint256"
        }
      ],
      "name": "Transfer",
      "type": "event"
    },
    {
      "inputs": [],
      "name": "MAX_PER_MINT",
      "outputs": [
        {
          "internalType": "uint256",
          "name": "",
          "type": "uint256"
        }
      ],
      "stateMutability": "view",
      "type": "function"
    },
    {
      "inputs": [],
      "name": "MAX_SUPPLY",
      "outputs": [
        {
          "internalType": "uint256",
          "name": "",
          "type": "uint256"
        }
      ],
      "stateMutability": "view",
      "type": "function"
    },
    {
      "inputs": [],
      "name": "PRICE",
      "outputs": [
        {
          "internalType": "uint256",
          "name": "",
          "type": "uint256"
        }
      ],
      "stateMutability": "view",
      "type": "function"
    },
    {
      "inputs": [
        {
          "internalType": "address",
          "name": "to",
          "type": "address"
        },
        {
          "internalType": "uint256",
          "name": "tokenId",
          "type": "uint256"
        }
      ],
      "name": "approve",
      "outputs": [],
      "stateMutability": "nonpayable",
      "type": "function"
    },
    {
      "inputs": [
        {
          "internalType": "address",
          "name": "owner",
          "type": "address"
        }
      ],
      "name": "balanceOf",
      "outputs": [
        {
          "internalType": "uint256",
          "name": "",
          "type": "uint256"
        }
      ],
      "stateMutability": "view",
      "type": "function"
    },
    {
      "inputs": [],
      "name": "baseTokenURI",
      "outputs": [
        {
          "internalType": "string",
          "name": "",
          "type": "string"
        }
      ],
      "stateMutability": "view",
      "type": "function"
    },
    {
      "inputs": [
        {
          "internalType": "uint256",
          "name": "tokenId",
          "type": "uint256"
        }
      ],
      "name": "getApproved",
      "outputs": [
        {
          "internalType": "address",
          "name": "",
          "type": "address"
        }
      ],
      "stateMutability": "view",
      "type": "function"
    },
    {
      "inputs": [
        {
          "internalType": "address",
          "name": "owner",
          "type": "address"
        },
        {
          "internalType": "address",
          "name": "operator",
          "type": "address"
        }
      ],
      "name": "isApprovedForAll",
      "outputs": [
        {
          "internalType": "bool",
          "name": "",
          "type": "bool"
        }
      ],
      "stateMutability": "view",
      "type": "function"
    },
    {
      "inputs": [],
      "name": "name",
      "outputs": [
        {
          "internalType": "string",
          "name": "",
          "type": "string"
        }
      ],
      "stateMutability": "view",
      "type": "function"
    },
    {
      "inputs": [],
      "name": "owner",
      "outputs": [
        {
          "internalType": "address",
          "name": "",
          "type": "address"
        }
      ],
      "stateMutability": "view",
      "type": "function"
    },
    {
      "inputs": [
        {
          "internalType": "uint256",
          "name": "tokenId",
          "type": "uint256"
        }
      ],
      "name": "ownerOf",
      "outputs": [
        {
          "internalType": "address",
          "name": "",
          "type": "address"
        }
      ],
      "stateMutability": "view",
      "type": "function"
    },
    {
      "inputs": [],
      "name": "renounceOwnership",
      "outputs": [],
      "stateMutability": "nonpayable",
      "type": "function"
    },
    {
      "inputs": [
        {
          "internalType": "address",
          "name": "from",
          "type": "address"
        },
        {
          "internalType": "address",
          "name": "to",
          "type": "address"
        },
        {
          "internalType": "uint256",
          "name": "tokenId",
          "type": "uint256"
        }
      ],
      "name": "safeTransferFrom",
      "outputs": [],
      "stateMutability": "nonpayable",
      "type": "function"
    },
    {
      "inputs": [
        {
          "internalType": "address",
          "name": "from",
          "type": "address"
        },
        {
          "internalType": "address",
          "name": "to",
          "type": "address"
        },
        {
          "internalType": "uint256",
          "name": "tokenId",
          "type": "uint256"
        },
        {
          "internalType": "bytes",
          "name": "_data",
          "type": "bytes"
        }
      ],
      "name": "safeTransferFrom",
      "outputs": [],
      "stateMutability": "nonpayable",
      "type": "function"
    },
    {
      "inputs": [
        {
          "internalType": "address",
          "name": "operator",
          "type": "address"
        },
        {
          "internalType": "bool",
          "name": "approved",
          "type": "bool"
        }
      ],
      "name": "setApprovalForAll",
      "outputs": [],
      "stateMutability": "nonpayable",
      "type": "function"
    },
    {
      "inputs": [],
      "name": "symbol",
      "outputs": [
        {
          "internalType": "string",
          "name": "",
          "type": "string"
        }
      ],
      "stateMutability": "view",
      "type": "function"
    },
    {
      "inputs": [
        {
          "internalType": "uint256",
          "name": "index",
          "type": "uint256"
        }
      ],
      "name": "tokenByIndex",
      "outputs": [
        {
          "internalType": "uint256",
          "name": "",
          "type": "uint256"
        }
      ],
      "stateMutability": "view",
      "type": "function"
    },
    {
      "inputs": [
        {
          "internalType": "address",
          "name": "owner",
          "type": "address"
        },
        {
          "internalType": "uint256",
          "name": "index",
          "type": "uint256"
        }
      ],
      "name": "tokenOfOwnerByIndex",
      "outputs": [
        {
          "internalType": "uint256",
          "name": "",
          "type": "uint256"
        }
      ],
      "stateMutability": "view",
      "type": "function"
    },
    {
      "inputs": [
        {
          "internalType": "uint256",
          "name": "tokenId",
          "type": "uint256"
        }
      ],
      "name": "tokenURI",
      "outputs": [
        {
          "internalType": "string",
          "name": "",
          "type": "string"
        }
      ],
      "stateMutability": "view",
      "type": "function"
    },
    {
      "inputs": [],
      "name": "totalSupply",
      "outputs": [
        {
          "internalType": "uint256",
          "name": "",
          "type": "uint256"
        }
      ],
      "stateMutability": "view",
      "type": "function"
    },
    {
      "inputs": [
        {
          "internalType": "address",
          "name": "from",
          "type": "address"
        },
        {
          "internalType": "address",
          "name": "to",
          "type": "address"
        },
        {
          "internalType": "uint256",
          "name": "tokenId",
          "type": "uint256"
        }
      ],
      "name": "transferFrom",
      "outputs": [],
      "stateMutability": "nonpayable",
      "type": "function"
    },
    {
      "inputs": [
        {
          "internalType": "address",
          "name": "newOwner",
          "type": "address"
        }
      ],
      "name": "transferOwnership",
      "outputs": [],
      "stateMutability": "nonpayable",
      "type": "function"
    },
    {
      "inputs": [
        {
          "internalType": "string",
          "name": "cid",
          "type": "string"
        }
      ],
      "name": "mint",
      "outputs": [
        {
          "internalType": "uint256",
          "name": "_id",
          "type": "uint256"
        }
      ],
      "stateMutability": "nonpayable",
      "type": "function"
    },
    {
      "inputs": [
        {
          "internalType": "address",
          "name": "_owner",
          "type": "address"
        }
      ],
      "name": "tokensOfOwner",
      "outputs": [
        {
          "internalType": "uint256[]",
          "name": "",
          "type": "uint256[]"
        }
      ],
      "stateMutability": "view",
      "type": "function"
    },
    {
      "inputs": [
        {
          "internalType": "bytes4",
          "name": "interfaceId",
          "type": "bytes4"
        }
      ],
      "name": "supportsInterface",
      "outputs": [
        {
          "internalType": "bool",
          "name": "",
          "type": "bool"
        }
      ],
      "stateMutability": "view",
      "type": "function"
    }
  ],
  "bytecode": "0x608060405260405180606001604052806036815260200162003c4960369139600b908051906020019062000035929190620001ea565b503480156200004357600080fd5b506040518060400160405280600381526020017f4e667400000000000000000000000000000000000000000000000000000000008152506040518060400160405280600381526020017f4e465400000000000000000000000000000000000000000000000000000000008152508160009080519060200190620000c8929190620001ea565b508060019080519060200190620000e1929190620001ea565b50505062000116620001016200011c640100000000026401000000009004565b62000124640100000000026401000000009004565b620002ff565b600033905090565b6000600660009054906101000a900473ffffffffffffffffffffffffffffffffffffffff16905081600660006101000a81548173ffffffffffffffffffffffffffffffffffffffff021916908373ffffffffffffffffffffffffffffffffffffffff1602179055508173ffffffffffffffffffffffffffffffffffffffff168173ffffffffffffffffffffffffffffffffffffffff167f8be0079c531659141344cd1fd0a4f28419497f9722a3daafe3b4186f6b6457e060405160405180910390a35050565b828054620001f890620002c9565b90600052602060002090601f0160209004810192826200021c576000855562000268565b82601f106200023757805160ff191683800117855562000268565b8280016001018555821562000268579182015b82811115620002675782518255916020019190600101906200024a565b5b5090506200027791906200027b565b5090565b5b80821115620002965760008160009055506001016200027c565b5090565b7f4e487b7100000000000000000000000000000000000000000000000000000000600052602260045260246000fd5b60006002820490506001821680620002e257607f821691505b60208210811415620002f957620002f86200029a565b5b50919050565b61393a806200030f6000396000f3fe608060405234801561001057600080fd5b5060043610610190576000357c01000000000000000000000000000000000000000000000000000000009004806370a08231116100fb578063a22cb465116100b4578063d547cfb71161008e578063d547cfb71461047d578063d85d3d271461049b578063e985e9c5146104cb578063f2fde38b146104fb57610190565b8063a22cb46514610415578063b88d4fde14610431578063c87b56dd1461044d57610190565b806370a0823114610351578063715018a6146103815780638462151c1461038b5780638d859f3e146103bb5780638da5cb5b146103d957806395d89b41146103f757610190565b806323b872dd1161014d57806323b872dd1461026b5780632f745c591461028757806332cb6b0c146102b757806342842e0e146102d55780634f6ccce7146102f15780636352211e1461032157610190565b806301ffc9a71461019557806306fdde03146101c5578063081812fc146101e3578063095ea7b31461021357806309d42b301461022f57806318160ddd1461024d575b600080fd5b6101af60048036038101906101aa919061248b565b610517565b6040516101bc91906124d3565b60405180910390f35b6101cd610529565b6040516101da9190612587565b60405180910390f35b6101fd60048036038101906101f891906125df565b6105bb565b60405161020a919061264d565b60405180910390f35b61022d60048036038101906102289190612694565b610640565b005b610237610758565b60405161024491906126e3565b60405180910390f35b61025561075d565b60405161026291906126e3565b60405180910390f35b610285600480360381019061028091906126fe565b61076a565b005b6102a1600480360381019061029c9190612694565b6107ca565b6040516102ae91906126e3565b60405180910390f35b6102bf61086f565b6040516102cc91906126e3565b60405180910390f35b6102ef60048036038101906102ea91906126fe565b610875565b005b61030b600480360381019061030691906125df565b610895565b60405161031891906126e3565b60405180910390f35b61033b600480360381019061033691906125df565b610906565b604051610348919061264d565b60405180910390f35b61036b60048036038101906103669190612751565b6109b8565b60405161037891906126e3565b60405180910390f35b610389610a70565b005b6103a560048036038101906103a09190612751565b610af8565b6040516103b2919061283c565b60405180910390f35b6103c3610ba6565b6040516103d091906126e3565b60405180910390f35b6103e1610bb0565b6040516103ee919061264d565b60405180910390f35b6103ff610bda565b60405161040c9190612587565b60405180910390f35b61042f600480360381019061042a919061288a565b610c6c565b005b61044b600480360381019061044691906129ff565b610ded565b005b610467600480360381019061046291906125df565b610e4f565b6040516104749190612587565b60405180910390f35b610485610ef6565b6040516104929190612587565b60405180910390f35b6104b560048036038101906104b09190612b23565b610f84565b6040516104c291906126e3565b60405180910390f35b6104e560048036038101906104e09190612b6c565b61109b565b6040516104f291906124d3565b60405180910390f35b61051560048036038101906105109190612751565b61112f565b005b600061052282611227565b9050919050565b60606000805461053890612bdb565b80601f016020809104026020016040519081016040528092919081815260200182805461056490612bdb565b80156105b15780601f10610586576101008083540402835291602001916105b1565b820191906000526020600020905b81548152906001019060200180831161059457829003601f168201915b5050505050905090565b60006105c6826112a1565b610605576040517f08c379a00000000000000000000000000000000000000000000000000000000081526004016105fc90612c7f565b60405180910390fd5b6004600083815260200190815260200160002060009054906101000a900473ffffffffffffffffffffffffffffffffffffffff169050919050565b600061064b82610906565b90508073ffffffffffffffffffffffffffffffffffffffff168373ffffffffffffffffffffffffffffffffffffffff1614156106bc576040517f08c379a00000000000000000000000000000000000000000000000000000000081526004016106b390612d11565b60405180910390fd5b8073ffffffffffffffffffffffffffffffffffffffff166106db61130d565b73ffffffffffffffffffffffffffffffffffffffff16148061070a57506107098161070461130d565b61109b565b5b610749576040517f08c379a000000000000000000000000000000000000000000000000000000000815260040161074090612da3565b60405180910390fd5b6107538383611315565b505050565b606481565b6000600980549050905090565b61077b61077561130d565b826113ce565b6107ba576040517f08c379a00000000000000000000000000000000000000000000000000000000081526004016107b190612e35565b60405180910390fd5b6107c58383836114ac565b505050565b60006107d5836109b8565b8210610816576040517f08c379a000000000000000000000000000000000000000000000000000000000815260040161080d90612ec7565b60405180910390fd5b600760008473ffffffffffffffffffffffffffffffffffffffff1673ffffffffffffffffffffffffffffffffffffffff168152602001908152602001600020600083815260200190815260200160002054905092915050565b61c35081565b61089083838360405180602001604052806000815250610ded565b505050565b600061089f61075d565b82106108e0576040517f08c379a00000000000000000000000000000000000000000000000000000000081526004016108d790612f59565b60405180910390fd5b600982815481106108f4576108f3612f79565b5b90600052602060002001549050919050565b6000806002600084815260200190815260200160002060009054906101000a900473ffffffffffffffffffffffffffffffffffffffff169050600073ffffffffffffffffffffffffffffffffffffffff168173ffffffffffffffffffffffffffffffffffffffff1614156109af576040517f08c379a00000000000000000000000000000000000000000000000000000000081526004016109a69061301a565b60405180910390fd5b80915050919050565b60008073ffffffffffffffffffffffffffffffffffffffff168273ffffffffffffffffffffffffffffffffffffffff161415610a29576040517f08c379a0000000000000000000000000000000000000000000000000000000008152600401610a20906130ac565b60405180910390fd5b600360008373ffffffffffffffffffffffffffffffffffffffff1673ffffffffffffffffffffffffffffffffffffffff168152602001908152602001600020549050919050565b610a7861130d565b73ffffffffffffffffffffffffffffffffffffffff16610a96610bb0565b73ffffffffffffffffffffffffffffffffffffffff1614610aec576040517f08c379a0000000000000000000000000000000000000000000000000000000008152600401610ae390613118565b60405180910390fd5b610af66000611708565b565b60606000610b05836109b8565b905060008167ffffffffffffffff811115610b2357610b226128d4565b5b604051908082528060200260200182016040528015610b515781602001602082028036833780820191505090505b50905060005b82811015610b9b57610b6985826107ca565b828281518110610b7c57610b7b612f79565b5b6020026020010181815250508080610b9390613167565b915050610b57565b508092505050919050565b655af3107a400081565b6000600660009054906101000a900473ffffffffffffffffffffffffffffffffffffffff16905090565b606060018054610be990612bdb565b80601f0160208091040260200160405190810160405280929190818152602001828054610c1590612bdb565b8015610c625780601f10610c3757610100808354040283529160200191610c62565b820191906000526020600020905b815481529060010190602001808311610c4557829003601f168201915b5050505050905090565b610c7461130d565b73ffffffffffffffffffffffffffffffffffffffff168273ffffffffffffffffffffffffffffffffffffffff161415610ce2576040517f08c379a0000000000000000000000000000000000000000000000000000000008152600401610cd9906131fc565b60405180910390fd5b8060056000610cef61130d565b73ffffffffffffffffffffffffffffffffffffffff1673ffffffffffffffffffffffffffffffffffffffff16815260200190815260200160002060008473ffffffffffffffffffffffffffffffffffffffff1673ffffffffffffffffffffffffffffffffffffffff16815260200190815260200160002060006101000a81548160ff0219169083151502179055508173ffffffffffffffffffffffffffffffffffffffff16610d9c61130d565b73ffffffffffffffffffffffffffffffffffffffff167f17307eab39ab6107e8899845ad3d59bd9653f200f220920489ca2b5937696c3183604051610de191906124d3565b60405180910390a35050565b610dfe610df861130d565b836113ce565b610e3d576040517f08c379a0000000000000000000000000000000000000000000000000000000008152600401610e3490612e35565b60405180910390fd5b610e49848484846117ce565b50505050565b6060610e5a826112a1565b610e99576040517f08c379a0000000000000000000000000000000000000000000000000000000008152600401610e909061328e565b60405180910390fd5b6000610ea361182a565b90506000815111610ec35760405180602001604052806000815250610eee565b80610ecd846118bc565b604051602001610ede9291906132ea565b6040516020818303038152906040525b915050919050565b600b8054610f0390612bdb565b80601f0160208091040260200160405190810160405280929190818152602001828054610f2f90612bdb565b8015610f7c5780601f10610f5157610100808354040283529160200191610f7c565b820191906000526020600020905b815481529060010190602001808311610f5f57829003601f168201915b505050505081565b6000600f82604051610f96919061330e565b908152602001604051809103902060009054906101000a900460ff1615610fbc57600080fd5b610fc6600d611a3c565b9050610fd23382611a4a565b33600c600083815260200190815260200160002060006101000a81548173ffffffffffffffffffffffffffffffffffffffff021916908373ffffffffffffffffffffffffffffffffffffffff16021790555081600e6000611033600d611a3c565b8152602001908152602001600020908051906020019061105492919061237c565b506001600f83604051611067919061330e565b908152602001604051809103902060006101000a81548160ff021916908315150217905550611096600d611c18565b919050565b6000600560008473ffffffffffffffffffffffffffffffffffffffff1673ffffffffffffffffffffffffffffffffffffffff16815260200190815260200160002060008373ffffffffffffffffffffffffffffffffffffffff1673ffffffffffffffffffffffffffffffffffffffff16815260200190815260200160002060009054906101000a900460ff16905092915050565b61113761130d565b73ffffffffffffffffffffffffffffffffffffffff16611155610bb0565b73ffffffffffffffffffffffffffffffffffffffff16146111ab576040517f08c379a00000000000000000000000000000000000000000000000000000000081526004016111a290613118565b60405180910390fd5b600073ffffffffffffffffffffffffffffffffffffffff168173ffffffffffffffffffffffffffffffffffffffff16141561121b576040517f08c379a000000000000000000000000000000000000000000000000000000000815260040161121290613397565b60405180910390fd5b61122481611708565b50565b60007f780e9d63000000000000000000000000000000000000000000000000000000007bffffffffffffffffffffffffffffffffffffffffffffffffffffffff1916827bffffffffffffffffffffffffffffffffffffffffffffffffffffffff1916148061129a575061129982611c2e565b5b9050919050565b60008073ffffffffffffffffffffffffffffffffffffffff166002600084815260200190815260200160002060009054906101000a900473ffffffffffffffffffffffffffffffffffffffff1673ffffffffffffffffffffffffffffffffffffffff1614159050919050565b600033905090565b816004600083815260200190815260200160002060006101000a81548173ffffffffffffffffffffffffffffffffffffffff021916908373ffffffffffffffffffffffffffffffffffffffff160217905550808273ffffffffffffffffffffffffffffffffffffffff1661138883610906565b73ffffffffffffffffffffffffffffffffffffffff167f8c5be1e5ebec7d5bd14f71427d1e84f3dd0314c0f7b2291e5b200ac8c7c3b92560405160405180910390a45050565b60006113d9826112a1565b611418576040517f08c379a000000000000000000000000000000000000000000000000000000000815260040161140f90613429565b60405180910390fd5b600061142383610906565b90508073ffffffffffffffffffffffffffffffffffffffff168473ffffffffffffffffffffffffffffffffffffffff16148061149257508373ffffffffffffffffffffffffffffffffffffffff1661147a846105bb565b73ffffffffffffffffffffffffffffffffffffffff16145b806114a357506114a2818561109b565b5b91505092915050565b8273ffffffffffffffffffffffffffffffffffffffff166114cc82610906565b73ffffffffffffffffffffffffffffffffffffffff1614611522576040517f08c379a0000000000000000000000000000000000000000000000000000000008152600401611519906134bb565b60405180910390fd5b600073ffffffffffffffffffffffffffffffffffffffff168273ffffffffffffffffffffffffffffffffffffffff161415611592576040517f08c379a00000000000000000000000000000000000000000000000000000000081526004016115899061354d565b60405180910390fd5b61159d838383611d10565b6115a8600082611315565b6001600360008573ffffffffffffffffffffffffffffffffffffffff1673ffffffffffffffffffffffffffffffffffffffff16815260200190815260200160002060008282546115f8919061356d565b925050819055506001600360008473ffffffffffffffffffffffffffffffffffffffff1673ffffffffffffffffffffffffffffffffffffffff168152602001908152602001600020600082825461164f91906135a1565b92505081905550816002600083815260200190815260200160002060006101000a81548173ffffffffffffffffffffffffffffffffffffffff021916908373ffffffffffffffffffffffffffffffffffffffff160217905550808273ffffffffffffffffffffffffffffffffffffffff168473ffffffffffffffffffffffffffffffffffffffff167fddf252ad1be2c89b69c2b068fc378daa952ba7f163c4a11628f55a4df523b3ef60405160405180910390a4505050565b6000600660009054906101000a900473ffffffffffffffffffffffffffffffffffffffff16905081600660006101000a81548173ffffffffffffffffffffffffffffffffffffffff021916908373ffffffffffffffffffffffffffffffffffffffff1602179055508173ffffffffffffffffffffffffffffffffffffffff168173ffffffffffffffffffffffffffffffffffffffff167f8be0079c531659141344cd1fd0a4f28419497f9722a3daafe3b4186f6b6457e060405160405180910390a35050565b6117d98484846114ac565b6117e584848484611d20565b611824576040517f08c379a000000000000000000000000000000000000000000000000000000000815260040161181b90613669565b60405180910390fd5b50505050565b6060600b805461183990612bdb565b80601f016020809104026020016040519081016040528092919081815260200182805461186590612bdb565b80156118b25780601f10611887576101008083540402835291602001916118b2565b820191906000526020600020905b81548152906001019060200180831161189557829003601f168201915b5050505050905090565b60606000821415611904576040518060400160405280600181526020017f30000000000000000000000000000000000000000000000000000000000000008152509050611a37565b600082905060005b6000821461193657808061191f90613167565b915050600a8261192f91906136b8565b915061190c565b60008167ffffffffffffffff811115611952576119516128d4565b5b6040519080825280601f01601f1916602001820160405280156119845781602001600182028036833780820191505090505b5090505b60008514611a305760018261199d919061356d565b9150600a856119ac91906136e9565b60306119b891906135a1565b7f0100000000000000000000000000000000000000000000000000000000000000028183815181106119ed576119ec612f79565b5b60200101907effffffffffffffffffffffffffffffffffffffffffffffffffffffffffffff1916908160001a905350600a85611a2991906136b8565b9450611988565b8093505050505b919050565b600081600001549050919050565b600073ffffffffffffffffffffffffffffffffffffffff168273ffffffffffffffffffffffffffffffffffffffff161415611aba576040517f08c379a0000000000000000000000000000000000000000000000000000000008152600401611ab190613766565b60405180910390fd5b611ac3816112a1565b15611b03576040517f08c379a0000000000000000000000000000000000000000000000000000000008152600401611afa906137d2565b60405180910390fd5b611b0f60008383611d10565b6001600360008473ffffffffffffffffffffffffffffffffffffffff1673ffffffffffffffffffffffffffffffffffffffff1681526020019081526020016000206000828254611b5f91906135a1565b92505081905550816002600083815260200190815260200160002060006101000a81548173ffffffffffffffffffffffffffffffffffffffff021916908373ffffffffffffffffffffffffffffffffffffffff160217905550808273ffffffffffffffffffffffffffffffffffffffff16600073ffffffffffffffffffffffffffffffffffffffff167fddf252ad1be2c89b69c2b068fc378daa952ba7f163c4a11628f55a4df523b3ef60405160405180910390a45050565b6001816000016000828254019250508190555050565b60007f80ac58cd000000000000000000000000000000000000000000000000000000007bffffffffffffffffffffffffffffffffffffffffffffffffffffffff1916827bffffffffffffffffffffffffffffffffffffffffffffffffffffffff19161480611cf957507f5b5e139f000000000000000000000000000000000000000000000000000000007bffffffffffffffffffffffffffffffffffffffffffffffffffffffff1916827bffffffffffffffffffffffffffffffffffffffffffffffffffffffff1916145b80611d095750611d0882611ee0565b5b9050919050565b611d1b838383611f4a565b505050565b6000611d418473ffffffffffffffffffffffffffffffffffffffff1661205e565b15611ed3578373ffffffffffffffffffffffffffffffffffffffff1663150b7a02611d6a61130d565b8786866040518563ffffffff167c0100000000000000000000000000000000000000000000000000000000028152600401611da89493929190613847565b6020604051808303816000875af1925050508015611de457506040513d601f19601f82011682018060405250810190611de191906138a8565b60015b611e67573d8060008114611e14576040519150601f19603f3d011682016040523d82523d6000602084013e611e19565b606091505b50600081511415611e5f576040517f08c379a0000000000000000000000000000000000000000000000000000000008152600401611e5690613669565b60405180910390fd5b805181602001fd5b63150b7a027c0100000000000000000000000000000000000000000000000000000000027bffffffffffffffffffffffffffffffffffffffffffffffffffffffff1916817bffffffffffffffffffffffffffffffffffffffffffffffffffffffff191614915050611ed8565b600190505b949350505050565b60007f01ffc9a7000000000000000000000000000000000000000000000000000000007bffffffffffffffffffffffffffffffffffffffffffffffffffffffff1916827bffffffffffffffffffffffffffffffffffffffffffffffffffffffff1916149050919050565b611f55838383612071565b600073ffffffffffffffffffffffffffffffffffffffff168373ffffffffffffffffffffffffffffffffffffffff161415611f9857611f9381612076565b611fd7565b8173ffffffffffffffffffffffffffffffffffffffff168373ffffffffffffffffffffffffffffffffffffffff1614611fd657611fd583826120bf565b5b5b600073ffffffffffffffffffffffffffffffffffffffff168273ffffffffffffffffffffffffffffffffffffffff16141561201a576120158161222c565b612059565b8273ffffffffffffffffffffffffffffffffffffffff168273ffffffffffffffffffffffffffffffffffffffff16146120585761205782826122fd565b5b5b505050565b600080823b905060008111915050919050565b505050565b600980549050600a600083815260200190815260200160002081905550600981908060018154018082558091505060019003906000526020600020016000909190919091505550565b600060016120cc846109b8565b6120d6919061356d565b90506000600860008481526020019081526020016000205490508181146121bb576000600760008673ffffffffffffffffffffffffffffffffffffffff1673ffffffffffffffffffffffffffffffffffffffff168152602001908152602001600020600084815260200190815260200160002054905080600760008773ffffffffffffffffffffffffffffffffffffffff1673ffffffffffffffffffffffffffffffffffffffff168152602001908152602001600020600084815260200190815260200160002081905550816008600083815260200190815260200160002081905550505b6008600084815260200190815260200160002060009055600760008573ffffffffffffffffffffffffffffffffffffffff1673ffffffffffffffffffffffffffffffffffffffff16815260200190815260200160002060008381526020019081526020016000206000905550505050565b60006001600980549050612240919061356d565b90506000600a60008481526020019081526020016000205490506000600983815481106122705761226f612f79565b5b90600052602060002001549050806009838154811061229257612291612f79565b5b906000526020600020018190555081600a600083815260200190815260200160002081905550600a60008581526020019081526020016000206000905560098054806122e1576122e06138d5565b5b6001900381819060005260206000200160009055905550505050565b6000612308836109b8565b905081600760008573ffffffffffffffffffffffffffffffffffffffff1673ffffffffffffffffffffffffffffffffffffffff168152602001908152602001600020600083815260200190815260200160002081905550806008600084815260200190815260200160002081905550505050565b82805461238890612bdb565b90600052602060002090601f0160209004810192826123aa57600085556123f1565b82601f106123c357805160ff19168380011785556123f1565b828001600101855582156123f1579182015b828111156123f05782518255916020019190600101906123d5565b5b5090506123fe9190612402565b5090565b5b8082111561241b576000816000905550600101612403565b5090565b6000604051905090565b600080fd5b600080fd5b60007fffffffff0000000000000000000000000000000000000000000000000000000082169050919050565b61246881612433565b811461247357600080fd5b50565b6000813590506124858161245f565b92915050565b6000602082840312156124a1576124a0612429565b5b60006124af84828501612476565b91505092915050565b60008115159050919050565b6124cd816124b8565b82525050565b60006020820190506124e860008301846124c4565b92915050565b600081519050919050565b600082825260208201905092915050565b60005b8381101561252857808201518184015260208101905061250d565b83811115612537576000848401525b50505050565b6000601f19601f8301169050919050565b6000612559826124ee565b61256381856124f9565b935061257381856020860161250a565b61257c8161253d565b840191505092915050565b600060208201905081810360008301526125a1818461254e565b905092915050565b6000819050919050565b6125bc816125a9565b81146125c757600080fd5b50565b6000813590506125d9816125b3565b92915050565b6000602082840312156125f5576125f4612429565b5b6000612603848285016125ca565b91505092915050565b600073ffffffffffffffffffffffffffffffffffffffff82169050919050565b60006126378261260c565b9050919050565b6126478161262c565b82525050565b6000602082019050612662600083018461263e565b92915050565b6126718161262c565b811461267c57600080fd5b50565b60008135905061268e81612668565b92915050565b600080604083850312156126ab576126aa612429565b5b60006126b98582860161267f565b92505060206126ca858286016125ca565b9150509250929050565b6126dd816125a9565b82525050565b60006020820190506126f860008301846126d4565b92915050565b60008060006060848603121561271757612716612429565b5b60006127258682870161267f565b93505060206127368682870161267f565b9250506040612747868287016125ca565b9150509250925092565b60006020828403121561276757612766612429565b5b60006127758482850161267f565b91505092915050565b600081519050919050565b600082825260208201905092915050565b6000819050602082019050919050565b6127b3816125a9565b82525050565b60006127c583836127aa565b60208301905092915050565b6000602082019050919050565b60006127e98261277e565b6127f38185612789565b93506127fe8361279a565b8060005b8381101561282f57815161281688826127b9565b9750612821836127d1565b925050600181019050612802565b5085935050505092915050565b6000602082019050818103600083015261285681846127de565b905092915050565b612867816124b8565b811461287257600080fd5b50565b6000813590506128848161285e565b92915050565b600080604083850312156128a1576128a0612429565b5b60006128af8582860161267f565b92505060206128c085828601612875565b9150509250929050565b600080fd5b600080fd5b7f4e487b7100000000000000000000000000000000000000000000000000000000600052604160045260246000fd5b61290c8261253d565b810181811067ffffffffffffffff8211171561292b5761292a6128d4565b5b80604052505050565b600061293e61241f565b905061294a8282612903565b919050565b600067ffffffffffffffff82111561296a576129696128d4565b5b6129738261253d565b9050602081019050919050565b82818337600083830152505050565b60006129a261299d8461294f565b612934565b9050828152602081018484840111156129be576129bd6128cf565b5b6129c9848285612980565b509392505050565b600082601f8301126129e6576129e56128ca565b5b81356129f684826020860161298f565b91505092915050565b60008060008060808587031215612a1957612a18612429565b5b6000612a278782880161267f565b9450506020612a388782880161267f565b9350506040612a49878288016125ca565b925050606085013567ffffffffffffffff811115612a6a57612a6961242e565b5b612a76878288016129d1565b91505092959194509250565b600067ffffffffffffffff821115612a9d57612a9c6128d4565b5b612aa68261253d565b9050602081019050919050565b6000612ac6612ac184612a82565b612934565b905082815260208101848484011115612ae257612ae16128cf565b5b612aed848285612980565b509392505050565b600082601f830112612b0a57612b096128ca565b5b8135612b1a848260208601612ab3565b91505092915050565b600060208284031215612b3957612b38612429565b5b600082013567ffffffffffffffff811115612b5757612b5661242e565b5b612b6384828501612af5565b91505092915050565b60008060408385031215612b8357612b82612429565b5b6000612b918582860161267f565b9250506020612ba28582860161267f565b9150509250929050565b7f4e487b7100000000000000000000000000000000000000000000000000000000600052602260045260246000fd5b60006002820490506001821680612bf357607f821691505b60208210811415612c0757612c06612bac565b5b50919050565b7f4552433732313a20617070726f76656420717565727920666f72206e6f6e657860008201527f697374656e7420746f6b656e0000000000000000000000000000000000000000602082015250565b6000612c69602c836124f9565b9150612c7482612c0d565b604082019050919050565b60006020820190508181036000830152612c9881612c5c565b9050919050565b7f4552433732313a20617070726f76616c20746f2063757272656e74206f776e6560008201527f7200000000000000000000000000000000000000000000000000000000000000602082015250565b6000612cfb6021836124f9565b9150612d0682612c9f565b604082019050919050565b60006020820190508181036000830152612d2a81612cee565b9050919050565b7f4552433732313a20617070726f76652063616c6c6572206973206e6f74206f7760008201527f6e6572206e6f7220617070726f76656420666f7220616c6c0000000000000000602082015250565b6000612d8d6038836124f9565b9150612d9882612d31565b604082019050919050565b60006020820190508181036000830152612dbc81612d80565b9050919050565b7f4552433732313a207472616e736665722063616c6c6572206973206e6f74206f60008201527f776e6572206e6f7220617070726f766564000000000000000000000000000000602082015250565b6000612e1f6031836124f9565b9150612e2a82612dc3565b604082019050919050565b60006020820190508181036000830152612e4e81612e12565b9050919050565b7f455243373231456e756d657261626c653a206f776e657220696e646578206f7560008201527f74206f6620626f756e6473000000000000000000000000000000000000000000602082015250565b6000612eb1602b836124f9565b9150612ebc82612e55565b604082019050919050565b60006020820190508181036000830152612ee081612ea4565b9050919050565b7f455243373231456e756d657261626c653a20676c6f62616c20696e646578206f60008201527f7574206f6620626f756e64730000000000000000000000000000000000000000602082015250565b6000612f43602c836124f9565b9150612f4e82612ee7565b604082019050919050565b60006020820190508181036000830152612f7281612f36565b9050919050565b7f4e487b7100000000000000000000000000000000000000000000000000000000600052603260045260246000fd5b7f4552433732313a206f776e657220717565727920666f72206e6f6e657869737460008201527f656e7420746f6b656e0000000000000000000000000000000000000000000000602082015250565b60006130046029836124f9565b915061300f82612fa8565b604082019050919050565b6000602082019050818103600083015261303381612ff7565b9050919050565b7f4552433732313a2062616c616e636520717565727920666f7220746865207a6560008201527f726f206164647265737300000000000000000000000000000000000000000000602082015250565b6000613096602a836124f9565b91506130a18261303a565b604082019050919050565b600060208201905081810360008301526130c581613089565b9050919050565b7f4f776e61626c653a2063616c6c6572206973206e6f7420746865206f776e6572600082015250565b60006131026020836124f9565b915061310d826130cc565b602082019050919050565b60006020820190508181036000830152613131816130f5565b9050919050565b7f4e487b7100000000000000000000000000000000000000000000000000000000600052601160045260246000fd5b6000613172826125a9565b91507fffffffffffffffffffffffffffffffffffffffffffffffffffffffffffffffff8214156131a5576131a4613138565b5b600182019050919050565b7f4552433732313a20617070726f766520746f2063616c6c657200000000000000600082015250565b60006131e66019836124f9565b91506131f1826131b0565b602082019050919050565b60006020820190508181036000830152613215816131d9565b9050919050565b7f4552433732314d657461646174613a2055524920717565727920666f72206e6f60008201527f6e6578697374656e7420746f6b656e0000000000000000000000000000000000602082015250565b6000613278602f836124f9565b91506132838261321c565b604082019050919050565b600060208201905081810360008301526132a78161326b565b9050919050565b600081905092915050565b60006132c4826124ee565b6132ce81856132ae565b93506132de81856020860161250a565b80840191505092915050565b60006132f682856132b9565b915061330282846132b9565b91508190509392505050565b600061331a82846132b9565b915081905092915050565b7f4f776e61626c653a206e6577206f776e657220697320746865207a65726f206160008201527f6464726573730000000000000000000000000000000000000000000000000000602082015250565b60006133816026836124f9565b915061338c82613325565b604082019050919050565b600060208201905081810360008301526133b081613374565b9050919050565b7f4552433732313a206f70657261746f7220717565727920666f72206e6f6e657860008201527f697374656e7420746f6b656e0000000000000000000000000000000000000000602082015250565b6000613413602c836124f9565b915061341e826133b7565b604082019050919050565b6000602082019050818103600083015261344281613406565b9050919050565b7f4552433732313a207472616e73666572206f6620746f6b656e2074686174206960008201527f73206e6f74206f776e0000000000000000000000000000000000000000000000602082015250565b60006134a56029836124f9565b91506134b082613449565b604082019050919050565b600060208201905081810360008301526134d481613498565b9050919050565b7f4552433732313a207472616e7366657220746f20746865207a65726f2061646460008201527f7265737300000000000000000000000000000000000000000000000000000000602082015250565b60006135376024836124f9565b9150613542826134db565b604082019050919050565b600060208201905081810360008301526135668161352a565b9050919050565b6000613578826125a9565b9150613583836125a9565b92508282101561359657613595613138565b5b828203905092915050565b60006135ac826125a9565b91506135b7836125a9565b9250827fffffffffffffffffffffffffffffffffffffffffffffffffffffffffffffffff038211156135ec576135eb613138565b5b828201905092915050565b7f4552433732313a207472616e7366657220746f206e6f6e20455243373231526560008201527f63656976657220696d706c656d656e7465720000000000000000000000000000602082015250565b60006136536032836124f9565b915061365e826135f7565b604082019050919050565b6000602082019050818103600083015261368281613646565b9050919050565b7f4e487b7100000000000000000000000000000000000000000000000000000000600052601260045260246000fd5b60006136c3826125a9565b91506136ce836125a9565b9250826136de576136dd613689565b5b828204905092915050565b60006136f4826125a9565b91506136ff836125a9565b92508261370f5761370e613689565b5b828206905092915050565b7f4552433732313a206d696e7420746f20746865207a65726f2061646472657373600082015250565b60006137506020836124f9565b915061375b8261371a565b602082019050919050565b6000602082019050818103600083015261377f81613743565b9050919050565b7f4552433732313a20746f6b656e20616c7265616479206d696e74656400000000600082015250565b60006137bc601c836124f9565b91506137c782613786565b602082019050919050565b600060208201905081810360008301526137eb816137af565b9050919050565b600081519050919050565b600082825260208201905092915050565b6000613819826137f2565b61382381856137fd565b935061383381856020860161250a565b61383c8161253d565b840191505092915050565b600060808201905061385c600083018761263e565b613869602083018661263e565b61387660408301856126d4565b8181036060830152613888818461380e565b905095945050505050565b6000815190506138a28161245f565b92915050565b6000602082840312156138be576138bd612429565b5b60006138cc84828501613893565b91505092915050565b7f4e487b7100000000000000000000000000000000000000000000000000000000600052603160045260246000fdfea2646970667358221220cd56c64580a7405f753e688ca5927465786d718430e1a2cc8fa5df3afafd799164736f6c634300080a0033697066733a2f2f516d5a62574e4b4a50416a7858754e465345616b73434a5664314d3644614b5156694a4259504b324264704445502f",
  "immutableReferences": {},
  "source": "// SPDX-License-Identifier: MIT\npragma solidity >=0.4.22 <0.9.0;\n\nimport \"@openzeppelin/contracts/token/ERC721/ERC721.sol\";\nimport \"@openzeppelin/contracts/access/Ownable.sol\";\nimport \"@openzeppelin/contracts/utils/math/SafeMath.sol\";\nimport \"@openzeppelin/contracts/utils/Counters.sol\";\nimport \"@openzeppelin/contracts/token/ERC721/extensions/ERC721Enumerable.sol\";\n\ncontract Nft is ERC721, Ownable, ERC721Enumerable {\n    constructor() ERC721(\"Nft\", \"NFT\") {}\n\n    using SafeMath for uint256;\n    using Counters for Counters.Counter;\n\n    uint256 public constant MAX_SUPPLY = 50000;\n    uint256 public constant PRICE = 0.0001 ether;\n    uint256 public constant MAX_PER_MINT = 100;\n    string public baseTokenURI = \"ipfs://QmZbWNKJPAjxXuNFSEaksCJVd1M6DaKQViJBYPK2BdpDEP/\";\n\n    mapping(uint256 => address) tokensToOwner;\n\n    Counters.Counter private _tokenIds;\n    mapping(uint256 => string) tokensList;\n    mapping(string => bool) _tokenExists;\n\n\n    function mint( string memory cid) public returns (uint256 _id){\n        require(!_tokenExists[cid]);\n\n        _id = _tokenIds.current();\n        _mint(msg.sender, _id);\n        tokensToOwner[_id] = msg.sender;\n        tokensList[_tokenIds.current()] = cid;\n        _tokenExists[cid] = true;\n        _tokenIds.increment();\n\n        return _id;\n\n    }\n\n    function tokensOfOwner(address _owner)\n        public\n        view\n        returns (uint256[] memory)\n    {\n        uint256 tokenCount = balanceOf(_owner);\n        uint256[] memory tokensId = new uint256[](tokenCount);\n        // string[] memory  userTokens = new string[](tokenCount);\n\n        for (uint256 i = 0; i < tokenCount; i++) {\n            tokensId[i] = tokenOfOwnerByIndex(_owner, i);\n            // if(tokensId[i]  == i){\n            //    userTokens[i] = tokensList[i];\n            // }\n        }\n        return tokensId;\n    }\n\n    function _baseURI() internal view virtual override returns (string memory) {\n        return baseTokenURI;\n    }\n\n    // The following functions are overrides for ERC721Enumerable required by Solidity.\n    function _beforeTokenTransfer(\n        address from,\n        address to,\n        uint256 tokenId\n    ) internal override(ERC721, ERC721Enumerable) {\n        super._beforeTokenTransfer(from, to, tokenId);\n    }\n\n    function supportsInterface(bytes4 interfaceId)\n        public\n        view\n        override(ERC721, ERC721Enumerable)\n        returns (bool)\n    {\n        return super.supportsInterface(interfaceId);\n    }\n}\n",
  "sourcePath": "/Users/lenahierzi/Developer/consensys/blockchain-developer-bootcamp-final-project/contracts/Nft.sol",
  "compiler": {
    "name": "solc",
    "version": "0.8.10+commit.fc410830.Emscripten.clang"
  },
  "schemaVersion": "3.4.3",
  "updatedAt": "2021-11-26T20:46:49.190Z",
  "devdoc": {
    "kind": "dev",
    "methods": {
      "approve(address,uint256)": {
        "details": "See {IERC721-approve}."
      },
      "balanceOf(address)": {
        "details": "See {IERC721-balanceOf}."
      },
      "getApproved(uint256)": {
        "details": "See {IERC721-getApproved}."
      },
      "isApprovedForAll(address,address)": {
        "details": "See {IERC721-isApprovedForAll}."
      },
      "name()": {
        "details": "See {IERC721Metadata-name}."
      },
      "owner()": {
        "details": "Returns the address of the current owner."
      },
      "ownerOf(uint256)": {
        "details": "See {IERC721-ownerOf}."
      },
      "renounceOwnership()": {
        "details": "Leaves the contract without owner. It will not be possible to call `onlyOwner` functions anymore. Can only be called by the current owner. NOTE: Renouncing ownership will leave the contract without an owner, thereby removing any functionality that is only available to the owner."
      },
      "safeTransferFrom(address,address,uint256)": {
        "details": "See {IERC721-safeTransferFrom}."
      },
      "safeTransferFrom(address,address,uint256,bytes)": {
        "details": "See {IERC721-safeTransferFrom}."
      },
      "setApprovalForAll(address,bool)": {
        "details": "See {IERC721-setApprovalForAll}."
      },
      "symbol()": {
        "details": "See {IERC721Metadata-symbol}."
      },
      "tokenByIndex(uint256)": {
        "details": "See {IERC721Enumerable-tokenByIndex}."
      },
      "tokenOfOwnerByIndex(address,uint256)": {
        "details": "See {IERC721Enumerable-tokenOfOwnerByIndex}."
      },
      "tokenURI(uint256)": {
        "details": "See {IERC721Metadata-tokenURI}."
      },
      "totalSupply()": {
        "details": "See {IERC721Enumerable-totalSupply}."
      },
      "transferFrom(address,address,uint256)": {
        "details": "See {IERC721-transferFrom}."
      },
      "transferOwnership(address)": {
        "details": "Transfers ownership of the contract to a new account (`newOwner`). Can only be called by the current owner."
      }
    },
    "version": 1
  },
  "userdoc": {
    "kind": "user",
    "methods": {},
    "version": 1
  }
}