{
  "contractName": "Nft",
  "abi": [
    {
      "anonymous": false,
      "inputs": [
        {
          "indexed": true,
          "internalType": "address",
          "name": "owner",
          "type": "address"
        },
        {
          "indexed": true,
          "internalType": "address",
          "name": "approved",
          "type": "address"
        },
        {
          "indexed": true,
          "internalType": "uint256",
          "name": "tokenId",
          "type": "uint256"
        }
      ],
      "name": "Approval",
      "type": "event"
    },
    {
      "anonymous": false,
      "inputs": [
        {
          "indexed": true,
          "internalType": "address",
          "name": "owner",
          "type": "address"
        },
        {
          "indexed": true,
          "internalType": "address",
          "name": "operator",
          "type": "address"
        },
        {
          "indexed": false,
          "internalType": "bool",
          "name": "approved",
          "type": "bool"
        }
      ],
      "name": "ApprovalForAll",
      "type": "event"
    },
    {
      "anonymous": false,
      "inputs": [
        {
          "indexed": true,
          "internalType": "address",
          "name": "previousOwner",
          "type": "address"
        },
        {
          "indexed": true,
          "internalType": "address",
          "name": "newOwner",
          "type": "address"
        }
      ],
      "name": "OwnershipTransferred",
      "type": "event"
    },
    {
      "anonymous": false,
      "inputs": [
        {
          "indexed": true,
          "internalType": "address",
          "name": "from",
          "type": "address"
        },
        {
          "indexed": true,
          "internalType": "address",
          "name": "to",
          "type": "address"
        },
        {
          "indexed": true,
          "internalType": "uint256",
          "name": "tokenId",
          "type": "uint256"
        }
      ],
      "name": "Transfer",
      "type": "event"
    },
    {
      "inputs": [],
      "name": "MAX_PER_MINT",
      "outputs": [
        {
          "internalType": "uint256",
          "name": "",
          "type": "uint256"
        }
      ],
      "stateMutability": "view",
      "type": "function",
      "constant": true
    },
    {
      "inputs": [],
      "name": "MAX_SUPPLY",
      "outputs": [
        {
          "internalType": "uint256",
          "name": "",
          "type": "uint256"
        }
      ],
      "stateMutability": "view",
      "type": "function",
      "constant": true
    },
    {
      "inputs": [
        {
          "internalType": "address",
          "name": "to",
          "type": "address"
        },
        {
          "internalType": "uint256",
          "name": "tokenId",
          "type": "uint256"
        }
      ],
      "name": "approve",
      "outputs": [],
      "stateMutability": "nonpayable",
      "type": "function"
    },
    {
      "inputs": [
        {
          "internalType": "address",
          "name": "owner",
          "type": "address"
        }
      ],
      "name": "balanceOf",
      "outputs": [
        {
          "internalType": "uint256",
          "name": "",
          "type": "uint256"
        }
      ],
      "stateMutability": "view",
      "type": "function",
      "constant": true
    },
    {
      "inputs": [
        {
          "internalType": "uint256",
          "name": "tokenId",
          "type": "uint256"
        }
      ],
      "name": "getApproved",
      "outputs": [
        {
          "internalType": "address",
          "name": "",
          "type": "address"
        }
      ],
      "stateMutability": "view",
      "type": "function",
      "constant": true
    },
    {
      "inputs": [
        {
          "internalType": "address",
          "name": "owner",
          "type": "address"
        },
        {
          "internalType": "address",
          "name": "operator",
          "type": "address"
        }
      ],
      "name": "isApprovedForAll",
      "outputs": [
        {
          "internalType": "bool",
          "name": "",
          "type": "bool"
        }
      ],
      "stateMutability": "view",
      "type": "function",
      "constant": true
    },
    {
      "inputs": [],
      "name": "name",
      "outputs": [
        {
          "internalType": "string",
          "name": "",
          "type": "string"
        }
      ],
      "stateMutability": "view",
      "type": "function",
      "constant": true
    },
    {
      "inputs": [],
      "name": "owner",
      "outputs": [
        {
          "internalType": "address",
          "name": "",
          "type": "address"
        }
      ],
      "stateMutability": "view",
      "type": "function",
      "constant": true
    },
    {
      "inputs": [
        {
          "internalType": "uint256",
          "name": "tokenId",
          "type": "uint256"
        }
      ],
      "name": "ownerOf",
      "outputs": [
        {
          "internalType": "address",
          "name": "",
          "type": "address"
        }
      ],
      "stateMutability": "view",
      "type": "function",
      "constant": true
    },
    {
      "inputs": [],
      "name": "renounceOwnership",
      "outputs": [],
      "stateMutability": "nonpayable",
      "type": "function"
    },
    {
      "inputs": [
        {
          "internalType": "address",
          "name": "from",
          "type": "address"
        },
        {
          "internalType": "address",
          "name": "to",
          "type": "address"
        },
        {
          "internalType": "uint256",
          "name": "tokenId",
          "type": "uint256"
        }
      ],
      "name": "safeTransferFrom",
      "outputs": [],
      "stateMutability": "nonpayable",
      "type": "function"
    },
    {
      "inputs": [
        {
          "internalType": "address",
          "name": "from",
          "type": "address"
        },
        {
          "internalType": "address",
          "name": "to",
          "type": "address"
        },
        {
          "internalType": "uint256",
          "name": "tokenId",
          "type": "uint256"
        },
        {
          "internalType": "bytes",
          "name": "_data",
          "type": "bytes"
        }
      ],
      "name": "safeTransferFrom",
      "outputs": [],
      "stateMutability": "nonpayable",
      "type": "function"
    },
    {
      "inputs": [
        {
          "internalType": "address",
          "name": "operator",
          "type": "address"
        },
        {
          "internalType": "bool",
          "name": "approved",
          "type": "bool"
        }
      ],
      "name": "setApprovalForAll",
      "outputs": [],
      "stateMutability": "nonpayable",
      "type": "function"
    },
    {
      "inputs": [],
      "name": "symbol",
      "outputs": [
        {
          "internalType": "string",
          "name": "",
          "type": "string"
        }
      ],
      "stateMutability": "view",
      "type": "function",
      "constant": true
    },
    {
      "inputs": [
        {
          "internalType": "uint256",
          "name": "index",
          "type": "uint256"
        }
      ],
      "name": "tokenByIndex",
      "outputs": [
        {
          "internalType": "uint256",
          "name": "",
          "type": "uint256"
        }
      ],
      "stateMutability": "view",
      "type": "function",
      "constant": true
    },
    {
      "inputs": [
        {
          "internalType": "address",
          "name": "owner",
          "type": "address"
        },
        {
          "internalType": "uint256",
          "name": "index",
          "type": "uint256"
        }
      ],
      "name": "tokenOfOwnerByIndex",
      "outputs": [
        {
          "internalType": "uint256",
          "name": "",
          "type": "uint256"
        }
      ],
      "stateMutability": "view",
      "type": "function",
      "constant": true
    },
    {
      "inputs": [],
      "name": "totalSupply",
      "outputs": [
        {
          "internalType": "uint256",
          "name": "",
          "type": "uint256"
        }
      ],
      "stateMutability": "view",
      "type": "function",
      "constant": true
    },
    {
      "inputs": [
        {
          "internalType": "address",
          "name": "from",
          "type": "address"
        },
        {
          "internalType": "address",
          "name": "to",
          "type": "address"
        },
        {
          "internalType": "uint256",
          "name": "tokenId",
          "type": "uint256"
        }
      ],
      "name": "transferFrom",
      "outputs": [],
      "stateMutability": "nonpayable",
      "type": "function"
    },
    {
      "inputs": [
        {
          "internalType": "address",
          "name": "newOwner",
          "type": "address"
        }
      ],
      "name": "transferOwnership",
      "outputs": [],
      "stateMutability": "nonpayable",
      "type": "function"
    },
    {
      "inputs": [
        {
          "internalType": "address",
          "name": "to",
          "type": "address"
        },
        {
          "internalType": "string",
          "name": "cid",
          "type": "string"
        },
        {
          "internalType": "string",
          "name": "color",
          "type": "string"
        }
      ],
      "name": "mint",
      "outputs": [
        {
          "internalType": "uint256",
          "name": "_id",
          "type": "uint256"
        }
      ],
      "stateMutability": "nonpayable",
      "type": "function"
    },
    {
      "inputs": [
        {
          "internalType": "address",
          "name": "to",
          "type": "address"
        },
        {
          "internalType": "address",
          "name": "partner",
          "type": "address"
        },
        {
          "internalType": "string",
          "name": "cid",
          "type": "string"
        },
        {
          "internalType": "string",
          "name": "color",
          "type": "string"
        }
      ],
      "name": "handShake",
      "outputs": [
        {
          "internalType": "uint256",
          "name": "_id",
          "type": "uint256"
        }
      ],
      "stateMutability": "nonpayable",
      "type": "function"
    },
    {
      "inputs": [
        {
          "internalType": "address",
          "name": "_owner",
          "type": "address"
        }
      ],
      "name": "tokensOfOwner",
      "outputs": [
        {
          "internalType": "uint256[]",
          "name": "",
          "type": "uint256[]"
        }
      ],
      "stateMutability": "view",
      "type": "function",
      "constant": true
    },
    {
      "inputs": [
        {
          "internalType": "uint256",
          "name": "tokenId",
          "type": "uint256"
        }
      ],
      "name": "tokenURI",
      "outputs": [
        {
          "internalType": "string",
          "name": "",
          "type": "string"
        }
      ],
      "stateMutability": "view",
      "type": "function",
      "constant": true
    },
    {
      "inputs": [
        {
          "internalType": "bytes4",
          "name": "interfaceId",
          "type": "bytes4"
        }
      ],
      "name": "supportsInterface",
      "outputs": [
        {
          "internalType": "bool",
          "name": "",
          "type": "bool"
        }
      ],
      "stateMutability": "view",
      "type": "function",
      "constant": true
    }
  ],
  "bytecode": "0x60806040523480156200001157600080fd5b506040518060400160405280600381526020017f4e667400000000000000000000000000000000000000000000000000000000008152506040518060400160405280600781526020017f4f63746f707573000000000000000000000000000000000000000000000000008152508181816000908051906020019062000098929190620001bc565b508060019080519060200190620000b1929190620001bc565b505050620000e6620000d1620000ee640100000000026401000000009004565b620000f6640100000000026401000000009004565b5050620002d1565b600033905090565b6000600660009054906101000a900473ffffffffffffffffffffffffffffffffffffffff16905081600660006101000a81548173ffffffffffffffffffffffffffffffffffffffff021916908373ffffffffffffffffffffffffffffffffffffffff1602179055508173ffffffffffffffffffffffffffffffffffffffff168173ffffffffffffffffffffffffffffffffffffffff167f8be0079c531659141344cd1fd0a4f28419497f9722a3daafe3b4186f6b6457e060405160405180910390a35050565b828054620001ca906200029b565b90600052602060002090601f016020900481019282620001ee57600085556200023a565b82601f106200020957805160ff19168380011785556200023a565b828001600101855582156200023a579182015b82811115620002395782518255916020019190600101906200021c565b5b5090506200024991906200024d565b5090565b5b80821115620002685760008160009055506001016200024e565b5090565b7f4e487b7100000000000000000000000000000000000000000000000000000000600052602260045260246000fd5b60006002820490506001821680620002b457607f821691505b60208210811415620002cb57620002ca6200026c565b5b50919050565b61413e80620002e16000396000f3fe608060405234801561001057600080fd5b5060043610610175576000357c0100000000000000000000000000000000000000000000000000000000900480636352211e116100e05780639907119011610099578063990711901461040c578063a22cb4651461043c578063b88d4fde14610458578063c87b56dd14610474578063e985e9c5146104a4578063f2fde38b146104d457610175565b80636352211e1461033657806370a0823114610366578063715018a6146103965780638462151c146103a05780638da5cb5b146103d057806395d89b41146103ee57610175565b806318160ddd1161013257806318160ddd1461026257806323b872dd146102805780632f745c591461029c57806332cb6b0c146102cc57806342842e0e146102ea5780634f6ccce71461030657610175565b806301ffc9a71461017a57806306fdde03146101aa578063081812fc146101c8578063095ea7b3146101f857806309d42b30146102145780630fe12bb314610232575b600080fd5b610194600480360381019061018f9190612992565b6104f0565b6040516101a191906129da565b60405180910390f35b6101b2610502565b6040516101bf9190612a8e565b60405180910390f35b6101e260048036038101906101dd9190612ae6565b610594565b6040516101ef9190612b54565b60405180910390f35b610212600480360381019061020d9190612b9b565b610619565b005b61021c610731565b6040516102299190612bea565b60405180910390f35b61024c60048036038101906102479190612d3a565b610736565b6040516102599190612bea565b60405180910390f35b61026a610a95565b6040516102779190612bea565b60405180910390f35b61029a60048036038101906102959190612dd9565b610aa2565b005b6102b660048036038101906102b19190612b9b565b610b02565b6040516102c39190612bea565b60405180910390f35b6102d4610ba7565b6040516102e19190612bea565b60405180910390f35b61030460048036038101906102ff9190612dd9565b610bad565b005b610320600480360381019061031b9190612ae6565b610bcd565b60405161032d9190612bea565b60405180910390f35b610350600480360381019061034b9190612ae6565b610c3e565b60405161035d9190612b54565b60405180910390f35b610380600480360381019061037b9190612e2c565b610cf0565b60405161038d9190612bea565b60405180910390f35b61039e610da8565b005b6103ba60048036038101906103b59190612e2c565b610e30565b6040516103c79190612f17565b60405180910390f35b6103d8610ede565b6040516103e59190612b54565b60405180910390f35b6103f6610f08565b6040516104039190612a8e565b60405180910390f35b61042660048036038101906104219190612f39565b610f9a565b6040516104339190612bea565b60405180910390f35b61045660048036038101906104519190612ff0565b611250565b005b610472600480360381019061046d91906130d1565b611266565b005b61048e60048036038101906104899190612ae6565b6112c8565b60405161049b9190612a8e565b60405180910390f35b6104be60048036038101906104b99190613154565b6112da565b6040516104cb91906129da565b60405180910390f35b6104ee60048036038101906104e99190612e2c565b61136e565b005b60006104fb82611466565b9050919050565b606060008054610511906131c3565b80601f016020809104026020016040519081016040528092919081815260200182805461053d906131c3565b801561058a5780601f1061055f5761010080835404028352916020019161058a565b820191906000526020600020905b81548152906001019060200180831161056d57829003601f168201915b5050505050905090565b600061059f826114e0565b6105de576040517f08c379a00000000000000000000000000000000000000000000000000000000081526004016105d590613267565b60405180910390fd5b6004600083815260200190815260200160002060009054906101000a900473ffffffffffffffffffffffffffffffffffffffff169050919050565b600061062482610c3e565b90508073ffffffffffffffffffffffffffffffffffffffff168373ffffffffffffffffffffffffffffffffffffffff161415610695576040517f08c379a000000000000000000000000000000000000000000000000000000000815260040161068c906132f9565b60405180910390fd5b8073ffffffffffffffffffffffffffffffffffffffff166106b461154c565b73ffffffffffffffffffffffffffffffffffffffff1614806106e357506106e2816106dd61154c565b6112da565b5b610722576040517f08c379a00000000000000000000000000000000000000000000000000000000081526004016107199061338b565b60405180910390fd5b61072c8383611554565b505050565b606481565b600082600e8160405161074991906133e7565b908152602001604051809103902060009054906101000a900460ff16156107a5576040517f08c379a000000000000000000000000000000000000000000000000000000000815260040161079c9061344a565b60405180910390fd5b82600f816040516107b691906133e7565b908152602001604051809103902060009054906101000a900460ff1615610812576040517f08c379a0000000000000000000000000000000000000000000000000000000008152600401610809906134b6565b60405180910390fd5b86601060008273ffffffffffffffffffffffffffffffffffffffff1673ffffffffffffffffffffffffffffffffffffffff16815260200190815260200160002060009054906101000a900460ff1661089f576040517f08c379a000000000000000000000000000000000000000000000000000000000815260040161089690613522565b60405180910390fd5b86601060008273ffffffffffffffffffffffffffffffffffffffff1673ffffffffffffffffffffffffffffffffffffffff16815260200190815260200160002060009054906101000a900460ff1661092c576040517f08c379a000000000000000000000000000000000000000000000000000000000815260040161092390613522565b60405180910390fd5b88888073ffffffffffffffffffffffffffffffffffffffff168273ffffffffffffffffffffffffffffffffffffffff16141561099d576040517f08c379a00000000000000000000000000000000000000000000000000000000081526004016109949061358e565b60405180910390fd5b6109a7600d61160d565b96506109b38b8861161b565b8a600c600089815260200190815260200160002060006101000a81548173ffffffffffffffffffffffffffffffffffffffff021916908373ffffffffffffffffffffffffffffffffffffffff1602179055506001600e8a604051610a1791906133e7565b908152602001604051809103902060006101000a81548160ff0219169083151502179055506001600f89604051610a4e91906133e7565b908152602001604051809103902060006101000a81548160ff021916908315150217905550610a7d878a6117e9565b610a87600d611815565b505050505050949350505050565b6000600980549050905090565b610ab3610aad61154c565b8261182b565b610af2576040517f08c379a0000000000000000000000000000000000000000000000000000000008152600401610ae990613620565b60405180910390fd5b610afd838383611909565b505050565b6000610b0d83610cf0565b8210610b4e576040517f08c379a0000000000000000000000000000000000000000000000000000000008152600401610b45906136b2565b60405180910390fd5b600760008473ffffffffffffffffffffffffffffffffffffffff1673ffffffffffffffffffffffffffffffffffffffff168152602001908152602001600020600083815260200190815260200160002054905092915050565b61c35081565b610bc883838360405180602001604052806000815250611266565b505050565b6000610bd7610a95565b8210610c18576040517f08c379a0000000000000000000000000000000000000000000000000000000008152600401610c0f90613744565b60405180910390fd5b60098281548110610c2c57610c2b613764565b5b90600052602060002001549050919050565b6000806002600084815260200190815260200160002060009054906101000a900473ffffffffffffffffffffffffffffffffffffffff169050600073ffffffffffffffffffffffffffffffffffffffff168173ffffffffffffffffffffffffffffffffffffffff161415610ce7576040517f08c379a0000000000000000000000000000000000000000000000000000000008152600401610cde90613805565b60405180910390fd5b80915050919050565b60008073ffffffffffffffffffffffffffffffffffffffff168273ffffffffffffffffffffffffffffffffffffffff161415610d61576040517f08c379a0000000000000000000000000000000000000000000000000000000008152600401610d5890613897565b60405180910390fd5b600360008373ffffffffffffffffffffffffffffffffffffffff1673ffffffffffffffffffffffffffffffffffffffff168152602001908152602001600020549050919050565b610db061154c565b73ffffffffffffffffffffffffffffffffffffffff16610dce610ede565b73ffffffffffffffffffffffffffffffffffffffff1614610e24576040517f08c379a0000000000000000000000000000000000000000000000000000000008152600401610e1b90613903565b60405180910390fd5b610e2e6000611b65565b565b60606000610e3d83610cf0565b905060008167ffffffffffffffff811115610e5b57610e5a612c0f565b5b604051908082528060200260200182016040528015610e895781602001602082028036833780820191505090505b50905060005b82811015610ed357610ea18582610b02565b828281518110610eb457610eb3613764565b5b6020026020010181815250508080610ecb90613952565b915050610e8f565b508092505050919050565b6000600660009054906101000a900473ffffffffffffffffffffffffffffffffffffffff16905090565b606060018054610f17906131c3565b80601f0160208091040260200160405190810160405280929190818152602001828054610f43906131c3565b8015610f905780601f10610f6557610100808354040283529160200191610f90565b820191906000526020600020905b815481529060010190602001808311610f7357829003601f168201915b5050505050905090565b600082600e81604051610fad91906133e7565b908152602001604051809103902060009054906101000a900460ff1615611009576040517f08c379a00000000000000000000000000000000000000000000000000000000081526004016110009061344a565b60405180910390fd5b82600f8160405161101a91906133e7565b908152602001604051809103902060009054906101000a900460ff1615611076576040517f08c379a000000000000000000000000000000000000000000000000000000000815260040161106d906134b6565b60405180910390fd5b85601060008273ffffffffffffffffffffffffffffffffffffffff1673ffffffffffffffffffffffffffffffffffffffff16815260200190815260200160002060009054906101000a900460ff1615611104576040517f08c379a00000000000000000000000000000000000000000000000000000000081526004016110fb906139e7565b60405180910390fd5b61110e600d61160d565b935061111a878561161b565b86600c600086815260200190815260200160002060006101000a81548173ffffffffffffffffffffffffffffffffffffffff021916908373ffffffffffffffffffffffffffffffffffffffff1602179055506001600e8760405161117e91906133e7565b908152602001604051809103902060006101000a81548160ff0219169083151502179055506001601060008973ffffffffffffffffffffffffffffffffffffffff1673ffffffffffffffffffffffffffffffffffffffff16815260200190815260200160002060006101000a81548160ff0219169083151502179055506001600f8660405161120d91906133e7565b908152602001604051809103902060006101000a81548160ff02191690831515021790555061123c84876117e9565b611246600d611815565b5050509392505050565b61126261125b61154c565b8383611c2b565b5050565b61127761127161154c565b8361182b565b6112b6576040517f08c379a00000000000000000000000000000000000000000000000000000000081526004016112ad90613620565b60405180910390fd5b6112c284848484611d98565b50505050565b60606112d382611df4565b9050919050565b6000600560008473ffffffffffffffffffffffffffffffffffffffff1673ffffffffffffffffffffffffffffffffffffffff16815260200190815260200160002060008373ffffffffffffffffffffffffffffffffffffffff1673ffffffffffffffffffffffffffffffffffffffff16815260200190815260200160002060009054906101000a900460ff16905092915050565b61137661154c565b73ffffffffffffffffffffffffffffffffffffffff16611394610ede565b73ffffffffffffffffffffffffffffffffffffffff16146113ea576040517f08c379a00000000000000000000000000000000000000000000000000000000081526004016113e190613903565b60405180910390fd5b600073ffffffffffffffffffffffffffffffffffffffff168173ffffffffffffffffffffffffffffffffffffffff16141561145a576040517f08c379a000000000000000000000000000000000000000000000000000000000815260040161145190613a79565b60405180910390fd5b61146381611b65565b50565b60007f780e9d63000000000000000000000000000000000000000000000000000000007bffffffffffffffffffffffffffffffffffffffffffffffffffffffff1916827bffffffffffffffffffffffffffffffffffffffffffffffffffffffff191614806114d957506114d882611f69565b5b9050919050565b60008073ffffffffffffffffffffffffffffffffffffffff166002600084815260200190815260200160002060009054906101000a900473ffffffffffffffffffffffffffffffffffffffff1673ffffffffffffffffffffffffffffffffffffffff1614159050919050565b600033905090565b816004600083815260200190815260200160002060006101000a81548173ffffffffffffffffffffffffffffffffffffffff021916908373ffffffffffffffffffffffffffffffffffffffff160217905550808273ffffffffffffffffffffffffffffffffffffffff166115c783610c3e565b73ffffffffffffffffffffffffffffffffffffffff167f8c5be1e5ebec7d5bd14f71427d1e84f3dd0314c0f7b2291e5b200ac8c7c3b92560405160405180910390a45050565b600081600001549050919050565b600073ffffffffffffffffffffffffffffffffffffffff168273ffffffffffffffffffffffffffffffffffffffff16141561168b576040517f08c379a000000000000000000000000000000000000000000000000000000000815260040161168290613ae5565b60405180910390fd5b611694816114e0565b156116d4576040517f08c379a00000000000000000000000000000000000000000000000000000000081526004016116cb90613b51565b60405180910390fd5b6116e06000838361204b565b6001600360008473ffffffffffffffffffffffffffffffffffffffff1673ffffffffffffffffffffffffffffffffffffffff16815260200190815260200160002060008282546117309190613b71565b92505081905550816002600083815260200190815260200160002060006101000a81548173ffffffffffffffffffffffffffffffffffffffff021916908373ffffffffffffffffffffffffffffffffffffffff160217905550808273ffffffffffffffffffffffffffffffffffffffff16600073ffffffffffffffffffffffffffffffffffffffff167fddf252ad1be2c89b69c2b068fc378daa952ba7f163c4a11628f55a4df523b3ef60405160405180910390a45050565b80600b60008481526020019081526020016000209080519060200190611810929190612883565b505050565b6001816000016000828254019250508190555050565b6000611836826114e0565b611875576040517f08c379a000000000000000000000000000000000000000000000000000000000815260040161186c90613c39565b60405180910390fd5b600061188083610c3e565b90508073ffffffffffffffffffffffffffffffffffffffff168473ffffffffffffffffffffffffffffffffffffffff1614806118ef57508373ffffffffffffffffffffffffffffffffffffffff166118d784610594565b73ffffffffffffffffffffffffffffffffffffffff16145b8061190057506118ff81856112da565b5b91505092915050565b8273ffffffffffffffffffffffffffffffffffffffff1661192982610c3e565b73ffffffffffffffffffffffffffffffffffffffff161461197f576040517f08c379a000000000000000000000000000000000000000000000000000000000815260040161197690613ccb565b60405180910390fd5b600073ffffffffffffffffffffffffffffffffffffffff168273ffffffffffffffffffffffffffffffffffffffff1614156119ef576040517f08c379a00000000000000000000000000000000000000000000000000000000081526004016119e690613d5d565b60405180910390fd5b6119fa83838361204b565b611a05600082611554565b6001600360008573ffffffffffffffffffffffffffffffffffffffff1673ffffffffffffffffffffffffffffffffffffffff1681526020019081526020016000206000828254611a559190613d7d565b925050819055506001600360008473ffffffffffffffffffffffffffffffffffffffff1673ffffffffffffffffffffffffffffffffffffffff1681526020019081526020016000206000828254611aac9190613b71565b92505081905550816002600083815260200190815260200160002060006101000a81548173ffffffffffffffffffffffffffffffffffffffff021916908373ffffffffffffffffffffffffffffffffffffffff160217905550808273ffffffffffffffffffffffffffffffffffffffff168473ffffffffffffffffffffffffffffffffffffffff167fddf252ad1be2c89b69c2b068fc378daa952ba7f163c4a11628f55a4df523b3ef60405160405180910390a4505050565b6000600660009054906101000a900473ffffffffffffffffffffffffffffffffffffffff16905081600660006101000a81548173ffffffffffffffffffffffffffffffffffffffff021916908373ffffffffffffffffffffffffffffffffffffffff1602179055508173ffffffffffffffffffffffffffffffffffffffff168173ffffffffffffffffffffffffffffffffffffffff167f8be0079c531659141344cd1fd0a4f28419497f9722a3daafe3b4186f6b6457e060405160405180910390a35050565b8173ffffffffffffffffffffffffffffffffffffffff168373ffffffffffffffffffffffffffffffffffffffff161415611c9a576040517f08c379a0000000000000000000000000000000000000000000000000000000008152600401611c9190613dfd565b60405180910390fd5b80600560008573ffffffffffffffffffffffffffffffffffffffff1673ffffffffffffffffffffffffffffffffffffffff16815260200190815260200160002060008473ffffffffffffffffffffffffffffffffffffffff1673ffffffffffffffffffffffffffffffffffffffff16815260200190815260200160002060006101000a81548160ff0219169083151502179055508173ffffffffffffffffffffffffffffffffffffffff168373ffffffffffffffffffffffffffffffffffffffff167f17307eab39ab6107e8899845ad3d59bd9653f200f220920489ca2b5937696c3183604051611d8b91906129da565b60405180910390a3505050565b611da3848484611909565b611daf8484848461205b565b611dee576040517f08c379a0000000000000000000000000000000000000000000000000000000008152600401611de590613e8f565b60405180910390fd5b50505050565b606081611e00816114e0565b611e3f576040517f08c379a0000000000000000000000000000000000000000000000000000000008152600401611e3690613f21565b60405180910390fd5b6000600b60008581526020019081526020016000208054611e5f906131c3565b80601f0160208091040260200160405190810160405280929190818152602001828054611e8b906131c3565b8015611ed85780601f10611ead57610100808354040283529160200191611ed8565b820191906000526020600020905b815481529060010190602001808311611ebb57829003601f168201915b505050505090506000611ee961221b565b9050600081511415611eff578193505050611f63565b600082511115611f34578082604051602001611f1c929190613f41565b60405160208183030381529060405293505050611f63565b80611f3e8661222a565b604051602001611f4f929190613f41565b604051602081830303815290604052935050505b50919050565b60007f80ac58cd000000000000000000000000000000000000000000000000000000007bffffffffffffffffffffffffffffffffffffffffffffffffffffffff1916827bffffffffffffffffffffffffffffffffffffffffffffffffffffffff1916148061203457507f5b5e139f000000000000000000000000000000000000000000000000000000007bffffffffffffffffffffffffffffffffffffffffffffffffffffffff1916827bffffffffffffffffffffffffffffffffffffffffffffffffffffffff1916145b806120445750612043826123aa565b5b9050919050565b612056838383612414565b505050565b600061207c8473ffffffffffffffffffffffffffffffffffffffff16612528565b1561220e578373ffffffffffffffffffffffffffffffffffffffff1663150b7a026120a561154c565b8786866040518563ffffffff167c01000000000000000000000000000000000000000000000000000000000281526004016120e39493929190613fba565b6020604051808303816000875af192505050801561211f57506040513d601f19601f8201168201806040525081019061211c919061401b565b60015b6121a2573d806000811461214f576040519150601f19603f3d011682016040523d82523d6000602084013e612154565b606091505b5060008151141561219a576040517f08c379a000000000000000000000000000000000000000000000000000000000815260040161219190613e8f565b60405180910390fd5b805181602001fd5b63150b7a027c0100000000000000000000000000000000000000000000000000000000027bffffffffffffffffffffffffffffffffffffffffffffffffffffffff1916817bffffffffffffffffffffffffffffffffffffffffffffffffffffffff191614915050612213565b600190505b949350505050565b606061222561253b565b905090565b60606000821415612272576040518060400160405280600181526020017f300000000000000000000000000000000000000000000000000000000000000081525090506123a5565b600082905060005b600082146122a457808061228d90613952565b915050600a8261229d9190614077565b915061227a565b60008167ffffffffffffffff8111156122c0576122bf612c0f565b5b6040519080825280601f01601f1916602001820160405280156122f25781602001600182028036833780820191505090505b5090505b6000851461239e5760018261230b9190613d7d565b9150600a8561231a91906140a8565b60306123269190613b71565b7f01000000000000000000000000000000000000000000000000000000000000000281838151811061235b5761235a613764565b5b60200101907effffffffffffffffffffffffffffffffffffffffffffffffffffffffffffff1916908160001a905350600a856123979190614077565b94506122f6565b8093505050505b919050565b60007f01ffc9a7000000000000000000000000000000000000000000000000000000007bffffffffffffffffffffffffffffffffffffffffffffffffffffffff1916827bffffffffffffffffffffffffffffffffffffffffffffffffffffffff1916149050919050565b61241f838383612578565b600073ffffffffffffffffffffffffffffffffffffffff168373ffffffffffffffffffffffffffffffffffffffff1614156124625761245d8161257d565b6124a1565b8173ffffffffffffffffffffffffffffffffffffffff168373ffffffffffffffffffffffffffffffffffffffff16146124a05761249f83826125c6565b5b5b600073ffffffffffffffffffffffffffffffffffffffff168273ffffffffffffffffffffffffffffffffffffffff1614156124e4576124df81612733565b612523565b8273ffffffffffffffffffffffffffffffffffffffff168273ffffffffffffffffffffffffffffffffffffffff1614612522576125218282612804565b5b5b505050565b600080823b905060008111915050919050565b60606040518060400160405280601581526020017f68747470733a2f2f697066732e696f2f697066732f0000000000000000000000815250905090565b505050565b600980549050600a600083815260200190815260200160002081905550600981908060018154018082558091505060019003906000526020600020016000909190919091505550565b600060016125d384610cf0565b6125dd9190613d7d565b90506000600860008481526020019081526020016000205490508181146126c2576000600760008673ffffffffffffffffffffffffffffffffffffffff1673ffffffffffffffffffffffffffffffffffffffff168152602001908152602001600020600084815260200190815260200160002054905080600760008773ffffffffffffffffffffffffffffffffffffffff1673ffffffffffffffffffffffffffffffffffffffff168152602001908152602001600020600084815260200190815260200160002081905550816008600083815260200190815260200160002081905550505b6008600084815260200190815260200160002060009055600760008573ffffffffffffffffffffffffffffffffffffffff1673ffffffffffffffffffffffffffffffffffffffff16815260200190815260200160002060008381526020019081526020016000206000905550505050565b600060016009805490506127479190613d7d565b90506000600a600084815260200190815260200160002054905060006009838154811061277757612776613764565b5b90600052602060002001549050806009838154811061279957612798613764565b5b906000526020600020018190555081600a600083815260200190815260200160002081905550600a60008581526020019081526020016000206000905560098054806127e8576127e76140d9565b5b6001900381819060005260206000200160009055905550505050565b600061280f83610cf0565b905081600760008573ffffffffffffffffffffffffffffffffffffffff1673ffffffffffffffffffffffffffffffffffffffff168152602001908152602001600020600083815260200190815260200160002081905550806008600084815260200190815260200160002081905550505050565b82805461288f906131c3565b90600052602060002090601f0160209004810192826128b157600085556128f8565b82601f106128ca57805160ff19168380011785556128f8565b828001600101855582156128f8579182015b828111156128f75782518255916020019190600101906128dc565b5b5090506129059190612909565b5090565b5b8082111561292257600081600090555060010161290a565b5090565b6000604051905090565b600080fd5b600080fd5b60007fffffffff0000000000000000000000000000000000000000000000000000000082169050919050565b61296f8161293a565b811461297a57600080fd5b50565b60008135905061298c81612966565b92915050565b6000602082840312156129a8576129a7612930565b5b60006129b68482850161297d565b91505092915050565b60008115159050919050565b6129d4816129bf565b82525050565b60006020820190506129ef60008301846129cb565b92915050565b600081519050919050565b600082825260208201905092915050565b60005b83811015612a2f578082015181840152602081019050612a14565b83811115612a3e576000848401525b50505050565b6000601f19601f8301169050919050565b6000612a60826129f5565b612a6a8185612a00565b9350612a7a818560208601612a11565b612a8381612a44565b840191505092915050565b60006020820190508181036000830152612aa88184612a55565b905092915050565b6000819050919050565b612ac381612ab0565b8114612ace57600080fd5b50565b600081359050612ae081612aba565b92915050565b600060208284031215612afc57612afb612930565b5b6000612b0a84828501612ad1565b91505092915050565b600073ffffffffffffffffffffffffffffffffffffffff82169050919050565b6000612b3e82612b13565b9050919050565b612b4e81612b33565b82525050565b6000602082019050612b696000830184612b45565b92915050565b612b7881612b33565b8114612b8357600080fd5b50565b600081359050612b9581612b6f565b92915050565b60008060408385031215612bb257612bb1612930565b5b6000612bc085828601612b86565b9250506020612bd185828601612ad1565b9150509250929050565b612be481612ab0565b82525050565b6000602082019050612bff6000830184612bdb565b92915050565b600080fd5b600080fd5b7f4e487b7100000000000000000000000000000000000000000000000000000000600052604160045260246000fd5b612c4782612a44565b810181811067ffffffffffffffff82111715612c6657612c65612c0f565b5b80604052505050565b6000612c79612926565b9050612c858282612c3e565b919050565b600067ffffffffffffffff821115612ca557612ca4612c0f565b5b612cae82612a44565b9050602081019050919050565b82818337600083830152505050565b6000612cdd612cd884612c8a565b612c6f565b905082815260208101848484011115612cf957612cf8612c0a565b5b612d04848285612cbb565b509392505050565b600082601f830112612d2157612d20612c05565b5b8135612d31848260208601612cca565b91505092915050565b60008060008060808587031215612d5457612d53612930565b5b6000612d6287828801612b86565b9450506020612d7387828801612b86565b935050604085013567ffffffffffffffff811115612d9457612d93612935565b5b612da087828801612d0c565b925050606085013567ffffffffffffffff811115612dc157612dc0612935565b5b612dcd87828801612d0c565b91505092959194509250565b600080600060608486031215612df257612df1612930565b5b6000612e0086828701612b86565b9350506020612e1186828701612b86565b9250506040612e2286828701612ad1565b9150509250925092565b600060208284031215612e4257612e41612930565b5b6000612e5084828501612b86565b91505092915050565b600081519050919050565b600082825260208201905092915050565b6000819050602082019050919050565b612e8e81612ab0565b82525050565b6000612ea08383612e85565b60208301905092915050565b6000602082019050919050565b6000612ec482612e59565b612ece8185612e64565b9350612ed983612e75565b8060005b83811015612f0a578151612ef18882612e94565b9750612efc83612eac565b925050600181019050612edd565b5085935050505092915050565b60006020820190508181036000830152612f318184612eb9565b905092915050565b600080600060608486031215612f5257612f51612930565b5b6000612f6086828701612b86565b935050602084013567ffffffffffffffff811115612f8157612f80612935565b5b612f8d86828701612d0c565b925050604084013567ffffffffffffffff811115612fae57612fad612935565b5b612fba86828701612d0c565b9150509250925092565b612fcd816129bf565b8114612fd857600080fd5b50565b600081359050612fea81612fc4565b92915050565b6000806040838503121561300757613006612930565b5b600061301585828601612b86565b925050602061302685828601612fdb565b9150509250929050565b600067ffffffffffffffff82111561304b5761304a612c0f565b5b61305482612a44565b9050602081019050919050565b600061307461306f84613030565b612c6f565b9050828152602081018484840111156130905761308f612c0a565b5b61309b848285612cbb565b509392505050565b600082601f8301126130b8576130b7612c05565b5b81356130c8848260208601613061565b91505092915050565b600080600080608085870312156130eb576130ea612930565b5b60006130f987828801612b86565b945050602061310a87828801612b86565b935050604061311b87828801612ad1565b925050606085013567ffffffffffffffff81111561313c5761313b612935565b5b613148878288016130a3565b91505092959194509250565b6000806040838503121561316b5761316a612930565b5b600061317985828601612b86565b925050602061318a85828601612b86565b9150509250929050565b7f4e487b7100000000000000000000000000000000000000000000000000000000600052602260045260246000fd5b600060028204905060018216806131db57607f821691505b602082108114156131ef576131ee613194565b5b50919050565b7f4552433732313a20617070726f76656420717565727920666f72206e6f6e657860008201527f697374656e7420746f6b656e0000000000000000000000000000000000000000602082015250565b6000613251602c83612a00565b915061325c826131f5565b604082019050919050565b6000602082019050818103600083015261328081613244565b9050919050565b7f4552433732313a20617070726f76616c20746f2063757272656e74206f776e6560008201527f7200000000000000000000000000000000000000000000000000000000000000602082015250565b60006132e3602183612a00565b91506132ee82613287565b604082019050919050565b60006020820190508181036000830152613312816132d6565b9050919050565b7f4552433732313a20617070726f76652063616c6c6572206973206e6f74206f7760008201527f6e6572206e6f7220617070726f76656420666f7220616c6c0000000000000000602082015250565b6000613375603883612a00565b915061338082613319565b604082019050919050565b600060208201905081810360008301526133a481613368565b9050919050565b600081905092915050565b60006133c1826129f5565b6133cb81856133ab565b93506133db818560208601612a11565b80840191505092915050565b60006133f382846133b6565b915081905092915050565b7f546f6b656e20616c726561647920657869737473000000000000000000000000600082015250565b6000613434601483612a00565b915061343f826133fe565b602082019050919050565b6000602082019050818103600083015261346381613427565b9050919050565b7f436f6c6f7220616c726561647920657869737473000000000000000000000000600082015250565b60006134a0601483612a00565b91506134ab8261346a565b602082019050919050565b600060208201905081810360008301526134cf81613493565b9050919050565b7f5573657220646f65736e27742065786973747300000000000000000000000000600082015250565b600061350c601383612a00565b9150613517826134d6565b602082019050919050565b6000602082019050818103600083015261353b816134ff565b9050919050565b7f416464726573732073616d65206173206d6573736167652073656e6465720000600082015250565b6000613578601e83612a00565b915061358382613542565b602082019050919050565b600060208201905081810360008301526135a78161356b565b9050919050565b7f4552433732313a207472616e736665722063616c6c6572206973206e6f74206f60008201527f776e6572206e6f7220617070726f766564000000000000000000000000000000602082015250565b600061360a603183612a00565b9150613615826135ae565b604082019050919050565b60006020820190508181036000830152613639816135fd565b9050919050565b7f455243373231456e756d657261626c653a206f776e657220696e646578206f7560008201527f74206f6620626f756e6473000000000000000000000000000000000000000000602082015250565b600061369c602b83612a00565b91506136a782613640565b604082019050919050565b600060208201905081810360008301526136cb8161368f565b9050919050565b7f455243373231456e756d657261626c653a20676c6f62616c20696e646578206f60008201527f7574206f6620626f756e64730000000000000000000000000000000000000000602082015250565b600061372e602c83612a00565b9150613739826136d2565b604082019050919050565b6000602082019050818103600083015261375d81613721565b9050919050565b7f4e487b7100000000000000000000000000000000000000000000000000000000600052603260045260246000fd5b7f4552433732313a206f776e657220717565727920666f72206e6f6e657869737460008201527f656e7420746f6b656e0000000000000000000000000000000000000000000000602082015250565b60006137ef602983612a00565b91506137fa82613793565b604082019050919050565b6000602082019050818103600083015261381e816137e2565b9050919050565b7f4552433732313a2062616c616e636520717565727920666f7220746865207a6560008201527f726f206164647265737300000000000000000000000000000000000000000000602082015250565b6000613881602a83612a00565b915061388c82613825565b604082019050919050565b600060208201905081810360008301526138b081613874565b9050919050565b7f4f776e61626c653a2063616c6c6572206973206e6f7420746865206f776e6572600082015250565b60006138ed602083612a00565b91506138f8826138b7565b602082019050919050565b6000602082019050818103600083015261391c816138e0565b9050919050565b7f4e487b7100000000000000000000000000000000000000000000000000000000600052601160045260246000fd5b600061395d82612ab0565b91507fffffffffffffffffffffffffffffffffffffffffffffffffffffffffffffffff8214156139905761398f613923565b5b600182019050919050565b7f5573657220616c72656164792020657869737473000000000000000000000000600082015250565b60006139d1601483612a00565b91506139dc8261399b565b602082019050919050565b60006020820190508181036000830152613a00816139c4565b9050919050565b7f4f776e61626c653a206e6577206f776e657220697320746865207a65726f206160008201527f6464726573730000000000000000000000000000000000000000000000000000602082015250565b6000613a63602683612a00565b9150613a6e82613a07565b604082019050919050565b60006020820190508181036000830152613a9281613a56565b9050919050565b7f4552433732313a206d696e7420746f20746865207a65726f2061646472657373600082015250565b6000613acf602083612a00565b9150613ada82613a99565b602082019050919050565b60006020820190508181036000830152613afe81613ac2565b9050919050565b7f4552433732313a20746f6b656e20616c7265616479206d696e74656400000000600082015250565b6000613b3b601c83612a00565b9150613b4682613b05565b602082019050919050565b60006020820190508181036000830152613b6a81613b2e565b9050919050565b6000613b7c82612ab0565b9150613b8783612ab0565b9250827fffffffffffffffffffffffffffffffffffffffffffffffffffffffffffffffff03821115613bbc57613bbb613923565b5b828201905092915050565b7f4552433732313a206f70657261746f7220717565727920666f72206e6f6e657860008201527f697374656e7420746f6b656e0000000000000000000000000000000000000000602082015250565b6000613c23602c83612a00565b9150613c2e82613bc7565b604082019050919050565b60006020820190508181036000830152613c5281613c16565b9050919050565b7f4552433732313a207472616e73666572206f6620746f6b656e2074686174206960008201527f73206e6f74206f776e0000000000000000000000000000000000000000000000602082015250565b6000613cb5602983612a00565b9150613cc082613c59565b604082019050919050565b60006020820190508181036000830152613ce481613ca8565b9050919050565b7f4552433732313a207472616e7366657220746f20746865207a65726f2061646460008201527f7265737300000000000000000000000000000000000000000000000000000000602082015250565b6000613d47602483612a00565b9150613d5282613ceb565b604082019050919050565b60006020820190508181036000830152613d7681613d3a565b9050919050565b6000613d8882612ab0565b9150613d9383612ab0565b925082821015613da657613da5613923565b5b828203905092915050565b7f4552433732313a20617070726f766520746f2063616c6c657200000000000000600082015250565b6000613de7601983612a00565b9150613df282613db1565b602082019050919050565b60006020820190508181036000830152613e1681613dda565b9050919050565b7f4552433732313a207472616e7366657220746f206e6f6e20455243373231526560008201527f63656976657220696d706c656d656e7465720000000000000000000000000000602082015250565b6000613e79603283612a00565b9150613e8482613e1d565b604082019050919050565b60006020820190508181036000830152613ea881613e6c565b9050919050565b7f4552433732314d657461646174613a2055524920717565727920666f72206e6f60008201527f6e6578697374656e7420746f6b656e0000000000000000000000000000000000602082015250565b6000613f0b602f83612a00565b9150613f1682613eaf565b604082019050919050565b60006020820190508181036000830152613f3a81613efe565b9050919050565b6000613f4d82856133b6565b9150613f5982846133b6565b91508190509392505050565b600081519050919050565b600082825260208201905092915050565b6000613f8c82613f65565b613f968185613f70565b9350613fa6818560208601612a11565b613faf81612a44565b840191505092915050565b6000608082019050613fcf6000830187612b45565b613fdc6020830186612b45565b613fe96040830185612bdb565b8181036060830152613ffb8184613f81565b905095945050505050565b60008151905061401581612966565b92915050565b60006020828403121561403157614030612930565b5b600061403f84828501614006565b91505092915050565b7f4e487b7100000000000000000000000000000000000000000000000000000000600052601260045260246000fd5b600061408282612ab0565b915061408d83612ab0565b92508261409d5761409c614048565b5b828204905092915050565b60006140b382612ab0565b91506140be83612ab0565b9250826140ce576140cd614048565b5b828206905092915050565b7f4e487b7100000000000000000000000000000000000000000000000000000000600052603160045260246000fdfea2646970667358221220f51b78274e1302522891d347e4350683306d9136c3aecfa65c356a995acc976864736f6c634300080a0033",
  "immutableReferences": {},
  "source": "// SPDX-License-Identifier: MIT\npragma solidity 0.8.10;\n/// @title An NFT game for newcomer to the blockchain world. Can be used complementary to Bootcamps to get used to MetaMask and Dapps.\n/// @author Lena Hierzi\n/// @notice This contract is not aiming for security as it is designed for a playful entry into Dapps and only to be deployed on testnet.\n/// @custom:experimental This is an experimental contract.\n\nimport \"@openzeppelin/contracts/token/ERC721/ERC721.sol\";\nimport \"@openzeppelin/contracts/access/Ownable.sol\";\nimport \"@openzeppelin/contracts/utils/math/SafeMath.sol\";\nimport \"@openzeppelin/contracts/utils/Counters.sol\";\nimport \"@openzeppelin/contracts/token/ERC721/extensions/ERC721Enumerable.sol\";\nimport \"./BaseContract.sol\";\n\ncontract Nft is\n    ERC721,\n    Ownable,\n    ERC721Enumerable,\n    BaseContract(\"Nft\", \"Octopus\")\n{\n    using SafeMath for uint256;\n    using Strings for uint256;\n    using Counters for Counters.Counter;\n    uint256 public constant MAX_SUPPLY = 50000;\n    // uint256 public constant PRICE = 0.0001 ether;\n    uint256 public constant MAX_PER_MINT = 100;\n    mapping(uint256 => address) tokensToOwner;\n\n    Counters.Counter private _tokenIds;\n    mapping(string => bool) _tokenExists;\n    mapping(string => bool) _colorExists;\n    mapping(address => bool) _userExists;\n\n    /*\n     * Modifiers\n     */\n    modifier tokenUnique(string memory token) {\n        require(!_tokenExists[token], \"Token already exists\");\n        _;\n    }\n    modifier colorUnique(string memory color) {\n        require(!_colorExists[color], \"Color already exists\");\n        _;\n    }\n    modifier userDoesntExists(address user) {\n        require(!_userExists[user], \"User already  exists\");\n        _;\n    }\n    modifier userExists(address user) {\n        require(_userExists[user], \"User doesn't exists\");\n        _;\n    }\n    modifier addressNotSender(address user1, address user2) {\n        require(user1 != user2, \"Address same as message sender\");\n        _;\n    }\n\n    /// @notice  Token is minted. Can only be called once by every user.\n    /// @param to The address, the Token should be transfered to\n    /// @param cid The CID of the Tokens metadata\n    /// @return _id\n    function mint(\n        address to,\n        string memory cid,\n        string memory color\n    )\n        public\n        tokenUnique(cid)\n        colorUnique(color)\n        userDoesntExists(to)\n        returns (uint256 _id)\n    {\n        _id = _tokenIds.current();\n        _mint(to, _id);\n        tokensToOwner[_id] = to;\n        _tokenExists[cid] = true;\n        _userExists[to] = true;\n        _colorExists[color] = true;\n        _setTokenURI(_id, cid);\n        _tokenIds.increment();\n\n        return _id;\n    }\n\n    /// @notice  Token is minted. the color of the NFT is calculated in the FE.\n    /// @dev TODO add color so you can check that user don't handshake twice\n    /// @param to The address, the Token should be transfered to\n    /// @param partner The address of the person the user interacted with\n    /// @param cid The CID of the Tokens metadata\n    /// @return _id\n    function handShake(\n        address to,\n        address partner,\n        string memory cid,\n        string memory color\n    )\n        public\n        tokenUnique(cid)\n        colorUnique(color)\n        userExists(to)\n        userExists(partner)\n        addressNotSender(to, partner)\n        returns (uint256 _id)\n    {\n        _id = _tokenIds.current();\n        _mint(to, _id);\n        tokensToOwner[_id] = to;\n        _tokenExists[cid] = true;\n        _colorExists[color] = true;\n        _setTokenURI(_id, cid);\n        _tokenIds.increment();\n\n        return _id;\n    }\n\n    /// @notice Returns the ids of tokens of one owner\n    /// @param _owner The person that wants to know which tokens belong to them\n    /// @return userTokens  all ids of tokens belonging to one owner\n    function tokensOfOwner(address _owner)\n        public\n        view\n        returns (uint256[] memory)\n    {\n        uint256 tokenCount = balanceOf(_owner);\n        uint256[] memory tokenIds = new uint256[](tokenCount);\n        // string[] memory userTokens = new string[](tokenCount);\n\n        for (uint256 i = 0; i < tokenCount; i++) {\n            tokenIds[i] = tokenOfOwnerByIndex(_owner, i);\n            // if(tokensId[i]  == i){\n            //    userTokens[i] = tokensList[i];\n            // }\n        }\n        return tokenIds;\n    }\n\n    // The following functions are overrides for the BaseContract.\n\n    function _baseURI()\n        internal\n        view\n        virtual\n        override(BaseContract, ERC721)\n        returns (string memory)\n    {\n        return super._baseURI();\n    }\n\n    function tokenURI(uint256 tokenId)\n        public\n        view\n        virtual\n        override(BaseContract, ERC721)\n        returns (string memory)\n    {\n        return super.tokenURI(tokenId);\n    }\n\n    // The following functions are overrides for ERC721Enumerable required by Solidity.\n    function _beforeTokenTransfer(\n        address from,\n        address to,\n        uint256 tokenId\n    ) internal override(ERC721, ERC721Enumerable) {\n        super._beforeTokenTransfer(from, to, tokenId);\n    }\n\n    function supportsInterface(bytes4 interfaceId)\n        public\n        view\n        override(ERC721, ERC721Enumerable)\n        returns (bool)\n    {\n        return super.supportsInterface(interfaceId);\n    }\n}\n",
  "sourcePath": "/Users/lenahierzi/Developer/consensys/blockchain-developer-bootcamp-final-project/contracts/NFT.sol",
  "compiler": {
    "name": "solc",
    "version": "0.8.10+commit.fc410830.Emscripten.clang"
  },
  "schemaVersion": "3.4.3",
  "updatedAt": "2022-01-09T15:45:43.544Z",
  "networkType": "ethereum",
  "devdoc": {
    "kind": "dev",
    "methods": {
      "approve(address,uint256)": {
        "details": "See {IERC721-approve}."
      },
      "balanceOf(address)": {
        "details": "See {IERC721-balanceOf}."
      },
      "getApproved(uint256)": {
        "details": "See {IERC721-getApproved}."
      },
      "handShake(address,address,string,string)": {
        "details": "TODO add color so you can check that user don't handshake twice",
        "params": {
          "cid": "The CID of the Tokens metadata",
          "partner": "The address of the person the user interacted with",
          "to": "The address, the Token should be transfered to"
        },
        "returns": {
          "_id": "_id"
        }
      },
      "isApprovedForAll(address,address)": {
        "details": "See {IERC721-isApprovedForAll}."
      },
      "mint(address,string,string)": {
        "params": {
          "cid": "The CID of the Tokens metadata",
          "to": "The address, the Token should be transfered to"
        },
        "returns": {
          "_id": "_id"
        }
      },
      "name()": {
        "details": "See {IERC721Metadata-name}."
      },
      "owner()": {
        "details": "Returns the address of the current owner."
      },
      "ownerOf(uint256)": {
        "details": "See {IERC721-ownerOf}."
      },
      "renounceOwnership()": {
        "details": "Leaves the contract without owner. It will not be possible to call `onlyOwner` functions anymore. Can only be called by the current owner. NOTE: Renouncing ownership will leave the contract without an owner, thereby removing any functionality that is only available to the owner."
      },
      "safeTransferFrom(address,address,uint256)": {
        "details": "See {IERC721-safeTransferFrom}."
      },
      "safeTransferFrom(address,address,uint256,bytes)": {
        "details": "See {IERC721-safeTransferFrom}."
      },
      "setApprovalForAll(address,bool)": {
        "details": "See {IERC721-setApprovalForAll}."
      },
      "symbol()": {
        "details": "See {IERC721Metadata-symbol}."
      },
      "tokenByIndex(uint256)": {
        "details": "See {IERC721Enumerable-tokenByIndex}."
      },
      "tokenOfOwnerByIndex(address,uint256)": {
        "details": "See {IERC721Enumerable-tokenOfOwnerByIndex}."
      },
      "tokensOfOwner(address)": {
        "params": {
          "_owner": "The person that wants to know which tokens belong to them"
        },
        "returns": {
          "_0": "userTokens  all ids of tokens belonging to one owner"
        }
      },
      "totalSupply()": {
        "details": "See {IERC721Enumerable-totalSupply}."
      },
      "transferFrom(address,address,uint256)": {
        "details": "See {IERC721-transferFrom}."
      },
      "transferOwnership(address)": {
        "details": "Transfers ownership of the contract to a new account (`newOwner`). Can only be called by the current owner."
      }
    },
    "version": 1
  },
  "userdoc": {
    "kind": "user",
    "methods": {
      "handShake(address,address,string,string)": {
        "notice": "Token is minted. the color of the NFT is calculated in the FE."
      },
      "mint(address,string,string)": {
        "notice": "Token is minted. Can only be called once by every user."
      },
      "tokensOfOwner(address)": {
        "notice": "Returns the ids of tokens of one owner"
      }
    },
    "version": 1
  }
}