{
  "contractName": "Nft",
  "abi": [
    {
      "anonymous": false,
      "inputs": [
        {
          "indexed": true,
          "internalType": "address",
          "name": "owner",
          "type": "address"
        },
        {
          "indexed": true,
          "internalType": "address",
          "name": "approved",
          "type": "address"
        },
        {
          "indexed": true,
          "internalType": "uint256",
          "name": "tokenId",
          "type": "uint256"
        }
      ],
      "name": "Approval",
      "type": "event"
    },
    {
      "anonymous": false,
      "inputs": [
        {
          "indexed": true,
          "internalType": "address",
          "name": "owner",
          "type": "address"
        },
        {
          "indexed": true,
          "internalType": "address",
          "name": "operator",
          "type": "address"
        },
        {
          "indexed": false,
          "internalType": "bool",
          "name": "approved",
          "type": "bool"
        }
      ],
      "name": "ApprovalForAll",
      "type": "event"
    },
    {
      "anonymous": false,
      "inputs": [
        {
          "indexed": true,
          "internalType": "address",
          "name": "previousOwner",
          "type": "address"
        },
        {
          "indexed": true,
          "internalType": "address",
          "name": "newOwner",
          "type": "address"
        }
      ],
      "name": "OwnershipTransferred",
      "type": "event"
    },
    {
      "anonymous": false,
      "inputs": [
        {
          "indexed": true,
          "internalType": "address",
          "name": "from",
          "type": "address"
        },
        {
          "indexed": true,
          "internalType": "address",
          "name": "to",
          "type": "address"
        },
        {
          "indexed": true,
          "internalType": "uint256",
          "name": "tokenId",
          "type": "uint256"
        }
      ],
      "name": "Transfer",
      "type": "event"
    },
    {
      "inputs": [],
      "name": "MAX_PER_MINT",
      "outputs": [
        {
          "internalType": "uint256",
          "name": "",
          "type": "uint256"
        }
      ],
      "stateMutability": "view",
      "type": "function",
      "constant": true
    },
    {
      "inputs": [],
      "name": "MAX_SUPPLY",
      "outputs": [
        {
          "internalType": "uint256",
          "name": "",
          "type": "uint256"
        }
      ],
      "stateMutability": "view",
      "type": "function",
      "constant": true
    },
    {
      "inputs": [],
      "name": "PRICE",
      "outputs": [
        {
          "internalType": "uint256",
          "name": "",
          "type": "uint256"
        }
      ],
      "stateMutability": "view",
      "type": "function",
      "constant": true
    },
    {
      "inputs": [
        {
          "internalType": "address",
          "name": "to",
          "type": "address"
        },
        {
          "internalType": "uint256",
          "name": "tokenId",
          "type": "uint256"
        }
      ],
      "name": "approve",
      "outputs": [],
      "stateMutability": "nonpayable",
      "type": "function"
    },
    {
      "inputs": [
        {
          "internalType": "address",
          "name": "owner",
          "type": "address"
        }
      ],
      "name": "balanceOf",
      "outputs": [
        {
          "internalType": "uint256",
          "name": "",
          "type": "uint256"
        }
      ],
      "stateMutability": "view",
      "type": "function",
      "constant": true
    },
    {
      "inputs": [],
      "name": "baseTokenURI",
      "outputs": [
        {
          "internalType": "string",
          "name": "",
          "type": "string"
        }
      ],
      "stateMutability": "view",
      "type": "function",
      "constant": true
    },
    {
      "inputs": [
        {
          "internalType": "uint256",
          "name": "tokenId",
          "type": "uint256"
        }
      ],
      "name": "getApproved",
      "outputs": [
        {
          "internalType": "address",
          "name": "",
          "type": "address"
        }
      ],
      "stateMutability": "view",
      "type": "function",
      "constant": true
    },
    {
      "inputs": [
        {
          "internalType": "address",
          "name": "owner",
          "type": "address"
        },
        {
          "internalType": "address",
          "name": "operator",
          "type": "address"
        }
      ],
      "name": "isApprovedForAll",
      "outputs": [
        {
          "internalType": "bool",
          "name": "",
          "type": "bool"
        }
      ],
      "stateMutability": "view",
      "type": "function",
      "constant": true
    },
    {
      "inputs": [],
      "name": "name",
      "outputs": [
        {
          "internalType": "string",
          "name": "",
          "type": "string"
        }
      ],
      "stateMutability": "view",
      "type": "function",
      "constant": true
    },
    {
      "inputs": [],
      "name": "owner",
      "outputs": [
        {
          "internalType": "address",
          "name": "",
          "type": "address"
        }
      ],
      "stateMutability": "view",
      "type": "function",
      "constant": true
    },
    {
      "inputs": [
        {
          "internalType": "uint256",
          "name": "tokenId",
          "type": "uint256"
        }
      ],
      "name": "ownerOf",
      "outputs": [
        {
          "internalType": "address",
          "name": "",
          "type": "address"
        }
      ],
      "stateMutability": "view",
      "type": "function",
      "constant": true
    },
    {
      "inputs": [],
      "name": "renounceOwnership",
      "outputs": [],
      "stateMutability": "nonpayable",
      "type": "function"
    },
    {
      "inputs": [
        {
          "internalType": "address",
          "name": "from",
          "type": "address"
        },
        {
          "internalType": "address",
          "name": "to",
          "type": "address"
        },
        {
          "internalType": "uint256",
          "name": "tokenId",
          "type": "uint256"
        }
      ],
      "name": "safeTransferFrom",
      "outputs": [],
      "stateMutability": "nonpayable",
      "type": "function"
    },
    {
      "inputs": [
        {
          "internalType": "address",
          "name": "from",
          "type": "address"
        },
        {
          "internalType": "address",
          "name": "to",
          "type": "address"
        },
        {
          "internalType": "uint256",
          "name": "tokenId",
          "type": "uint256"
        },
        {
          "internalType": "bytes",
          "name": "_data",
          "type": "bytes"
        }
      ],
      "name": "safeTransferFrom",
      "outputs": [],
      "stateMutability": "nonpayable",
      "type": "function"
    },
    {
      "inputs": [
        {
          "internalType": "address",
          "name": "operator",
          "type": "address"
        },
        {
          "internalType": "bool",
          "name": "approved",
          "type": "bool"
        }
      ],
      "name": "setApprovalForAll",
      "outputs": [],
      "stateMutability": "nonpayable",
      "type": "function"
    },
    {
      "inputs": [
        {
          "internalType": "string",
          "name": "baseURI_",
          "type": "string"
        }
      ],
      "name": "setBaseURI",
      "outputs": [],
      "stateMutability": "nonpayable",
      "type": "function"
    },
    {
      "inputs": [],
      "name": "symbol",
      "outputs": [
        {
          "internalType": "string",
          "name": "",
          "type": "string"
        }
      ],
      "stateMutability": "view",
      "type": "function",
      "constant": true
    },
    {
      "inputs": [
        {
          "internalType": "uint256",
          "name": "index",
          "type": "uint256"
        }
      ],
      "name": "tokenByIndex",
      "outputs": [
        {
          "internalType": "uint256",
          "name": "",
          "type": "uint256"
        }
      ],
      "stateMutability": "view",
      "type": "function",
      "constant": true
    },
    {
      "inputs": [
        {
          "internalType": "address",
          "name": "owner",
          "type": "address"
        },
        {
          "internalType": "uint256",
          "name": "index",
          "type": "uint256"
        }
      ],
      "name": "tokenOfOwnerByIndex",
      "outputs": [
        {
          "internalType": "uint256",
          "name": "",
          "type": "uint256"
        }
      ],
      "stateMutability": "view",
      "type": "function",
      "constant": true
    },
    {
      "inputs": [],
      "name": "totalSupply",
      "outputs": [
        {
          "internalType": "uint256",
          "name": "",
          "type": "uint256"
        }
      ],
      "stateMutability": "view",
      "type": "function",
      "constant": true
    },
    {
      "inputs": [
        {
          "internalType": "address",
          "name": "from",
          "type": "address"
        },
        {
          "internalType": "address",
          "name": "to",
          "type": "address"
        },
        {
          "internalType": "uint256",
          "name": "tokenId",
          "type": "uint256"
        }
      ],
      "name": "transferFrom",
      "outputs": [],
      "stateMutability": "nonpayable",
      "type": "function"
    },
    {
      "inputs": [
        {
          "internalType": "address",
          "name": "newOwner",
          "type": "address"
        }
      ],
      "name": "transferOwnership",
      "outputs": [],
      "stateMutability": "nonpayable",
      "type": "function"
    },
    {
      "inputs": [
        {
          "internalType": "address",
          "name": "to",
          "type": "address"
        },
        {
          "internalType": "string",
          "name": "cid",
          "type": "string"
        }
      ],
      "name": "mint",
      "outputs": [
        {
          "internalType": "uint256",
          "name": "_id",
          "type": "uint256"
        }
      ],
      "stateMutability": "nonpayable",
      "type": "function"
    },
    {
      "inputs": [
        {
          "internalType": "address",
          "name": "_owner",
          "type": "address"
        }
      ],
      "name": "tokensOfOwner",
      "outputs": [
        {
          "internalType": "uint256[]",
          "name": "",
          "type": "uint256[]"
        }
      ],
      "stateMutability": "view",
      "type": "function",
      "constant": true
    },
    {
      "inputs": [
        {
          "internalType": "uint256",
          "name": "tokenId",
          "type": "uint256"
        }
      ],
      "name": "tokenURI",
      "outputs": [
        {
          "internalType": "string",
          "name": "",
          "type": "string"
        }
      ],
      "stateMutability": "view",
      "type": "function",
      "constant": true
    },
    {
      "inputs": [
        {
          "internalType": "bytes4",
          "name": "interfaceId",
          "type": "bytes4"
        }
      ],
      "name": "supportsInterface",
      "outputs": [
        {
          "internalType": "bool",
          "name": "",
          "type": "bool"
        }
      ],
      "stateMutability": "view",
      "type": "function",
      "constant": true
    }
  ],
  "bytecode": "0x60806040526040518060400160405280601581526020017f68747470733a2f2f697066732e696f2f697066732f0000000000000000000000815250600d9080519060200190620000519291906200020a565b503480156200005f57600080fd5b506040518060400160405280600381526020017f4e667400000000000000000000000000000000000000000000000000000000008152506040518060400160405280600481526020017f4e4654310000000000000000000000000000000000000000000000000000000081525081818160009080519060200190620000e69291906200020a565b508060019080519060200190620000ff9291906200020a565b505050620001346200011f6200013c640100000000026401000000009004565b62000144640100000000026401000000009004565b50506200031f565b600033905090565b6000600660009054906101000a900473ffffffffffffffffffffffffffffffffffffffff16905081600660006101000a81548173ffffffffffffffffffffffffffffffffffffffff021916908373ffffffffffffffffffffffffffffffffffffffff1602179055508173ffffffffffffffffffffffffffffffffffffffff168173ffffffffffffffffffffffffffffffffffffffff167f8be0079c531659141344cd1fd0a4f28419497f9722a3daafe3b4186f6b6457e060405160405180910390a35050565b8280546200021890620002e9565b90600052602060002090601f0160209004810192826200023c576000855562000288565b82601f106200025757805160ff191683800117855562000288565b8280016001018555821562000288579182015b82811115620002875782518255916020019190600101906200026a565b5b5090506200029791906200029b565b5090565b5b80821115620002b65760008160009055506001016200029c565b5090565b7f4e487b7100000000000000000000000000000000000000000000000000000000600052602260045260246000fd5b600060028204905060018216806200030257607f821691505b60208210811415620003195762000318620002ba565b5b50919050565b613ced806200032f6000396000f3fe608060405234801561001057600080fd5b50600436106101ab576000357c01000000000000000000000000000000000000000000000000000000009004806370a08231116100fb578063a22cb465116100b4578063d0def5211161008e578063d0def521146104b4578063d547cfb7146104e4578063e985e9c514610502578063f2fde38b14610532576101ab565b8063a22cb4651461044c578063b88d4fde14610468578063c87b56dd14610484576101ab565b806370a0823114610388578063715018a6146103b85780638462151c146103c25780638d859f3e146103f25780638da5cb5b1461041057806395d89b411461042e576101ab565b806323b872dd1161016857806342842e0e1161014257806342842e0e146102f05780634f6ccce71461030c57806355f804b31461033c5780636352211e14610358576101ab565b806323b872dd146102865780632f745c59146102a257806332cb6b0c146102d2576101ab565b806301ffc9a7146101b057806306fdde03146101e0578063081812fc146101fe578063095ea7b31461022e57806309d42b301461024a57806318160ddd14610268575b600080fd5b6101ca60048036038101906101c591906126e4565b61054e565b6040516101d7919061272c565b60405180910390f35b6101e8610560565b6040516101f591906127e0565b60405180910390f35b61021860048036038101906102139190612838565b6105f2565b60405161022591906128a6565b60405180910390f35b610248600480360381019061024391906128ed565b610677565b005b61025261078f565b60405161025f919061293c565b60405180910390f35b610270610794565b60405161027d919061293c565b60405180910390f35b6102a0600480360381019061029b9190612957565b6107a1565b005b6102bc60048036038101906102b791906128ed565b610801565b6040516102c9919061293c565b60405180910390f35b6102da6108a6565b6040516102e7919061293c565b60405180910390f35b61030a60048036038101906103059190612957565b6108ac565b005b61032660048036038101906103219190612838565b6108cc565b604051610333919061293c565b60405180910390f35b61035660048036038101906103519190612adf565b61093d565b005b610372600480360381019061036d9190612838565b6109d3565b60405161037f91906128a6565b60405180910390f35b6103a2600480360381019061039d9190612b28565b610a85565b6040516103af919061293c565b60405180910390f35b6103c0610b3d565b005b6103dc60048036038101906103d79190612b28565b610bc5565b6040516103e99190612c13565b60405180910390f35b6103fa610c73565b604051610407919061293c565b60405180910390f35b610418610c7d565b60405161042591906128a6565b60405180910390f35b610436610ca7565b60405161044391906127e0565b60405180910390f35b61046660048036038101906104619190612c61565b610d39565b005b610482600480360381019061047d9190612d42565b610d4f565b005b61049e60048036038101906104999190612838565b610db1565b6040516104ab91906127e0565b60405180910390f35b6104ce60048036038101906104c99190612dc5565b610dc3565b6040516104db919061293c565b60405180910390f35b6104ec610f12565b6040516104f991906127e0565b60405180910390f35b61051c60048036038101906105179190612e21565b610fa0565b604051610529919061272c565b60405180910390f35b61054c60048036038101906105479190612b28565b611034565b005b60006105598261112c565b9050919050565b60606000805461056f90612e90565b80601f016020809104026020016040519081016040528092919081815260200182805461059b90612e90565b80156105e85780601f106105bd576101008083540402835291602001916105e8565b820191906000526020600020905b8154815290600101906020018083116105cb57829003601f168201915b5050505050905090565b60006105fd826111a6565b61063c576040517f08c379a000000000000000000000000000000000000000000000000000000000815260040161063390612f34565b60405180910390fd5b6004600083815260200190815260200160002060009054906101000a900473ffffffffffffffffffffffffffffffffffffffff169050919050565b6000610682826109d3565b90508073ffffffffffffffffffffffffffffffffffffffff168373ffffffffffffffffffffffffffffffffffffffff1614156106f3576040517f08c379a00000000000000000000000000000000000000000000000000000000081526004016106ea90612fc6565b60405180910390fd5b8073ffffffffffffffffffffffffffffffffffffffff16610712611212565b73ffffffffffffffffffffffffffffffffffffffff16148061074157506107408161073b611212565b610fa0565b5b610780576040517f08c379a000000000000000000000000000000000000000000000000000000000815260040161077790613058565b60405180910390fd5b61078a838361121a565b505050565b606481565b6000600980549050905090565b6107b26107ac611212565b826112d3565b6107f1576040517f08c379a00000000000000000000000000000000000000000000000000000000081526004016107e8906130ea565b60405180910390fd5b6107fc8383836113b1565b505050565b600061080c83610a85565b821061084d576040517f08c379a00000000000000000000000000000000000000000000000000000000081526004016108449061317c565b60405180910390fd5b600760008473ffffffffffffffffffffffffffffffffffffffff1673ffffffffffffffffffffffffffffffffffffffff168152602001908152602001600020600083815260200190815260200160002054905092915050565b61c35081565b6108c783838360405180602001604052806000815250610d4f565b505050565b60006108d6610794565b8210610917576040517f08c379a000000000000000000000000000000000000000000000000000000000815260040161090e9061320e565b60405180910390fd5b6009828154811061092b5761092a61322e565b5b90600052602060002001549050919050565b610945611212565b73ffffffffffffffffffffffffffffffffffffffff16610963610c7d565b73ffffffffffffffffffffffffffffffffffffffff16146109b9576040517f08c379a00000000000000000000000000000000000000000000000000000000081526004016109b0906132a9565b60405180910390fd5b80600c90805190602001906109cf9291906125d5565b5050565b6000806002600084815260200190815260200160002060009054906101000a900473ffffffffffffffffffffffffffffffffffffffff169050600073ffffffffffffffffffffffffffffffffffffffff168173ffffffffffffffffffffffffffffffffffffffff161415610a7c576040517f08c379a0000000000000000000000000000000000000000000000000000000008152600401610a739061333b565b60405180910390fd5b80915050919050565b60008073ffffffffffffffffffffffffffffffffffffffff168273ffffffffffffffffffffffffffffffffffffffff161415610af6576040517f08c379a0000000000000000000000000000000000000000000000000000000008152600401610aed906133cd565b60405180910390fd5b600360008373ffffffffffffffffffffffffffffffffffffffff1673ffffffffffffffffffffffffffffffffffffffff168152602001908152602001600020549050919050565b610b45611212565b73ffffffffffffffffffffffffffffffffffffffff16610b63610c7d565b73ffffffffffffffffffffffffffffffffffffffff1614610bb9576040517f08c379a0000000000000000000000000000000000000000000000000000000008152600401610bb0906132a9565b60405180910390fd5b610bc3600061160d565b565b60606000610bd283610a85565b905060008167ffffffffffffffff811115610bf057610bef6129b4565b5b604051908082528060200260200182016040528015610c1e5781602001602082028036833780820191505090505b50905060005b82811015610c6857610c368582610801565b828281518110610c4957610c4861322e565b5b6020026020010181815250508080610c609061341c565b915050610c24565b508092505050919050565b655af3107a400081565b6000600660009054906101000a900473ffffffffffffffffffffffffffffffffffffffff16905090565b606060018054610cb690612e90565b80601f0160208091040260200160405190810160405280929190818152602001828054610ce290612e90565b8015610d2f5780601f10610d0457610100808354040283529160200191610d2f565b820191906000526020600020905b815481529060010190602001808311610d1257829003601f168201915b5050505050905090565b610d4b610d44611212565b83836116d3565b5050565b610d60610d5a611212565b836112d3565b610d9f576040517f08c379a0000000000000000000000000000000000000000000000000000000008152600401610d96906130ea565b60405180910390fd5b610dab84848484611840565b50505050565b6060610dbc8261189c565b9050919050565b6000601082604051610dd591906134a1565b908152602001604051809103902060009054906101000a900460ff1615610e31576040517f08c379a0000000000000000000000000000000000000000000000000000000008152600401610e2890613504565b60405180910390fd5b610e3b600f611a0f565b9050610e478382611a1d565b82600e600083815260200190815260200160002060006101000a81548173ffffffffffffffffffffffffffffffffffffffff021916908373ffffffffffffffffffffffffffffffffffffffff16021790555081600b60008381526020019081526020016000209080519060200190610ec09291906125d5565b506001601083604051610ed391906134a1565b908152602001604051809103902060006101000a81548160ff021916908315150217905550610f028183611beb565b610f0c600f611c5f565b92915050565b600d8054610f1f90612e90565b80601f0160208091040260200160405190810160405280929190818152602001828054610f4b90612e90565b8015610f985780601f10610f6d57610100808354040283529160200191610f98565b820191906000526020600020905b815481529060010190602001808311610f7b57829003601f168201915b505050505081565b6000600560008473ffffffffffffffffffffffffffffffffffffffff1673ffffffffffffffffffffffffffffffffffffffff16815260200190815260200160002060008373ffffffffffffffffffffffffffffffffffffffff1673ffffffffffffffffffffffffffffffffffffffff16815260200190815260200160002060009054906101000a900460ff16905092915050565b61103c611212565b73ffffffffffffffffffffffffffffffffffffffff1661105a610c7d565b73ffffffffffffffffffffffffffffffffffffffff16146110b0576040517f08c379a00000000000000000000000000000000000000000000000000000000081526004016110a7906132a9565b60405180910390fd5b600073ffffffffffffffffffffffffffffffffffffffff168173ffffffffffffffffffffffffffffffffffffffff161415611120576040517f08c379a000000000000000000000000000000000000000000000000000000000815260040161111790613596565b60405180910390fd5b6111298161160d565b50565b60007f780e9d63000000000000000000000000000000000000000000000000000000007bffffffffffffffffffffffffffffffffffffffffffffffffffffffff1916827bffffffffffffffffffffffffffffffffffffffffffffffffffffffff1916148061119f575061119e82611c75565b5b9050919050565b60008073ffffffffffffffffffffffffffffffffffffffff166002600084815260200190815260200160002060009054906101000a900473ffffffffffffffffffffffffffffffffffffffff1673ffffffffffffffffffffffffffffffffffffffff1614159050919050565b600033905090565b816004600083815260200190815260200160002060006101000a81548173ffffffffffffffffffffffffffffffffffffffff021916908373ffffffffffffffffffffffffffffffffffffffff160217905550808273ffffffffffffffffffffffffffffffffffffffff1661128d836109d3565b73ffffffffffffffffffffffffffffffffffffffff167f8c5be1e5ebec7d5bd14f71427d1e84f3dd0314c0f7b2291e5b200ac8c7c3b92560405160405180910390a45050565b60006112de826111a6565b61131d576040517f08c379a000000000000000000000000000000000000000000000000000000000815260040161131490613628565b60405180910390fd5b6000611328836109d3565b90508073ffffffffffffffffffffffffffffffffffffffff168473ffffffffffffffffffffffffffffffffffffffff16148061139757508373ffffffffffffffffffffffffffffffffffffffff1661137f846105f2565b73ffffffffffffffffffffffffffffffffffffffff16145b806113a857506113a78185610fa0565b5b91505092915050565b8273ffffffffffffffffffffffffffffffffffffffff166113d1826109d3565b73ffffffffffffffffffffffffffffffffffffffff1614611427576040517f08c379a000000000000000000000000000000000000000000000000000000000815260040161141e906136ba565b60405180910390fd5b600073ffffffffffffffffffffffffffffffffffffffff168273ffffffffffffffffffffffffffffffffffffffff161415611497576040517f08c379a000000000000000000000000000000000000000000000000000000000815260040161148e9061374c565b60405180910390fd5b6114a2838383611d57565b6114ad60008261121a565b6001600360008573ffffffffffffffffffffffffffffffffffffffff1673ffffffffffffffffffffffffffffffffffffffff16815260200190815260200160002060008282546114fd919061376c565b925050819055506001600360008473ffffffffffffffffffffffffffffffffffffffff1673ffffffffffffffffffffffffffffffffffffffff168152602001908152602001600020600082825461155491906137a0565b92505081905550816002600083815260200190815260200160002060006101000a81548173ffffffffffffffffffffffffffffffffffffffff021916908373ffffffffffffffffffffffffffffffffffffffff160217905550808273ffffffffffffffffffffffffffffffffffffffff168473ffffffffffffffffffffffffffffffffffffffff167fddf252ad1be2c89b69c2b068fc378daa952ba7f163c4a11628f55a4df523b3ef60405160405180910390a4505050565b6000600660009054906101000a900473ffffffffffffffffffffffffffffffffffffffff16905081600660006101000a81548173ffffffffffffffffffffffffffffffffffffffff021916908373ffffffffffffffffffffffffffffffffffffffff1602179055508173ffffffffffffffffffffffffffffffffffffffff168173ffffffffffffffffffffffffffffffffffffffff167f8be0079c531659141344cd1fd0a4f28419497f9722a3daafe3b4186f6b6457e060405160405180910390a35050565b8173ffffffffffffffffffffffffffffffffffffffff168373ffffffffffffffffffffffffffffffffffffffff161415611742576040517f08c379a000000000000000000000000000000000000000000000000000000000815260040161173990613842565b60405180910390fd5b80600560008573ffffffffffffffffffffffffffffffffffffffff1673ffffffffffffffffffffffffffffffffffffffff16815260200190815260200160002060008473ffffffffffffffffffffffffffffffffffffffff1673ffffffffffffffffffffffffffffffffffffffff16815260200190815260200160002060006101000a81548160ff0219169083151502179055508173ffffffffffffffffffffffffffffffffffffffff168373ffffffffffffffffffffffffffffffffffffffff167f17307eab39ab6107e8899845ad3d59bd9653f200f220920489ca2b5937696c3183604051611833919061272c565b60405180910390a3505050565b61184b8484846113b1565b61185784848484611d67565b611896576040517f08c379a000000000000000000000000000000000000000000000000000000000815260040161188d906138d4565b60405180910390fd5b50505050565b60606118a7826111a6565b6118e6576040517f08c379a00000000000000000000000000000000000000000000000000000000081526004016118dd90613966565b60405180910390fd5b6000600b6000848152602001908152602001600020805461190690612e90565b80601f016020809104026020016040519081016040528092919081815260200182805461193290612e90565b801561197f5780601f106119545761010080835404028352916020019161197f565b820191906000526020600020905b81548152906001019060200180831161196257829003601f168201915b505050505090506000611990611f27565b90506000815114156119a6578192505050611a0a565b6000825111156119db5780826040516020016119c3929190613986565b60405160208183030381529060405292505050611a0a565b806119e585611fb9565b6040516020016119f6929190613986565b604051602081830303815290604052925050505b919050565b600081600001549050919050565b600073ffffffffffffffffffffffffffffffffffffffff168273ffffffffffffffffffffffffffffffffffffffff161415611a8d576040517f08c379a0000000000000000000000000000000000000000000000000000000008152600401611a84906139f6565b60405180910390fd5b611a96816111a6565b15611ad6576040517f08c379a0000000000000000000000000000000000000000000000000000000008152600401611acd90613a62565b60405180910390fd5b611ae260008383611d57565b6001600360008473ffffffffffffffffffffffffffffffffffffffff1673ffffffffffffffffffffffffffffffffffffffff1681526020019081526020016000206000828254611b3291906137a0565b92505081905550816002600083815260200190815260200160002060006101000a81548173ffffffffffffffffffffffffffffffffffffffff021916908373ffffffffffffffffffffffffffffffffffffffff160217905550808273ffffffffffffffffffffffffffffffffffffffff16600073ffffffffffffffffffffffffffffffffffffffff167fddf252ad1be2c89b69c2b068fc378daa952ba7f163c4a11628f55a4df523b3ef60405160405180910390a45050565b611bf4826111a6565b611c33576040517f08c379a0000000000000000000000000000000000000000000000000000000008152600401611c2a90613af4565b60405180910390fd5b80600b60008481526020019081526020016000209080519060200190611c5a9291906125d5565b505050565b6001816000016000828254019250508190555050565b60007f80ac58cd000000000000000000000000000000000000000000000000000000007bffffffffffffffffffffffffffffffffffffffffffffffffffffffff1916827bffffffffffffffffffffffffffffffffffffffffffffffffffffffff19161480611d4057507f5b5e139f000000000000000000000000000000000000000000000000000000007bffffffffffffffffffffffffffffffffffffffffffffffffffffffff1916827bffffffffffffffffffffffffffffffffffffffffffffffffffffffff1916145b80611d505750611d4f82612139565b5b9050919050565b611d628383836121a3565b505050565b6000611d888473ffffffffffffffffffffffffffffffffffffffff166122b7565b15611f1a578373ffffffffffffffffffffffffffffffffffffffff1663150b7a02611db1611212565b8786866040518563ffffffff167c0100000000000000000000000000000000000000000000000000000000028152600401611def9493929190613b69565b6020604051808303816000875af1925050508015611e2b57506040513d601f19601f82011682018060405250810190611e289190613bca565b60015b611eae573d8060008114611e5b576040519150601f19603f3d011682016040523d82523d6000602084013e611e60565b606091505b50600081511415611ea6576040517f08c379a0000000000000000000000000000000000000000000000000000000008152600401611e9d906138d4565b60405180910390fd5b805181602001fd5b63150b7a027c0100000000000000000000000000000000000000000000000000000000027bffffffffffffffffffffffffffffffffffffffffffffffffffffffff1916817bffffffffffffffffffffffffffffffffffffffffffffffffffffffff191614915050611f1f565b600190505b949350505050565b6060600d8054611f3690612e90565b80601f0160208091040260200160405190810160405280929190818152602001828054611f6290612e90565b8015611faf5780601f10611f8457610100808354040283529160200191611faf565b820191906000526020600020905b815481529060010190602001808311611f9257829003601f168201915b5050505050905090565b60606000821415612001576040518060400160405280600181526020017f30000000000000000000000000000000000000000000000000000000000000008152509050612134565b600082905060005b6000821461203357808061201c9061341c565b915050600a8261202c9190613c26565b9150612009565b60008167ffffffffffffffff81111561204f5761204e6129b4565b5b6040519080825280601f01601f1916602001820160405280156120815781602001600182028036833780820191505090505b5090505b6000851461212d5760018261209a919061376c565b9150600a856120a99190613c57565b60306120b591906137a0565b7f0100000000000000000000000000000000000000000000000000000000000000028183815181106120ea576120e961322e565b5b60200101907effffffffffffffffffffffffffffffffffffffffffffffffffffffffffffff1916908160001a905350600a856121269190613c26565b9450612085565b8093505050505b919050565b60007f01ffc9a7000000000000000000000000000000000000000000000000000000007bffffffffffffffffffffffffffffffffffffffffffffffffffffffff1916827bffffffffffffffffffffffffffffffffffffffffffffffffffffffff1916149050919050565b6121ae8383836122ca565b600073ffffffffffffffffffffffffffffffffffffffff168373ffffffffffffffffffffffffffffffffffffffff1614156121f1576121ec816122cf565b612230565b8173ffffffffffffffffffffffffffffffffffffffff168373ffffffffffffffffffffffffffffffffffffffff161461222f5761222e8382612318565b5b5b600073ffffffffffffffffffffffffffffffffffffffff168273ffffffffffffffffffffffffffffffffffffffff1614156122735761226e81612485565b6122b2565b8273ffffffffffffffffffffffffffffffffffffffff168273ffffffffffffffffffffffffffffffffffffffff16146122b1576122b08282612556565b5b5b505050565b600080823b905060008111915050919050565b505050565b600980549050600a600083815260200190815260200160002081905550600981908060018154018082558091505060019003906000526020600020016000909190919091505550565b6000600161232584610a85565b61232f919061376c565b9050600060086000848152602001908152602001600020549050818114612414576000600760008673ffffffffffffffffffffffffffffffffffffffff1673ffffffffffffffffffffffffffffffffffffffff168152602001908152602001600020600084815260200190815260200160002054905080600760008773ffffffffffffffffffffffffffffffffffffffff1673ffffffffffffffffffffffffffffffffffffffff168152602001908152602001600020600084815260200190815260200160002081905550816008600083815260200190815260200160002081905550505b6008600084815260200190815260200160002060009055600760008573ffffffffffffffffffffffffffffffffffffffff1673ffffffffffffffffffffffffffffffffffffffff16815260200190815260200160002060008381526020019081526020016000206000905550505050565b60006001600980549050612499919061376c565b90506000600a60008481526020019081526020016000205490506000600983815481106124c9576124c861322e565b5b9060005260206000200154905080600983815481106124eb576124ea61322e565b5b906000526020600020018190555081600a600083815260200190815260200160002081905550600a600085815260200190815260200160002060009055600980548061253a57612539613c88565b5b6001900381819060005260206000200160009055905550505050565b600061256183610a85565b905081600760008573ffffffffffffffffffffffffffffffffffffffff1673ffffffffffffffffffffffffffffffffffffffff168152602001908152602001600020600083815260200190815260200160002081905550806008600084815260200190815260200160002081905550505050565b8280546125e190612e90565b90600052602060002090601f016020900481019282612603576000855561264a565b82601f1061261c57805160ff191683800117855561264a565b8280016001018555821561264a579182015b8281111561264957825182559160200191906001019061262e565b5b509050612657919061265b565b5090565b5b8082111561267457600081600090555060010161265c565b5090565b6000604051905090565b600080fd5b600080fd5b60007fffffffff0000000000000000000000000000000000000000000000000000000082169050919050565b6126c18161268c565b81146126cc57600080fd5b50565b6000813590506126de816126b8565b92915050565b6000602082840312156126fa576126f9612682565b5b6000612708848285016126cf565b91505092915050565b60008115159050919050565b61272681612711565b82525050565b6000602082019050612741600083018461271d565b92915050565b600081519050919050565b600082825260208201905092915050565b60005b83811015612781578082015181840152602081019050612766565b83811115612790576000848401525b50505050565b6000601f19601f8301169050919050565b60006127b282612747565b6127bc8185612752565b93506127cc818560208601612763565b6127d581612796565b840191505092915050565b600060208201905081810360008301526127fa81846127a7565b905092915050565b6000819050919050565b61281581612802565b811461282057600080fd5b50565b6000813590506128328161280c565b92915050565b60006020828403121561284e5761284d612682565b5b600061285c84828501612823565b91505092915050565b600073ffffffffffffffffffffffffffffffffffffffff82169050919050565b600061289082612865565b9050919050565b6128a081612885565b82525050565b60006020820190506128bb6000830184612897565b92915050565b6128ca81612885565b81146128d557600080fd5b50565b6000813590506128e7816128c1565b92915050565b6000806040838503121561290457612903612682565b5b6000612912858286016128d8565b925050602061292385828601612823565b9150509250929050565b61293681612802565b82525050565b6000602082019050612951600083018461292d565b92915050565b6000806000606084860312156129705761296f612682565b5b600061297e868287016128d8565b935050602061298f868287016128d8565b92505060406129a086828701612823565b9150509250925092565b600080fd5b600080fd5b7f4e487b7100000000000000000000000000000000000000000000000000000000600052604160045260246000fd5b6129ec82612796565b810181811067ffffffffffffffff82111715612a0b57612a0a6129b4565b5b80604052505050565b6000612a1e612678565b9050612a2a82826129e3565b919050565b600067ffffffffffffffff821115612a4a57612a496129b4565b5b612a5382612796565b9050602081019050919050565b82818337600083830152505050565b6000612a82612a7d84612a2f565b612a14565b905082815260208101848484011115612a9e57612a9d6129af565b5b612aa9848285612a60565b509392505050565b600082601f830112612ac657612ac56129aa565b5b8135612ad6848260208601612a6f565b91505092915050565b600060208284031215612af557612af4612682565b5b600082013567ffffffffffffffff811115612b1357612b12612687565b5b612b1f84828501612ab1565b91505092915050565b600060208284031215612b3e57612b3d612682565b5b6000612b4c848285016128d8565b91505092915050565b600081519050919050565b600082825260208201905092915050565b6000819050602082019050919050565b612b8a81612802565b82525050565b6000612b9c8383612b81565b60208301905092915050565b6000602082019050919050565b6000612bc082612b55565b612bca8185612b60565b9350612bd583612b71565b8060005b83811015612c06578151612bed8882612b90565b9750612bf883612ba8565b925050600181019050612bd9565b5085935050505092915050565b60006020820190508181036000830152612c2d8184612bb5565b905092915050565b612c3e81612711565b8114612c4957600080fd5b50565b600081359050612c5b81612c35565b92915050565b60008060408385031215612c7857612c77612682565b5b6000612c86858286016128d8565b9250506020612c9785828601612c4c565b9150509250929050565b600067ffffffffffffffff821115612cbc57612cbb6129b4565b5b612cc582612796565b9050602081019050919050565b6000612ce5612ce084612ca1565b612a14565b905082815260208101848484011115612d0157612d006129af565b5b612d0c848285612a60565b509392505050565b600082601f830112612d2957612d286129aa565b5b8135612d39848260208601612cd2565b91505092915050565b60008060008060808587031215612d5c57612d5b612682565b5b6000612d6a878288016128d8565b9450506020612d7b878288016128d8565b9350506040612d8c87828801612823565b925050606085013567ffffffffffffffff811115612dad57612dac612687565b5b612db987828801612d14565b91505092959194509250565b60008060408385031215612ddc57612ddb612682565b5b6000612dea858286016128d8565b925050602083013567ffffffffffffffff811115612e0b57612e0a612687565b5b612e1785828601612ab1565b9150509250929050565b60008060408385031215612e3857612e37612682565b5b6000612e46858286016128d8565b9250506020612e57858286016128d8565b9150509250929050565b7f4e487b7100000000000000000000000000000000000000000000000000000000600052602260045260246000fd5b60006002820490506001821680612ea857607f821691505b60208210811415612ebc57612ebb612e61565b5b50919050565b7f4552433732313a20617070726f76656420717565727920666f72206e6f6e657860008201527f697374656e7420746f6b656e0000000000000000000000000000000000000000602082015250565b6000612f1e602c83612752565b9150612f2982612ec2565b604082019050919050565b60006020820190508181036000830152612f4d81612f11565b9050919050565b7f4552433732313a20617070726f76616c20746f2063757272656e74206f776e6560008201527f7200000000000000000000000000000000000000000000000000000000000000602082015250565b6000612fb0602183612752565b9150612fbb82612f54565b604082019050919050565b60006020820190508181036000830152612fdf81612fa3565b9050919050565b7f4552433732313a20617070726f76652063616c6c6572206973206e6f74206f7760008201527f6e6572206e6f7220617070726f76656420666f7220616c6c0000000000000000602082015250565b6000613042603883612752565b915061304d82612fe6565b604082019050919050565b6000602082019050818103600083015261307181613035565b9050919050565b7f4552433732313a207472616e736665722063616c6c6572206973206e6f74206f60008201527f776e6572206e6f7220617070726f766564000000000000000000000000000000602082015250565b60006130d4603183612752565b91506130df82613078565b604082019050919050565b60006020820190508181036000830152613103816130c7565b9050919050565b7f455243373231456e756d657261626c653a206f776e657220696e646578206f7560008201527f74206f6620626f756e6473000000000000000000000000000000000000000000602082015250565b6000613166602b83612752565b91506131718261310a565b604082019050919050565b6000602082019050818103600083015261319581613159565b9050919050565b7f455243373231456e756d657261626c653a20676c6f62616c20696e646578206f60008201527f7574206f6620626f756e64730000000000000000000000000000000000000000602082015250565b60006131f8602c83612752565b91506132038261319c565b604082019050919050565b60006020820190508181036000830152613227816131eb565b9050919050565b7f4e487b7100000000000000000000000000000000000000000000000000000000600052603260045260246000fd5b7f4f776e61626c653a2063616c6c6572206973206e6f7420746865206f776e6572600082015250565b6000613293602083612752565b915061329e8261325d565b602082019050919050565b600060208201905081810360008301526132c281613286565b9050919050565b7f4552433732313a206f776e657220717565727920666f72206e6f6e657869737460008201527f656e7420746f6b656e0000000000000000000000000000000000000000000000602082015250565b6000613325602983612752565b9150613330826132c9565b604082019050919050565b6000602082019050818103600083015261335481613318565b9050919050565b7f4552433732313a2062616c616e636520717565727920666f7220746865207a6560008201527f726f206164647265737300000000000000000000000000000000000000000000602082015250565b60006133b7602a83612752565b91506133c28261335b565b604082019050919050565b600060208201905081810360008301526133e6816133aa565b9050919050565b7f4e487b7100000000000000000000000000000000000000000000000000000000600052601160045260246000fd5b600061342782612802565b91507fffffffffffffffffffffffffffffffffffffffffffffffffffffffffffffffff82141561345a576134596133ed565b5b600182019050919050565b600081905092915050565b600061347b82612747565b6134858185613465565b9350613495818560208601612763565b80840191505092915050565b60006134ad8284613470565b915081905092915050565b7f4f626a65637420616c7265616479206578697374730000000000000000000000600082015250565b60006134ee601583612752565b91506134f9826134b8565b602082019050919050565b6000602082019050818103600083015261351d816134e1565b9050919050565b7f4f776e61626c653a206e6577206f776e657220697320746865207a65726f206160008201527f6464726573730000000000000000000000000000000000000000000000000000602082015250565b6000613580602683612752565b915061358b82613524565b604082019050919050565b600060208201905081810360008301526135af81613573565b9050919050565b7f4552433732313a206f70657261746f7220717565727920666f72206e6f6e657860008201527f697374656e7420746f6b656e0000000000000000000000000000000000000000602082015250565b6000613612602c83612752565b915061361d826135b6565b604082019050919050565b6000602082019050818103600083015261364181613605565b9050919050565b7f4552433732313a207472616e73666572206f6620746f6b656e2074686174206960008201527f73206e6f74206f776e0000000000000000000000000000000000000000000000602082015250565b60006136a4602983612752565b91506136af82613648565b604082019050919050565b600060208201905081810360008301526136d381613697565b9050919050565b7f4552433732313a207472616e7366657220746f20746865207a65726f2061646460008201527f7265737300000000000000000000000000000000000000000000000000000000602082015250565b6000613736602483612752565b9150613741826136da565b604082019050919050565b6000602082019050818103600083015261376581613729565b9050919050565b600061377782612802565b915061378283612802565b925082821015613795576137946133ed565b5b828203905092915050565b60006137ab82612802565b91506137b683612802565b9250827fffffffffffffffffffffffffffffffffffffffffffffffffffffffffffffffff038211156137eb576137ea6133ed565b5b828201905092915050565b7f4552433732313a20617070726f766520746f2063616c6c657200000000000000600082015250565b600061382c601983612752565b9150613837826137f6565b602082019050919050565b6000602082019050818103600083015261385b8161381f565b9050919050565b7f4552433732313a207472616e7366657220746f206e6f6e20455243373231526560008201527f63656976657220696d706c656d656e7465720000000000000000000000000000602082015250565b60006138be603283612752565b91506138c982613862565b604082019050919050565b600060208201905081810360008301526138ed816138b1565b9050919050565b7f4552433732314d657461646174613a2055524920717565727920666f72206e6f60008201527f6e6578697374656e7420746f6b656e0000000000000000000000000000000000602082015250565b6000613950602f83612752565b915061395b826138f4565b604082019050919050565b6000602082019050818103600083015261397f81613943565b9050919050565b60006139928285613470565b915061399e8284613470565b91508190509392505050565b7f4552433732313a206d696e7420746f20746865207a65726f2061646472657373600082015250565b60006139e0602083612752565b91506139eb826139aa565b602082019050919050565b60006020820190508181036000830152613a0f816139d3565b9050919050565b7f4552433732313a20746f6b656e20616c7265616479206d696e74656400000000600082015250565b6000613a4c601c83612752565b9150613a5782613a16565b602082019050919050565b60006020820190508181036000830152613a7b81613a3f565b9050919050565b7f4552433732314d657461646174613a2055524920736574206f66206e6f6e657860008201527f697374656e7420746f6b656e0000000000000000000000000000000000000000602082015250565b6000613ade602c83612752565b9150613ae982613a82565b604082019050919050565b60006020820190508181036000830152613b0d81613ad1565b9050919050565b600081519050919050565b600082825260208201905092915050565b6000613b3b82613b14565b613b458185613b1f565b9350613b55818560208601612763565b613b5e81612796565b840191505092915050565b6000608082019050613b7e6000830187612897565b613b8b6020830186612897565b613b98604083018561292d565b8181036060830152613baa8184613b30565b905095945050505050565b600081519050613bc4816126b8565b92915050565b600060208284031215613be057613bdf612682565b5b6000613bee84828501613bb5565b91505092915050565b7f4e487b7100000000000000000000000000000000000000000000000000000000600052601260045260246000fd5b6000613c3182612802565b9150613c3c83612802565b925082613c4c57613c4b613bf7565b5b828204905092915050565b6000613c6282612802565b9150613c6d83612802565b925082613c7d57613c7c613bf7565b5b828206905092915050565b7f4e487b7100000000000000000000000000000000000000000000000000000000600052603160045260246000fdfea26469706673582212204a611f8d60e273579ca111272bfc18da33a654eb672eb12f30230a6aae56e1e864736f6c634300080b0033",
  "immutableReferences": {},
  "source": "// SPDX-License-Identifier: MIT\npragma solidity >=0.4.22 <0.9.0;\n\nimport \"@openzeppelin/contracts/token/ERC721/ERC721.sol\";\nimport \"@openzeppelin/contracts/access/Ownable.sol\";\nimport \"@openzeppelin/contracts/utils/math/SafeMath.sol\";\nimport \"@openzeppelin/contracts/utils/Counters.sol\";\nimport \"@openzeppelin/contracts/token/ERC721/extensions/ERC721Enumerable.sol\";\nimport \"./SetTokenUri.sol\";\n\ncontract Nft is ERC721, Ownable, ERC721Enumerable, SetTokenUri(\"Nft\", \"NFT1\") {\n    using SafeMath for uint256;\n    using Counters for Counters.Counter;\n\n    uint256 public constant MAX_SUPPLY = 50000;\n    uint256 public constant PRICE = 0.0001 ether;\n    uint256 public constant MAX_PER_MINT = 100;\n    string public baseTokenURI = \"https://ipfs.io/ipfs/\";\n\n    mapping(uint256 => address) tokensToOwner;\n\n    Counters.Counter private _tokenIds;\n    mapping(string => bool) _tokenExists;\n    mapping(address => bool) _userExists;\n\n    function mint(address to, string memory cid) public returns (uint256 _id) {\n        require(!_tokenExists[cid], \"Object already exists\");\n\n        _id = _tokenIds.current();\n        _mint(to, _id);\n        tokensToOwner[_id] = to;\n        tokenURIs[_id] = cid;\n        _tokenExists[cid] = true;\n        _setTokenURI(_id, cid);\n        _tokenIds.increment();\n\n        return _id;\n    }\n\n    function tokensOfOwner(address _owner)\n        public\n        view\n        returns (uint256[] memory)\n    {\n        uint256 tokenCount = balanceOf(_owner);\n        uint256[] memory tokensId = new uint256[](tokenCount);\n        // string[] memory  userTokens = new string[](tokenCount);\n\n        for (uint256 i = 0; i < tokenCount; i++) {\n            tokensId[i] = tokenOfOwnerByIndex(_owner, i);\n            // if(tokensId[i]  == i){\n            //    userTokens[i] = tokensList[i];\n            // }\n        }\n        return tokensId;\n    }\n\n    function _baseURI()\n        internal\n        view\n        virtual\n        override(ERC721, SetTokenUri)\n        returns (string memory)\n    {\n        return baseTokenURI;\n    }\n\n    function tokenURI(uint256 tokenId)\n        public\n        view\n        virtual\n        override(ERC721, SetTokenUri)\n        returns (string memory)\n    {\n        return super.tokenURI(tokenId);\n    }\n\n    // The following functions are overrides for ERC721Enumerable required by Solidity.\n    function _beforeTokenTransfer(\n        address from,\n        address to,\n        uint256 tokenId\n    ) internal override(ERC721, ERC721Enumerable) {\n        super._beforeTokenTransfer(from, to, tokenId);\n    }\n\n    function supportsInterface(bytes4 interfaceId)\n        public\n        view\n        override(ERC721, ERC721Enumerable)\n        returns (bool)\n    {\n        return super.supportsInterface(interfaceId);\n    }\n}\n",
  "sourcePath": "/Users/lenahierzi/Developer/consensys/blockchain-developer-bootcamp-final-project/contracts/NFT.sol",
  "compiler": {
    "name": "solc",
    "version": "0.8.11+commit.d7f03943.Emscripten.clang"
  },
  "schemaVersion": "3.4.3",
  "updatedAt": "2022-01-08T12:35:51.420Z",
  "networkType": "ethereum",
  "devdoc": {
    "kind": "dev",
    "methods": {
      "approve(address,uint256)": {
        "details": "See {IERC721-approve}."
      },
      "balanceOf(address)": {
        "details": "See {IERC721-balanceOf}."
      },
      "getApproved(uint256)": {
        "details": "See {IERC721-getApproved}."
      },
      "isApprovedForAll(address,address)": {
        "details": "See {IERC721-isApprovedForAll}."
      },
      "name()": {
        "details": "See {IERC721Metadata-name}."
      },
      "owner()": {
        "details": "Returns the address of the current owner."
      },
      "ownerOf(uint256)": {
        "details": "See {IERC721-ownerOf}."
      },
      "renounceOwnership()": {
        "details": "Leaves the contract without owner. It will not be possible to call `onlyOwner` functions anymore. Can only be called by the current owner. NOTE: Renouncing ownership will leave the contract without an owner, thereby removing any functionality that is only available to the owner."
      },
      "safeTransferFrom(address,address,uint256)": {
        "details": "See {IERC721-safeTransferFrom}."
      },
      "safeTransferFrom(address,address,uint256,bytes)": {
        "details": "See {IERC721-safeTransferFrom}."
      },
      "setApprovalForAll(address,bool)": {
        "details": "See {IERC721-setApprovalForAll}."
      },
      "symbol()": {
        "details": "See {IERC721Metadata-symbol}."
      },
      "tokenByIndex(uint256)": {
        "details": "See {IERC721Enumerable-tokenByIndex}."
      },
      "tokenOfOwnerByIndex(address,uint256)": {
        "details": "See {IERC721Enumerable-tokenOfOwnerByIndex}."
      },
      "totalSupply()": {
        "details": "See {IERC721Enumerable-totalSupply}."
      },
      "transferFrom(address,address,uint256)": {
        "details": "See {IERC721-transferFrom}."
      },
      "transferOwnership(address)": {
        "details": "Transfers ownership of the contract to a new account (`newOwner`). Can only be called by the current owner."
      }
    },
    "version": 1
  },
  "userdoc": {
    "kind": "user",
    "methods": {},
    "version": 1
  }
}