{
  "contractName": "Nft",
  "abi": [
    {
      "anonymous": false,
      "inputs": [
        {
          "indexed": true,
          "internalType": "address",
          "name": "owner",
          "type": "address"
        },
        {
          "indexed": true,
          "internalType": "address",
          "name": "approved",
          "type": "address"
        },
        {
          "indexed": true,
          "internalType": "uint256",
          "name": "tokenId",
          "type": "uint256"
        }
      ],
      "name": "Approval",
      "type": "event"
    },
    {
      "anonymous": false,
      "inputs": [
        {
          "indexed": true,
          "internalType": "address",
          "name": "owner",
          "type": "address"
        },
        {
          "indexed": true,
          "internalType": "address",
          "name": "operator",
          "type": "address"
        },
        {
          "indexed": false,
          "internalType": "bool",
          "name": "approved",
          "type": "bool"
        }
      ],
      "name": "ApprovalForAll",
      "type": "event"
    },
    {
      "anonymous": false,
      "inputs": [
        {
          "indexed": true,
          "internalType": "address",
          "name": "previousOwner",
          "type": "address"
        },
        {
          "indexed": true,
          "internalType": "address",
          "name": "newOwner",
          "type": "address"
        }
      ],
      "name": "OwnershipTransferred",
      "type": "event"
    },
    {
      "anonymous": false,
      "inputs": [
        {
          "indexed": true,
          "internalType": "address",
          "name": "from",
          "type": "address"
        },
        {
          "indexed": true,
          "internalType": "address",
          "name": "to",
          "type": "address"
        },
        {
          "indexed": true,
          "internalType": "uint256",
          "name": "tokenId",
          "type": "uint256"
        }
      ],
      "name": "Transfer",
      "type": "event"
    },
    {
      "inputs": [
        {
          "internalType": "address",
          "name": "to",
          "type": "address"
        },
        {
          "internalType": "uint256",
          "name": "tokenId",
          "type": "uint256"
        }
      ],
      "name": "approve",
      "outputs": [],
      "stateMutability": "nonpayable",
      "type": "function"
    },
    {
      "inputs": [
        {
          "internalType": "address",
          "name": "owner",
          "type": "address"
        }
      ],
      "name": "balanceOf",
      "outputs": [
        {
          "internalType": "uint256",
          "name": "",
          "type": "uint256"
        }
      ],
      "stateMutability": "view",
      "type": "function",
      "constant": true
    },
    {
      "inputs": [],
      "name": "baseTokenURI",
      "outputs": [
        {
          "internalType": "string",
          "name": "",
          "type": "string"
        }
      ],
      "stateMutability": "view",
      "type": "function",
      "constant": true
    },
    {
      "inputs": [
        {
          "internalType": "uint256",
          "name": "tokenId",
          "type": "uint256"
        }
      ],
      "name": "getApproved",
      "outputs": [
        {
          "internalType": "address",
          "name": "",
          "type": "address"
        }
      ],
      "stateMutability": "view",
      "type": "function",
      "constant": true
    },
    {
      "inputs": [
        {
          "internalType": "address",
          "name": "owner",
          "type": "address"
        },
        {
          "internalType": "address",
          "name": "operator",
          "type": "address"
        }
      ],
      "name": "isApprovedForAll",
      "outputs": [
        {
          "internalType": "bool",
          "name": "",
          "type": "bool"
        }
      ],
      "stateMutability": "view",
      "type": "function",
      "constant": true
    },
    {
      "inputs": [],
      "name": "name",
      "outputs": [
        {
          "internalType": "string",
          "name": "",
          "type": "string"
        }
      ],
      "stateMutability": "view",
      "type": "function",
      "constant": true
    },
    {
      "inputs": [],
      "name": "owner",
      "outputs": [
        {
          "internalType": "address",
          "name": "",
          "type": "address"
        }
      ],
      "stateMutability": "view",
      "type": "function",
      "constant": true
    },
    {
      "inputs": [
        {
          "internalType": "uint256",
          "name": "tokenId",
          "type": "uint256"
        }
      ],
      "name": "ownerOf",
      "outputs": [
        {
          "internalType": "address",
          "name": "",
          "type": "address"
        }
      ],
      "stateMutability": "view",
      "type": "function",
      "constant": true
    },
    {
      "inputs": [],
      "name": "renounceOwnership",
      "outputs": [],
      "stateMutability": "nonpayable",
      "type": "function"
    },
    {
      "inputs": [
        {
          "internalType": "address",
          "name": "from",
          "type": "address"
        },
        {
          "internalType": "address",
          "name": "to",
          "type": "address"
        },
        {
          "internalType": "uint256",
          "name": "tokenId",
          "type": "uint256"
        }
      ],
      "name": "safeTransferFrom",
      "outputs": [],
      "stateMutability": "nonpayable",
      "type": "function"
    },
    {
      "inputs": [
        {
          "internalType": "address",
          "name": "from",
          "type": "address"
        },
        {
          "internalType": "address",
          "name": "to",
          "type": "address"
        },
        {
          "internalType": "uint256",
          "name": "tokenId",
          "type": "uint256"
        },
        {
          "internalType": "bytes",
          "name": "_data",
          "type": "bytes"
        }
      ],
      "name": "safeTransferFrom",
      "outputs": [],
      "stateMutability": "nonpayable",
      "type": "function"
    },
    {
      "inputs": [
        {
          "internalType": "address",
          "name": "operator",
          "type": "address"
        },
        {
          "internalType": "bool",
          "name": "approved",
          "type": "bool"
        }
      ],
      "name": "setApprovalForAll",
      "outputs": [],
      "stateMutability": "nonpayable",
      "type": "function"
    },
    {
      "inputs": [
        {
          "internalType": "string",
          "name": "baseURI_",
          "type": "string"
        }
      ],
      "name": "setBaseURI",
      "outputs": [],
      "stateMutability": "nonpayable",
      "type": "function"
    },
    {
      "inputs": [
        {
          "internalType": "bytes4",
          "name": "interfaceId",
          "type": "bytes4"
        }
      ],
      "name": "supportsInterface",
      "outputs": [
        {
          "internalType": "bool",
          "name": "",
          "type": "bool"
        }
      ],
      "stateMutability": "view",
      "type": "function",
      "constant": true
    },
    {
      "inputs": [],
      "name": "symbol",
      "outputs": [
        {
          "internalType": "string",
          "name": "",
          "type": "string"
        }
      ],
      "stateMutability": "view",
      "type": "function",
      "constant": true
    },
    {
      "inputs": [
        {
          "internalType": "address",
          "name": "from",
          "type": "address"
        },
        {
          "internalType": "address",
          "name": "to",
          "type": "address"
        },
        {
          "internalType": "uint256",
          "name": "tokenId",
          "type": "uint256"
        }
      ],
      "name": "transferFrom",
      "outputs": [],
      "stateMutability": "nonpayable",
      "type": "function"
    },
    {
      "inputs": [
        {
          "internalType": "address",
          "name": "newOwner",
          "type": "address"
        }
      ],
      "name": "transferOwnership",
      "outputs": [],
      "stateMutability": "nonpayable",
      "type": "function"
    },
    {
      "inputs": [
        {
          "internalType": "string",
          "name": "cid",
          "type": "string"
        }
      ],
      "name": "mint",
      "outputs": [
        {
          "internalType": "uint256",
          "name": "_id",
          "type": "uint256"
        }
      ],
      "stateMutability": "nonpayable",
      "type": "function"
    },
    {
      "inputs": [
        {
          "internalType": "address",
          "name": "_owner",
          "type": "address"
        }
      ],
      "name": "tokensOfOwner",
      "outputs": [
        {
          "internalType": "uint256[]",
          "name": "",
          "type": "uint256[]"
        }
      ],
      "stateMutability": "view",
      "type": "function",
      "constant": true
    },
    {
      "inputs": [
        {
          "internalType": "uint256",
          "name": "tokenId",
          "type": "uint256"
        }
      ],
      "name": "tokenURI",
      "outputs": [
        {
          "internalType": "string",
          "name": "",
          "type": "string"
        }
      ],
      "stateMutability": "view",
      "type": "function",
      "constant": true
    }
  ],
  "bytecode": "0x60806040526040518060400160405280601581526020017f68747470733a2f2f697066732e696f2f697066732f000000000000000000000081525060099080519060200190620000519291906200020a565b503480156200005f57600080fd5b506040518060400160405280600381526020017f4e667400000000000000000000000000000000000000000000000000000000008152506040518060400160405280600381526020017f4e4654000000000000000000000000000000000000000000000000000000000081525081818160009080519060200190620000e69291906200020a565b508060019080519060200190620000ff9291906200020a565b505050620001346200011f6200013c640100000000026401000000009004565b62000144640100000000026401000000009004565b50506200031f565b600033905090565b6000600660009054906101000a900473ffffffffffffffffffffffffffffffffffffffff16905081600660006101000a81548173ffffffffffffffffffffffffffffffffffffffff021916908373ffffffffffffffffffffffffffffffffffffffff1602179055508173ffffffffffffffffffffffffffffffffffffffff168173ffffffffffffffffffffffffffffffffffffffff167f8be0079c531659141344cd1fd0a4f28419497f9722a3daafe3b4186f6b6457e060405160405180910390a35050565b8280546200021890620002e9565b90600052602060002090601f0160209004810192826200023c576000855562000288565b82601f106200025757805160ff191683800117855562000288565b8280016001018555821562000288579182015b82811115620002875782518255916020019190600101906200026a565b5b5090506200029791906200029b565b5090565b5b80821115620002b65760008160009055506001016200029c565b5090565b7f4e487b7100000000000000000000000000000000000000000000000000000000600052602260045260246000fd5b600060028204905060018216806200030257607f821691505b60208210811415620003195762000318620002ba565b5b50919050565b613484806200032f6000396000f3fe608060405234801561001057600080fd5b5060043610610149576000357c0100000000000000000000000000000000000000000000000000000000900480638462151c116100ca578063c87b56dd1161008e578063c87b56dd1461034a578063d547cfb71461037a578063d85d3d2714610398578063e985e9c5146103c8578063f2fde38b146103f857610149565b80638462151c146102a65780638da5cb5b146102d657806395d89b41146102f4578063a22cb46514610312578063b88d4fde1461032e57610149565b806342842e0e1161011157806342842e0e1461020457806355f804b3146102205780636352211e1461023c57806370a082311461026c578063715018a61461029c57610149565b806301ffc9a71461014e57806306fdde031461017e578063081812fc1461019c578063095ea7b3146101cc57806323b872dd146101e8575b600080fd5b6101686004803603810190610163919061202a565b610414565b6040516101759190612072565b60405180910390f35b6101866104f6565b6040516101939190612126565b60405180910390f35b6101b660048036038101906101b1919061217e565b610588565b6040516101c391906121ec565b60405180910390f35b6101e660048036038101906101e19190612233565b61060d565b005b61020260048036038101906101fd9190612273565b610725565b005b61021e60048036038101906102199190612273565b610785565b005b61023a600480360381019061023591906123fb565b6107a5565b005b6102566004803603810190610251919061217e565b61083b565b60405161026391906121ec565b60405180910390f35b61028660048036038101906102819190612444565b6108ed565b6040516102939190612480565b60405180910390f35b6102a46109a5565b005b6102c060048036038101906102bb9190612444565b610a2d565b6040516102cd9190612559565b60405180910390f35b6102de610b4a565b6040516102eb91906121ec565b60405180910390f35b6102fc610b74565b6040516103099190612126565b60405180910390f35b61032c600480360381019061032791906125a7565b610c06565b005b61034860048036038101906103439190612688565b610c1c565b005b610364600480360381019061035f919061217e565b610c7e565b6040516103719190612126565b60405180910390f35b610382610c90565b60405161038f9190612126565b60405180910390f35b6103b260048036038101906103ad91906123fb565b610d1e565b6040516103bf9190612480565b60405180910390f35b6103e260048036038101906103dd919061270b565b610e6c565b6040516103ef9190612072565b60405180910390f35b610412600480360381019061040d9190612444565b610f00565b005b60007f80ac58cd000000000000000000000000000000000000000000000000000000007bffffffffffffffffffffffffffffffffffffffffffffffffffffffff1916827bffffffffffffffffffffffffffffffffffffffffffffffffffffffff191614806104df57507f5b5e139f000000000000000000000000000000000000000000000000000000007bffffffffffffffffffffffffffffffffffffffffffffffffffffffff1916827bffffffffffffffffffffffffffffffffffffffffffffffffffffffff1916145b806104ef57506104ee82610ff8565b5b9050919050565b6060600080546105059061277a565b80601f01602080910402602001604051908101604052809291908181526020018280546105319061277a565b801561057e5780601f106105535761010080835404028352916020019161057e565b820191906000526020600020905b81548152906001019060200180831161056157829003601f168201915b5050505050905090565b600061059382611062565b6105d2576040517f08c379a00000000000000000000000000000000000000000000000000000000081526004016105c99061281e565b60405180910390fd5b6004600083815260200190815260200160002060009054906101000a900473ffffffffffffffffffffffffffffffffffffffff169050919050565b60006106188261083b565b90508073ffffffffffffffffffffffffffffffffffffffff168373ffffffffffffffffffffffffffffffffffffffff161415610689576040517f08c379a0000000000000000000000000000000000000000000000000000000008152600401610680906128b0565b60405180910390fd5b8073ffffffffffffffffffffffffffffffffffffffff166106a86110ce565b73ffffffffffffffffffffffffffffffffffffffff1614806106d757506106d6816106d16110ce565b610e6c565b5b610716576040517f08c379a000000000000000000000000000000000000000000000000000000000815260040161070d90612942565b60405180910390fd5b61072083836110d6565b505050565b6107366107306110ce565b8261118f565b610775576040517f08c379a000000000000000000000000000000000000000000000000000000000815260040161076c906129d4565b60405180910390fd5b61078083838361126d565b505050565b6107a083838360405180602001604052806000815250610c1c565b505050565b6107ad6110ce565b73ffffffffffffffffffffffffffffffffffffffff166107cb610b4a565b73ffffffffffffffffffffffffffffffffffffffff1614610821576040517f08c379a000000000000000000000000000000000000000000000000000000000815260040161081890612a40565b60405180910390fd5b8060089080519060200190610837929190611f1b565b5050565b6000806002600084815260200190815260200160002060009054906101000a900473ffffffffffffffffffffffffffffffffffffffff169050600073ffffffffffffffffffffffffffffffffffffffff168173ffffffffffffffffffffffffffffffffffffffff1614156108e4576040517f08c379a00000000000000000000000000000000000000000000000000000000081526004016108db90612ad2565b60405180910390fd5b80915050919050565b60008073ffffffffffffffffffffffffffffffffffffffff168273ffffffffffffffffffffffffffffffffffffffff16141561095e576040517f08c379a000000000000000000000000000000000000000000000000000000000815260040161095590612b64565b60405180910390fd5b600360008373ffffffffffffffffffffffffffffffffffffffff1673ffffffffffffffffffffffffffffffffffffffff168152602001908152602001600020549050919050565b6109ad6110ce565b73ffffffffffffffffffffffffffffffffffffffff166109cb610b4a565b73ffffffffffffffffffffffffffffffffffffffff1614610a21576040517f08c379a0000000000000000000000000000000000000000000000000000000008152600401610a1890612a40565b60405180910390fd5b610a2b60006114c9565b565b60606000610a3a836108ed565b905060008167ffffffffffffffff811115610a5857610a576122d0565b5b604051908082528060200260200182016040528015610a865781602001602082028036833780820191505090505b5090506000805b83811015610b3e578573ffffffffffffffffffffffffffffffffffffffff16600a600083815260200190815260200160002060009054906101000a900473ffffffffffffffffffffffffffffffffffffffff1673ffffffffffffffffffffffffffffffffffffffff161415610b2b5780838381518110610b1057610b0f612b84565b5b6020026020010181815250508180610b2790612be2565b9250505b8080610b3690612be2565b915050610a8d565b50819350505050919050565b6000600660009054906101000a900473ffffffffffffffffffffffffffffffffffffffff16905090565b606060018054610b839061277a565b80601f0160208091040260200160405190810160405280929190818152602001828054610baf9061277a565b8015610bfc5780601f10610bd157610100808354040283529160200191610bfc565b820191906000526020600020905b815481529060010190602001808311610bdf57829003601f168201915b5050505050905090565b610c18610c116110ce565b838361158f565b5050565b610c2d610c276110ce565b8361118f565b610c6c576040517f08c379a0000000000000000000000000000000000000000000000000000000008152600401610c63906129d4565b60405180910390fd5b610c78848484846116fc565b50505050565b6060610c8982611758565b9050919050565b60098054610c9d9061277a565b80601f0160208091040260200160405190810160405280929190818152602001828054610cc99061277a565b8015610d165780601f10610ceb57610100808354040283529160200191610d16565b820191906000526020600020905b815481529060010190602001808311610cf957829003601f168201915b505050505081565b6000600c82604051610d309190612c67565b908152602001604051809103902060009054906101000a900460ff1615610d8c576040517f08c379a0000000000000000000000000000000000000000000000000000000008152600401610d8390612cca565b60405180910390fd5b610d96600b6118cb565b9050610da233826118d9565b33600a600083815260200190815260200160002060006101000a81548173ffffffffffffffffffffffffffffffffffffffff021916908373ffffffffffffffffffffffffffffffffffffffff16021790555081600760008381526020019081526020016000209080519060200190610e1b929190611f1b565b506001600c83604051610e2e9190612c67565b908152602001604051809103902060006101000a81548160ff021916908315150217905550610e5d8183611aa7565b610e67600b611b1b565b919050565b6000600560008473ffffffffffffffffffffffffffffffffffffffff1673ffffffffffffffffffffffffffffffffffffffff16815260200190815260200160002060008373ffffffffffffffffffffffffffffffffffffffff1673ffffffffffffffffffffffffffffffffffffffff16815260200190815260200160002060009054906101000a900460ff16905092915050565b610f086110ce565b73ffffffffffffffffffffffffffffffffffffffff16610f26610b4a565b73ffffffffffffffffffffffffffffffffffffffff1614610f7c576040517f08c379a0000000000000000000000000000000000000000000000000000000008152600401610f7390612a40565b60405180910390fd5b600073ffffffffffffffffffffffffffffffffffffffff168173ffffffffffffffffffffffffffffffffffffffff161415610fec576040517f08c379a0000000000000000000000000000000000000000000000000000000008152600401610fe390612d5c565b60405180910390fd5b610ff5816114c9565b50565b60007f01ffc9a7000000000000000000000000000000000000000000000000000000007bffffffffffffffffffffffffffffffffffffffffffffffffffffffff1916827bffffffffffffffffffffffffffffffffffffffffffffffffffffffff1916149050919050565b60008073ffffffffffffffffffffffffffffffffffffffff166002600084815260200190815260200160002060009054906101000a900473ffffffffffffffffffffffffffffffffffffffff1673ffffffffffffffffffffffffffffffffffffffff1614159050919050565b600033905090565b816004600083815260200190815260200160002060006101000a81548173ffffffffffffffffffffffffffffffffffffffff021916908373ffffffffffffffffffffffffffffffffffffffff160217905550808273ffffffffffffffffffffffffffffffffffffffff166111498361083b565b73ffffffffffffffffffffffffffffffffffffffff167f8c5be1e5ebec7d5bd14f71427d1e84f3dd0314c0f7b2291e5b200ac8c7c3b92560405160405180910390a45050565b600061119a82611062565b6111d9576040517f08c379a00000000000000000000000000000000000000000000000000000000081526004016111d090612dee565b60405180910390fd5b60006111e48361083b565b90508073ffffffffffffffffffffffffffffffffffffffff168473ffffffffffffffffffffffffffffffffffffffff16148061125357508373ffffffffffffffffffffffffffffffffffffffff1661123b84610588565b73ffffffffffffffffffffffffffffffffffffffff16145b8061126457506112638185610e6c565b5b91505092915050565b8273ffffffffffffffffffffffffffffffffffffffff1661128d8261083b565b73ffffffffffffffffffffffffffffffffffffffff16146112e3576040517f08c379a00000000000000000000000000000000000000000000000000000000081526004016112da90612e80565b60405180910390fd5b600073ffffffffffffffffffffffffffffffffffffffff168273ffffffffffffffffffffffffffffffffffffffff161415611353576040517f08c379a000000000000000000000000000000000000000000000000000000000815260040161134a90612f12565b60405180910390fd5b61135e838383611b31565b6113696000826110d6565b6001600360008573ffffffffffffffffffffffffffffffffffffffff1673ffffffffffffffffffffffffffffffffffffffff16815260200190815260200160002060008282546113b99190612f32565b925050819055506001600360008473ffffffffffffffffffffffffffffffffffffffff1673ffffffffffffffffffffffffffffffffffffffff16815260200190815260200160002060008282546114109190612f66565b92505081905550816002600083815260200190815260200160002060006101000a81548173ffffffffffffffffffffffffffffffffffffffff021916908373ffffffffffffffffffffffffffffffffffffffff160217905550808273ffffffffffffffffffffffffffffffffffffffff168473ffffffffffffffffffffffffffffffffffffffff167fddf252ad1be2c89b69c2b068fc378daa952ba7f163c4a11628f55a4df523b3ef60405160405180910390a4505050565b6000600660009054906101000a900473ffffffffffffffffffffffffffffffffffffffff16905081600660006101000a81548173ffffffffffffffffffffffffffffffffffffffff021916908373ffffffffffffffffffffffffffffffffffffffff1602179055508173ffffffffffffffffffffffffffffffffffffffff168173ffffffffffffffffffffffffffffffffffffffff167f8be0079c531659141344cd1fd0a4f28419497f9722a3daafe3b4186f6b6457e060405160405180910390a35050565b8173ffffffffffffffffffffffffffffffffffffffff168373ffffffffffffffffffffffffffffffffffffffff1614156115fe576040517f08c379a00000000000000000000000000000000000000000000000000000000081526004016115f590613008565b60405180910390fd5b80600560008573ffffffffffffffffffffffffffffffffffffffff1673ffffffffffffffffffffffffffffffffffffffff16815260200190815260200160002060008473ffffffffffffffffffffffffffffffffffffffff1673ffffffffffffffffffffffffffffffffffffffff16815260200190815260200160002060006101000a81548160ff0219169083151502179055508173ffffffffffffffffffffffffffffffffffffffff168373ffffffffffffffffffffffffffffffffffffffff167f17307eab39ab6107e8899845ad3d59bd9653f200f220920489ca2b5937696c31836040516116ef9190612072565b60405180910390a3505050565b61170784848461126d565b61171384848484611b36565b611752576040517f08c379a00000000000000000000000000000000000000000000000000000000081526004016117499061309a565b60405180910390fd5b50505050565b606061176382611062565b6117a2576040517f08c379a00000000000000000000000000000000000000000000000000000000081526004016117999061312c565b60405180910390fd5b60006007600084815260200190815260200160002080546117c29061277a565b80601f01602080910402602001604051908101604052809291908181526020018280546117ee9061277a565b801561183b5780601f106118105761010080835404028352916020019161183b565b820191906000526020600020905b81548152906001019060200180831161181e57829003601f168201915b50505050509050600061184c611cf6565b90506000815114156118625781925050506118c6565b60008251111561189757808260405160200161187f92919061314c565b604051602081830303815290604052925050506118c6565b806118a185611d88565b6040516020016118b292919061314c565b604051602081830303815290604052925050505b919050565b600081600001549050919050565b600073ffffffffffffffffffffffffffffffffffffffff168273ffffffffffffffffffffffffffffffffffffffff161415611949576040517f08c379a0000000000000000000000000000000000000000000000000000000008152600401611940906131bc565b60405180910390fd5b61195281611062565b15611992576040517f08c379a000000000000000000000000000000000000000000000000000000000815260040161198990613228565b60405180910390fd5b61199e60008383611b31565b6001600360008473ffffffffffffffffffffffffffffffffffffffff1673ffffffffffffffffffffffffffffffffffffffff16815260200190815260200160002060008282546119ee9190612f66565b92505081905550816002600083815260200190815260200160002060006101000a81548173ffffffffffffffffffffffffffffffffffffffff021916908373ffffffffffffffffffffffffffffffffffffffff160217905550808273ffffffffffffffffffffffffffffffffffffffff16600073ffffffffffffffffffffffffffffffffffffffff167fddf252ad1be2c89b69c2b068fc378daa952ba7f163c4a11628f55a4df523b3ef60405160405180910390a45050565b611ab082611062565b611aef576040517f08c379a0000000000000000000000000000000000000000000000000000000008152600401611ae6906132ba565b60405180910390fd5b80600760008481526020019081526020016000209080519060200190611b16929190611f1b565b505050565b6001816000016000828254019250508190555050565b505050565b6000611b578473ffffffffffffffffffffffffffffffffffffffff16611f08565b15611ce9578373ffffffffffffffffffffffffffffffffffffffff1663150b7a02611b806110ce565b8786866040518563ffffffff167c0100000000000000000000000000000000000000000000000000000000028152600401611bbe949392919061332f565b6020604051808303816000875af1925050508015611bfa57506040513d601f19601f82011682018060405250810190611bf79190613390565b60015b611c7d573d8060008114611c2a576040519150601f19603f3d011682016040523d82523d6000602084013e611c2f565b606091505b50600081511415611c75576040517f08c379a0000000000000000000000000000000000000000000000000000000008152600401611c6c9061309a565b60405180910390fd5b805181602001fd5b63150b7a027c0100000000000000000000000000000000000000000000000000000000027bffffffffffffffffffffffffffffffffffffffffffffffffffffffff1916817bffffffffffffffffffffffffffffffffffffffffffffffffffffffff191614915050611cee565b600190505b949350505050565b606060098054611d059061277a565b80601f0160208091040260200160405190810160405280929190818152602001828054611d319061277a565b8015611d7e5780601f10611d5357610100808354040283529160200191611d7e565b820191906000526020600020905b815481529060010190602001808311611d6157829003601f168201915b5050505050905090565b60606000821415611dd0576040518060400160405280600181526020017f30000000000000000000000000000000000000000000000000000000000000008152509050611f03565b600082905060005b60008214611e02578080611deb90612be2565b915050600a82611dfb91906133ec565b9150611dd8565b60008167ffffffffffffffff811115611e1e57611e1d6122d0565b5b6040519080825280601f01601f191660200182016040528015611e505781602001600182028036833780820191505090505b5090505b60008514611efc57600182611e699190612f32565b9150600a85611e78919061341d565b6030611e849190612f66565b7f010000000000000000000000000000000000000000000000000000000000000002818381518110611eb957611eb8612b84565b5b60200101907effffffffffffffffffffffffffffffffffffffffffffffffffffffffffffff1916908160001a905350600a85611ef591906133ec565b9450611e54565b8093505050505b919050565b600080823b905060008111915050919050565b828054611f279061277a565b90600052602060002090601f016020900481019282611f495760008555611f90565b82601f10611f6257805160ff1916838001178555611f90565b82800160010185558215611f90579182015b82811115611f8f578251825591602001919060010190611f74565b5b509050611f9d9190611fa1565b5090565b5b80821115611fba576000816000905550600101611fa2565b5090565b6000604051905090565b600080fd5b600080fd5b60007fffffffff0000000000000000000000000000000000000000000000000000000082169050919050565b61200781611fd2565b811461201257600080fd5b50565b60008135905061202481611ffe565b92915050565b6000602082840312156120405761203f611fc8565b5b600061204e84828501612015565b91505092915050565b60008115159050919050565b61206c81612057565b82525050565b60006020820190506120876000830184612063565b92915050565b600081519050919050565b600082825260208201905092915050565b60005b838110156120c75780820151818401526020810190506120ac565b838111156120d6576000848401525b50505050565b6000601f19601f8301169050919050565b60006120f88261208d565b6121028185612098565b93506121128185602086016120a9565b61211b816120dc565b840191505092915050565b6000602082019050818103600083015261214081846120ed565b905092915050565b6000819050919050565b61215b81612148565b811461216657600080fd5b50565b60008135905061217881612152565b92915050565b60006020828403121561219457612193611fc8565b5b60006121a284828501612169565b91505092915050565b600073ffffffffffffffffffffffffffffffffffffffff82169050919050565b60006121d6826121ab565b9050919050565b6121e6816121cb565b82525050565b600060208201905061220160008301846121dd565b92915050565b612210816121cb565b811461221b57600080fd5b50565b60008135905061222d81612207565b92915050565b6000806040838503121561224a57612249611fc8565b5b60006122588582860161221e565b925050602061226985828601612169565b9150509250929050565b60008060006060848603121561228c5761228b611fc8565b5b600061229a8682870161221e565b93505060206122ab8682870161221e565b92505060406122bc86828701612169565b9150509250925092565b600080fd5b600080fd5b7f4e487b7100000000000000000000000000000000000000000000000000000000600052604160045260246000fd5b612308826120dc565b810181811067ffffffffffffffff82111715612327576123266122d0565b5b80604052505050565b600061233a611fbe565b905061234682826122ff565b919050565b600067ffffffffffffffff821115612366576123656122d0565b5b61236f826120dc565b9050602081019050919050565b82818337600083830152505050565b600061239e6123998461234b565b612330565b9050828152602081018484840111156123ba576123b96122cb565b5b6123c584828561237c565b509392505050565b600082601f8301126123e2576123e16122c6565b5b81356123f284826020860161238b565b91505092915050565b60006020828403121561241157612410611fc8565b5b600082013567ffffffffffffffff81111561242f5761242e611fcd565b5b61243b848285016123cd565b91505092915050565b60006020828403121561245a57612459611fc8565b5b60006124688482850161221e565b91505092915050565b61247a81612148565b82525050565b60006020820190506124956000830184612471565b92915050565b600081519050919050565b600082825260208201905092915050565b6000819050602082019050919050565b6124d081612148565b82525050565b60006124e283836124c7565b60208301905092915050565b6000602082019050919050565b60006125068261249b565b61251081856124a6565b935061251b836124b7565b8060005b8381101561254c57815161253388826124d6565b975061253e836124ee565b92505060018101905061251f565b5085935050505092915050565b6000602082019050818103600083015261257381846124fb565b905092915050565b61258481612057565b811461258f57600080fd5b50565b6000813590506125a18161257b565b92915050565b600080604083850312156125be576125bd611fc8565b5b60006125cc8582860161221e565b92505060206125dd85828601612592565b9150509250929050565b600067ffffffffffffffff821115612602576126016122d0565b5b61260b826120dc565b9050602081019050919050565b600061262b612626846125e7565b612330565b905082815260208101848484011115612647576126466122cb565b5b61265284828561237c565b509392505050565b600082601f83011261266f5761266e6122c6565b5b813561267f848260208601612618565b91505092915050565b600080600080608085870312156126a2576126a1611fc8565b5b60006126b08782880161221e565b94505060206126c18782880161221e565b93505060406126d287828801612169565b925050606085013567ffffffffffffffff8111156126f3576126f2611fcd565b5b6126ff8782880161265a565b91505092959194509250565b6000806040838503121561272257612721611fc8565b5b60006127308582860161221e565b92505060206127418582860161221e565b9150509250929050565b7f4e487b7100000000000000000000000000000000000000000000000000000000600052602260045260246000fd5b6000600282049050600182168061279257607f821691505b602082108114156127a6576127a561274b565b5b50919050565b7f4552433732313a20617070726f76656420717565727920666f72206e6f6e657860008201527f697374656e7420746f6b656e0000000000000000000000000000000000000000602082015250565b6000612808602c83612098565b9150612813826127ac565b604082019050919050565b60006020820190508181036000830152612837816127fb565b9050919050565b7f4552433732313a20617070726f76616c20746f2063757272656e74206f776e6560008201527f7200000000000000000000000000000000000000000000000000000000000000602082015250565b600061289a602183612098565b91506128a58261283e565b604082019050919050565b600060208201905081810360008301526128c98161288d565b9050919050565b7f4552433732313a20617070726f76652063616c6c6572206973206e6f74206f7760008201527f6e6572206e6f7220617070726f76656420666f7220616c6c0000000000000000602082015250565b600061292c603883612098565b9150612937826128d0565b604082019050919050565b6000602082019050818103600083015261295b8161291f565b9050919050565b7f4552433732313a207472616e736665722063616c6c6572206973206e6f74206f60008201527f776e6572206e6f7220617070726f766564000000000000000000000000000000602082015250565b60006129be603183612098565b91506129c982612962565b604082019050919050565b600060208201905081810360008301526129ed816129b1565b9050919050565b7f4f776e61626c653a2063616c6c6572206973206e6f7420746865206f776e6572600082015250565b6000612a2a602083612098565b9150612a35826129f4565b602082019050919050565b60006020820190508181036000830152612a5981612a1d565b9050919050565b7f4552433732313a206f776e657220717565727920666f72206e6f6e657869737460008201527f656e7420746f6b656e0000000000000000000000000000000000000000000000602082015250565b6000612abc602983612098565b9150612ac782612a60565b604082019050919050565b60006020820190508181036000830152612aeb81612aaf565b9050919050565b7f4552433732313a2062616c616e636520717565727920666f7220746865207a6560008201527f726f206164647265737300000000000000000000000000000000000000000000602082015250565b6000612b4e602a83612098565b9150612b5982612af2565b604082019050919050565b60006020820190508181036000830152612b7d81612b41565b9050919050565b7f4e487b7100000000000000000000000000000000000000000000000000000000600052603260045260246000fd5b7f4e487b7100000000000000000000000000000000000000000000000000000000600052601160045260246000fd5b6000612bed82612148565b91507fffffffffffffffffffffffffffffffffffffffffffffffffffffffffffffffff821415612c2057612c1f612bb3565b5b600182019050919050565b600081905092915050565b6000612c418261208d565b612c4b8185612c2b565b9350612c5b8185602086016120a9565b80840191505092915050565b6000612c738284612c36565b915081905092915050565b7f4f626a65637420616c7265616479206578697374730000000000000000000000600082015250565b6000612cb4601583612098565b9150612cbf82612c7e565b602082019050919050565b60006020820190508181036000830152612ce381612ca7565b9050919050565b7f4f776e61626c653a206e6577206f776e657220697320746865207a65726f206160008201527f6464726573730000000000000000000000000000000000000000000000000000602082015250565b6000612d46602683612098565b9150612d5182612cea565b604082019050919050565b60006020820190508181036000830152612d7581612d39565b9050919050565b7f4552433732313a206f70657261746f7220717565727920666f72206e6f6e657860008201527f697374656e7420746f6b656e0000000000000000000000000000000000000000602082015250565b6000612dd8602c83612098565b9150612de382612d7c565b604082019050919050565b60006020820190508181036000830152612e0781612dcb565b9050919050565b7f4552433732313a207472616e73666572206f6620746f6b656e2074686174206960008201527f73206e6f74206f776e0000000000000000000000000000000000000000000000602082015250565b6000612e6a602983612098565b9150612e7582612e0e565b604082019050919050565b60006020820190508181036000830152612e9981612e5d565b9050919050565b7f4552433732313a207472616e7366657220746f20746865207a65726f2061646460008201527f7265737300000000000000000000000000000000000000000000000000000000602082015250565b6000612efc602483612098565b9150612f0782612ea0565b604082019050919050565b60006020820190508181036000830152612f2b81612eef565b9050919050565b6000612f3d82612148565b9150612f4883612148565b925082821015612f5b57612f5a612bb3565b5b828203905092915050565b6000612f7182612148565b9150612f7c83612148565b9250827fffffffffffffffffffffffffffffffffffffffffffffffffffffffffffffffff03821115612fb157612fb0612bb3565b5b828201905092915050565b7f4552433732313a20617070726f766520746f2063616c6c657200000000000000600082015250565b6000612ff2601983612098565b9150612ffd82612fbc565b602082019050919050565b6000602082019050818103600083015261302181612fe5565b9050919050565b7f4552433732313a207472616e7366657220746f206e6f6e20455243373231526560008201527f63656976657220696d706c656d656e7465720000000000000000000000000000602082015250565b6000613084603283612098565b915061308f82613028565b604082019050919050565b600060208201905081810360008301526130b381613077565b9050919050565b7f4552433732314d657461646174613a2055524920717565727920666f72206e6f60008201527f6e6578697374656e7420746f6b656e0000000000000000000000000000000000602082015250565b6000613116602f83612098565b9150613121826130ba565b604082019050919050565b6000602082019050818103600083015261314581613109565b9050919050565b60006131588285612c36565b91506131648284612c36565b91508190509392505050565b7f4552433732313a206d696e7420746f20746865207a65726f2061646472657373600082015250565b60006131a6602083612098565b91506131b182613170565b602082019050919050565b600060208201905081810360008301526131d581613199565b9050919050565b7f4552433732313a20746f6b656e20616c7265616479206d696e74656400000000600082015250565b6000613212601c83612098565b915061321d826131dc565b602082019050919050565b6000602082019050818103600083015261324181613205565b9050919050565b7f4552433732314d657461646174613a2055524920736574206f66206e6f6e657860008201527f697374656e7420746f6b656e0000000000000000000000000000000000000000602082015250565b60006132a4602c83612098565b91506132af82613248565b604082019050919050565b600060208201905081810360008301526132d381613297565b9050919050565b600081519050919050565b600082825260208201905092915050565b6000613301826132da565b61330b81856132e5565b935061331b8185602086016120a9565b613324816120dc565b840191505092915050565b600060808201905061334460008301876121dd565b61335160208301866121dd565b61335e6040830185612471565b818103606083015261337081846132f6565b905095945050505050565b60008151905061338a81611ffe565b92915050565b6000602082840312156133a6576133a5611fc8565b5b60006133b48482850161337b565b91505092915050565b7f4e487b7100000000000000000000000000000000000000000000000000000000600052601260045260246000fd5b60006133f782612148565b915061340283612148565b925082613412576134116133bd565b5b828204905092915050565b600061342882612148565b915061343383612148565b925082613443576134426133bd565b5b82820690509291505056fea2646970667358221220fc34f9fb59cc002e1388eee2f66a57337d6b8084ae8335c774564a2734b08bd564736f6c634300080b0033",
  "immutableReferences": {},
  "source": "// SPDX-License-Identifier: MIT\npragma solidity >=0.4.22 <0.9.0;\n\nimport \"./BaseContract.sol\";\n\ncontract Nft is ERC721, BaseContract(\"Nft\", \"NFT\") {\n    using SafeMath for uint256;\n    using Counters for Counters.Counter;\n\n    string public baseTokenURI = \"https://ipfs.io/ipfs/\";\n\n    mapping(uint256 => address) tokensToOwner;\n\n    Counters.Counter private _tokenIds;\n    mapping(string => bool) _tokenExists;\n    mapping(address => bool) _userExists;\n\n    function mint(string memory cid) public returns (uint256 _id) {\n        require(!_tokenExists[cid], \"Object already exists\");\n\n        _id = _tokenIds.current();\n        _mint(msg.sender, _id);\n\n        tokensToOwner[_id] = msg.sender;\n        tokenURIs[_id] = cid;\n        _tokenExists[cid] = true;\n        _setTokenUri(_id, cid);\n        _tokenIds.increment();\n\n        return _id;\n    }\n\n    function tokensOfOwner(address _owner)\n        public\n        view\n        returns (uint256[] memory)\n    {\n        uint256 tokenCount = balanceOf(_owner);\n        uint256[] memory tokensId = new uint256[](tokenCount);\n        // string[] memory  userTokens = new string[](tokenCount);\n        uint256 counter = 0;\n        for (uint256 i = 0; i < tokenCount; i++) {\n            // tokensId[i] = tokenOfOwnerByIndex(_owner, i);\n            if (tokensToOwner[i] == _owner) {\n                //    userTokens[i] = tokensList[i];\n                tokensId[counter] = i;\n                counter++;\n            }\n        }\n        return tokensId;\n    }\n\n    function _baseURI()\n        internal\n        view\n        virtual\n        override(ERC721, BaseContract)\n        returns (string memory)\n    {\n        return baseTokenURI;\n    }\n\n    function tokenURI(uint256 tokenId)\n        public\n        view\n        virtual\n        override(ERC721, BaseContract)\n        returns (string memory)\n    {\n        return super.tokenURI(tokenId);\n    }\n}\n",
  "sourcePath": "/Users/lenahierzi/Developer/consensys/blockchain-developer-bootcamp-final-project/contracts/NFT.sol",
  "compiler": {
    "name": "solc",
    "version": "0.8.11+commit.d7f03943.Emscripten.clang"
  },
  "schemaVersion": "3.4.3",
  "updatedAt": "2022-01-08T00:27:23.346Z",
  "networkType": "ethereum",
  "devdoc": {
    "kind": "dev",
    "methods": {
      "approve(address,uint256)": {
        "details": "See {IERC721-approve}."
      },
      "balanceOf(address)": {
        "details": "See {IERC721-balanceOf}."
      },
      "getApproved(uint256)": {
        "details": "See {IERC721-getApproved}."
      },
      "isApprovedForAll(address,address)": {
        "details": "See {IERC721-isApprovedForAll}."
      },
      "name()": {
        "details": "See {IERC721Metadata-name}."
      },
      "owner()": {
        "details": "Returns the address of the current owner."
      },
      "ownerOf(uint256)": {
        "details": "See {IERC721-ownerOf}."
      },
      "renounceOwnership()": {
        "details": "Leaves the contract without owner. It will not be possible to call `onlyOwner` functions anymore. Can only be called by the current owner. NOTE: Renouncing ownership will leave the contract without an owner, thereby removing any functionality that is only available to the owner."
      },
      "safeTransferFrom(address,address,uint256)": {
        "details": "See {IERC721-safeTransferFrom}."
      },
      "safeTransferFrom(address,address,uint256,bytes)": {
        "details": "See {IERC721-safeTransferFrom}."
      },
      "setApprovalForAll(address,bool)": {
        "details": "See {IERC721-setApprovalForAll}."
      },
      "supportsInterface(bytes4)": {
        "details": "See {IERC165-supportsInterface}."
      },
      "symbol()": {
        "details": "See {IERC721Metadata-symbol}."
      },
      "transferFrom(address,address,uint256)": {
        "details": "See {IERC721-transferFrom}."
      },
      "transferOwnership(address)": {
        "details": "Transfers ownership of the contract to a new account (`newOwner`). Can only be called by the current owner."
      }
    },
    "version": 1
  },
  "userdoc": {
    "kind": "user",
    "methods": {},
    "version": 1
  }
}