{
  "contractName": "Nft",
  "abi": [
    {
      "anonymous": false,
      "inputs": [
        {
          "indexed": true,
          "internalType": "address",
          "name": "owner",
          "type": "address"
        },
        {
          "indexed": true,
          "internalType": "address",
          "name": "approved",
          "type": "address"
        },
        {
          "indexed": true,
          "internalType": "uint256",
          "name": "tokenId",
          "type": "uint256"
        }
      ],
      "name": "Approval",
      "type": "event"
    },
    {
      "anonymous": false,
      "inputs": [
        {
          "indexed": true,
          "internalType": "address",
          "name": "owner",
          "type": "address"
        },
        {
          "indexed": true,
          "internalType": "address",
          "name": "operator",
          "type": "address"
        },
        {
          "indexed": false,
          "internalType": "bool",
          "name": "approved",
          "type": "bool"
        }
      ],
      "name": "ApprovalForAll",
      "type": "event"
    },
    {
      "anonymous": false,
      "inputs": [
        {
          "indexed": true,
          "internalType": "address",
          "name": "previousOwner",
          "type": "address"
        },
        {
          "indexed": true,
          "internalType": "address",
          "name": "newOwner",
          "type": "address"
        }
      ],
      "name": "OwnershipTransferred",
      "type": "event"
    },
    {
      "anonymous": false,
      "inputs": [
        {
          "indexed": true,
          "internalType": "address",
          "name": "from",
          "type": "address"
        },
        {
          "indexed": true,
          "internalType": "address",
          "name": "to",
          "type": "address"
        },
        {
          "indexed": true,
          "internalType": "uint256",
          "name": "tokenId",
          "type": "uint256"
        }
      ],
      "name": "Transfer",
      "type": "event"
    },
    {
      "inputs": [
        {
          "internalType": "address",
          "name": "to",
          "type": "address"
        },
        {
          "internalType": "uint256",
          "name": "tokenId",
          "type": "uint256"
        }
      ],
      "name": "approve",
      "outputs": [],
      "stateMutability": "nonpayable",
      "type": "function"
    },
    {
      "inputs": [
        {
          "internalType": "address",
          "name": "owner",
          "type": "address"
        }
      ],
      "name": "balanceOf",
      "outputs": [
        {
          "internalType": "uint256",
          "name": "",
          "type": "uint256"
        }
      ],
      "stateMutability": "view",
      "type": "function"
    },
    {
      "inputs": [],
      "name": "baseTokenURI",
      "outputs": [
        {
          "internalType": "string",
          "name": "",
          "type": "string"
        }
      ],
      "stateMutability": "view",
      "type": "function"
    },
    {
      "inputs": [
        {
          "internalType": "uint256",
          "name": "tokenId",
          "type": "uint256"
        }
      ],
      "name": "getApproved",
      "outputs": [
        {
          "internalType": "address",
          "name": "",
          "type": "address"
        }
      ],
      "stateMutability": "view",
      "type": "function"
    },
    {
      "inputs": [
        {
          "internalType": "address",
          "name": "owner",
          "type": "address"
        },
        {
          "internalType": "address",
          "name": "operator",
          "type": "address"
        }
      ],
      "name": "isApprovedForAll",
      "outputs": [
        {
          "internalType": "bool",
          "name": "",
          "type": "bool"
        }
      ],
      "stateMutability": "view",
      "type": "function"
    },
    {
      "inputs": [],
      "name": "name",
      "outputs": [
        {
          "internalType": "string",
          "name": "",
          "type": "string"
        }
      ],
      "stateMutability": "view",
      "type": "function"
    },
    {
      "inputs": [],
      "name": "owner",
      "outputs": [
        {
          "internalType": "address",
          "name": "",
          "type": "address"
        }
      ],
      "stateMutability": "view",
      "type": "function"
    },
    {
      "inputs": [
        {
          "internalType": "uint256",
          "name": "tokenId",
          "type": "uint256"
        }
      ],
      "name": "ownerOf",
      "outputs": [
        {
          "internalType": "address",
          "name": "",
          "type": "address"
        }
      ],
      "stateMutability": "view",
      "type": "function"
    },
    {
      "inputs": [],
      "name": "renounceOwnership",
      "outputs": [],
      "stateMutability": "nonpayable",
      "type": "function"
    },
    {
      "inputs": [
        {
          "internalType": "address",
          "name": "from",
          "type": "address"
        },
        {
          "internalType": "address",
          "name": "to",
          "type": "address"
        },
        {
          "internalType": "uint256",
          "name": "tokenId",
          "type": "uint256"
        }
      ],
      "name": "safeTransferFrom",
      "outputs": [],
      "stateMutability": "nonpayable",
      "type": "function"
    },
    {
      "inputs": [
        {
          "internalType": "address",
          "name": "from",
          "type": "address"
        },
        {
          "internalType": "address",
          "name": "to",
          "type": "address"
        },
        {
          "internalType": "uint256",
          "name": "tokenId",
          "type": "uint256"
        },
        {
          "internalType": "bytes",
          "name": "_data",
          "type": "bytes"
        }
      ],
      "name": "safeTransferFrom",
      "outputs": [],
      "stateMutability": "nonpayable",
      "type": "function"
    },
    {
      "inputs": [
        {
          "internalType": "address",
          "name": "operator",
          "type": "address"
        },
        {
          "internalType": "bool",
          "name": "approved",
          "type": "bool"
        }
      ],
      "name": "setApprovalForAll",
      "outputs": [],
      "stateMutability": "nonpayable",
      "type": "function"
    },
    {
      "inputs": [
        {
          "internalType": "string",
          "name": "baseURI_",
          "type": "string"
        }
      ],
      "name": "setBaseURI",
      "outputs": [],
      "stateMutability": "nonpayable",
      "type": "function"
    },
    {
      "inputs": [
        {
          "internalType": "bytes4",
          "name": "interfaceId",
          "type": "bytes4"
        }
      ],
      "name": "supportsInterface",
      "outputs": [
        {
          "internalType": "bool",
          "name": "",
          "type": "bool"
        }
      ],
      "stateMutability": "view",
      "type": "function"
    },
    {
      "inputs": [],
      "name": "symbol",
      "outputs": [
        {
          "internalType": "string",
          "name": "",
          "type": "string"
        }
      ],
      "stateMutability": "view",
      "type": "function"
    },
    {
      "inputs": [
        {
          "internalType": "address",
          "name": "from",
          "type": "address"
        },
        {
          "internalType": "address",
          "name": "to",
          "type": "address"
        },
        {
          "internalType": "uint256",
          "name": "tokenId",
          "type": "uint256"
        }
      ],
      "name": "transferFrom",
      "outputs": [],
      "stateMutability": "nonpayable",
      "type": "function"
    },
    {
      "inputs": [
        {
          "internalType": "address",
          "name": "newOwner",
          "type": "address"
        }
      ],
      "name": "transferOwnership",
      "outputs": [],
      "stateMutability": "nonpayable",
      "type": "function"
    },
    {
      "inputs": [
        {
          "internalType": "address",
          "name": "to",
          "type": "address"
        },
        {
          "internalType": "string",
          "name": "cid",
          "type": "string"
        }
      ],
      "name": "mint",
      "outputs": [
        {
          "internalType": "uint256",
          "name": "_id",
          "type": "uint256"
        }
      ],
      "stateMutability": "nonpayable",
      "type": "function"
    },
    {
      "inputs": [
        {
          "internalType": "address",
          "name": "_owner",
          "type": "address"
        }
      ],
      "name": "tokensOfOwner",
      "outputs": [
        {
          "internalType": "uint256[]",
          "name": "",
          "type": "uint256[]"
        }
      ],
      "stateMutability": "view",
      "type": "function"
    },
    {
      "inputs": [
        {
          "internalType": "uint256",
          "name": "tokenId",
          "type": "uint256"
        }
      ],
      "name": "tokenURI",
      "outputs": [
        {
          "internalType": "string",
          "name": "",
          "type": "string"
        }
      ],
      "stateMutability": "view",
      "type": "function"
    }
  ],
  "bytecode": "0x60806040526040518060400160405280601581526020017f68747470733a2f2f697066732e696f2f697066732f000000000000000000000081525060099080519060200190620000519291906200020a565b503480156200005f57600080fd5b506040518060400160405280600381526020017f4e667400000000000000000000000000000000000000000000000000000000008152506040518060400160405280600381526020017f4e4654000000000000000000000000000000000000000000000000000000000081525081818160009080519060200190620000e69291906200020a565b508060019080519060200190620000ff9291906200020a565b505050620001346200011f6200013c640100000000026401000000009004565b62000144640100000000026401000000009004565b50506200031f565b600033905090565b6000600660009054906101000a900473ffffffffffffffffffffffffffffffffffffffff16905081600660006101000a81548173ffffffffffffffffffffffffffffffffffffffff021916908373ffffffffffffffffffffffffffffffffffffffff1602179055508173ffffffffffffffffffffffffffffffffffffffff168173ffffffffffffffffffffffffffffffffffffffff167f8be0079c531659141344cd1fd0a4f28419497f9722a3daafe3b4186f6b6457e060405160405180910390a35050565b8280546200021890620002e9565b90600052602060002090601f0160209004810192826200023c576000855562000288565b82601f106200025757805160ff191683800117855562000288565b8280016001018555821562000288579182015b82811115620002875782518255916020019190600101906200026a565b5b5090506200029791906200029b565b5090565b5b80821115620002b65760008160009055506001016200029c565b5090565b7f4e487b7100000000000000000000000000000000000000000000000000000000600052602260045260246000fd5b600060028204905060018216806200030257607f821691505b60208210811415620003195762000318620002ba565b5b50919050565b6134e1806200032f6000396000f3fe608060405234801561001057600080fd5b5060043610610149576000357c0100000000000000000000000000000000000000000000000000000000900480638462151c116100ca578063c87b56dd1161008e578063c87b56dd1461034a578063d0def5211461037a578063d547cfb7146103aa578063e985e9c5146103c8578063f2fde38b146103f857610149565b80638462151c146102a65780638da5cb5b146102d657806395d89b41146102f4578063a22cb46514610312578063b88d4fde1461032e57610149565b806342842e0e1161011157806342842e0e1461020457806355f804b3146102205780636352211e1461023c57806370a082311461026c578063715018a61461029c57610149565b806301ffc9a71461014e57806306fdde031461017e578063081812fc1461019c578063095ea7b3146101cc57806323b872dd146101e8575b600080fd5b6101686004803603810190610163919061202b565b610414565b6040516101759190612073565b60405180910390f35b6101866104f6565b6040516101939190612127565b60405180910390f35b6101b660048036038101906101b1919061217f565b610588565b6040516101c391906121ed565b60405180910390f35b6101e660048036038101906101e19190612234565b61060d565b005b61020260048036038101906101fd9190612274565b610725565b005b61021e60048036038101906102199190612274565b610785565b005b61023a600480360381019061023591906123fc565b6107a5565b005b6102566004803603810190610251919061217f565b61083b565b60405161026391906121ed565b60405180910390f35b61028660048036038101906102819190612445565b6108ed565b6040516102939190612481565b60405180910390f35b6102a46109a5565b005b6102c060048036038101906102bb9190612445565b610a2d565b6040516102cd919061255a565b60405180910390f35b6102de610b4a565b6040516102eb91906121ed565b60405180910390f35b6102fc610b74565b6040516103099190612127565b60405180910390f35b61032c600480360381019061032791906125a8565b610c06565b005b61034860048036038101906103439190612689565b610c1c565b005b610364600480360381019061035f919061217f565b610c7e565b6040516103719190612127565b60405180910390f35b610394600480360381019061038f919061270c565b610c90565b6040516103a19190612481565b60405180910390f35b6103b2610ddf565b6040516103bf9190612127565b60405180910390f35b6103e260048036038101906103dd9190612768565b610e6d565b6040516103ef9190612073565b60405180910390f35b610412600480360381019061040d9190612445565b610f01565b005b60007f80ac58cd000000000000000000000000000000000000000000000000000000007bffffffffffffffffffffffffffffffffffffffffffffffffffffffff1916827bffffffffffffffffffffffffffffffffffffffffffffffffffffffff191614806104df57507f5b5e139f000000000000000000000000000000000000000000000000000000007bffffffffffffffffffffffffffffffffffffffffffffffffffffffff1916827bffffffffffffffffffffffffffffffffffffffffffffffffffffffff1916145b806104ef57506104ee82610ff9565b5b9050919050565b606060008054610505906127d7565b80601f0160208091040260200160405190810160405280929190818152602001828054610531906127d7565b801561057e5780601f106105535761010080835404028352916020019161057e565b820191906000526020600020905b81548152906001019060200180831161056157829003601f168201915b5050505050905090565b600061059382611063565b6105d2576040517f08c379a00000000000000000000000000000000000000000000000000000000081526004016105c99061287b565b60405180910390fd5b6004600083815260200190815260200160002060009054906101000a900473ffffffffffffffffffffffffffffffffffffffff169050919050565b60006106188261083b565b90508073ffffffffffffffffffffffffffffffffffffffff168373ffffffffffffffffffffffffffffffffffffffff161415610689576040517f08c379a00000000000000000000000000000000000000000000000000000000081526004016106809061290d565b60405180910390fd5b8073ffffffffffffffffffffffffffffffffffffffff166106a86110cf565b73ffffffffffffffffffffffffffffffffffffffff1614806106d757506106d6816106d16110cf565b610e6d565b5b610716576040517f08c379a000000000000000000000000000000000000000000000000000000000815260040161070d9061299f565b60405180910390fd5b61072083836110d7565b505050565b6107366107306110cf565b82611190565b610775576040517f08c379a000000000000000000000000000000000000000000000000000000000815260040161076c90612a31565b60405180910390fd5b61078083838361126e565b505050565b6107a083838360405180602001604052806000815250610c1c565b505050565b6107ad6110cf565b73ffffffffffffffffffffffffffffffffffffffff166107cb610b4a565b73ffffffffffffffffffffffffffffffffffffffff1614610821576040517f08c379a000000000000000000000000000000000000000000000000000000000815260040161081890612a9d565b60405180910390fd5b8060089080519060200190610837929190611f1c565b5050565b6000806002600084815260200190815260200160002060009054906101000a900473ffffffffffffffffffffffffffffffffffffffff169050600073ffffffffffffffffffffffffffffffffffffffff168173ffffffffffffffffffffffffffffffffffffffff1614156108e4576040517f08c379a00000000000000000000000000000000000000000000000000000000081526004016108db90612b2f565b60405180910390fd5b80915050919050565b60008073ffffffffffffffffffffffffffffffffffffffff168273ffffffffffffffffffffffffffffffffffffffff16141561095e576040517f08c379a000000000000000000000000000000000000000000000000000000000815260040161095590612bc1565b60405180910390fd5b600360008373ffffffffffffffffffffffffffffffffffffffff1673ffffffffffffffffffffffffffffffffffffffff168152602001908152602001600020549050919050565b6109ad6110cf565b73ffffffffffffffffffffffffffffffffffffffff166109cb610b4a565b73ffffffffffffffffffffffffffffffffffffffff1614610a21576040517f08c379a0000000000000000000000000000000000000000000000000000000008152600401610a1890612a9d565b60405180910390fd5b610a2b60006114ca565b565b60606000610a3a836108ed565b905060008167ffffffffffffffff811115610a5857610a576122d1565b5b604051908082528060200260200182016040528015610a865781602001602082028036833780820191505090505b5090506000805b83811015610b3e578573ffffffffffffffffffffffffffffffffffffffff16600a600083815260200190815260200160002060009054906101000a900473ffffffffffffffffffffffffffffffffffffffff1673ffffffffffffffffffffffffffffffffffffffff161415610b2b5780838381518110610b1057610b0f612be1565b5b6020026020010181815250508180610b2790612c3f565b9250505b8080610b3690612c3f565b915050610a8d565b50819350505050919050565b6000600660009054906101000a900473ffffffffffffffffffffffffffffffffffffffff16905090565b606060018054610b83906127d7565b80601f0160208091040260200160405190810160405280929190818152602001828054610baf906127d7565b8015610bfc5780601f10610bd157610100808354040283529160200191610bfc565b820191906000526020600020905b815481529060010190602001808311610bdf57829003601f168201915b5050505050905090565b610c18610c116110cf565b8383611590565b5050565b610c2d610c276110cf565b83611190565b610c6c576040517f08c379a0000000000000000000000000000000000000000000000000000000008152600401610c6390612a31565b60405180910390fd5b610c78848484846116fd565b50505050565b6060610c8982611759565b9050919050565b6000600c82604051610ca29190612cc4565b908152602001604051809103902060009054906101000a900460ff1615610cfe576040517f08c379a0000000000000000000000000000000000000000000000000000000008152600401610cf590612d27565b60405180910390fd5b610d08600b6118cc565b9050610d1483826118da565b82600a600083815260200190815260200160002060006101000a81548173ffffffffffffffffffffffffffffffffffffffff021916908373ffffffffffffffffffffffffffffffffffffffff16021790555081600760008381526020019081526020016000209080519060200190610d8d929190611f1c565b506001600c83604051610da09190612cc4565b908152602001604051809103902060006101000a81548160ff021916908315150217905550610dcf8183611aa8565b610dd9600b611b1c565b92915050565b60098054610dec906127d7565b80601f0160208091040260200160405190810160405280929190818152602001828054610e18906127d7565b8015610e655780601f10610e3a57610100808354040283529160200191610e65565b820191906000526020600020905b815481529060010190602001808311610e4857829003601f168201915b505050505081565b6000600560008473ffffffffffffffffffffffffffffffffffffffff1673ffffffffffffffffffffffffffffffffffffffff16815260200190815260200160002060008373ffffffffffffffffffffffffffffffffffffffff1673ffffffffffffffffffffffffffffffffffffffff16815260200190815260200160002060009054906101000a900460ff16905092915050565b610f096110cf565b73ffffffffffffffffffffffffffffffffffffffff16610f27610b4a565b73ffffffffffffffffffffffffffffffffffffffff1614610f7d576040517f08c379a0000000000000000000000000000000000000000000000000000000008152600401610f7490612a9d565b60405180910390fd5b600073ffffffffffffffffffffffffffffffffffffffff168173ffffffffffffffffffffffffffffffffffffffff161415610fed576040517f08c379a0000000000000000000000000000000000000000000000000000000008152600401610fe490612db9565b60405180910390fd5b610ff6816114ca565b50565b60007f01ffc9a7000000000000000000000000000000000000000000000000000000007bffffffffffffffffffffffffffffffffffffffffffffffffffffffff1916827bffffffffffffffffffffffffffffffffffffffffffffffffffffffff1916149050919050565b60008073ffffffffffffffffffffffffffffffffffffffff166002600084815260200190815260200160002060009054906101000a900473ffffffffffffffffffffffffffffffffffffffff1673ffffffffffffffffffffffffffffffffffffffff1614159050919050565b600033905090565b816004600083815260200190815260200160002060006101000a81548173ffffffffffffffffffffffffffffffffffffffff021916908373ffffffffffffffffffffffffffffffffffffffff160217905550808273ffffffffffffffffffffffffffffffffffffffff1661114a8361083b565b73ffffffffffffffffffffffffffffffffffffffff167f8c5be1e5ebec7d5bd14f71427d1e84f3dd0314c0f7b2291e5b200ac8c7c3b92560405160405180910390a45050565b600061119b82611063565b6111da576040517f08c379a00000000000000000000000000000000000000000000000000000000081526004016111d190612e4b565b60405180910390fd5b60006111e58361083b565b90508073ffffffffffffffffffffffffffffffffffffffff168473ffffffffffffffffffffffffffffffffffffffff16148061125457508373ffffffffffffffffffffffffffffffffffffffff1661123c84610588565b73ffffffffffffffffffffffffffffffffffffffff16145b8061126557506112648185610e6d565b5b91505092915050565b8273ffffffffffffffffffffffffffffffffffffffff1661128e8261083b565b73ffffffffffffffffffffffffffffffffffffffff16146112e4576040517f08c379a00000000000000000000000000000000000000000000000000000000081526004016112db90612edd565b60405180910390fd5b600073ffffffffffffffffffffffffffffffffffffffff168273ffffffffffffffffffffffffffffffffffffffff161415611354576040517f08c379a000000000000000000000000000000000000000000000000000000000815260040161134b90612f6f565b60405180910390fd5b61135f838383611b32565b61136a6000826110d7565b6001600360008573ffffffffffffffffffffffffffffffffffffffff1673ffffffffffffffffffffffffffffffffffffffff16815260200190815260200160002060008282546113ba9190612f8f565b925050819055506001600360008473ffffffffffffffffffffffffffffffffffffffff1673ffffffffffffffffffffffffffffffffffffffff16815260200190815260200160002060008282546114119190612fc3565b92505081905550816002600083815260200190815260200160002060006101000a81548173ffffffffffffffffffffffffffffffffffffffff021916908373ffffffffffffffffffffffffffffffffffffffff160217905550808273ffffffffffffffffffffffffffffffffffffffff168473ffffffffffffffffffffffffffffffffffffffff167fddf252ad1be2c89b69c2b068fc378daa952ba7f163c4a11628f55a4df523b3ef60405160405180910390a4505050565b6000600660009054906101000a900473ffffffffffffffffffffffffffffffffffffffff16905081600660006101000a81548173ffffffffffffffffffffffffffffffffffffffff021916908373ffffffffffffffffffffffffffffffffffffffff1602179055508173ffffffffffffffffffffffffffffffffffffffff168173ffffffffffffffffffffffffffffffffffffffff167f8be0079c531659141344cd1fd0a4f28419497f9722a3daafe3b4186f6b6457e060405160405180910390a35050565b8173ffffffffffffffffffffffffffffffffffffffff168373ffffffffffffffffffffffffffffffffffffffff1614156115ff576040517f08c379a00000000000000000000000000000000000000000000000000000000081526004016115f690613065565b60405180910390fd5b80600560008573ffffffffffffffffffffffffffffffffffffffff1673ffffffffffffffffffffffffffffffffffffffff16815260200190815260200160002060008473ffffffffffffffffffffffffffffffffffffffff1673ffffffffffffffffffffffffffffffffffffffff16815260200190815260200160002060006101000a81548160ff0219169083151502179055508173ffffffffffffffffffffffffffffffffffffffff168373ffffffffffffffffffffffffffffffffffffffff167f17307eab39ab6107e8899845ad3d59bd9653f200f220920489ca2b5937696c31836040516116f09190612073565b60405180910390a3505050565b61170884848461126e565b61171484848484611b37565b611753576040517f08c379a000000000000000000000000000000000000000000000000000000000815260040161174a906130f7565b60405180910390fd5b50505050565b606061176482611063565b6117a3576040517f08c379a000000000000000000000000000000000000000000000000000000000815260040161179a90613189565b60405180910390fd5b60006007600084815260200190815260200160002080546117c3906127d7565b80601f01602080910402602001604051908101604052809291908181526020018280546117ef906127d7565b801561183c5780601f106118115761010080835404028352916020019161183c565b820191906000526020600020905b81548152906001019060200180831161181f57829003601f168201915b50505050509050600061184d611cf7565b90506000815114156118635781925050506118c7565b6000825111156118985780826040516020016118809291906131a9565b604051602081830303815290604052925050506118c7565b806118a285611d89565b6040516020016118b39291906131a9565b604051602081830303815290604052925050505b919050565b600081600001549050919050565b600073ffffffffffffffffffffffffffffffffffffffff168273ffffffffffffffffffffffffffffffffffffffff16141561194a576040517f08c379a000000000000000000000000000000000000000000000000000000000815260040161194190613219565b60405180910390fd5b61195381611063565b15611993576040517f08c379a000000000000000000000000000000000000000000000000000000000815260040161198a90613285565b60405180910390fd5b61199f60008383611b32565b6001600360008473ffffffffffffffffffffffffffffffffffffffff1673ffffffffffffffffffffffffffffffffffffffff16815260200190815260200160002060008282546119ef9190612fc3565b92505081905550816002600083815260200190815260200160002060006101000a81548173ffffffffffffffffffffffffffffffffffffffff021916908373ffffffffffffffffffffffffffffffffffffffff160217905550808273ffffffffffffffffffffffffffffffffffffffff16600073ffffffffffffffffffffffffffffffffffffffff167fddf252ad1be2c89b69c2b068fc378daa952ba7f163c4a11628f55a4df523b3ef60405160405180910390a45050565b611ab182611063565b611af0576040517f08c379a0000000000000000000000000000000000000000000000000000000008152600401611ae790613317565b60405180910390fd5b80600760008481526020019081526020016000209080519060200190611b17929190611f1c565b505050565b6001816000016000828254019250508190555050565b505050565b6000611b588473ffffffffffffffffffffffffffffffffffffffff16611f09565b15611cea578373ffffffffffffffffffffffffffffffffffffffff1663150b7a02611b816110cf565b8786866040518563ffffffff167c0100000000000000000000000000000000000000000000000000000000028152600401611bbf949392919061338c565b6020604051808303816000875af1925050508015611bfb57506040513d601f19601f82011682018060405250810190611bf891906133ed565b60015b611c7e573d8060008114611c2b576040519150601f19603f3d011682016040523d82523d6000602084013e611c30565b606091505b50600081511415611c76576040517f08c379a0000000000000000000000000000000000000000000000000000000008152600401611c6d906130f7565b60405180910390fd5b805181602001fd5b63150b7a027c0100000000000000000000000000000000000000000000000000000000027bffffffffffffffffffffffffffffffffffffffffffffffffffffffff1916817bffffffffffffffffffffffffffffffffffffffffffffffffffffffff191614915050611cef565b600190505b949350505050565b606060098054611d06906127d7565b80601f0160208091040260200160405190810160405280929190818152602001828054611d32906127d7565b8015611d7f5780601f10611d5457610100808354040283529160200191611d7f565b820191906000526020600020905b815481529060010190602001808311611d6257829003601f168201915b5050505050905090565b60606000821415611dd1576040518060400160405280600181526020017f30000000000000000000000000000000000000000000000000000000000000008152509050611f04565b600082905060005b60008214611e03578080611dec90612c3f565b915050600a82611dfc9190613449565b9150611dd9565b60008167ffffffffffffffff811115611e1f57611e1e6122d1565b5b6040519080825280601f01601f191660200182016040528015611e515781602001600182028036833780820191505090505b5090505b60008514611efd57600182611e6a9190612f8f565b9150600a85611e79919061347a565b6030611e859190612fc3565b7f010000000000000000000000000000000000000000000000000000000000000002818381518110611eba57611eb9612be1565b5b60200101907effffffffffffffffffffffffffffffffffffffffffffffffffffffffffffff1916908160001a905350600a85611ef69190613449565b9450611e55565b8093505050505b919050565b600080823b905060008111915050919050565b828054611f28906127d7565b90600052602060002090601f016020900481019282611f4a5760008555611f91565b82601f10611f6357805160ff1916838001178555611f91565b82800160010185558215611f91579182015b82811115611f90578251825591602001919060010190611f75565b5b509050611f9e9190611fa2565b5090565b5b80821115611fbb576000816000905550600101611fa3565b5090565b6000604051905090565b600080fd5b600080fd5b60007fffffffff0000000000000000000000000000000000000000000000000000000082169050919050565b61200881611fd3565b811461201357600080fd5b50565b60008135905061202581611fff565b92915050565b60006020828403121561204157612040611fc9565b5b600061204f84828501612016565b91505092915050565b60008115159050919050565b61206d81612058565b82525050565b60006020820190506120886000830184612064565b92915050565b600081519050919050565b600082825260208201905092915050565b60005b838110156120c85780820151818401526020810190506120ad565b838111156120d7576000848401525b50505050565b6000601f19601f8301169050919050565b60006120f98261208e565b6121038185612099565b93506121138185602086016120aa565b61211c816120dd565b840191505092915050565b6000602082019050818103600083015261214181846120ee565b905092915050565b6000819050919050565b61215c81612149565b811461216757600080fd5b50565b60008135905061217981612153565b92915050565b60006020828403121561219557612194611fc9565b5b60006121a38482850161216a565b91505092915050565b600073ffffffffffffffffffffffffffffffffffffffff82169050919050565b60006121d7826121ac565b9050919050565b6121e7816121cc565b82525050565b600060208201905061220260008301846121de565b92915050565b612211816121cc565b811461221c57600080fd5b50565b60008135905061222e81612208565b92915050565b6000806040838503121561224b5761224a611fc9565b5b60006122598582860161221f565b925050602061226a8582860161216a565b9150509250929050565b60008060006060848603121561228d5761228c611fc9565b5b600061229b8682870161221f565b93505060206122ac8682870161221f565b92505060406122bd8682870161216a565b9150509250925092565b600080fd5b600080fd5b7f4e487b7100000000000000000000000000000000000000000000000000000000600052604160045260246000fd5b612309826120dd565b810181811067ffffffffffffffff82111715612328576123276122d1565b5b80604052505050565b600061233b611fbf565b90506123478282612300565b919050565b600067ffffffffffffffff821115612367576123666122d1565b5b612370826120dd565b9050602081019050919050565b82818337600083830152505050565b600061239f61239a8461234c565b612331565b9050828152602081018484840111156123bb576123ba6122cc565b5b6123c684828561237d565b509392505050565b600082601f8301126123e3576123e26122c7565b5b81356123f384826020860161238c565b91505092915050565b60006020828403121561241257612411611fc9565b5b600082013567ffffffffffffffff8111156124305761242f611fce565b5b61243c848285016123ce565b91505092915050565b60006020828403121561245b5761245a611fc9565b5b60006124698482850161221f565b91505092915050565b61247b81612149565b82525050565b60006020820190506124966000830184612472565b92915050565b600081519050919050565b600082825260208201905092915050565b6000819050602082019050919050565b6124d181612149565b82525050565b60006124e383836124c8565b60208301905092915050565b6000602082019050919050565b60006125078261249c565b61251181856124a7565b935061251c836124b8565b8060005b8381101561254d57815161253488826124d7565b975061253f836124ef565b925050600181019050612520565b5085935050505092915050565b6000602082019050818103600083015261257481846124fc565b905092915050565b61258581612058565b811461259057600080fd5b50565b6000813590506125a28161257c565b92915050565b600080604083850312156125bf576125be611fc9565b5b60006125cd8582860161221f565b92505060206125de85828601612593565b9150509250929050565b600067ffffffffffffffff821115612603576126026122d1565b5b61260c826120dd565b9050602081019050919050565b600061262c612627846125e8565b612331565b905082815260208101848484011115612648576126476122cc565b5b61265384828561237d565b509392505050565b600082601f8301126126705761266f6122c7565b5b8135612680848260208601612619565b91505092915050565b600080600080608085870312156126a3576126a2611fc9565b5b60006126b18782880161221f565b94505060206126c28782880161221f565b93505060406126d38782880161216a565b925050606085013567ffffffffffffffff8111156126f4576126f3611fce565b5b6127008782880161265b565b91505092959194509250565b6000806040838503121561272357612722611fc9565b5b60006127318582860161221f565b925050602083013567ffffffffffffffff81111561275257612751611fce565b5b61275e858286016123ce565b9150509250929050565b6000806040838503121561277f5761277e611fc9565b5b600061278d8582860161221f565b925050602061279e8582860161221f565b9150509250929050565b7f4e487b7100000000000000000000000000000000000000000000000000000000600052602260045260246000fd5b600060028204905060018216806127ef57607f821691505b60208210811415612803576128026127a8565b5b50919050565b7f4552433732313a20617070726f76656420717565727920666f72206e6f6e657860008201527f697374656e7420746f6b656e0000000000000000000000000000000000000000602082015250565b6000612865602c83612099565b915061287082612809565b604082019050919050565b6000602082019050818103600083015261289481612858565b9050919050565b7f4552433732313a20617070726f76616c20746f2063757272656e74206f776e6560008201527f7200000000000000000000000000000000000000000000000000000000000000602082015250565b60006128f7602183612099565b91506129028261289b565b604082019050919050565b60006020820190508181036000830152612926816128ea565b9050919050565b7f4552433732313a20617070726f76652063616c6c6572206973206e6f74206f7760008201527f6e6572206e6f7220617070726f76656420666f7220616c6c0000000000000000602082015250565b6000612989603883612099565b91506129948261292d565b604082019050919050565b600060208201905081810360008301526129b88161297c565b9050919050565b7f4552433732313a207472616e736665722063616c6c6572206973206e6f74206f60008201527f776e6572206e6f7220617070726f766564000000000000000000000000000000602082015250565b6000612a1b603183612099565b9150612a26826129bf565b604082019050919050565b60006020820190508181036000830152612a4a81612a0e565b9050919050565b7f4f776e61626c653a2063616c6c6572206973206e6f7420746865206f776e6572600082015250565b6000612a87602083612099565b9150612a9282612a51565b602082019050919050565b60006020820190508181036000830152612ab681612a7a565b9050919050565b7f4552433732313a206f776e657220717565727920666f72206e6f6e657869737460008201527f656e7420746f6b656e0000000000000000000000000000000000000000000000602082015250565b6000612b19602983612099565b9150612b2482612abd565b604082019050919050565b60006020820190508181036000830152612b4881612b0c565b9050919050565b7f4552433732313a2062616c616e636520717565727920666f7220746865207a6560008201527f726f206164647265737300000000000000000000000000000000000000000000602082015250565b6000612bab602a83612099565b9150612bb682612b4f565b604082019050919050565b60006020820190508181036000830152612bda81612b9e565b9050919050565b7f4e487b7100000000000000000000000000000000000000000000000000000000600052603260045260246000fd5b7f4e487b7100000000000000000000000000000000000000000000000000000000600052601160045260246000fd5b6000612c4a82612149565b91507fffffffffffffffffffffffffffffffffffffffffffffffffffffffffffffffff821415612c7d57612c7c612c10565b5b600182019050919050565b600081905092915050565b6000612c9e8261208e565b612ca88185612c88565b9350612cb88185602086016120aa565b80840191505092915050565b6000612cd08284612c93565b915081905092915050565b7f4f626a65637420616c7265616479206578697374730000000000000000000000600082015250565b6000612d11601583612099565b9150612d1c82612cdb565b602082019050919050565b60006020820190508181036000830152612d4081612d04565b9050919050565b7f4f776e61626c653a206e6577206f776e657220697320746865207a65726f206160008201527f6464726573730000000000000000000000000000000000000000000000000000602082015250565b6000612da3602683612099565b9150612dae82612d47565b604082019050919050565b60006020820190508181036000830152612dd281612d96565b9050919050565b7f4552433732313a206f70657261746f7220717565727920666f72206e6f6e657860008201527f697374656e7420746f6b656e0000000000000000000000000000000000000000602082015250565b6000612e35602c83612099565b9150612e4082612dd9565b604082019050919050565b60006020820190508181036000830152612e6481612e28565b9050919050565b7f4552433732313a207472616e73666572206f6620746f6b656e2074686174206960008201527f73206e6f74206f776e0000000000000000000000000000000000000000000000602082015250565b6000612ec7602983612099565b9150612ed282612e6b565b604082019050919050565b60006020820190508181036000830152612ef681612eba565b9050919050565b7f4552433732313a207472616e7366657220746f20746865207a65726f2061646460008201527f7265737300000000000000000000000000000000000000000000000000000000602082015250565b6000612f59602483612099565b9150612f6482612efd565b604082019050919050565b60006020820190508181036000830152612f8881612f4c565b9050919050565b6000612f9a82612149565b9150612fa583612149565b925082821015612fb857612fb7612c10565b5b828203905092915050565b6000612fce82612149565b9150612fd983612149565b9250827fffffffffffffffffffffffffffffffffffffffffffffffffffffffffffffffff0382111561300e5761300d612c10565b5b828201905092915050565b7f4552433732313a20617070726f766520746f2063616c6c657200000000000000600082015250565b600061304f601983612099565b915061305a82613019565b602082019050919050565b6000602082019050818103600083015261307e81613042565b9050919050565b7f4552433732313a207472616e7366657220746f206e6f6e20455243373231526560008201527f63656976657220696d706c656d656e7465720000000000000000000000000000602082015250565b60006130e1603283612099565b91506130ec82613085565b604082019050919050565b60006020820190508181036000830152613110816130d4565b9050919050565b7f4552433732314d657461646174613a2055524920717565727920666f72206e6f60008201527f6e6578697374656e7420746f6b656e0000000000000000000000000000000000602082015250565b6000613173602f83612099565b915061317e82613117565b604082019050919050565b600060208201905081810360008301526131a281613166565b9050919050565b60006131b58285612c93565b91506131c18284612c93565b91508190509392505050565b7f4552433732313a206d696e7420746f20746865207a65726f2061646472657373600082015250565b6000613203602083612099565b915061320e826131cd565b602082019050919050565b60006020820190508181036000830152613232816131f6565b9050919050565b7f4552433732313a20746f6b656e20616c7265616479206d696e74656400000000600082015250565b600061326f601c83612099565b915061327a82613239565b602082019050919050565b6000602082019050818103600083015261329e81613262565b9050919050565b7f4552433732314d657461646174613a2055524920736574206f66206e6f6e657860008201527f697374656e7420746f6b656e0000000000000000000000000000000000000000602082015250565b6000613301602c83612099565b915061330c826132a5565b604082019050919050565b60006020820190508181036000830152613330816132f4565b9050919050565b600081519050919050565b600082825260208201905092915050565b600061335e82613337565b6133688185613342565b93506133788185602086016120aa565b613381816120dd565b840191505092915050565b60006080820190506133a160008301876121de565b6133ae60208301866121de565b6133bb6040830185612472565b81810360608301526133cd8184613353565b905095945050505050565b6000815190506133e781611fff565b92915050565b60006020828403121561340357613402611fc9565b5b6000613411848285016133d8565b91505092915050565b7f4e487b7100000000000000000000000000000000000000000000000000000000600052601260045260246000fd5b600061345482612149565b915061345f83612149565b92508261346f5761346e61341a565b5b828204905092915050565b600061348582612149565b915061349083612149565b9250826134a05761349f61341a565b5b82820690509291505056fea264697066735822122006c61982b72a501dd37aec06f8281153d6cc8a3a9f59d28cc1f2a4b30135228f64736f6c634300080b0033",
  "immutableReferences": {},
  "source": "// SPDX-License-Identifier: MIT\npragma solidity >=0.4.22 <0.9.0;\n\nimport \"@openzeppelin/contracts/token/ERC721/extensions/ERC721Enumerable.sol\";\n\nimport \"./BaseContract.sol\";\n\ncontract Nft is ERC721, BaseContract(\"Nft\", \"NFT\") {\n    using SafeMath for uint256;\n    using Counters for Counters.Counter;\n\n    string public baseTokenURI = \"https://ipfs.io/ipfs/\";\n\n    mapping(uint256 => address) tokensToOwner;\n\n    Counters.Counter private _tokenIds;\n    mapping(string => bool) _tokenExists;\n    mapping(address => bool) _userExists;\n\n    function mint(address to, string memory cid) public returns (uint256 _id) {\n        require(!_tokenExists[cid], \"Object already exists\");\n\n        _id = _tokenIds.current();\n        _mint(to, _id);\n\n        tokensToOwner[_id] = to;\n        tokenURIs[_id] = cid;\n        _tokenExists[cid] = true;\n        _setTokenUri(_id, cid);\n        _tokenIds.increment();\n\n        return _id;\n    }\n\n    function tokensOfOwner(address _owner)\n        public\n        view\n        returns (uint256[] memory)\n    {\n        uint256 tokenCount = balanceOf(_owner);\n        uint256[] memory tokensId = new uint256[](tokenCount);\n        // string[] memory  userTokens = new string[](tokenCount);\n        uint256 counter = 0;\n        for (uint256 i = 0; i < tokenCount; i++) {\n            // tokensId[i] = tokenOfOwnerByIndex(_owner, i);\n            if (tokensToOwner[i] == _owner) {\n                //    userTokens[i] = tokensList[i];\n                tokensId[counter] = i;\n                counter++;\n            }\n        }\n        return tokensId;\n    }\n\n    function _baseURI()\n        internal\n        view\n        virtual\n        override(ERC721, BaseContract)\n        returns (string memory)\n    {\n        return baseTokenURI;\n    }\n\n    function tokenURI(uint256 tokenId)\n        public\n        view\n        virtual\n        override(ERC721, BaseContract)\n        returns (string memory)\n    {\n        return super.tokenURI(tokenId);\n    }\n}\n",
  "sourcePath": "/Users/lenahierzi/Developer/consensys/blockchain-developer-bootcamp-final-project/contracts/NFT.sol",
  "compiler": {
    "name": "solc",
    "version": "0.8.11+commit.d7f03943.Emscripten.clang"
  },
  "schemaVersion": "3.4.3",
  "updatedAt": "2022-01-07T22:59:51.901Z",
  "devdoc": {
    "kind": "dev",
    "methods": {
      "approve(address,uint256)": {
        "details": "See {IERC721-approve}."
      },
      "balanceOf(address)": {
        "details": "See {IERC721-balanceOf}."
      },
      "getApproved(uint256)": {
        "details": "See {IERC721-getApproved}."
      },
      "isApprovedForAll(address,address)": {
        "details": "See {IERC721-isApprovedForAll}."
      },
      "name()": {
        "details": "See {IERC721Metadata-name}."
      },
      "owner()": {
        "details": "Returns the address of the current owner."
      },
      "ownerOf(uint256)": {
        "details": "See {IERC721-ownerOf}."
      },
      "renounceOwnership()": {
        "details": "Leaves the contract without owner. It will not be possible to call `onlyOwner` functions anymore. Can only be called by the current owner. NOTE: Renouncing ownership will leave the contract without an owner, thereby removing any functionality that is only available to the owner."
      },
      "safeTransferFrom(address,address,uint256)": {
        "details": "See {IERC721-safeTransferFrom}."
      },
      "safeTransferFrom(address,address,uint256,bytes)": {
        "details": "See {IERC721-safeTransferFrom}."
      },
      "setApprovalForAll(address,bool)": {
        "details": "See {IERC721-setApprovalForAll}."
      },
      "supportsInterface(bytes4)": {
        "details": "See {IERC165-supportsInterface}."
      },
      "symbol()": {
        "details": "See {IERC721Metadata-symbol}."
      },
      "transferFrom(address,address,uint256)": {
        "details": "See {IERC721-transferFrom}."
      },
      "transferOwnership(address)": {
        "details": "Transfers ownership of the contract to a new account (`newOwner`). Can only be called by the current owner."
      }
    },
    "version": 1
  },
  "userdoc": {
    "kind": "user",
    "methods": {},
    "version": 1
  }
}