{
  "contractName": "Nft",
  "abi": [
    {
      "inputs": [],
      "stateMutability": "nonpayable",
      "type": "constructor"
    },
    {
      "anonymous": false,
      "inputs": [
        {
          "indexed": true,
          "internalType": "address",
          "name": "owner",
          "type": "address"
        },
        {
          "indexed": true,
          "internalType": "address",
          "name": "approved",
          "type": "address"
        },
        {
          "indexed": true,
          "internalType": "uint256",
          "name": "tokenId",
          "type": "uint256"
        }
      ],
      "name": "Approval",
      "type": "event"
    },
    {
      "anonymous": false,
      "inputs": [
        {
          "indexed": true,
          "internalType": "address",
          "name": "owner",
          "type": "address"
        },
        {
          "indexed": true,
          "internalType": "address",
          "name": "operator",
          "type": "address"
        },
        {
          "indexed": false,
          "internalType": "bool",
          "name": "approved",
          "type": "bool"
        }
      ],
      "name": "ApprovalForAll",
      "type": "event"
    },
    {
      "anonymous": false,
      "inputs": [
        {
          "indexed": true,
          "internalType": "address",
          "name": "previousOwner",
          "type": "address"
        },
        {
          "indexed": true,
          "internalType": "address",
          "name": "newOwner",
          "type": "address"
        }
      ],
      "name": "OwnershipTransferred",
      "type": "event"
    },
    {
      "anonymous": false,
      "inputs": [
        {
          "indexed": true,
          "internalType": "address",
          "name": "from",
          "type": "address"
        },
        {
          "indexed": true,
          "internalType": "address",
          "name": "to",
          "type": "address"
        },
        {
          "indexed": true,
          "internalType": "uint256",
          "name": "tokenId",
          "type": "uint256"
        }
      ],
      "name": "Transfer",
      "type": "event"
    },
    {
      "inputs": [
        {
          "internalType": "address",
          "name": "to",
          "type": "address"
        },
        {
          "internalType": "uint256",
          "name": "tokenId",
          "type": "uint256"
        }
      ],
      "name": "approve",
      "outputs": [],
      "stateMutability": "nonpayable",
      "type": "function"
    },
    {
      "inputs": [
        {
          "internalType": "address",
          "name": "owner",
          "type": "address"
        }
      ],
      "name": "balanceOf",
      "outputs": [
        {
          "internalType": "uint256",
          "name": "",
          "type": "uint256"
        }
      ],
      "stateMutability": "view",
      "type": "function"
    },
    {
      "inputs": [
        {
          "internalType": "uint256",
          "name": "",
          "type": "uint256"
        }
      ],
      "name": "colors",
      "outputs": [
        {
          "internalType": "string",
          "name": "",
          "type": "string"
        }
      ],
      "stateMutability": "view",
      "type": "function"
    },
    {
      "inputs": [
        {
          "internalType": "uint256",
          "name": "tokenId",
          "type": "uint256"
        }
      ],
      "name": "getApproved",
      "outputs": [
        {
          "internalType": "address",
          "name": "",
          "type": "address"
        }
      ],
      "stateMutability": "view",
      "type": "function"
    },
    {
      "inputs": [
        {
          "internalType": "address",
          "name": "owner",
          "type": "address"
        },
        {
          "internalType": "address",
          "name": "operator",
          "type": "address"
        }
      ],
      "name": "isApprovedForAll",
      "outputs": [
        {
          "internalType": "bool",
          "name": "",
          "type": "bool"
        }
      ],
      "stateMutability": "view",
      "type": "function"
    },
    {
      "inputs": [],
      "name": "name",
      "outputs": [
        {
          "internalType": "string",
          "name": "",
          "type": "string"
        }
      ],
      "stateMutability": "view",
      "type": "function"
    },
    {
      "inputs": [],
      "name": "owner",
      "outputs": [
        {
          "internalType": "address",
          "name": "",
          "type": "address"
        }
      ],
      "stateMutability": "view",
      "type": "function"
    },
    {
      "inputs": [
        {
          "internalType": "uint256",
          "name": "tokenId",
          "type": "uint256"
        }
      ],
      "name": "ownerOf",
      "outputs": [
        {
          "internalType": "address",
          "name": "",
          "type": "address"
        }
      ],
      "stateMutability": "view",
      "type": "function"
    },
    {
      "inputs": [],
      "name": "renounceOwnership",
      "outputs": [],
      "stateMutability": "nonpayable",
      "type": "function"
    },
    {
      "inputs": [
        {
          "internalType": "address",
          "name": "from",
          "type": "address"
        },
        {
          "internalType": "address",
          "name": "to",
          "type": "address"
        },
        {
          "internalType": "uint256",
          "name": "tokenId",
          "type": "uint256"
        }
      ],
      "name": "safeTransferFrom",
      "outputs": [],
      "stateMutability": "nonpayable",
      "type": "function"
    },
    {
      "inputs": [
        {
          "internalType": "address",
          "name": "from",
          "type": "address"
        },
        {
          "internalType": "address",
          "name": "to",
          "type": "address"
        },
        {
          "internalType": "uint256",
          "name": "tokenId",
          "type": "uint256"
        },
        {
          "internalType": "bytes",
          "name": "_data",
          "type": "bytes"
        }
      ],
      "name": "safeTransferFrom",
      "outputs": [],
      "stateMutability": "nonpayable",
      "type": "function"
    },
    {
      "inputs": [
        {
          "internalType": "address",
          "name": "operator",
          "type": "address"
        },
        {
          "internalType": "bool",
          "name": "approved",
          "type": "bool"
        }
      ],
      "name": "setApprovalForAll",
      "outputs": [],
      "stateMutability": "nonpayable",
      "type": "function"
    },
    {
      "inputs": [],
      "name": "symbol",
      "outputs": [
        {
          "internalType": "string",
          "name": "",
          "type": "string"
        }
      ],
      "stateMutability": "view",
      "type": "function"
    },
    {
      "inputs": [
        {
          "internalType": "uint256",
          "name": "index",
          "type": "uint256"
        }
      ],
      "name": "tokenByIndex",
      "outputs": [
        {
          "internalType": "uint256",
          "name": "",
          "type": "uint256"
        }
      ],
      "stateMutability": "view",
      "type": "function"
    },
    {
      "inputs": [
        {
          "internalType": "address",
          "name": "owner",
          "type": "address"
        },
        {
          "internalType": "uint256",
          "name": "index",
          "type": "uint256"
        }
      ],
      "name": "tokenOfOwnerByIndex",
      "outputs": [
        {
          "internalType": "uint256",
          "name": "",
          "type": "uint256"
        }
      ],
      "stateMutability": "view",
      "type": "function"
    },
    {
      "inputs": [
        {
          "internalType": "uint256",
          "name": "tokenId",
          "type": "uint256"
        }
      ],
      "name": "tokenURI",
      "outputs": [
        {
          "internalType": "string",
          "name": "",
          "type": "string"
        }
      ],
      "stateMutability": "view",
      "type": "function"
    },
    {
      "inputs": [],
      "name": "totalSupply",
      "outputs": [
        {
          "internalType": "uint256",
          "name": "",
          "type": "uint256"
        }
      ],
      "stateMutability": "view",
      "type": "function"
    },
    {
      "inputs": [
        {
          "internalType": "address",
          "name": "from",
          "type": "address"
        },
        {
          "internalType": "address",
          "name": "to",
          "type": "address"
        },
        {
          "internalType": "uint256",
          "name": "tokenId",
          "type": "uint256"
        }
      ],
      "name": "transferFrom",
      "outputs": [],
      "stateMutability": "nonpayable",
      "type": "function"
    },
    {
      "inputs": [
        {
          "internalType": "address",
          "name": "newOwner",
          "type": "address"
        }
      ],
      "name": "transferOwnership",
      "outputs": [],
      "stateMutability": "nonpayable",
      "type": "function"
    },
    {
      "inputs": [
        {
          "internalType": "string",
          "name": "_color",
          "type": "string"
        }
      ],
      "name": "mint",
      "outputs": [],
      "stateMutability": "nonpayable",
      "type": "function"
    },
    {
      "inputs": [
        {
          "internalType": "bytes4",
          "name": "interfaceId",
          "type": "bytes4"
        }
      ],
      "name": "supportsInterface",
      "outputs": [
        {
          "internalType": "bool",
          "name": "",
          "type": "bool"
        }
      ],
      "stateMutability": "view",
      "type": "function"
    }
  ],
  "bytecode": "0x60806040523480156200001157600080fd5b506040518060400160405280600381526020017f4e667400000000000000000000000000000000000000000000000000000000008152506040518060400160405280600381526020017f4e46540000000000000000000000000000000000000000000000000000000000815250816000908051906020019062000096929190620001b8565b508060019080519060200190620000af929190620001b8565b505050620000e4620000cf620000ea640100000000026401000000009004565b620000f2640100000000026401000000009004565b620002cd565b600033905090565b6000600660009054906101000a900473ffffffffffffffffffffffffffffffffffffffff16905081600660006101000a81548173ffffffffffffffffffffffffffffffffffffffff021916908373ffffffffffffffffffffffffffffffffffffffff1602179055508173ffffffffffffffffffffffffffffffffffffffff168173ffffffffffffffffffffffffffffffffffffffff167f8be0079c531659141344cd1fd0a4f28419497f9722a3daafe3b4186f6b6457e060405160405180910390a35050565b828054620001c69062000297565b90600052602060002090601f016020900481019282620001ea576000855562000236565b82601f106200020557805160ff191683800117855562000236565b8280016001018555821562000236579182015b828111156200023557825182559160200191906001019062000218565b5b50905062000245919062000249565b5090565b5b80821115620002645760008160009055506001016200024a565b5090565b7f4e487b7100000000000000000000000000000000000000000000000000000000600052602260045260246000fd5b60006002820490506001821680620002b057607f821691505b60208210811415620002c757620002c662000268565b5b50919050565b61362a80620002dd6000396000f3fe608060405234801561001057600080fd5b5060043610610154576000357c01000000000000000000000000000000000000000000000000000000009004806370a08231116100d5578063b88d4fde11610099578063b88d4fde1461036b578063bd11f69d14610387578063c87b56dd146103b7578063d85d3d27146103e7578063e985e9c514610403578063f2fde38b1461043357610154565b806370a08231146102d9578063715018a6146103095780638da5cb5b1461031357806395d89b4114610331578063a22cb4651461034f57610154565b806323b872dd1161011c57806323b872dd146102115780632f745c591461022d57806342842e0e1461025d5780634f6ccce7146102795780636352211e146102a957610154565b806301ffc9a71461015957806306fdde0314610189578063081812fc146101a7578063095ea7b3146101d757806318160ddd146101f3575b600080fd5b610173600480360381019061016e919061225b565b61044f565b60405161018091906122a3565b60405180910390f35b610191610461565b60405161019e9190612357565b60405180910390f35b6101c160048036038101906101bc91906123af565b6104f3565b6040516101ce919061241d565b60405180910390f35b6101f160048036038101906101ec9190612464565b610578565b005b6101fb610690565b60405161020891906124b3565b60405180910390f35b61022b600480360381019061022691906124ce565b61069d565b005b61024760048036038101906102429190612464565b6106fd565b60405161025491906124b3565b60405180910390f35b610277600480360381019061027291906124ce565b6107a2565b005b610293600480360381019061028e91906123af565b6107c2565b6040516102a091906124b3565b60405180910390f35b6102c360048036038101906102be91906123af565b610833565b6040516102d0919061241d565b60405180910390f35b6102f360048036038101906102ee9190612521565b6108e5565b60405161030091906124b3565b60405180910390f35b61031161099d565b005b61031b610a25565b604051610328919061241d565b60405180910390f35b610339610a4f565b6040516103469190612357565b60405180910390f35b6103696004803603810190610364919061257a565b610ae1565b005b610385600480360381019061038091906126ef565b610c62565b005b6103a1600480360381019061039c91906123af565b610cc4565b6040516103ae9190612357565b60405180910390f35b6103d160048036038101906103cc91906123af565b610d70565b6040516103de9190612357565b60405180910390f35b61040160048036038101906103fc9190612813565b610e17565b005b61041d6004803603810190610418919061285c565b610ee6565b60405161042a91906122a3565b60405180910390f35b61044d60048036038101906104489190612521565b610f7a565b005b600061045a82611072565b9050919050565b606060008054610470906128cb565b80601f016020809104026020016040519081016040528092919081815260200182805461049c906128cb565b80156104e95780601f106104be576101008083540402835291602001916104e9565b820191906000526020600020905b8154815290600101906020018083116104cc57829003601f168201915b5050505050905090565b60006104fe826110ec565b61053d576040517f08c379a00000000000000000000000000000000000000000000000000000000081526004016105349061296f565b60405180910390fd5b6004600083815260200190815260200160002060009054906101000a900473ffffffffffffffffffffffffffffffffffffffff169050919050565b600061058382610833565b90508073ffffffffffffffffffffffffffffffffffffffff168373ffffffffffffffffffffffffffffffffffffffff1614156105f4576040517f08c379a00000000000000000000000000000000000000000000000000000000081526004016105eb90612a01565b60405180910390fd5b8073ffffffffffffffffffffffffffffffffffffffff16610613611158565b73ffffffffffffffffffffffffffffffffffffffff16148061064257506106418161063c611158565b610ee6565b5b610681576040517f08c379a000000000000000000000000000000000000000000000000000000000815260040161067890612a93565b60405180910390fd5b61068b8383611160565b505050565b6000600980549050905090565b6106ae6106a8611158565b82611219565b6106ed576040517f08c379a00000000000000000000000000000000000000000000000000000000081526004016106e490612b25565b60405180910390fd5b6106f88383836112f7565b505050565b6000610708836108e5565b8210610749576040517f08c379a000000000000000000000000000000000000000000000000000000000815260040161074090612bb7565b60405180910390fd5b600760008473ffffffffffffffffffffffffffffffffffffffff1673ffffffffffffffffffffffffffffffffffffffff168152602001908152602001600020600083815260200190815260200160002054905092915050565b6107bd83838360405180602001604052806000815250610c62565b505050565b60006107cc610690565b821061080d576040517f08c379a000000000000000000000000000000000000000000000000000000000815260040161080490612c49565b60405180910390fd5b6009828154811061082157610820612c69565b5b90600052602060002001549050919050565b6000806002600084815260200190815260200160002060009054906101000a900473ffffffffffffffffffffffffffffffffffffffff169050600073ffffffffffffffffffffffffffffffffffffffff168173ffffffffffffffffffffffffffffffffffffffff1614156108dc576040517f08c379a00000000000000000000000000000000000000000000000000000000081526004016108d390612d0a565b60405180910390fd5b80915050919050565b60008073ffffffffffffffffffffffffffffffffffffffff168273ffffffffffffffffffffffffffffffffffffffff161415610956576040517f08c379a000000000000000000000000000000000000000000000000000000000815260040161094d90612d9c565b60405180910390fd5b600360008373ffffffffffffffffffffffffffffffffffffffff1673ffffffffffffffffffffffffffffffffffffffff168152602001908152602001600020549050919050565b6109a5611158565b73ffffffffffffffffffffffffffffffffffffffff166109c3610a25565b73ffffffffffffffffffffffffffffffffffffffff1614610a19576040517f08c379a0000000000000000000000000000000000000000000000000000000008152600401610a1090612e08565b60405180910390fd5b610a236000611553565b565b6000600660009054906101000a900473ffffffffffffffffffffffffffffffffffffffff16905090565b606060018054610a5e906128cb565b80601f0160208091040260200160405190810160405280929190818152602001828054610a8a906128cb565b8015610ad75780601f10610aac57610100808354040283529160200191610ad7565b820191906000526020600020905b815481529060010190602001808311610aba57829003601f168201915b5050505050905090565b610ae9611158565b73ffffffffffffffffffffffffffffffffffffffff168273ffffffffffffffffffffffffffffffffffffffff161415610b57576040517f08c379a0000000000000000000000000000000000000000000000000000000008152600401610b4e90612e74565b60405180910390fd5b8060056000610b64611158565b73ffffffffffffffffffffffffffffffffffffffff1673ffffffffffffffffffffffffffffffffffffffff16815260200190815260200160002060008473ffffffffffffffffffffffffffffffffffffffff1673ffffffffffffffffffffffffffffffffffffffff16815260200190815260200160002060006101000a81548160ff0219169083151502179055508173ffffffffffffffffffffffffffffffffffffffff16610c11611158565b73ffffffffffffffffffffffffffffffffffffffff167f17307eab39ab6107e8899845ad3d59bd9653f200f220920489ca2b5937696c3183604051610c5691906122a3565b60405180910390a35050565b610c73610c6d611158565b83611219565b610cb2576040517f08c379a0000000000000000000000000000000000000000000000000000000008152600401610ca990612b25565b60405180910390fd5b610cbe84848484611619565b50505050565b600c8181548110610cd457600080fd5b906000526020600020016000915090508054610cef906128cb565b80601f0160208091040260200160405190810160405280929190818152602001828054610d1b906128cb565b8015610d685780601f10610d3d57610100808354040283529160200191610d68565b820191906000526020600020905b815481529060010190602001808311610d4b57829003601f168201915b505050505081565b6060610d7b826110ec565b610dba576040517f08c379a0000000000000000000000000000000000000000000000000000000008152600401610db190612f06565b60405180910390fd5b6000610dc4611675565b90506000815111610de45760405180602001604052806000815250610e0f565b80610dee8461168c565b604051602001610dff929190612f62565b6040516020818303038152906040525b915050919050565b600d81604051610e279190612f86565b908152602001604051809103902060009054906101000a900460ff1615610e4d57600080fd5b6000610e59600b61180c565b9050610e65600b61181a565b600c82908060018154018082558091505060019003906000526020600020016000909190919091509080519060200190610ea092919061214c565b50610eab3382611830565b6001600d83604051610ebd9190612f86565b908152602001604051809103902060006101000a81548160ff0219169083151502179055505050565b6000600560008473ffffffffffffffffffffffffffffffffffffffff1673ffffffffffffffffffffffffffffffffffffffff16815260200190815260200160002060008373ffffffffffffffffffffffffffffffffffffffff1673ffffffffffffffffffffffffffffffffffffffff16815260200190815260200160002060009054906101000a900460ff16905092915050565b610f82611158565b73ffffffffffffffffffffffffffffffffffffffff16610fa0610a25565b73ffffffffffffffffffffffffffffffffffffffff1614610ff6576040517f08c379a0000000000000000000000000000000000000000000000000000000008152600401610fed90612e08565b60405180910390fd5b600073ffffffffffffffffffffffffffffffffffffffff168173ffffffffffffffffffffffffffffffffffffffff161415611066576040517f08c379a000000000000000000000000000000000000000000000000000000000815260040161105d9061300f565b60405180910390fd5b61106f81611553565b50565b60007f780e9d63000000000000000000000000000000000000000000000000000000007bffffffffffffffffffffffffffffffffffffffffffffffffffffffff1916827bffffffffffffffffffffffffffffffffffffffffffffffffffffffff191614806110e557506110e4826119fe565b5b9050919050565b60008073ffffffffffffffffffffffffffffffffffffffff166002600084815260200190815260200160002060009054906101000a900473ffffffffffffffffffffffffffffffffffffffff1673ffffffffffffffffffffffffffffffffffffffff1614159050919050565b600033905090565b816004600083815260200190815260200160002060006101000a81548173ffffffffffffffffffffffffffffffffffffffff021916908373ffffffffffffffffffffffffffffffffffffffff160217905550808273ffffffffffffffffffffffffffffffffffffffff166111d383610833565b73ffffffffffffffffffffffffffffffffffffffff167f8c5be1e5ebec7d5bd14f71427d1e84f3dd0314c0f7b2291e5b200ac8c7c3b92560405160405180910390a45050565b6000611224826110ec565b611263576040517f08c379a000000000000000000000000000000000000000000000000000000000815260040161125a906130a1565b60405180910390fd5b600061126e83610833565b90508073ffffffffffffffffffffffffffffffffffffffff168473ffffffffffffffffffffffffffffffffffffffff1614806112dd57508373ffffffffffffffffffffffffffffffffffffffff166112c5846104f3565b73ffffffffffffffffffffffffffffffffffffffff16145b806112ee57506112ed8185610ee6565b5b91505092915050565b8273ffffffffffffffffffffffffffffffffffffffff1661131782610833565b73ffffffffffffffffffffffffffffffffffffffff161461136d576040517f08c379a000000000000000000000000000000000000000000000000000000000815260040161136490613133565b60405180910390fd5b600073ffffffffffffffffffffffffffffffffffffffff168273ffffffffffffffffffffffffffffffffffffffff1614156113dd576040517f08c379a00000000000000000000000000000000000000000000000000000000081526004016113d4906131c5565b60405180910390fd5b6113e8838383611ae0565b6113f3600082611160565b6001600360008573ffffffffffffffffffffffffffffffffffffffff1673ffffffffffffffffffffffffffffffffffffffff16815260200190815260200160002060008282546114439190613214565b925050819055506001600360008473ffffffffffffffffffffffffffffffffffffffff1673ffffffffffffffffffffffffffffffffffffffff168152602001908152602001600020600082825461149a9190613248565b92505081905550816002600083815260200190815260200160002060006101000a81548173ffffffffffffffffffffffffffffffffffffffff021916908373ffffffffffffffffffffffffffffffffffffffff160217905550808273ffffffffffffffffffffffffffffffffffffffff168473ffffffffffffffffffffffffffffffffffffffff167fddf252ad1be2c89b69c2b068fc378daa952ba7f163c4a11628f55a4df523b3ef60405160405180910390a4505050565b6000600660009054906101000a900473ffffffffffffffffffffffffffffffffffffffff16905081600660006101000a81548173ffffffffffffffffffffffffffffffffffffffff021916908373ffffffffffffffffffffffffffffffffffffffff1602179055508173ffffffffffffffffffffffffffffffffffffffff168173ffffffffffffffffffffffffffffffffffffffff167f8be0079c531659141344cd1fd0a4f28419497f9722a3daafe3b4186f6b6457e060405160405180910390a35050565b6116248484846112f7565b61163084848484611af0565b61166f576040517f08c379a000000000000000000000000000000000000000000000000000000000815260040161166690613310565b60405180910390fd5b50505050565b606060405180602001604052806000815250905090565b606060008214156116d4576040518060400160405280600181526020017f30000000000000000000000000000000000000000000000000000000000000008152509050611807565b600082905060005b600082146117065780806116ef90613330565b915050600a826116ff91906133a8565b91506116dc565b60008167ffffffffffffffff811115611722576117216125c4565b5b6040519080825280601f01601f1916602001820160405280156117545781602001600182028036833780820191505090505b5090505b600085146118005760018261176d9190613214565b9150600a8561177c91906133d9565b60306117889190613248565b7f0100000000000000000000000000000000000000000000000000000000000000028183815181106117bd576117bc612c69565b5b60200101907effffffffffffffffffffffffffffffffffffffffffffffffffffffffffffff1916908160001a905350600a856117f991906133a8565b9450611758565b8093505050505b919050565b600081600001549050919050565b6001816000016000828254019250508190555050565b600073ffffffffffffffffffffffffffffffffffffffff168273ffffffffffffffffffffffffffffffffffffffff1614156118a0576040517f08c379a000000000000000000000000000000000000000000000000000000000815260040161189790613456565b60405180910390fd5b6118a9816110ec565b156118e9576040517f08c379a00000000000000000000000000000000000000000000000000000000081526004016118e0906134c2565b60405180910390fd5b6118f560008383611ae0565b6001600360008473ffffffffffffffffffffffffffffffffffffffff1673ffffffffffffffffffffffffffffffffffffffff16815260200190815260200160002060008282546119459190613248565b92505081905550816002600083815260200190815260200160002060006101000a81548173ffffffffffffffffffffffffffffffffffffffff021916908373ffffffffffffffffffffffffffffffffffffffff160217905550808273ffffffffffffffffffffffffffffffffffffffff16600073ffffffffffffffffffffffffffffffffffffffff167fddf252ad1be2c89b69c2b068fc378daa952ba7f163c4a11628f55a4df523b3ef60405160405180910390a45050565b60007f80ac58cd000000000000000000000000000000000000000000000000000000007bffffffffffffffffffffffffffffffffffffffffffffffffffffffff1916827bffffffffffffffffffffffffffffffffffffffffffffffffffffffff19161480611ac957507f5b5e139f000000000000000000000000000000000000000000000000000000007bffffffffffffffffffffffffffffffffffffffffffffffffffffffff1916827bffffffffffffffffffffffffffffffffffffffffffffffffffffffff1916145b80611ad95750611ad882611cb0565b5b9050919050565b611aeb838383611d1a565b505050565b6000611b118473ffffffffffffffffffffffffffffffffffffffff16611e2e565b15611ca3578373ffffffffffffffffffffffffffffffffffffffff1663150b7a02611b3a611158565b8786866040518563ffffffff167c0100000000000000000000000000000000000000000000000000000000028152600401611b789493929190613537565b6020604051808303816000875af1925050508015611bb457506040513d601f19601f82011682018060405250810190611bb19190613598565b60015b611c37573d8060008114611be4576040519150601f19603f3d011682016040523d82523d6000602084013e611be9565b606091505b50600081511415611c2f576040517f08c379a0000000000000000000000000000000000000000000000000000000008152600401611c2690613310565b60405180910390fd5b805181602001fd5b63150b7a027c0100000000000000000000000000000000000000000000000000000000027bffffffffffffffffffffffffffffffffffffffffffffffffffffffff1916817bffffffffffffffffffffffffffffffffffffffffffffffffffffffff191614915050611ca8565b600190505b949350505050565b60007f01ffc9a7000000000000000000000000000000000000000000000000000000007bffffffffffffffffffffffffffffffffffffffffffffffffffffffff1916827bffffffffffffffffffffffffffffffffffffffffffffffffffffffff1916149050919050565b611d25838383611e41565b600073ffffffffffffffffffffffffffffffffffffffff168373ffffffffffffffffffffffffffffffffffffffff161415611d6857611d6381611e46565b611da7565b8173ffffffffffffffffffffffffffffffffffffffff168373ffffffffffffffffffffffffffffffffffffffff1614611da657611da58382611e8f565b5b5b600073ffffffffffffffffffffffffffffffffffffffff168273ffffffffffffffffffffffffffffffffffffffff161415611dea57611de581611ffc565b611e29565b8273ffffffffffffffffffffffffffffffffffffffff168273ffffffffffffffffffffffffffffffffffffffff1614611e2857611e2782826120cd565b5b5b505050565b600080823b905060008111915050919050565b505050565b600980549050600a600083815260200190815260200160002081905550600981908060018154018082558091505060019003906000526020600020016000909190919091505550565b60006001611e9c846108e5565b611ea69190613214565b9050600060086000848152602001908152602001600020549050818114611f8b576000600760008673ffffffffffffffffffffffffffffffffffffffff1673ffffffffffffffffffffffffffffffffffffffff168152602001908152602001600020600084815260200190815260200160002054905080600760008773ffffffffffffffffffffffffffffffffffffffff1673ffffffffffffffffffffffffffffffffffffffff168152602001908152602001600020600084815260200190815260200160002081905550816008600083815260200190815260200160002081905550505b6008600084815260200190815260200160002060009055600760008573ffffffffffffffffffffffffffffffffffffffff1673ffffffffffffffffffffffffffffffffffffffff16815260200190815260200160002060008381526020019081526020016000206000905550505050565b600060016009805490506120109190613214565b90506000600a60008481526020019081526020016000205490506000600983815481106120405761203f612c69565b5b90600052602060002001549050806009838154811061206257612061612c69565b5b906000526020600020018190555081600a600083815260200190815260200160002081905550600a60008581526020019081526020016000206000905560098054806120b1576120b06135c5565b5b6001900381819060005260206000200160009055905550505050565b60006120d8836108e5565b905081600760008573ffffffffffffffffffffffffffffffffffffffff1673ffffffffffffffffffffffffffffffffffffffff168152602001908152602001600020600083815260200190815260200160002081905550806008600084815260200190815260200160002081905550505050565b828054612158906128cb565b90600052602060002090601f01602090048101928261217a57600085556121c1565b82601f1061219357805160ff19168380011785556121c1565b828001600101855582156121c1579182015b828111156121c05782518255916020019190600101906121a5565b5b5090506121ce91906121d2565b5090565b5b808211156121eb5760008160009055506001016121d3565b5090565b6000604051905090565b600080fd5b600080fd5b60007fffffffff0000000000000000000000000000000000000000000000000000000082169050919050565b61223881612203565b811461224357600080fd5b50565b6000813590506122558161222f565b92915050565b600060208284031215612271576122706121f9565b5b600061227f84828501612246565b91505092915050565b60008115159050919050565b61229d81612288565b82525050565b60006020820190506122b86000830184612294565b92915050565b600081519050919050565b600082825260208201905092915050565b60005b838110156122f85780820151818401526020810190506122dd565b83811115612307576000848401525b50505050565b6000601f19601f8301169050919050565b6000612329826122be565b61233381856122c9565b93506123438185602086016122da565b61234c8161230d565b840191505092915050565b60006020820190508181036000830152612371818461231e565b905092915050565b6000819050919050565b61238c81612379565b811461239757600080fd5b50565b6000813590506123a981612383565b92915050565b6000602082840312156123c5576123c46121f9565b5b60006123d38482850161239a565b91505092915050565b600073ffffffffffffffffffffffffffffffffffffffff82169050919050565b6000612407826123dc565b9050919050565b612417816123fc565b82525050565b6000602082019050612432600083018461240e565b92915050565b612441816123fc565b811461244c57600080fd5b50565b60008135905061245e81612438565b92915050565b6000806040838503121561247b5761247a6121f9565b5b60006124898582860161244f565b925050602061249a8582860161239a565b9150509250929050565b6124ad81612379565b82525050565b60006020820190506124c860008301846124a4565b92915050565b6000806000606084860312156124e7576124e66121f9565b5b60006124f58682870161244f565b93505060206125068682870161244f565b92505060406125178682870161239a565b9150509250925092565b600060208284031215612537576125366121f9565b5b60006125458482850161244f565b91505092915050565b61255781612288565b811461256257600080fd5b50565b6000813590506125748161254e565b92915050565b60008060408385031215612591576125906121f9565b5b600061259f8582860161244f565b92505060206125b085828601612565565b9150509250929050565b600080fd5b600080fd5b7f4e487b7100000000000000000000000000000000000000000000000000000000600052604160045260246000fd5b6125fc8261230d565b810181811067ffffffffffffffff8211171561261b5761261a6125c4565b5b80604052505050565b600061262e6121ef565b905061263a82826125f3565b919050565b600067ffffffffffffffff82111561265a576126596125c4565b5b6126638261230d565b9050602081019050919050565b82818337600083830152505050565b600061269261268d8461263f565b612624565b9050828152602081018484840111156126ae576126ad6125bf565b5b6126b9848285612670565b509392505050565b600082601f8301126126d6576126d56125ba565b5b81356126e684826020860161267f565b91505092915050565b60008060008060808587031215612709576127086121f9565b5b60006127178782880161244f565b94505060206127288782880161244f565b93505060406127398782880161239a565b925050606085013567ffffffffffffffff81111561275a576127596121fe565b5b612766878288016126c1565b91505092959194509250565b600067ffffffffffffffff82111561278d5761278c6125c4565b5b6127968261230d565b9050602081019050919050565b60006127b66127b184612772565b612624565b9050828152602081018484840111156127d2576127d16125bf565b5b6127dd848285612670565b509392505050565b600082601f8301126127fa576127f96125ba565b5b813561280a8482602086016127a3565b91505092915050565b600060208284031215612829576128286121f9565b5b600082013567ffffffffffffffff811115612847576128466121fe565b5b612853848285016127e5565b91505092915050565b60008060408385031215612873576128726121f9565b5b60006128818582860161244f565b92505060206128928582860161244f565b9150509250929050565b7f4e487b7100000000000000000000000000000000000000000000000000000000600052602260045260246000fd5b600060028204905060018216806128e357607f821691505b602082108114156128f7576128f661289c565b5b50919050565b7f4552433732313a20617070726f76656420717565727920666f72206e6f6e657860008201527f697374656e7420746f6b656e0000000000000000000000000000000000000000602082015250565b6000612959602c836122c9565b9150612964826128fd565b604082019050919050565b600060208201905081810360008301526129888161294c565b9050919050565b7f4552433732313a20617070726f76616c20746f2063757272656e74206f776e6560008201527f7200000000000000000000000000000000000000000000000000000000000000602082015250565b60006129eb6021836122c9565b91506129f68261298f565b604082019050919050565b60006020820190508181036000830152612a1a816129de565b9050919050565b7f4552433732313a20617070726f76652063616c6c6572206973206e6f74206f7760008201527f6e6572206e6f7220617070726f76656420666f7220616c6c0000000000000000602082015250565b6000612a7d6038836122c9565b9150612a8882612a21565b604082019050919050565b60006020820190508181036000830152612aac81612a70565b9050919050565b7f4552433732313a207472616e736665722063616c6c6572206973206e6f74206f60008201527f776e6572206e6f7220617070726f766564000000000000000000000000000000602082015250565b6000612b0f6031836122c9565b9150612b1a82612ab3565b604082019050919050565b60006020820190508181036000830152612b3e81612b02565b9050919050565b7f455243373231456e756d657261626c653a206f776e657220696e646578206f7560008201527f74206f6620626f756e6473000000000000000000000000000000000000000000602082015250565b6000612ba1602b836122c9565b9150612bac82612b45565b604082019050919050565b60006020820190508181036000830152612bd081612b94565b9050919050565b7f455243373231456e756d657261626c653a20676c6f62616c20696e646578206f60008201527f7574206f6620626f756e64730000000000000000000000000000000000000000602082015250565b6000612c33602c836122c9565b9150612c3e82612bd7565b604082019050919050565b60006020820190508181036000830152612c6281612c26565b9050919050565b7f4e487b7100000000000000000000000000000000000000000000000000000000600052603260045260246000fd5b7f4552433732313a206f776e657220717565727920666f72206e6f6e657869737460008201527f656e7420746f6b656e0000000000000000000000000000000000000000000000602082015250565b6000612cf46029836122c9565b9150612cff82612c98565b604082019050919050565b60006020820190508181036000830152612d2381612ce7565b9050919050565b7f4552433732313a2062616c616e636520717565727920666f7220746865207a6560008201527f726f206164647265737300000000000000000000000000000000000000000000602082015250565b6000612d86602a836122c9565b9150612d9182612d2a565b604082019050919050565b60006020820190508181036000830152612db581612d79565b9050919050565b7f4f776e61626c653a2063616c6c6572206973206e6f7420746865206f776e6572600082015250565b6000612df26020836122c9565b9150612dfd82612dbc565b602082019050919050565b60006020820190508181036000830152612e2181612de5565b9050919050565b7f4552433732313a20617070726f766520746f2063616c6c657200000000000000600082015250565b6000612e5e6019836122c9565b9150612e6982612e28565b602082019050919050565b60006020820190508181036000830152612e8d81612e51565b9050919050565b7f4552433732314d657461646174613a2055524920717565727920666f72206e6f60008201527f6e6578697374656e7420746f6b656e0000000000000000000000000000000000602082015250565b6000612ef0602f836122c9565b9150612efb82612e94565b604082019050919050565b60006020820190508181036000830152612f1f81612ee3565b9050919050565b600081905092915050565b6000612f3c826122be565b612f468185612f26565b9350612f568185602086016122da565b80840191505092915050565b6000612f6e8285612f31565b9150612f7a8284612f31565b91508190509392505050565b6000612f928284612f31565b915081905092915050565b7f4f776e61626c653a206e6577206f776e657220697320746865207a65726f206160008201527f6464726573730000000000000000000000000000000000000000000000000000602082015250565b6000612ff96026836122c9565b915061300482612f9d565b604082019050919050565b6000602082019050818103600083015261302881612fec565b9050919050565b7f4552433732313a206f70657261746f7220717565727920666f72206e6f6e657860008201527f697374656e7420746f6b656e0000000000000000000000000000000000000000602082015250565b600061308b602c836122c9565b91506130968261302f565b604082019050919050565b600060208201905081810360008301526130ba8161307e565b9050919050565b7f4552433732313a207472616e73666572206f6620746f6b656e2074686174206960008201527f73206e6f74206f776e0000000000000000000000000000000000000000000000602082015250565b600061311d6029836122c9565b9150613128826130c1565b604082019050919050565b6000602082019050818103600083015261314c81613110565b9050919050565b7f4552433732313a207472616e7366657220746f20746865207a65726f2061646460008201527f7265737300000000000000000000000000000000000000000000000000000000602082015250565b60006131af6024836122c9565b91506131ba82613153565b604082019050919050565b600060208201905081810360008301526131de816131a2565b9050919050565b7f4e487b7100000000000000000000000000000000000000000000000000000000600052601160045260246000fd5b600061321f82612379565b915061322a83612379565b92508282101561323d5761323c6131e5565b5b828203905092915050565b600061325382612379565b915061325e83612379565b9250827fffffffffffffffffffffffffffffffffffffffffffffffffffffffffffffffff03821115613293576132926131e5565b5b828201905092915050565b7f4552433732313a207472616e7366657220746f206e6f6e20455243373231526560008201527f63656976657220696d706c656d656e7465720000000000000000000000000000602082015250565b60006132fa6032836122c9565b91506133058261329e565b604082019050919050565b60006020820190508181036000830152613329816132ed565b9050919050565b600061333b82612379565b91507fffffffffffffffffffffffffffffffffffffffffffffffffffffffffffffffff82141561336e5761336d6131e5565b5b600182019050919050565b7f4e487b7100000000000000000000000000000000000000000000000000000000600052601260045260246000fd5b60006133b382612379565b91506133be83612379565b9250826133ce576133cd613379565b5b828204905092915050565b60006133e482612379565b91506133ef83612379565b9250826133ff576133fe613379565b5b828206905092915050565b7f4552433732313a206d696e7420746f20746865207a65726f2061646472657373600082015250565b60006134406020836122c9565b915061344b8261340a565b602082019050919050565b6000602082019050818103600083015261346f81613433565b9050919050565b7f4552433732313a20746f6b656e20616c7265616479206d696e74656400000000600082015250565b60006134ac601c836122c9565b91506134b782613476565b602082019050919050565b600060208201905081810360008301526134db8161349f565b9050919050565b600081519050919050565b600082825260208201905092915050565b6000613509826134e2565b61351381856134ed565b93506135238185602086016122da565b61352c8161230d565b840191505092915050565b600060808201905061354c600083018761240e565b613559602083018661240e565b61356660408301856124a4565b818103606083015261357881846134fe565b905095945050505050565b6000815190506135928161222f565b92915050565b6000602082840312156135ae576135ad6121f9565b5b60006135bc84828501613583565b91505092915050565b7f4e487b7100000000000000000000000000000000000000000000000000000000600052603160045260246000fdfea26469706673582212209fb78b658d1cc7f8fb700a1c3c11bdf9a5c56a1b57b24831a2d2f51edf5042b564736f6c634300080a0033",
  "immutableReferences": {},
  "source": "// SPDX-License-Identifier: MIT\npragma solidity >=0.4.22 <0.9.0;\n\nimport \"@openzeppelin/contracts/token/ERC721/ERC721.sol\";\nimport \"@openzeppelin/contracts/access/Ownable.sol\";\nimport \"@openzeppelin/contracts/utils/Counters.sol\";\nimport \"@openzeppelin/contracts/token/ERC721/extensions/ERC721Enumerable.sol\";\n\ncontract Nft is ERC721, Ownable, ERC721Enumerable {\n   using Counters for Counters.Counter;\n\n   Counters.Counter private _tokenIdCounter;\n   string[] public colors;\n   mapping(string => bool) _colorExists;\n   constructor() ERC721(\"Nft\", \"NFT\") {}\n\n\n// add color, require uniqie color, call mint funciton, trak the color\n  function mint(string memory _color) public {\n    require(!_colorExists[_color]);\n    uint _id = _tokenIdCounter.current();\n    _tokenIdCounter.increment();\n    colors.push(_color);\n    _mint(msg.sender, _id);\n    _colorExists[_color] = true;\n  }\n\n     // The following functions are overrides for ERC721Enumerable required by Solidity.\n    function _beforeTokenTransfer(address from, address to, uint256 tokenId)\n        internal\n        override(ERC721, ERC721Enumerable)\n    {\n        super._beforeTokenTransfer(from, to, tokenId);\n    }\n\n    function supportsInterface(bytes4 interfaceId)\n        public\n        view\n        override(ERC721, ERC721Enumerable)\n        returns (bool)\n    {\n        return super.supportsInterface(interfaceId);\n    }\n}",
  "sourcePath": "/Users/lenahierzi/Developer/consensys/blockchain-developer-bootcamp-final-project/contracts/Nft.sol",
  "compiler": {
    "name": "solc",
    "version": "0.8.10+commit.fc410830.Emscripten.clang"
  },
  "schemaVersion": "3.3.4",
  "updatedAt": "2021-11-11T13:10:25.386Z",
  "devdoc": {
    "kind": "dev",
    "methods": {
      "approve(address,uint256)": {
        "details": "See {IERC721-approve}."
      },
      "balanceOf(address)": {
        "details": "See {IERC721-balanceOf}."
      },
      "getApproved(uint256)": {
        "details": "See {IERC721-getApproved}."
      },
      "isApprovedForAll(address,address)": {
        "details": "See {IERC721-isApprovedForAll}."
      },
      "name()": {
        "details": "See {IERC721Metadata-name}."
      },
      "owner()": {
        "details": "Returns the address of the current owner."
      },
      "ownerOf(uint256)": {
        "details": "See {IERC721-ownerOf}."
      },
      "renounceOwnership()": {
        "details": "Leaves the contract without owner. It will not be possible to call `onlyOwner` functions anymore. Can only be called by the current owner. NOTE: Renouncing ownership will leave the contract without an owner, thereby removing any functionality that is only available to the owner."
      },
      "safeTransferFrom(address,address,uint256)": {
        "details": "See {IERC721-safeTransferFrom}."
      },
      "safeTransferFrom(address,address,uint256,bytes)": {
        "details": "See {IERC721-safeTransferFrom}."
      },
      "setApprovalForAll(address,bool)": {
        "details": "See {IERC721-setApprovalForAll}."
      },
      "symbol()": {
        "details": "See {IERC721Metadata-symbol}."
      },
      "tokenByIndex(uint256)": {
        "details": "See {IERC721Enumerable-tokenByIndex}."
      },
      "tokenOfOwnerByIndex(address,uint256)": {
        "details": "See {IERC721Enumerable-tokenOfOwnerByIndex}."
      },
      "tokenURI(uint256)": {
        "details": "See {IERC721Metadata-tokenURI}."
      },
      "totalSupply()": {
        "details": "See {IERC721Enumerable-totalSupply}."
      },
      "transferFrom(address,address,uint256)": {
        "details": "See {IERC721-transferFrom}."
      },
      "transferOwnership(address)": {
        "details": "Transfers ownership of the contract to a new account (`newOwner`). Can only be called by the current owner."
      }
    },
    "version": 1
  },
  "userdoc": {
    "kind": "user",
    "methods": {},
    "version": 1
  }
}