{
  "contractName": "Nft",
  "abi": [
    {
      "anonymous": false,
      "inputs": [
        {
          "indexed": true,
          "internalType": "address",
          "name": "owner",
          "type": "address"
        },
        {
          "indexed": true,
          "internalType": "address",
          "name": "approved",
          "type": "address"
        },
        {
          "indexed": true,
          "internalType": "uint256",
          "name": "tokenId",
          "type": "uint256"
        }
      ],
      "name": "Approval",
      "type": "event"
    },
    {
      "anonymous": false,
      "inputs": [
        {
          "indexed": true,
          "internalType": "address",
          "name": "owner",
          "type": "address"
        },
        {
          "indexed": true,
          "internalType": "address",
          "name": "operator",
          "type": "address"
        },
        {
          "indexed": false,
          "internalType": "bool",
          "name": "approved",
          "type": "bool"
        }
      ],
      "name": "ApprovalForAll",
      "type": "event"
    },
    {
      "anonymous": false,
      "inputs": [
        {
          "indexed": true,
          "internalType": "address",
          "name": "previousOwner",
          "type": "address"
        },
        {
          "indexed": true,
          "internalType": "address",
          "name": "newOwner",
          "type": "address"
        }
      ],
      "name": "OwnershipTransferred",
      "type": "event"
    },
    {
      "anonymous": false,
      "inputs": [
        {
          "indexed": true,
          "internalType": "address",
          "name": "from",
          "type": "address"
        },
        {
          "indexed": true,
          "internalType": "address",
          "name": "to",
          "type": "address"
        },
        {
          "indexed": true,
          "internalType": "uint256",
          "name": "tokenId",
          "type": "uint256"
        }
      ],
      "name": "Transfer",
      "type": "event"
    },
    {
      "inputs": [],
      "name": "MAX_PER_MINT",
      "outputs": [
        {
          "internalType": "uint256",
          "name": "",
          "type": "uint256"
        }
      ],
      "stateMutability": "view",
      "type": "function",
      "constant": true
    },
    {
      "inputs": [],
      "name": "MAX_SUPPLY",
      "outputs": [
        {
          "internalType": "uint256",
          "name": "",
          "type": "uint256"
        }
      ],
      "stateMutability": "view",
      "type": "function",
      "constant": true
    },
    {
      "inputs": [
        {
          "internalType": "address",
          "name": "to",
          "type": "address"
        },
        {
          "internalType": "uint256",
          "name": "tokenId",
          "type": "uint256"
        }
      ],
      "name": "approve",
      "outputs": [],
      "stateMutability": "nonpayable",
      "type": "function"
    },
    {
      "inputs": [
        {
          "internalType": "address",
          "name": "owner",
          "type": "address"
        }
      ],
      "name": "balanceOf",
      "outputs": [
        {
          "internalType": "uint256",
          "name": "",
          "type": "uint256"
        }
      ],
      "stateMutability": "view",
      "type": "function",
      "constant": true
    },
    {
      "inputs": [
        {
          "internalType": "uint256",
          "name": "tokenId",
          "type": "uint256"
        }
      ],
      "name": "getApproved",
      "outputs": [
        {
          "internalType": "address",
          "name": "",
          "type": "address"
        }
      ],
      "stateMutability": "view",
      "type": "function",
      "constant": true
    },
    {
      "inputs": [
        {
          "internalType": "address",
          "name": "owner",
          "type": "address"
        },
        {
          "internalType": "address",
          "name": "operator",
          "type": "address"
        }
      ],
      "name": "isApprovedForAll",
      "outputs": [
        {
          "internalType": "bool",
          "name": "",
          "type": "bool"
        }
      ],
      "stateMutability": "view",
      "type": "function",
      "constant": true
    },
    {
      "inputs": [],
      "name": "name",
      "outputs": [
        {
          "internalType": "string",
          "name": "",
          "type": "string"
        }
      ],
      "stateMutability": "view",
      "type": "function",
      "constant": true
    },
    {
      "inputs": [],
      "name": "owner",
      "outputs": [
        {
          "internalType": "address",
          "name": "",
          "type": "address"
        }
      ],
      "stateMutability": "view",
      "type": "function",
      "constant": true
    },
    {
      "inputs": [
        {
          "internalType": "uint256",
          "name": "tokenId",
          "type": "uint256"
        }
      ],
      "name": "ownerOf",
      "outputs": [
        {
          "internalType": "address",
          "name": "",
          "type": "address"
        }
      ],
      "stateMutability": "view",
      "type": "function",
      "constant": true
    },
    {
      "inputs": [],
      "name": "renounceOwnership",
      "outputs": [],
      "stateMutability": "nonpayable",
      "type": "function"
    },
    {
      "inputs": [
        {
          "internalType": "address",
          "name": "from",
          "type": "address"
        },
        {
          "internalType": "address",
          "name": "to",
          "type": "address"
        },
        {
          "internalType": "uint256",
          "name": "tokenId",
          "type": "uint256"
        }
      ],
      "name": "safeTransferFrom",
      "outputs": [],
      "stateMutability": "nonpayable",
      "type": "function"
    },
    {
      "inputs": [
        {
          "internalType": "address",
          "name": "from",
          "type": "address"
        },
        {
          "internalType": "address",
          "name": "to",
          "type": "address"
        },
        {
          "internalType": "uint256",
          "name": "tokenId",
          "type": "uint256"
        },
        {
          "internalType": "bytes",
          "name": "_data",
          "type": "bytes"
        }
      ],
      "name": "safeTransferFrom",
      "outputs": [],
      "stateMutability": "nonpayable",
      "type": "function"
    },
    {
      "inputs": [
        {
          "internalType": "address",
          "name": "operator",
          "type": "address"
        },
        {
          "internalType": "bool",
          "name": "approved",
          "type": "bool"
        }
      ],
      "name": "setApprovalForAll",
      "outputs": [],
      "stateMutability": "nonpayable",
      "type": "function"
    },
    {
      "inputs": [],
      "name": "symbol",
      "outputs": [
        {
          "internalType": "string",
          "name": "",
          "type": "string"
        }
      ],
      "stateMutability": "view",
      "type": "function",
      "constant": true
    },
    {
      "inputs": [
        {
          "internalType": "uint256",
          "name": "index",
          "type": "uint256"
        }
      ],
      "name": "tokenByIndex",
      "outputs": [
        {
          "internalType": "uint256",
          "name": "",
          "type": "uint256"
        }
      ],
      "stateMutability": "view",
      "type": "function",
      "constant": true
    },
    {
      "inputs": [
        {
          "internalType": "address",
          "name": "owner",
          "type": "address"
        },
        {
          "internalType": "uint256",
          "name": "index",
          "type": "uint256"
        }
      ],
      "name": "tokenOfOwnerByIndex",
      "outputs": [
        {
          "internalType": "uint256",
          "name": "",
          "type": "uint256"
        }
      ],
      "stateMutability": "view",
      "type": "function",
      "constant": true
    },
    {
      "inputs": [],
      "name": "totalSupply",
      "outputs": [
        {
          "internalType": "uint256",
          "name": "",
          "type": "uint256"
        }
      ],
      "stateMutability": "view",
      "type": "function",
      "constant": true
    },
    {
      "inputs": [
        {
          "internalType": "address",
          "name": "from",
          "type": "address"
        },
        {
          "internalType": "address",
          "name": "to",
          "type": "address"
        },
        {
          "internalType": "uint256",
          "name": "tokenId",
          "type": "uint256"
        }
      ],
      "name": "transferFrom",
      "outputs": [],
      "stateMutability": "nonpayable",
      "type": "function"
    },
    {
      "inputs": [
        {
          "internalType": "address",
          "name": "newOwner",
          "type": "address"
        }
      ],
      "name": "transferOwnership",
      "outputs": [],
      "stateMutability": "nonpayable",
      "type": "function"
    },
    {
      "inputs": [
        {
          "internalType": "address",
          "name": "to",
          "type": "address"
        },
        {
          "internalType": "string",
          "name": "cid",
          "type": "string"
        }
      ],
      "name": "mint",
      "outputs": [
        {
          "internalType": "uint256",
          "name": "_id",
          "type": "uint256"
        }
      ],
      "stateMutability": "nonpayable",
      "type": "function"
    },
    {
      "inputs": [
        {
          "internalType": "address",
          "name": "to",
          "type": "address"
        },
        {
          "internalType": "address",
          "name": "partner",
          "type": "address"
        },
        {
          "internalType": "string",
          "name": "cid",
          "type": "string"
        }
      ],
      "name": "handShake",
      "outputs": [
        {
          "internalType": "uint256",
          "name": "_id",
          "type": "uint256"
        }
      ],
      "stateMutability": "nonpayable",
      "type": "function"
    },
    {
      "inputs": [
        {
          "internalType": "address",
          "name": "_owner",
          "type": "address"
        }
      ],
      "name": "tokensOfOwner",
      "outputs": [
        {
          "internalType": "uint256[]",
          "name": "",
          "type": "uint256[]"
        }
      ],
      "stateMutability": "view",
      "type": "function",
      "constant": true
    },
    {
      "inputs": [
        {
          "internalType": "uint256",
          "name": "tokenId",
          "type": "uint256"
        }
      ],
      "name": "tokenURI",
      "outputs": [
        {
          "internalType": "string",
          "name": "",
          "type": "string"
        }
      ],
      "stateMutability": "view",
      "type": "function",
      "constant": true
    },
    {
      "inputs": [
        {
          "internalType": "bytes4",
          "name": "interfaceId",
          "type": "bytes4"
        }
      ],
      "name": "supportsInterface",
      "outputs": [
        {
          "internalType": "bool",
          "name": "",
          "type": "bool"
        }
      ],
      "stateMutability": "view",
      "type": "function",
      "constant": true
    }
  ],
  "bytecode": "0x60806040523480156200001157600080fd5b506040518060400160405280600381526020017f4e667400000000000000000000000000000000000000000000000000000000008152506040518060400160405280600781526020017f4f63746f707573000000000000000000000000000000000000000000000000008152508181816000908051906020019062000098929190620001bc565b508060019080519060200190620000b1929190620001bc565b505050620000e6620000d1620000ee640100000000026401000000009004565b620000f6640100000000026401000000009004565b5050620002d1565b600033905090565b6000600660009054906101000a900473ffffffffffffffffffffffffffffffffffffffff16905081600660006101000a81548173ffffffffffffffffffffffffffffffffffffffff021916908373ffffffffffffffffffffffffffffffffffffffff1602179055508173ffffffffffffffffffffffffffffffffffffffff168173ffffffffffffffffffffffffffffffffffffffff167f8be0079c531659141344cd1fd0a4f28419497f9722a3daafe3b4186f6b6457e060405160405180910390a35050565b828054620001ca906200029b565b90600052602060002090601f016020900481019282620001ee57600085556200023a565b82601f106200020957805160ff19168380011785556200023a565b828001600101855582156200023a579182015b82811115620002395782518255916020019190600101906200021c565b5b5090506200024991906200024d565b5090565b5b80821115620002685760008160009055506001016200024e565b5090565b7f4e487b7100000000000000000000000000000000000000000000000000000000600052602260045260246000fd5b60006002820490506001821680620002b457607f821691505b60208210811415620002cb57620002ca6200026c565b5b50919050565b613f2780620002e16000396000f3fe608060405234801561001057600080fd5b5060043610610175576000357c0100000000000000000000000000000000000000000000000000000000900480636352211e116100e0578063a22cb46511610099578063a22cb4651461040c578063b88d4fde14610428578063c87b56dd14610444578063d0def52114610474578063e985e9c5146104a4578063f2fde38b146104d457610175565b80636352211e1461033657806370a0823114610366578063715018a6146103965780638462151c146103a05780638da5cb5b146103d057806395d89b41146103ee57610175565b806323b872dd1161013257806323b872dd146102505780632f745c591461026c57806332a5570b1461029c57806332cb6b0c146102cc57806342842e0e146102ea5780634f6ccce71461030657610175565b806301ffc9a71461017a57806306fdde03146101aa578063081812fc146101c8578063095ea7b3146101f857806309d42b301461021457806318160ddd14610232575b600080fd5b610194600480360381019061018f9190612846565b6104f0565b6040516101a1919061288e565b60405180910390f35b6101b2610502565b6040516101bf9190612942565b60405180910390f35b6101e260048036038101906101dd919061299a565b610594565b6040516101ef9190612a08565b60405180910390f35b610212600480360381019061020d9190612a4f565b610619565b005b61021c610731565b6040516102299190612a9e565b60405180910390f35b61023a610736565b6040516102479190612a9e565b60405180910390f35b61026a60048036038101906102659190612ab9565b610743565b005b61028660048036038101906102819190612a4f565b6107a3565b6040516102939190612a9e565b60405180910390f35b6102b660048036038101906102b19190612c41565b610848565b6040516102c39190612a9e565b60405180910390f35b6102d4610b01565b6040516102e19190612a9e565b60405180910390f35b61030460048036038101906102ff9190612ab9565b610b07565b005b610320600480360381019061031b919061299a565b610b27565b60405161032d9190612a9e565b60405180910390f35b610350600480360381019061034b919061299a565b610b98565b60405161035d9190612a08565b60405180910390f35b610380600480360381019061037b9190612cb0565b610c4a565b60405161038d9190612a9e565b60405180910390f35b61039e610d02565b005b6103ba60048036038101906103b59190612cb0565b610d8a565b6040516103c79190612d9b565b60405180910390f35b6103d8610e38565b6040516103e59190612a08565b60405180910390f35b6103f6610e62565b6040516104039190612942565b60405180910390f35b61042660048036038101906104219190612de9565b610ef4565b005b610442600480360381019061043d9190612eca565b610f0a565b005b61045e6004803603810190610459919061299a565b610f6c565b60405161046b9190612942565b60405180910390f35b61048e60048036038101906104899190612f4d565b610f7e565b60405161049b9190612a9e565b60405180910390f35b6104be60048036038101906104b99190612fa9565b61118e565b6040516104cb919061288e565b60405180910390f35b6104ee60048036038101906104e99190612cb0565b611222565b005b60006104fb8261131a565b9050919050565b60606000805461051190613018565b80601f016020809104026020016040519081016040528092919081815260200182805461053d90613018565b801561058a5780601f1061055f5761010080835404028352916020019161058a565b820191906000526020600020905b81548152906001019060200180831161056d57829003601f168201915b5050505050905090565b600061059f82611394565b6105de576040517f08c379a00000000000000000000000000000000000000000000000000000000081526004016105d5906130bc565b60405180910390fd5b6004600083815260200190815260200160002060009054906101000a900473ffffffffffffffffffffffffffffffffffffffff169050919050565b600061062482610b98565b90508073ffffffffffffffffffffffffffffffffffffffff168373ffffffffffffffffffffffffffffffffffffffff161415610695576040517f08c379a000000000000000000000000000000000000000000000000000000000815260040161068c9061314e565b60405180910390fd5b8073ffffffffffffffffffffffffffffffffffffffff166106b4611400565b73ffffffffffffffffffffffffffffffffffffffff1614806106e357506106e2816106dd611400565b61118e565b5b610722576040517f08c379a0000000000000000000000000000000000000000000000000000000008152600401610719906131e0565b60405180910390fd5b61072c8383611408565b505050565b606481565b6000600980549050905090565b61075461074e611400565b826114c1565b610793576040517f08c379a000000000000000000000000000000000000000000000000000000000815260040161078a90613272565b60405180910390fd5b61079e83838361159f565b505050565b60006107ae83610c4a565b82106107ef576040517f08c379a00000000000000000000000000000000000000000000000000000000081526004016107e690613304565b60405180910390fd5b600760008473ffffffffffffffffffffffffffffffffffffffff1673ffffffffffffffffffffffffffffffffffffffff168152602001908152602001600020600083815260200190815260200160002054905092915050565b600081600e8160405161085b9190613360565b908152602001604051809103902060009054906101000a900460ff16156108b7576040517f08c379a00000000000000000000000000000000000000000000000000000000081526004016108ae906133c3565b60405180910390fd5b84600f60008273ffffffffffffffffffffffffffffffffffffffff1673ffffffffffffffffffffffffffffffffffffffff16815260200190815260200160002060009054906101000a900460ff16610944576040517f08c379a000000000000000000000000000000000000000000000000000000000815260040161093b9061342f565b60405180910390fd5b84600f60008273ffffffffffffffffffffffffffffffffffffffff1673ffffffffffffffffffffffffffffffffffffffff16815260200190815260200160002060009054906101000a900460ff166109d1576040517f08c379a00000000000000000000000000000000000000000000000000000000081526004016109c89061342f565b60405180910390fd5b86868073ffffffffffffffffffffffffffffffffffffffff168273ffffffffffffffffffffffffffffffffffffffff161415610a42576040517f08c379a0000000000000000000000000000000000000000000000000000000008152600401610a399061349b565b60405180910390fd5b610a4c600d6117fb565b9550610a588987611809565b88600c600088815260200190815260200160002060006101000a81548173ffffffffffffffffffffffffffffffffffffffff021916908373ffffffffffffffffffffffffffffffffffffffff1602179055506001600e88604051610abc9190613360565b908152602001604051809103902060006101000a81548160ff021916908315150217905550610aeb86886119d7565b610af5600d611a03565b50505050509392505050565b61c35081565b610b2283838360405180602001604052806000815250610f0a565b505050565b6000610b31610736565b8210610b72576040517f08c379a0000000000000000000000000000000000000000000000000000000008152600401610b699061352d565b60405180910390fd5b60098281548110610b8657610b8561354d565b5b90600052602060002001549050919050565b6000806002600084815260200190815260200160002060009054906101000a900473ffffffffffffffffffffffffffffffffffffffff169050600073ffffffffffffffffffffffffffffffffffffffff168173ffffffffffffffffffffffffffffffffffffffff161415610c41576040517f08c379a0000000000000000000000000000000000000000000000000000000008152600401610c38906135ee565b60405180910390fd5b80915050919050565b60008073ffffffffffffffffffffffffffffffffffffffff168273ffffffffffffffffffffffffffffffffffffffff161415610cbb576040517f08c379a0000000000000000000000000000000000000000000000000000000008152600401610cb290613680565b60405180910390fd5b600360008373ffffffffffffffffffffffffffffffffffffffff1673ffffffffffffffffffffffffffffffffffffffff168152602001908152602001600020549050919050565b610d0a611400565b73ffffffffffffffffffffffffffffffffffffffff16610d28610e38565b73ffffffffffffffffffffffffffffffffffffffff1614610d7e576040517f08c379a0000000000000000000000000000000000000000000000000000000008152600401610d75906136ec565b60405180910390fd5b610d886000611a19565b565b60606000610d9783610c4a565b905060008167ffffffffffffffff811115610db557610db4612b16565b5b604051908082528060200260200182016040528015610de35781602001602082028036833780820191505090505b50905060005b82811015610e2d57610dfb85826107a3565b828281518110610e0e57610e0d61354d565b5b6020026020010181815250508080610e259061373b565b915050610de9565b508092505050919050565b6000600660009054906101000a900473ffffffffffffffffffffffffffffffffffffffff16905090565b606060018054610e7190613018565b80601f0160208091040260200160405190810160405280929190818152602001828054610e9d90613018565b8015610eea5780601f10610ebf57610100808354040283529160200191610eea565b820191906000526020600020905b815481529060010190602001808311610ecd57829003601f168201915b5050505050905090565b610f06610eff611400565b8383611adf565b5050565b610f1b610f15611400565b836114c1565b610f5a576040517f08c379a0000000000000000000000000000000000000000000000000000000008152600401610f5190613272565b60405180910390fd5b610f6684848484611c4c565b50505050565b6060610f7782611ca8565b9050919050565b600081600e81604051610f919190613360565b908152602001604051809103902060009054906101000a900460ff1615610fed576040517f08c379a0000000000000000000000000000000000000000000000000000000008152600401610fe4906133c3565b60405180910390fd5b83600f60008273ffffffffffffffffffffffffffffffffffffffff1673ffffffffffffffffffffffffffffffffffffffff16815260200190815260200160002060009054906101000a900460ff161561107b576040517f08c379a0000000000000000000000000000000000000000000000000000000008152600401611072906137d0565b60405180910390fd5b611085600d6117fb565b92506110918584611809565b84600c600085815260200190815260200160002060006101000a81548173ffffffffffffffffffffffffffffffffffffffff021916908373ffffffffffffffffffffffffffffffffffffffff1602179055506001600e856040516110f59190613360565b908152602001604051809103902060006101000a81548160ff0219169083151502179055506001600f60008773ffffffffffffffffffffffffffffffffffffffff1673ffffffffffffffffffffffffffffffffffffffff16815260200190815260200160002060006101000a81548160ff02191690831515021790555061117c83856119d7565b611186600d611a03565b505092915050565b6000600560008473ffffffffffffffffffffffffffffffffffffffff1673ffffffffffffffffffffffffffffffffffffffff16815260200190815260200160002060008373ffffffffffffffffffffffffffffffffffffffff1673ffffffffffffffffffffffffffffffffffffffff16815260200190815260200160002060009054906101000a900460ff16905092915050565b61122a611400565b73ffffffffffffffffffffffffffffffffffffffff16611248610e38565b73ffffffffffffffffffffffffffffffffffffffff161461129e576040517f08c379a0000000000000000000000000000000000000000000000000000000008152600401611295906136ec565b60405180910390fd5b600073ffffffffffffffffffffffffffffffffffffffff168173ffffffffffffffffffffffffffffffffffffffff16141561130e576040517f08c379a000000000000000000000000000000000000000000000000000000000815260040161130590613862565b60405180910390fd5b61131781611a19565b50565b60007f780e9d63000000000000000000000000000000000000000000000000000000007bffffffffffffffffffffffffffffffffffffffffffffffffffffffff1916827bffffffffffffffffffffffffffffffffffffffffffffffffffffffff1916148061138d575061138c82611e1d565b5b9050919050565b60008073ffffffffffffffffffffffffffffffffffffffff166002600084815260200190815260200160002060009054906101000a900473ffffffffffffffffffffffffffffffffffffffff1673ffffffffffffffffffffffffffffffffffffffff1614159050919050565b600033905090565b816004600083815260200190815260200160002060006101000a81548173ffffffffffffffffffffffffffffffffffffffff021916908373ffffffffffffffffffffffffffffffffffffffff160217905550808273ffffffffffffffffffffffffffffffffffffffff1661147b83610b98565b73ffffffffffffffffffffffffffffffffffffffff167f8c5be1e5ebec7d5bd14f71427d1e84f3dd0314c0f7b2291e5b200ac8c7c3b92560405160405180910390a45050565b60006114cc82611394565b61150b576040517f08c379a0000000000000000000000000000000000000000000000000000000008152600401611502906138f4565b60405180910390fd5b600061151683610b98565b90508073ffffffffffffffffffffffffffffffffffffffff168473ffffffffffffffffffffffffffffffffffffffff16148061158557508373ffffffffffffffffffffffffffffffffffffffff1661156d84610594565b73ffffffffffffffffffffffffffffffffffffffff16145b806115965750611595818561118e565b5b91505092915050565b8273ffffffffffffffffffffffffffffffffffffffff166115bf82610b98565b73ffffffffffffffffffffffffffffffffffffffff1614611615576040517f08c379a000000000000000000000000000000000000000000000000000000000815260040161160c90613986565b60405180910390fd5b600073ffffffffffffffffffffffffffffffffffffffff168273ffffffffffffffffffffffffffffffffffffffff161415611685576040517f08c379a000000000000000000000000000000000000000000000000000000000815260040161167c90613a18565b60405180910390fd5b611690838383611eff565b61169b600082611408565b6001600360008573ffffffffffffffffffffffffffffffffffffffff1673ffffffffffffffffffffffffffffffffffffffff16815260200190815260200160002060008282546116eb9190613a38565b925050819055506001600360008473ffffffffffffffffffffffffffffffffffffffff1673ffffffffffffffffffffffffffffffffffffffff16815260200190815260200160002060008282546117429190613a6c565b92505081905550816002600083815260200190815260200160002060006101000a81548173ffffffffffffffffffffffffffffffffffffffff021916908373ffffffffffffffffffffffffffffffffffffffff160217905550808273ffffffffffffffffffffffffffffffffffffffff168473ffffffffffffffffffffffffffffffffffffffff167fddf252ad1be2c89b69c2b068fc378daa952ba7f163c4a11628f55a4df523b3ef60405160405180910390a4505050565b600081600001549050919050565b600073ffffffffffffffffffffffffffffffffffffffff168273ffffffffffffffffffffffffffffffffffffffff161415611879576040517f08c379a000000000000000000000000000000000000000000000000000000000815260040161187090613b0e565b60405180910390fd5b61188281611394565b156118c2576040517f08c379a00000000000000000000000000000000000000000000000000000000081526004016118b990613b7a565b60405180910390fd5b6118ce60008383611eff565b6001600360008473ffffffffffffffffffffffffffffffffffffffff1673ffffffffffffffffffffffffffffffffffffffff168152602001908152602001600020600082825461191e9190613a6c565b92505081905550816002600083815260200190815260200160002060006101000a81548173ffffffffffffffffffffffffffffffffffffffff021916908373ffffffffffffffffffffffffffffffffffffffff160217905550808273ffffffffffffffffffffffffffffffffffffffff16600073ffffffffffffffffffffffffffffffffffffffff167fddf252ad1be2c89b69c2b068fc378daa952ba7f163c4a11628f55a4df523b3ef60405160405180910390a45050565b80600b600084815260200190815260200160002090805190602001906119fe929190612737565b505050565b6001816000016000828254019250508190555050565b6000600660009054906101000a900473ffffffffffffffffffffffffffffffffffffffff16905081600660006101000a81548173ffffffffffffffffffffffffffffffffffffffff021916908373ffffffffffffffffffffffffffffffffffffffff1602179055508173ffffffffffffffffffffffffffffffffffffffff168173ffffffffffffffffffffffffffffffffffffffff167f8be0079c531659141344cd1fd0a4f28419497f9722a3daafe3b4186f6b6457e060405160405180910390a35050565b8173ffffffffffffffffffffffffffffffffffffffff168373ffffffffffffffffffffffffffffffffffffffff161415611b4e576040517f08c379a0000000000000000000000000000000000000000000000000000000008152600401611b4590613be6565b60405180910390fd5b80600560008573ffffffffffffffffffffffffffffffffffffffff1673ffffffffffffffffffffffffffffffffffffffff16815260200190815260200160002060008473ffffffffffffffffffffffffffffffffffffffff1673ffffffffffffffffffffffffffffffffffffffff16815260200190815260200160002060006101000a81548160ff0219169083151502179055508173ffffffffffffffffffffffffffffffffffffffff168373ffffffffffffffffffffffffffffffffffffffff167f17307eab39ab6107e8899845ad3d59bd9653f200f220920489ca2b5937696c3183604051611c3f919061288e565b60405180910390a3505050565b611c5784848461159f565b611c6384848484611f0f565b611ca2576040517f08c379a0000000000000000000000000000000000000000000000000000000008152600401611c9990613c78565b60405180910390fd5b50505050565b606081611cb481611394565b611cf3576040517f08c379a0000000000000000000000000000000000000000000000000000000008152600401611cea90613d0a565b60405180910390fd5b6000600b60008581526020019081526020016000208054611d1390613018565b80601f0160208091040260200160405190810160405280929190818152602001828054611d3f90613018565b8015611d8c5780601f10611d6157610100808354040283529160200191611d8c565b820191906000526020600020905b815481529060010190602001808311611d6f57829003601f168201915b505050505090506000611d9d6120cf565b9050600081511415611db3578193505050611e17565b600082511115611de8578082604051602001611dd0929190613d2a565b60405160208183030381529060405293505050611e17565b80611df2866120de565b604051602001611e03929190613d2a565b604051602081830303815290604052935050505b50919050565b60007f80ac58cd000000000000000000000000000000000000000000000000000000007bffffffffffffffffffffffffffffffffffffffffffffffffffffffff1916827bffffffffffffffffffffffffffffffffffffffffffffffffffffffff19161480611ee857507f5b5e139f000000000000000000000000000000000000000000000000000000007bffffffffffffffffffffffffffffffffffffffffffffffffffffffff1916827bffffffffffffffffffffffffffffffffffffffffffffffffffffffff1916145b80611ef85750611ef78261225e565b5b9050919050565b611f0a8383836122c8565b505050565b6000611f308473ffffffffffffffffffffffffffffffffffffffff166123dc565b156120c2578373ffffffffffffffffffffffffffffffffffffffff1663150b7a02611f59611400565b8786866040518563ffffffff167c0100000000000000000000000000000000000000000000000000000000028152600401611f979493929190613da3565b6020604051808303816000875af1925050508015611fd357506040513d601f19601f82011682018060405250810190611fd09190613e04565b60015b612056573d8060008114612003576040519150601f19603f3d011682016040523d82523d6000602084013e612008565b606091505b5060008151141561204e576040517f08c379a000000000000000000000000000000000000000000000000000000000815260040161204590613c78565b60405180910390fd5b805181602001fd5b63150b7a027c0100000000000000000000000000000000000000000000000000000000027bffffffffffffffffffffffffffffffffffffffffffffffffffffffff1916817bffffffffffffffffffffffffffffffffffffffffffffffffffffffff1916149150506120c7565b600190505b949350505050565b60606120d96123ef565b905090565b60606000821415612126576040518060400160405280600181526020017f30000000000000000000000000000000000000000000000000000000000000008152509050612259565b600082905060005b600082146121585780806121419061373b565b915050600a826121519190613e60565b915061212e565b60008167ffffffffffffffff81111561217457612173612b16565b5b6040519080825280601f01601f1916602001820160405280156121a65781602001600182028036833780820191505090505b5090505b60008514612252576001826121bf9190613a38565b9150600a856121ce9190613e91565b60306121da9190613a6c565b7f01000000000000000000000000000000000000000000000000000000000000000281838151811061220f5761220e61354d565b5b60200101907effffffffffffffffffffffffffffffffffffffffffffffffffffffffffffff1916908160001a905350600a8561224b9190613e60565b94506121aa565b8093505050505b919050565b60007f01ffc9a7000000000000000000000000000000000000000000000000000000007bffffffffffffffffffffffffffffffffffffffffffffffffffffffff1916827bffffffffffffffffffffffffffffffffffffffffffffffffffffffff1916149050919050565b6122d383838361242c565b600073ffffffffffffffffffffffffffffffffffffffff168373ffffffffffffffffffffffffffffffffffffffff1614156123165761231181612431565b612355565b8173ffffffffffffffffffffffffffffffffffffffff168373ffffffffffffffffffffffffffffffffffffffff161461235457612353838261247a565b5b5b600073ffffffffffffffffffffffffffffffffffffffff168273ffffffffffffffffffffffffffffffffffffffff16141561239857612393816125e7565b6123d7565b8273ffffffffffffffffffffffffffffffffffffffff168273ffffffffffffffffffffffffffffffffffffffff16146123d6576123d582826126b8565b5b5b505050565b600080823b905060008111915050919050565b60606040518060400160405280601581526020017f68747470733a2f2f697066732e696f2f697066732f0000000000000000000000815250905090565b505050565b600980549050600a600083815260200190815260200160002081905550600981908060018154018082558091505060019003906000526020600020016000909190919091505550565b6000600161248784610c4a565b6124919190613a38565b9050600060086000848152602001908152602001600020549050818114612576576000600760008673ffffffffffffffffffffffffffffffffffffffff1673ffffffffffffffffffffffffffffffffffffffff168152602001908152602001600020600084815260200190815260200160002054905080600760008773ffffffffffffffffffffffffffffffffffffffff1673ffffffffffffffffffffffffffffffffffffffff168152602001908152602001600020600084815260200190815260200160002081905550816008600083815260200190815260200160002081905550505b6008600084815260200190815260200160002060009055600760008573ffffffffffffffffffffffffffffffffffffffff1673ffffffffffffffffffffffffffffffffffffffff16815260200190815260200160002060008381526020019081526020016000206000905550505050565b600060016009805490506125fb9190613a38565b90506000600a600084815260200190815260200160002054905060006009838154811061262b5761262a61354d565b5b90600052602060002001549050806009838154811061264d5761264c61354d565b5b906000526020600020018190555081600a600083815260200190815260200160002081905550600a600085815260200190815260200160002060009055600980548061269c5761269b613ec2565b5b6001900381819060005260206000200160009055905550505050565b60006126c383610c4a565b905081600760008573ffffffffffffffffffffffffffffffffffffffff1673ffffffffffffffffffffffffffffffffffffffff168152602001908152602001600020600083815260200190815260200160002081905550806008600084815260200190815260200160002081905550505050565b82805461274390613018565b90600052602060002090601f01602090048101928261276557600085556127ac565b82601f1061277e57805160ff19168380011785556127ac565b828001600101855582156127ac579182015b828111156127ab578251825591602001919060010190612790565b5b5090506127b991906127bd565b5090565b5b808211156127d65760008160009055506001016127be565b5090565b6000604051905090565b600080fd5b600080fd5b60007fffffffff0000000000000000000000000000000000000000000000000000000082169050919050565b612823816127ee565b811461282e57600080fd5b50565b6000813590506128408161281a565b92915050565b60006020828403121561285c5761285b6127e4565b5b600061286a84828501612831565b91505092915050565b60008115159050919050565b61288881612873565b82525050565b60006020820190506128a3600083018461287f565b92915050565b600081519050919050565b600082825260208201905092915050565b60005b838110156128e35780820151818401526020810190506128c8565b838111156128f2576000848401525b50505050565b6000601f19601f8301169050919050565b6000612914826128a9565b61291e81856128b4565b935061292e8185602086016128c5565b612937816128f8565b840191505092915050565b6000602082019050818103600083015261295c8184612909565b905092915050565b6000819050919050565b61297781612964565b811461298257600080fd5b50565b6000813590506129948161296e565b92915050565b6000602082840312156129b0576129af6127e4565b5b60006129be84828501612985565b91505092915050565b600073ffffffffffffffffffffffffffffffffffffffff82169050919050565b60006129f2826129c7565b9050919050565b612a02816129e7565b82525050565b6000602082019050612a1d60008301846129f9565b92915050565b612a2c816129e7565b8114612a3757600080fd5b50565b600081359050612a4981612a23565b92915050565b60008060408385031215612a6657612a656127e4565b5b6000612a7485828601612a3a565b9250506020612a8585828601612985565b9150509250929050565b612a9881612964565b82525050565b6000602082019050612ab36000830184612a8f565b92915050565b600080600060608486031215612ad257612ad16127e4565b5b6000612ae086828701612a3a565b9350506020612af186828701612a3a565b9250506040612b0286828701612985565b9150509250925092565b600080fd5b600080fd5b7f4e487b7100000000000000000000000000000000000000000000000000000000600052604160045260246000fd5b612b4e826128f8565b810181811067ffffffffffffffff82111715612b6d57612b6c612b16565b5b80604052505050565b6000612b806127da565b9050612b8c8282612b45565b919050565b600067ffffffffffffffff821115612bac57612bab612b16565b5b612bb5826128f8565b9050602081019050919050565b82818337600083830152505050565b6000612be4612bdf84612b91565b612b76565b905082815260208101848484011115612c0057612bff612b11565b5b612c0b848285612bc2565b509392505050565b600082601f830112612c2857612c27612b0c565b5b8135612c38848260208601612bd1565b91505092915050565b600080600060608486031215612c5a57612c596127e4565b5b6000612c6886828701612a3a565b9350506020612c7986828701612a3a565b925050604084013567ffffffffffffffff811115612c9a57612c996127e9565b5b612ca686828701612c13565b9150509250925092565b600060208284031215612cc657612cc56127e4565b5b6000612cd484828501612a3a565b91505092915050565b600081519050919050565b600082825260208201905092915050565b6000819050602082019050919050565b612d1281612964565b82525050565b6000612d248383612d09565b60208301905092915050565b6000602082019050919050565b6000612d4882612cdd565b612d528185612ce8565b9350612d5d83612cf9565b8060005b83811015612d8e578151612d758882612d18565b9750612d8083612d30565b925050600181019050612d61565b5085935050505092915050565b60006020820190508181036000830152612db58184612d3d565b905092915050565b612dc681612873565b8114612dd157600080fd5b50565b600081359050612de381612dbd565b92915050565b60008060408385031215612e0057612dff6127e4565b5b6000612e0e85828601612a3a565b9250506020612e1f85828601612dd4565b9150509250929050565b600067ffffffffffffffff821115612e4457612e43612b16565b5b612e4d826128f8565b9050602081019050919050565b6000612e6d612e6884612e29565b612b76565b905082815260208101848484011115612e8957612e88612b11565b5b612e94848285612bc2565b509392505050565b600082601f830112612eb157612eb0612b0c565b5b8135612ec1848260208601612e5a565b91505092915050565b60008060008060808587031215612ee457612ee36127e4565b5b6000612ef287828801612a3a565b9450506020612f0387828801612a3a565b9350506040612f1487828801612985565b925050606085013567ffffffffffffffff811115612f3557612f346127e9565b5b612f4187828801612e9c565b91505092959194509250565b60008060408385031215612f6457612f636127e4565b5b6000612f7285828601612a3a565b925050602083013567ffffffffffffffff811115612f9357612f926127e9565b5b612f9f85828601612c13565b9150509250929050565b60008060408385031215612fc057612fbf6127e4565b5b6000612fce85828601612a3a565b9250506020612fdf85828601612a3a565b9150509250929050565b7f4e487b7100000000000000000000000000000000000000000000000000000000600052602260045260246000fd5b6000600282049050600182168061303057607f821691505b6020821081141561304457613043612fe9565b5b50919050565b7f4552433732313a20617070726f76656420717565727920666f72206e6f6e657860008201527f697374656e7420746f6b656e0000000000000000000000000000000000000000602082015250565b60006130a6602c836128b4565b91506130b18261304a565b604082019050919050565b600060208201905081810360008301526130d581613099565b9050919050565b7f4552433732313a20617070726f76616c20746f2063757272656e74206f776e6560008201527f7200000000000000000000000000000000000000000000000000000000000000602082015250565b60006131386021836128b4565b9150613143826130dc565b604082019050919050565b600060208201905081810360008301526131678161312b565b9050919050565b7f4552433732313a20617070726f76652063616c6c6572206973206e6f74206f7760008201527f6e6572206e6f7220617070726f76656420666f7220616c6c0000000000000000602082015250565b60006131ca6038836128b4565b91506131d58261316e565b604082019050919050565b600060208201905081810360008301526131f9816131bd565b9050919050565b7f4552433732313a207472616e736665722063616c6c6572206973206e6f74206f60008201527f776e6572206e6f7220617070726f766564000000000000000000000000000000602082015250565b600061325c6031836128b4565b915061326782613200565b604082019050919050565b6000602082019050818103600083015261328b8161324f565b9050919050565b7f455243373231456e756d657261626c653a206f776e657220696e646578206f7560008201527f74206f6620626f756e6473000000000000000000000000000000000000000000602082015250565b60006132ee602b836128b4565b91506132f982613292565b604082019050919050565b6000602082019050818103600083015261331d816132e1565b9050919050565b600081905092915050565b600061333a826128a9565b6133448185613324565b93506133548185602086016128c5565b80840191505092915050565b600061336c828461332f565b915081905092915050565b7f4f626a65637420616c7265616479206578697374730000000000000000000000600082015250565b60006133ad6015836128b4565b91506133b882613377565b602082019050919050565b600060208201905081810360008301526133dc816133a0565b9050919050565b7f5573657220646f65736e27742065786973747300000000000000000000000000600082015250565b60006134196013836128b4565b9150613424826133e3565b602082019050919050565b600060208201905081810360008301526134488161340c565b9050919050565b7f416464726573732073616d65206173206d6573736167652073656e6465720000600082015250565b6000613485601e836128b4565b91506134908261344f565b602082019050919050565b600060208201905081810360008301526134b481613478565b9050919050565b7f455243373231456e756d657261626c653a20676c6f62616c20696e646578206f60008201527f7574206f6620626f756e64730000000000000000000000000000000000000000602082015250565b6000613517602c836128b4565b9150613522826134bb565b604082019050919050565b600060208201905081810360008301526135468161350a565b9050919050565b7f4e487b7100000000000000000000000000000000000000000000000000000000600052603260045260246000fd5b7f4552433732313a206f776e657220717565727920666f72206e6f6e657869737460008201527f656e7420746f6b656e0000000000000000000000000000000000000000000000602082015250565b60006135d86029836128b4565b91506135e38261357c565b604082019050919050565b60006020820190508181036000830152613607816135cb565b9050919050565b7f4552433732313a2062616c616e636520717565727920666f7220746865207a6560008201527f726f206164647265737300000000000000000000000000000000000000000000602082015250565b600061366a602a836128b4565b91506136758261360e565b604082019050919050565b600060208201905081810360008301526136998161365d565b9050919050565b7f4f776e61626c653a2063616c6c6572206973206e6f7420746865206f776e6572600082015250565b60006136d66020836128b4565b91506136e1826136a0565b602082019050919050565b60006020820190508181036000830152613705816136c9565b9050919050565b7f4e487b7100000000000000000000000000000000000000000000000000000000600052601160045260246000fd5b600061374682612964565b91507fffffffffffffffffffffffffffffffffffffffffffffffffffffffffffffffff8214156137795761377861370c565b5b600182019050919050565b7f5573657220616c72656164792020657869737473000000000000000000000000600082015250565b60006137ba6014836128b4565b91506137c582613784565b602082019050919050565b600060208201905081810360008301526137e9816137ad565b9050919050565b7f4f776e61626c653a206e6577206f776e657220697320746865207a65726f206160008201527f6464726573730000000000000000000000000000000000000000000000000000602082015250565b600061384c6026836128b4565b9150613857826137f0565b604082019050919050565b6000602082019050818103600083015261387b8161383f565b9050919050565b7f4552433732313a206f70657261746f7220717565727920666f72206e6f6e657860008201527f697374656e7420746f6b656e0000000000000000000000000000000000000000602082015250565b60006138de602c836128b4565b91506138e982613882565b604082019050919050565b6000602082019050818103600083015261390d816138d1565b9050919050565b7f4552433732313a207472616e73666572206f6620746f6b656e2074686174206960008201527f73206e6f74206f776e0000000000000000000000000000000000000000000000602082015250565b60006139706029836128b4565b915061397b82613914565b604082019050919050565b6000602082019050818103600083015261399f81613963565b9050919050565b7f4552433732313a207472616e7366657220746f20746865207a65726f2061646460008201527f7265737300000000000000000000000000000000000000000000000000000000602082015250565b6000613a026024836128b4565b9150613a0d826139a6565b604082019050919050565b60006020820190508181036000830152613a31816139f5565b9050919050565b6000613a4382612964565b9150613a4e83612964565b925082821015613a6157613a6061370c565b5b828203905092915050565b6000613a7782612964565b9150613a8283612964565b9250827fffffffffffffffffffffffffffffffffffffffffffffffffffffffffffffffff03821115613ab757613ab661370c565b5b828201905092915050565b7f4552433732313a206d696e7420746f20746865207a65726f2061646472657373600082015250565b6000613af86020836128b4565b9150613b0382613ac2565b602082019050919050565b60006020820190508181036000830152613b2781613aeb565b9050919050565b7f4552433732313a20746f6b656e20616c7265616479206d696e74656400000000600082015250565b6000613b64601c836128b4565b9150613b6f82613b2e565b602082019050919050565b60006020820190508181036000830152613b9381613b57565b9050919050565b7f4552433732313a20617070726f766520746f2063616c6c657200000000000000600082015250565b6000613bd06019836128b4565b9150613bdb82613b9a565b602082019050919050565b60006020820190508181036000830152613bff81613bc3565b9050919050565b7f4552433732313a207472616e7366657220746f206e6f6e20455243373231526560008201527f63656976657220696d706c656d656e7465720000000000000000000000000000602082015250565b6000613c626032836128b4565b9150613c6d82613c06565b604082019050919050565b60006020820190508181036000830152613c9181613c55565b9050919050565b7f4552433732314d657461646174613a2055524920717565727920666f72206e6f60008201527f6e6578697374656e7420746f6b656e0000000000000000000000000000000000602082015250565b6000613cf4602f836128b4565b9150613cff82613c98565b604082019050919050565b60006020820190508181036000830152613d2381613ce7565b9050919050565b6000613d36828561332f565b9150613d42828461332f565b91508190509392505050565b600081519050919050565b600082825260208201905092915050565b6000613d7582613d4e565b613d7f8185613d59565b9350613d8f8185602086016128c5565b613d98816128f8565b840191505092915050565b6000608082019050613db860008301876129f9565b613dc560208301866129f9565b613dd26040830185612a8f565b8181036060830152613de48184613d6a565b905095945050505050565b600081519050613dfe8161281a565b92915050565b600060208284031215613e1a57613e196127e4565b5b6000613e2884828501613def565b91505092915050565b7f4e487b7100000000000000000000000000000000000000000000000000000000600052601260045260246000fd5b6000613e6b82612964565b9150613e7683612964565b925082613e8657613e85613e31565b5b828204905092915050565b6000613e9c82612964565b9150613ea783612964565b925082613eb757613eb6613e31565b5b828206905092915050565b7f4e487b7100000000000000000000000000000000000000000000000000000000600052603160045260246000fdfea2646970667358221220bd266747ffd59f752f6a3065ebe06d57c04b8567b3b8841245eb312f151000ee64736f6c634300080a0033",
  "immutableReferences": {},
  "source": "// SPDX-License-Identifier: MIT\npragma solidity 0.8.10;\n/// @title An NFT game for newcomer to the blockchain world. Can be used complementary to Bootcamps to get used to MetaMask and Dapps.\n/// @author Lena Hierzi\n/// @notice This contract is not aiming for security as it is designed for a playful entry into Dapps and only to be deployed on testnet.\n/// @custom:experimental This is an experimental contract.\n\nimport \"@openzeppelin/contracts/token/ERC721/ERC721.sol\";\nimport \"@openzeppelin/contracts/access/Ownable.sol\";\nimport \"@openzeppelin/contracts/utils/math/SafeMath.sol\";\nimport \"@openzeppelin/contracts/utils/Counters.sol\";\nimport \"@openzeppelin/contracts/token/ERC721/extensions/ERC721Enumerable.sol\";\nimport \"./BaseContract.sol\";\n\ncontract Nft is\n    ERC721,\n    Ownable,\n    ERC721Enumerable,\n    BaseContract(\"Nft\", \"Octopus\")\n{\n    using SafeMath for uint256;\n    using Strings for uint256;\n    using Counters for Counters.Counter;\n    uint256 public constant MAX_SUPPLY = 50000;\n    // uint256 public constant PRICE = 0.0001 ether;\n    uint256 public constant MAX_PER_MINT = 100;\n    mapping(uint256 => address) tokensToOwner;\n\n    Counters.Counter private _tokenIds;\n    mapping(string => bool) _tokenExists;\n    mapping(address => bool) _userExists;\n\n    /*\n     * Modifiers\n     */\n    modifier tokenUnique(string memory token) {\n        require(!_tokenExists[token], \"Object already exists\");\n        _;\n    }\n    modifier userDoesntExists(address user) {\n        require(!_userExists[user], \"User already  exists\");\n        _;\n    }\n    modifier userExists(address user) {\n        require(_userExists[user], \"User doesn't exists\");\n        _;\n    }\n    modifier addressNotSender(address user1, address user2) {\n        require(user1 != user2, \"Address same as message sender\");\n        _;\n    }\n\n    /// @notice  Token is minted. Can only be called once by every user.\n    /// @param to The address, the Token should be transfered to\n    /// @param cid The CID of the Tokens metadata\n    /// @return _id\n    function mint(address to, string memory cid)\n        public\n        tokenUnique(cid)\n        userDoesntExists(to)\n        returns (uint256 _id)\n    {\n        _id = _tokenIds.current();\n        _mint(to, _id);\n        tokensToOwner[_id] = to;\n        _tokenExists[cid] = true;\n        _userExists[to] = true;\n        _setTokenURI(_id, cid);\n        _tokenIds.increment();\n\n        return _id;\n    }\n\n    /// @notice  Token is minted. the color of the NFT is calculated in the FE.\n    /// @dev TODO add color so you can check that user don't handshake twice\n    /// @param to The address, the Token should be transfered to\n    /// @param partner The address of the person the user interacted with\n    /// @param cid The CID of the Tokens metadata\n    /// @return _id\n    function handShake(\n        address to,\n        address partner,\n        string memory cid\n    )\n        public\n        tokenUnique(cid)\n        userExists(to)\n        userExists(partner)\n        addressNotSender(to, partner)\n        returns (uint256 _id)\n    {\n        _id = _tokenIds.current();\n        _mint(to, _id);\n        tokensToOwner[_id] = to;\n        _tokenExists[cid] = true;\n        _setTokenURI(_id, cid);\n        _tokenIds.increment();\n\n        return _id;\n    }\n\n    /// @notice Returns the ids of tokens of one owner\n    /// @param _owner The person that wants to know which tokens belong to them\n    /// @return userTokens  all ids of tokens belonging to one owner\n    function tokensOfOwner(address _owner)\n        public\n        view\n        returns (uint256[] memory)\n    {\n        uint256 tokenCount = balanceOf(_owner);\n        uint256[] memory tokenIds = new uint256[](tokenCount);\n        // string[] memory userTokens = new string[](tokenCount);\n\n        for (uint256 i = 0; i < tokenCount; i++) {\n            tokenIds[i] = tokenOfOwnerByIndex(_owner, i);\n            // if(tokensId[i]  == i){\n            //    userTokens[i] = tokensList[i];\n            // }\n        }\n        return tokenIds;\n    }\n\n    // The following functions are overrides for the BaseContract.\n\n    function _baseURI()\n        internal\n        view\n        virtual\n        override(BaseContract, ERC721)\n        returns (string memory)\n    {\n        return super._baseURI();\n    }\n\n    function tokenURI(uint256 tokenId)\n        public\n        view\n        virtual\n        override(BaseContract, ERC721)\n        returns (string memory)\n    {\n        return super.tokenURI(tokenId);\n    }\n\n    // The following functions are overrides for ERC721Enumerable required by Solidity.\n    function _beforeTokenTransfer(\n        address from,\n        address to,\n        uint256 tokenId\n    ) internal override(ERC721, ERC721Enumerable) {\n        super._beforeTokenTransfer(from, to, tokenId);\n    }\n\n    function supportsInterface(bytes4 interfaceId)\n        public\n        view\n        override(ERC721, ERC721Enumerable)\n        returns (bool)\n    {\n        return super.supportsInterface(interfaceId);\n    }\n}\n",
  "sourcePath": "/Users/lenahierzi/Developer/consensys/blockchain-developer-bootcamp-final-project/contracts/NFT.sol",
  "compiler": {
    "name": "solc",
    "version": "0.8.10+commit.fc410830.Emscripten.clang"
  },
  "schemaVersion": "3.4.3",
  "updatedAt": "2022-01-09T14:12:27.072Z",
  "networkType": "ethereum",
  "devdoc": {
    "kind": "dev",
    "methods": {
      "approve(address,uint256)": {
        "details": "See {IERC721-approve}."
      },
      "balanceOf(address)": {
        "details": "See {IERC721-balanceOf}."
      },
      "getApproved(uint256)": {
        "details": "See {IERC721-getApproved}."
      },
      "handShake(address,address,string)": {
        "details": "TODO add color so you can check that user don't handshake twice",
        "params": {
          "cid": "The CID of the Tokens metadata",
          "partner": "The address of the person the user interacted with",
          "to": "The address, the Token should be transfered to"
        },
        "returns": {
          "_id": "_id"
        }
      },
      "isApprovedForAll(address,address)": {
        "details": "See {IERC721-isApprovedForAll}."
      },
      "mint(address,string)": {
        "params": {
          "cid": "The CID of the Tokens metadata",
          "to": "The address, the Token should be transfered to"
        },
        "returns": {
          "_id": "_id"
        }
      },
      "name()": {
        "details": "See {IERC721Metadata-name}."
      },
      "owner()": {
        "details": "Returns the address of the current owner."
      },
      "ownerOf(uint256)": {
        "details": "See {IERC721-ownerOf}."
      },
      "renounceOwnership()": {
        "details": "Leaves the contract without owner. It will not be possible to call `onlyOwner` functions anymore. Can only be called by the current owner. NOTE: Renouncing ownership will leave the contract without an owner, thereby removing any functionality that is only available to the owner."
      },
      "safeTransferFrom(address,address,uint256)": {
        "details": "See {IERC721-safeTransferFrom}."
      },
      "safeTransferFrom(address,address,uint256,bytes)": {
        "details": "See {IERC721-safeTransferFrom}."
      },
      "setApprovalForAll(address,bool)": {
        "details": "See {IERC721-setApprovalForAll}."
      },
      "symbol()": {
        "details": "See {IERC721Metadata-symbol}."
      },
      "tokenByIndex(uint256)": {
        "details": "See {IERC721Enumerable-tokenByIndex}."
      },
      "tokenOfOwnerByIndex(address,uint256)": {
        "details": "See {IERC721Enumerable-tokenOfOwnerByIndex}."
      },
      "tokensOfOwner(address)": {
        "params": {
          "_owner": "The person that wants to know which tokens belong to them"
        },
        "returns": {
          "_0": "userTokens  all ids of tokens belonging to one owner"
        }
      },
      "totalSupply()": {
        "details": "See {IERC721Enumerable-totalSupply}."
      },
      "transferFrom(address,address,uint256)": {
        "details": "See {IERC721-transferFrom}."
      },
      "transferOwnership(address)": {
        "details": "Transfers ownership of the contract to a new account (`newOwner`). Can only be called by the current owner."
      }
    },
    "version": 1
  },
  "userdoc": {
    "kind": "user",
    "methods": {
      "handShake(address,address,string)": {
        "notice": "Token is minted. the color of the NFT is calculated in the FE."
      },
      "mint(address,string)": {
        "notice": "Token is minted. Can only be called once by every user."
      },
      "tokensOfOwner(address)": {
        "notice": "Returns the ids of tokens of one owner"
      }
    },
    "version": 1
  }
}