{
  "contractName": "Nft",
  "abi": [
    {
      "inputs": [],
      "stateMutability": "nonpayable",
      "type": "constructor"
    },
    {
      "anonymous": false,
      "inputs": [
        {
          "indexed": true,
          "internalType": "address",
          "name": "owner",
          "type": "address"
        },
        {
          "indexed": true,
          "internalType": "address",
          "name": "approved",
          "type": "address"
        },
        {
          "indexed": true,
          "internalType": "uint256",
          "name": "tokenId",
          "type": "uint256"
        }
      ],
      "name": "Approval",
      "type": "event"
    },
    {
      "anonymous": false,
      "inputs": [
        {
          "indexed": true,
          "internalType": "address",
          "name": "owner",
          "type": "address"
        },
        {
          "indexed": true,
          "internalType": "address",
          "name": "operator",
          "type": "address"
        },
        {
          "indexed": false,
          "internalType": "bool",
          "name": "approved",
          "type": "bool"
        }
      ],
      "name": "ApprovalForAll",
      "type": "event"
    },
    {
      "anonymous": false,
      "inputs": [
        {
          "indexed": true,
          "internalType": "address",
          "name": "previousOwner",
          "type": "address"
        },
        {
          "indexed": true,
          "internalType": "address",
          "name": "newOwner",
          "type": "address"
        }
      ],
      "name": "OwnershipTransferred",
      "type": "event"
    },
    {
      "anonymous": false,
      "inputs": [
        {
          "indexed": true,
          "internalType": "address",
          "name": "from",
          "type": "address"
        },
        {
          "indexed": true,
          "internalType": "address",
          "name": "to",
          "type": "address"
        },
        {
          "indexed": true,
          "internalType": "uint256",
          "name": "tokenId",
          "type": "uint256"
        }
      ],
      "name": "Transfer",
      "type": "event"
    },
    {
      "inputs": [
        {
          "internalType": "address",
          "name": "to",
          "type": "address"
        },
        {
          "internalType": "uint256",
          "name": "tokenId",
          "type": "uint256"
        }
      ],
      "name": "approve",
      "outputs": [],
      "stateMutability": "nonpayable",
      "type": "function"
    },
    {
      "inputs": [
        {
          "internalType": "address",
          "name": "owner",
          "type": "address"
        }
      ],
      "name": "balanceOf",
      "outputs": [
        {
          "internalType": "uint256",
          "name": "",
          "type": "uint256"
        }
      ],
      "stateMutability": "view",
      "type": "function",
      "constant": true
    },
    {
      "inputs": [
        {
          "internalType": "uint256",
          "name": "",
          "type": "uint256"
        }
      ],
      "name": "colors",
      "outputs": [
        {
          "internalType": "string",
          "name": "",
          "type": "string"
        }
      ],
      "stateMutability": "view",
      "type": "function",
      "constant": true
    },
    {
      "inputs": [
        {
          "internalType": "uint256",
          "name": "tokenId",
          "type": "uint256"
        }
      ],
      "name": "getApproved",
      "outputs": [
        {
          "internalType": "address",
          "name": "",
          "type": "address"
        }
      ],
      "stateMutability": "view",
      "type": "function",
      "constant": true
    },
    {
      "inputs": [
        {
          "internalType": "address",
          "name": "owner",
          "type": "address"
        },
        {
          "internalType": "address",
          "name": "operator",
          "type": "address"
        }
      ],
      "name": "isApprovedForAll",
      "outputs": [
        {
          "internalType": "bool",
          "name": "",
          "type": "bool"
        }
      ],
      "stateMutability": "view",
      "type": "function",
      "constant": true
    },
    {
      "inputs": [],
      "name": "name",
      "outputs": [
        {
          "internalType": "string",
          "name": "",
          "type": "string"
        }
      ],
      "stateMutability": "view",
      "type": "function",
      "constant": true
    },
    {
      "inputs": [],
      "name": "owner",
      "outputs": [
        {
          "internalType": "address",
          "name": "",
          "type": "address"
        }
      ],
      "stateMutability": "view",
      "type": "function",
      "constant": true
    },
    {
      "inputs": [
        {
          "internalType": "uint256",
          "name": "tokenId",
          "type": "uint256"
        }
      ],
      "name": "ownerOf",
      "outputs": [
        {
          "internalType": "address",
          "name": "",
          "type": "address"
        }
      ],
      "stateMutability": "view",
      "type": "function",
      "constant": true
    },
    {
      "inputs": [],
      "name": "renounceOwnership",
      "outputs": [],
      "stateMutability": "nonpayable",
      "type": "function"
    },
    {
      "inputs": [
        {
          "internalType": "address",
          "name": "from",
          "type": "address"
        },
        {
          "internalType": "address",
          "name": "to",
          "type": "address"
        },
        {
          "internalType": "uint256",
          "name": "tokenId",
          "type": "uint256"
        }
      ],
      "name": "safeTransferFrom",
      "outputs": [],
      "stateMutability": "nonpayable",
      "type": "function"
    },
    {
      "inputs": [
        {
          "internalType": "address",
          "name": "from",
          "type": "address"
        },
        {
          "internalType": "address",
          "name": "to",
          "type": "address"
        },
        {
          "internalType": "uint256",
          "name": "tokenId",
          "type": "uint256"
        },
        {
          "internalType": "bytes",
          "name": "_data",
          "type": "bytes"
        }
      ],
      "name": "safeTransferFrom",
      "outputs": [],
      "stateMutability": "nonpayable",
      "type": "function"
    },
    {
      "inputs": [
        {
          "internalType": "address",
          "name": "operator",
          "type": "address"
        },
        {
          "internalType": "bool",
          "name": "approved",
          "type": "bool"
        }
      ],
      "name": "setApprovalForAll",
      "outputs": [],
      "stateMutability": "nonpayable",
      "type": "function"
    },
    {
      "inputs": [
        {
          "internalType": "bytes4",
          "name": "interfaceId",
          "type": "bytes4"
        }
      ],
      "name": "supportsInterface",
      "outputs": [
        {
          "internalType": "bool",
          "name": "",
          "type": "bool"
        }
      ],
      "stateMutability": "view",
      "type": "function",
      "constant": true
    },
    {
      "inputs": [],
      "name": "symbol",
      "outputs": [
        {
          "internalType": "string",
          "name": "",
          "type": "string"
        }
      ],
      "stateMutability": "view",
      "type": "function",
      "constant": true
    },
    {
      "inputs": [
        {
          "internalType": "uint256",
          "name": "tokenId",
          "type": "uint256"
        }
      ],
      "name": "tokenURI",
      "outputs": [
        {
          "internalType": "string",
          "name": "",
          "type": "string"
        }
      ],
      "stateMutability": "view",
      "type": "function",
      "constant": true
    },
    {
      "inputs": [
        {
          "internalType": "address",
          "name": "from",
          "type": "address"
        },
        {
          "internalType": "address",
          "name": "to",
          "type": "address"
        },
        {
          "internalType": "uint256",
          "name": "tokenId",
          "type": "uint256"
        }
      ],
      "name": "transferFrom",
      "outputs": [],
      "stateMutability": "nonpayable",
      "type": "function"
    },
    {
      "inputs": [
        {
          "internalType": "address",
          "name": "newOwner",
          "type": "address"
        }
      ],
      "name": "transferOwnership",
      "outputs": [],
      "stateMutability": "nonpayable",
      "type": "function"
    },
    {
      "inputs": [
        {
          "internalType": "string",
          "name": "_color",
          "type": "string"
        }
      ],
      "name": "mint",
      "outputs": [],
      "stateMutability": "nonpayable",
      "type": "function"
    }
  ],
  "bytecode": "0x608060405260006009553480156200001657600080fd5b506040518060400160405280600381526020017f4e667400000000000000000000000000000000000000000000000000000000008152506040518060400160405280600381526020017f4e4654000000000000000000000000000000000000000000000000000000000081525081600090805190602001906200009b929190620001bd565b508060019080519060200190620000b4929190620001bd565b505050620000e9620000d4620000ef640100000000026401000000009004565b620000f7640100000000026401000000009004565b620002d2565b600033905090565b6000600660009054906101000a900473ffffffffffffffffffffffffffffffffffffffff16905081600660006101000a81548173ffffffffffffffffffffffffffffffffffffffff021916908373ffffffffffffffffffffffffffffffffffffffff1602179055508173ffffffffffffffffffffffffffffffffffffffff168173ffffffffffffffffffffffffffffffffffffffff167f8be0079c531659141344cd1fd0a4f28419497f9722a3daafe3b4186f6b6457e060405160405180910390a35050565b828054620001cb906200029c565b90600052602060002090601f016020900481019282620001ef57600085556200023b565b82601f106200020a57805160ff19168380011785556200023b565b828001600101855582156200023b579182015b828111156200023a5782518255916020019190600101906200021d565b5b5090506200024a91906200024e565b5090565b5b80821115620002695760008160009055506001016200024f565b5090565b7f4e487b7100000000000000000000000000000000000000000000000000000000600052602260045260246000fd5b60006002820490506001821680620002b557607f821691505b60208210811415620002cc57620002cb6200026d565b5b50919050565b612e3e80620002e26000396000f3fe608060405234801561001057600080fd5b5060043610610133576000357c0100000000000000000000000000000000000000000000000000000000900480638da5cb5b116100bf578063bd11f69d1161008e578063bd11f69d146102e8578063c87b56dd14610318578063d85d3d2714610348578063e985e9c514610364578063f2fde38b1461039457610133565b80638da5cb5b1461027457806395d89b4114610292578063a22cb465146102b0578063b88d4fde146102cc57610133565b806323b872dd1161010657806323b872dd146101d257806342842e0e146101ee5780636352211e1461020a57806370a082311461023a578063715018a61461026a57610133565b806301ffc9a71461013857806306fdde0314610168578063081812fc14610186578063095ea7b3146101b6575b600080fd5b610152600480360381019061014d9190611bc2565b6103b0565b60405161015f9190611c0a565b60405180910390f35b610170610492565b60405161017d9190611cbe565b60405180910390f35b6101a0600480360381019061019b9190611d16565b610524565b6040516101ad9190611d84565b60405180910390f35b6101d060048036038101906101cb9190611dcb565b6105a9565b005b6101ec60048036038101906101e79190611e0b565b6106c1565b005b61020860048036038101906102039190611e0b565b610721565b005b610224600480360381019061021f9190611d16565b610741565b6040516102319190611d84565b60405180910390f35b610254600480360381019061024f9190611e5e565b6107f3565b6040516102619190611e9a565b60405180910390f35b6102726108ab565b005b61027c610933565b6040516102899190611d84565b60405180910390f35b61029a61095d565b6040516102a79190611cbe565b60405180910390f35b6102ca60048036038101906102c59190611ee1565b6109ef565b005b6102e660048036038101906102e19190612056565b610b70565b005b61030260048036038101906102fd9190611d16565b610bd2565b60405161030f9190611cbe565b60405180910390f35b610332600480360381019061032d9190611d16565b610c7e565b60405161033f9190611cbe565b60405180910390f35b610362600480360381019061035d919061217a565b610d25565b005b61037e600480360381019061037991906121c3565b610df7565b60405161038b9190611c0a565b60405180910390f35b6103ae60048036038101906103a99190611e5e565b610e8b565b005b60007f80ac58cd000000000000000000000000000000000000000000000000000000007bffffffffffffffffffffffffffffffffffffffffffffffffffffffff1916827bffffffffffffffffffffffffffffffffffffffffffffffffffffffff1916148061047b57507f5b5e139f000000000000000000000000000000000000000000000000000000007bffffffffffffffffffffffffffffffffffffffffffffffffffffffff1916827bffffffffffffffffffffffffffffffffffffffffffffffffffffffff1916145b8061048b575061048a82610f83565b5b9050919050565b6060600080546104a190612232565b80601f01602080910402602001604051908101604052809291908181526020018280546104cd90612232565b801561051a5780601f106104ef5761010080835404028352916020019161051a565b820191906000526020600020905b8154815290600101906020018083116104fd57829003601f168201915b5050505050905090565b600061052f82610fed565b61056e576040517f08c379a0000000000000000000000000000000000000000000000000000000008152600401610565906122d6565b60405180910390fd5b6004600083815260200190815260200160002060009054906101000a900473ffffffffffffffffffffffffffffffffffffffff169050919050565b60006105b482610741565b90508073ffffffffffffffffffffffffffffffffffffffff168373ffffffffffffffffffffffffffffffffffffffff161415610625576040517f08c379a000000000000000000000000000000000000000000000000000000000815260040161061c90612368565b60405180910390fd5b8073ffffffffffffffffffffffffffffffffffffffff16610644611059565b73ffffffffffffffffffffffffffffffffffffffff16148061067357506106728161066d611059565b610df7565b5b6106b2576040517f08c379a00000000000000000000000000000000000000000000000000000000081526004016106a9906123fa565b60405180910390fd5b6106bc8383611061565b505050565b6106d26106cc611059565b8261111a565b610711576040517f08c379a00000000000000000000000000000000000000000000000000000000081526004016107089061248c565b60405180910390fd5b61071c8383836111f8565b505050565b61073c83838360405180602001604052806000815250610b70565b505050565b6000806002600084815260200190815260200160002060009054906101000a900473ffffffffffffffffffffffffffffffffffffffff169050600073ffffffffffffffffffffffffffffffffffffffff168173ffffffffffffffffffffffffffffffffffffffff1614156107ea576040517f08c379a00000000000000000000000000000000000000000000000000000000081526004016107e19061251e565b60405180910390fd5b80915050919050565b60008073ffffffffffffffffffffffffffffffffffffffff168273ffffffffffffffffffffffffffffffffffffffff161415610864576040517f08c379a000000000000000000000000000000000000000000000000000000000815260040161085b906125b0565b60405180910390fd5b600360008373ffffffffffffffffffffffffffffffffffffffff1673ffffffffffffffffffffffffffffffffffffffff168152602001908152602001600020549050919050565b6108b3611059565b73ffffffffffffffffffffffffffffffffffffffff166108d1610933565b73ffffffffffffffffffffffffffffffffffffffff1614610927576040517f08c379a000000000000000000000000000000000000000000000000000000000815260040161091e9061261c565b60405180910390fd5b6109316000611454565b565b6000600660009054906101000a900473ffffffffffffffffffffffffffffffffffffffff16905090565b60606001805461096c90612232565b80601f016020809104026020016040519081016040528092919081815260200182805461099890612232565b80156109e55780601f106109ba576101008083540402835291602001916109e5565b820191906000526020600020905b8154815290600101906020018083116109c857829003601f168201915b5050505050905090565b6109f7611059565b73ffffffffffffffffffffffffffffffffffffffff168273ffffffffffffffffffffffffffffffffffffffff161415610a65576040517f08c379a0000000000000000000000000000000000000000000000000000000008152600401610a5c90612688565b60405180910390fd5b8060056000610a72611059565b73ffffffffffffffffffffffffffffffffffffffff1673ffffffffffffffffffffffffffffffffffffffff16815260200190815260200160002060008473ffffffffffffffffffffffffffffffffffffffff1673ffffffffffffffffffffffffffffffffffffffff16815260200190815260200160002060006101000a81548160ff0219169083151502179055508173ffffffffffffffffffffffffffffffffffffffff16610b1f611059565b73ffffffffffffffffffffffffffffffffffffffff167f17307eab39ab6107e8899845ad3d59bd9653f200f220920489ca2b5937696c3183604051610b649190611c0a565b60405180910390a35050565b610b81610b7b611059565b8361111a565b610bc0576040517f08c379a0000000000000000000000000000000000000000000000000000000008152600401610bb79061248c565b60405180910390fd5b610bcc8484848461151a565b50505050565b60078181548110610be257600080fd5b906000526020600020016000915090508054610bfd90612232565b80601f0160208091040260200160405190810160405280929190818152602001828054610c2990612232565b8015610c765780601f10610c4b57610100808354040283529160200191610c76565b820191906000526020600020905b815481529060010190602001808311610c5957829003601f168201915b505050505081565b6060610c8982610fed565b610cc8576040517f08c379a0000000000000000000000000000000000000000000000000000000008152600401610cbf9061271a565b60405180910390fd5b6000610cd2611576565b90506000815111610cf25760405180602001604052806000815250610d1d565b80610cfc8461158d565b604051602001610d0d929190612776565b6040516020818303038152906040525b915050919050565b600881604051610d35919061279a565b908152602001604051809103902060009054906101000a900460ff1615610d5b57600080fd5b600060096000815480929190610d70906127e0565b919050559050600782908060018154018082558091505060019003906000526020600020016000909190919091509080519060200190610db1929190611ab3565b50610dbc338261170d565b6001600883604051610dce919061279a565b908152602001604051809103902060006101000a81548160ff0219169083151502179055505050565b6000600560008473ffffffffffffffffffffffffffffffffffffffff1673ffffffffffffffffffffffffffffffffffffffff16815260200190815260200160002060008373ffffffffffffffffffffffffffffffffffffffff1673ffffffffffffffffffffffffffffffffffffffff16815260200190815260200160002060009054906101000a900460ff16905092915050565b610e93611059565b73ffffffffffffffffffffffffffffffffffffffff16610eb1610933565b73ffffffffffffffffffffffffffffffffffffffff1614610f07576040517f08c379a0000000000000000000000000000000000000000000000000000000008152600401610efe9061261c565b60405180910390fd5b600073ffffffffffffffffffffffffffffffffffffffff168173ffffffffffffffffffffffffffffffffffffffff161415610f77576040517f08c379a0000000000000000000000000000000000000000000000000000000008152600401610f6e9061289b565b60405180910390fd5b610f8081611454565b50565b60007f01ffc9a7000000000000000000000000000000000000000000000000000000007bffffffffffffffffffffffffffffffffffffffffffffffffffffffff1916827bffffffffffffffffffffffffffffffffffffffffffffffffffffffff1916149050919050565b60008073ffffffffffffffffffffffffffffffffffffffff166002600084815260200190815260200160002060009054906101000a900473ffffffffffffffffffffffffffffffffffffffff1673ffffffffffffffffffffffffffffffffffffffff1614159050919050565b600033905090565b816004600083815260200190815260200160002060006101000a81548173ffffffffffffffffffffffffffffffffffffffff021916908373ffffffffffffffffffffffffffffffffffffffff160217905550808273ffffffffffffffffffffffffffffffffffffffff166110d483610741565b73ffffffffffffffffffffffffffffffffffffffff167f8c5be1e5ebec7d5bd14f71427d1e84f3dd0314c0f7b2291e5b200ac8c7c3b92560405160405180910390a45050565b600061112582610fed565b611164576040517f08c379a000000000000000000000000000000000000000000000000000000000815260040161115b9061292d565b60405180910390fd5b600061116f83610741565b90508073ffffffffffffffffffffffffffffffffffffffff168473ffffffffffffffffffffffffffffffffffffffff1614806111de57508373ffffffffffffffffffffffffffffffffffffffff166111c684610524565b73ffffffffffffffffffffffffffffffffffffffff16145b806111ef57506111ee8185610df7565b5b91505092915050565b8273ffffffffffffffffffffffffffffffffffffffff1661121882610741565b73ffffffffffffffffffffffffffffffffffffffff161461126e576040517f08c379a0000000000000000000000000000000000000000000000000000000008152600401611265906129bf565b60405180910390fd5b600073ffffffffffffffffffffffffffffffffffffffff168273ffffffffffffffffffffffffffffffffffffffff1614156112de576040517f08c379a00000000000000000000000000000000000000000000000000000000081526004016112d590612a51565b60405180910390fd5b6112e98383836118db565b6112f4600082611061565b6001600360008573ffffffffffffffffffffffffffffffffffffffff1673ffffffffffffffffffffffffffffffffffffffff16815260200190815260200160002060008282546113449190612a71565b925050819055506001600360008473ffffffffffffffffffffffffffffffffffffffff1673ffffffffffffffffffffffffffffffffffffffff168152602001908152602001600020600082825461139b9190612aa5565b92505081905550816002600083815260200190815260200160002060006101000a81548173ffffffffffffffffffffffffffffffffffffffff021916908373ffffffffffffffffffffffffffffffffffffffff160217905550808273ffffffffffffffffffffffffffffffffffffffff168473ffffffffffffffffffffffffffffffffffffffff167fddf252ad1be2c89b69c2b068fc378daa952ba7f163c4a11628f55a4df523b3ef60405160405180910390a4505050565b6000600660009054906101000a900473ffffffffffffffffffffffffffffffffffffffff16905081600660006101000a81548173ffffffffffffffffffffffffffffffffffffffff021916908373ffffffffffffffffffffffffffffffffffffffff1602179055508173ffffffffffffffffffffffffffffffffffffffff168173ffffffffffffffffffffffffffffffffffffffff167f8be0079c531659141344cd1fd0a4f28419497f9722a3daafe3b4186f6b6457e060405160405180910390a35050565b6115258484846111f8565b611531848484846118e0565b611570576040517f08c379a000000000000000000000000000000000000000000000000000000000815260040161156790612b6d565b60405180910390fd5b50505050565b606060405180602001604052806000815250905090565b606060008214156115d5576040518060400160405280600181526020017f30000000000000000000000000000000000000000000000000000000000000008152509050611708565b600082905060005b600082146116075780806115f0906127e0565b915050600a826116009190612bbc565b91506115dd565b60008167ffffffffffffffff81111561162357611622611f2b565b5b6040519080825280601f01601f1916602001820160405280156116555781602001600182028036833780820191505090505b5090505b600085146117015760018261166e9190612a71565b9150600a8561167d9190612bed565b60306116899190612aa5565b7f0100000000000000000000000000000000000000000000000000000000000000028183815181106116be576116bd612c1e565b5b60200101907effffffffffffffffffffffffffffffffffffffffffffffffffffffffffffff1916908160001a905350600a856116fa9190612bbc565b9450611659565b8093505050505b919050565b600073ffffffffffffffffffffffffffffffffffffffff168273ffffffffffffffffffffffffffffffffffffffff16141561177d576040517f08c379a000000000000000000000000000000000000000000000000000000000815260040161177490612c99565b60405180910390fd5b61178681610fed565b156117c6576040517f08c379a00000000000000000000000000000000000000000000000000000000081526004016117bd90612d05565b60405180910390fd5b6117d2600083836118db565b6001600360008473ffffffffffffffffffffffffffffffffffffffff1673ffffffffffffffffffffffffffffffffffffffff16815260200190815260200160002060008282546118229190612aa5565b92505081905550816002600083815260200190815260200160002060006101000a81548173ffffffffffffffffffffffffffffffffffffffff021916908373ffffffffffffffffffffffffffffffffffffffff160217905550808273ffffffffffffffffffffffffffffffffffffffff16600073ffffffffffffffffffffffffffffffffffffffff167fddf252ad1be2c89b69c2b068fc378daa952ba7f163c4a11628f55a4df523b3ef60405160405180910390a45050565b505050565b60006119018473ffffffffffffffffffffffffffffffffffffffff16611aa0565b15611a93578373ffffffffffffffffffffffffffffffffffffffff1663150b7a0261192a611059565b8786866040518563ffffffff167c01000000000000000000000000000000000000000000000000000000000281526004016119689493929190612d7a565b6020604051808303816000875af19250505080156119a457506040513d601f19601f820116820180604052508101906119a19190612ddb565b60015b611a27573d80600081146119d4576040519150601f19603f3d011682016040523d82523d6000602084013e6119d9565b606091505b50600081511415611a1f576040517f08c379a0000000000000000000000000000000000000000000000000000000008152600401611a1690612b6d565b60405180910390fd5b805181602001fd5b63150b7a027c0100000000000000000000000000000000000000000000000000000000027bffffffffffffffffffffffffffffffffffffffffffffffffffffffff1916817bffffffffffffffffffffffffffffffffffffffffffffffffffffffff191614915050611a98565b600190505b949350505050565b600080823b905060008111915050919050565b828054611abf90612232565b90600052602060002090601f016020900481019282611ae15760008555611b28565b82601f10611afa57805160ff1916838001178555611b28565b82800160010185558215611b28579182015b82811115611b27578251825591602001919060010190611b0c565b5b509050611b359190611b39565b5090565b5b80821115611b52576000816000905550600101611b3a565b5090565b6000604051905090565b600080fd5b600080fd5b60007fffffffff0000000000000000000000000000000000000000000000000000000082169050919050565b611b9f81611b6a565b8114611baa57600080fd5b50565b600081359050611bbc81611b96565b92915050565b600060208284031215611bd857611bd7611b60565b5b6000611be684828501611bad565b91505092915050565b60008115159050919050565b611c0481611bef565b82525050565b6000602082019050611c1f6000830184611bfb565b92915050565b600081519050919050565b600082825260208201905092915050565b60005b83811015611c5f578082015181840152602081019050611c44565b83811115611c6e576000848401525b50505050565b6000601f19601f8301169050919050565b6000611c9082611c25565b611c9a8185611c30565b9350611caa818560208601611c41565b611cb381611c74565b840191505092915050565b60006020820190508181036000830152611cd88184611c85565b905092915050565b6000819050919050565b611cf381611ce0565b8114611cfe57600080fd5b50565b600081359050611d1081611cea565b92915050565b600060208284031215611d2c57611d2b611b60565b5b6000611d3a84828501611d01565b91505092915050565b600073ffffffffffffffffffffffffffffffffffffffff82169050919050565b6000611d6e82611d43565b9050919050565b611d7e81611d63565b82525050565b6000602082019050611d996000830184611d75565b92915050565b611da881611d63565b8114611db357600080fd5b50565b600081359050611dc581611d9f565b92915050565b60008060408385031215611de257611de1611b60565b5b6000611df085828601611db6565b9250506020611e0185828601611d01565b9150509250929050565b600080600060608486031215611e2457611e23611b60565b5b6000611e3286828701611db6565b9350506020611e4386828701611db6565b9250506040611e5486828701611d01565b9150509250925092565b600060208284031215611e7457611e73611b60565b5b6000611e8284828501611db6565b91505092915050565b611e9481611ce0565b82525050565b6000602082019050611eaf6000830184611e8b565b92915050565b611ebe81611bef565b8114611ec957600080fd5b50565b600081359050611edb81611eb5565b92915050565b60008060408385031215611ef857611ef7611b60565b5b6000611f0685828601611db6565b9250506020611f1785828601611ecc565b9150509250929050565b600080fd5b600080fd5b7f4e487b7100000000000000000000000000000000000000000000000000000000600052604160045260246000fd5b611f6382611c74565b810181811067ffffffffffffffff82111715611f8257611f81611f2b565b5b80604052505050565b6000611f95611b56565b9050611fa18282611f5a565b919050565b600067ffffffffffffffff821115611fc157611fc0611f2b565b5b611fca82611c74565b9050602081019050919050565b82818337600083830152505050565b6000611ff9611ff484611fa6565b611f8b565b90508281526020810184848401111561201557612014611f26565b5b612020848285611fd7565b509392505050565b600082601f83011261203d5761203c611f21565b5b813561204d848260208601611fe6565b91505092915050565b600080600080608085870312156120705761206f611b60565b5b600061207e87828801611db6565b945050602061208f87828801611db6565b93505060406120a087828801611d01565b925050606085013567ffffffffffffffff8111156120c1576120c0611b65565b5b6120cd87828801612028565b91505092959194509250565b600067ffffffffffffffff8211156120f4576120f3611f2b565b5b6120fd82611c74565b9050602081019050919050565b600061211d612118846120d9565b611f8b565b90508281526020810184848401111561213957612138611f26565b5b612144848285611fd7565b509392505050565b600082601f83011261216157612160611f21565b5b813561217184826020860161210a565b91505092915050565b6000602082840312156121905761218f611b60565b5b600082013567ffffffffffffffff8111156121ae576121ad611b65565b5b6121ba8482850161214c565b91505092915050565b600080604083850312156121da576121d9611b60565b5b60006121e885828601611db6565b92505060206121f985828601611db6565b9150509250929050565b7f4e487b7100000000000000000000000000000000000000000000000000000000600052602260045260246000fd5b6000600282049050600182168061224a57607f821691505b6020821081141561225e5761225d612203565b5b50919050565b7f4552433732313a20617070726f76656420717565727920666f72206e6f6e657860008201527f697374656e7420746f6b656e0000000000000000000000000000000000000000602082015250565b60006122c0602c83611c30565b91506122cb82612264565b604082019050919050565b600060208201905081810360008301526122ef816122b3565b9050919050565b7f4552433732313a20617070726f76616c20746f2063757272656e74206f776e6560008201527f7200000000000000000000000000000000000000000000000000000000000000602082015250565b6000612352602183611c30565b915061235d826122f6565b604082019050919050565b6000602082019050818103600083015261238181612345565b9050919050565b7f4552433732313a20617070726f76652063616c6c6572206973206e6f74206f7760008201527f6e6572206e6f7220617070726f76656420666f7220616c6c0000000000000000602082015250565b60006123e4603883611c30565b91506123ef82612388565b604082019050919050565b60006020820190508181036000830152612413816123d7565b9050919050565b7f4552433732313a207472616e736665722063616c6c6572206973206e6f74206f60008201527f776e6572206e6f7220617070726f766564000000000000000000000000000000602082015250565b6000612476603183611c30565b91506124818261241a565b604082019050919050565b600060208201905081810360008301526124a581612469565b9050919050565b7f4552433732313a206f776e657220717565727920666f72206e6f6e657869737460008201527f656e7420746f6b656e0000000000000000000000000000000000000000000000602082015250565b6000612508602983611c30565b9150612513826124ac565b604082019050919050565b60006020820190508181036000830152612537816124fb565b9050919050565b7f4552433732313a2062616c616e636520717565727920666f7220746865207a6560008201527f726f206164647265737300000000000000000000000000000000000000000000602082015250565b600061259a602a83611c30565b91506125a58261253e565b604082019050919050565b600060208201905081810360008301526125c98161258d565b9050919050565b7f4f776e61626c653a2063616c6c6572206973206e6f7420746865206f776e6572600082015250565b6000612606602083611c30565b9150612611826125d0565b602082019050919050565b60006020820190508181036000830152612635816125f9565b9050919050565b7f4552433732313a20617070726f766520746f2063616c6c657200000000000000600082015250565b6000612672601983611c30565b915061267d8261263c565b602082019050919050565b600060208201905081810360008301526126a181612665565b9050919050565b7f4552433732314d657461646174613a2055524920717565727920666f72206e6f60008201527f6e6578697374656e7420746f6b656e0000000000000000000000000000000000602082015250565b6000612704602f83611c30565b915061270f826126a8565b604082019050919050565b60006020820190508181036000830152612733816126f7565b9050919050565b600081905092915050565b600061275082611c25565b61275a818561273a565b935061276a818560208601611c41565b80840191505092915050565b60006127828285612745565b915061278e8284612745565b91508190509392505050565b60006127a68284612745565b915081905092915050565b7f4e487b7100000000000000000000000000000000000000000000000000000000600052601160045260246000fd5b60006127eb82611ce0565b91507fffffffffffffffffffffffffffffffffffffffffffffffffffffffffffffffff82141561281e5761281d6127b1565b5b600182019050919050565b7f4f776e61626c653a206e6577206f776e657220697320746865207a65726f206160008201527f6464726573730000000000000000000000000000000000000000000000000000602082015250565b6000612885602683611c30565b915061289082612829565b604082019050919050565b600060208201905081810360008301526128b481612878565b9050919050565b7f4552433732313a206f70657261746f7220717565727920666f72206e6f6e657860008201527f697374656e7420746f6b656e0000000000000000000000000000000000000000602082015250565b6000612917602c83611c30565b9150612922826128bb565b604082019050919050565b600060208201905081810360008301526129468161290a565b9050919050565b7f4552433732313a207472616e73666572206f6620746f6b656e2074686174206960008201527f73206e6f74206f776e0000000000000000000000000000000000000000000000602082015250565b60006129a9602983611c30565b91506129b48261294d565b604082019050919050565b600060208201905081810360008301526129d88161299c565b9050919050565b7f4552433732313a207472616e7366657220746f20746865207a65726f2061646460008201527f7265737300000000000000000000000000000000000000000000000000000000602082015250565b6000612a3b602483611c30565b9150612a46826129df565b604082019050919050565b60006020820190508181036000830152612a6a81612a2e565b9050919050565b6000612a7c82611ce0565b9150612a8783611ce0565b925082821015612a9a57612a996127b1565b5b828203905092915050565b6000612ab082611ce0565b9150612abb83611ce0565b9250827fffffffffffffffffffffffffffffffffffffffffffffffffffffffffffffffff03821115612af057612aef6127b1565b5b828201905092915050565b7f4552433732313a207472616e7366657220746f206e6f6e20455243373231526560008201527f63656976657220696d706c656d656e7465720000000000000000000000000000602082015250565b6000612b57603283611c30565b9150612b6282612afb565b604082019050919050565b60006020820190508181036000830152612b8681612b4a565b9050919050565b7f4e487b7100000000000000000000000000000000000000000000000000000000600052601260045260246000fd5b6000612bc782611ce0565b9150612bd283611ce0565b925082612be257612be1612b8d565b5b828204905092915050565b6000612bf882611ce0565b9150612c0383611ce0565b925082612c1357612c12612b8d565b5b828206905092915050565b7f4e487b7100000000000000000000000000000000000000000000000000000000600052603260045260246000fd5b7f4552433732313a206d696e7420746f20746865207a65726f2061646472657373600082015250565b6000612c83602083611c30565b9150612c8e82612c4d565b602082019050919050565b60006020820190508181036000830152612cb281612c76565b9050919050565b7f4552433732313a20746f6b656e20616c7265616479206d696e74656400000000600082015250565b6000612cef601c83611c30565b9150612cfa82612cb9565b602082019050919050565b60006020820190508181036000830152612d1e81612ce2565b9050919050565b600081519050919050565b600082825260208201905092915050565b6000612d4c82612d25565b612d568185612d30565b9350612d66818560208601611c41565b612d6f81611c74565b840191505092915050565b6000608082019050612d8f6000830187611d75565b612d9c6020830186611d75565b612da96040830185611e8b565b8181036060830152612dbb8184612d41565b905095945050505050565b600081519050612dd581611b96565b92915050565b600060208284031215612df157612df0611b60565b5b6000612dff84828501612dc6565b9150509291505056fea264697066735822122087314cb8be5a83c62fbf7593f39c5ffbd077563a6535979fe9234ba1ba9ea25d64736f6c634300080a0033",
  "immutableReferences": {},
  "source": "// SPDX-License-Identifier: MIT\npragma solidity >=0.4.22 <0.9.0;\n\nimport \"@openzeppelin/contracts/token/ERC721/ERC721.sol\";\nimport \"@openzeppelin/contracts/access/Ownable.sol\";\n\ncontract Nft is ERC721, Ownable {\n\n   string[] public colors;\n   mapping(string => bool) _colorExists;\n   uint counter = 0;\n   constructor() ERC721(\"Nft\", \"NFT\") {}\n\n  function mint(string memory _color) public {\n    require(!_colorExists[_color]);\n    uint _id = counter++;\n    colors.push(_color);\n    _mint(msg.sender, _id);\n    _colorExists[_color] = true;\n  }\n}",
  "sourcePath": "/Users/lenahierzi/Developer/consensys/blockchain-developer-bootcamp-final-project/contracts/Nft.sol",
  "compiler": {
    "name": "solc",
    "version": "0.8.10+commit.fc410830.Emscripten.clang"
  },
  "schemaVersion": "3.3.4",
  "updatedAt": "2021-11-10T23:14:45.848Z",
  "networkType": "ethereum",
  "devdoc": {
    "kind": "dev",
    "methods": {
      "approve(address,uint256)": {
        "details": "See {IERC721-approve}."
      },
      "balanceOf(address)": {
        "details": "See {IERC721-balanceOf}."
      },
      "getApproved(uint256)": {
        "details": "See {IERC721-getApproved}."
      },
      "isApprovedForAll(address,address)": {
        "details": "See {IERC721-isApprovedForAll}."
      },
      "name()": {
        "details": "See {IERC721Metadata-name}."
      },
      "owner()": {
        "details": "Returns the address of the current owner."
      },
      "ownerOf(uint256)": {
        "details": "See {IERC721-ownerOf}."
      },
      "renounceOwnership()": {
        "details": "Leaves the contract without owner. It will not be possible to call `onlyOwner` functions anymore. Can only be called by the current owner. NOTE: Renouncing ownership will leave the contract without an owner, thereby removing any functionality that is only available to the owner."
      },
      "safeTransferFrom(address,address,uint256)": {
        "details": "See {IERC721-safeTransferFrom}."
      },
      "safeTransferFrom(address,address,uint256,bytes)": {
        "details": "See {IERC721-safeTransferFrom}."
      },
      "setApprovalForAll(address,bool)": {
        "details": "See {IERC721-setApprovalForAll}."
      },
      "supportsInterface(bytes4)": {
        "details": "See {IERC165-supportsInterface}."
      },
      "symbol()": {
        "details": "See {IERC721Metadata-symbol}."
      },
      "tokenURI(uint256)": {
        "details": "See {IERC721Metadata-tokenURI}."
      },
      "transferFrom(address,address,uint256)": {
        "details": "See {IERC721-transferFrom}."
      },
      "transferOwnership(address)": {
        "details": "Transfers ownership of the contract to a new account (`newOwner`). Can only be called by the current owner."
      }
    },
    "version": 1
  },
  "userdoc": {
    "kind": "user",
    "methods": {},
    "version": 1
  }
}