{
  "contractName": "Nft",
  "abi": [
    {
      "anonymous": false,
      "inputs": [
        {
          "indexed": true,
          "internalType": "address",
          "name": "owner",
          "type": "address"
        },
        {
          "indexed": true,
          "internalType": "address",
          "name": "approved",
          "type": "address"
        },
        {
          "indexed": true,
          "internalType": "uint256",
          "name": "tokenId",
          "type": "uint256"
        }
      ],
      "name": "Approval",
      "type": "event"
    },
    {
      "anonymous": false,
      "inputs": [
        {
          "indexed": true,
          "internalType": "address",
          "name": "owner",
          "type": "address"
        },
        {
          "indexed": true,
          "internalType": "address",
          "name": "operator",
          "type": "address"
        },
        {
          "indexed": false,
          "internalType": "bool",
          "name": "approved",
          "type": "bool"
        }
      ],
      "name": "ApprovalForAll",
      "type": "event"
    },
    {
      "anonymous": false,
      "inputs": [
        {
          "indexed": true,
          "internalType": "address",
          "name": "previousOwner",
          "type": "address"
        },
        {
          "indexed": true,
          "internalType": "address",
          "name": "newOwner",
          "type": "address"
        }
      ],
      "name": "OwnershipTransferred",
      "type": "event"
    },
    {
      "anonymous": false,
      "inputs": [
        {
          "indexed": true,
          "internalType": "address",
          "name": "from",
          "type": "address"
        },
        {
          "indexed": true,
          "internalType": "address",
          "name": "to",
          "type": "address"
        },
        {
          "indexed": true,
          "internalType": "uint256",
          "name": "tokenId",
          "type": "uint256"
        }
      ],
      "name": "Transfer",
      "type": "event"
    },
    {
      "inputs": [],
      "name": "MAX_PER_MINT",
      "outputs": [
        {
          "internalType": "uint256",
          "name": "",
          "type": "uint256"
        }
      ],
      "stateMutability": "view",
      "type": "function",
      "constant": true
    },
    {
      "inputs": [],
      "name": "MAX_SUPPLY",
      "outputs": [
        {
          "internalType": "uint256",
          "name": "",
          "type": "uint256"
        }
      ],
      "stateMutability": "view",
      "type": "function",
      "constant": true
    },
    {
      "inputs": [
        {
          "internalType": "address",
          "name": "to",
          "type": "address"
        },
        {
          "internalType": "uint256",
          "name": "tokenId",
          "type": "uint256"
        }
      ],
      "name": "approve",
      "outputs": [],
      "stateMutability": "nonpayable",
      "type": "function"
    },
    {
      "inputs": [
        {
          "internalType": "address",
          "name": "owner",
          "type": "address"
        }
      ],
      "name": "balanceOf",
      "outputs": [
        {
          "internalType": "uint256",
          "name": "",
          "type": "uint256"
        }
      ],
      "stateMutability": "view",
      "type": "function",
      "constant": true
    },
    {
      "inputs": [
        {
          "internalType": "uint256",
          "name": "tokenId",
          "type": "uint256"
        }
      ],
      "name": "getApproved",
      "outputs": [
        {
          "internalType": "address",
          "name": "",
          "type": "address"
        }
      ],
      "stateMutability": "view",
      "type": "function",
      "constant": true
    },
    {
      "inputs": [
        {
          "internalType": "address",
          "name": "owner",
          "type": "address"
        },
        {
          "internalType": "address",
          "name": "operator",
          "type": "address"
        }
      ],
      "name": "isApprovedForAll",
      "outputs": [
        {
          "internalType": "bool",
          "name": "",
          "type": "bool"
        }
      ],
      "stateMutability": "view",
      "type": "function",
      "constant": true
    },
    {
      "inputs": [],
      "name": "name",
      "outputs": [
        {
          "internalType": "string",
          "name": "",
          "type": "string"
        }
      ],
      "stateMutability": "view",
      "type": "function",
      "constant": true
    },
    {
      "inputs": [],
      "name": "owner",
      "outputs": [
        {
          "internalType": "address",
          "name": "",
          "type": "address"
        }
      ],
      "stateMutability": "view",
      "type": "function",
      "constant": true
    },
    {
      "inputs": [
        {
          "internalType": "uint256",
          "name": "tokenId",
          "type": "uint256"
        }
      ],
      "name": "ownerOf",
      "outputs": [
        {
          "internalType": "address",
          "name": "",
          "type": "address"
        }
      ],
      "stateMutability": "view",
      "type": "function",
      "constant": true
    },
    {
      "inputs": [],
      "name": "renounceOwnership",
      "outputs": [],
      "stateMutability": "nonpayable",
      "type": "function"
    },
    {
      "inputs": [
        {
          "internalType": "address",
          "name": "from",
          "type": "address"
        },
        {
          "internalType": "address",
          "name": "to",
          "type": "address"
        },
        {
          "internalType": "uint256",
          "name": "tokenId",
          "type": "uint256"
        }
      ],
      "name": "safeTransferFrom",
      "outputs": [],
      "stateMutability": "nonpayable",
      "type": "function"
    },
    {
      "inputs": [
        {
          "internalType": "address",
          "name": "from",
          "type": "address"
        },
        {
          "internalType": "address",
          "name": "to",
          "type": "address"
        },
        {
          "internalType": "uint256",
          "name": "tokenId",
          "type": "uint256"
        },
        {
          "internalType": "bytes",
          "name": "_data",
          "type": "bytes"
        }
      ],
      "name": "safeTransferFrom",
      "outputs": [],
      "stateMutability": "nonpayable",
      "type": "function"
    },
    {
      "inputs": [
        {
          "internalType": "address",
          "name": "operator",
          "type": "address"
        },
        {
          "internalType": "bool",
          "name": "approved",
          "type": "bool"
        }
      ],
      "name": "setApprovalForAll",
      "outputs": [],
      "stateMutability": "nonpayable",
      "type": "function"
    },
    {
      "inputs": [],
      "name": "symbol",
      "outputs": [
        {
          "internalType": "string",
          "name": "",
          "type": "string"
        }
      ],
      "stateMutability": "view",
      "type": "function",
      "constant": true
    },
    {
      "inputs": [
        {
          "internalType": "uint256",
          "name": "index",
          "type": "uint256"
        }
      ],
      "name": "tokenByIndex",
      "outputs": [
        {
          "internalType": "uint256",
          "name": "",
          "type": "uint256"
        }
      ],
      "stateMutability": "view",
      "type": "function",
      "constant": true
    },
    {
      "inputs": [
        {
          "internalType": "address",
          "name": "owner",
          "type": "address"
        },
        {
          "internalType": "uint256",
          "name": "index",
          "type": "uint256"
        }
      ],
      "name": "tokenOfOwnerByIndex",
      "outputs": [
        {
          "internalType": "uint256",
          "name": "",
          "type": "uint256"
        }
      ],
      "stateMutability": "view",
      "type": "function",
      "constant": true
    },
    {
      "inputs": [],
      "name": "totalSupply",
      "outputs": [
        {
          "internalType": "uint256",
          "name": "",
          "type": "uint256"
        }
      ],
      "stateMutability": "view",
      "type": "function",
      "constant": true
    },
    {
      "inputs": [
        {
          "internalType": "address",
          "name": "from",
          "type": "address"
        },
        {
          "internalType": "address",
          "name": "to",
          "type": "address"
        },
        {
          "internalType": "uint256",
          "name": "tokenId",
          "type": "uint256"
        }
      ],
      "name": "transferFrom",
      "outputs": [],
      "stateMutability": "nonpayable",
      "type": "function"
    },
    {
      "inputs": [
        {
          "internalType": "address",
          "name": "newOwner",
          "type": "address"
        }
      ],
      "name": "transferOwnership",
      "outputs": [],
      "stateMutability": "nonpayable",
      "type": "function"
    },
    {
      "inputs": [
        {
          "internalType": "address",
          "name": "to",
          "type": "address"
        },
        {
          "internalType": "string",
          "name": "cid",
          "type": "string"
        }
      ],
      "name": "mint",
      "outputs": [
        {
          "internalType": "uint256",
          "name": "_id",
          "type": "uint256"
        }
      ],
      "stateMutability": "nonpayable",
      "type": "function"
    },
    {
      "inputs": [
        {
          "internalType": "address",
          "name": "to",
          "type": "address"
        },
        {
          "internalType": "address",
          "name": "partner",
          "type": "address"
        },
        {
          "internalType": "string",
          "name": "cid",
          "type": "string"
        }
      ],
      "name": "handshake",
      "outputs": [
        {
          "internalType": "uint256",
          "name": "_id",
          "type": "uint256"
        }
      ],
      "stateMutability": "nonpayable",
      "type": "function"
    },
    {
      "inputs": [
        {
          "internalType": "address",
          "name": "_owner",
          "type": "address"
        }
      ],
      "name": "tokensOfOwner",
      "outputs": [
        {
          "internalType": "uint256[]",
          "name": "",
          "type": "uint256[]"
        }
      ],
      "stateMutability": "view",
      "type": "function",
      "constant": true
    },
    {
      "inputs": [
        {
          "internalType": "uint256",
          "name": "tokenId",
          "type": "uint256"
        }
      ],
      "name": "tokenURI",
      "outputs": [
        {
          "internalType": "string",
          "name": "",
          "type": "string"
        }
      ],
      "stateMutability": "view",
      "type": "function",
      "constant": true
    },
    {
      "inputs": [
        {
          "internalType": "bytes4",
          "name": "interfaceId",
          "type": "bytes4"
        }
      ],
      "name": "supportsInterface",
      "outputs": [
        {
          "internalType": "bool",
          "name": "",
          "type": "bool"
        }
      ],
      "stateMutability": "view",
      "type": "function",
      "constant": true
    }
  ],
  "bytecode": "0x60806040523480156200001157600080fd5b506040518060400160405280600381526020017f4e667400000000000000000000000000000000000000000000000000000000008152506040518060400160405280600781526020017f4f63746f707573000000000000000000000000000000000000000000000000008152508181816000908051906020019062000098929190620001bc565b508060019080519060200190620000b1929190620001bc565b505050620000e6620000d1620000ee640100000000026401000000009004565b620000f6640100000000026401000000009004565b5050620002d1565b600033905090565b6000600660009054906101000a900473ffffffffffffffffffffffffffffffffffffffff16905081600660006101000a81548173ffffffffffffffffffffffffffffffffffffffff021916908373ffffffffffffffffffffffffffffffffffffffff1602179055508173ffffffffffffffffffffffffffffffffffffffff168173ffffffffffffffffffffffffffffffffffffffff167f8be0079c531659141344cd1fd0a4f28419497f9722a3daafe3b4186f6b6457e060405160405180910390a35050565b828054620001ca906200029b565b90600052602060002090601f016020900481019282620001ee57600085556200023a565b82601f106200020957805160ff19168380011785556200023a565b828001600101855582156200023a579182015b82811115620002395782518255916020019190600101906200021c565b5b5090506200024991906200024d565b5090565b5b80821115620002685760008160009055506001016200024e565b5090565b7f4e487b7100000000000000000000000000000000000000000000000000000000600052602260045260246000fd5b60006002820490506001821680620002b457607f821691505b60208210811415620002cb57620002ca6200026c565b5b50919050565b613ef180620002e16000396000f3fe608060405234801561001057600080fd5b5060043610610175576000357c01000000000000000000000000000000000000000000000000000000009004806370a08231116100e0578063b88d4fde11610099578063b88d4fde146103f8578063c0187c5f14610414578063c87b56dd14610444578063d0def52114610474578063e985e9c5146104a4578063f2fde38b146104d457610175565b806370a0823114610336578063715018a6146103665780638462151c146103705780638da5cb5b146103a057806395d89b41146103be578063a22cb465146103dc57610175565b806323b872dd1161013257806323b872dd146102505780632f745c591461026c57806332cb6b0c1461029c57806342842e0e146102ba5780634f6ccce7146102d65780636352211e1461030657610175565b806301ffc9a71461017a57806306fdde03146101aa578063081812fc146101c8578063095ea7b3146101f857806309d42b301461021457806318160ddd14610232575b600080fd5b610194600480360381019061018f9190612810565b6104f0565b6040516101a19190612858565b60405180910390f35b6101b2610502565b6040516101bf919061290c565b60405180910390f35b6101e260048036038101906101dd9190612964565b610594565b6040516101ef91906129d2565b60405180910390f35b610212600480360381019061020d9190612a19565b610619565b005b61021c610731565b6040516102299190612a68565b60405180910390f35b61023a610736565b6040516102479190612a68565b60405180910390f35b61026a60048036038101906102659190612a83565b610743565b005b61028660048036038101906102819190612a19565b6107a3565b6040516102939190612a68565b60405180910390f35b6102a4610848565b6040516102b19190612a68565b60405180910390f35b6102d460048036038101906102cf9190612a83565b61084e565b005b6102f060048036038101906102eb9190612964565b61086e565b6040516102fd9190612a68565b60405180910390f35b610320600480360381019061031b9190612964565b6108df565b60405161032d91906129d2565b60405180910390f35b610350600480360381019061034b9190612ad6565b610991565b60405161035d9190612a68565b60405180910390f35b61036e610a49565b005b61038a60048036038101906103859190612ad6565b610ad1565b6040516103979190612bc1565b60405180910390f35b6103a8610b7f565b6040516103b591906129d2565b60405180910390f35b6103c6610ba9565b6040516103d3919061290c565b60405180910390f35b6103f660048036038101906103f19190612c0f565b610c3b565b005b610412600480360381019061040d9190612d84565b610c51565b005b61042e60048036038101906104299190612ea8565b610cb3565b60405161043b9190612a68565b60405180910390f35b61045e60048036038101906104599190612964565b610f36565b60405161046b919061290c565b60405180910390f35b61048e60048036038101906104899190612f17565b610f48565b60405161049b9190612a68565b60405180910390f35b6104be60048036038101906104b99190612f73565b611158565b6040516104cb9190612858565b60405180910390f35b6104ee60048036038101906104e99190612ad6565b6111ec565b005b60006104fb826112e4565b9050919050565b60606000805461051190612fe2565b80601f016020809104026020016040519081016040528092919081815260200182805461053d90612fe2565b801561058a5780601f1061055f5761010080835404028352916020019161058a565b820191906000526020600020905b81548152906001019060200180831161056d57829003601f168201915b5050505050905090565b600061059f8261135e565b6105de576040517f08c379a00000000000000000000000000000000000000000000000000000000081526004016105d590613086565b60405180910390fd5b6004600083815260200190815260200160002060009054906101000a900473ffffffffffffffffffffffffffffffffffffffff169050919050565b6000610624826108df565b90508073ffffffffffffffffffffffffffffffffffffffff168373ffffffffffffffffffffffffffffffffffffffff161415610695576040517f08c379a000000000000000000000000000000000000000000000000000000000815260040161068c90613118565b60405180910390fd5b8073ffffffffffffffffffffffffffffffffffffffff166106b46113ca565b73ffffffffffffffffffffffffffffffffffffffff1614806106e357506106e2816106dd6113ca565b611158565b5b610722576040517f08c379a0000000000000000000000000000000000000000000000000000000008152600401610719906131aa565b60405180910390fd5b61072c83836113d2565b505050565b606481565b6000600980549050905090565b61075461074e6113ca565b8261148b565b610793576040517f08c379a000000000000000000000000000000000000000000000000000000000815260040161078a9061323c565b60405180910390fd5b61079e838383611569565b505050565b60006107ae83610991565b82106107ef576040517f08c379a00000000000000000000000000000000000000000000000000000000081526004016107e6906132ce565b60405180910390fd5b600760008473ffffffffffffffffffffffffffffffffffffffff1673ffffffffffffffffffffffffffffffffffffffff168152602001908152602001600020600083815260200190815260200160002054905092915050565b61c35081565b61086983838360405180602001604052806000815250610c51565b505050565b6000610878610736565b82106108b9576040517f08c379a00000000000000000000000000000000000000000000000000000000081526004016108b090613360565b60405180910390fd5b600982815481106108cd576108cc613380565b5b90600052602060002001549050919050565b6000806002600084815260200190815260200160002060009054906101000a900473ffffffffffffffffffffffffffffffffffffffff169050600073ffffffffffffffffffffffffffffffffffffffff168173ffffffffffffffffffffffffffffffffffffffff161415610988576040517f08c379a000000000000000000000000000000000000000000000000000000000815260040161097f90613421565b60405180910390fd5b80915050919050565b60008073ffffffffffffffffffffffffffffffffffffffff168273ffffffffffffffffffffffffffffffffffffffff161415610a02576040517f08c379a00000000000000000000000000000000000000000000000000000000081526004016109f9906134b3565b60405180910390fd5b600360008373ffffffffffffffffffffffffffffffffffffffff1673ffffffffffffffffffffffffffffffffffffffff168152602001908152602001600020549050919050565b610a516113ca565b73ffffffffffffffffffffffffffffffffffffffff16610a6f610b7f565b73ffffffffffffffffffffffffffffffffffffffff1614610ac5576040517f08c379a0000000000000000000000000000000000000000000000000000000008152600401610abc9061351f565b60405180910390fd5b610acf60006117c5565b565b60606000610ade83610991565b905060008167ffffffffffffffff811115610afc57610afb612c59565b5b604051908082528060200260200182016040528015610b2a5781602001602082028036833780820191505090505b50905060005b82811015610b7457610b4285826107a3565b828281518110610b5557610b54613380565b5b6020026020010181815250508080610b6c9061356e565b915050610b30565b508092505050919050565b6000600660009054906101000a900473ffffffffffffffffffffffffffffffffffffffff16905090565b606060018054610bb890612fe2565b80601f0160208091040260200160405190810160405280929190818152602001828054610be490612fe2565b8015610c315780601f10610c0657610100808354040283529160200191610c31565b820191906000526020600020905b815481529060010190602001808311610c1457829003601f168201915b5050505050905090565b610c4d610c466113ca565b838361188b565b5050565b610c62610c5c6113ca565b8361148b565b610ca1576040517f08c379a0000000000000000000000000000000000000000000000000000000008152600401610c989061323c565b60405180910390fd5b610cad848484846119f8565b50505050565b600081600e81604051610cc691906135f3565b908152602001604051809103902060009054906101000a900460ff1615610d22576040517f08c379a0000000000000000000000000000000000000000000000000000000008152600401610d1990613656565b60405180910390fd5b84600f60008273ffffffffffffffffffffffffffffffffffffffff1673ffffffffffffffffffffffffffffffffffffffff16815260200190815260200160002060009054906101000a900460ff16610daf576040517f08c379a0000000000000000000000000000000000000000000000000000000008152600401610da6906136c2565b60405180910390fd5b85858073ffffffffffffffffffffffffffffffffffffffff168273ffffffffffffffffffffffffffffffffffffffff161415610e20576040517f08c379a0000000000000000000000000000000000000000000000000000000008152600401610e179061372e565b60405180910390fd5b610e2a600d611a54565b9450610e368886611a62565b87600c600087815260200190815260200160002060006101000a81548173ffffffffffffffffffffffffffffffffffffffff021916908373ffffffffffffffffffffffffffffffffffffffff1602179055506001600e87604051610e9a91906135f3565b908152602001604051809103902060006101000a81548160ff0219169083151502179055506001600f60008a73ffffffffffffffffffffffffffffffffffffffff1673ffffffffffffffffffffffffffffffffffffffff16815260200190815260200160002060006101000a81548160ff021916908315150217905550610f218587611c30565b610f2b600d611c5c565b505050509392505050565b6060610f4182611c72565b9050919050565b600081600e81604051610f5b91906135f3565b908152602001604051809103902060009054906101000a900460ff1615610fb7576040517f08c379a0000000000000000000000000000000000000000000000000000000008152600401610fae90613656565b60405180910390fd5b83600f60008273ffffffffffffffffffffffffffffffffffffffff1673ffffffffffffffffffffffffffffffffffffffff16815260200190815260200160002060009054906101000a900460ff1615611045576040517f08c379a000000000000000000000000000000000000000000000000000000000815260040161103c9061379a565b60405180910390fd5b61104f600d611a54565b925061105b8584611a62565b84600c600085815260200190815260200160002060006101000a81548173ffffffffffffffffffffffffffffffffffffffff021916908373ffffffffffffffffffffffffffffffffffffffff1602179055506001600e856040516110bf91906135f3565b908152602001604051809103902060006101000a81548160ff0219169083151502179055506001600f60008773ffffffffffffffffffffffffffffffffffffffff1673ffffffffffffffffffffffffffffffffffffffff16815260200190815260200160002060006101000a81548160ff0219169083151502179055506111468385611c30565b611150600d611c5c565b505092915050565b6000600560008473ffffffffffffffffffffffffffffffffffffffff1673ffffffffffffffffffffffffffffffffffffffff16815260200190815260200160002060008373ffffffffffffffffffffffffffffffffffffffff1673ffffffffffffffffffffffffffffffffffffffff16815260200190815260200160002060009054906101000a900460ff16905092915050565b6111f46113ca565b73ffffffffffffffffffffffffffffffffffffffff16611212610b7f565b73ffffffffffffffffffffffffffffffffffffffff1614611268576040517f08c379a000000000000000000000000000000000000000000000000000000000815260040161125f9061351f565b60405180910390fd5b600073ffffffffffffffffffffffffffffffffffffffff168173ffffffffffffffffffffffffffffffffffffffff1614156112d8576040517f08c379a00000000000000000000000000000000000000000000000000000000081526004016112cf9061382c565b60405180910390fd5b6112e1816117c5565b50565b60007f780e9d63000000000000000000000000000000000000000000000000000000007bffffffffffffffffffffffffffffffffffffffffffffffffffffffff1916827bffffffffffffffffffffffffffffffffffffffffffffffffffffffff19161480611357575061135682611de7565b5b9050919050565b60008073ffffffffffffffffffffffffffffffffffffffff166002600084815260200190815260200160002060009054906101000a900473ffffffffffffffffffffffffffffffffffffffff1673ffffffffffffffffffffffffffffffffffffffff1614159050919050565b600033905090565b816004600083815260200190815260200160002060006101000a81548173ffffffffffffffffffffffffffffffffffffffff021916908373ffffffffffffffffffffffffffffffffffffffff160217905550808273ffffffffffffffffffffffffffffffffffffffff16611445836108df565b73ffffffffffffffffffffffffffffffffffffffff167f8c5be1e5ebec7d5bd14f71427d1e84f3dd0314c0f7b2291e5b200ac8c7c3b92560405160405180910390a45050565b60006114968261135e565b6114d5576040517f08c379a00000000000000000000000000000000000000000000000000000000081526004016114cc906138be565b60405180910390fd5b60006114e0836108df565b90508073ffffffffffffffffffffffffffffffffffffffff168473ffffffffffffffffffffffffffffffffffffffff16148061154f57508373ffffffffffffffffffffffffffffffffffffffff1661153784610594565b73ffffffffffffffffffffffffffffffffffffffff16145b80611560575061155f8185611158565b5b91505092915050565b8273ffffffffffffffffffffffffffffffffffffffff16611589826108df565b73ffffffffffffffffffffffffffffffffffffffff16146115df576040517f08c379a00000000000000000000000000000000000000000000000000000000081526004016115d690613950565b60405180910390fd5b600073ffffffffffffffffffffffffffffffffffffffff168273ffffffffffffffffffffffffffffffffffffffff16141561164f576040517f08c379a0000000000000000000000000000000000000000000000000000000008152600401611646906139e2565b60405180910390fd5b61165a838383611ec9565b6116656000826113d2565b6001600360008573ffffffffffffffffffffffffffffffffffffffff1673ffffffffffffffffffffffffffffffffffffffff16815260200190815260200160002060008282546116b59190613a02565b925050819055506001600360008473ffffffffffffffffffffffffffffffffffffffff1673ffffffffffffffffffffffffffffffffffffffff168152602001908152602001600020600082825461170c9190613a36565b92505081905550816002600083815260200190815260200160002060006101000a81548173ffffffffffffffffffffffffffffffffffffffff021916908373ffffffffffffffffffffffffffffffffffffffff160217905550808273ffffffffffffffffffffffffffffffffffffffff168473ffffffffffffffffffffffffffffffffffffffff167fddf252ad1be2c89b69c2b068fc378daa952ba7f163c4a11628f55a4df523b3ef60405160405180910390a4505050565b6000600660009054906101000a900473ffffffffffffffffffffffffffffffffffffffff16905081600660006101000a81548173ffffffffffffffffffffffffffffffffffffffff021916908373ffffffffffffffffffffffffffffffffffffffff1602179055508173ffffffffffffffffffffffffffffffffffffffff168173ffffffffffffffffffffffffffffffffffffffff167f8be0079c531659141344cd1fd0a4f28419497f9722a3daafe3b4186f6b6457e060405160405180910390a35050565b8173ffffffffffffffffffffffffffffffffffffffff168373ffffffffffffffffffffffffffffffffffffffff1614156118fa576040517f08c379a00000000000000000000000000000000000000000000000000000000081526004016118f190613ad8565b60405180910390fd5b80600560008573ffffffffffffffffffffffffffffffffffffffff1673ffffffffffffffffffffffffffffffffffffffff16815260200190815260200160002060008473ffffffffffffffffffffffffffffffffffffffff1673ffffffffffffffffffffffffffffffffffffffff16815260200190815260200160002060006101000a81548160ff0219169083151502179055508173ffffffffffffffffffffffffffffffffffffffff168373ffffffffffffffffffffffffffffffffffffffff167f17307eab39ab6107e8899845ad3d59bd9653f200f220920489ca2b5937696c31836040516119eb9190612858565b60405180910390a3505050565b611a03848484611569565b611a0f84848484611ed9565b611a4e576040517f08c379a0000000000000000000000000000000000000000000000000000000008152600401611a4590613b6a565b60405180910390fd5b50505050565b600081600001549050919050565b600073ffffffffffffffffffffffffffffffffffffffff168273ffffffffffffffffffffffffffffffffffffffff161415611ad2576040517f08c379a0000000000000000000000000000000000000000000000000000000008152600401611ac990613bd6565b60405180910390fd5b611adb8161135e565b15611b1b576040517f08c379a0000000000000000000000000000000000000000000000000000000008152600401611b1290613c42565b60405180910390fd5b611b2760008383611ec9565b6001600360008473ffffffffffffffffffffffffffffffffffffffff1673ffffffffffffffffffffffffffffffffffffffff1681526020019081526020016000206000828254611b779190613a36565b92505081905550816002600083815260200190815260200160002060006101000a81548173ffffffffffffffffffffffffffffffffffffffff021916908373ffffffffffffffffffffffffffffffffffffffff160217905550808273ffffffffffffffffffffffffffffffffffffffff16600073ffffffffffffffffffffffffffffffffffffffff167fddf252ad1be2c89b69c2b068fc378daa952ba7f163c4a11628f55a4df523b3ef60405160405180910390a45050565b80600b60008481526020019081526020016000209080519060200190611c57929190612701565b505050565b6001816000016000828254019250508190555050565b606081611c7e8161135e565b611cbd576040517f08c379a0000000000000000000000000000000000000000000000000000000008152600401611cb490613cd4565b60405180910390fd5b6000600b60008581526020019081526020016000208054611cdd90612fe2565b80601f0160208091040260200160405190810160405280929190818152602001828054611d0990612fe2565b8015611d565780601f10611d2b57610100808354040283529160200191611d56565b820191906000526020600020905b815481529060010190602001808311611d3957829003601f168201915b505050505090506000611d67612099565b9050600081511415611d7d578193505050611de1565b600082511115611db2578082604051602001611d9a929190613cf4565b60405160208183030381529060405293505050611de1565b80611dbc866120a8565b604051602001611dcd929190613cf4565b604051602081830303815290604052935050505b50919050565b60007f80ac58cd000000000000000000000000000000000000000000000000000000007bffffffffffffffffffffffffffffffffffffffffffffffffffffffff1916827bffffffffffffffffffffffffffffffffffffffffffffffffffffffff19161480611eb257507f5b5e139f000000000000000000000000000000000000000000000000000000007bffffffffffffffffffffffffffffffffffffffffffffffffffffffff1916827bffffffffffffffffffffffffffffffffffffffffffffffffffffffff1916145b80611ec25750611ec182612228565b5b9050919050565b611ed4838383612292565b505050565b6000611efa8473ffffffffffffffffffffffffffffffffffffffff166123a6565b1561208c578373ffffffffffffffffffffffffffffffffffffffff1663150b7a02611f236113ca565b8786866040518563ffffffff167c0100000000000000000000000000000000000000000000000000000000028152600401611f619493929190613d6d565b6020604051808303816000875af1925050508015611f9d57506040513d601f19601f82011682018060405250810190611f9a9190613dce565b60015b612020573d8060008114611fcd576040519150601f19603f3d011682016040523d82523d6000602084013e611fd2565b606091505b50600081511415612018576040517f08c379a000000000000000000000000000000000000000000000000000000000815260040161200f90613b6a565b60405180910390fd5b805181602001fd5b63150b7a027c0100000000000000000000000000000000000000000000000000000000027bffffffffffffffffffffffffffffffffffffffffffffffffffffffff1916817bffffffffffffffffffffffffffffffffffffffffffffffffffffffff191614915050612091565b600190505b949350505050565b60606120a36123b9565b905090565b606060008214156120f0576040518060400160405280600181526020017f30000000000000000000000000000000000000000000000000000000000000008152509050612223565b600082905060005b6000821461212257808061210b9061356e565b915050600a8261211b9190613e2a565b91506120f8565b60008167ffffffffffffffff81111561213e5761213d612c59565b5b6040519080825280601f01601f1916602001820160405280156121705781602001600182028036833780820191505090505b5090505b6000851461221c576001826121899190613a02565b9150600a856121989190613e5b565b60306121a49190613a36565b7f0100000000000000000000000000000000000000000000000000000000000000028183815181106121d9576121d8613380565b5b60200101907effffffffffffffffffffffffffffffffffffffffffffffffffffffffffffff1916908160001a905350600a856122159190613e2a565b9450612174565b8093505050505b919050565b60007f01ffc9a7000000000000000000000000000000000000000000000000000000007bffffffffffffffffffffffffffffffffffffffffffffffffffffffff1916827bffffffffffffffffffffffffffffffffffffffffffffffffffffffff1916149050919050565b61229d8383836123f6565b600073ffffffffffffffffffffffffffffffffffffffff168373ffffffffffffffffffffffffffffffffffffffff1614156122e0576122db816123fb565b61231f565b8173ffffffffffffffffffffffffffffffffffffffff168373ffffffffffffffffffffffffffffffffffffffff161461231e5761231d8382612444565b5b5b600073ffffffffffffffffffffffffffffffffffffffff168273ffffffffffffffffffffffffffffffffffffffff1614156123625761235d816125b1565b6123a1565b8273ffffffffffffffffffffffffffffffffffffffff168273ffffffffffffffffffffffffffffffffffffffff16146123a05761239f8282612682565b5b5b505050565b600080823b905060008111915050919050565b60606040518060400160405280601581526020017f68747470733a2f2f697066732e696f2f697066732f0000000000000000000000815250905090565b505050565b600980549050600a600083815260200190815260200160002081905550600981908060018154018082558091505060019003906000526020600020016000909190919091505550565b6000600161245184610991565b61245b9190613a02565b9050600060086000848152602001908152602001600020549050818114612540576000600760008673ffffffffffffffffffffffffffffffffffffffff1673ffffffffffffffffffffffffffffffffffffffff168152602001908152602001600020600084815260200190815260200160002054905080600760008773ffffffffffffffffffffffffffffffffffffffff1673ffffffffffffffffffffffffffffffffffffffff168152602001908152602001600020600084815260200190815260200160002081905550816008600083815260200190815260200160002081905550505b6008600084815260200190815260200160002060009055600760008573ffffffffffffffffffffffffffffffffffffffff1673ffffffffffffffffffffffffffffffffffffffff16815260200190815260200160002060008381526020019081526020016000206000905550505050565b600060016009805490506125c59190613a02565b90506000600a60008481526020019081526020016000205490506000600983815481106125f5576125f4613380565b5b90600052602060002001549050806009838154811061261757612616613380565b5b906000526020600020018190555081600a600083815260200190815260200160002081905550600a600085815260200190815260200160002060009055600980548061266657612665613e8c565b5b6001900381819060005260206000200160009055905550505050565b600061268d83610991565b905081600760008573ffffffffffffffffffffffffffffffffffffffff1673ffffffffffffffffffffffffffffffffffffffff168152602001908152602001600020600083815260200190815260200160002081905550806008600084815260200190815260200160002081905550505050565b82805461270d90612fe2565b90600052602060002090601f01602090048101928261272f5760008555612776565b82601f1061274857805160ff1916838001178555612776565b82800160010185558215612776579182015b8281111561277557825182559160200191906001019061275a565b5b5090506127839190612787565b5090565b5b808211156127a0576000816000905550600101612788565b5090565b6000604051905090565b600080fd5b600080fd5b60007fffffffff0000000000000000000000000000000000000000000000000000000082169050919050565b6127ed816127b8565b81146127f857600080fd5b50565b60008135905061280a816127e4565b92915050565b600060208284031215612826576128256127ae565b5b6000612834848285016127fb565b91505092915050565b60008115159050919050565b6128528161283d565b82525050565b600060208201905061286d6000830184612849565b92915050565b600081519050919050565b600082825260208201905092915050565b60005b838110156128ad578082015181840152602081019050612892565b838111156128bc576000848401525b50505050565b6000601f19601f8301169050919050565b60006128de82612873565b6128e8818561287e565b93506128f881856020860161288f565b612901816128c2565b840191505092915050565b6000602082019050818103600083015261292681846128d3565b905092915050565b6000819050919050565b6129418161292e565b811461294c57600080fd5b50565b60008135905061295e81612938565b92915050565b60006020828403121561297a576129796127ae565b5b60006129888482850161294f565b91505092915050565b600073ffffffffffffffffffffffffffffffffffffffff82169050919050565b60006129bc82612991565b9050919050565b6129cc816129b1565b82525050565b60006020820190506129e760008301846129c3565b92915050565b6129f6816129b1565b8114612a0157600080fd5b50565b600081359050612a13816129ed565b92915050565b60008060408385031215612a3057612a2f6127ae565b5b6000612a3e85828601612a04565b9250506020612a4f8582860161294f565b9150509250929050565b612a628161292e565b82525050565b6000602082019050612a7d6000830184612a59565b92915050565b600080600060608486031215612a9c57612a9b6127ae565b5b6000612aaa86828701612a04565b9350506020612abb86828701612a04565b9250506040612acc8682870161294f565b9150509250925092565b600060208284031215612aec57612aeb6127ae565b5b6000612afa84828501612a04565b91505092915050565b600081519050919050565b600082825260208201905092915050565b6000819050602082019050919050565b612b388161292e565b82525050565b6000612b4a8383612b2f565b60208301905092915050565b6000602082019050919050565b6000612b6e82612b03565b612b788185612b0e565b9350612b8383612b1f565b8060005b83811015612bb4578151612b9b8882612b3e565b9750612ba683612b56565b925050600181019050612b87565b5085935050505092915050565b60006020820190508181036000830152612bdb8184612b63565b905092915050565b612bec8161283d565b8114612bf757600080fd5b50565b600081359050612c0981612be3565b92915050565b60008060408385031215612c2657612c256127ae565b5b6000612c3485828601612a04565b9250506020612c4585828601612bfa565b9150509250929050565b600080fd5b600080fd5b7f4e487b7100000000000000000000000000000000000000000000000000000000600052604160045260246000fd5b612c91826128c2565b810181811067ffffffffffffffff82111715612cb057612caf612c59565b5b80604052505050565b6000612cc36127a4565b9050612ccf8282612c88565b919050565b600067ffffffffffffffff821115612cef57612cee612c59565b5b612cf8826128c2565b9050602081019050919050565b82818337600083830152505050565b6000612d27612d2284612cd4565b612cb9565b905082815260208101848484011115612d4357612d42612c54565b5b612d4e848285612d05565b509392505050565b600082601f830112612d6b57612d6a612c4f565b5b8135612d7b848260208601612d14565b91505092915050565b60008060008060808587031215612d9e57612d9d6127ae565b5b6000612dac87828801612a04565b9450506020612dbd87828801612a04565b9350506040612dce8782880161294f565b925050606085013567ffffffffffffffff811115612def57612dee6127b3565b5b612dfb87828801612d56565b91505092959194509250565b600067ffffffffffffffff821115612e2257612e21612c59565b5b612e2b826128c2565b9050602081019050919050565b6000612e4b612e4684612e07565b612cb9565b905082815260208101848484011115612e6757612e66612c54565b5b612e72848285612d05565b509392505050565b600082601f830112612e8f57612e8e612c4f565b5b8135612e9f848260208601612e38565b91505092915050565b600080600060608486031215612ec157612ec06127ae565b5b6000612ecf86828701612a04565b9350506020612ee086828701612a04565b925050604084013567ffffffffffffffff811115612f0157612f006127b3565b5b612f0d86828701612e7a565b9150509250925092565b60008060408385031215612f2e57612f2d6127ae565b5b6000612f3c85828601612a04565b925050602083013567ffffffffffffffff811115612f5d57612f5c6127b3565b5b612f6985828601612e7a565b9150509250929050565b60008060408385031215612f8a57612f896127ae565b5b6000612f9885828601612a04565b9250506020612fa985828601612a04565b9150509250929050565b7f4e487b7100000000000000000000000000000000000000000000000000000000600052602260045260246000fd5b60006002820490506001821680612ffa57607f821691505b6020821081141561300e5761300d612fb3565b5b50919050565b7f4552433732313a20617070726f76656420717565727920666f72206e6f6e657860008201527f697374656e7420746f6b656e0000000000000000000000000000000000000000602082015250565b6000613070602c8361287e565b915061307b82613014565b604082019050919050565b6000602082019050818103600083015261309f81613063565b9050919050565b7f4552433732313a20617070726f76616c20746f2063757272656e74206f776e6560008201527f7200000000000000000000000000000000000000000000000000000000000000602082015250565b600061310260218361287e565b915061310d826130a6565b604082019050919050565b60006020820190508181036000830152613131816130f5565b9050919050565b7f4552433732313a20617070726f76652063616c6c6572206973206e6f74206f7760008201527f6e6572206e6f7220617070726f76656420666f7220616c6c0000000000000000602082015250565b600061319460388361287e565b915061319f82613138565b604082019050919050565b600060208201905081810360008301526131c381613187565b9050919050565b7f4552433732313a207472616e736665722063616c6c6572206973206e6f74206f60008201527f776e6572206e6f7220617070726f766564000000000000000000000000000000602082015250565b600061322660318361287e565b9150613231826131ca565b604082019050919050565b6000602082019050818103600083015261325581613219565b9050919050565b7f455243373231456e756d657261626c653a206f776e657220696e646578206f7560008201527f74206f6620626f756e6473000000000000000000000000000000000000000000602082015250565b60006132b8602b8361287e565b91506132c38261325c565b604082019050919050565b600060208201905081810360008301526132e7816132ab565b9050919050565b7f455243373231456e756d657261626c653a20676c6f62616c20696e646578206f60008201527f7574206f6620626f756e64730000000000000000000000000000000000000000602082015250565b600061334a602c8361287e565b9150613355826132ee565b604082019050919050565b600060208201905081810360008301526133798161333d565b9050919050565b7f4e487b7100000000000000000000000000000000000000000000000000000000600052603260045260246000fd5b7f4552433732313a206f776e657220717565727920666f72206e6f6e657869737460008201527f656e7420746f6b656e0000000000000000000000000000000000000000000000602082015250565b600061340b60298361287e565b9150613416826133af565b604082019050919050565b6000602082019050818103600083015261343a816133fe565b9050919050565b7f4552433732313a2062616c616e636520717565727920666f7220746865207a6560008201527f726f206164647265737300000000000000000000000000000000000000000000602082015250565b600061349d602a8361287e565b91506134a882613441565b604082019050919050565b600060208201905081810360008301526134cc81613490565b9050919050565b7f4f776e61626c653a2063616c6c6572206973206e6f7420746865206f776e6572600082015250565b600061350960208361287e565b9150613514826134d3565b602082019050919050565b60006020820190508181036000830152613538816134fc565b9050919050565b7f4e487b7100000000000000000000000000000000000000000000000000000000600052601160045260246000fd5b60006135798261292e565b91507fffffffffffffffffffffffffffffffffffffffffffffffffffffffffffffffff8214156135ac576135ab61353f565b5b600182019050919050565b600081905092915050565b60006135cd82612873565b6135d781856135b7565b93506135e781856020860161288f565b80840191505092915050565b60006135ff82846135c2565b915081905092915050565b7f4f626a65637420616c7265616479206578697374730000000000000000000000600082015250565b600061364060158361287e565b915061364b8261360a565b602082019050919050565b6000602082019050818103600083015261366f81613633565b9050919050565b7f5573657220646f65736e27742065786973747300000000000000000000000000600082015250565b60006136ac60138361287e565b91506136b782613676565b602082019050919050565b600060208201905081810360008301526136db8161369f565b9050919050565b7f416464726573732073616d65206173206d6573736167652073656e6465720000600082015250565b6000613718601e8361287e565b9150613723826136e2565b602082019050919050565b600060208201905081810360008301526137478161370b565b9050919050565b7f5573657220616c72656164792020657869737473000000000000000000000000600082015250565b600061378460148361287e565b915061378f8261374e565b602082019050919050565b600060208201905081810360008301526137b381613777565b9050919050565b7f4f776e61626c653a206e6577206f776e657220697320746865207a65726f206160008201527f6464726573730000000000000000000000000000000000000000000000000000602082015250565b600061381660268361287e565b9150613821826137ba565b604082019050919050565b6000602082019050818103600083015261384581613809565b9050919050565b7f4552433732313a206f70657261746f7220717565727920666f72206e6f6e657860008201527f697374656e7420746f6b656e0000000000000000000000000000000000000000602082015250565b60006138a8602c8361287e565b91506138b38261384c565b604082019050919050565b600060208201905081810360008301526138d78161389b565b9050919050565b7f4552433732313a207472616e73666572206f6620746f6b656e2074686174206960008201527f73206e6f74206f776e0000000000000000000000000000000000000000000000602082015250565b600061393a60298361287e565b9150613945826138de565b604082019050919050565b600060208201905081810360008301526139698161392d565b9050919050565b7f4552433732313a207472616e7366657220746f20746865207a65726f2061646460008201527f7265737300000000000000000000000000000000000000000000000000000000602082015250565b60006139cc60248361287e565b91506139d782613970565b604082019050919050565b600060208201905081810360008301526139fb816139bf565b9050919050565b6000613a0d8261292e565b9150613a188361292e565b925082821015613a2b57613a2a61353f565b5b828203905092915050565b6000613a418261292e565b9150613a4c8361292e565b9250827fffffffffffffffffffffffffffffffffffffffffffffffffffffffffffffffff03821115613a8157613a8061353f565b5b828201905092915050565b7f4552433732313a20617070726f766520746f2063616c6c657200000000000000600082015250565b6000613ac260198361287e565b9150613acd82613a8c565b602082019050919050565b60006020820190508181036000830152613af181613ab5565b9050919050565b7f4552433732313a207472616e7366657220746f206e6f6e20455243373231526560008201527f63656976657220696d706c656d656e7465720000000000000000000000000000602082015250565b6000613b5460328361287e565b9150613b5f82613af8565b604082019050919050565b60006020820190508181036000830152613b8381613b47565b9050919050565b7f4552433732313a206d696e7420746f20746865207a65726f2061646472657373600082015250565b6000613bc060208361287e565b9150613bcb82613b8a565b602082019050919050565b60006020820190508181036000830152613bef81613bb3565b9050919050565b7f4552433732313a20746f6b656e20616c7265616479206d696e74656400000000600082015250565b6000613c2c601c8361287e565b9150613c3782613bf6565b602082019050919050565b60006020820190508181036000830152613c5b81613c1f565b9050919050565b7f4552433732314d657461646174613a2055524920717565727920666f72206e6f60008201527f6e6578697374656e7420746f6b656e0000000000000000000000000000000000602082015250565b6000613cbe602f8361287e565b9150613cc982613c62565b604082019050919050565b60006020820190508181036000830152613ced81613cb1565b9050919050565b6000613d0082856135c2565b9150613d0c82846135c2565b91508190509392505050565b600081519050919050565b600082825260208201905092915050565b6000613d3f82613d18565b613d498185613d23565b9350613d5981856020860161288f565b613d62816128c2565b840191505092915050565b6000608082019050613d8260008301876129c3565b613d8f60208301866129c3565b613d9c6040830185612a59565b8181036060830152613dae8184613d34565b905095945050505050565b600081519050613dc8816127e4565b92915050565b600060208284031215613de457613de36127ae565b5b6000613df284828501613db9565b91505092915050565b7f4e487b7100000000000000000000000000000000000000000000000000000000600052601260045260246000fd5b6000613e358261292e565b9150613e408361292e565b925082613e5057613e4f613dfb565b5b828204905092915050565b6000613e668261292e565b9150613e718361292e565b925082613e8157613e80613dfb565b5b828206905092915050565b7f4e487b7100000000000000000000000000000000000000000000000000000000600052603160045260246000fdfea26469706673582212209aa560999a5368a5a1f3326e4c81e0571d897c29b21beee0f500af68453bf78164736f6c634300080a0033",
  "immutableReferences": {},
  "source": "// SPDX-License-Identifier: MIT\npragma solidity 0.8.10;\n/// @title An NFT game for newcomer to the blockchain world. Can be used complementary to Bootcamps to get used to MetaMask and Dapps.\n/// @author Lena Hierzi\n/// @notice This contract is not aiming for security as it is designed for a playful entry into Dapps and only to be deployed on testnet.\n/// @custom:experimental This is an experimental contract.\n\nimport \"@openzeppelin/contracts/token/ERC721/ERC721.sol\";\nimport \"@openzeppelin/contracts/access/Ownable.sol\";\nimport \"@openzeppelin/contracts/utils/math/SafeMath.sol\";\nimport \"@openzeppelin/contracts/utils/Counters.sol\";\nimport \"@openzeppelin/contracts/token/ERC721/extensions/ERC721Enumerable.sol\";\nimport \"./BaseContract.sol\";\n\ncontract Nft is\n    ERC721,\n    Ownable,\n    ERC721Enumerable,\n    BaseContract(\"Nft\", \"Octopus\")\n{\n    using SafeMath for uint256;\n    using Strings for uint256;\n    using Counters for Counters.Counter;\n    uint256 public constant MAX_SUPPLY = 50000;\n    // uint256 public constant PRICE = 0.0001 ether;\n    uint256 public constant MAX_PER_MINT = 100;\n    mapping(uint256 => address) tokensToOwner;\n\n    Counters.Counter private _tokenIds;\n    mapping(string => bool) _tokenExists;\n    mapping(address => bool) _userExists;\n\n    /*\n     * Modifiers\n     */\n    modifier tokenUnique(string memory token) {\n        require(!_tokenExists[token], \"Object already exists\");\n        _;\n    }\n    modifier userDoesntExists(address user) {\n        require(!_userExists[user], \"User already  exists\");\n        _;\n    }\n    modifier userExists(address user) {\n        require(_userExists[user], \"User doesn't exists\");\n        _;\n    }\n    modifier addressNotSender(address user1, address user2) {\n        require(user1 != user2, \"Address same as message sender\");\n        _;\n    }\n\n    /// @notice  Token is minted. Can only be called once by every user.\n    /// @param to The address, the Token should be transfered to\n    /// @param cid The CID of the Tokens metadata\n    /// @return _id\n    function mint(address to, string memory cid)\n        public\n        tokenUnique(cid)\n        userDoesntExists(to)\n        returns (uint256 _id)\n    {\n        _id = _tokenIds.current();\n        _mint(to, _id);\n        tokensToOwner[_id] = to;\n        _tokenExists[cid] = true;\n        _userExists[to] = true;\n        _setTokenURI(_id, cid);\n        _tokenIds.increment();\n\n        return _id;\n    }\n\n    /// @notice  Token is minted. the color of the NFT is calculated in the FE.\n    /// @dev TODO add color so you can check that user don't handshake twice\n    /// @param to The address, the Token should be transfered to\n    /// @param partner The address of the person the user interacted with\n    /// @param cid The CID of the Tokens metadata\n    /// @return _id\n    function handshake(\n        address to,\n        address partner,\n        string memory cid\n    )\n        public\n        tokenUnique(cid)\n        userExists(to)\n        addressNotSender(to, partner)\n        returns (uint256 _id)\n    {\n        _id = _tokenIds.current();\n        _mint(to, _id);\n        tokensToOwner[_id] = to;\n        _tokenExists[cid] = true;\n        _userExists[to] = true;\n        _setTokenURI(_id, cid);\n        _tokenIds.increment();\n\n        return _id;\n    }\n\n    /// @notice Returns the ids of tokens of one owner\n    /// @param _owner The person that wants to know which tokens belong to them\n    /// @return userTokens  all ids of tokens belonging to one owner\n    function tokensOfOwner(address _owner)\n        public\n        view\n        returns (uint256[] memory)\n    {\n        uint256 tokenCount = balanceOf(_owner);\n        uint256[] memory tokenIds = new uint256[](tokenCount);\n        // string[] memory userTokens = new string[](tokenCount);\n\n        for (uint256 i = 0; i < tokenCount; i++) {\n            tokenIds[i] = tokenOfOwnerByIndex(_owner, i);\n            // if(tokensId[i]  == i){\n            //    userTokens[i] = tokensList[i];\n            // }\n        }\n        return tokenIds;\n    }\n\n    // The following functions are overrides for the BaseContract.\n\n    function _baseURI()\n        internal\n        view\n        virtual\n        override(BaseContract, ERC721)\n        returns (string memory)\n    {\n        return super._baseURI();\n    }\n\n    function tokenURI(uint256 tokenId)\n        public\n        view\n        virtual\n        override(BaseContract, ERC721)\n        returns (string memory)\n    {\n        return super.tokenURI(tokenId);\n    }\n\n    // The following functions are overrides for ERC721Enumerable required by Solidity.\n    function _beforeTokenTransfer(\n        address from,\n        address to,\n        uint256 tokenId\n    ) internal override(ERC721, ERC721Enumerable) {\n        super._beforeTokenTransfer(from, to, tokenId);\n    }\n\n    function supportsInterface(bytes4 interfaceId)\n        public\n        view\n        override(ERC721, ERC721Enumerable)\n        returns (bool)\n    {\n        return super.supportsInterface(interfaceId);\n    }\n}\n",
  "sourcePath": "/Users/lenahierzi/Developer/consensys/blockchain-developer-bootcamp-final-project/contracts/NFT.sol",
  "compiler": {
    "name": "solc",
    "version": "0.8.10+commit.fc410830.Emscripten.clang"
  },
  "schemaVersion": "3.4.3",
  "updatedAt": "2022-01-09T12:17:42.517Z",
  "networkType": "ethereum",
  "devdoc": {
    "kind": "dev",
    "methods": {
      "approve(address,uint256)": {
        "details": "See {IERC721-approve}."
      },
      "balanceOf(address)": {
        "details": "See {IERC721-balanceOf}."
      },
      "getApproved(uint256)": {
        "details": "See {IERC721-getApproved}."
      },
      "handshake(address,address,string)": {
        "details": "TODO add color so you can check that user don't handshake twice",
        "params": {
          "cid": "The CID of the Tokens metadata",
          "partner": "The address of the person the user interacted with",
          "to": "The address, the Token should be transfered to"
        },
        "returns": {
          "_id": "_id"
        }
      },
      "isApprovedForAll(address,address)": {
        "details": "See {IERC721-isApprovedForAll}."
      },
      "mint(address,string)": {
        "params": {
          "cid": "The CID of the Tokens metadata",
          "to": "The address, the Token should be transfered to"
        },
        "returns": {
          "_id": "_id"
        }
      },
      "name()": {
        "details": "See {IERC721Metadata-name}."
      },
      "owner()": {
        "details": "Returns the address of the current owner."
      },
      "ownerOf(uint256)": {
        "details": "See {IERC721-ownerOf}."
      },
      "renounceOwnership()": {
        "details": "Leaves the contract without owner. It will not be possible to call `onlyOwner` functions anymore. Can only be called by the current owner. NOTE: Renouncing ownership will leave the contract without an owner, thereby removing any functionality that is only available to the owner."
      },
      "safeTransferFrom(address,address,uint256)": {
        "details": "See {IERC721-safeTransferFrom}."
      },
      "safeTransferFrom(address,address,uint256,bytes)": {
        "details": "See {IERC721-safeTransferFrom}."
      },
      "setApprovalForAll(address,bool)": {
        "details": "See {IERC721-setApprovalForAll}."
      },
      "symbol()": {
        "details": "See {IERC721Metadata-symbol}."
      },
      "tokenByIndex(uint256)": {
        "details": "See {IERC721Enumerable-tokenByIndex}."
      },
      "tokenOfOwnerByIndex(address,uint256)": {
        "details": "See {IERC721Enumerable-tokenOfOwnerByIndex}."
      },
      "tokensOfOwner(address)": {
        "params": {
          "_owner": "The person that wants to know which tokens belong to them"
        },
        "returns": {
          "_0": "userTokens  all ids of tokens belonging to one owner"
        }
      },
      "totalSupply()": {
        "details": "See {IERC721Enumerable-totalSupply}."
      },
      "transferFrom(address,address,uint256)": {
        "details": "See {IERC721-transferFrom}."
      },
      "transferOwnership(address)": {
        "details": "Transfers ownership of the contract to a new account (`newOwner`). Can only be called by the current owner."
      }
    },
    "version": 1
  },
  "userdoc": {
    "kind": "user",
    "methods": {
      "handshake(address,address,string)": {
        "notice": "Token is minted. the color of the NFT is calculated in the FE."
      },
      "mint(address,string)": {
        "notice": "Token is minted. Can only be called once by every user."
      },
      "tokensOfOwner(address)": {
        "notice": "Returns the ids of tokens of one owner"
      }
    },
    "version": 1
  }
}