{
  "contractName": "Nft",
  "abi": [
    {
      "anonymous": false,
      "inputs": [
        {
          "indexed": true,
          "internalType": "address",
          "name": "owner",
          "type": "address"
        },
        {
          "indexed": true,
          "internalType": "address",
          "name": "approved",
          "type": "address"
        },
        {
          "indexed": true,
          "internalType": "uint256",
          "name": "tokenId",
          "type": "uint256"
        }
      ],
      "name": "Approval",
      "type": "event"
    },
    {
      "anonymous": false,
      "inputs": [
        {
          "indexed": true,
          "internalType": "address",
          "name": "owner",
          "type": "address"
        },
        {
          "indexed": true,
          "internalType": "address",
          "name": "operator",
          "type": "address"
        },
        {
          "indexed": false,
          "internalType": "bool",
          "name": "approved",
          "type": "bool"
        }
      ],
      "name": "ApprovalForAll",
      "type": "event"
    },
    {
      "anonymous": false,
      "inputs": [
        {
          "indexed": true,
          "internalType": "address",
          "name": "previousOwner",
          "type": "address"
        },
        {
          "indexed": true,
          "internalType": "address",
          "name": "newOwner",
          "type": "address"
        }
      ],
      "name": "OwnershipTransferred",
      "type": "event"
    },
    {
      "anonymous": false,
      "inputs": [
        {
          "indexed": true,
          "internalType": "bytes32",
          "name": "role",
          "type": "bytes32"
        },
        {
          "indexed": true,
          "internalType": "bytes32",
          "name": "previousAdminRole",
          "type": "bytes32"
        },
        {
          "indexed": true,
          "internalType": "bytes32",
          "name": "newAdminRole",
          "type": "bytes32"
        }
      ],
      "name": "RoleAdminChanged",
      "type": "event"
    },
    {
      "anonymous": false,
      "inputs": [
        {
          "indexed": true,
          "internalType": "bytes32",
          "name": "role",
          "type": "bytes32"
        },
        {
          "indexed": true,
          "internalType": "address",
          "name": "account",
          "type": "address"
        },
        {
          "indexed": true,
          "internalType": "address",
          "name": "sender",
          "type": "address"
        }
      ],
      "name": "RoleGranted",
      "type": "event"
    },
    {
      "anonymous": false,
      "inputs": [
        {
          "indexed": true,
          "internalType": "bytes32",
          "name": "role",
          "type": "bytes32"
        },
        {
          "indexed": true,
          "internalType": "address",
          "name": "account",
          "type": "address"
        },
        {
          "indexed": true,
          "internalType": "address",
          "name": "sender",
          "type": "address"
        }
      ],
      "name": "RoleRevoked",
      "type": "event"
    },
    {
      "anonymous": false,
      "inputs": [
        {
          "indexed": true,
          "internalType": "address",
          "name": "from",
          "type": "address"
        },
        {
          "indexed": true,
          "internalType": "address",
          "name": "to",
          "type": "address"
        },
        {
          "indexed": true,
          "internalType": "uint256",
          "name": "tokenId",
          "type": "uint256"
        }
      ],
      "name": "Transfer",
      "type": "event"
    },
    {
      "inputs": [],
      "name": "DEFAULT_ADMIN_ROLE",
      "outputs": [
        {
          "internalType": "bytes32",
          "name": "",
          "type": "bytes32"
        }
      ],
      "stateMutability": "view",
      "type": "function"
    },
    {
      "inputs": [],
      "name": "MAX_PER_MINT",
      "outputs": [
        {
          "internalType": "uint256",
          "name": "",
          "type": "uint256"
        }
      ],
      "stateMutability": "view",
      "type": "function"
    },
    {
      "inputs": [],
      "name": "MAX_SUPPLY",
      "outputs": [
        {
          "internalType": "uint256",
          "name": "",
          "type": "uint256"
        }
      ],
      "stateMutability": "view",
      "type": "function"
    },
    {
      "inputs": [],
      "name": "MINTER_ROLE",
      "outputs": [
        {
          "internalType": "bytes32",
          "name": "",
          "type": "bytes32"
        }
      ],
      "stateMutability": "view",
      "type": "function"
    },
    {
      "inputs": [],
      "name": "PRICE",
      "outputs": [
        {
          "internalType": "uint256",
          "name": "",
          "type": "uint256"
        }
      ],
      "stateMutability": "view",
      "type": "function"
    },
    {
      "inputs": [
        {
          "internalType": "address",
          "name": "to",
          "type": "address"
        },
        {
          "internalType": "uint256",
          "name": "tokenId",
          "type": "uint256"
        }
      ],
      "name": "approve",
      "outputs": [],
      "stateMutability": "nonpayable",
      "type": "function"
    },
    {
      "inputs": [
        {
          "internalType": "address",
          "name": "owner",
          "type": "address"
        }
      ],
      "name": "balanceOf",
      "outputs": [
        {
          "internalType": "uint256",
          "name": "",
          "type": "uint256"
        }
      ],
      "stateMutability": "view",
      "type": "function"
    },
    {
      "inputs": [],
      "name": "baseTokenURI",
      "outputs": [
        {
          "internalType": "string",
          "name": "",
          "type": "string"
        }
      ],
      "stateMutability": "view",
      "type": "function"
    },
    {
      "inputs": [
        {
          "internalType": "uint256",
          "name": "tokenId",
          "type": "uint256"
        }
      ],
      "name": "getApproved",
      "outputs": [
        {
          "internalType": "address",
          "name": "",
          "type": "address"
        }
      ],
      "stateMutability": "view",
      "type": "function"
    },
    {
      "inputs": [
        {
          "internalType": "bytes32",
          "name": "role",
          "type": "bytes32"
        }
      ],
      "name": "getRoleAdmin",
      "outputs": [
        {
          "internalType": "bytes32",
          "name": "",
          "type": "bytes32"
        }
      ],
      "stateMutability": "view",
      "type": "function"
    },
    {
      "inputs": [
        {
          "internalType": "bytes32",
          "name": "role",
          "type": "bytes32"
        },
        {
          "internalType": "address",
          "name": "account",
          "type": "address"
        }
      ],
      "name": "grantRole",
      "outputs": [],
      "stateMutability": "nonpayable",
      "type": "function"
    },
    {
      "inputs": [
        {
          "internalType": "bytes32",
          "name": "role",
          "type": "bytes32"
        },
        {
          "internalType": "address",
          "name": "account",
          "type": "address"
        }
      ],
      "name": "hasRole",
      "outputs": [
        {
          "internalType": "bool",
          "name": "",
          "type": "bool"
        }
      ],
      "stateMutability": "view",
      "type": "function"
    },
    {
      "inputs": [
        {
          "internalType": "address",
          "name": "owner",
          "type": "address"
        },
        {
          "internalType": "address",
          "name": "operator",
          "type": "address"
        }
      ],
      "name": "isApprovedForAll",
      "outputs": [
        {
          "internalType": "bool",
          "name": "",
          "type": "bool"
        }
      ],
      "stateMutability": "view",
      "type": "function"
    },
    {
      "inputs": [],
      "name": "name",
      "outputs": [
        {
          "internalType": "string",
          "name": "",
          "type": "string"
        }
      ],
      "stateMutability": "view",
      "type": "function"
    },
    {
      "inputs": [],
      "name": "owner",
      "outputs": [
        {
          "internalType": "address",
          "name": "",
          "type": "address"
        }
      ],
      "stateMutability": "view",
      "type": "function"
    },
    {
      "inputs": [
        {
          "internalType": "uint256",
          "name": "tokenId",
          "type": "uint256"
        }
      ],
      "name": "ownerOf",
      "outputs": [
        {
          "internalType": "address",
          "name": "",
          "type": "address"
        }
      ],
      "stateMutability": "view",
      "type": "function"
    },
    {
      "inputs": [],
      "name": "renounceOwnership",
      "outputs": [],
      "stateMutability": "nonpayable",
      "type": "function"
    },
    {
      "inputs": [
        {
          "internalType": "bytes32",
          "name": "role",
          "type": "bytes32"
        },
        {
          "internalType": "address",
          "name": "account",
          "type": "address"
        }
      ],
      "name": "renounceRole",
      "outputs": [],
      "stateMutability": "nonpayable",
      "type": "function"
    },
    {
      "inputs": [
        {
          "internalType": "bytes32",
          "name": "role",
          "type": "bytes32"
        },
        {
          "internalType": "address",
          "name": "account",
          "type": "address"
        }
      ],
      "name": "revokeRole",
      "outputs": [],
      "stateMutability": "nonpayable",
      "type": "function"
    },
    {
      "inputs": [
        {
          "internalType": "address",
          "name": "from",
          "type": "address"
        },
        {
          "internalType": "address",
          "name": "to",
          "type": "address"
        },
        {
          "internalType": "uint256",
          "name": "tokenId",
          "type": "uint256"
        }
      ],
      "name": "safeTransferFrom",
      "outputs": [],
      "stateMutability": "nonpayable",
      "type": "function"
    },
    {
      "inputs": [
        {
          "internalType": "address",
          "name": "from",
          "type": "address"
        },
        {
          "internalType": "address",
          "name": "to",
          "type": "address"
        },
        {
          "internalType": "uint256",
          "name": "tokenId",
          "type": "uint256"
        },
        {
          "internalType": "bytes",
          "name": "_data",
          "type": "bytes"
        }
      ],
      "name": "safeTransferFrom",
      "outputs": [],
      "stateMutability": "nonpayable",
      "type": "function"
    },
    {
      "inputs": [
        {
          "internalType": "address",
          "name": "operator",
          "type": "address"
        },
        {
          "internalType": "bool",
          "name": "approved",
          "type": "bool"
        }
      ],
      "name": "setApprovalForAll",
      "outputs": [],
      "stateMutability": "nonpayable",
      "type": "function"
    },
    {
      "inputs": [
        {
          "internalType": "string",
          "name": "baseURI_",
          "type": "string"
        }
      ],
      "name": "setBaseURI",
      "outputs": [],
      "stateMutability": "nonpayable",
      "type": "function"
    },
    {
      "inputs": [],
      "name": "symbol",
      "outputs": [
        {
          "internalType": "string",
          "name": "",
          "type": "string"
        }
      ],
      "stateMutability": "view",
      "type": "function"
    },
    {
      "inputs": [
        {
          "internalType": "uint256",
          "name": "index",
          "type": "uint256"
        }
      ],
      "name": "tokenByIndex",
      "outputs": [
        {
          "internalType": "uint256",
          "name": "",
          "type": "uint256"
        }
      ],
      "stateMutability": "view",
      "type": "function"
    },
    {
      "inputs": [
        {
          "internalType": "address",
          "name": "owner",
          "type": "address"
        },
        {
          "internalType": "uint256",
          "name": "index",
          "type": "uint256"
        }
      ],
      "name": "tokenOfOwnerByIndex",
      "outputs": [
        {
          "internalType": "uint256",
          "name": "",
          "type": "uint256"
        }
      ],
      "stateMutability": "view",
      "type": "function"
    },
    {
      "inputs": [],
      "name": "totalSupply",
      "outputs": [
        {
          "internalType": "uint256",
          "name": "",
          "type": "uint256"
        }
      ],
      "stateMutability": "view",
      "type": "function"
    },
    {
      "inputs": [
        {
          "internalType": "address",
          "name": "from",
          "type": "address"
        },
        {
          "internalType": "address",
          "name": "to",
          "type": "address"
        },
        {
          "internalType": "uint256",
          "name": "tokenId",
          "type": "uint256"
        }
      ],
      "name": "transferFrom",
      "outputs": [],
      "stateMutability": "nonpayable",
      "type": "function"
    },
    {
      "inputs": [
        {
          "internalType": "address",
          "name": "newOwner",
          "type": "address"
        }
      ],
      "name": "transferOwnership",
      "outputs": [],
      "stateMutability": "nonpayable",
      "type": "function"
    },
    {
      "inputs": [
        {
          "internalType": "string",
          "name": "_name",
          "type": "string"
        },
        {
          "internalType": "string",
          "name": "_symbol",
          "type": "string"
        },
        {
          "internalType": "string",
          "name": "_baseTokenURI",
          "type": "string"
        }
      ],
      "name": "initialize",
      "outputs": [],
      "stateMutability": "nonpayable",
      "type": "function"
    },
    {
      "inputs": [
        {
          "internalType": "address",
          "name": "to",
          "type": "address"
        },
        {
          "internalType": "string",
          "name": "cid",
          "type": "string"
        }
      ],
      "name": "mint",
      "outputs": [
        {
          "internalType": "uint256",
          "name": "_id",
          "type": "uint256"
        }
      ],
      "stateMutability": "nonpayable",
      "type": "function"
    },
    {
      "inputs": [
        {
          "internalType": "address",
          "name": "user1",
          "type": "address"
        },
        {
          "internalType": "address",
          "name": "user2",
          "type": "address"
        },
        {
          "internalType": "string",
          "name": "cid",
          "type": "string"
        }
      ],
      "name": "handShake",
      "outputs": [
        {
          "internalType": "uint256",
          "name": "_id",
          "type": "uint256"
        }
      ],
      "stateMutability": "payable",
      "type": "function"
    },
    {
      "inputs": [
        {
          "internalType": "address",
          "name": "to",
          "type": "address"
        },
        {
          "internalType": "string",
          "name": "uri",
          "type": "string"
        }
      ],
      "name": "safeMint",
      "outputs": [],
      "stateMutability": "nonpayable",
      "type": "function"
    },
    {
      "inputs": [
        {
          "internalType": "address",
          "name": "_owner",
          "type": "address"
        }
      ],
      "name": "tokensOfOwner",
      "outputs": [
        {
          "internalType": "string[]",
          "name": "",
          "type": "string[]"
        }
      ],
      "stateMutability": "view",
      "type": "function"
    },
    {
      "inputs": [
        {
          "internalType": "address",
          "name": "_owner",
          "type": "address"
        }
      ],
      "name": "tokenIdsOfOwner",
      "outputs": [
        {
          "internalType": "uint256[]",
          "name": "",
          "type": "uint256[]"
        }
      ],
      "stateMutability": "view",
      "type": "function"
    },
    {
      "inputs": [
        {
          "internalType": "uint256",
          "name": "tokenId",
          "type": "uint256"
        }
      ],
      "name": "tokenURI",
      "outputs": [
        {
          "internalType": "string",
          "name": "",
          "type": "string"
        }
      ],
      "stateMutability": "view",
      "type": "function"
    },
    {
      "inputs": [
        {
          "internalType": "bytes4",
          "name": "interfaceId",
          "type": "bytes4"
        }
      ],
      "name": "supportsInterface",
      "outputs": [
        {
          "internalType": "bool",
          "name": "",
          "type": "bool"
        }
      ],
      "stateMutability": "view",
      "type": "function"
    }
  ],
  "bytecode": "0x608060405234801561001057600080fd5b506158af80620000216000396000f3fe608060405260043610610237576000357c010000000000000000000000000000000000000000000000000000000090048063715018a611610140578063a6487c53116100c8578063d53913931161008c578063d539139314610851578063d547741f1461087c578063d547cfb7146108a5578063e985e9c5146108d0578063f2fde38b1461090d57610237565b8063a6487c531461075c578063b88d4fde14610785578063c87b56dd146107ae578063d0def521146107eb578063d204c45e1461082857610237565b806391d148541161010f57806391d148541461066357806395d89b41146106a05780639e59e598146106cb578063a217fddf14610708578063a22cb4651461073357610237565b8063715018a6146105b95780638462151c146105d05780638d859f3e1461060d5780638da5cb5b1461063857610237565b80632f745c59116101c357806342842e0e1161019257806342842e0e146104b05780634f6ccce7146104d957806355f804b3146105165780636352211e1461053f57806370a082311461057c57610237565b80632f745c59146103ef57806332a5570b1461042c57806332cb6b0c1461045c57806336568abe1461048757610237565b806309d42b301161020a57806309d42b301461030a57806318160ddd1461033557806323b872dd14610360578063248a9ca3146103895780632f2ff15d146103c657610237565b806301ffc9a71461023c57806306fdde0314610279578063081812fc146102a4578063095ea7b3146102e1575b600080fd5b34801561024857600080fd5b50610263600480360381019061025e9190613d0c565b610936565b6040516102709190613d54565b60405180910390f35b34801561028557600080fd5b5061028e610948565b60405161029b9190613e08565b60405180910390f35b3480156102b057600080fd5b506102cb60048036038101906102c69190613e60565b6109da565b6040516102d89190613ece565b60405180910390f35b3480156102ed57600080fd5b5061030860048036038101906103039190613f15565b610a5f565b005b34801561031657600080fd5b5061031f610b77565b60405161032c9190613f64565b60405180910390f35b34801561034157600080fd5b5061034a610b7c565b6040516103579190613f64565b60405180910390f35b34801561036c57600080fd5b5061038760048036038101906103829190613f7f565b610b89565b005b34801561039557600080fd5b506103b060048036038101906103ab9190614008565b610be9565b6040516103bd9190614044565b60405180910390f35b3480156103d257600080fd5b506103ed60048036038101906103e8919061405f565b610c09565b005b3480156103fb57600080fd5b5061041660048036038101906104119190613f15565b610c32565b6040516104239190613f64565b60405180910390f35b610446600480360381019061044191906141d4565b610cd7565b6040516104539190613f64565b60405180910390f35b34801561046857600080fd5b50610471610e84565b60405161047e9190613f64565b60405180910390f35b34801561049357600080fd5b506104ae60048036038101906104a9919061405f565b610e8a565b005b3480156104bc57600080fd5b506104d760048036038101906104d29190613f7f565b610f0d565b005b3480156104e557600080fd5b5061050060048036038101906104fb9190613e60565b610f2d565b60405161050d9190613f64565b60405180910390f35b34801561052257600080fd5b5061053d60048036038101906105389190614243565b610f9e565b005b34801561054b57600080fd5b5061056660048036038101906105619190613e60565b611035565b6040516105739190613ece565b60405180910390f35b34801561058857600080fd5b506105a3600480360381019061059e919061428c565b6110e7565b6040516105b09190613f64565b60405180910390f35b3480156105c557600080fd5b506105ce61119f565b005b3480156105dc57600080fd5b506105f760048036038101906105f2919061428c565b611227565b60405161060491906143c5565b60405180910390f35b34801561061957600080fd5b50610622611406565b60405161062f9190613f64565b60405180910390f35b34801561064457600080fd5b5061064d611410565b60405161065a9190613ece565b60405180910390f35b34801561066f57600080fd5b5061068a6004803603810190610685919061405f565b61143b565b6040516106979190613d54565b60405180910390f35b3480156106ac57600080fd5b506106b56114a6565b6040516106c29190613e08565b60405180910390f35b3480156106d757600080fd5b506106f260048036038101906106ed919061428c565b611538565b6040516106ff91906144a5565b60405180910390f35b34801561071457600080fd5b5061071d6115e6565b60405161072a9190614044565b60405180910390f35b34801561073f57600080fd5b5061075a600480360381019061075591906144f3565b6115ee565b005b34801561076857600080fd5b50610783600480360381019061077e9190614533565b611604565b005b34801561079157600080fd5b506107ac60048036038101906107a7919061467b565b6116eb565b005b3480156107ba57600080fd5b506107d560048036038101906107d09190613e60565b61174d565b6040516107e29190613e08565b60405180910390f35b3480156107f757600080fd5b50610812600480360381019061080d91906146fe565b61175f565b60405161081f9190613f64565b60405180910390f35b34801561083457600080fd5b5061084f600480360381019061084a91906146fe565b6118a7565b005b34801561085d57600080fd5b506108666119cb565b6040516108739190614044565b60405180910390f35b34801561088857600080fd5b506108a3600480360381019061089e919061405f565b6119ef565b005b3480156108b157600080fd5b506108ba611a18565b6040516108c79190613e08565b60405180910390f35b3480156108dc57600080fd5b506108f760048036038101906108f2919061475a565b611aa7565b6040516109049190613d54565b60405180910390f35b34801561091957600080fd5b50610934600480360381019061092f919061428c565b611b3b565b005b600061094182611c33565b9050919050565b606060658054610957906147c9565b80601f0160208091040260200160405190810160405280929190818152602001828054610983906147c9565b80156109d05780601f106109a5576101008083540402835291602001916109d0565b820191906000526020600020905b8154815290600101906020018083116109b357829003601f168201915b5050505050905090565b60006109e582611c45565b610a24576040517f08c379a0000000000000000000000000000000000000000000000000000000008152600401610a1b9061486d565b60405180910390fd5b6069600083815260200190815260200160002060009054906101000a900473ffffffffffffffffffffffffffffffffffffffff169050919050565b6000610a6a82611035565b90508073ffffffffffffffffffffffffffffffffffffffff168373ffffffffffffffffffffffffffffffffffffffff161415610adb576040517f08c379a0000000000000000000000000000000000000000000000000000000008152600401610ad2906148ff565b60405180910390fd5b8073ffffffffffffffffffffffffffffffffffffffff16610afa611cb1565b73ffffffffffffffffffffffffffffffffffffffff161480610b295750610b2881610b23611cb1565b611aa7565b5b610b68576040517f08c379a0000000000000000000000000000000000000000000000000000000008152600401610b5f90614991565b60405180910390fd5b610b728383611cb9565b505050565b606481565b600060fd80549050905090565b610b9a610b94611cb1565b82611d72565b610bd9576040517f08c379a0000000000000000000000000000000000000000000000000000000008152600401610bd090614a23565b60405180910390fd5b610be4838383611e50565b505050565b600060c96000838152602001908152602001600020600101549050919050565b610c1282610be9565b610c2381610c1e611cb1565b6120ac565b610c2d838361214a565b505050565b6000610c3d836110e7565b8210610c7e576040517f08c379a0000000000000000000000000000000000000000000000000000000008152600401610c7590614ab5565b60405180910390fd5b60fb60008473ffffffffffffffffffffffffffffffffffffffff1673ffffffffffffffffffffffffffffffffffffffff168152602001908152602001600020600083815260200190815260200160002054905092915050565b60008361016560008273ffffffffffffffffffffffffffffffffffffffff1673ffffffffffffffffffffffffffffffffffffffff16815260200190815260200160002060009054906101000a900460ff16610d67576040517f08c379a0000000000000000000000000000000000000000000000000000000008152600401610d5e90614b21565b60405180910390fd5b8361016560008273ffffffffffffffffffffffffffffffffffffffff1673ffffffffffffffffffffffffffffffffffffffff16815260200190815260200160002060009054906101000a900460ff16610df5576040517f08c379a0000000000000000000000000000000000000000000000000000000008152600401610dec90614b21565b60405180910390fd5b8361016481604051610e079190614b7d565b908152602001604051809103902060009054906101000a900460ff1615610e63576040517f08c379a0000000000000000000000000000000000000000000000000000000008152600401610e5a90614be0565b60405180910390fd5b610e6e61016261222b565b9350610e7a87866118a7565b5050509392505050565b61c35081565b610e92611cb1565b73ffffffffffffffffffffffffffffffffffffffff168173ffffffffffffffffffffffffffffffffffffffff1614610eff576040517f08c379a0000000000000000000000000000000000000000000000000000000008152600401610ef690614c72565b60405180910390fd5b610f098282612239565b5050565b610f28838383604051806020016040528060008152506116eb565b505050565b6000610f37610b7c565b8210610f78576040517f08c379a0000000000000000000000000000000000000000000000000000000008152600401610f6f90614d04565b60405180910390fd5b60fd8281548110610f8c57610f8b614d24565b5b90600052602060002001549050919050565b610fa6611cb1565b73ffffffffffffffffffffffffffffffffffffffff16610fc4611410565b73ffffffffffffffffffffffffffffffffffffffff161461101a576040517f08c379a000000000000000000000000000000000000000000000000000000000815260040161101190614d9f565b60405180910390fd5b8061015f9080519060200190611031929190613bfd565b5050565b6000806067600084815260200190815260200160002060009054906101000a900473ffffffffffffffffffffffffffffffffffffffff169050600073ffffffffffffffffffffffffffffffffffffffff168173ffffffffffffffffffffffffffffffffffffffff1614156110de576040517f08c379a00000000000000000000000000000000000000000000000000000000081526004016110d590614e31565b60405180910390fd5b80915050919050565b60008073ffffffffffffffffffffffffffffffffffffffff168273ffffffffffffffffffffffffffffffffffffffff161415611158576040517f08c379a000000000000000000000000000000000000000000000000000000000815260040161114f90614ec3565b60405180910390fd5b606860008373ffffffffffffffffffffffffffffffffffffffff1673ffffffffffffffffffffffffffffffffffffffff168152602001908152602001600020549050919050565b6111a7611cb1565b73ffffffffffffffffffffffffffffffffffffffff166111c5611410565b73ffffffffffffffffffffffffffffffffffffffff161461121b576040517f08c379a000000000000000000000000000000000000000000000000000000000815260040161121290614d9f565b60405180910390fd5b611225600061231b565b565b60606000611234836110e7565b905060008167ffffffffffffffff811115611252576112516140a9565b5b6040519080825280602002602001820160405280156112805781602001602082028036833780820191505090505b50905060008267ffffffffffffffff81111561129f5761129e6140a9565b5b6040519080825280602002602001820160405280156112d257816020015b60608152602001906001900390816112bd5790505b50905060005b838110156113fa576112ea8682610c32565b8382815181106112fd576112fc614d24565b5b6020026020010181815250508083828151811061131d5761131c614d24565b5b602002602001015114156113e7576101616000828152602001908152602001600020805461134a906147c9565b80601f0160208091040260200160405190810160405280929190818152602001828054611376906147c9565b80156113c35780601f10611398576101008083540402835291602001916113c3565b820191906000526020600020905b8154815290600101906020018083116113a657829003601f168201915b50505050508282815181106113db576113da614d24565b5b60200260200101819052505b80806113f290614f12565b9150506112d8565b50809350505050919050565b655af3107a400081565b600061012d60009054906101000a900473ffffffffffffffffffffffffffffffffffffffff16905090565b600060c9600084815260200190815260200160002060000160008373ffffffffffffffffffffffffffffffffffffffff1673ffffffffffffffffffffffffffffffffffffffff16815260200190815260200160002060009054906101000a900460ff16905092915050565b6060606680546114b5906147c9565b80601f01602080910402602001604051908101604052809291908181526020018280546114e1906147c9565b801561152e5780601f106115035761010080835404028352916020019161152e565b820191906000526020600020905b81548152906001019060200180831161151157829003601f168201915b5050505050905090565b60606000611545836110e7565b905060008167ffffffffffffffff811115611563576115626140a9565b5b6040519080825280602002602001820160405280156115915781602001602082028036833780820191505090505b50905060005b828110156115db576115a98582610c32565b8282815181106115bc576115bb614d24565b5b60200260200101818152505080806115d390614f12565b915050611597565b508092505050919050565b600060010281565b6116006115f9611cb1565b83836123e3565b5050565b600060019054906101000a900460ff168061162a575060008054906101000a900460ff16155b611669576040517f08c379a000000000000000000000000000000000000000000000000000000000815260040161166090614fcd565b60405180910390fd5b60008060019054906101000a900460ff1615905080156116b9576001600060016101000a81548160ff02191690831515021790555060016000806101000a81548160ff0219169083151502179055505b6116c4848484612550565b80156116e55760008060016101000a81548160ff0219169083151502179055505b50505050565b6116fc6116f6611cb1565b83611d72565b61173b576040517f08c379a000000000000000000000000000000000000000000000000000000000815260040161173290614a23565b60405180910390fd5b61174784848484612694565b50505050565b6060611758826126f0565b9050919050565b600081610164816040516117739190614b7d565b908152602001604051809103902060009054906101000a900460ff16156117cf576040517f08c379a00000000000000000000000000000000000000000000000000000000081526004016117c690614be0565b60405180910390fd5b8361016560008273ffffffffffffffffffffffffffffffffffffffff1673ffffffffffffffffffffffffffffffffffffffff16815260200190815260200160002060009054906101000a900460ff161561185e576040517f08c379a000000000000000000000000000000000000000000000000000000000815260040161185590614b21565b60405180910390fd5b61186961016261222b565b92506118957f9f2df0fed2c77648de5860a4cc508cd0818c85b8b8a1ab4ceeef8d981c8956a68661214a565b61189f85856118a7565b505092915050565b7f9f2df0fed2c77648de5860a4cc508cd0818c85b8b8a1ab4ceeef8d981c8956a66118d9816118d4611cb1565b6120ac565b60006118e661016261222b565b90506118f28184612884565b83610163600083815260200190815260200160002060006101000a81548173ffffffffffffffffffffffffffffffffffffffff021916908373ffffffffffffffffffffffffffffffffffffffff160217905550826101616000838152602001908152602001600020908051906020019061196d929190613bfd565b506001610164846040516119819190614b7d565b908152602001604051809103902060006101000a81548160ff0219169083151502179055506119b08184612884565b6119ba8482612919565b6119c5610162612937565b50505050565b7f9f2df0fed2c77648de5860a4cc508cd0818c85b8b8a1ab4ceeef8d981c8956a681565b6119f882610be9565b611a0981611a04611cb1565b6120ac565b611a138383612239565b505050565b6101608054611a26906147c9565b80601f0160208091040260200160405190810160405280929190818152602001828054611a52906147c9565b8015611a9f5780601f10611a7457610100808354040283529160200191611a9f565b820191906000526020600020905b815481529060010190602001808311611a8257829003601f168201915b505050505081565b6000606a60008473ffffffffffffffffffffffffffffffffffffffff1673ffffffffffffffffffffffffffffffffffffffff16815260200190815260200160002060008373ffffffffffffffffffffffffffffffffffffffff1673ffffffffffffffffffffffffffffffffffffffff16815260200190815260200160002060009054906101000a900460ff16905092915050565b611b43611cb1565b73ffffffffffffffffffffffffffffffffffffffff16611b61611410565b73ffffffffffffffffffffffffffffffffffffffff1614611bb7576040517f08c379a0000000000000000000000000000000000000000000000000000000008152600401611bae90614d9f565b60405180910390fd5b600073ffffffffffffffffffffffffffffffffffffffff168173ffffffffffffffffffffffffffffffffffffffff161415611c27576040517f08c379a0000000000000000000000000000000000000000000000000000000008152600401611c1e9061505f565b60405180910390fd5b611c308161231b565b50565b6000611c3e8261294d565b9050919050565b60008073ffffffffffffffffffffffffffffffffffffffff166067600084815260200190815260200160002060009054906101000a900473ffffffffffffffffffffffffffffffffffffffff1673ffffffffffffffffffffffffffffffffffffffff1614159050919050565b600033905090565b816069600083815260200190815260200160002060006101000a81548173ffffffffffffffffffffffffffffffffffffffff021916908373ffffffffffffffffffffffffffffffffffffffff160217905550808273ffffffffffffffffffffffffffffffffffffffff16611d2c83611035565b73ffffffffffffffffffffffffffffffffffffffff167f8c5be1e5ebec7d5bd14f71427d1e84f3dd0314c0f7b2291e5b200ac8c7c3b92560405160405180910390a45050565b6000611d7d82611c45565b611dbc576040517f08c379a0000000000000000000000000000000000000000000000000000000008152600401611db3906150f1565b60405180910390fd5b6000611dc783611035565b90508073ffffffffffffffffffffffffffffffffffffffff168473ffffffffffffffffffffffffffffffffffffffff161480611e3657508373ffffffffffffffffffffffffffffffffffffffff16611e1e846109da565b73ffffffffffffffffffffffffffffffffffffffff16145b80611e475750611e468185611aa7565b5b91505092915050565b8273ffffffffffffffffffffffffffffffffffffffff16611e7082611035565b73ffffffffffffffffffffffffffffffffffffffff1614611ec6576040517f08c379a0000000000000000000000000000000000000000000000000000000008152600401611ebd90615183565b60405180910390fd5b600073ffffffffffffffffffffffffffffffffffffffff168273ffffffffffffffffffffffffffffffffffffffff161415611f36576040517f08c379a0000000000000000000000000000000000000000000000000000000008152600401611f2d90615215565b60405180910390fd5b611f418383836129c7565b611f4c600082611cb9565b6001606860008573ffffffffffffffffffffffffffffffffffffffff1673ffffffffffffffffffffffffffffffffffffffff1681526020019081526020016000206000828254611f9c9190615235565b925050819055506001606860008473ffffffffffffffffffffffffffffffffffffffff1673ffffffffffffffffffffffffffffffffffffffff1681526020019081526020016000206000828254611ff39190615269565b92505081905550816067600083815260200190815260200160002060006101000a81548173ffffffffffffffffffffffffffffffffffffffff021916908373ffffffffffffffffffffffffffffffffffffffff160217905550808273ffffffffffffffffffffffffffffffffffffffff168473ffffffffffffffffffffffffffffffffffffffff167fddf252ad1be2c89b69c2b068fc378daa952ba7f163c4a11628f55a4df523b3ef60405160405180910390a4505050565b6120b6828261143b565b612146576120db8173ffffffffffffffffffffffffffffffffffffffff1660146129d7565b6120ea836001900460206129d7565b6040516020016120fb929190615357565b6040516020818303038152906040526040517f08c379a000000000000000000000000000000000000000000000000000000000815260040161213d9190613e08565b60405180910390fd5b5050565b612154828261143b565b61222757600160c9600084815260200190815260200160002060000160008373ffffffffffffffffffffffffffffffffffffffff1673ffffffffffffffffffffffffffffffffffffffff16815260200190815260200160002060006101000a81548160ff0219169083151502179055506121cc611cb1565b73ffffffffffffffffffffffffffffffffffffffff168173ffffffffffffffffffffffffffffffffffffffff16837f2f8788117e7eff1d82e926ec794901d17c78024a50270940304540a733656f0d60405160405180910390a45b5050565b600081600001549050919050565b612243828261143b565b1561231757600060c9600084815260200190815260200160002060000160008373ffffffffffffffffffffffffffffffffffffffff1673ffffffffffffffffffffffffffffffffffffffff16815260200190815260200160002060006101000a81548160ff0219169083151502179055506122bc611cb1565b73ffffffffffffffffffffffffffffffffffffffff168173ffffffffffffffffffffffffffffffffffffffff16837ff6391f5c32d9c69d2a47ea670b442974b53935d1edc7fd64eb21e047a839171b60405160405180910390a45b5050565b600061012d60009054906101000a900473ffffffffffffffffffffffffffffffffffffffff1690508161012d60006101000a81548173ffffffffffffffffffffffffffffffffffffffff021916908373ffffffffffffffffffffffffffffffffffffffff1602179055508173ffffffffffffffffffffffffffffffffffffffff168173ffffffffffffffffffffffffffffffffffffffff167f8be0079c531659141344cd1fd0a4f28419497f9722a3daafe3b4186f6b6457e060405160405180910390a35050565b8173ffffffffffffffffffffffffffffffffffffffff168373ffffffffffffffffffffffffffffffffffffffff161415612452576040517f08c379a0000000000000000000000000000000000000000000000000000000008152600401612449906153dd565b60405180910390fd5b80606a60008573ffffffffffffffffffffffffffffffffffffffff1673ffffffffffffffffffffffffffffffffffffffff16815260200190815260200160002060008473ffffffffffffffffffffffffffffffffffffffff1673ffffffffffffffffffffffffffffffffffffffff16815260200190815260200160002060006101000a81548160ff0219169083151502179055508173ffffffffffffffffffffffffffffffffffffffff168373ffffffffffffffffffffffffffffffffffffffff167f17307eab39ab6107e8899845ad3d59bd9653f200f220920489ca2b5937696c31836040516125439190613d54565b60405180910390a3505050565b600060019054906101000a900460ff1680612576575060008054906101000a900460ff16155b6125b5576040517f08c379a00000000000000000000000000000000000000000000000000000000081526004016125ac90614fcd565b60405180910390fd5b60008060019054906101000a900460ff161590508015612605576001600060016101000a81548160ff02191690831515021790555060016000806101000a81548160ff0219169083151502179055505b61260f8484612c3a565b816101609080519060200190612626929190613bfd565b5061263c6000600102612637611410565b61214a565b61266d7f9f2df0fed2c77648de5860a4cc508cd0818c85b8b8a1ab4ceeef8d981c8956a6612668611410565b61214a565b801561268e5760008060016101000a81548160ff0219169083151502179055505b50505050565b61269f848484611e50565b6126ab84848484612d2f565b6126ea576040517f08c379a00000000000000000000000000000000000000000000000000000000081526004016126e19061546f565b60405180910390fd5b50505050565b6060816040518060600160405280602f815260200161584b602f913961271582611c45565b8190612757576040517f08c379a000000000000000000000000000000000000000000000000000000000815260040161274e9190613e08565b60405180910390fd5b50600061016160008681526020019081526020016000208054612779906147c9565b80601f01602080910402602001604051908101604052809291908181526020018280546127a5906147c9565b80156127f25780601f106127c7576101008083540402835291602001916127f2565b820191906000526020600020905b8154815290600101906020018083116127d557829003601f168201915b505050505090506000612803612eef565b905060008151141561281957819450505061287d565b60008251111561284e57808260405160200161283692919061548f565b6040516020818303038152906040529450505061287d565b8061285887612efe565b60405160200161286992919061548f565b604051602081830303815290604052945050505b5050919050565b816040518060600160405280602c815260200161581f602c91396128a782611c45565b81906128e9576040517f08c379a00000000000000000000000000000000000000000000000000000000081526004016128e09190613e08565b60405180910390fd5b508261016160008681526020019081526020016000209080519060200190612912929190613bfd565b5050505050565b61293382826040518060200160405280600081525061307e565b5050565b6001816000016000828254019250508190555050565b60007f780e9d63000000000000000000000000000000000000000000000000000000007bffffffffffffffffffffffffffffffffffffffffffffffffffffffff1916827bffffffffffffffffffffffffffffffffffffffffffffffffffffffff191614806129c057506129bf826130d9565b5b9050919050565b6129d2838383613153565b505050565b6060600060028360026129ea91906154b3565b6129f49190615269565b67ffffffffffffffff811115612a0d57612a0c6140a9565b5b6040519080825280601f01601f191660200182016040528015612a3f5781602001600182028036833780820191505090505b5090507f300000000000000000000000000000000000000000000000000000000000000081600081518110612a7757612a76614d24565b5b60200101907effffffffffffffffffffffffffffffffffffffffffffffffffffffffffffff1916908160001a9053507f780000000000000000000000000000000000000000000000000000000000000081600181518110612adb57612ada614d24565b5b60200101907effffffffffffffffffffffffffffffffffffffffffffffffffffffffffffff1916908160001a90535060006001846002612b1b91906154b3565b612b259190615269565b90505b6001811115612bec577f3031323334353637383961626364656600000000000000000000000000000000600f861660108110612b6757612b66614d24565b5b1a7f010000000000000000000000000000000000000000000000000000000000000002828281518110612b9d57612b9c614d24565b5b60200101907effffffffffffffffffffffffffffffffffffffffffffffffffffffffffffff1916908160001a905350600485908060020a8204915050945080612be59061550d565b9050612b28565b5060008414612c30576040517f08c379a0000000000000000000000000000000000000000000000000000000008152600401612c2790615583565b60405180910390fd5b8091505092915050565b600060019054906101000a900460ff1680612c60575060008054906101000a900460ff16155b612c9f576040517f08c379a0000000000000000000000000000000000000000000000000000000008152600401612c9690614fcd565b60405180910390fd5b60008060019054906101000a900460ff161590508015612cef576001600060016101000a81548160ff02191690831515021790555060016000806101000a81548160ff0219169083151502179055505b612cf7613163565b612cff61323c565b612d098383613315565b8015612d2a5760008060016101000a81548160ff0219169083151502179055505b505050565b6000612d508473ffffffffffffffffffffffffffffffffffffffff1661341e565b15612ee2578373ffffffffffffffffffffffffffffffffffffffff1663150b7a02612d79611cb1565b8786866040518563ffffffff167c0100000000000000000000000000000000000000000000000000000000028152600401612db794939291906155f8565b6020604051808303816000875af1925050508015612df357506040513d601f19601f82011682018060405250810190612df09190615659565b60015b612e76573d8060008114612e23576040519150601f19603f3d011682016040523d82523d6000602084013e612e28565b606091505b50600081511415612e6e576040517f08c379a0000000000000000000000000000000000000000000000000000000008152600401612e659061546f565b60405180910390fd5b805181602001fd5b63150b7a027c0100000000000000000000000000000000000000000000000000000000027bffffffffffffffffffffffffffffffffffffffffffffffffffffffff1916817bffffffffffffffffffffffffffffffffffffffffffffffffffffffff191614915050612ee7565b600190505b949350505050565b6060612ef9613431565b905090565b60606000821415612f46576040518060400160405280600181526020017f30000000000000000000000000000000000000000000000000000000000000008152509050613079565b600082905060005b60008214612f78578080612f6190614f12565b915050600a82612f7191906156b5565b9150612f4e565b60008167ffffffffffffffff811115612f9457612f936140a9565b5b6040519080825280601f01601f191660200182016040528015612fc65781602001600182028036833780820191505090505b5090505b6000851461307257600182612fdf9190615235565b9150600a85612fee91906156e6565b6030612ffa9190615269565b7f01000000000000000000000000000000000000000000000000000000000000000281838151811061302f5761302e614d24565b5b60200101907effffffffffffffffffffffffffffffffffffffffffffffffffffffffffffff1916908160001a905350600a8561306b91906156b5565b9450612fca565b8093505050505b919050565b61308883836134c4565b6130956000848484612d2f565b6130d4576040517f08c379a00000000000000000000000000000000000000000000000000000000081526004016130cb9061546f565b60405180910390fd5b505050565b60007f7965db0b000000000000000000000000000000000000000000000000000000007bffffffffffffffffffffffffffffffffffffffffffffffffffffffff1916827bffffffffffffffffffffffffffffffffffffffffffffffffffffffff1916148061314c575061314b82613692565b5b9050919050565b61315e838383613774565b505050565b600060019054906101000a900460ff1680613189575060008054906101000a900460ff16155b6131c8576040517f08c379a00000000000000000000000000000000000000000000000000000000081526004016131bf90614fcd565b60405180910390fd5b60008060019054906101000a900460ff161590508015613218576001600060016101000a81548160ff02191690831515021790555060016000806101000a81548160ff0219169083151502179055505b80156132395760008060016101000a81548160ff0219169083151502179055505b50565b600060019054906101000a900460ff1680613262575060008054906101000a900460ff16155b6132a1576040517f08c379a000000000000000000000000000000000000000000000000000000000815260040161329890614fcd565b60405180910390fd5b60008060019054906101000a900460ff1615905080156132f1576001600060016101000a81548160ff02191690831515021790555060016000806101000a81548160ff0219169083151502179055505b80156133125760008060016101000a81548160ff0219169083151502179055505b50565b600060019054906101000a900460ff168061333b575060008054906101000a900460ff16155b61337a576040517f08c379a000000000000000000000000000000000000000000000000000000000815260040161337190614fcd565b60405180910390fd5b60008060019054906101000a900460ff1615905080156133ca576001600060016101000a81548160ff02191690831515021790555060016000806101000a81548160ff0219169083151502179055505b82606590805190602001906133e0929190613bfd565b5081606690805190602001906133f7929190613bfd565b5080156134195760008060016101000a81548160ff0219169083151502179055505b505050565b600080823b905060008111915050919050565b606061015f8054613441906147c9565b80601f016020809104026020016040519081016040528092919081815260200182805461346d906147c9565b80156134ba5780601f1061348f576101008083540402835291602001916134ba565b820191906000526020600020905b81548152906001019060200180831161349d57829003601f168201915b5050505050905090565b600073ffffffffffffffffffffffffffffffffffffffff168273ffffffffffffffffffffffffffffffffffffffff161415613534576040517f08c379a000000000000000000000000000000000000000000000000000000000815260040161352b90615763565b60405180910390fd5b61353d81611c45565b1561357d576040517f08c379a0000000000000000000000000000000000000000000000000000000008152600401613574906157cf565b60405180910390fd5b613589600083836129c7565b6001606860008473ffffffffffffffffffffffffffffffffffffffff1673ffffffffffffffffffffffffffffffffffffffff16815260200190815260200160002060008282546135d99190615269565b92505081905550816067600083815260200190815260200160002060006101000a81548173ffffffffffffffffffffffffffffffffffffffff021916908373ffffffffffffffffffffffffffffffffffffffff160217905550808273ffffffffffffffffffffffffffffffffffffffff16600073ffffffffffffffffffffffffffffffffffffffff167fddf252ad1be2c89b69c2b068fc378daa952ba7f163c4a11628f55a4df523b3ef60405160405180910390a45050565b60007f80ac58cd000000000000000000000000000000000000000000000000000000007bffffffffffffffffffffffffffffffffffffffffffffffffffffffff1916827bffffffffffffffffffffffffffffffffffffffffffffffffffffffff1916148061375d57507f5b5e139f000000000000000000000000000000000000000000000000000000007bffffffffffffffffffffffffffffffffffffffffffffffffffffffff1916827bffffffffffffffffffffffffffffffffffffffffffffffffffffffff1916145b8061376d575061376c82613888565b5b9050919050565b61377f8383836138f2565b600073ffffffffffffffffffffffffffffffffffffffff168373ffffffffffffffffffffffffffffffffffffffff1614156137c2576137bd816138f7565b613801565b8173ffffffffffffffffffffffffffffffffffffffff168373ffffffffffffffffffffffffffffffffffffffff1614613800576137ff8382613940565b5b5b600073ffffffffffffffffffffffffffffffffffffffff168273ffffffffffffffffffffffffffffffffffffffff1614156138445761383f81613aad565b613883565b8273ffffffffffffffffffffffffffffffffffffffff168273ffffffffffffffffffffffffffffffffffffffff1614613882576138818282613b7e565b5b5b505050565b60007f01ffc9a7000000000000000000000000000000000000000000000000000000007bffffffffffffffffffffffffffffffffffffffffffffffffffffffff1916827bffffffffffffffffffffffffffffffffffffffffffffffffffffffff1916149050919050565b505050565b60fd8054905060fe60008381526020019081526020016000208190555060fd81908060018154018082558091505060019003906000526020600020016000909190919091505550565b6000600161394d846110e7565b6139579190615235565b9050600060fc6000848152602001908152602001600020549050818114613a3c57600060fb60008673ffffffffffffffffffffffffffffffffffffffff1673ffffffffffffffffffffffffffffffffffffffff16815260200190815260200160002060008481526020019081526020016000205490508060fb60008773ffffffffffffffffffffffffffffffffffffffff1673ffffffffffffffffffffffffffffffffffffffff1681526020019081526020016000206000848152602001908152602001600020819055508160fc600083815260200190815260200160002081905550505b60fc60008481526020019081526020016000206000905560fb60008573ffffffffffffffffffffffffffffffffffffffff1673ffffffffffffffffffffffffffffffffffffffff16815260200190815260200160002060008381526020019081526020016000206000905550505050565b6000600160fd80549050613ac19190615235565b9050600060fe6000848152602001908152602001600020549050600060fd8381548110613af157613af0614d24565b5b906000526020600020015490508060fd8381548110613b1357613b12614d24565b5b90600052602060002001819055508160fe60008381526020019081526020016000208190555060fe60008581526020019081526020016000206000905560fd805480613b6257613b616157ef565b5b6001900381819060005260206000200160009055905550505050565b6000613b89836110e7565b90508160fb60008573ffffffffffffffffffffffffffffffffffffffff1673ffffffffffffffffffffffffffffffffffffffff1681526020019081526020016000206000838152602001908152602001600020819055508060fc600084815260200190815260200160002081905550505050565b828054613c09906147c9565b90600052602060002090601f016020900481019282613c2b5760008555613c72565b82601f10613c4457805160ff1916838001178555613c72565b82800160010185558215613c72579182015b82811115613c71578251825591602001919060010190613c56565b5b509050613c7f9190613c83565b5090565b5b80821115613c9c576000816000905550600101613c84565b5090565b6000604051905090565b600080fd5b600080fd5b60007fffffffff0000000000000000000000000000000000000000000000000000000082169050919050565b613ce981613cb4565b8114613cf457600080fd5b50565b600081359050613d0681613ce0565b92915050565b600060208284031215613d2257613d21613caa565b5b6000613d3084828501613cf7565b91505092915050565b60008115159050919050565b613d4e81613d39565b82525050565b6000602082019050613d696000830184613d45565b92915050565b600081519050919050565b600082825260208201905092915050565b60005b83811015613da9578082015181840152602081019050613d8e565b83811115613db8576000848401525b50505050565b6000601f19601f8301169050919050565b6000613dda82613d6f565b613de48185613d7a565b9350613df4818560208601613d8b565b613dfd81613dbe565b840191505092915050565b60006020820190508181036000830152613e228184613dcf565b905092915050565b6000819050919050565b613e3d81613e2a565b8114613e4857600080fd5b50565b600081359050613e5a81613e34565b92915050565b600060208284031215613e7657613e75613caa565b5b6000613e8484828501613e4b565b91505092915050565b600073ffffffffffffffffffffffffffffffffffffffff82169050919050565b6000613eb882613e8d565b9050919050565b613ec881613ead565b82525050565b6000602082019050613ee36000830184613ebf565b92915050565b613ef281613ead565b8114613efd57600080fd5b50565b600081359050613f0f81613ee9565b92915050565b60008060408385031215613f2c57613f2b613caa565b5b6000613f3a85828601613f00565b9250506020613f4b85828601613e4b565b9150509250929050565b613f5e81613e2a565b82525050565b6000602082019050613f796000830184613f55565b92915050565b600080600060608486031215613f9857613f97613caa565b5b6000613fa686828701613f00565b9350506020613fb786828701613f00565b9250506040613fc886828701613e4b565b9150509250925092565b6000819050919050565b613fe581613fd2565b8114613ff057600080fd5b50565b60008135905061400281613fdc565b92915050565b60006020828403121561401e5761401d613caa565b5b600061402c84828501613ff3565b91505092915050565b61403e81613fd2565b82525050565b60006020820190506140596000830184614035565b92915050565b6000806040838503121561407657614075613caa565b5b600061408485828601613ff3565b925050602061409585828601613f00565b9150509250929050565b600080fd5b600080fd5b7f4e487b7100000000000000000000000000000000000000000000000000000000600052604160045260246000fd5b6140e182613dbe565b810181811067ffffffffffffffff82111715614100576140ff6140a9565b5b80604052505050565b6000614113613ca0565b905061411f82826140d8565b919050565b600067ffffffffffffffff82111561413f5761413e6140a9565b5b61414882613dbe565b9050602081019050919050565b82818337600083830152505050565b600061417761417284614124565b614109565b905082815260208101848484011115614193576141926140a4565b5b61419e848285614155565b509392505050565b600082601f8301126141bb576141ba61409f565b5b81356141cb848260208601614164565b91505092915050565b6000806000606084860312156141ed576141ec613caa565b5b60006141fb86828701613f00565b935050602061420c86828701613f00565b925050604084013567ffffffffffffffff81111561422d5761422c613caf565b5b614239868287016141a6565b9150509250925092565b60006020828403121561425957614258613caa565b5b600082013567ffffffffffffffff81111561427757614276613caf565b5b614283848285016141a6565b91505092915050565b6000602082840312156142a2576142a1613caa565b5b60006142b084828501613f00565b91505092915050565b600081519050919050565b600082825260208201905092915050565b6000819050602082019050919050565b600082825260208201905092915050565b600061430182613d6f565b61430b81856142e5565b935061431b818560208601613d8b565b61432481613dbe565b840191505092915050565b600061433b83836142f6565b905092915050565b6000602082019050919050565b600061435b826142b9565b61436581856142c4565b935083602082028501614377856142d5565b8060005b858110156143b35784840389528151614394858261432f565b945061439f83614343565b925060208a0199505060018101905061437b565b50829750879550505050505092915050565b600060208201905081810360008301526143df8184614350565b905092915050565b600081519050919050565b600082825260208201905092915050565b6000819050602082019050919050565b61441c81613e2a565b82525050565b600061442e8383614413565b60208301905092915050565b6000602082019050919050565b6000614452826143e7565b61445c81856143f2565b935061446783614403565b8060005b8381101561449857815161447f8882614422565b975061448a8361443a565b92505060018101905061446b565b5085935050505092915050565b600060208201905081810360008301526144bf8184614447565b905092915050565b6144d081613d39565b81146144db57600080fd5b50565b6000813590506144ed816144c7565b92915050565b6000806040838503121561450a57614509613caa565b5b600061451885828601613f00565b9250506020614529858286016144de565b9150509250929050565b60008060006060848603121561454c5761454b613caa565b5b600084013567ffffffffffffffff81111561456a57614569613caf565b5b614576868287016141a6565b935050602084013567ffffffffffffffff81111561459757614596613caf565b5b6145a3868287016141a6565b925050604084013567ffffffffffffffff8111156145c4576145c3613caf565b5b6145d0868287016141a6565b9150509250925092565b600067ffffffffffffffff8211156145f5576145f46140a9565b5b6145fe82613dbe565b9050602081019050919050565b600061461e614619846145da565b614109565b90508281526020810184848401111561463a576146396140a4565b5b614645848285614155565b509392505050565b600082601f8301126146625761466161409f565b5b813561467284826020860161460b565b91505092915050565b6000806000806080858703121561469557614694613caa565b5b60006146a387828801613f00565b94505060206146b487828801613f00565b93505060406146c587828801613e4b565b925050606085013567ffffffffffffffff8111156146e6576146e5613caf565b5b6146f28782880161464d565b91505092959194509250565b6000806040838503121561471557614714613caa565b5b600061472385828601613f00565b925050602083013567ffffffffffffffff81111561474457614743613caf565b5b614750858286016141a6565b9150509250929050565b6000806040838503121561477157614770613caa565b5b600061477f85828601613f00565b925050602061479085828601613f00565b9150509250929050565b7f4e487b7100000000000000000000000000000000000000000000000000000000600052602260045260246000fd5b600060028204905060018216806147e157607f821691505b602082108114156147f5576147f461479a565b5b50919050565b7f4552433732313a20617070726f76656420717565727920666f72206e6f6e657860008201527f697374656e7420746f6b656e0000000000000000000000000000000000000000602082015250565b6000614857602c83613d7a565b9150614862826147fb565b604082019050919050565b600060208201905081810360008301526148868161484a565b9050919050565b7f4552433732313a20617070726f76616c20746f2063757272656e74206f776e6560008201527f7200000000000000000000000000000000000000000000000000000000000000602082015250565b60006148e9602183613d7a565b91506148f48261488d565b604082019050919050565b60006020820190508181036000830152614918816148dc565b9050919050565b7f4552433732313a20617070726f76652063616c6c6572206973206e6f74206f7760008201527f6e6572206e6f7220617070726f76656420666f7220616c6c0000000000000000602082015250565b600061497b603883613d7a565b91506149868261491f565b604082019050919050565b600060208201905081810360008301526149aa8161496e565b9050919050565b7f4552433732313a207472616e736665722063616c6c6572206973206e6f74206f60008201527f776e6572206e6f7220617070726f766564000000000000000000000000000000602082015250565b6000614a0d603183613d7a565b9150614a18826149b1565b604082019050919050565b60006020820190508181036000830152614a3c81614a00565b9050919050565b7f455243373231456e756d657261626c653a206f776e657220696e646578206f7560008201527f74206f6620626f756e6473000000000000000000000000000000000000000000602082015250565b6000614a9f602b83613d7a565b9150614aaa82614a43565b604082019050919050565b60006020820190508181036000830152614ace81614a92565b9050919050565b7f5573657220646f65736e27742065786973747300000000000000000000000000600082015250565b6000614b0b601383613d7a565b9150614b1682614ad5565b602082019050919050565b60006020820190508181036000830152614b3a81614afe565b9050919050565b600081905092915050565b6000614b5782613d6f565b614b618185614b41565b9350614b71818560208601613d8b565b80840191505092915050565b6000614b898284614b4c565b915081905092915050565b7f4f626a65637420616c7265616479206578697374730000000000000000000000600082015250565b6000614bca601583613d7a565b9150614bd582614b94565b602082019050919050565b60006020820190508181036000830152614bf981614bbd565b9050919050565b7f416363657373436f6e74726f6c3a2063616e206f6e6c792072656e6f756e636560008201527f20726f6c657320666f722073656c660000000000000000000000000000000000602082015250565b6000614c5c602f83613d7a565b9150614c6782614c00565b604082019050919050565b60006020820190508181036000830152614c8b81614c4f565b9050919050565b7f455243373231456e756d657261626c653a20676c6f62616c20696e646578206f60008201527f7574206f6620626f756e64730000000000000000000000000000000000000000602082015250565b6000614cee602c83613d7a565b9150614cf982614c92565b604082019050919050565b60006020820190508181036000830152614d1d81614ce1565b9050919050565b7f4e487b7100000000000000000000000000000000000000000000000000000000600052603260045260246000fd5b7f4f776e61626c653a2063616c6c6572206973206e6f7420746865206f776e6572600082015250565b6000614d89602083613d7a565b9150614d9482614d53565b602082019050919050565b60006020820190508181036000830152614db881614d7c565b9050919050565b7f4552433732313a206f776e657220717565727920666f72206e6f6e657869737460008201527f656e7420746f6b656e0000000000000000000000000000000000000000000000602082015250565b6000614e1b602983613d7a565b9150614e2682614dbf565b604082019050919050565b60006020820190508181036000830152614e4a81614e0e565b9050919050565b7f4552433732313a2062616c616e636520717565727920666f7220746865207a6560008201527f726f206164647265737300000000000000000000000000000000000000000000602082015250565b6000614ead602a83613d7a565b9150614eb882614e51565b604082019050919050565b60006020820190508181036000830152614edc81614ea0565b9050919050565b7f4e487b7100000000000000000000000000000000000000000000000000000000600052601160045260246000fd5b6000614f1d82613e2a565b91507fffffffffffffffffffffffffffffffffffffffffffffffffffffffffffffffff821415614f5057614f4f614ee3565b5b600182019050919050565b7f496e697469616c697a61626c653a20636f6e747261637420697320616c72656160008201527f647920696e697469616c697a6564000000000000000000000000000000000000602082015250565b6000614fb7602e83613d7a565b9150614fc282614f5b565b604082019050919050565b60006020820190508181036000830152614fe681614faa565b9050919050565b7f4f776e61626c653a206e6577206f776e657220697320746865207a65726f206160008201527f6464726573730000000000000000000000000000000000000000000000000000602082015250565b6000615049602683613d7a565b915061505482614fed565b604082019050919050565b600060208201905081810360008301526150788161503c565b9050919050565b7f4552433732313a206f70657261746f7220717565727920666f72206e6f6e657860008201527f697374656e7420746f6b656e0000000000000000000000000000000000000000602082015250565b60006150db602c83613d7a565b91506150e68261507f565b604082019050919050565b6000602082019050818103600083015261510a816150ce565b9050919050565b7f4552433732313a207472616e73666572206f6620746f6b656e2074686174206960008201527f73206e6f74206f776e0000000000000000000000000000000000000000000000602082015250565b600061516d602983613d7a565b915061517882615111565b604082019050919050565b6000602082019050818103600083015261519c81615160565b9050919050565b7f4552433732313a207472616e7366657220746f20746865207a65726f2061646460008201527f7265737300000000000000000000000000000000000000000000000000000000602082015250565b60006151ff602483613d7a565b915061520a826151a3565b604082019050919050565b6000602082019050818103600083015261522e816151f2565b9050919050565b600061524082613e2a565b915061524b83613e2a565b92508282101561525e5761525d614ee3565b5b828203905092915050565b600061527482613e2a565b915061527f83613e2a565b9250827fffffffffffffffffffffffffffffffffffffffffffffffffffffffffffffffff038211156152b4576152b3614ee3565b5b828201905092915050565b7f416363657373436f6e74726f6c3a206163636f756e7420000000000000000000600082015250565b60006152f5601783614b41565b9150615300826152bf565b601782019050919050565b7f206973206d697373696e6720726f6c6520000000000000000000000000000000600082015250565b6000615341601183614b41565b915061534c8261530b565b601182019050919050565b6000615362826152e8565b915061536e8285614b4c565b915061537982615334565b91506153858284614b4c565b91508190509392505050565b7f4552433732313a20617070726f766520746f2063616c6c657200000000000000600082015250565b60006153c7601983613d7a565b91506153d282615391565b602082019050919050565b600060208201905081810360008301526153f6816153ba565b9050919050565b7f4552433732313a207472616e7366657220746f206e6f6e20455243373231526560008201527f63656976657220696d706c656d656e7465720000000000000000000000000000602082015250565b6000615459603283613d7a565b9150615464826153fd565b604082019050919050565b600060208201905081810360008301526154888161544c565b9050919050565b600061549b8285614b4c565b91506154a78284614b4c565b91508190509392505050565b60006154be82613e2a565b91506154c983613e2a565b9250817fffffffffffffffffffffffffffffffffffffffffffffffffffffffffffffffff048311821515161561550257615501614ee3565b5b828202905092915050565b600061551882613e2a565b9150600082141561552c5761552b614ee3565b5b600182039050919050565b7f537472696e67733a20686578206c656e67746820696e73756666696369656e74600082015250565b600061556d602083613d7a565b915061557882615537565b602082019050919050565b6000602082019050818103600083015261559c81615560565b9050919050565b600081519050919050565b600082825260208201905092915050565b60006155ca826155a3565b6155d481856155ae565b93506155e4818560208601613d8b565b6155ed81613dbe565b840191505092915050565b600060808201905061560d6000830187613ebf565b61561a6020830186613ebf565b6156276040830185613f55565b818103606083015261563981846155bf565b905095945050505050565b60008151905061565381613ce0565b92915050565b60006020828403121561566f5761566e613caa565b5b600061567d84828501615644565b91505092915050565b7f4e487b7100000000000000000000000000000000000000000000000000000000600052601260045260246000fd5b60006156c082613e2a565b91506156cb83613e2a565b9250826156db576156da615686565b5b828204905092915050565b60006156f182613e2a565b91506156fc83613e2a565b92508261570c5761570b615686565b5b828206905092915050565b7f4552433732313a206d696e7420746f20746865207a65726f2061646472657373600082015250565b600061574d602083613d7a565b915061575882615717565b602082019050919050565b6000602082019050818103600083015261577c81615740565b9050919050565b7f4552433732313a20746f6b656e20616c7265616479206d696e74656400000000600082015250565b60006157b9601c83613d7a565b91506157c482615783565b602082019050919050565b600060208201905081810360008301526157e8816157ac565b9050919050565b7f4e487b7100000000000000000000000000000000000000000000000000000000600052603160045260246000fdfe4552433732314d657461646174613a2055524920736574206f66206e6f6e6578697374656e7420746f6b656e4552433732314d657461646174613a2055524920717565727920666f72206e6f6e6578697374656e7420746f6b656ea26469706673582212206938d126e6df6802788049b8479d9e97d024d06f648ec8623ce2dfe2f314bbb164736f6c634300080a0033",
  "immutableReferences": {},
  "source": "// SPDX-License-Identifier: MIT\npragma solidity >=0.4.22 <0.9.0;\n\n/// @title An NFT game for newcomer to the blockchain world. Can be used complementary to Bootcamps to get used to MetaMask and Dapps.\n/// @author Lena Hierzi\n/// @notice This contract is not aiming for security as it is designed for testing and only to be deployed on testnet.\n/// @dev All Contract imports can be found in the BaseContract. I think it might be quite heavy and expensive to compile. But it's on the testnet. So go crazy.\n/// @custom:experimental This is an experimental contract.\n\nimport \"./BaseContract.sol\";\n\ncontract Nft is BaseContract {\n    using CountersUpgradeable for CountersUpgradeable.Counter;\n    // <tokenIdCounter mapping>\n    CountersUpgradeable.Counter internal _tokenIdCounter;\n    // <tokensToOWner mapping>\n    mapping(uint256 => address) tokensToOwner;\n    // <tokenExist mapping>\n    mapping(string => bool) _tokenExists;\n    // <userExist mapping>\n    mapping(address => bool) _userExists;\n\n    /*\n     * Events\n     */\n\n    /*\n     * Modifiers\n     */\n    modifier tokenUnique(string memory token) {\n        require(!_tokenExists[token], \"Object already exists\");\n        _;\n    }\n    modifier userDoesntExists(address user) {\n        require(!_userExists[user], \"User doesn't exists\");\n        _;\n    }\n    modifier userExists(address user) {\n        require(_userExists[user], \"User doesn't exists\");\n        _;\n    }\n\n    /// only called once when contract is initialized. Same s constructor.\n    /// @inheritdoc BaseContract\n    function initialize(\n        string memory _name,\n        string memory _symbol,\n        string memory _baseTokenURI\n    ) public override(BaseContract) initializer {\n        BaseContract.initialize(_name, _symbol, _baseTokenURI);\n    }\n\n    /// @notice assigns MinterRolle to msg.sender so msg.sender can mint the NFT. Then Token is minted.\n    /// @dev unfortunatly it dosn't work yet to mint from another address\n    /// @param to The address, the Token should be transfered to\n    /// @param cid The CID of the Tokens metadata\n    /// @return _id\n    function mint(address to, string memory cid)\n        public\n        tokenUnique(cid)\n        userDoesntExists(to)\n        returns (uint256 _id)\n    {\n        _id = _tokenIdCounter.current();\n        _grantRole(MINTER_ROLE, to);\n        safeMint(to, cid);\n\n        return _id;\n    }\n\n    /// @notice The handshake function is called when a user interacts with another user and a new token is created. The token will only be issued for the caller of the function.\n    /// @dev should only work once per user pair\n    /// @param user1 The address, of the user the token will be asigned too\n    /// @param user2 The address of the user user1 interacted with.\n    /// @param cid The CID of the Tokens metadata\n    /// @return _id\n\n    function handShake(\n        address user1,\n        address user2,\n        string memory cid\n    )\n        public\n        payable\n        userExists(user1)\n        userExists(user2)\n        tokenUnique(cid)\n        returns (uint256 _id)\n    {\n        _id = _tokenIdCounter.current();\n        safeMint(user1, cid);\n        return _id;\n    }\n\n    /// @notice checks if the msg.sender has the minter role, if so the token is assigned to several mappings so you can later check who it belongs to, if it exists.\n    /// @dev unfortunatly it dosn't work yet to mint from another address\n    /// @param to The address, the Token should be transfered to\n    /// @param uri The CID of the Tokens metadata\n    function safeMint(address to, string memory uri)\n        public\n        onlyRole(MINTER_ROLE)\n    {\n        uint256 tokenId = _tokenIdCounter.current();\n        _setTokenURI(tokenId, uri);\n        tokensToOwner[tokenId] = to;\n        tokenURIs[tokenId] = uri;\n        _tokenExists[uri] = true;\n\n        _setTokenURI(tokenId, uri);\n        _safeMint(to, tokenId);\n        _tokenIdCounter.increment();\n    }\n\n    /// @notice Returns the cids of one owner without the BaseUri\n    /// @param _owner The person that wants to know which tokens belong to them\n    /// @return userTokens  all cids of tokens belonging to one owner\n    function tokensOfOwner(address _owner)\n        public\n        view\n        returns (string[] memory)\n    {\n        uint256 tokenCount = balanceOf(_owner);\n        uint256[] memory tokensId = new uint256[](tokenCount);\n        string[] memory userTokens = new string[](tokenCount);\n\n        for (uint256 i = 0; i < tokenCount; i++) {\n            tokensId[i] = tokenOfOwnerByIndex(_owner, i);\n            if (tokensId[i] == i) {\n                userTokens[i] = tokenURIs[i];\n            }\n        }\n        return userTokens;\n    }\n\n    /// @notice all tokenIds of tokens belonging to one owner\n    /// @param _owner The person that wants to know which tokens belong to them\n    /// @return tokensId\n    function tokenIdsOfOwner(address _owner)\n        public\n        view\n        returns (uint256[] memory)\n    {\n        uint256 tokenCount = balanceOf(_owner);\n        uint256[] memory tokensId = new uint256[](tokenCount);\n\n        for (uint256 i = 0; i < tokenCount; i++) {\n            tokensId[i] = tokenOfOwnerByIndex(_owner, i);\n        }\n        return tokensId;\n    }\n\n    /// @notice Returns the tokenUri of a token\n    /// @inheritdoc BaseContract\n    function tokenURI(uint256 tokenId)\n        public\n        view\n        override(BaseContract)\n        returns (string memory)\n    {\n        return super.tokenURI(tokenId);\n    }\n\n    /// @notice Returns the _baseURI of the contract\n    /// @inheritdoc BaseContract\n    function _baseURI()\n        internal\n        view\n        virtual\n        override(BaseContract)\n        returns (string memory)\n    {\n        return super._baseURI();\n    }\n\n    /// @notice Burns tokens\n    /// @inheritdoc BaseContract\n    function _burn(uint256 tokenId) internal virtual override(BaseContract) {\n        super._burn(tokenId);\n    }\n\n    ///  @notice The following functions are overrides for ERC721Enumerable required by Solidity.\n    /// @inheritdoc BaseContract\n\n    function _beforeTokenTransfer(\n        address from,\n        address to,\n        uint256 tokenId\n    ) internal override(BaseContract) {\n        super._beforeTokenTransfer(from, to, tokenId);\n    }\n\n    /// @inheritdoc BaseContract\n    function supportsInterface(bytes4 interfaceId)\n        public\n        view\n        override(BaseContract)\n        returns (bool)\n    {\n        return super.supportsInterface(interfaceId);\n    }\n}\n",
  "sourcePath": "/Users/lenahierzi/Developer/consensys/blockchain-developer-bootcamp-final-project/contracts/Nft.sol",
  "compiler": {
    "name": "solc",
    "version": "0.8.10+commit.fc410830.Emscripten.clang"
  },
  "schemaVersion": "3.4.3",
  "updatedAt": "2021-11-30T02:39:04.566Z",
  "devdoc": {
    "kind": "dev",
    "methods": {
      "approve(address,uint256)": {
        "details": "See {IERC721-approve}."
      },
      "balanceOf(address)": {
        "details": "See {IERC721-balanceOf}."
      },
      "getApproved(uint256)": {
        "details": "See {IERC721-getApproved}."
      },
      "getRoleAdmin(bytes32)": {
        "details": "Returns the admin role that controls `role`. See {grantRole} and {revokeRole}. To change a role's admin, use {_setRoleAdmin}."
      },
      "grantRole(bytes32,address)": {
        "details": "Grants `role` to `account`. If `account` had not been already granted `role`, emits a {RoleGranted} event. Requirements: - the caller must have ``role``'s admin role."
      },
      "handShake(address,address,string)": {
        "details": "should only work once per user pair",
        "params": {
          "cid": "The CID of the Tokens metadata",
          "user1": "The address, of the user the token will be asigned too",
          "user2": "The address of the user user1 interacted with."
        },
        "returns": {
          "_id": "_id"
        }
      },
      "hasRole(bytes32,address)": {
        "details": "Returns `true` if `account` has been granted `role`."
      },
      "initialize(string,string,string)": {
        "details": "upgrade will hopefully work soon",
        "params": {
          "_baseTokenURI": "The CID of the Tokens metadata",
          "_name": "The address, the Token should be transfered to",
          "_symbol": "The CID of the Tokens metadata"
        }
      },
      "isApprovedForAll(address,address)": {
        "details": "See {IERC721-isApprovedForAll}."
      },
      "mint(address,string)": {
        "details": "unfortunatly it dosn't work yet to mint from another address",
        "params": {
          "cid": "The CID of the Tokens metadata",
          "to": "The address, the Token should be transfered to"
        },
        "returns": {
          "_id": "_id"
        }
      },
      "name()": {
        "details": "See {IERC721Metadata-name}."
      },
      "owner()": {
        "details": "Returns the address of the current owner."
      },
      "ownerOf(uint256)": {
        "details": "See {IERC721-ownerOf}."
      },
      "renounceOwnership()": {
        "details": "Leaves the contract without owner. It will not be possible to call `onlyOwner` functions anymore. Can only be called by the current owner. NOTE: Renouncing ownership will leave the contract without an owner, thereby removing any functionality that is only available to the owner."
      },
      "renounceRole(bytes32,address)": {
        "details": "Revokes `role` from the calling account. Roles are often managed via {grantRole} and {revokeRole}: this function's purpose is to provide a mechanism for accounts to lose their privileges if they are compromised (such as when a trusted device is misplaced). If the calling account had been revoked `role`, emits a {RoleRevoked} event. Requirements: - the caller must be `account`."
      },
      "revokeRole(bytes32,address)": {
        "details": "Revokes `role` from `account`. If `account` had been granted `role`, emits a {RoleRevoked} event. Requirements: - the caller must have ``role``'s admin role."
      },
      "safeMint(address,string)": {
        "details": "unfortunatly it dosn't work yet to mint from another address",
        "params": {
          "to": "The address, the Token should be transfered to",
          "uri": "The CID of the Tokens metadata"
        }
      },
      "safeTransferFrom(address,address,uint256)": {
        "details": "See {IERC721-safeTransferFrom}."
      },
      "safeTransferFrom(address,address,uint256,bytes)": {
        "details": "See {IERC721-safeTransferFrom}."
      },
      "setApprovalForAll(address,bool)": {
        "details": "See {IERC721-setApprovalForAll}."
      },
      "setBaseURI(string)": {
        "params": {
          "baseURI_": "baseUri for Token (ipfs)"
        }
      },
      "supportsInterface(bytes4)": {
        "details": "See {IERC165-supportsInterface}."
      },
      "symbol()": {
        "details": "See {IERC721Metadata-symbol}."
      },
      "tokenByIndex(uint256)": {
        "details": "See {IERC721Enumerable-tokenByIndex}."
      },
      "tokenIdsOfOwner(address)": {
        "params": {
          "_owner": "The person that wants to know which tokens belong to them"
        },
        "returns": {
          "_0": "tokensId"
        }
      },
      "tokenOfOwnerByIndex(address,uint256)": {
        "details": "See {IERC721Enumerable-tokenOfOwnerByIndex}."
      },
      "tokenURI(uint256)": {
        "details": "If there is no base URI, return the token URI. If there is a baseURI but no tokenURI, concatenate the tokenID to the baseURI.",
        "params": {
          "tokenId": "of Token that should be burned"
        },
        "returns": {
          "_0": "tokenURI"
        }
      },
      "tokensOfOwner(address)": {
        "params": {
          "_owner": "The person that wants to know which tokens belong to them"
        },
        "returns": {
          "_0": "userTokens  all cids of tokens belonging to one owner"
        }
      },
      "totalSupply()": {
        "details": "See {IERC721Enumerable-totalSupply}."
      },
      "transferFrom(address,address,uint256)": {
        "details": "See {IERC721-transferFrom}."
      },
      "transferOwnership(address)": {
        "details": "Transfers ownership of the contract to a new account (`newOwner`). Can only be called by the current owner."
      }
    },
    "version": 1
  },
  "userdoc": {
    "kind": "user",
    "methods": {
      "handShake(address,address,string)": {
        "notice": "The handshake function is called when a user interacts with another user and a new token is created. The token will only be issued for the caller of the function."
      },
      "initialize(string,string,string)": {
        "notice": "only called once when contract is initialized. Same s constructor."
      },
      "mint(address,string)": {
        "notice": "assigns MinterRolle to msg.sender so msg.sender can mint the NFT. Then Token is minted."
      },
      "safeMint(address,string)": {
        "notice": "checks if the msg.sender has the minter role, if so the token is assigned to several mappings so you can later check who it belongs to, if it exists."
      },
      "setBaseURI(string)": {
        "notice": "Sets the _baseURI of the contract"
      },
      "tokenIdsOfOwner(address)": {
        "notice": "all tokenIds of tokens belonging to one owner"
      },
      "tokenURI(uint256)": {
        "notice": "Returns the tokenUri of a token"
      },
      "tokensOfOwner(address)": {
        "notice": "Returns the cids of one owner without the BaseUri"
      }
    },
    "version": 1
  }
}