{
  "contractName": "Nft",
  "abi": [
    {
      "anonymous": false,
      "inputs": [
        {
          "indexed": true,
          "internalType": "address",
          "name": "owner",
          "type": "address"
        },
        {
          "indexed": true,
          "internalType": "address",
          "name": "approved",
          "type": "address"
        },
        {
          "indexed": true,
          "internalType": "uint256",
          "name": "tokenId",
          "type": "uint256"
        }
      ],
      "name": "Approval",
      "type": "event"
    },
    {
      "anonymous": false,
      "inputs": [
        {
          "indexed": true,
          "internalType": "address",
          "name": "owner",
          "type": "address"
        },
        {
          "indexed": true,
          "internalType": "address",
          "name": "operator",
          "type": "address"
        },
        {
          "indexed": false,
          "internalType": "bool",
          "name": "approved",
          "type": "bool"
        }
      ],
      "name": "ApprovalForAll",
      "type": "event"
    },
    {
      "anonymous": false,
      "inputs": [
        {
          "indexed": true,
          "internalType": "address",
          "name": "previousOwner",
          "type": "address"
        },
        {
          "indexed": true,
          "internalType": "address",
          "name": "newOwner",
          "type": "address"
        }
      ],
      "name": "OwnershipTransferred",
      "type": "event"
    },
    {
      "anonymous": false,
      "inputs": [
        {
          "indexed": true,
          "internalType": "address",
          "name": "from",
          "type": "address"
        },
        {
          "indexed": true,
          "internalType": "address",
          "name": "to",
          "type": "address"
        },
        {
          "indexed": true,
          "internalType": "uint256",
          "name": "tokenId",
          "type": "uint256"
        }
      ],
      "name": "Transfer",
      "type": "event"
    },
    {
      "inputs": [],
      "name": "MAX_PER_MINT",
      "outputs": [
        {
          "internalType": "uint256",
          "name": "",
          "type": "uint256"
        }
      ],
      "stateMutability": "view",
      "type": "function",
      "constant": true
    },
    {
      "inputs": [],
      "name": "MAX_SUPPLY",
      "outputs": [
        {
          "internalType": "uint256",
          "name": "",
          "type": "uint256"
        }
      ],
      "stateMutability": "view",
      "type": "function",
      "constant": true
    },
    {
      "inputs": [
        {
          "internalType": "address",
          "name": "to",
          "type": "address"
        },
        {
          "internalType": "uint256",
          "name": "tokenId",
          "type": "uint256"
        }
      ],
      "name": "approve",
      "outputs": [],
      "stateMutability": "nonpayable",
      "type": "function"
    },
    {
      "inputs": [
        {
          "internalType": "address",
          "name": "owner",
          "type": "address"
        }
      ],
      "name": "balanceOf",
      "outputs": [
        {
          "internalType": "uint256",
          "name": "",
          "type": "uint256"
        }
      ],
      "stateMutability": "view",
      "type": "function",
      "constant": true
    },
    {
      "inputs": [
        {
          "internalType": "uint256",
          "name": "tokenId",
          "type": "uint256"
        }
      ],
      "name": "getApproved",
      "outputs": [
        {
          "internalType": "address",
          "name": "",
          "type": "address"
        }
      ],
      "stateMutability": "view",
      "type": "function",
      "constant": true
    },
    {
      "inputs": [
        {
          "internalType": "address",
          "name": "owner",
          "type": "address"
        },
        {
          "internalType": "address",
          "name": "operator",
          "type": "address"
        }
      ],
      "name": "isApprovedForAll",
      "outputs": [
        {
          "internalType": "bool",
          "name": "",
          "type": "bool"
        }
      ],
      "stateMutability": "view",
      "type": "function",
      "constant": true
    },
    {
      "inputs": [],
      "name": "name",
      "outputs": [
        {
          "internalType": "string",
          "name": "",
          "type": "string"
        }
      ],
      "stateMutability": "view",
      "type": "function",
      "constant": true
    },
    {
      "inputs": [],
      "name": "owner",
      "outputs": [
        {
          "internalType": "address",
          "name": "",
          "type": "address"
        }
      ],
      "stateMutability": "view",
      "type": "function",
      "constant": true
    },
    {
      "inputs": [
        {
          "internalType": "uint256",
          "name": "tokenId",
          "type": "uint256"
        }
      ],
      "name": "ownerOf",
      "outputs": [
        {
          "internalType": "address",
          "name": "",
          "type": "address"
        }
      ],
      "stateMutability": "view",
      "type": "function",
      "constant": true
    },
    {
      "inputs": [],
      "name": "renounceOwnership",
      "outputs": [],
      "stateMutability": "nonpayable",
      "type": "function"
    },
    {
      "inputs": [
        {
          "internalType": "address",
          "name": "from",
          "type": "address"
        },
        {
          "internalType": "address",
          "name": "to",
          "type": "address"
        },
        {
          "internalType": "uint256",
          "name": "tokenId",
          "type": "uint256"
        }
      ],
      "name": "safeTransferFrom",
      "outputs": [],
      "stateMutability": "nonpayable",
      "type": "function"
    },
    {
      "inputs": [
        {
          "internalType": "address",
          "name": "from",
          "type": "address"
        },
        {
          "internalType": "address",
          "name": "to",
          "type": "address"
        },
        {
          "internalType": "uint256",
          "name": "tokenId",
          "type": "uint256"
        },
        {
          "internalType": "bytes",
          "name": "_data",
          "type": "bytes"
        }
      ],
      "name": "safeTransferFrom",
      "outputs": [],
      "stateMutability": "nonpayable",
      "type": "function"
    },
    {
      "inputs": [
        {
          "internalType": "address",
          "name": "operator",
          "type": "address"
        },
        {
          "internalType": "bool",
          "name": "approved",
          "type": "bool"
        }
      ],
      "name": "setApprovalForAll",
      "outputs": [],
      "stateMutability": "nonpayable",
      "type": "function"
    },
    {
      "inputs": [],
      "name": "symbol",
      "outputs": [
        {
          "internalType": "string",
          "name": "",
          "type": "string"
        }
      ],
      "stateMutability": "view",
      "type": "function",
      "constant": true
    },
    {
      "inputs": [
        {
          "internalType": "uint256",
          "name": "index",
          "type": "uint256"
        }
      ],
      "name": "tokenByIndex",
      "outputs": [
        {
          "internalType": "uint256",
          "name": "",
          "type": "uint256"
        }
      ],
      "stateMutability": "view",
      "type": "function",
      "constant": true
    },
    {
      "inputs": [
        {
          "internalType": "address",
          "name": "owner",
          "type": "address"
        },
        {
          "internalType": "uint256",
          "name": "index",
          "type": "uint256"
        }
      ],
      "name": "tokenOfOwnerByIndex",
      "outputs": [
        {
          "internalType": "uint256",
          "name": "",
          "type": "uint256"
        }
      ],
      "stateMutability": "view",
      "type": "function",
      "constant": true
    },
    {
      "inputs": [],
      "name": "totalSupply",
      "outputs": [
        {
          "internalType": "uint256",
          "name": "",
          "type": "uint256"
        }
      ],
      "stateMutability": "view",
      "type": "function",
      "constant": true
    },
    {
      "inputs": [
        {
          "internalType": "address",
          "name": "from",
          "type": "address"
        },
        {
          "internalType": "address",
          "name": "to",
          "type": "address"
        },
        {
          "internalType": "uint256",
          "name": "tokenId",
          "type": "uint256"
        }
      ],
      "name": "transferFrom",
      "outputs": [],
      "stateMutability": "nonpayable",
      "type": "function"
    },
    {
      "inputs": [
        {
          "internalType": "address",
          "name": "newOwner",
          "type": "address"
        }
      ],
      "name": "transferOwnership",
      "outputs": [],
      "stateMutability": "nonpayable",
      "type": "function"
    },
    {
      "inputs": [
        {
          "internalType": "address",
          "name": "to",
          "type": "address"
        },
        {
          "internalType": "string",
          "name": "cid",
          "type": "string"
        }
      ],
      "name": "mint",
      "outputs": [
        {
          "internalType": "uint256",
          "name": "_id",
          "type": "uint256"
        }
      ],
      "stateMutability": "nonpayable",
      "type": "function"
    },
    {
      "inputs": [
        {
          "internalType": "address",
          "name": "_owner",
          "type": "address"
        }
      ],
      "name": "tokensOfOwner",
      "outputs": [
        {
          "internalType": "uint256[]",
          "name": "",
          "type": "uint256[]"
        }
      ],
      "stateMutability": "view",
      "type": "function",
      "constant": true
    },
    {
      "inputs": [
        {
          "internalType": "uint256",
          "name": "tokenId",
          "type": "uint256"
        }
      ],
      "name": "tokenURI",
      "outputs": [
        {
          "internalType": "string",
          "name": "",
          "type": "string"
        }
      ],
      "stateMutability": "view",
      "type": "function",
      "constant": true
    },
    {
      "inputs": [
        {
          "internalType": "bytes4",
          "name": "interfaceId",
          "type": "bytes4"
        }
      ],
      "name": "supportsInterface",
      "outputs": [
        {
          "internalType": "bool",
          "name": "",
          "type": "bool"
        }
      ],
      "stateMutability": "view",
      "type": "function",
      "constant": true
    }
  ],
  "bytecode": "0x60806040523480156200001157600080fd5b506040518060400160405280600381526020017f4e667400000000000000000000000000000000000000000000000000000000008152506040518060400160405280600781526020017f4f63746f707573000000000000000000000000000000000000000000000000008152508181816000908051906020019062000098929190620001bc565b508060019080519060200190620000b1929190620001bc565b505050620000e6620000d1620000ee640100000000026401000000009004565b620000f6640100000000026401000000009004565b5050620002d1565b600033905090565b6000600660009054906101000a900473ffffffffffffffffffffffffffffffffffffffff16905081600660006101000a81548173ffffffffffffffffffffffffffffffffffffffff021916908373ffffffffffffffffffffffffffffffffffffffff1602179055508173ffffffffffffffffffffffffffffffffffffffff168173ffffffffffffffffffffffffffffffffffffffff167f8be0079c531659141344cd1fd0a4f28419497f9722a3daafe3b4186f6b6457e060405160405180910390a35050565b828054620001ca906200029b565b90600052602060002090601f016020900481019282620001ee57600085556200023a565b82601f106200020957805160ff19168380011785556200023a565b828001600101855582156200023a579182015b82811115620002395782518255916020019190600101906200021c565b5b5090506200024991906200024d565b5090565b5b80821115620002685760008160009055506001016200024e565b5090565b7f4e487b7100000000000000000000000000000000000000000000000000000000600052602260045260246000fd5b60006002820490506001821680620002b457607f821691505b60208210811415620002cb57620002ca6200026c565b5b50919050565b613a9780620002e16000396000f3fe608060405234801561001057600080fd5b506004361061016a576000357c0100000000000000000000000000000000000000000000000000000000900480636352211e116100e0578063a22cb46511610099578063a22cb465146103d1578063b88d4fde146103ed578063c87b56dd14610409578063d0def52114610439578063e985e9c514610469578063f2fde38b146104995761016a565b80636352211e146102fb57806370a082311461032b578063715018a61461035b5780638462151c146103655780638da5cb5b1461039557806395d89b41146103b35761016a565b806318160ddd1161013257806318160ddd1461022757806323b872dd146102455780632f745c591461026157806332cb6b0c1461029157806342842e0e146102af5780634f6ccce7146102cb5761016a565b806301ffc9a71461016f57806306fdde031461019f578063081812fc146101bd578063095ea7b3146101ed57806309d42b3014610209575b600080fd5b610189600480360381019061018491906124d7565b6104b5565b604051610196919061251f565b60405180910390f35b6101a76104c7565b6040516101b491906125d3565b60405180910390f35b6101d760048036038101906101d2919061262b565b610559565b6040516101e49190612699565b60405180910390f35b610207600480360381019061020291906126e0565b6105de565b005b6102116106f6565b60405161021e919061272f565b60405180910390f35b61022f6106fb565b60405161023c919061272f565b60405180910390f35b61025f600480360381019061025a919061274a565b610708565b005b61027b600480360381019061027691906126e0565b610768565b604051610288919061272f565b60405180910390f35b61029961080d565b6040516102a6919061272f565b60405180910390f35b6102c960048036038101906102c4919061274a565b610813565b005b6102e560048036038101906102e0919061262b565b610833565b6040516102f2919061272f565b60405180910390f35b6103156004803603810190610310919061262b565b6108a4565b6040516103229190612699565b60405180910390f35b6103456004803603810190610340919061279d565b610956565b604051610352919061272f565b60405180910390f35b610363610a0e565b005b61037f600480360381019061037a919061279d565b610a96565b60405161038c9190612888565b60405180910390f35b61039d610b44565b6040516103aa9190612699565b60405180910390f35b6103bb610b6e565b6040516103c891906125d3565b60405180910390f35b6103eb60048036038101906103e691906128d6565b610c00565b005b61040760048036038101906104029190612a4b565b610c16565b005b610423600480360381019061041e919061262b565b610c78565b60405161043091906125d3565b60405180910390f35b610453600480360381019061044e9190612b6f565b610c8a565b604051610460919061272f565b60405180910390f35b610483600480360381019061047e9190612bcb565b610dd9565b604051610490919061251f565b60405180910390f35b6104b360048036038101906104ae919061279d565b610e6d565b005b60006104c082610f65565b9050919050565b6060600080546104d690612c3a565b80601f016020809104026020016040519081016040528092919081815260200182805461050290612c3a565b801561054f5780601f106105245761010080835404028352916020019161054f565b820191906000526020600020905b81548152906001019060200180831161053257829003601f168201915b5050505050905090565b600061056482610fdf565b6105a3576040517f08c379a000000000000000000000000000000000000000000000000000000000815260040161059a90612cde565b60405180910390fd5b6004600083815260200190815260200160002060009054906101000a900473ffffffffffffffffffffffffffffffffffffffff169050919050565b60006105e9826108a4565b90508073ffffffffffffffffffffffffffffffffffffffff168373ffffffffffffffffffffffffffffffffffffffff16141561065a576040517f08c379a000000000000000000000000000000000000000000000000000000000815260040161065190612d70565b60405180910390fd5b8073ffffffffffffffffffffffffffffffffffffffff1661067961104b565b73ffffffffffffffffffffffffffffffffffffffff1614806106a857506106a7816106a261104b565b610dd9565b5b6106e7576040517f08c379a00000000000000000000000000000000000000000000000000000000081526004016106de90612e02565b60405180910390fd5b6106f18383611053565b505050565b606481565b6000600980549050905090565b61071961071361104b565b8261110c565b610758576040517f08c379a000000000000000000000000000000000000000000000000000000000815260040161074f90612e94565b60405180910390fd5b6107638383836111ea565b505050565b600061077383610956565b82106107b4576040517f08c379a00000000000000000000000000000000000000000000000000000000081526004016107ab90612f26565b60405180910390fd5b600760008473ffffffffffffffffffffffffffffffffffffffff1673ffffffffffffffffffffffffffffffffffffffff168152602001908152602001600020600083815260200190815260200160002054905092915050565b61c35081565b61082e83838360405180602001604052806000815250610c16565b505050565b600061083d6106fb565b821061087e576040517f08c379a000000000000000000000000000000000000000000000000000000000815260040161087590612fb8565b60405180910390fd5b6009828154811061089257610891612fd8565b5b90600052602060002001549050919050565b6000806002600084815260200190815260200160002060009054906101000a900473ffffffffffffffffffffffffffffffffffffffff169050600073ffffffffffffffffffffffffffffffffffffffff168173ffffffffffffffffffffffffffffffffffffffff16141561094d576040517f08c379a000000000000000000000000000000000000000000000000000000000815260040161094490613079565b60405180910390fd5b80915050919050565b60008073ffffffffffffffffffffffffffffffffffffffff168273ffffffffffffffffffffffffffffffffffffffff1614156109c7576040517f08c379a00000000000000000000000000000000000000000000000000000000081526004016109be9061310b565b60405180910390fd5b600360008373ffffffffffffffffffffffffffffffffffffffff1673ffffffffffffffffffffffffffffffffffffffff168152602001908152602001600020549050919050565b610a1661104b565b73ffffffffffffffffffffffffffffffffffffffff16610a34610b44565b73ffffffffffffffffffffffffffffffffffffffff1614610a8a576040517f08c379a0000000000000000000000000000000000000000000000000000000008152600401610a8190613177565b60405180910390fd5b610a946000611446565b565b60606000610aa383610956565b905060008167ffffffffffffffff811115610ac157610ac0612920565b5b604051908082528060200260200182016040528015610aef5781602001602082028036833780820191505090505b50905060005b82811015610b3957610b078582610768565b828281518110610b1a57610b19612fd8565b5b6020026020010181815250508080610b31906131c6565b915050610af5565b508092505050919050565b6000600660009054906101000a900473ffffffffffffffffffffffffffffffffffffffff16905090565b606060018054610b7d90612c3a565b80601f0160208091040260200160405190810160405280929190818152602001828054610ba990612c3a565b8015610bf65780601f10610bcb57610100808354040283529160200191610bf6565b820191906000526020600020905b815481529060010190602001808311610bd957829003601f168201915b5050505050905090565b610c12610c0b61104b565b838361150c565b5050565b610c27610c2161104b565b8361110c565b610c66576040517f08c379a0000000000000000000000000000000000000000000000000000000008152600401610c5d90612e94565b60405180910390fd5b610c7284848484611679565b50505050565b6060610c83826116d5565b9050919050565b6000600e82604051610c9c919061324b565b908152602001604051809103902060009054906101000a900460ff1615610cf8576040517f08c379a0000000000000000000000000000000000000000000000000000000008152600401610cef906132ae565b60405180910390fd5b610d02600d611848565b9050610d0e8382611856565b82600c600083815260200190815260200160002060006101000a81548173ffffffffffffffffffffffffffffffffffffffff021916908373ffffffffffffffffffffffffffffffffffffffff16021790555081600b60008381526020019081526020016000209080519060200190610d879291906123c8565b506001600e83604051610d9a919061324b565b908152602001604051809103902060006101000a81548160ff021916908315150217905550610dc98183611a24565b610dd3600d611a98565b92915050565b6000600560008473ffffffffffffffffffffffffffffffffffffffff1673ffffffffffffffffffffffffffffffffffffffff16815260200190815260200160002060008373ffffffffffffffffffffffffffffffffffffffff1673ffffffffffffffffffffffffffffffffffffffff16815260200190815260200160002060009054906101000a900460ff16905092915050565b610e7561104b565b73ffffffffffffffffffffffffffffffffffffffff16610e93610b44565b73ffffffffffffffffffffffffffffffffffffffff1614610ee9576040517f08c379a0000000000000000000000000000000000000000000000000000000008152600401610ee090613177565b60405180910390fd5b600073ffffffffffffffffffffffffffffffffffffffff168173ffffffffffffffffffffffffffffffffffffffff161415610f59576040517f08c379a0000000000000000000000000000000000000000000000000000000008152600401610f5090613340565b60405180910390fd5b610f6281611446565b50565b60007f780e9d63000000000000000000000000000000000000000000000000000000007bffffffffffffffffffffffffffffffffffffffffffffffffffffffff1916827bffffffffffffffffffffffffffffffffffffffffffffffffffffffff19161480610fd85750610fd782611aae565b5b9050919050565b60008073ffffffffffffffffffffffffffffffffffffffff166002600084815260200190815260200160002060009054906101000a900473ffffffffffffffffffffffffffffffffffffffff1673ffffffffffffffffffffffffffffffffffffffff1614159050919050565b600033905090565b816004600083815260200190815260200160002060006101000a81548173ffffffffffffffffffffffffffffffffffffffff021916908373ffffffffffffffffffffffffffffffffffffffff160217905550808273ffffffffffffffffffffffffffffffffffffffff166110c6836108a4565b73ffffffffffffffffffffffffffffffffffffffff167f8c5be1e5ebec7d5bd14f71427d1e84f3dd0314c0f7b2291e5b200ac8c7c3b92560405160405180910390a45050565b600061111782610fdf565b611156576040517f08c379a000000000000000000000000000000000000000000000000000000000815260040161114d906133d2565b60405180910390fd5b6000611161836108a4565b90508073ffffffffffffffffffffffffffffffffffffffff168473ffffffffffffffffffffffffffffffffffffffff1614806111d057508373ffffffffffffffffffffffffffffffffffffffff166111b884610559565b73ffffffffffffffffffffffffffffffffffffffff16145b806111e157506111e08185610dd9565b5b91505092915050565b8273ffffffffffffffffffffffffffffffffffffffff1661120a826108a4565b73ffffffffffffffffffffffffffffffffffffffff1614611260576040517f08c379a000000000000000000000000000000000000000000000000000000000815260040161125790613464565b60405180910390fd5b600073ffffffffffffffffffffffffffffffffffffffff168273ffffffffffffffffffffffffffffffffffffffff1614156112d0576040517f08c379a00000000000000000000000000000000000000000000000000000000081526004016112c7906134f6565b60405180910390fd5b6112db838383611b90565b6112e6600082611053565b6001600360008573ffffffffffffffffffffffffffffffffffffffff1673ffffffffffffffffffffffffffffffffffffffff16815260200190815260200160002060008282546113369190613516565b925050819055506001600360008473ffffffffffffffffffffffffffffffffffffffff1673ffffffffffffffffffffffffffffffffffffffff168152602001908152602001600020600082825461138d919061354a565b92505081905550816002600083815260200190815260200160002060006101000a81548173ffffffffffffffffffffffffffffffffffffffff021916908373ffffffffffffffffffffffffffffffffffffffff160217905550808273ffffffffffffffffffffffffffffffffffffffff168473ffffffffffffffffffffffffffffffffffffffff167fddf252ad1be2c89b69c2b068fc378daa952ba7f163c4a11628f55a4df523b3ef60405160405180910390a4505050565b6000600660009054906101000a900473ffffffffffffffffffffffffffffffffffffffff16905081600660006101000a81548173ffffffffffffffffffffffffffffffffffffffff021916908373ffffffffffffffffffffffffffffffffffffffff1602179055508173ffffffffffffffffffffffffffffffffffffffff168173ffffffffffffffffffffffffffffffffffffffff167f8be0079c531659141344cd1fd0a4f28419497f9722a3daafe3b4186f6b6457e060405160405180910390a35050565b8173ffffffffffffffffffffffffffffffffffffffff168373ffffffffffffffffffffffffffffffffffffffff16141561157b576040517f08c379a0000000000000000000000000000000000000000000000000000000008152600401611572906135ec565b60405180910390fd5b80600560008573ffffffffffffffffffffffffffffffffffffffff1673ffffffffffffffffffffffffffffffffffffffff16815260200190815260200160002060008473ffffffffffffffffffffffffffffffffffffffff1673ffffffffffffffffffffffffffffffffffffffff16815260200190815260200160002060006101000a81548160ff0219169083151502179055508173ffffffffffffffffffffffffffffffffffffffff168373ffffffffffffffffffffffffffffffffffffffff167f17307eab39ab6107e8899845ad3d59bd9653f200f220920489ca2b5937696c318360405161166c919061251f565b60405180910390a3505050565b6116848484846111ea565b61169084848484611ba0565b6116cf576040517f08c379a00000000000000000000000000000000000000000000000000000000081526004016116c69061367e565b60405180910390fd5b50505050565b60606116e082610fdf565b61171f576040517f08c379a000000000000000000000000000000000000000000000000000000000815260040161171690613710565b60405180910390fd5b6000600b6000848152602001908152602001600020805461173f90612c3a565b80601f016020809104026020016040519081016040528092919081815260200182805461176b90612c3a565b80156117b85780601f1061178d576101008083540402835291602001916117b8565b820191906000526020600020905b81548152906001019060200180831161179b57829003601f168201915b5050505050905060006117c9611d60565b90506000815114156117df578192505050611843565b6000825111156118145780826040516020016117fc929190613730565b60405160208183030381529060405292505050611843565b8061181e85611d6f565b60405160200161182f929190613730565b604051602081830303815290604052925050505b919050565b600081600001549050919050565b600073ffffffffffffffffffffffffffffffffffffffff168273ffffffffffffffffffffffffffffffffffffffff1614156118c6576040517f08c379a00000000000000000000000000000000000000000000000000000000081526004016118bd906137a0565b60405180910390fd5b6118cf81610fdf565b1561190f576040517f08c379a00000000000000000000000000000000000000000000000000000000081526004016119069061380c565b60405180910390fd5b61191b60008383611b90565b6001600360008473ffffffffffffffffffffffffffffffffffffffff1673ffffffffffffffffffffffffffffffffffffffff168152602001908152602001600020600082825461196b919061354a565b92505081905550816002600083815260200190815260200160002060006101000a81548173ffffffffffffffffffffffffffffffffffffffff021916908373ffffffffffffffffffffffffffffffffffffffff160217905550808273ffffffffffffffffffffffffffffffffffffffff16600073ffffffffffffffffffffffffffffffffffffffff167fddf252ad1be2c89b69c2b068fc378daa952ba7f163c4a11628f55a4df523b3ef60405160405180910390a45050565b611a2d82610fdf565b611a6c576040517f08c379a0000000000000000000000000000000000000000000000000000000008152600401611a639061389e565b60405180910390fd5b80600b60008481526020019081526020016000209080519060200190611a939291906123c8565b505050565b6001816000016000828254019250508190555050565b60007f80ac58cd000000000000000000000000000000000000000000000000000000007bffffffffffffffffffffffffffffffffffffffffffffffffffffffff1916827bffffffffffffffffffffffffffffffffffffffffffffffffffffffff19161480611b7957507f5b5e139f000000000000000000000000000000000000000000000000000000007bffffffffffffffffffffffffffffffffffffffffffffffffffffffff1916827bffffffffffffffffffffffffffffffffffffffffffffffffffffffff1916145b80611b895750611b8882611eef565b5b9050919050565b611b9b838383611f59565b505050565b6000611bc18473ffffffffffffffffffffffffffffffffffffffff1661206d565b15611d53578373ffffffffffffffffffffffffffffffffffffffff1663150b7a02611bea61104b565b8786866040518563ffffffff167c0100000000000000000000000000000000000000000000000000000000028152600401611c289493929190613913565b6020604051808303816000875af1925050508015611c6457506040513d601f19601f82011682018060405250810190611c619190613974565b60015b611ce7573d8060008114611c94576040519150601f19603f3d011682016040523d82523d6000602084013e611c99565b606091505b50600081511415611cdf576040517f08c379a0000000000000000000000000000000000000000000000000000000008152600401611cd69061367e565b60405180910390fd5b805181602001fd5b63150b7a027c0100000000000000000000000000000000000000000000000000000000027bffffffffffffffffffffffffffffffffffffffffffffffffffffffff1916817bffffffffffffffffffffffffffffffffffffffffffffffffffffffff191614915050611d58565b600190505b949350505050565b6060611d6a612080565b905090565b60606000821415611db7576040518060400160405280600181526020017f30000000000000000000000000000000000000000000000000000000000000008152509050611eea565b600082905060005b60008214611de9578080611dd2906131c6565b915050600a82611de291906139d0565b9150611dbf565b60008167ffffffffffffffff811115611e0557611e04612920565b5b6040519080825280601f01601f191660200182016040528015611e375781602001600182028036833780820191505090505b5090505b60008514611ee357600182611e509190613516565b9150600a85611e5f9190613a01565b6030611e6b919061354a565b7f010000000000000000000000000000000000000000000000000000000000000002818381518110611ea057611e9f612fd8565b5b60200101907effffffffffffffffffffffffffffffffffffffffffffffffffffffffffffff1916908160001a905350600a85611edc91906139d0565b9450611e3b565b8093505050505b919050565b60007f01ffc9a7000000000000000000000000000000000000000000000000000000007bffffffffffffffffffffffffffffffffffffffffffffffffffffffff1916827bffffffffffffffffffffffffffffffffffffffffffffffffffffffff1916149050919050565b611f648383836120bd565b600073ffffffffffffffffffffffffffffffffffffffff168373ffffffffffffffffffffffffffffffffffffffff161415611fa757611fa2816120c2565b611fe6565b8173ffffffffffffffffffffffffffffffffffffffff168373ffffffffffffffffffffffffffffffffffffffff1614611fe557611fe4838261210b565b5b5b600073ffffffffffffffffffffffffffffffffffffffff168273ffffffffffffffffffffffffffffffffffffffff1614156120295761202481612278565b612068565b8273ffffffffffffffffffffffffffffffffffffffff168273ffffffffffffffffffffffffffffffffffffffff1614612067576120668282612349565b5b5b505050565b600080823b905060008111915050919050565b60606040518060400160405280601581526020017f68747470733a2f2f697066732e696f2f697066732f0000000000000000000000815250905090565b505050565b600980549050600a600083815260200190815260200160002081905550600981908060018154018082558091505060019003906000526020600020016000909190919091505550565b6000600161211884610956565b6121229190613516565b9050600060086000848152602001908152602001600020549050818114612207576000600760008673ffffffffffffffffffffffffffffffffffffffff1673ffffffffffffffffffffffffffffffffffffffff168152602001908152602001600020600084815260200190815260200160002054905080600760008773ffffffffffffffffffffffffffffffffffffffff1673ffffffffffffffffffffffffffffffffffffffff168152602001908152602001600020600084815260200190815260200160002081905550816008600083815260200190815260200160002081905550505b6008600084815260200190815260200160002060009055600760008573ffffffffffffffffffffffffffffffffffffffff1673ffffffffffffffffffffffffffffffffffffffff16815260200190815260200160002060008381526020019081526020016000206000905550505050565b6000600160098054905061228c9190613516565b90506000600a60008481526020019081526020016000205490506000600983815481106122bc576122bb612fd8565b5b9060005260206000200154905080600983815481106122de576122dd612fd8565b5b906000526020600020018190555081600a600083815260200190815260200160002081905550600a600085815260200190815260200160002060009055600980548061232d5761232c613a32565b5b6001900381819060005260206000200160009055905550505050565b600061235483610956565b905081600760008573ffffffffffffffffffffffffffffffffffffffff1673ffffffffffffffffffffffffffffffffffffffff168152602001908152602001600020600083815260200190815260200160002081905550806008600084815260200190815260200160002081905550505050565b8280546123d490612c3a565b90600052602060002090601f0160209004810192826123f6576000855561243d565b82601f1061240f57805160ff191683800117855561243d565b8280016001018555821561243d579182015b8281111561243c578251825591602001919060010190612421565b5b50905061244a919061244e565b5090565b5b8082111561246757600081600090555060010161244f565b5090565b6000604051905090565b600080fd5b600080fd5b60007fffffffff0000000000000000000000000000000000000000000000000000000082169050919050565b6124b48161247f565b81146124bf57600080fd5b50565b6000813590506124d1816124ab565b92915050565b6000602082840312156124ed576124ec612475565b5b60006124fb848285016124c2565b91505092915050565b60008115159050919050565b61251981612504565b82525050565b60006020820190506125346000830184612510565b92915050565b600081519050919050565b600082825260208201905092915050565b60005b83811015612574578082015181840152602081019050612559565b83811115612583576000848401525b50505050565b6000601f19601f8301169050919050565b60006125a58261253a565b6125af8185612545565b93506125bf818560208601612556565b6125c881612589565b840191505092915050565b600060208201905081810360008301526125ed818461259a565b905092915050565b6000819050919050565b612608816125f5565b811461261357600080fd5b50565b600081359050612625816125ff565b92915050565b60006020828403121561264157612640612475565b5b600061264f84828501612616565b91505092915050565b600073ffffffffffffffffffffffffffffffffffffffff82169050919050565b600061268382612658565b9050919050565b61269381612678565b82525050565b60006020820190506126ae600083018461268a565b92915050565b6126bd81612678565b81146126c857600080fd5b50565b6000813590506126da816126b4565b92915050565b600080604083850312156126f7576126f6612475565b5b6000612705858286016126cb565b925050602061271685828601612616565b9150509250929050565b612729816125f5565b82525050565b60006020820190506127446000830184612720565b92915050565b60008060006060848603121561276357612762612475565b5b6000612771868287016126cb565b9350506020612782868287016126cb565b925050604061279386828701612616565b9150509250925092565b6000602082840312156127b3576127b2612475565b5b60006127c1848285016126cb565b91505092915050565b600081519050919050565b600082825260208201905092915050565b6000819050602082019050919050565b6127ff816125f5565b82525050565b600061281183836127f6565b60208301905092915050565b6000602082019050919050565b6000612835826127ca565b61283f81856127d5565b935061284a836127e6565b8060005b8381101561287b5781516128628882612805565b975061286d8361281d565b92505060018101905061284e565b5085935050505092915050565b600060208201905081810360008301526128a2818461282a565b905092915050565b6128b381612504565b81146128be57600080fd5b50565b6000813590506128d0816128aa565b92915050565b600080604083850312156128ed576128ec612475565b5b60006128fb858286016126cb565b925050602061290c858286016128c1565b9150509250929050565b600080fd5b600080fd5b7f4e487b7100000000000000000000000000000000000000000000000000000000600052604160045260246000fd5b61295882612589565b810181811067ffffffffffffffff8211171561297757612976612920565b5b80604052505050565b600061298a61246b565b9050612996828261294f565b919050565b600067ffffffffffffffff8211156129b6576129b5612920565b5b6129bf82612589565b9050602081019050919050565b82818337600083830152505050565b60006129ee6129e98461299b565b612980565b905082815260208101848484011115612a0a57612a0961291b565b5b612a158482856129cc565b509392505050565b600082601f830112612a3257612a31612916565b5b8135612a428482602086016129db565b91505092915050565b60008060008060808587031215612a6557612a64612475565b5b6000612a73878288016126cb565b9450506020612a84878288016126cb565b9350506040612a9587828801612616565b925050606085013567ffffffffffffffff811115612ab657612ab561247a565b5b612ac287828801612a1d565b91505092959194509250565b600067ffffffffffffffff821115612ae957612ae8612920565b5b612af282612589565b9050602081019050919050565b6000612b12612b0d84612ace565b612980565b905082815260208101848484011115612b2e57612b2d61291b565b5b612b398482856129cc565b509392505050565b600082601f830112612b5657612b55612916565b5b8135612b66848260208601612aff565b91505092915050565b60008060408385031215612b8657612b85612475565b5b6000612b94858286016126cb565b925050602083013567ffffffffffffffff811115612bb557612bb461247a565b5b612bc185828601612b41565b9150509250929050565b60008060408385031215612be257612be1612475565b5b6000612bf0858286016126cb565b9250506020612c01858286016126cb565b9150509250929050565b7f4e487b7100000000000000000000000000000000000000000000000000000000600052602260045260246000fd5b60006002820490506001821680612c5257607f821691505b60208210811415612c6657612c65612c0b565b5b50919050565b7f4552433732313a20617070726f76656420717565727920666f72206e6f6e657860008201527f697374656e7420746f6b656e0000000000000000000000000000000000000000602082015250565b6000612cc8602c83612545565b9150612cd382612c6c565b604082019050919050565b60006020820190508181036000830152612cf781612cbb565b9050919050565b7f4552433732313a20617070726f76616c20746f2063757272656e74206f776e6560008201527f7200000000000000000000000000000000000000000000000000000000000000602082015250565b6000612d5a602183612545565b9150612d6582612cfe565b604082019050919050565b60006020820190508181036000830152612d8981612d4d565b9050919050565b7f4552433732313a20617070726f76652063616c6c6572206973206e6f74206f7760008201527f6e6572206e6f7220617070726f76656420666f7220616c6c0000000000000000602082015250565b6000612dec603883612545565b9150612df782612d90565b604082019050919050565b60006020820190508181036000830152612e1b81612ddf565b9050919050565b7f4552433732313a207472616e736665722063616c6c6572206973206e6f74206f60008201527f776e6572206e6f7220617070726f766564000000000000000000000000000000602082015250565b6000612e7e603183612545565b9150612e8982612e22565b604082019050919050565b60006020820190508181036000830152612ead81612e71565b9050919050565b7f455243373231456e756d657261626c653a206f776e657220696e646578206f7560008201527f74206f6620626f756e6473000000000000000000000000000000000000000000602082015250565b6000612f10602b83612545565b9150612f1b82612eb4565b604082019050919050565b60006020820190508181036000830152612f3f81612f03565b9050919050565b7f455243373231456e756d657261626c653a20676c6f62616c20696e646578206f60008201527f7574206f6620626f756e64730000000000000000000000000000000000000000602082015250565b6000612fa2602c83612545565b9150612fad82612f46565b604082019050919050565b60006020820190508181036000830152612fd181612f95565b9050919050565b7f4e487b7100000000000000000000000000000000000000000000000000000000600052603260045260246000fd5b7f4552433732313a206f776e657220717565727920666f72206e6f6e657869737460008201527f656e7420746f6b656e0000000000000000000000000000000000000000000000602082015250565b6000613063602983612545565b915061306e82613007565b604082019050919050565b6000602082019050818103600083015261309281613056565b9050919050565b7f4552433732313a2062616c616e636520717565727920666f7220746865207a6560008201527f726f206164647265737300000000000000000000000000000000000000000000602082015250565b60006130f5602a83612545565b915061310082613099565b604082019050919050565b60006020820190508181036000830152613124816130e8565b9050919050565b7f4f776e61626c653a2063616c6c6572206973206e6f7420746865206f776e6572600082015250565b6000613161602083612545565b915061316c8261312b565b602082019050919050565b6000602082019050818103600083015261319081613154565b9050919050565b7f4e487b7100000000000000000000000000000000000000000000000000000000600052601160045260246000fd5b60006131d1826125f5565b91507fffffffffffffffffffffffffffffffffffffffffffffffffffffffffffffffff82141561320457613203613197565b5b600182019050919050565b600081905092915050565b60006132258261253a565b61322f818561320f565b935061323f818560208601612556565b80840191505092915050565b6000613257828461321a565b915081905092915050565b7f4f626a65637420616c7265616479206578697374730000000000000000000000600082015250565b6000613298601583612545565b91506132a382613262565b602082019050919050565b600060208201905081810360008301526132c78161328b565b9050919050565b7f4f776e61626c653a206e6577206f776e657220697320746865207a65726f206160008201527f6464726573730000000000000000000000000000000000000000000000000000602082015250565b600061332a602683612545565b9150613335826132ce565b604082019050919050565b600060208201905081810360008301526133598161331d565b9050919050565b7f4552433732313a206f70657261746f7220717565727920666f72206e6f6e657860008201527f697374656e7420746f6b656e0000000000000000000000000000000000000000602082015250565b60006133bc602c83612545565b91506133c782613360565b604082019050919050565b600060208201905081810360008301526133eb816133af565b9050919050565b7f4552433732313a207472616e73666572206f6620746f6b656e2074686174206960008201527f73206e6f74206f776e0000000000000000000000000000000000000000000000602082015250565b600061344e602983612545565b9150613459826133f2565b604082019050919050565b6000602082019050818103600083015261347d81613441565b9050919050565b7f4552433732313a207472616e7366657220746f20746865207a65726f2061646460008201527f7265737300000000000000000000000000000000000000000000000000000000602082015250565b60006134e0602483612545565b91506134eb82613484565b604082019050919050565b6000602082019050818103600083015261350f816134d3565b9050919050565b6000613521826125f5565b915061352c836125f5565b92508282101561353f5761353e613197565b5b828203905092915050565b6000613555826125f5565b9150613560836125f5565b9250827fffffffffffffffffffffffffffffffffffffffffffffffffffffffffffffffff0382111561359557613594613197565b5b828201905092915050565b7f4552433732313a20617070726f766520746f2063616c6c657200000000000000600082015250565b60006135d6601983612545565b91506135e1826135a0565b602082019050919050565b60006020820190508181036000830152613605816135c9565b9050919050565b7f4552433732313a207472616e7366657220746f206e6f6e20455243373231526560008201527f63656976657220696d706c656d656e7465720000000000000000000000000000602082015250565b6000613668603283612545565b91506136738261360c565b604082019050919050565b600060208201905081810360008301526136978161365b565b9050919050565b7f4552433732314d657461646174613a2055524920717565727920666f72206e6f60008201527f6e6578697374656e7420746f6b656e0000000000000000000000000000000000602082015250565b60006136fa602f83612545565b91506137058261369e565b604082019050919050565b60006020820190508181036000830152613729816136ed565b9050919050565b600061373c828561321a565b9150613748828461321a565b91508190509392505050565b7f4552433732313a206d696e7420746f20746865207a65726f2061646472657373600082015250565b600061378a602083612545565b915061379582613754565b602082019050919050565b600060208201905081810360008301526137b98161377d565b9050919050565b7f4552433732313a20746f6b656e20616c7265616479206d696e74656400000000600082015250565b60006137f6601c83612545565b9150613801826137c0565b602082019050919050565b60006020820190508181036000830152613825816137e9565b9050919050565b7f4552433732314d657461646174613a2055524920736574206f66206e6f6e657860008201527f697374656e7420746f6b656e0000000000000000000000000000000000000000602082015250565b6000613888602c83612545565b91506138938261382c565b604082019050919050565b600060208201905081810360008301526138b78161387b565b9050919050565b600081519050919050565b600082825260208201905092915050565b60006138e5826138be565b6138ef81856138c9565b93506138ff818560208601612556565b61390881612589565b840191505092915050565b6000608082019050613928600083018761268a565b613935602083018661268a565b6139426040830185612720565b818103606083015261395481846138da565b905095945050505050565b60008151905061396e816124ab565b92915050565b60006020828403121561398a57613989612475565b5b60006139988482850161395f565b91505092915050565b7f4e487b7100000000000000000000000000000000000000000000000000000000600052601260045260246000fd5b60006139db826125f5565b91506139e6836125f5565b9250826139f6576139f56139a1565b5b828204905092915050565b6000613a0c826125f5565b9150613a17836125f5565b925082613a2757613a266139a1565b5b828206905092915050565b7f4e487b7100000000000000000000000000000000000000000000000000000000600052603160045260246000fdfea2646970667358221220e0b2b35e86767ee0fa1babf119e62a7ca95ea0a667a4c9d9f769eea20e9e965364736f6c634300080a0033",
  "immutableReferences": {},
  "source": "// SPDX-License-Identifier: MIT\npragma solidity 0.8.10;\n/// @title An NFT game for newcomer to the blockchain world. Can be used complementary to Bootcamps to get used to MetaMask and Dapps.\n/// @author Lena Hierzi\n/// @notice This contract is not aiming for security as it is designed for a playful entry into Dapps and only to be deployed on testnet.\n/// @custom:experimental This is an experimental contract.\n\nimport \"@openzeppelin/contracts/token/ERC721/ERC721.sol\";\nimport \"@openzeppelin/contracts/access/Ownable.sol\";\nimport \"@openzeppelin/contracts/utils/math/SafeMath.sol\";\nimport \"@openzeppelin/contracts/utils/Counters.sol\";\nimport \"@openzeppelin/contracts/token/ERC721/extensions/ERC721Enumerable.sol\";\nimport \"./BaseContract.sol\";\n\ncontract Nft is\n    ERC721,\n    Ownable,\n    ERC721Enumerable,\n    BaseContract(\"Nft\", \"Octopus\")\n{\n    using SafeMath for uint256;\n    using Strings for uint256;\n    using Counters for Counters.Counter;\n    uint256 public constant MAX_SUPPLY = 50000;\n    // uint256 public constant PRICE = 0.0001 ether;\n    uint256 public constant MAX_PER_MINT = 100;\n    mapping(uint256 => address) tokensToOwner;\n\n    Counters.Counter private _tokenIds;\n    mapping(string => bool) _tokenExists;\n    mapping(address => bool) _userExists;\n\n    /// @notice assigns MinterRolle to msg.sender so msg.sender can mint the NFT. Then Token is minted. Can only be called once by every user.\n    /// @dev unfortunatly it dosn't work yet to mint from another address\n    /// @param to The address, the Token should be transfered to\n    /// @param cid The CID of the Tokens metadata\n    /// @return _id\n    function mint(address to, string memory cid) public returns (uint256 _id) {\n        require(!_tokenExists[cid], \"Object already exists\");\n\n        _id = _tokenIds.current();\n        _mint(to, _id);\n        tokensToOwner[_id] = to;\n        tokenURIs[_id] = cid;\n        _tokenExists[cid] = true;\n        _setTokenURI(_id, cid);\n        _tokenIds.increment();\n\n        return _id;\n    }\n\n    /// @notice Returns the ids of tokens of one owner\n    /// @param _owner The person that wants to know which tokens belong to them\n    /// @return userTokens  all ids of tokens belonging to one owner\n    function tokensOfOwner(address _owner)\n        public\n        view\n        returns (uint256[] memory)\n    {\n        uint256 tokenCount = balanceOf(_owner);\n        uint256[] memory tokenIds = new uint256[](tokenCount);\n        // string[] memory userTokens = new string[](tokenCount);\n\n        for (uint256 i = 0; i < tokenCount; i++) {\n            tokenIds[i] = tokenOfOwnerByIndex(_owner, i);\n            // if(tokensId[i]  == i){\n            //    userTokens[i] = tokensList[i];\n            // }\n        }\n        return tokenIds;\n    }\n\n    // The following functions are overrides for the BaseContract.\n\n    function _baseURI()\n        internal\n        view\n        virtual\n        override(BaseContract, ERC721)\n        returns (string memory)\n    {\n        return super._baseURI();\n    }\n\n    function tokenURI(uint256 tokenId)\n        public\n        view\n        virtual\n        override(BaseContract, ERC721)\n        returns (string memory)\n    {\n        return super.tokenURI(tokenId);\n    }\n\n    // The following functions are overrides for ERC721Enumerable required by Solidity.\n    function _beforeTokenTransfer(\n        address from,\n        address to,\n        uint256 tokenId\n    ) internal override(ERC721, ERC721Enumerable) {\n        super._beforeTokenTransfer(from, to, tokenId);\n    }\n\n    function supportsInterface(bytes4 interfaceId)\n        public\n        view\n        override(ERC721, ERC721Enumerable)\n        returns (bool)\n    {\n        return super.supportsInterface(interfaceId);\n    }\n}\n",
  "sourcePath": "/Users/lenahierzi/Developer/consensys/blockchain-developer-bootcamp-final-project/contracts/NFT.sol",
  "compiler": {
    "name": "solc",
    "version": "0.8.10+commit.fc410830.Emscripten.clang"
  },
  "schemaVersion": "3.4.3",
  "updatedAt": "2022-01-09T11:17:43.101Z",
  "networkType": "ethereum",
  "devdoc": {
    "kind": "dev",
    "methods": {
      "approve(address,uint256)": {
        "details": "See {IERC721-approve}."
      },
      "balanceOf(address)": {
        "details": "See {IERC721-balanceOf}."
      },
      "getApproved(uint256)": {
        "details": "See {IERC721-getApproved}."
      },
      "isApprovedForAll(address,address)": {
        "details": "See {IERC721-isApprovedForAll}."
      },
      "mint(address,string)": {
        "details": "unfortunatly it dosn't work yet to mint from another address",
        "params": {
          "cid": "The CID of the Tokens metadata",
          "to": "The address, the Token should be transfered to"
        },
        "returns": {
          "_id": "_id"
        }
      },
      "name()": {
        "details": "See {IERC721Metadata-name}."
      },
      "owner()": {
        "details": "Returns the address of the current owner."
      },
      "ownerOf(uint256)": {
        "details": "See {IERC721-ownerOf}."
      },
      "renounceOwnership()": {
        "details": "Leaves the contract without owner. It will not be possible to call `onlyOwner` functions anymore. Can only be called by the current owner. NOTE: Renouncing ownership will leave the contract without an owner, thereby removing any functionality that is only available to the owner."
      },
      "safeTransferFrom(address,address,uint256)": {
        "details": "See {IERC721-safeTransferFrom}."
      },
      "safeTransferFrom(address,address,uint256,bytes)": {
        "details": "See {IERC721-safeTransferFrom}."
      },
      "setApprovalForAll(address,bool)": {
        "details": "See {IERC721-setApprovalForAll}."
      },
      "symbol()": {
        "details": "See {IERC721Metadata-symbol}."
      },
      "tokenByIndex(uint256)": {
        "details": "See {IERC721Enumerable-tokenByIndex}."
      },
      "tokenOfOwnerByIndex(address,uint256)": {
        "details": "See {IERC721Enumerable-tokenOfOwnerByIndex}."
      },
      "tokensOfOwner(address)": {
        "params": {
          "_owner": "The person that wants to know which tokens belong to them"
        },
        "returns": {
          "_0": "userTokens  all ids of tokens belonging to one owner"
        }
      },
      "totalSupply()": {
        "details": "See {IERC721Enumerable-totalSupply}."
      },
      "transferFrom(address,address,uint256)": {
        "details": "See {IERC721-transferFrom}."
      },
      "transferOwnership(address)": {
        "details": "Transfers ownership of the contract to a new account (`newOwner`). Can only be called by the current owner."
      }
    },
    "version": 1
  },
  "userdoc": {
    "kind": "user",
    "methods": {
      "mint(address,string)": {
        "notice": "assigns MinterRolle to msg.sender so msg.sender can mint the NFT. Then Token is minted. Can only be called once by every user."
      },
      "tokensOfOwner(address)": {
        "notice": "Returns the ids of tokens of one owner"
      }
    },
    "version": 1
  }
}