{
  "contractName": "Nft",
  "abi": [
    {
      "inputs": [],
      "stateMutability": "nonpayable",
      "type": "constructor"
    },
    {
      "anonymous": false,
      "inputs": [
        {
          "indexed": true,
          "internalType": "address",
          "name": "owner",
          "type": "address"
        },
        {
          "indexed": true,
          "internalType": "address",
          "name": "approved",
          "type": "address"
        },
        {
          "indexed": true,
          "internalType": "uint256",
          "name": "tokenId",
          "type": "uint256"
        }
      ],
      "name": "Approval",
      "type": "event"
    },
    {
      "anonymous": false,
      "inputs": [
        {
          "indexed": true,
          "internalType": "address",
          "name": "owner",
          "type": "address"
        },
        {
          "indexed": true,
          "internalType": "address",
          "name": "operator",
          "type": "address"
        },
        {
          "indexed": false,
          "internalType": "bool",
          "name": "approved",
          "type": "bool"
        }
      ],
      "name": "ApprovalForAll",
      "type": "event"
    },
    {
      "anonymous": false,
      "inputs": [
        {
          "indexed": true,
          "internalType": "address",
          "name": "previousOwner",
          "type": "address"
        },
        {
          "indexed": true,
          "internalType": "address",
          "name": "newOwner",
          "type": "address"
        }
      ],
      "name": "OwnershipTransferred",
      "type": "event"
    },
    {
      "anonymous": false,
      "inputs": [
        {
          "indexed": true,
          "internalType": "address",
          "name": "from",
          "type": "address"
        },
        {
          "indexed": true,
          "internalType": "address",
          "name": "to",
          "type": "address"
        },
        {
          "indexed": true,
          "internalType": "uint256",
          "name": "tokenId",
          "type": "uint256"
        }
      ],
      "name": "Transfer",
      "type": "event"
    },
    {
      "inputs": [],
      "name": "MAX_PER_MINT",
      "outputs": [
        {
          "internalType": "uint256",
          "name": "",
          "type": "uint256"
        }
      ],
      "stateMutability": "view",
      "type": "function"
    },
    {
      "inputs": [],
      "name": "MAX_SUPPLY",
      "outputs": [
        {
          "internalType": "uint256",
          "name": "",
          "type": "uint256"
        }
      ],
      "stateMutability": "view",
      "type": "function"
    },
    {
      "inputs": [],
      "name": "PRICE",
      "outputs": [
        {
          "internalType": "uint256",
          "name": "",
          "type": "uint256"
        }
      ],
      "stateMutability": "view",
      "type": "function"
    },
    {
      "inputs": [
        {
          "internalType": "address",
          "name": "to",
          "type": "address"
        },
        {
          "internalType": "uint256",
          "name": "tokenId",
          "type": "uint256"
        }
      ],
      "name": "approve",
      "outputs": [],
      "stateMutability": "nonpayable",
      "type": "function"
    },
    {
      "inputs": [
        {
          "internalType": "address",
          "name": "owner",
          "type": "address"
        }
      ],
      "name": "balanceOf",
      "outputs": [
        {
          "internalType": "uint256",
          "name": "",
          "type": "uint256"
        }
      ],
      "stateMutability": "view",
      "type": "function"
    },
    {
      "inputs": [],
      "name": "baseTokenURI",
      "outputs": [
        {
          "internalType": "string",
          "name": "",
          "type": "string"
        }
      ],
      "stateMutability": "view",
      "type": "function"
    },
    {
      "inputs": [
        {
          "internalType": "uint256",
          "name": "tokenId",
          "type": "uint256"
        }
      ],
      "name": "getApproved",
      "outputs": [
        {
          "internalType": "address",
          "name": "",
          "type": "address"
        }
      ],
      "stateMutability": "view",
      "type": "function"
    },
    {
      "inputs": [
        {
          "internalType": "address",
          "name": "owner",
          "type": "address"
        },
        {
          "internalType": "address",
          "name": "operator",
          "type": "address"
        }
      ],
      "name": "isApprovedForAll",
      "outputs": [
        {
          "internalType": "bool",
          "name": "",
          "type": "bool"
        }
      ],
      "stateMutability": "view",
      "type": "function"
    },
    {
      "inputs": [],
      "name": "name",
      "outputs": [
        {
          "internalType": "string",
          "name": "",
          "type": "string"
        }
      ],
      "stateMutability": "view",
      "type": "function"
    },
    {
      "inputs": [],
      "name": "owner",
      "outputs": [
        {
          "internalType": "address",
          "name": "",
          "type": "address"
        }
      ],
      "stateMutability": "view",
      "type": "function"
    },
    {
      "inputs": [
        {
          "internalType": "uint256",
          "name": "tokenId",
          "type": "uint256"
        }
      ],
      "name": "ownerOf",
      "outputs": [
        {
          "internalType": "address",
          "name": "",
          "type": "address"
        }
      ],
      "stateMutability": "view",
      "type": "function"
    },
    {
      "inputs": [],
      "name": "renounceOwnership",
      "outputs": [],
      "stateMutability": "nonpayable",
      "type": "function"
    },
    {
      "inputs": [
        {
          "internalType": "address",
          "name": "from",
          "type": "address"
        },
        {
          "internalType": "address",
          "name": "to",
          "type": "address"
        },
        {
          "internalType": "uint256",
          "name": "tokenId",
          "type": "uint256"
        }
      ],
      "name": "safeTransferFrom",
      "outputs": [],
      "stateMutability": "nonpayable",
      "type": "function"
    },
    {
      "inputs": [
        {
          "internalType": "address",
          "name": "from",
          "type": "address"
        },
        {
          "internalType": "address",
          "name": "to",
          "type": "address"
        },
        {
          "internalType": "uint256",
          "name": "tokenId",
          "type": "uint256"
        },
        {
          "internalType": "bytes",
          "name": "_data",
          "type": "bytes"
        }
      ],
      "name": "safeTransferFrom",
      "outputs": [],
      "stateMutability": "nonpayable",
      "type": "function"
    },
    {
      "inputs": [
        {
          "internalType": "address",
          "name": "operator",
          "type": "address"
        },
        {
          "internalType": "bool",
          "name": "approved",
          "type": "bool"
        }
      ],
      "name": "setApprovalForAll",
      "outputs": [],
      "stateMutability": "nonpayable",
      "type": "function"
    },
    {
      "inputs": [],
      "name": "symbol",
      "outputs": [
        {
          "internalType": "string",
          "name": "",
          "type": "string"
        }
      ],
      "stateMutability": "view",
      "type": "function"
    },
    {
      "inputs": [
        {
          "internalType": "uint256",
          "name": "index",
          "type": "uint256"
        }
      ],
      "name": "tokenByIndex",
      "outputs": [
        {
          "internalType": "uint256",
          "name": "",
          "type": "uint256"
        }
      ],
      "stateMutability": "view",
      "type": "function"
    },
    {
      "inputs": [
        {
          "internalType": "address",
          "name": "owner",
          "type": "address"
        },
        {
          "internalType": "uint256",
          "name": "index",
          "type": "uint256"
        }
      ],
      "name": "tokenOfOwnerByIndex",
      "outputs": [
        {
          "internalType": "uint256",
          "name": "",
          "type": "uint256"
        }
      ],
      "stateMutability": "view",
      "type": "function"
    },
    {
      "inputs": [
        {
          "internalType": "uint256",
          "name": "tokenId",
          "type": "uint256"
        }
      ],
      "name": "tokenURI",
      "outputs": [
        {
          "internalType": "string",
          "name": "",
          "type": "string"
        }
      ],
      "stateMutability": "view",
      "type": "function"
    },
    {
      "inputs": [],
      "name": "totalSupply",
      "outputs": [
        {
          "internalType": "uint256",
          "name": "",
          "type": "uint256"
        }
      ],
      "stateMutability": "view",
      "type": "function"
    },
    {
      "inputs": [
        {
          "internalType": "address",
          "name": "from",
          "type": "address"
        },
        {
          "internalType": "address",
          "name": "to",
          "type": "address"
        },
        {
          "internalType": "uint256",
          "name": "tokenId",
          "type": "uint256"
        }
      ],
      "name": "transferFrom",
      "outputs": [],
      "stateMutability": "nonpayable",
      "type": "function"
    },
    {
      "inputs": [
        {
          "internalType": "address",
          "name": "newOwner",
          "type": "address"
        }
      ],
      "name": "transferOwnership",
      "outputs": [],
      "stateMutability": "nonpayable",
      "type": "function"
    },
    {
      "inputs": [
        {
          "internalType": "string",
          "name": "_color",
          "type": "string"
        }
      ],
      "name": "mint",
      "outputs": [],
      "stateMutability": "nonpayable",
      "type": "function"
    },
    {
      "inputs": [
        {
          "internalType": "address",
          "name": "_owner",
          "type": "address"
        }
      ],
      "name": "tokensOfOwner",
      "outputs": [
        {
          "internalType": "string[]",
          "name": "",
          "type": "string[]"
        }
      ],
      "stateMutability": "view",
      "type": "function"
    },
    {
      "inputs": [
        {
          "internalType": "bytes4",
          "name": "interfaceId",
          "type": "bytes4"
        }
      ],
      "name": "supportsInterface",
      "outputs": [
        {
          "internalType": "bool",
          "name": "",
          "type": "bool"
        }
      ],
      "stateMutability": "view",
      "type": "function"
    }
  ],
  "bytecode": "0x608060405260405180606001604052806023815260200162003d6060239139600b908051906020019062000035929190620001ea565b503480156200004357600080fd5b506040518060400160405280600381526020017f4e667400000000000000000000000000000000000000000000000000000000008152506040518060400160405280600381526020017f4e465400000000000000000000000000000000000000000000000000000000008152508160009080519060200190620000c8929190620001ea565b508060019080519060200190620000e1929190620001ea565b50505062000116620001016200011c640100000000026401000000009004565b62000124640100000000026401000000009004565b620002ff565b600033905090565b6000600660009054906101000a900473ffffffffffffffffffffffffffffffffffffffff16905081600660006101000a81548173ffffffffffffffffffffffffffffffffffffffff021916908373ffffffffffffffffffffffffffffffffffffffff1602179055508173ffffffffffffffffffffffffffffffffffffffff168173ffffffffffffffffffffffffffffffffffffffff167f8be0079c531659141344cd1fd0a4f28419497f9722a3daafe3b4186f6b6457e060405160405180910390a35050565b828054620001f890620002c9565b90600052602060002090601f0160209004810192826200021c576000855562000268565b82601f106200023757805160ff191683800117855562000268565b8280016001018555821562000268579182015b82811115620002675782518255916020019190600101906200024a565b5b5090506200027791906200027b565b5090565b5b80821115620002965760008160009055506001016200027c565b5090565b7f4e487b7100000000000000000000000000000000000000000000000000000000600052602260045260246000fd5b60006002820490506001821680620002e257607f821691505b60208210811415620002f957620002f86200029a565b5b50919050565b613a51806200030f6000396000f3fe608060405234801561001057600080fd5b5060043610610190576000357c01000000000000000000000000000000000000000000000000000000009004806370a08231116100fb578063a22cb465116100b4578063d547cfb71161008e578063d547cfb71461047d578063d85d3d271461049b578063e985e9c5146104b7578063f2fde38b146104e757610190565b8063a22cb46514610415578063b88d4fde14610431578063c87b56dd1461044d57610190565b806370a0823114610351578063715018a6146103815780638462151c1461038b5780638d859f3e146103bb5780638da5cb5b146103d957806395d89b41146103f757610190565b806323b872dd1161014d57806323b872dd1461026b5780632f745c591461028757806332cb6b0c146102b757806342842e0e146102d55780634f6ccce7146102f15780636352211e1461032157610190565b806301ffc9a71461019557806306fdde03146101c5578063081812fc146101e3578063095ea7b31461021357806309d42b301461022f57806318160ddd1461024d575b600080fd5b6101af60048036038101906101aa9190612554565b610503565b6040516101bc919061259c565b60405180910390f35b6101cd610515565b6040516101da9190612650565b60405180910390f35b6101fd60048036038101906101f891906126a8565b6105a7565b60405161020a9190612716565b60405180910390f35b61022d6004803603810190610228919061275d565b61062c565b005b610237610744565b60405161024491906127ac565b60405180910390f35b610255610749565b60405161026291906127ac565b60405180910390f35b610285600480360381019061028091906127c7565b610756565b005b6102a1600480360381019061029c919061275d565b6107b6565b6040516102ae91906127ac565b60405180910390f35b6102bf61085b565b6040516102cc91906127ac565b60405180910390f35b6102ef60048036038101906102ea91906127c7565b610861565b005b61030b600480360381019061030691906126a8565b610881565b60405161031891906127ac565b60405180910390f35b61033b600480360381019061033691906126a8565b6108f2565b6040516103489190612716565b60405180910390f35b61036b6004803603810190610366919061281a565b6109a4565b60405161037891906127ac565b60405180910390f35b610389610a5c565b005b6103a560048036038101906103a0919061281a565b610ae4565b6040516103b29190612953565b60405180910390f35b6103c3610cc2565b6040516103d091906127ac565b60405180910390f35b6103e1610ccc565b6040516103ee9190612716565b60405180910390f35b6103ff610cf6565b60405161040c9190612650565b60405180910390f35b61042f600480360381019061042a91906129a1565b610d88565b005b61044b60048036038101906104469190612b16565b610f09565b005b610467600480360381019061046291906126a8565b610f6b565b6040516104749190612650565b60405180910390f35b610485611012565b6040516104929190612650565b60405180910390f35b6104b560048036038101906104b09190612c3a565b6110a0565b005b6104d160048036038101906104cc9190612c83565b611164565b6040516104de919061259c565b60405180910390f35b61050160048036038101906104fc919061281a565b6111f8565b005b600061050e826112f0565b9050919050565b60606000805461052490612cf2565b80601f016020809104026020016040519081016040528092919081815260200182805461055090612cf2565b801561059d5780601f106105725761010080835404028352916020019161059d565b820191906000526020600020905b81548152906001019060200180831161058057829003601f168201915b5050505050905090565b60006105b28261136a565b6105f1576040517f08c379a00000000000000000000000000000000000000000000000000000000081526004016105e890612d96565b60405180910390fd5b6004600083815260200190815260200160002060009054906101000a900473ffffffffffffffffffffffffffffffffffffffff169050919050565b6000610637826108f2565b90508073ffffffffffffffffffffffffffffffffffffffff168373ffffffffffffffffffffffffffffffffffffffff1614156106a8576040517f08c379a000000000000000000000000000000000000000000000000000000000815260040161069f90612e28565b60405180910390fd5b8073ffffffffffffffffffffffffffffffffffffffff166106c76113d6565b73ffffffffffffffffffffffffffffffffffffffff1614806106f657506106f5816106f06113d6565b611164565b5b610735576040517f08c379a000000000000000000000000000000000000000000000000000000000815260040161072c90612eba565b60405180910390fd5b61073f83836113de565b505050565b606481565b6000600980549050905090565b6107676107616113d6565b82611497565b6107a6576040517f08c379a000000000000000000000000000000000000000000000000000000000815260040161079d90612f4c565b60405180910390fd5b6107b1838383611575565b505050565b60006107c1836109a4565b8210610802576040517f08c379a00000000000000000000000000000000000000000000000000000000081526004016107f990612fde565b60405180910390fd5b600760008473ffffffffffffffffffffffffffffffffffffffff1673ffffffffffffffffffffffffffffffffffffffff168152602001908152602001600020600083815260200190815260200160002054905092915050565b61c35081565b61087c83838360405180602001604052806000815250610f09565b505050565b600061088b610749565b82106108cc576040517f08c379a00000000000000000000000000000000000000000000000000000000081526004016108c390613070565b60405180910390fd5b600982815481106108e0576108df613090565b5b90600052602060002001549050919050565b6000806002600084815260200190815260200160002060009054906101000a900473ffffffffffffffffffffffffffffffffffffffff169050600073ffffffffffffffffffffffffffffffffffffffff168173ffffffffffffffffffffffffffffffffffffffff16141561099b576040517f08c379a000000000000000000000000000000000000000000000000000000000815260040161099290613131565b60405180910390fd5b80915050919050565b60008073ffffffffffffffffffffffffffffffffffffffff168273ffffffffffffffffffffffffffffffffffffffff161415610a15576040517f08c379a0000000000000000000000000000000000000000000000000000000008152600401610a0c906131c3565b60405180910390fd5b600360008373ffffffffffffffffffffffffffffffffffffffff1673ffffffffffffffffffffffffffffffffffffffff168152602001908152602001600020549050919050565b610a646113d6565b73ffffffffffffffffffffffffffffffffffffffff16610a82610ccc565b73ffffffffffffffffffffffffffffffffffffffff1614610ad8576040517f08c379a0000000000000000000000000000000000000000000000000000000008152600401610acf9061322f565b60405180910390fd5b610ae260006117d1565b565b60606000610af1836109a4565b905060008167ffffffffffffffff811115610b0f57610b0e6129eb565b5b604051908082528060200260200182016040528015610b3d5781602001602082028036833780820191505090505b50905060008267ffffffffffffffff811115610b5c57610b5b6129eb565b5b604051908082528060200260200182016040528015610b8f57816020015b6060815260200190600190039081610b7a5790505b50905060005b83811015610cb657610ba786826107b6565b838281518110610bba57610bb9613090565b5b60200260200101818152505080838281518110610bda57610bd9613090565b5b60200260200101511415610ca357600d60008281526020019081526020016000208054610c0690612cf2565b80601f0160208091040260200160405190810160405280929190818152602001828054610c3290612cf2565b8015610c7f5780601f10610c5457610100808354040283529160200191610c7f565b820191906000526020600020905b815481529060010190602001808311610c6257829003601f168201915b5050505050828281518110610c9757610c96613090565b5b60200260200101819052505b8080610cae9061327e565b915050610b95565b50809350505050919050565b655af3107a400081565b6000600660009054906101000a900473ffffffffffffffffffffffffffffffffffffffff16905090565b606060018054610d0590612cf2565b80601f0160208091040260200160405190810160405280929190818152602001828054610d3190612cf2565b8015610d7e5780601f10610d5357610100808354040283529160200191610d7e565b820191906000526020600020905b815481529060010190602001808311610d6157829003601f168201915b5050505050905090565b610d906113d6565b73ffffffffffffffffffffffffffffffffffffffff168273ffffffffffffffffffffffffffffffffffffffff161415610dfe576040517f08c379a0000000000000000000000000000000000000000000000000000000008152600401610df590613313565b60405180910390fd5b8060056000610e0b6113d6565b73ffffffffffffffffffffffffffffffffffffffff1673ffffffffffffffffffffffffffffffffffffffff16815260200190815260200160002060008473ffffffffffffffffffffffffffffffffffffffff1673ffffffffffffffffffffffffffffffffffffffff16815260200190815260200160002060006101000a81548160ff0219169083151502179055508173ffffffffffffffffffffffffffffffffffffffff16610eb86113d6565b73ffffffffffffffffffffffffffffffffffffffff167f17307eab39ab6107e8899845ad3d59bd9653f200f220920489ca2b5937696c3183604051610efd919061259c565b60405180910390a35050565b610f1a610f146113d6565b83611497565b610f59576040517f08c379a0000000000000000000000000000000000000000000000000000000008152600401610f5090612f4c565b60405180910390fd5b610f6584848484611897565b50505050565b6060610f768261136a565b610fb5576040517f08c379a0000000000000000000000000000000000000000000000000000000008152600401610fac906133a5565b60405180910390fd5b6000610fbf6118f3565b90506000815111610fdf576040518060200160405280600081525061100a565b80610fe984611985565b604051602001610ffa929190613401565b6040516020818303038152906040525b915050919050565b600b805461101f90612cf2565b80601f016020809104026020016040519081016040528092919081815260200182805461104b90612cf2565b80156110985780601f1061106d57610100808354040283529160200191611098565b820191906000526020600020905b81548152906001019060200180831161107b57829003601f168201915b505050505081565b600e816040516110b09190613425565b908152602001604051809103902060009054906101000a900460ff16156110d657600080fd5b60006110e2600c611b05565b905081600d60006110f3600c611b05565b81526020019081526020016000209080519060200190611114929190612445565b5061111f600c611b13565b6111293382611b29565b6001600e8360405161113b9190613425565b908152602001604051809103902060006101000a81548160ff0219169083151502179055505050565b6000600560008473ffffffffffffffffffffffffffffffffffffffff1673ffffffffffffffffffffffffffffffffffffffff16815260200190815260200160002060008373ffffffffffffffffffffffffffffffffffffffff1673ffffffffffffffffffffffffffffffffffffffff16815260200190815260200160002060009054906101000a900460ff16905092915050565b6112006113d6565b73ffffffffffffffffffffffffffffffffffffffff1661121e610ccc565b73ffffffffffffffffffffffffffffffffffffffff1614611274576040517f08c379a000000000000000000000000000000000000000000000000000000000815260040161126b9061322f565b60405180910390fd5b600073ffffffffffffffffffffffffffffffffffffffff168173ffffffffffffffffffffffffffffffffffffffff1614156112e4576040517f08c379a00000000000000000000000000000000000000000000000000000000081526004016112db906134ae565b60405180910390fd5b6112ed816117d1565b50565b60007f780e9d63000000000000000000000000000000000000000000000000000000007bffffffffffffffffffffffffffffffffffffffffffffffffffffffff1916827bffffffffffffffffffffffffffffffffffffffffffffffffffffffff19161480611363575061136282611cf7565b5b9050919050565b60008073ffffffffffffffffffffffffffffffffffffffff166002600084815260200190815260200160002060009054906101000a900473ffffffffffffffffffffffffffffffffffffffff1673ffffffffffffffffffffffffffffffffffffffff1614159050919050565b600033905090565b816004600083815260200190815260200160002060006101000a81548173ffffffffffffffffffffffffffffffffffffffff021916908373ffffffffffffffffffffffffffffffffffffffff160217905550808273ffffffffffffffffffffffffffffffffffffffff16611451836108f2565b73ffffffffffffffffffffffffffffffffffffffff167f8c5be1e5ebec7d5bd14f71427d1e84f3dd0314c0f7b2291e5b200ac8c7c3b92560405160405180910390a45050565b60006114a28261136a565b6114e1576040517f08c379a00000000000000000000000000000000000000000000000000000000081526004016114d890613540565b60405180910390fd5b60006114ec836108f2565b90508073ffffffffffffffffffffffffffffffffffffffff168473ffffffffffffffffffffffffffffffffffffffff16148061155b57508373ffffffffffffffffffffffffffffffffffffffff16611543846105a7565b73ffffffffffffffffffffffffffffffffffffffff16145b8061156c575061156b8185611164565b5b91505092915050565b8273ffffffffffffffffffffffffffffffffffffffff16611595826108f2565b73ffffffffffffffffffffffffffffffffffffffff16146115eb576040517f08c379a00000000000000000000000000000000000000000000000000000000081526004016115e2906135d2565b60405180910390fd5b600073ffffffffffffffffffffffffffffffffffffffff168273ffffffffffffffffffffffffffffffffffffffff16141561165b576040517f08c379a000000000000000000000000000000000000000000000000000000000815260040161165290613664565b60405180910390fd5b611666838383611dd9565b6116716000826113de565b6001600360008573ffffffffffffffffffffffffffffffffffffffff1673ffffffffffffffffffffffffffffffffffffffff16815260200190815260200160002060008282546116c19190613684565b925050819055506001600360008473ffffffffffffffffffffffffffffffffffffffff1673ffffffffffffffffffffffffffffffffffffffff168152602001908152602001600020600082825461171891906136b8565b92505081905550816002600083815260200190815260200160002060006101000a81548173ffffffffffffffffffffffffffffffffffffffff021916908373ffffffffffffffffffffffffffffffffffffffff160217905550808273ffffffffffffffffffffffffffffffffffffffff168473ffffffffffffffffffffffffffffffffffffffff167fddf252ad1be2c89b69c2b068fc378daa952ba7f163c4a11628f55a4df523b3ef60405160405180910390a4505050565b6000600660009054906101000a900473ffffffffffffffffffffffffffffffffffffffff16905081600660006101000a81548173ffffffffffffffffffffffffffffffffffffffff021916908373ffffffffffffffffffffffffffffffffffffffff1602179055508173ffffffffffffffffffffffffffffffffffffffff168173ffffffffffffffffffffffffffffffffffffffff167f8be0079c531659141344cd1fd0a4f28419497f9722a3daafe3b4186f6b6457e060405160405180910390a35050565b6118a2848484611575565b6118ae84848484611de9565b6118ed576040517f08c379a00000000000000000000000000000000000000000000000000000000081526004016118e490613780565b60405180910390fd5b50505050565b6060600b805461190290612cf2565b80601f016020809104026020016040519081016040528092919081815260200182805461192e90612cf2565b801561197b5780601f106119505761010080835404028352916020019161197b565b820191906000526020600020905b81548152906001019060200180831161195e57829003601f168201915b5050505050905090565b606060008214156119cd576040518060400160405280600181526020017f30000000000000000000000000000000000000000000000000000000000000008152509050611b00565b600082905060005b600082146119ff5780806119e89061327e565b915050600a826119f891906137cf565b91506119d5565b60008167ffffffffffffffff811115611a1b57611a1a6129eb565b5b6040519080825280601f01601f191660200182016040528015611a4d5781602001600182028036833780820191505090505b5090505b60008514611af957600182611a669190613684565b9150600a85611a759190613800565b6030611a8191906136b8565b7f010000000000000000000000000000000000000000000000000000000000000002818381518110611ab657611ab5613090565b5b60200101907effffffffffffffffffffffffffffffffffffffffffffffffffffffffffffff1916908160001a905350600a85611af291906137cf565b9450611a51565b8093505050505b919050565b600081600001549050919050565b6001816000016000828254019250508190555050565b600073ffffffffffffffffffffffffffffffffffffffff168273ffffffffffffffffffffffffffffffffffffffff161415611b99576040517f08c379a0000000000000000000000000000000000000000000000000000000008152600401611b909061387d565b60405180910390fd5b611ba28161136a565b15611be2576040517f08c379a0000000000000000000000000000000000000000000000000000000008152600401611bd9906138e9565b60405180910390fd5b611bee60008383611dd9565b6001600360008473ffffffffffffffffffffffffffffffffffffffff1673ffffffffffffffffffffffffffffffffffffffff1681526020019081526020016000206000828254611c3e91906136b8565b92505081905550816002600083815260200190815260200160002060006101000a81548173ffffffffffffffffffffffffffffffffffffffff021916908373ffffffffffffffffffffffffffffffffffffffff160217905550808273ffffffffffffffffffffffffffffffffffffffff16600073ffffffffffffffffffffffffffffffffffffffff167fddf252ad1be2c89b69c2b068fc378daa952ba7f163c4a11628f55a4df523b3ef60405160405180910390a45050565b60007f80ac58cd000000000000000000000000000000000000000000000000000000007bffffffffffffffffffffffffffffffffffffffffffffffffffffffff1916827bffffffffffffffffffffffffffffffffffffffffffffffffffffffff19161480611dc257507f5b5e139f000000000000000000000000000000000000000000000000000000007bffffffffffffffffffffffffffffffffffffffffffffffffffffffff1916827bffffffffffffffffffffffffffffffffffffffffffffffffffffffff1916145b80611dd25750611dd182611fa9565b5b9050919050565b611de4838383612013565b505050565b6000611e0a8473ffffffffffffffffffffffffffffffffffffffff16612127565b15611f9c578373ffffffffffffffffffffffffffffffffffffffff1663150b7a02611e336113d6565b8786866040518563ffffffff167c0100000000000000000000000000000000000000000000000000000000028152600401611e71949392919061395e565b6020604051808303816000875af1925050508015611ead57506040513d601f19601f82011682018060405250810190611eaa91906139bf565b60015b611f30573d8060008114611edd576040519150601f19603f3d011682016040523d82523d6000602084013e611ee2565b606091505b50600081511415611f28576040517f08c379a0000000000000000000000000000000000000000000000000000000008152600401611f1f90613780565b60405180910390fd5b805181602001fd5b63150b7a027c0100000000000000000000000000000000000000000000000000000000027bffffffffffffffffffffffffffffffffffffffffffffffffffffffff1916817bffffffffffffffffffffffffffffffffffffffffffffffffffffffff191614915050611fa1565b600190505b949350505050565b60007f01ffc9a7000000000000000000000000000000000000000000000000000000007bffffffffffffffffffffffffffffffffffffffffffffffffffffffff1916827bffffffffffffffffffffffffffffffffffffffffffffffffffffffff1916149050919050565b61201e83838361213a565b600073ffffffffffffffffffffffffffffffffffffffff168373ffffffffffffffffffffffffffffffffffffffff1614156120615761205c8161213f565b6120a0565b8173ffffffffffffffffffffffffffffffffffffffff168373ffffffffffffffffffffffffffffffffffffffff161461209f5761209e8382612188565b5b5b600073ffffffffffffffffffffffffffffffffffffffff168273ffffffffffffffffffffffffffffffffffffffff1614156120e3576120de816122f5565b612122565b8273ffffffffffffffffffffffffffffffffffffffff168273ffffffffffffffffffffffffffffffffffffffff16146121215761212082826123c6565b5b5b505050565b600080823b905060008111915050919050565b505050565b600980549050600a600083815260200190815260200160002081905550600981908060018154018082558091505060019003906000526020600020016000909190919091505550565b60006001612195846109a4565b61219f9190613684565b9050600060086000848152602001908152602001600020549050818114612284576000600760008673ffffffffffffffffffffffffffffffffffffffff1673ffffffffffffffffffffffffffffffffffffffff168152602001908152602001600020600084815260200190815260200160002054905080600760008773ffffffffffffffffffffffffffffffffffffffff1673ffffffffffffffffffffffffffffffffffffffff168152602001908152602001600020600084815260200190815260200160002081905550816008600083815260200190815260200160002081905550505b6008600084815260200190815260200160002060009055600760008573ffffffffffffffffffffffffffffffffffffffff1673ffffffffffffffffffffffffffffffffffffffff16815260200190815260200160002060008381526020019081526020016000206000905550505050565b600060016009805490506123099190613684565b90506000600a600084815260200190815260200160002054905060006009838154811061233957612338613090565b5b90600052602060002001549050806009838154811061235b5761235a613090565b5b906000526020600020018190555081600a600083815260200190815260200160002081905550600a60008581526020019081526020016000206000905560098054806123aa576123a96139ec565b5b6001900381819060005260206000200160009055905550505050565b60006123d1836109a4565b905081600760008573ffffffffffffffffffffffffffffffffffffffff1673ffffffffffffffffffffffffffffffffffffffff168152602001908152602001600020600083815260200190815260200160002081905550806008600084815260200190815260200160002081905550505050565b82805461245190612cf2565b90600052602060002090601f01602090048101928261247357600085556124ba565b82601f1061248c57805160ff19168380011785556124ba565b828001600101855582156124ba579182015b828111156124b957825182559160200191906001019061249e565b5b5090506124c791906124cb565b5090565b5b808211156124e45760008160009055506001016124cc565b5090565b6000604051905090565b600080fd5b600080fd5b60007fffffffff0000000000000000000000000000000000000000000000000000000082169050919050565b612531816124fc565b811461253c57600080fd5b50565b60008135905061254e81612528565b92915050565b60006020828403121561256a576125696124f2565b5b60006125788482850161253f565b91505092915050565b60008115159050919050565b61259681612581565b82525050565b60006020820190506125b1600083018461258d565b92915050565b600081519050919050565b600082825260208201905092915050565b60005b838110156125f15780820151818401526020810190506125d6565b83811115612600576000848401525b50505050565b6000601f19601f8301169050919050565b6000612622826125b7565b61262c81856125c2565b935061263c8185602086016125d3565b61264581612606565b840191505092915050565b6000602082019050818103600083015261266a8184612617565b905092915050565b6000819050919050565b61268581612672565b811461269057600080fd5b50565b6000813590506126a28161267c565b92915050565b6000602082840312156126be576126bd6124f2565b5b60006126cc84828501612693565b91505092915050565b600073ffffffffffffffffffffffffffffffffffffffff82169050919050565b6000612700826126d5565b9050919050565b612710816126f5565b82525050565b600060208201905061272b6000830184612707565b92915050565b61273a816126f5565b811461274557600080fd5b50565b60008135905061275781612731565b92915050565b60008060408385031215612774576127736124f2565b5b600061278285828601612748565b925050602061279385828601612693565b9150509250929050565b6127a681612672565b82525050565b60006020820190506127c1600083018461279d565b92915050565b6000806000606084860312156127e0576127df6124f2565b5b60006127ee86828701612748565b93505060206127ff86828701612748565b925050604061281086828701612693565b9150509250925092565b6000602082840312156128305761282f6124f2565b5b600061283e84828501612748565b91505092915050565b600081519050919050565b600082825260208201905092915050565b6000819050602082019050919050565b600082825260208201905092915050565b600061288f826125b7565b6128998185612873565b93506128a98185602086016125d3565b6128b281612606565b840191505092915050565b60006128c98383612884565b905092915050565b6000602082019050919050565b60006128e982612847565b6128f38185612852565b93508360208202850161290585612863565b8060005b85811015612941578484038952815161292285826128bd565b945061292d836128d1565b925060208a01995050600181019050612909565b50829750879550505050505092915050565b6000602082019050818103600083015261296d81846128de565b905092915050565b61297e81612581565b811461298957600080fd5b50565b60008135905061299b81612975565b92915050565b600080604083850312156129b8576129b76124f2565b5b60006129c685828601612748565b92505060206129d78582860161298c565b9150509250929050565b600080fd5b600080fd5b7f4e487b7100000000000000000000000000000000000000000000000000000000600052604160045260246000fd5b612a2382612606565b810181811067ffffffffffffffff82111715612a4257612a416129eb565b5b80604052505050565b6000612a556124e8565b9050612a618282612a1a565b919050565b600067ffffffffffffffff821115612a8157612a806129eb565b5b612a8a82612606565b9050602081019050919050565b82818337600083830152505050565b6000612ab9612ab484612a66565b612a4b565b905082815260208101848484011115612ad557612ad46129e6565b5b612ae0848285612a97565b509392505050565b600082601f830112612afd57612afc6129e1565b5b8135612b0d848260208601612aa6565b91505092915050565b60008060008060808587031215612b3057612b2f6124f2565b5b6000612b3e87828801612748565b9450506020612b4f87828801612748565b9350506040612b6087828801612693565b925050606085013567ffffffffffffffff811115612b8157612b806124f7565b5b612b8d87828801612ae8565b91505092959194509250565b600067ffffffffffffffff821115612bb457612bb36129eb565b5b612bbd82612606565b9050602081019050919050565b6000612bdd612bd884612b99565b612a4b565b905082815260208101848484011115612bf957612bf86129e6565b5b612c04848285612a97565b509392505050565b600082601f830112612c2157612c206129e1565b5b8135612c31848260208601612bca565b91505092915050565b600060208284031215612c5057612c4f6124f2565b5b600082013567ffffffffffffffff811115612c6e57612c6d6124f7565b5b612c7a84828501612c0c565b91505092915050565b60008060408385031215612c9a57612c996124f2565b5b6000612ca885828601612748565b9250506020612cb985828601612748565b9150509250929050565b7f4e487b7100000000000000000000000000000000000000000000000000000000600052602260045260246000fd5b60006002820490506001821680612d0a57607f821691505b60208210811415612d1e57612d1d612cc3565b5b50919050565b7f4552433732313a20617070726f76656420717565727920666f72206e6f6e657860008201527f697374656e7420746f6b656e0000000000000000000000000000000000000000602082015250565b6000612d80602c836125c2565b9150612d8b82612d24565b604082019050919050565b60006020820190508181036000830152612daf81612d73565b9050919050565b7f4552433732313a20617070726f76616c20746f2063757272656e74206f776e6560008201527f7200000000000000000000000000000000000000000000000000000000000000602082015250565b6000612e126021836125c2565b9150612e1d82612db6565b604082019050919050565b60006020820190508181036000830152612e4181612e05565b9050919050565b7f4552433732313a20617070726f76652063616c6c6572206973206e6f74206f7760008201527f6e6572206e6f7220617070726f76656420666f7220616c6c0000000000000000602082015250565b6000612ea46038836125c2565b9150612eaf82612e48565b604082019050919050565b60006020820190508181036000830152612ed381612e97565b9050919050565b7f4552433732313a207472616e736665722063616c6c6572206973206e6f74206f60008201527f776e6572206e6f7220617070726f766564000000000000000000000000000000602082015250565b6000612f366031836125c2565b9150612f4182612eda565b604082019050919050565b60006020820190508181036000830152612f6581612f29565b9050919050565b7f455243373231456e756d657261626c653a206f776e657220696e646578206f7560008201527f74206f6620626f756e6473000000000000000000000000000000000000000000602082015250565b6000612fc8602b836125c2565b9150612fd382612f6c565b604082019050919050565b60006020820190508181036000830152612ff781612fbb565b9050919050565b7f455243373231456e756d657261626c653a20676c6f62616c20696e646578206f60008201527f7574206f6620626f756e64730000000000000000000000000000000000000000602082015250565b600061305a602c836125c2565b915061306582612ffe565b604082019050919050565b600060208201905081810360008301526130898161304d565b9050919050565b7f4e487b7100000000000000000000000000000000000000000000000000000000600052603260045260246000fd5b7f4552433732313a206f776e657220717565727920666f72206e6f6e657869737460008201527f656e7420746f6b656e0000000000000000000000000000000000000000000000602082015250565b600061311b6029836125c2565b9150613126826130bf565b604082019050919050565b6000602082019050818103600083015261314a8161310e565b9050919050565b7f4552433732313a2062616c616e636520717565727920666f7220746865207a6560008201527f726f206164647265737300000000000000000000000000000000000000000000602082015250565b60006131ad602a836125c2565b91506131b882613151565b604082019050919050565b600060208201905081810360008301526131dc816131a0565b9050919050565b7f4f776e61626c653a2063616c6c6572206973206e6f7420746865206f776e6572600082015250565b60006132196020836125c2565b9150613224826131e3565b602082019050919050565b600060208201905081810360008301526132488161320c565b9050919050565b7f4e487b7100000000000000000000000000000000000000000000000000000000600052601160045260246000fd5b600061328982612672565b91507fffffffffffffffffffffffffffffffffffffffffffffffffffffffffffffffff8214156132bc576132bb61324f565b5b600182019050919050565b7f4552433732313a20617070726f766520746f2063616c6c657200000000000000600082015250565b60006132fd6019836125c2565b9150613308826132c7565b602082019050919050565b6000602082019050818103600083015261332c816132f0565b9050919050565b7f4552433732314d657461646174613a2055524920717565727920666f72206e6f60008201527f6e6578697374656e7420746f6b656e0000000000000000000000000000000000602082015250565b600061338f602f836125c2565b915061339a82613333565b604082019050919050565b600060208201905081810360008301526133be81613382565b9050919050565b600081905092915050565b60006133db826125b7565b6133e581856133c5565b93506133f58185602086016125d3565b80840191505092915050565b600061340d82856133d0565b915061341982846133d0565b91508190509392505050565b600061343182846133d0565b915081905092915050565b7f4f776e61626c653a206e6577206f776e657220697320746865207a65726f206160008201527f6464726573730000000000000000000000000000000000000000000000000000602082015250565b60006134986026836125c2565b91506134a38261343c565b604082019050919050565b600060208201905081810360008301526134c78161348b565b9050919050565b7f4552433732313a206f70657261746f7220717565727920666f72206e6f6e657860008201527f697374656e7420746f6b656e0000000000000000000000000000000000000000602082015250565b600061352a602c836125c2565b9150613535826134ce565b604082019050919050565b600060208201905081810360008301526135598161351d565b9050919050565b7f4552433732313a207472616e73666572206f6620746f6b656e2074686174206960008201527f73206e6f74206f776e0000000000000000000000000000000000000000000000602082015250565b60006135bc6029836125c2565b91506135c782613560565b604082019050919050565b600060208201905081810360008301526135eb816135af565b9050919050565b7f4552433732313a207472616e7366657220746f20746865207a65726f2061646460008201527f7265737300000000000000000000000000000000000000000000000000000000602082015250565b600061364e6024836125c2565b9150613659826135f2565b604082019050919050565b6000602082019050818103600083015261367d81613641565b9050919050565b600061368f82612672565b915061369a83612672565b9250828210156136ad576136ac61324f565b5b828203905092915050565b60006136c382612672565b91506136ce83612672565b9250827fffffffffffffffffffffffffffffffffffffffffffffffffffffffffffffffff038211156137035761370261324f565b5b828201905092915050565b7f4552433732313a207472616e7366657220746f206e6f6e20455243373231526560008201527f63656976657220696d706c656d656e7465720000000000000000000000000000602082015250565b600061376a6032836125c2565b91506137758261370e565b604082019050919050565b600060208201905081810360008301526137998161375d565b9050919050565b7f4e487b7100000000000000000000000000000000000000000000000000000000600052601260045260246000fd5b60006137da82612672565b91506137e583612672565b9250826137f5576137f46137a0565b5b828204905092915050565b600061380b82612672565b915061381683612672565b925082613826576138256137a0565b5b828206905092915050565b7f4552433732313a206d696e7420746f20746865207a65726f2061646472657373600082015250565b60006138676020836125c2565b915061387282613831565b602082019050919050565b600060208201905081810360008301526138968161385a565b9050919050565b7f4552433732313a20746f6b656e20616c7265616479206d696e74656400000000600082015250565b60006138d3601c836125c2565b91506138de8261389d565b602082019050919050565b60006020820190508181036000830152613902816138c6565b9050919050565b600081519050919050565b600082825260208201905092915050565b600061393082613909565b61393a8185613914565b935061394a8185602086016125d3565b61395381612606565b840191505092915050565b60006080820190506139736000830187612707565b6139806020830186612707565b61398d604083018561279d565b818103606083015261399f8184613925565b905095945050505050565b6000815190506139b981612528565b92915050565b6000602082840312156139d5576139d46124f2565b5b60006139e3848285016139aa565b91505092915050565b7f4e487b7100000000000000000000000000000000000000000000000000000000600052603160045260246000fdfea264697066735822122090553316b593202f6479a523712e3069e62d227f0cd601d2eb9e440dd394fc8564736f6c634300080a0033697066733a2f2f32306d6666354f47706c4f5a65456f37436f4c41316c44364a63792f",
  "immutableReferences": {},
  "source": "// SPDX-License-Identifier: MIT\npragma solidity >=0.4.22 <0.9.0;\n\nimport \"@openzeppelin/contracts/token/ERC721/ERC721.sol\";\nimport \"@openzeppelin/contracts/access/Ownable.sol\";\nimport \"@openzeppelin/contracts/utils/math/SafeMath.sol\";\nimport \"@openzeppelin/contracts/utils/Counters.sol\";\nimport \"@openzeppelin/contracts/token/ERC721/extensions/ERC721Enumerable.sol\";\n\ncontract Nft is ERC721, Ownable, ERC721Enumerable {\n    constructor() ERC721(\"Nft\", \"NFT\") {}\n\n    using SafeMath for uint256;\n    using Counters for Counters.Counter;\n\n    uint256 public constant MAX_SUPPLY = 50000;\n    uint256 public constant PRICE = 0.0001 ether;\n    uint256 public constant MAX_PER_MINT = 100;\n    string public baseTokenURI = \"ipfs://20mff5OGplOZeEo7CoLA1lD6Jcy/\";\n\n    Counters.Counter private _tokenIds;\n    mapping(uint256 => string) colors;\n    mapping(string => bool) _colorExists;\n\n    // add color, require uniqie color, call mint funciton, trak the color\n    function mint(string memory _color) public {\n        require(!_colorExists[_color]);\n        uint256 _id = _tokenIds.current();\n        colors[_tokenIds.current()] = _color;\n        _tokenIds.increment();\n        _mint(msg.sender, _id);\n        _colorExists[_color] = true;\n    }\n\n    function tokensOfOwner(address _owner)\n        external\n        view\n        returns (string[] memory)\n    {\n        uint256 tokenCount = balanceOf(_owner);\n        uint256[] memory tokensId = new uint256[](tokenCount);\n        string[] memory  userColors = new string[](tokenCount);\n\n        for (uint256 i = 0; i < tokenCount; i++) {\n            tokensId[i] = tokenOfOwnerByIndex(_owner, i);\n            if(tokensId[i]  == i){\n               userColors[i] = colors[i];\n            }\n        }\n        return userColors;\n    }\n\n    function _baseURI() internal view virtual override returns (string memory) {\n        return baseTokenURI;\n    }\n\n    // The following functions are overrides for ERC721Enumerable required by Solidity.\n    function _beforeTokenTransfer(\n        address from,\n        address to,\n        uint256 tokenId\n    ) internal override(ERC721, ERC721Enumerable) {\n        super._beforeTokenTransfer(from, to, tokenId);\n    }\n\n    function supportsInterface(bytes4 interfaceId)\n        public\n        view\n        override(ERC721, ERC721Enumerable)\n        returns (bool)\n    {\n        return super.supportsInterface(interfaceId);\n    }\n}\n",
  "sourcePath": "/Users/lenahierzi/Developer/consensys/blockchain-developer-bootcamp-final-project/contracts/Nft.sol",
  "compiler": {
    "name": "solc",
    "version": "0.8.10+commit.fc410830.Emscripten.clang"
  },
  "schemaVersion": "3.3.4",
  "updatedAt": "2021-11-11T23:56:26.841Z",
  "devdoc": {
    "kind": "dev",
    "methods": {
      "approve(address,uint256)": {
        "details": "See {IERC721-approve}."
      },
      "balanceOf(address)": {
        "details": "See {IERC721-balanceOf}."
      },
      "getApproved(uint256)": {
        "details": "See {IERC721-getApproved}."
      },
      "isApprovedForAll(address,address)": {
        "details": "See {IERC721-isApprovedForAll}."
      },
      "name()": {
        "details": "See {IERC721Metadata-name}."
      },
      "owner()": {
        "details": "Returns the address of the current owner."
      },
      "ownerOf(uint256)": {
        "details": "See {IERC721-ownerOf}."
      },
      "renounceOwnership()": {
        "details": "Leaves the contract without owner. It will not be possible to call `onlyOwner` functions anymore. Can only be called by the current owner. NOTE: Renouncing ownership will leave the contract without an owner, thereby removing any functionality that is only available to the owner."
      },
      "safeTransferFrom(address,address,uint256)": {
        "details": "See {IERC721-safeTransferFrom}."
      },
      "safeTransferFrom(address,address,uint256,bytes)": {
        "details": "See {IERC721-safeTransferFrom}."
      },
      "setApprovalForAll(address,bool)": {
        "details": "See {IERC721-setApprovalForAll}."
      },
      "symbol()": {
        "details": "See {IERC721Metadata-symbol}."
      },
      "tokenByIndex(uint256)": {
        "details": "See {IERC721Enumerable-tokenByIndex}."
      },
      "tokenOfOwnerByIndex(address,uint256)": {
        "details": "See {IERC721Enumerable-tokenOfOwnerByIndex}."
      },
      "tokenURI(uint256)": {
        "details": "See {IERC721Metadata-tokenURI}."
      },
      "totalSupply()": {
        "details": "See {IERC721Enumerable-totalSupply}."
      },
      "transferFrom(address,address,uint256)": {
        "details": "See {IERC721-transferFrom}."
      },
      "transferOwnership(address)": {
        "details": "Transfers ownership of the contract to a new account (`newOwner`). Can only be called by the current owner."
      }
    },
    "version": 1
  },
  "userdoc": {
    "kind": "user",
    "methods": {},
    "version": 1
  }
}