{
  "contractName": "Nft",
  "abi": [
    {
      "inputs": [],
      "stateMutability": "nonpayable",
      "type": "constructor"
    },
    {
      "anonymous": false,
      "inputs": [
        {
          "indexed": true,
          "internalType": "address",
          "name": "owner",
          "type": "address"
        },
        {
          "indexed": true,
          "internalType": "address",
          "name": "approved",
          "type": "address"
        },
        {
          "indexed": true,
          "internalType": "uint256",
          "name": "tokenId",
          "type": "uint256"
        }
      ],
      "name": "Approval",
      "type": "event"
    },
    {
      "anonymous": false,
      "inputs": [
        {
          "indexed": true,
          "internalType": "address",
          "name": "owner",
          "type": "address"
        },
        {
          "indexed": true,
          "internalType": "address",
          "name": "operator",
          "type": "address"
        },
        {
          "indexed": false,
          "internalType": "bool",
          "name": "approved",
          "type": "bool"
        }
      ],
      "name": "ApprovalForAll",
      "type": "event"
    },
    {
      "anonymous": false,
      "inputs": [
        {
          "indexed": true,
          "internalType": "address",
          "name": "previousOwner",
          "type": "address"
        },
        {
          "indexed": true,
          "internalType": "address",
          "name": "newOwner",
          "type": "address"
        }
      ],
      "name": "OwnershipTransferred",
      "type": "event"
    },
    {
      "anonymous": false,
      "inputs": [
        {
          "indexed": true,
          "internalType": "address",
          "name": "from",
          "type": "address"
        },
        {
          "indexed": true,
          "internalType": "address",
          "name": "to",
          "type": "address"
        },
        {
          "indexed": true,
          "internalType": "uint256",
          "name": "tokenId",
          "type": "uint256"
        }
      ],
      "name": "Transfer",
      "type": "event"
    },
    {
      "inputs": [],
      "name": "MAX_PER_MINT",
      "outputs": [
        {
          "internalType": "uint256",
          "name": "",
          "type": "uint256"
        }
      ],
      "stateMutability": "view",
      "type": "function"
    },
    {
      "inputs": [],
      "name": "MAX_SUPPLY",
      "outputs": [
        {
          "internalType": "uint256",
          "name": "",
          "type": "uint256"
        }
      ],
      "stateMutability": "view",
      "type": "function"
    },
    {
      "inputs": [],
      "name": "PRICE",
      "outputs": [
        {
          "internalType": "uint256",
          "name": "",
          "type": "uint256"
        }
      ],
      "stateMutability": "view",
      "type": "function"
    },
    {
      "inputs": [
        {
          "internalType": "address",
          "name": "to",
          "type": "address"
        },
        {
          "internalType": "uint256",
          "name": "tokenId",
          "type": "uint256"
        }
      ],
      "name": "approve",
      "outputs": [],
      "stateMutability": "nonpayable",
      "type": "function"
    },
    {
      "inputs": [
        {
          "internalType": "address",
          "name": "owner",
          "type": "address"
        }
      ],
      "name": "balanceOf",
      "outputs": [
        {
          "internalType": "uint256",
          "name": "",
          "type": "uint256"
        }
      ],
      "stateMutability": "view",
      "type": "function"
    },
    {
      "inputs": [],
      "name": "baseTokenURI",
      "outputs": [
        {
          "internalType": "string",
          "name": "",
          "type": "string"
        }
      ],
      "stateMutability": "view",
      "type": "function"
    },
    {
      "inputs": [
        {
          "internalType": "uint256",
          "name": "",
          "type": "uint256"
        }
      ],
      "name": "colors",
      "outputs": [
        {
          "internalType": "string",
          "name": "",
          "type": "string"
        }
      ],
      "stateMutability": "view",
      "type": "function"
    },
    {
      "inputs": [
        {
          "internalType": "uint256",
          "name": "tokenId",
          "type": "uint256"
        }
      ],
      "name": "getApproved",
      "outputs": [
        {
          "internalType": "address",
          "name": "",
          "type": "address"
        }
      ],
      "stateMutability": "view",
      "type": "function"
    },
    {
      "inputs": [
        {
          "internalType": "address",
          "name": "owner",
          "type": "address"
        },
        {
          "internalType": "address",
          "name": "operator",
          "type": "address"
        }
      ],
      "name": "isApprovedForAll",
      "outputs": [
        {
          "internalType": "bool",
          "name": "",
          "type": "bool"
        }
      ],
      "stateMutability": "view",
      "type": "function"
    },
    {
      "inputs": [],
      "name": "name",
      "outputs": [
        {
          "internalType": "string",
          "name": "",
          "type": "string"
        }
      ],
      "stateMutability": "view",
      "type": "function"
    },
    {
      "inputs": [],
      "name": "owner",
      "outputs": [
        {
          "internalType": "address",
          "name": "",
          "type": "address"
        }
      ],
      "stateMutability": "view",
      "type": "function"
    },
    {
      "inputs": [
        {
          "internalType": "uint256",
          "name": "tokenId",
          "type": "uint256"
        }
      ],
      "name": "ownerOf",
      "outputs": [
        {
          "internalType": "address",
          "name": "",
          "type": "address"
        }
      ],
      "stateMutability": "view",
      "type": "function"
    },
    {
      "inputs": [],
      "name": "renounceOwnership",
      "outputs": [],
      "stateMutability": "nonpayable",
      "type": "function"
    },
    {
      "inputs": [
        {
          "internalType": "address",
          "name": "from",
          "type": "address"
        },
        {
          "internalType": "address",
          "name": "to",
          "type": "address"
        },
        {
          "internalType": "uint256",
          "name": "tokenId",
          "type": "uint256"
        }
      ],
      "name": "safeTransferFrom",
      "outputs": [],
      "stateMutability": "nonpayable",
      "type": "function"
    },
    {
      "inputs": [
        {
          "internalType": "address",
          "name": "from",
          "type": "address"
        },
        {
          "internalType": "address",
          "name": "to",
          "type": "address"
        },
        {
          "internalType": "uint256",
          "name": "tokenId",
          "type": "uint256"
        },
        {
          "internalType": "bytes",
          "name": "_data",
          "type": "bytes"
        }
      ],
      "name": "safeTransferFrom",
      "outputs": [],
      "stateMutability": "nonpayable",
      "type": "function"
    },
    {
      "inputs": [
        {
          "internalType": "address",
          "name": "operator",
          "type": "address"
        },
        {
          "internalType": "bool",
          "name": "approved",
          "type": "bool"
        }
      ],
      "name": "setApprovalForAll",
      "outputs": [],
      "stateMutability": "nonpayable",
      "type": "function"
    },
    {
      "inputs": [],
      "name": "symbol",
      "outputs": [
        {
          "internalType": "string",
          "name": "",
          "type": "string"
        }
      ],
      "stateMutability": "view",
      "type": "function"
    },
    {
      "inputs": [
        {
          "internalType": "uint256",
          "name": "index",
          "type": "uint256"
        }
      ],
      "name": "tokenByIndex",
      "outputs": [
        {
          "internalType": "uint256",
          "name": "",
          "type": "uint256"
        }
      ],
      "stateMutability": "view",
      "type": "function"
    },
    {
      "inputs": [
        {
          "internalType": "address",
          "name": "owner",
          "type": "address"
        },
        {
          "internalType": "uint256",
          "name": "index",
          "type": "uint256"
        }
      ],
      "name": "tokenOfOwnerByIndex",
      "outputs": [
        {
          "internalType": "uint256",
          "name": "",
          "type": "uint256"
        }
      ],
      "stateMutability": "view",
      "type": "function"
    },
    {
      "inputs": [
        {
          "internalType": "uint256",
          "name": "tokenId",
          "type": "uint256"
        }
      ],
      "name": "tokenURI",
      "outputs": [
        {
          "internalType": "string",
          "name": "",
          "type": "string"
        }
      ],
      "stateMutability": "view",
      "type": "function"
    },
    {
      "inputs": [],
      "name": "totalSupply",
      "outputs": [
        {
          "internalType": "uint256",
          "name": "",
          "type": "uint256"
        }
      ],
      "stateMutability": "view",
      "type": "function"
    },
    {
      "inputs": [
        {
          "internalType": "address",
          "name": "from",
          "type": "address"
        },
        {
          "internalType": "address",
          "name": "to",
          "type": "address"
        },
        {
          "internalType": "uint256",
          "name": "tokenId",
          "type": "uint256"
        }
      ],
      "name": "transferFrom",
      "outputs": [],
      "stateMutability": "nonpayable",
      "type": "function"
    },
    {
      "inputs": [
        {
          "internalType": "address",
          "name": "newOwner",
          "type": "address"
        }
      ],
      "name": "transferOwnership",
      "outputs": [],
      "stateMutability": "nonpayable",
      "type": "function"
    },
    {
      "inputs": [
        {
          "internalType": "string",
          "name": "_color",
          "type": "string"
        }
      ],
      "name": "mint",
      "outputs": [],
      "stateMutability": "nonpayable",
      "type": "function"
    },
    {
      "inputs": [
        {
          "internalType": "address",
          "name": "_owner",
          "type": "address"
        }
      ],
      "name": "tokensOfOwner",
      "outputs": [
        {
          "internalType": "uint256[]",
          "name": "",
          "type": "uint256[]"
        }
      ],
      "stateMutability": "view",
      "type": "function"
    },
    {
      "inputs": [
        {
          "internalType": "bytes4",
          "name": "interfaceId",
          "type": "bytes4"
        }
      ],
      "name": "supportsInterface",
      "outputs": [
        {
          "internalType": "bool",
          "name": "",
          "type": "bool"
        }
      ],
      "stateMutability": "view",
      "type": "function"
    }
  ],
  "bytecode": "0x608060405260405180606001604052806023815260200162003ce460239139600b908051906020019062000035929190620001ea565b503480156200004357600080fd5b506040518060400160405280600381526020017f4e667400000000000000000000000000000000000000000000000000000000008152506040518060400160405280600381526020017f4e465400000000000000000000000000000000000000000000000000000000008152508160009080519060200190620000c8929190620001ea565b508060019080519060200190620000e1929190620001ea565b50505062000116620001016200011c640100000000026401000000009004565b62000124640100000000026401000000009004565b620002ff565b600033905090565b6000600660009054906101000a900473ffffffffffffffffffffffffffffffffffffffff16905081600660006101000a81548173ffffffffffffffffffffffffffffffffffffffff021916908373ffffffffffffffffffffffffffffffffffffffff1602179055508173ffffffffffffffffffffffffffffffffffffffff168173ffffffffffffffffffffffffffffffffffffffff167f8be0079c531659141344cd1fd0a4f28419497f9722a3daafe3b4186f6b6457e060405160405180910390a35050565b828054620001f890620002c9565b90600052602060002090601f0160209004810192826200021c576000855562000268565b82601f106200023757805160ff191683800117855562000268565b8280016001018555821562000268579182015b82811115620002675782518255916020019190600101906200024a565b5b5090506200027791906200027b565b5090565b5b80821115620002965760008160009055506001016200027c565b5090565b7f4e487b7100000000000000000000000000000000000000000000000000000000600052602260045260246000fd5b60006002820490506001821680620002e257607f821691505b60208210811415620002f957620002f86200029a565b5b50919050565b6139d5806200030f6000396000f3fe608060405234801561001057600080fd5b50600436106101ab576000357c010000000000000000000000000000000000000000000000000000000090048063715018a6116100fb578063b88d4fde116100b4578063d547cfb71161008e578063d547cfb7146104c8578063d85d3d27146104e6578063e985e9c514610502578063f2fde38b14610532576101ab565b8063b88d4fde1461044c578063bd11f69d14610468578063c87b56dd14610498576101ab565b8063715018a61461039c5780638462151c146103a65780638d859f3e146103d65780638da5cb5b146103f457806395d89b4114610412578063a22cb46514610430576101ab565b806323b872dd1161016857806342842e0e1161014257806342842e0e146102f05780634f6ccce71461030c5780636352211e1461033c57806370a082311461036c576101ab565b806323b872dd146102865780632f745c59146102a257806332cb6b0c146102d2576101ab565b806301ffc9a7146101b057806306fdde03146101e0578063081812fc146101fe578063095ea7b31461022e57806309d42b301461024a57806318160ddd14610268575b600080fd5b6101ca60048036038101906101c59190612526565b61054e565b6040516101d7919061256e565b60405180910390f35b6101e8610560565b6040516101f59190612622565b60405180910390f35b6102186004803603810190610213919061267a565b6105f2565b60405161022591906126e8565b60405180910390f35b6102486004803603810190610243919061272f565b610677565b005b61025261078f565b60405161025f919061277e565b60405180910390f35b610270610794565b60405161027d919061277e565b60405180910390f35b6102a0600480360381019061029b9190612799565b6107a1565b005b6102bc60048036038101906102b7919061272f565b610801565b6040516102c9919061277e565b60405180910390f35b6102da6108a6565b6040516102e7919061277e565b60405180910390f35b61030a60048036038101906103059190612799565b6108ac565b005b6103266004803603810190610321919061267a565b6108cc565b604051610333919061277e565b60405180910390f35b6103566004803603810190610351919061267a565b61093d565b60405161036391906126e8565b60405180910390f35b610386600480360381019061038191906127ec565b6109ef565b604051610393919061277e565b60405180910390f35b6103a4610aa7565b005b6103c060048036038101906103bb91906127ec565b610b2f565b6040516103cd91906128d7565b60405180910390f35b6103de610bdd565b6040516103eb919061277e565b60405180910390f35b6103fc610be7565b60405161040991906126e8565b60405180910390f35b61041a610c11565b6040516104279190612622565b60405180910390f35b61044a60048036038101906104459190612925565b610ca3565b005b61046660048036038101906104619190612a9a565b610e24565b005b610482600480360381019061047d919061267a565b610e86565b60405161048f9190612622565b60405180910390f35b6104b260048036038101906104ad919061267a565b610f32565b6040516104bf9190612622565b60405180910390f35b6104d0610fd9565b6040516104dd9190612622565b60405180910390f35b61050060048036038101906104fb9190612bbe565b611067565b005b61051c60048036038101906105179190612c07565b611136565b604051610529919061256e565b60405180910390f35b61054c600480360381019061054791906127ec565b6111ca565b005b6000610559826112c2565b9050919050565b60606000805461056f90612c76565b80601f016020809104026020016040519081016040528092919081815260200182805461059b90612c76565b80156105e85780601f106105bd576101008083540402835291602001916105e8565b820191906000526020600020905b8154815290600101906020018083116105cb57829003601f168201915b5050505050905090565b60006105fd8261133c565b61063c576040517f08c379a000000000000000000000000000000000000000000000000000000000815260040161063390612d1a565b60405180910390fd5b6004600083815260200190815260200160002060009054906101000a900473ffffffffffffffffffffffffffffffffffffffff169050919050565b60006106828261093d565b90508073ffffffffffffffffffffffffffffffffffffffff168373ffffffffffffffffffffffffffffffffffffffff1614156106f3576040517f08c379a00000000000000000000000000000000000000000000000000000000081526004016106ea90612dac565b60405180910390fd5b8073ffffffffffffffffffffffffffffffffffffffff166107126113a8565b73ffffffffffffffffffffffffffffffffffffffff16148061074157506107408161073b6113a8565b611136565b5b610780576040517f08c379a000000000000000000000000000000000000000000000000000000000815260040161077790612e3e565b60405180910390fd5b61078a83836113b0565b505050565b606481565b6000600980549050905090565b6107b26107ac6113a8565b82611469565b6107f1576040517f08c379a00000000000000000000000000000000000000000000000000000000081526004016107e890612ed0565b60405180910390fd5b6107fc838383611547565b505050565b600061080c836109ef565b821061084d576040517f08c379a000000000000000000000000000000000000000000000000000000000815260040161084490612f62565b60405180910390fd5b600760008473ffffffffffffffffffffffffffffffffffffffff1673ffffffffffffffffffffffffffffffffffffffff168152602001908152602001600020600083815260200190815260200160002054905092915050565b61c35081565b6108c783838360405180602001604052806000815250610e24565b505050565b60006108d6610794565b8210610917576040517f08c379a000000000000000000000000000000000000000000000000000000000815260040161090e90612ff4565b60405180910390fd5b6009828154811061092b5761092a613014565b5b90600052602060002001549050919050565b6000806002600084815260200190815260200160002060009054906101000a900473ffffffffffffffffffffffffffffffffffffffff169050600073ffffffffffffffffffffffffffffffffffffffff168173ffffffffffffffffffffffffffffffffffffffff1614156109e6576040517f08c379a00000000000000000000000000000000000000000000000000000000081526004016109dd906130b5565b60405180910390fd5b80915050919050565b60008073ffffffffffffffffffffffffffffffffffffffff168273ffffffffffffffffffffffffffffffffffffffff161415610a60576040517f08c379a0000000000000000000000000000000000000000000000000000000008152600401610a5790613147565b60405180910390fd5b600360008373ffffffffffffffffffffffffffffffffffffffff1673ffffffffffffffffffffffffffffffffffffffff168152602001908152602001600020549050919050565b610aaf6113a8565b73ffffffffffffffffffffffffffffffffffffffff16610acd610be7565b73ffffffffffffffffffffffffffffffffffffffff1614610b23576040517f08c379a0000000000000000000000000000000000000000000000000000000008152600401610b1a906131b3565b60405180910390fd5b610b2d60006117a3565b565b60606000610b3c836109ef565b905060008167ffffffffffffffff811115610b5a57610b5961296f565b5b604051908082528060200260200182016040528015610b885781602001602082028036833780820191505090505b50905060005b82811015610bd257610ba08582610801565b828281518110610bb357610bb2613014565b5b6020026020010181815250508080610bca90613202565b915050610b8e565b508092505050919050565b655af3107a400081565b6000600660009054906101000a900473ffffffffffffffffffffffffffffffffffffffff16905090565b606060018054610c2090612c76565b80601f0160208091040260200160405190810160405280929190818152602001828054610c4c90612c76565b8015610c995780601f10610c6e57610100808354040283529160200191610c99565b820191906000526020600020905b815481529060010190602001808311610c7c57829003601f168201915b5050505050905090565b610cab6113a8565b73ffffffffffffffffffffffffffffffffffffffff168273ffffffffffffffffffffffffffffffffffffffff161415610d19576040517f08c379a0000000000000000000000000000000000000000000000000000000008152600401610d1090613297565b60405180910390fd5b8060056000610d266113a8565b73ffffffffffffffffffffffffffffffffffffffff1673ffffffffffffffffffffffffffffffffffffffff16815260200190815260200160002060008473ffffffffffffffffffffffffffffffffffffffff1673ffffffffffffffffffffffffffffffffffffffff16815260200190815260200160002060006101000a81548160ff0219169083151502179055508173ffffffffffffffffffffffffffffffffffffffff16610dd36113a8565b73ffffffffffffffffffffffffffffffffffffffff167f17307eab39ab6107e8899845ad3d59bd9653f200f220920489ca2b5937696c3183604051610e18919061256e565b60405180910390a35050565b610e35610e2f6113a8565b83611469565b610e74576040517f08c379a0000000000000000000000000000000000000000000000000000000008152600401610e6b90612ed0565b60405180910390fd5b610e8084848484611869565b50505050565b600d8181548110610e9657600080fd5b906000526020600020016000915090508054610eb190612c76565b80601f0160208091040260200160405190810160405280929190818152602001828054610edd90612c76565b8015610f2a5780601f10610eff57610100808354040283529160200191610f2a565b820191906000526020600020905b815481529060010190602001808311610f0d57829003601f168201915b505050505081565b6060610f3d8261133c565b610f7c576040517f08c379a0000000000000000000000000000000000000000000000000000000008152600401610f7390613329565b60405180910390fd5b6000610f866118c5565b90506000815111610fa65760405180602001604052806000815250610fd1565b80610fb084611957565b604051602001610fc1929190613385565b6040516020818303038152906040525b915050919050565b600b8054610fe690612c76565b80601f016020809104026020016040519081016040528092919081815260200182805461101290612c76565b801561105f5780601f106110345761010080835404028352916020019161105f565b820191906000526020600020905b81548152906001019060200180831161104257829003601f168201915b505050505081565b600e8160405161107791906133a9565b908152602001604051809103902060009054906101000a900460ff161561109d57600080fd5b60006110a9600c611ad7565b90506110b5600c611ae5565b600d829080600181540180825580915050600190039060005260206000200160009091909190915090805190602001906110f0929190612417565b506110fb3382611afb565b6001600e8360405161110d91906133a9565b908152602001604051809103902060006101000a81548160ff0219169083151502179055505050565b6000600560008473ffffffffffffffffffffffffffffffffffffffff1673ffffffffffffffffffffffffffffffffffffffff16815260200190815260200160002060008373ffffffffffffffffffffffffffffffffffffffff1673ffffffffffffffffffffffffffffffffffffffff16815260200190815260200160002060009054906101000a900460ff16905092915050565b6111d26113a8565b73ffffffffffffffffffffffffffffffffffffffff166111f0610be7565b73ffffffffffffffffffffffffffffffffffffffff1614611246576040517f08c379a000000000000000000000000000000000000000000000000000000000815260040161123d906131b3565b60405180910390fd5b600073ffffffffffffffffffffffffffffffffffffffff168173ffffffffffffffffffffffffffffffffffffffff1614156112b6576040517f08c379a00000000000000000000000000000000000000000000000000000000081526004016112ad90613432565b60405180910390fd5b6112bf816117a3565b50565b60007f780e9d63000000000000000000000000000000000000000000000000000000007bffffffffffffffffffffffffffffffffffffffffffffffffffffffff1916827bffffffffffffffffffffffffffffffffffffffffffffffffffffffff19161480611335575061133482611cc9565b5b9050919050565b60008073ffffffffffffffffffffffffffffffffffffffff166002600084815260200190815260200160002060009054906101000a900473ffffffffffffffffffffffffffffffffffffffff1673ffffffffffffffffffffffffffffffffffffffff1614159050919050565b600033905090565b816004600083815260200190815260200160002060006101000a81548173ffffffffffffffffffffffffffffffffffffffff021916908373ffffffffffffffffffffffffffffffffffffffff160217905550808273ffffffffffffffffffffffffffffffffffffffff166114238361093d565b73ffffffffffffffffffffffffffffffffffffffff167f8c5be1e5ebec7d5bd14f71427d1e84f3dd0314c0f7b2291e5b200ac8c7c3b92560405160405180910390a45050565b60006114748261133c565b6114b3576040517f08c379a00000000000000000000000000000000000000000000000000000000081526004016114aa906134c4565b60405180910390fd5b60006114be8361093d565b90508073ffffffffffffffffffffffffffffffffffffffff168473ffffffffffffffffffffffffffffffffffffffff16148061152d57508373ffffffffffffffffffffffffffffffffffffffff16611515846105f2565b73ffffffffffffffffffffffffffffffffffffffff16145b8061153e575061153d8185611136565b5b91505092915050565b8273ffffffffffffffffffffffffffffffffffffffff166115678261093d565b73ffffffffffffffffffffffffffffffffffffffff16146115bd576040517f08c379a00000000000000000000000000000000000000000000000000000000081526004016115b490613556565b60405180910390fd5b600073ffffffffffffffffffffffffffffffffffffffff168273ffffffffffffffffffffffffffffffffffffffff16141561162d576040517f08c379a0000000000000000000000000000000000000000000000000000000008152600401611624906135e8565b60405180910390fd5b611638838383611dab565b6116436000826113b0565b6001600360008573ffffffffffffffffffffffffffffffffffffffff1673ffffffffffffffffffffffffffffffffffffffff16815260200190815260200160002060008282546116939190613608565b925050819055506001600360008473ffffffffffffffffffffffffffffffffffffffff1673ffffffffffffffffffffffffffffffffffffffff16815260200190815260200160002060008282546116ea919061363c565b92505081905550816002600083815260200190815260200160002060006101000a81548173ffffffffffffffffffffffffffffffffffffffff021916908373ffffffffffffffffffffffffffffffffffffffff160217905550808273ffffffffffffffffffffffffffffffffffffffff168473ffffffffffffffffffffffffffffffffffffffff167fddf252ad1be2c89b69c2b068fc378daa952ba7f163c4a11628f55a4df523b3ef60405160405180910390a4505050565b6000600660009054906101000a900473ffffffffffffffffffffffffffffffffffffffff16905081600660006101000a81548173ffffffffffffffffffffffffffffffffffffffff021916908373ffffffffffffffffffffffffffffffffffffffff1602179055508173ffffffffffffffffffffffffffffffffffffffff168173ffffffffffffffffffffffffffffffffffffffff167f8be0079c531659141344cd1fd0a4f28419497f9722a3daafe3b4186f6b6457e060405160405180910390a35050565b611874848484611547565b61188084848484611dbb565b6118bf576040517f08c379a00000000000000000000000000000000000000000000000000000000081526004016118b690613704565b60405180910390fd5b50505050565b6060600b80546118d490612c76565b80601f016020809104026020016040519081016040528092919081815260200182805461190090612c76565b801561194d5780601f106119225761010080835404028352916020019161194d565b820191906000526020600020905b81548152906001019060200180831161193057829003601f168201915b5050505050905090565b6060600082141561199f576040518060400160405280600181526020017f30000000000000000000000000000000000000000000000000000000000000008152509050611ad2565b600082905060005b600082146119d15780806119ba90613202565b915050600a826119ca9190613753565b91506119a7565b60008167ffffffffffffffff8111156119ed576119ec61296f565b5b6040519080825280601f01601f191660200182016040528015611a1f5781602001600182028036833780820191505090505b5090505b60008514611acb57600182611a389190613608565b9150600a85611a479190613784565b6030611a53919061363c565b7f010000000000000000000000000000000000000000000000000000000000000002818381518110611a8857611a87613014565b5b60200101907effffffffffffffffffffffffffffffffffffffffffffffffffffffffffffff1916908160001a905350600a85611ac49190613753565b9450611a23565b8093505050505b919050565b600081600001549050919050565b6001816000016000828254019250508190555050565b600073ffffffffffffffffffffffffffffffffffffffff168273ffffffffffffffffffffffffffffffffffffffff161415611b6b576040517f08c379a0000000000000000000000000000000000000000000000000000000008152600401611b6290613801565b60405180910390fd5b611b748161133c565b15611bb4576040517f08c379a0000000000000000000000000000000000000000000000000000000008152600401611bab9061386d565b60405180910390fd5b611bc060008383611dab565b6001600360008473ffffffffffffffffffffffffffffffffffffffff1673ffffffffffffffffffffffffffffffffffffffff1681526020019081526020016000206000828254611c10919061363c565b92505081905550816002600083815260200190815260200160002060006101000a81548173ffffffffffffffffffffffffffffffffffffffff021916908373ffffffffffffffffffffffffffffffffffffffff160217905550808273ffffffffffffffffffffffffffffffffffffffff16600073ffffffffffffffffffffffffffffffffffffffff167fddf252ad1be2c89b69c2b068fc378daa952ba7f163c4a11628f55a4df523b3ef60405160405180910390a45050565b60007f80ac58cd000000000000000000000000000000000000000000000000000000007bffffffffffffffffffffffffffffffffffffffffffffffffffffffff1916827bffffffffffffffffffffffffffffffffffffffffffffffffffffffff19161480611d9457507f5b5e139f000000000000000000000000000000000000000000000000000000007bffffffffffffffffffffffffffffffffffffffffffffffffffffffff1916827bffffffffffffffffffffffffffffffffffffffffffffffffffffffff1916145b80611da45750611da382611f7b565b5b9050919050565b611db6838383611fe5565b505050565b6000611ddc8473ffffffffffffffffffffffffffffffffffffffff166120f9565b15611f6e578373ffffffffffffffffffffffffffffffffffffffff1663150b7a02611e056113a8565b8786866040518563ffffffff167c0100000000000000000000000000000000000000000000000000000000028152600401611e4394939291906138e2565b6020604051808303816000875af1925050508015611e7f57506040513d601f19601f82011682018060405250810190611e7c9190613943565b60015b611f02573d8060008114611eaf576040519150601f19603f3d011682016040523d82523d6000602084013e611eb4565b606091505b50600081511415611efa576040517f08c379a0000000000000000000000000000000000000000000000000000000008152600401611ef190613704565b60405180910390fd5b805181602001fd5b63150b7a027c0100000000000000000000000000000000000000000000000000000000027bffffffffffffffffffffffffffffffffffffffffffffffffffffffff1916817bffffffffffffffffffffffffffffffffffffffffffffffffffffffff191614915050611f73565b600190505b949350505050565b60007f01ffc9a7000000000000000000000000000000000000000000000000000000007bffffffffffffffffffffffffffffffffffffffffffffffffffffffff1916827bffffffffffffffffffffffffffffffffffffffffffffffffffffffff1916149050919050565b611ff083838361210c565b600073ffffffffffffffffffffffffffffffffffffffff168373ffffffffffffffffffffffffffffffffffffffff1614156120335761202e81612111565b612072565b8173ffffffffffffffffffffffffffffffffffffffff168373ffffffffffffffffffffffffffffffffffffffff161461207157612070838261215a565b5b5b600073ffffffffffffffffffffffffffffffffffffffff168273ffffffffffffffffffffffffffffffffffffffff1614156120b5576120b0816122c7565b6120f4565b8273ffffffffffffffffffffffffffffffffffffffff168273ffffffffffffffffffffffffffffffffffffffff16146120f3576120f28282612398565b5b5b505050565b600080823b905060008111915050919050565b505050565b600980549050600a600083815260200190815260200160002081905550600981908060018154018082558091505060019003906000526020600020016000909190919091505550565b60006001612167846109ef565b6121719190613608565b9050600060086000848152602001908152602001600020549050818114612256576000600760008673ffffffffffffffffffffffffffffffffffffffff1673ffffffffffffffffffffffffffffffffffffffff168152602001908152602001600020600084815260200190815260200160002054905080600760008773ffffffffffffffffffffffffffffffffffffffff1673ffffffffffffffffffffffffffffffffffffffff168152602001908152602001600020600084815260200190815260200160002081905550816008600083815260200190815260200160002081905550505b6008600084815260200190815260200160002060009055600760008573ffffffffffffffffffffffffffffffffffffffff1673ffffffffffffffffffffffffffffffffffffffff16815260200190815260200160002060008381526020019081526020016000206000905550505050565b600060016009805490506122db9190613608565b90506000600a600084815260200190815260200160002054905060006009838154811061230b5761230a613014565b5b90600052602060002001549050806009838154811061232d5761232c613014565b5b906000526020600020018190555081600a600083815260200190815260200160002081905550600a600085815260200190815260200160002060009055600980548061237c5761237b613970565b5b6001900381819060005260206000200160009055905550505050565b60006123a3836109ef565b905081600760008573ffffffffffffffffffffffffffffffffffffffff1673ffffffffffffffffffffffffffffffffffffffff168152602001908152602001600020600083815260200190815260200160002081905550806008600084815260200190815260200160002081905550505050565b82805461242390612c76565b90600052602060002090601f016020900481019282612445576000855561248c565b82601f1061245e57805160ff191683800117855561248c565b8280016001018555821561248c579182015b8281111561248b578251825591602001919060010190612470565b5b509050612499919061249d565b5090565b5b808211156124b657600081600090555060010161249e565b5090565b6000604051905090565b600080fd5b600080fd5b60007fffffffff0000000000000000000000000000000000000000000000000000000082169050919050565b612503816124ce565b811461250e57600080fd5b50565b600081359050612520816124fa565b92915050565b60006020828403121561253c5761253b6124c4565b5b600061254a84828501612511565b91505092915050565b60008115159050919050565b61256881612553565b82525050565b6000602082019050612583600083018461255f565b92915050565b600081519050919050565b600082825260208201905092915050565b60005b838110156125c35780820151818401526020810190506125a8565b838111156125d2576000848401525b50505050565b6000601f19601f8301169050919050565b60006125f482612589565b6125fe8185612594565b935061260e8185602086016125a5565b612617816125d8565b840191505092915050565b6000602082019050818103600083015261263c81846125e9565b905092915050565b6000819050919050565b61265781612644565b811461266257600080fd5b50565b6000813590506126748161264e565b92915050565b6000602082840312156126905761268f6124c4565b5b600061269e84828501612665565b91505092915050565b600073ffffffffffffffffffffffffffffffffffffffff82169050919050565b60006126d2826126a7565b9050919050565b6126e2816126c7565b82525050565b60006020820190506126fd60008301846126d9565b92915050565b61270c816126c7565b811461271757600080fd5b50565b60008135905061272981612703565b92915050565b60008060408385031215612746576127456124c4565b5b60006127548582860161271a565b925050602061276585828601612665565b9150509250929050565b61277881612644565b82525050565b6000602082019050612793600083018461276f565b92915050565b6000806000606084860312156127b2576127b16124c4565b5b60006127c08682870161271a565b93505060206127d18682870161271a565b92505060406127e286828701612665565b9150509250925092565b600060208284031215612802576128016124c4565b5b60006128108482850161271a565b91505092915050565b600081519050919050565b600082825260208201905092915050565b6000819050602082019050919050565b61284e81612644565b82525050565b60006128608383612845565b60208301905092915050565b6000602082019050919050565b600061288482612819565b61288e8185612824565b935061289983612835565b8060005b838110156128ca5781516128b18882612854565b97506128bc8361286c565b92505060018101905061289d565b5085935050505092915050565b600060208201905081810360008301526128f18184612879565b905092915050565b61290281612553565b811461290d57600080fd5b50565b60008135905061291f816128f9565b92915050565b6000806040838503121561293c5761293b6124c4565b5b600061294a8582860161271a565b925050602061295b85828601612910565b9150509250929050565b600080fd5b600080fd5b7f4e487b7100000000000000000000000000000000000000000000000000000000600052604160045260246000fd5b6129a7826125d8565b810181811067ffffffffffffffff821117156129c6576129c561296f565b5b80604052505050565b60006129d96124ba565b90506129e5828261299e565b919050565b600067ffffffffffffffff821115612a0557612a0461296f565b5b612a0e826125d8565b9050602081019050919050565b82818337600083830152505050565b6000612a3d612a38846129ea565b6129cf565b905082815260208101848484011115612a5957612a5861296a565b5b612a64848285612a1b565b509392505050565b600082601f830112612a8157612a80612965565b5b8135612a91848260208601612a2a565b91505092915050565b60008060008060808587031215612ab457612ab36124c4565b5b6000612ac28782880161271a565b9450506020612ad38782880161271a565b9350506040612ae487828801612665565b925050606085013567ffffffffffffffff811115612b0557612b046124c9565b5b612b1187828801612a6c565b91505092959194509250565b600067ffffffffffffffff821115612b3857612b3761296f565b5b612b41826125d8565b9050602081019050919050565b6000612b61612b5c84612b1d565b6129cf565b905082815260208101848484011115612b7d57612b7c61296a565b5b612b88848285612a1b565b509392505050565b600082601f830112612ba557612ba4612965565b5b8135612bb5848260208601612b4e565b91505092915050565b600060208284031215612bd457612bd36124c4565b5b600082013567ffffffffffffffff811115612bf257612bf16124c9565b5b612bfe84828501612b90565b91505092915050565b60008060408385031215612c1e57612c1d6124c4565b5b6000612c2c8582860161271a565b9250506020612c3d8582860161271a565b9150509250929050565b7f4e487b7100000000000000000000000000000000000000000000000000000000600052602260045260246000fd5b60006002820490506001821680612c8e57607f821691505b60208210811415612ca257612ca1612c47565b5b50919050565b7f4552433732313a20617070726f76656420717565727920666f72206e6f6e657860008201527f697374656e7420746f6b656e0000000000000000000000000000000000000000602082015250565b6000612d04602c83612594565b9150612d0f82612ca8565b604082019050919050565b60006020820190508181036000830152612d3381612cf7565b9050919050565b7f4552433732313a20617070726f76616c20746f2063757272656e74206f776e6560008201527f7200000000000000000000000000000000000000000000000000000000000000602082015250565b6000612d96602183612594565b9150612da182612d3a565b604082019050919050565b60006020820190508181036000830152612dc581612d89565b9050919050565b7f4552433732313a20617070726f76652063616c6c6572206973206e6f74206f7760008201527f6e6572206e6f7220617070726f76656420666f7220616c6c0000000000000000602082015250565b6000612e28603883612594565b9150612e3382612dcc565b604082019050919050565b60006020820190508181036000830152612e5781612e1b565b9050919050565b7f4552433732313a207472616e736665722063616c6c6572206973206e6f74206f60008201527f776e6572206e6f7220617070726f766564000000000000000000000000000000602082015250565b6000612eba603183612594565b9150612ec582612e5e565b604082019050919050565b60006020820190508181036000830152612ee981612ead565b9050919050565b7f455243373231456e756d657261626c653a206f776e657220696e646578206f7560008201527f74206f6620626f756e6473000000000000000000000000000000000000000000602082015250565b6000612f4c602b83612594565b9150612f5782612ef0565b604082019050919050565b60006020820190508181036000830152612f7b81612f3f565b9050919050565b7f455243373231456e756d657261626c653a20676c6f62616c20696e646578206f60008201527f7574206f6620626f756e64730000000000000000000000000000000000000000602082015250565b6000612fde602c83612594565b9150612fe982612f82565b604082019050919050565b6000602082019050818103600083015261300d81612fd1565b9050919050565b7f4e487b7100000000000000000000000000000000000000000000000000000000600052603260045260246000fd5b7f4552433732313a206f776e657220717565727920666f72206e6f6e657869737460008201527f656e7420746f6b656e0000000000000000000000000000000000000000000000602082015250565b600061309f602983612594565b91506130aa82613043565b604082019050919050565b600060208201905081810360008301526130ce81613092565b9050919050565b7f4552433732313a2062616c616e636520717565727920666f7220746865207a6560008201527f726f206164647265737300000000000000000000000000000000000000000000602082015250565b6000613131602a83612594565b915061313c826130d5565b604082019050919050565b6000602082019050818103600083015261316081613124565b9050919050565b7f4f776e61626c653a2063616c6c6572206973206e6f7420746865206f776e6572600082015250565b600061319d602083612594565b91506131a882613167565b602082019050919050565b600060208201905081810360008301526131cc81613190565b9050919050565b7f4e487b7100000000000000000000000000000000000000000000000000000000600052601160045260246000fd5b600061320d82612644565b91507fffffffffffffffffffffffffffffffffffffffffffffffffffffffffffffffff8214156132405761323f6131d3565b5b600182019050919050565b7f4552433732313a20617070726f766520746f2063616c6c657200000000000000600082015250565b6000613281601983612594565b915061328c8261324b565b602082019050919050565b600060208201905081810360008301526132b081613274565b9050919050565b7f4552433732314d657461646174613a2055524920717565727920666f72206e6f60008201527f6e6578697374656e7420746f6b656e0000000000000000000000000000000000602082015250565b6000613313602f83612594565b915061331e826132b7565b604082019050919050565b6000602082019050818103600083015261334281613306565b9050919050565b600081905092915050565b600061335f82612589565b6133698185613349565b93506133798185602086016125a5565b80840191505092915050565b60006133918285613354565b915061339d8284613354565b91508190509392505050565b60006133b58284613354565b915081905092915050565b7f4f776e61626c653a206e6577206f776e657220697320746865207a65726f206160008201527f6464726573730000000000000000000000000000000000000000000000000000602082015250565b600061341c602683612594565b9150613427826133c0565b604082019050919050565b6000602082019050818103600083015261344b8161340f565b9050919050565b7f4552433732313a206f70657261746f7220717565727920666f72206e6f6e657860008201527f697374656e7420746f6b656e0000000000000000000000000000000000000000602082015250565b60006134ae602c83612594565b91506134b982613452565b604082019050919050565b600060208201905081810360008301526134dd816134a1565b9050919050565b7f4552433732313a207472616e73666572206f6620746f6b656e2074686174206960008201527f73206e6f74206f776e0000000000000000000000000000000000000000000000602082015250565b6000613540602983612594565b915061354b826134e4565b604082019050919050565b6000602082019050818103600083015261356f81613533565b9050919050565b7f4552433732313a207472616e7366657220746f20746865207a65726f2061646460008201527f7265737300000000000000000000000000000000000000000000000000000000602082015250565b60006135d2602483612594565b91506135dd82613576565b604082019050919050565b60006020820190508181036000830152613601816135c5565b9050919050565b600061361382612644565b915061361e83612644565b925082821015613631576136306131d3565b5b828203905092915050565b600061364782612644565b915061365283612644565b9250827fffffffffffffffffffffffffffffffffffffffffffffffffffffffffffffffff03821115613687576136866131d3565b5b828201905092915050565b7f4552433732313a207472616e7366657220746f206e6f6e20455243373231526560008201527f63656976657220696d706c656d656e7465720000000000000000000000000000602082015250565b60006136ee603283612594565b91506136f982613692565b604082019050919050565b6000602082019050818103600083015261371d816136e1565b9050919050565b7f4e487b7100000000000000000000000000000000000000000000000000000000600052601260045260246000fd5b600061375e82612644565b915061376983612644565b92508261377957613778613724565b5b828204905092915050565b600061378f82612644565b915061379a83612644565b9250826137aa576137a9613724565b5b828206905092915050565b7f4552433732313a206d696e7420746f20746865207a65726f2061646472657373600082015250565b60006137eb602083612594565b91506137f6826137b5565b602082019050919050565b6000602082019050818103600083015261381a816137de565b9050919050565b7f4552433732313a20746f6b656e20616c7265616479206d696e74656400000000600082015250565b6000613857601c83612594565b915061386282613821565b602082019050919050565b600060208201905081810360008301526138868161384a565b9050919050565b600081519050919050565b600082825260208201905092915050565b60006138b48261388d565b6138be8185613898565b93506138ce8185602086016125a5565b6138d7816125d8565b840191505092915050565b60006080820190506138f760008301876126d9565b61390460208301866126d9565b613911604083018561276f565b818103606083015261392381846138a9565b905095945050505050565b60008151905061393d816124fa565b92915050565b600060208284031215613959576139586124c4565b5b60006139678482850161392e565b91505092915050565b7f4e487b7100000000000000000000000000000000000000000000000000000000600052603160045260246000fdfea2646970667358221220869fb3f6fb0e542c77080e4db5278e6644828fd2f6cd621df3abd67ccb8c4da264736f6c634300080a0033697066733a2f2f32306d6666354f47706c4f5a65456f37436f4c41316c44364a63792f",
  "immutableReferences": {},
  "source": "// SPDX-License-Identifier: MIT\npragma solidity >=0.4.22 <0.9.0;\n\nimport \"@openzeppelin/contracts/token/ERC721/ERC721.sol\";\nimport \"@openzeppelin/contracts/access/Ownable.sol\";\nimport \"@openzeppelin/contracts/utils/math/SafeMath.sol\";\nimport \"@openzeppelin/contracts/utils/Counters.sol\";\nimport \"@openzeppelin/contracts/token/ERC721/extensions/ERC721Enumerable.sol\";\n\ncontract Nft is ERC721, Ownable, ERC721Enumerable {\n   using SafeMath for uint256;\n   using Counters for Counters.Counter;\n\n   uint public constant MAX_SUPPLY = 50000;\n   uint public constant PRICE = 0.0001 ether;\n   uint public constant MAX_PER_MINT = 100;\n   string public baseTokenURI = \"ipfs://20mff5OGplOZeEo7CoLA1lD6Jcy/\";\n\n   Counters.Counter private _tokenIds;\n   string[] public colors;\n   mapping(string => bool) _colorExists;\n   constructor() ERC721(\"Nft\", \"NFT\") {}\n\n// add color, require uniqie color, call mint funciton, trak the color\n  function mint(string memory _color) public {\n\n    require(!_colorExists[_color]);\n    uint _id = _tokenIds.current();\n    _tokenIds.increment();\n    colors.push(_color);\n    _mint(msg.sender, _id);\n    _colorExists[_color] = true;\n  }\n\n  function tokensOfOwner(address _owner) \n         external \n         view \n         returns (uint[] memory) {     uint tokenCount = balanceOf(_owner);\n     uint[] memory tokensId = new uint256[](tokenCount);     for (uint i = 0; i < tokenCount; i++) {\n          tokensId[i] = tokenOfOwnerByIndex(_owner, i);\n     }\n     \n     return tokensId;\n   }\n\n   function _baseURI() internal \n                    view \n                    virtual \n                    override \n                    returns (string memory) {\n     return baseTokenURI;\n   }  \n    \n\n\n   // The following functions are overrides for ERC721Enumerable required by Solidity.\n   function _beforeTokenTransfer(address from, address to, uint256 tokenId)\n        internal\n        override(ERC721, ERC721Enumerable)\n    {\n        super._beforeTokenTransfer(from, to, tokenId);\n    }\n\n    function supportsInterface(bytes4 interfaceId)\n        public\n        view\n        override(ERC721, ERC721Enumerable)\n        returns (bool)\n    {\n        return super.supportsInterface(interfaceId);\n    }\n}",
  "sourcePath": "/Users/lenahierzi/Developer/consensys/blockchain-developer-bootcamp-final-project/contracts/Nft.sol",
  "compiler": {
    "name": "solc",
    "version": "0.8.10+commit.fc410830.Emscripten.clang"
  },
  "schemaVersion": "3.3.4",
  "updatedAt": "2021-11-11T20:04:13.379Z",
  "devdoc": {
    "kind": "dev",
    "methods": {
      "approve(address,uint256)": {
        "details": "See {IERC721-approve}."
      },
      "balanceOf(address)": {
        "details": "See {IERC721-balanceOf}."
      },
      "getApproved(uint256)": {
        "details": "See {IERC721-getApproved}."
      },
      "isApprovedForAll(address,address)": {
        "details": "See {IERC721-isApprovedForAll}."
      },
      "name()": {
        "details": "See {IERC721Metadata-name}."
      },
      "owner()": {
        "details": "Returns the address of the current owner."
      },
      "ownerOf(uint256)": {
        "details": "See {IERC721-ownerOf}."
      },
      "renounceOwnership()": {
        "details": "Leaves the contract without owner. It will not be possible to call `onlyOwner` functions anymore. Can only be called by the current owner. NOTE: Renouncing ownership will leave the contract without an owner, thereby removing any functionality that is only available to the owner."
      },
      "safeTransferFrom(address,address,uint256)": {
        "details": "See {IERC721-safeTransferFrom}."
      },
      "safeTransferFrom(address,address,uint256,bytes)": {
        "details": "See {IERC721-safeTransferFrom}."
      },
      "setApprovalForAll(address,bool)": {
        "details": "See {IERC721-setApprovalForAll}."
      },
      "symbol()": {
        "details": "See {IERC721Metadata-symbol}."
      },
      "tokenByIndex(uint256)": {
        "details": "See {IERC721Enumerable-tokenByIndex}."
      },
      "tokenOfOwnerByIndex(address,uint256)": {
        "details": "See {IERC721Enumerable-tokenOfOwnerByIndex}."
      },
      "tokenURI(uint256)": {
        "details": "See {IERC721Metadata-tokenURI}."
      },
      "totalSupply()": {
        "details": "See {IERC721Enumerable-totalSupply}."
      },
      "transferFrom(address,address,uint256)": {
        "details": "See {IERC721-transferFrom}."
      },
      "transferOwnership(address)": {
        "details": "Transfers ownership of the contract to a new account (`newOwner`). Can only be called by the current owner."
      }
    },
    "version": 1
  },
  "userdoc": {
    "kind": "user",
    "methods": {},
    "version": 1
  }
}