{
  "contractName": "Nft",
  "abi": [
    {
      "anonymous": false,
      "inputs": [
        {
          "indexed": true,
          "internalType": "address",
          "name": "owner",
          "type": "address"
        },
        {
          "indexed": true,
          "internalType": "address",
          "name": "approved",
          "type": "address"
        },
        {
          "indexed": true,
          "internalType": "uint256",
          "name": "tokenId",
          "type": "uint256"
        }
      ],
      "name": "Approval",
      "type": "event"
    },
    {
      "anonymous": false,
      "inputs": [
        {
          "indexed": true,
          "internalType": "address",
          "name": "owner",
          "type": "address"
        },
        {
          "indexed": true,
          "internalType": "address",
          "name": "operator",
          "type": "address"
        },
        {
          "indexed": false,
          "internalType": "bool",
          "name": "approved",
          "type": "bool"
        }
      ],
      "name": "ApprovalForAll",
      "type": "event"
    },
    {
      "anonymous": false,
      "inputs": [
        {
          "indexed": true,
          "internalType": "address",
          "name": "previousOwner",
          "type": "address"
        },
        {
          "indexed": true,
          "internalType": "address",
          "name": "newOwner",
          "type": "address"
        }
      ],
      "name": "OwnershipTransferred",
      "type": "event"
    },
    {
      "anonymous": false,
      "inputs": [
        {
          "indexed": true,
          "internalType": "address",
          "name": "from",
          "type": "address"
        },
        {
          "indexed": true,
          "internalType": "address",
          "name": "to",
          "type": "address"
        },
        {
          "indexed": true,
          "internalType": "uint256",
          "name": "tokenId",
          "type": "uint256"
        }
      ],
      "name": "Transfer",
      "type": "event"
    },
    {
      "inputs": [],
      "name": "MAX_PER_MINT",
      "outputs": [
        {
          "internalType": "uint256",
          "name": "",
          "type": "uint256"
        }
      ],
      "stateMutability": "view",
      "type": "function",
      "constant": true
    },
    {
      "inputs": [],
      "name": "MAX_SUPPLY",
      "outputs": [
        {
          "internalType": "uint256",
          "name": "",
          "type": "uint256"
        }
      ],
      "stateMutability": "view",
      "type": "function",
      "constant": true
    },
    {
      "inputs": [],
      "name": "PRICE",
      "outputs": [
        {
          "internalType": "uint256",
          "name": "",
          "type": "uint256"
        }
      ],
      "stateMutability": "view",
      "type": "function",
      "constant": true
    },
    {
      "inputs": [
        {
          "internalType": "address",
          "name": "to",
          "type": "address"
        },
        {
          "internalType": "uint256",
          "name": "tokenId",
          "type": "uint256"
        }
      ],
      "name": "approve",
      "outputs": [],
      "stateMutability": "nonpayable",
      "type": "function"
    },
    {
      "inputs": [
        {
          "internalType": "address",
          "name": "owner",
          "type": "address"
        }
      ],
      "name": "balanceOf",
      "outputs": [
        {
          "internalType": "uint256",
          "name": "",
          "type": "uint256"
        }
      ],
      "stateMutability": "view",
      "type": "function",
      "constant": true
    },
    {
      "inputs": [],
      "name": "baseTokenURI",
      "outputs": [
        {
          "internalType": "string",
          "name": "",
          "type": "string"
        }
      ],
      "stateMutability": "view",
      "type": "function",
      "constant": true
    },
    {
      "inputs": [
        {
          "internalType": "uint256",
          "name": "tokenId",
          "type": "uint256"
        }
      ],
      "name": "getApproved",
      "outputs": [
        {
          "internalType": "address",
          "name": "",
          "type": "address"
        }
      ],
      "stateMutability": "view",
      "type": "function",
      "constant": true
    },
    {
      "inputs": [
        {
          "internalType": "address",
          "name": "owner",
          "type": "address"
        },
        {
          "internalType": "address",
          "name": "operator",
          "type": "address"
        }
      ],
      "name": "isApprovedForAll",
      "outputs": [
        {
          "internalType": "bool",
          "name": "",
          "type": "bool"
        }
      ],
      "stateMutability": "view",
      "type": "function",
      "constant": true
    },
    {
      "inputs": [],
      "name": "name",
      "outputs": [
        {
          "internalType": "string",
          "name": "",
          "type": "string"
        }
      ],
      "stateMutability": "view",
      "type": "function",
      "constant": true
    },
    {
      "inputs": [],
      "name": "owner",
      "outputs": [
        {
          "internalType": "address",
          "name": "",
          "type": "address"
        }
      ],
      "stateMutability": "view",
      "type": "function",
      "constant": true
    },
    {
      "inputs": [
        {
          "internalType": "uint256",
          "name": "tokenId",
          "type": "uint256"
        }
      ],
      "name": "ownerOf",
      "outputs": [
        {
          "internalType": "address",
          "name": "",
          "type": "address"
        }
      ],
      "stateMutability": "view",
      "type": "function",
      "constant": true
    },
    {
      "inputs": [],
      "name": "renounceOwnership",
      "outputs": [],
      "stateMutability": "nonpayable",
      "type": "function"
    },
    {
      "inputs": [
        {
          "internalType": "address",
          "name": "from",
          "type": "address"
        },
        {
          "internalType": "address",
          "name": "to",
          "type": "address"
        },
        {
          "internalType": "uint256",
          "name": "tokenId",
          "type": "uint256"
        }
      ],
      "name": "safeTransferFrom",
      "outputs": [],
      "stateMutability": "nonpayable",
      "type": "function"
    },
    {
      "inputs": [
        {
          "internalType": "address",
          "name": "from",
          "type": "address"
        },
        {
          "internalType": "address",
          "name": "to",
          "type": "address"
        },
        {
          "internalType": "uint256",
          "name": "tokenId",
          "type": "uint256"
        },
        {
          "internalType": "bytes",
          "name": "_data",
          "type": "bytes"
        }
      ],
      "name": "safeTransferFrom",
      "outputs": [],
      "stateMutability": "nonpayable",
      "type": "function"
    },
    {
      "inputs": [
        {
          "internalType": "address",
          "name": "operator",
          "type": "address"
        },
        {
          "internalType": "bool",
          "name": "approved",
          "type": "bool"
        }
      ],
      "name": "setApprovalForAll",
      "outputs": [],
      "stateMutability": "nonpayable",
      "type": "function"
    },
    {
      "inputs": [
        {
          "internalType": "string",
          "name": "baseURI_",
          "type": "string"
        }
      ],
      "name": "setBaseURI",
      "outputs": [],
      "stateMutability": "nonpayable",
      "type": "function"
    },
    {
      "inputs": [],
      "name": "symbol",
      "outputs": [
        {
          "internalType": "string",
          "name": "",
          "type": "string"
        }
      ],
      "stateMutability": "view",
      "type": "function",
      "constant": true
    },
    {
      "inputs": [
        {
          "internalType": "uint256",
          "name": "index",
          "type": "uint256"
        }
      ],
      "name": "tokenByIndex",
      "outputs": [
        {
          "internalType": "uint256",
          "name": "",
          "type": "uint256"
        }
      ],
      "stateMutability": "view",
      "type": "function",
      "constant": true
    },
    {
      "inputs": [
        {
          "internalType": "address",
          "name": "owner",
          "type": "address"
        },
        {
          "internalType": "uint256",
          "name": "index",
          "type": "uint256"
        }
      ],
      "name": "tokenOfOwnerByIndex",
      "outputs": [
        {
          "internalType": "uint256",
          "name": "",
          "type": "uint256"
        }
      ],
      "stateMutability": "view",
      "type": "function",
      "constant": true
    },
    {
      "inputs": [],
      "name": "totalSupply",
      "outputs": [
        {
          "internalType": "uint256",
          "name": "",
          "type": "uint256"
        }
      ],
      "stateMutability": "view",
      "type": "function",
      "constant": true
    },
    {
      "inputs": [
        {
          "internalType": "address",
          "name": "from",
          "type": "address"
        },
        {
          "internalType": "address",
          "name": "to",
          "type": "address"
        },
        {
          "internalType": "uint256",
          "name": "tokenId",
          "type": "uint256"
        }
      ],
      "name": "transferFrom",
      "outputs": [],
      "stateMutability": "nonpayable",
      "type": "function"
    },
    {
      "inputs": [
        {
          "internalType": "address",
          "name": "newOwner",
          "type": "address"
        }
      ],
      "name": "transferOwnership",
      "outputs": [],
      "stateMutability": "nonpayable",
      "type": "function"
    },
    {
      "inputs": [
        {
          "internalType": "string",
          "name": "cid",
          "type": "string"
        }
      ],
      "name": "mint",
      "outputs": [
        {
          "internalType": "uint256",
          "name": "_id",
          "type": "uint256"
        }
      ],
      "stateMutability": "nonpayable",
      "type": "function"
    },
    {
      "inputs": [
        {
          "internalType": "address",
          "name": "_owner",
          "type": "address"
        }
      ],
      "name": "tokensOfOwner",
      "outputs": [
        {
          "internalType": "uint256[]",
          "name": "",
          "type": "uint256[]"
        }
      ],
      "stateMutability": "view",
      "type": "function",
      "constant": true
    },
    {
      "inputs": [
        {
          "internalType": "uint256",
          "name": "tokenId",
          "type": "uint256"
        }
      ],
      "name": "tokenURI",
      "outputs": [
        {
          "internalType": "string",
          "name": "",
          "type": "string"
        }
      ],
      "stateMutability": "view",
      "type": "function",
      "constant": true
    },
    {
      "inputs": [
        {
          "internalType": "bytes4",
          "name": "interfaceId",
          "type": "bytes4"
        }
      ],
      "name": "supportsInterface",
      "outputs": [
        {
          "internalType": "bool",
          "name": "",
          "type": "bool"
        }
      ],
      "stateMutability": "view",
      "type": "function",
      "constant": true
    }
  ],
  "bytecode": "0x60806040526040518060400160405280601581526020017f68747470733a2f2f697066732e696f2f697066732f0000000000000000000000815250600d9080519060200190620000519291906200020a565b503480156200005f57600080fd5b506040518060400160405280600381526020017f4e667400000000000000000000000000000000000000000000000000000000008152506040518060400160405280600381526020017f4e4654000000000000000000000000000000000000000000000000000000000081525081818160009080519060200190620000e69291906200020a565b508060019080519060200190620000ff9291906200020a565b505050620001346200011f6200013c640100000000026401000000009004565b62000144640100000000026401000000009004565b50506200031f565b600033905090565b6000600660009054906101000a900473ffffffffffffffffffffffffffffffffffffffff16905081600660006101000a81548173ffffffffffffffffffffffffffffffffffffffff021916908373ffffffffffffffffffffffffffffffffffffffff1602179055508173ffffffffffffffffffffffffffffffffffffffff168173ffffffffffffffffffffffffffffffffffffffff167f8be0079c531659141344cd1fd0a4f28419497f9722a3daafe3b4186f6b6457e060405160405180910390a35050565b8280546200021890620002e9565b90600052602060002090601f0160209004810192826200023c576000855562000288565b82601f106200025757805160ff191683800117855562000288565b8280016001018555821562000288579182015b82811115620002875782518255916020019190600101906200026a565b5b5090506200029791906200029b565b5090565b5b80821115620002b65760008160009055506001016200029c565b5090565b7f4e487b7100000000000000000000000000000000000000000000000000000000600052602260045260246000fd5b600060028204905060018216806200030257607f821691505b60208210811415620003195762000318620002ba565b5b50919050565b613c90806200032f6000396000f3fe608060405234801561001057600080fd5b50600436106101ab576000357c01000000000000000000000000000000000000000000000000000000009004806370a08231116100fb578063a22cb465116100b4578063d547cfb71161008e578063d547cfb7146104b4578063d85d3d27146104d2578063e985e9c514610502578063f2fde38b14610532576101ab565b8063a22cb4651461044c578063b88d4fde14610468578063c87b56dd14610484576101ab565b806370a0823114610388578063715018a6146103b85780638462151c146103c25780638d859f3e146103f25780638da5cb5b1461041057806395d89b411461042e576101ab565b806323b872dd1161016857806342842e0e1161014257806342842e0e146102f05780634f6ccce71461030c57806355f804b31461033c5780636352211e14610358576101ab565b806323b872dd146102865780632f745c59146102a257806332cb6b0c146102d2576101ab565b806301ffc9a7146101b057806306fdde03146101e0578063081812fc146101fe578063095ea7b31461022e57806309d42b301461024a57806318160ddd14610268575b600080fd5b6101ca60048036038101906101c591906126e3565b61054e565b6040516101d7919061272b565b60405180910390f35b6101e8610560565b6040516101f591906127df565b60405180910390f35b61021860048036038101906102139190612837565b6105f2565b60405161022591906128a5565b60405180910390f35b610248600480360381019061024391906128ec565b610677565b005b61025261078f565b60405161025f919061293b565b60405180910390f35b610270610794565b60405161027d919061293b565b60405180910390f35b6102a0600480360381019061029b9190612956565b6107a1565b005b6102bc60048036038101906102b791906128ec565b610801565b6040516102c9919061293b565b60405180910390f35b6102da6108a6565b6040516102e7919061293b565b60405180910390f35b61030a60048036038101906103059190612956565b6108ac565b005b61032660048036038101906103219190612837565b6108cc565b604051610333919061293b565b60405180910390f35b61035660048036038101906103519190612ade565b61093d565b005b610372600480360381019061036d9190612837565b6109d3565b60405161037f91906128a5565b60405180910390f35b6103a2600480360381019061039d9190612b27565b610a85565b6040516103af919061293b565b60405180910390f35b6103c0610b3d565b005b6103dc60048036038101906103d79190612b27565b610bc5565b6040516103e99190612c12565b60405180910390f35b6103fa610c73565b604051610407919061293b565b60405180910390f35b610418610c7d565b60405161042591906128a5565b60405180910390f35b610436610ca7565b60405161044391906127df565b60405180910390f35b61046660048036038101906104619190612c60565b610d39565b005b610482600480360381019061047d9190612d41565b610d4f565b005b61049e60048036038101906104999190612837565b610db1565b6040516104ab91906127df565b60405180910390f35b6104bc610dc3565b6040516104c991906127df565b60405180910390f35b6104ec60048036038101906104e79190612ade565b610e51565b6040516104f9919061293b565b60405180910390f35b61051c60048036038101906105179190612dc4565b610f9f565b604051610529919061272b565b60405180910390f35b61054c60048036038101906105479190612b27565b611033565b005b60006105598261112b565b9050919050565b60606000805461056f90612e33565b80601f016020809104026020016040519081016040528092919081815260200182805461059b90612e33565b80156105e85780601f106105bd576101008083540402835291602001916105e8565b820191906000526020600020905b8154815290600101906020018083116105cb57829003601f168201915b5050505050905090565b60006105fd826111a5565b61063c576040517f08c379a000000000000000000000000000000000000000000000000000000000815260040161063390612ed7565b60405180910390fd5b6004600083815260200190815260200160002060009054906101000a900473ffffffffffffffffffffffffffffffffffffffff169050919050565b6000610682826109d3565b90508073ffffffffffffffffffffffffffffffffffffffff168373ffffffffffffffffffffffffffffffffffffffff1614156106f3576040517f08c379a00000000000000000000000000000000000000000000000000000000081526004016106ea90612f69565b60405180910390fd5b8073ffffffffffffffffffffffffffffffffffffffff16610712611211565b73ffffffffffffffffffffffffffffffffffffffff16148061074157506107408161073b611211565b610f9f565b5b610780576040517f08c379a000000000000000000000000000000000000000000000000000000000815260040161077790612ffb565b60405180910390fd5b61078a8383611219565b505050565b606481565b6000600980549050905090565b6107b26107ac611211565b826112d2565b6107f1576040517f08c379a00000000000000000000000000000000000000000000000000000000081526004016107e89061308d565b60405180910390fd5b6107fc8383836113b0565b505050565b600061080c83610a85565b821061084d576040517f08c379a00000000000000000000000000000000000000000000000000000000081526004016108449061311f565b60405180910390fd5b600760008473ffffffffffffffffffffffffffffffffffffffff1673ffffffffffffffffffffffffffffffffffffffff168152602001908152602001600020600083815260200190815260200160002054905092915050565b61c35081565b6108c783838360405180602001604052806000815250610d4f565b505050565b60006108d6610794565b8210610917576040517f08c379a000000000000000000000000000000000000000000000000000000000815260040161090e906131b1565b60405180910390fd5b6009828154811061092b5761092a6131d1565b5b90600052602060002001549050919050565b610945611211565b73ffffffffffffffffffffffffffffffffffffffff16610963610c7d565b73ffffffffffffffffffffffffffffffffffffffff16146109b9576040517f08c379a00000000000000000000000000000000000000000000000000000000081526004016109b09061324c565b60405180910390fd5b80600c90805190602001906109cf9291906125d4565b5050565b6000806002600084815260200190815260200160002060009054906101000a900473ffffffffffffffffffffffffffffffffffffffff169050600073ffffffffffffffffffffffffffffffffffffffff168173ffffffffffffffffffffffffffffffffffffffff161415610a7c576040517f08c379a0000000000000000000000000000000000000000000000000000000008152600401610a73906132de565b60405180910390fd5b80915050919050565b60008073ffffffffffffffffffffffffffffffffffffffff168273ffffffffffffffffffffffffffffffffffffffff161415610af6576040517f08c379a0000000000000000000000000000000000000000000000000000000008152600401610aed90613370565b60405180910390fd5b600360008373ffffffffffffffffffffffffffffffffffffffff1673ffffffffffffffffffffffffffffffffffffffff168152602001908152602001600020549050919050565b610b45611211565b73ffffffffffffffffffffffffffffffffffffffff16610b63610c7d565b73ffffffffffffffffffffffffffffffffffffffff1614610bb9576040517f08c379a0000000000000000000000000000000000000000000000000000000008152600401610bb09061324c565b60405180910390fd5b610bc3600061160c565b565b60606000610bd283610a85565b905060008167ffffffffffffffff811115610bf057610bef6129b3565b5b604051908082528060200260200182016040528015610c1e5781602001602082028036833780820191505090505b50905060005b82811015610c6857610c368582610801565b828281518110610c4957610c486131d1565b5b6020026020010181815250508080610c60906133bf565b915050610c24565b508092505050919050565b655af3107a400081565b6000600660009054906101000a900473ffffffffffffffffffffffffffffffffffffffff16905090565b606060018054610cb690612e33565b80601f0160208091040260200160405190810160405280929190818152602001828054610ce290612e33565b8015610d2f5780601f10610d0457610100808354040283529160200191610d2f565b820191906000526020600020905b815481529060010190602001808311610d1257829003601f168201915b5050505050905090565b610d4b610d44611211565b83836116d2565b5050565b610d60610d5a611211565b836112d2565b610d9f576040517f08c379a0000000000000000000000000000000000000000000000000000000008152600401610d969061308d565b60405180910390fd5b610dab8484848461183f565b50505050565b6060610dbc8261189b565b9050919050565b600d8054610dd090612e33565b80601f0160208091040260200160405190810160405280929190818152602001828054610dfc90612e33565b8015610e495780601f10610e1e57610100808354040283529160200191610e49565b820191906000526020600020905b815481529060010190602001808311610e2c57829003601f168201915b505050505081565b6000601082604051610e639190613444565b908152602001604051809103902060009054906101000a900460ff1615610ebf576040517f08c379a0000000000000000000000000000000000000000000000000000000008152600401610eb6906134a7565b60405180910390fd5b610ec9600f611a0e565b9050610ed53382611a1c565b33600e600083815260200190815260200160002060006101000a81548173ffffffffffffffffffffffffffffffffffffffff021916908373ffffffffffffffffffffffffffffffffffffffff16021790555081600b60008381526020019081526020016000209080519060200190610f4e9291906125d4565b506001601083604051610f619190613444565b908152602001604051809103902060006101000a81548160ff021916908315150217905550610f908183611bea565b610f9a600f611c5e565b919050565b6000600560008473ffffffffffffffffffffffffffffffffffffffff1673ffffffffffffffffffffffffffffffffffffffff16815260200190815260200160002060008373ffffffffffffffffffffffffffffffffffffffff1673ffffffffffffffffffffffffffffffffffffffff16815260200190815260200160002060009054906101000a900460ff16905092915050565b61103b611211565b73ffffffffffffffffffffffffffffffffffffffff16611059610c7d565b73ffffffffffffffffffffffffffffffffffffffff16146110af576040517f08c379a00000000000000000000000000000000000000000000000000000000081526004016110a69061324c565b60405180910390fd5b600073ffffffffffffffffffffffffffffffffffffffff168173ffffffffffffffffffffffffffffffffffffffff16141561111f576040517f08c379a000000000000000000000000000000000000000000000000000000000815260040161111690613539565b60405180910390fd5b6111288161160c565b50565b60007f780e9d63000000000000000000000000000000000000000000000000000000007bffffffffffffffffffffffffffffffffffffffffffffffffffffffff1916827bffffffffffffffffffffffffffffffffffffffffffffffffffffffff1916148061119e575061119d82611c74565b5b9050919050565b60008073ffffffffffffffffffffffffffffffffffffffff166002600084815260200190815260200160002060009054906101000a900473ffffffffffffffffffffffffffffffffffffffff1673ffffffffffffffffffffffffffffffffffffffff1614159050919050565b600033905090565b816004600083815260200190815260200160002060006101000a81548173ffffffffffffffffffffffffffffffffffffffff021916908373ffffffffffffffffffffffffffffffffffffffff160217905550808273ffffffffffffffffffffffffffffffffffffffff1661128c836109d3565b73ffffffffffffffffffffffffffffffffffffffff167f8c5be1e5ebec7d5bd14f71427d1e84f3dd0314c0f7b2291e5b200ac8c7c3b92560405160405180910390a45050565b60006112dd826111a5565b61131c576040517f08c379a0000000000000000000000000000000000000000000000000000000008152600401611313906135cb565b60405180910390fd5b6000611327836109d3565b90508073ffffffffffffffffffffffffffffffffffffffff168473ffffffffffffffffffffffffffffffffffffffff16148061139657508373ffffffffffffffffffffffffffffffffffffffff1661137e846105f2565b73ffffffffffffffffffffffffffffffffffffffff16145b806113a757506113a68185610f9f565b5b91505092915050565b8273ffffffffffffffffffffffffffffffffffffffff166113d0826109d3565b73ffffffffffffffffffffffffffffffffffffffff1614611426576040517f08c379a000000000000000000000000000000000000000000000000000000000815260040161141d9061365d565b60405180910390fd5b600073ffffffffffffffffffffffffffffffffffffffff168273ffffffffffffffffffffffffffffffffffffffff161415611496576040517f08c379a000000000000000000000000000000000000000000000000000000000815260040161148d906136ef565b60405180910390fd5b6114a1838383611d56565b6114ac600082611219565b6001600360008573ffffffffffffffffffffffffffffffffffffffff1673ffffffffffffffffffffffffffffffffffffffff16815260200190815260200160002060008282546114fc919061370f565b925050819055506001600360008473ffffffffffffffffffffffffffffffffffffffff1673ffffffffffffffffffffffffffffffffffffffff16815260200190815260200160002060008282546115539190613743565b92505081905550816002600083815260200190815260200160002060006101000a81548173ffffffffffffffffffffffffffffffffffffffff021916908373ffffffffffffffffffffffffffffffffffffffff160217905550808273ffffffffffffffffffffffffffffffffffffffff168473ffffffffffffffffffffffffffffffffffffffff167fddf252ad1be2c89b69c2b068fc378daa952ba7f163c4a11628f55a4df523b3ef60405160405180910390a4505050565b6000600660009054906101000a900473ffffffffffffffffffffffffffffffffffffffff16905081600660006101000a81548173ffffffffffffffffffffffffffffffffffffffff021916908373ffffffffffffffffffffffffffffffffffffffff1602179055508173ffffffffffffffffffffffffffffffffffffffff168173ffffffffffffffffffffffffffffffffffffffff167f8be0079c531659141344cd1fd0a4f28419497f9722a3daafe3b4186f6b6457e060405160405180910390a35050565b8173ffffffffffffffffffffffffffffffffffffffff168373ffffffffffffffffffffffffffffffffffffffff161415611741576040517f08c379a0000000000000000000000000000000000000000000000000000000008152600401611738906137e5565b60405180910390fd5b80600560008573ffffffffffffffffffffffffffffffffffffffff1673ffffffffffffffffffffffffffffffffffffffff16815260200190815260200160002060008473ffffffffffffffffffffffffffffffffffffffff1673ffffffffffffffffffffffffffffffffffffffff16815260200190815260200160002060006101000a81548160ff0219169083151502179055508173ffffffffffffffffffffffffffffffffffffffff168373ffffffffffffffffffffffffffffffffffffffff167f17307eab39ab6107e8899845ad3d59bd9653f200f220920489ca2b5937696c3183604051611832919061272b565b60405180910390a3505050565b61184a8484846113b0565b61185684848484611d66565b611895576040517f08c379a000000000000000000000000000000000000000000000000000000000815260040161188c90613877565b60405180910390fd5b50505050565b60606118a6826111a5565b6118e5576040517f08c379a00000000000000000000000000000000000000000000000000000000081526004016118dc90613909565b60405180910390fd5b6000600b6000848152602001908152602001600020805461190590612e33565b80601f016020809104026020016040519081016040528092919081815260200182805461193190612e33565b801561197e5780601f106119535761010080835404028352916020019161197e565b820191906000526020600020905b81548152906001019060200180831161196157829003601f168201915b50505050509050600061198f611f26565b90506000815114156119a5578192505050611a09565b6000825111156119da5780826040516020016119c2929190613929565b60405160208183030381529060405292505050611a09565b806119e485611fb8565b6040516020016119f5929190613929565b604051602081830303815290604052925050505b919050565b600081600001549050919050565b600073ffffffffffffffffffffffffffffffffffffffff168273ffffffffffffffffffffffffffffffffffffffff161415611a8c576040517f08c379a0000000000000000000000000000000000000000000000000000000008152600401611a8390613999565b60405180910390fd5b611a95816111a5565b15611ad5576040517f08c379a0000000000000000000000000000000000000000000000000000000008152600401611acc90613a05565b60405180910390fd5b611ae160008383611d56565b6001600360008473ffffffffffffffffffffffffffffffffffffffff1673ffffffffffffffffffffffffffffffffffffffff1681526020019081526020016000206000828254611b319190613743565b92505081905550816002600083815260200190815260200160002060006101000a81548173ffffffffffffffffffffffffffffffffffffffff021916908373ffffffffffffffffffffffffffffffffffffffff160217905550808273ffffffffffffffffffffffffffffffffffffffff16600073ffffffffffffffffffffffffffffffffffffffff167fddf252ad1be2c89b69c2b068fc378daa952ba7f163c4a11628f55a4df523b3ef60405160405180910390a45050565b611bf3826111a5565b611c32576040517f08c379a0000000000000000000000000000000000000000000000000000000008152600401611c2990613a97565b60405180910390fd5b80600b60008481526020019081526020016000209080519060200190611c599291906125d4565b505050565b6001816000016000828254019250508190555050565b60007f80ac58cd000000000000000000000000000000000000000000000000000000007bffffffffffffffffffffffffffffffffffffffffffffffffffffffff1916827bffffffffffffffffffffffffffffffffffffffffffffffffffffffff19161480611d3f57507f5b5e139f000000000000000000000000000000000000000000000000000000007bffffffffffffffffffffffffffffffffffffffffffffffffffffffff1916827bffffffffffffffffffffffffffffffffffffffffffffffffffffffff1916145b80611d4f5750611d4e82612138565b5b9050919050565b611d618383836121a2565b505050565b6000611d878473ffffffffffffffffffffffffffffffffffffffff166122b6565b15611f19578373ffffffffffffffffffffffffffffffffffffffff1663150b7a02611db0611211565b8786866040518563ffffffff167c0100000000000000000000000000000000000000000000000000000000028152600401611dee9493929190613b0c565b6020604051808303816000875af1925050508015611e2a57506040513d601f19601f82011682018060405250810190611e279190613b6d565b60015b611ead573d8060008114611e5a576040519150601f19603f3d011682016040523d82523d6000602084013e611e5f565b606091505b50600081511415611ea5576040517f08c379a0000000000000000000000000000000000000000000000000000000008152600401611e9c90613877565b60405180910390fd5b805181602001fd5b63150b7a027c0100000000000000000000000000000000000000000000000000000000027bffffffffffffffffffffffffffffffffffffffffffffffffffffffff1916817bffffffffffffffffffffffffffffffffffffffffffffffffffffffff191614915050611f1e565b600190505b949350505050565b6060600d8054611f3590612e33565b80601f0160208091040260200160405190810160405280929190818152602001828054611f6190612e33565b8015611fae5780601f10611f8357610100808354040283529160200191611fae565b820191906000526020600020905b815481529060010190602001808311611f9157829003601f168201915b5050505050905090565b60606000821415612000576040518060400160405280600181526020017f30000000000000000000000000000000000000000000000000000000000000008152509050612133565b600082905060005b6000821461203257808061201b906133bf565b915050600a8261202b9190613bc9565b9150612008565b60008167ffffffffffffffff81111561204e5761204d6129b3565b5b6040519080825280601f01601f1916602001820160405280156120805781602001600182028036833780820191505090505b5090505b6000851461212c57600182612099919061370f565b9150600a856120a89190613bfa565b60306120b49190613743565b7f0100000000000000000000000000000000000000000000000000000000000000028183815181106120e9576120e86131d1565b5b60200101907effffffffffffffffffffffffffffffffffffffffffffffffffffffffffffff1916908160001a905350600a856121259190613bc9565b9450612084565b8093505050505b919050565b60007f01ffc9a7000000000000000000000000000000000000000000000000000000007bffffffffffffffffffffffffffffffffffffffffffffffffffffffff1916827bffffffffffffffffffffffffffffffffffffffffffffffffffffffff1916149050919050565b6121ad8383836122c9565b600073ffffffffffffffffffffffffffffffffffffffff168373ffffffffffffffffffffffffffffffffffffffff1614156121f0576121eb816122ce565b61222f565b8173ffffffffffffffffffffffffffffffffffffffff168373ffffffffffffffffffffffffffffffffffffffff161461222e5761222d8382612317565b5b5b600073ffffffffffffffffffffffffffffffffffffffff168273ffffffffffffffffffffffffffffffffffffffff1614156122725761226d81612484565b6122b1565b8273ffffffffffffffffffffffffffffffffffffffff168273ffffffffffffffffffffffffffffffffffffffff16146122b0576122af8282612555565b5b5b505050565b600080823b905060008111915050919050565b505050565b600980549050600a600083815260200190815260200160002081905550600981908060018154018082558091505060019003906000526020600020016000909190919091505550565b6000600161232484610a85565b61232e919061370f565b9050600060086000848152602001908152602001600020549050818114612413576000600760008673ffffffffffffffffffffffffffffffffffffffff1673ffffffffffffffffffffffffffffffffffffffff168152602001908152602001600020600084815260200190815260200160002054905080600760008773ffffffffffffffffffffffffffffffffffffffff1673ffffffffffffffffffffffffffffffffffffffff168152602001908152602001600020600084815260200190815260200160002081905550816008600083815260200190815260200160002081905550505b6008600084815260200190815260200160002060009055600760008573ffffffffffffffffffffffffffffffffffffffff1673ffffffffffffffffffffffffffffffffffffffff16815260200190815260200160002060008381526020019081526020016000206000905550505050565b60006001600980549050612498919061370f565b90506000600a60008481526020019081526020016000205490506000600983815481106124c8576124c76131d1565b5b9060005260206000200154905080600983815481106124ea576124e96131d1565b5b906000526020600020018190555081600a600083815260200190815260200160002081905550600a600085815260200190815260200160002060009055600980548061253957612538613c2b565b5b6001900381819060005260206000200160009055905550505050565b600061256083610a85565b905081600760008573ffffffffffffffffffffffffffffffffffffffff1673ffffffffffffffffffffffffffffffffffffffff168152602001908152602001600020600083815260200190815260200160002081905550806008600084815260200190815260200160002081905550505050565b8280546125e090612e33565b90600052602060002090601f0160209004810192826126025760008555612649565b82601f1061261b57805160ff1916838001178555612649565b82800160010185558215612649579182015b8281111561264857825182559160200191906001019061262d565b5b509050612656919061265a565b5090565b5b8082111561267357600081600090555060010161265b565b5090565b6000604051905090565b600080fd5b600080fd5b60007fffffffff0000000000000000000000000000000000000000000000000000000082169050919050565b6126c08161268b565b81146126cb57600080fd5b50565b6000813590506126dd816126b7565b92915050565b6000602082840312156126f9576126f8612681565b5b6000612707848285016126ce565b91505092915050565b60008115159050919050565b61272581612710565b82525050565b6000602082019050612740600083018461271c565b92915050565b600081519050919050565b600082825260208201905092915050565b60005b83811015612780578082015181840152602081019050612765565b8381111561278f576000848401525b50505050565b6000601f19601f8301169050919050565b60006127b182612746565b6127bb8185612751565b93506127cb818560208601612762565b6127d481612795565b840191505092915050565b600060208201905081810360008301526127f981846127a6565b905092915050565b6000819050919050565b61281481612801565b811461281f57600080fd5b50565b6000813590506128318161280b565b92915050565b60006020828403121561284d5761284c612681565b5b600061285b84828501612822565b91505092915050565b600073ffffffffffffffffffffffffffffffffffffffff82169050919050565b600061288f82612864565b9050919050565b61289f81612884565b82525050565b60006020820190506128ba6000830184612896565b92915050565b6128c981612884565b81146128d457600080fd5b50565b6000813590506128e6816128c0565b92915050565b6000806040838503121561290357612902612681565b5b6000612911858286016128d7565b925050602061292285828601612822565b9150509250929050565b61293581612801565b82525050565b6000602082019050612950600083018461292c565b92915050565b60008060006060848603121561296f5761296e612681565b5b600061297d868287016128d7565b935050602061298e868287016128d7565b925050604061299f86828701612822565b9150509250925092565b600080fd5b600080fd5b7f4e487b7100000000000000000000000000000000000000000000000000000000600052604160045260246000fd5b6129eb82612795565b810181811067ffffffffffffffff82111715612a0a57612a096129b3565b5b80604052505050565b6000612a1d612677565b9050612a2982826129e2565b919050565b600067ffffffffffffffff821115612a4957612a486129b3565b5b612a5282612795565b9050602081019050919050565b82818337600083830152505050565b6000612a81612a7c84612a2e565b612a13565b905082815260208101848484011115612a9d57612a9c6129ae565b5b612aa8848285612a5f565b509392505050565b600082601f830112612ac557612ac46129a9565b5b8135612ad5848260208601612a6e565b91505092915050565b600060208284031215612af457612af3612681565b5b600082013567ffffffffffffffff811115612b1257612b11612686565b5b612b1e84828501612ab0565b91505092915050565b600060208284031215612b3d57612b3c612681565b5b6000612b4b848285016128d7565b91505092915050565b600081519050919050565b600082825260208201905092915050565b6000819050602082019050919050565b612b8981612801565b82525050565b6000612b9b8383612b80565b60208301905092915050565b6000602082019050919050565b6000612bbf82612b54565b612bc98185612b5f565b9350612bd483612b70565b8060005b83811015612c05578151612bec8882612b8f565b9750612bf783612ba7565b925050600181019050612bd8565b5085935050505092915050565b60006020820190508181036000830152612c2c8184612bb4565b905092915050565b612c3d81612710565b8114612c4857600080fd5b50565b600081359050612c5a81612c34565b92915050565b60008060408385031215612c7757612c76612681565b5b6000612c85858286016128d7565b9250506020612c9685828601612c4b565b9150509250929050565b600067ffffffffffffffff821115612cbb57612cba6129b3565b5b612cc482612795565b9050602081019050919050565b6000612ce4612cdf84612ca0565b612a13565b905082815260208101848484011115612d0057612cff6129ae565b5b612d0b848285612a5f565b509392505050565b600082601f830112612d2857612d276129a9565b5b8135612d38848260208601612cd1565b91505092915050565b60008060008060808587031215612d5b57612d5a612681565b5b6000612d69878288016128d7565b9450506020612d7a878288016128d7565b9350506040612d8b87828801612822565b925050606085013567ffffffffffffffff811115612dac57612dab612686565b5b612db887828801612d13565b91505092959194509250565b60008060408385031215612ddb57612dda612681565b5b6000612de9858286016128d7565b9250506020612dfa858286016128d7565b9150509250929050565b7f4e487b7100000000000000000000000000000000000000000000000000000000600052602260045260246000fd5b60006002820490506001821680612e4b57607f821691505b60208210811415612e5f57612e5e612e04565b5b50919050565b7f4552433732313a20617070726f76656420717565727920666f72206e6f6e657860008201527f697374656e7420746f6b656e0000000000000000000000000000000000000000602082015250565b6000612ec1602c83612751565b9150612ecc82612e65565b604082019050919050565b60006020820190508181036000830152612ef081612eb4565b9050919050565b7f4552433732313a20617070726f76616c20746f2063757272656e74206f776e6560008201527f7200000000000000000000000000000000000000000000000000000000000000602082015250565b6000612f53602183612751565b9150612f5e82612ef7565b604082019050919050565b60006020820190508181036000830152612f8281612f46565b9050919050565b7f4552433732313a20617070726f76652063616c6c6572206973206e6f74206f7760008201527f6e6572206e6f7220617070726f76656420666f7220616c6c0000000000000000602082015250565b6000612fe5603883612751565b9150612ff082612f89565b604082019050919050565b6000602082019050818103600083015261301481612fd8565b9050919050565b7f4552433732313a207472616e736665722063616c6c6572206973206e6f74206f60008201527f776e6572206e6f7220617070726f766564000000000000000000000000000000602082015250565b6000613077603183612751565b91506130828261301b565b604082019050919050565b600060208201905081810360008301526130a68161306a565b9050919050565b7f455243373231456e756d657261626c653a206f776e657220696e646578206f7560008201527f74206f6620626f756e6473000000000000000000000000000000000000000000602082015250565b6000613109602b83612751565b9150613114826130ad565b604082019050919050565b60006020820190508181036000830152613138816130fc565b9050919050565b7f455243373231456e756d657261626c653a20676c6f62616c20696e646578206f60008201527f7574206f6620626f756e64730000000000000000000000000000000000000000602082015250565b600061319b602c83612751565b91506131a68261313f565b604082019050919050565b600060208201905081810360008301526131ca8161318e565b9050919050565b7f4e487b7100000000000000000000000000000000000000000000000000000000600052603260045260246000fd5b7f4f776e61626c653a2063616c6c6572206973206e6f7420746865206f776e6572600082015250565b6000613236602083612751565b915061324182613200565b602082019050919050565b6000602082019050818103600083015261326581613229565b9050919050565b7f4552433732313a206f776e657220717565727920666f72206e6f6e657869737460008201527f656e7420746f6b656e0000000000000000000000000000000000000000000000602082015250565b60006132c8602983612751565b91506132d38261326c565b604082019050919050565b600060208201905081810360008301526132f7816132bb565b9050919050565b7f4552433732313a2062616c616e636520717565727920666f7220746865207a6560008201527f726f206164647265737300000000000000000000000000000000000000000000602082015250565b600061335a602a83612751565b9150613365826132fe565b604082019050919050565b600060208201905081810360008301526133898161334d565b9050919050565b7f4e487b7100000000000000000000000000000000000000000000000000000000600052601160045260246000fd5b60006133ca82612801565b91507fffffffffffffffffffffffffffffffffffffffffffffffffffffffffffffffff8214156133fd576133fc613390565b5b600182019050919050565b600081905092915050565b600061341e82612746565b6134288185613408565b9350613438818560208601612762565b80840191505092915050565b60006134508284613413565b915081905092915050565b7f4f626a65637420616c7265616479206578697374730000000000000000000000600082015250565b6000613491601583612751565b915061349c8261345b565b602082019050919050565b600060208201905081810360008301526134c081613484565b9050919050565b7f4f776e61626c653a206e6577206f776e657220697320746865207a65726f206160008201527f6464726573730000000000000000000000000000000000000000000000000000602082015250565b6000613523602683612751565b915061352e826134c7565b604082019050919050565b6000602082019050818103600083015261355281613516565b9050919050565b7f4552433732313a206f70657261746f7220717565727920666f72206e6f6e657860008201527f697374656e7420746f6b656e0000000000000000000000000000000000000000602082015250565b60006135b5602c83612751565b91506135c082613559565b604082019050919050565b600060208201905081810360008301526135e4816135a8565b9050919050565b7f4552433732313a207472616e73666572206f6620746f6b656e2074686174206960008201527f73206e6f74206f776e0000000000000000000000000000000000000000000000602082015250565b6000613647602983612751565b9150613652826135eb565b604082019050919050565b600060208201905081810360008301526136768161363a565b9050919050565b7f4552433732313a207472616e7366657220746f20746865207a65726f2061646460008201527f7265737300000000000000000000000000000000000000000000000000000000602082015250565b60006136d9602483612751565b91506136e48261367d565b604082019050919050565b60006020820190508181036000830152613708816136cc565b9050919050565b600061371a82612801565b915061372583612801565b92508282101561373857613737613390565b5b828203905092915050565b600061374e82612801565b915061375983612801565b9250827fffffffffffffffffffffffffffffffffffffffffffffffffffffffffffffffff0382111561378e5761378d613390565b5b828201905092915050565b7f4552433732313a20617070726f766520746f2063616c6c657200000000000000600082015250565b60006137cf601983612751565b91506137da82613799565b602082019050919050565b600060208201905081810360008301526137fe816137c2565b9050919050565b7f4552433732313a207472616e7366657220746f206e6f6e20455243373231526560008201527f63656976657220696d706c656d656e7465720000000000000000000000000000602082015250565b6000613861603283612751565b915061386c82613805565b604082019050919050565b6000602082019050818103600083015261389081613854565b9050919050565b7f4552433732314d657461646174613a2055524920717565727920666f72206e6f60008201527f6e6578697374656e7420746f6b656e0000000000000000000000000000000000602082015250565b60006138f3602f83612751565b91506138fe82613897565b604082019050919050565b60006020820190508181036000830152613922816138e6565b9050919050565b60006139358285613413565b91506139418284613413565b91508190509392505050565b7f4552433732313a206d696e7420746f20746865207a65726f2061646472657373600082015250565b6000613983602083612751565b915061398e8261394d565b602082019050919050565b600060208201905081810360008301526139b281613976565b9050919050565b7f4552433732313a20746f6b656e20616c7265616479206d696e74656400000000600082015250565b60006139ef601c83612751565b91506139fa826139b9565b602082019050919050565b60006020820190508181036000830152613a1e816139e2565b9050919050565b7f4552433732314d657461646174613a2055524920736574206f66206e6f6e657860008201527f697374656e7420746f6b656e0000000000000000000000000000000000000000602082015250565b6000613a81602c83612751565b9150613a8c82613a25565b604082019050919050565b60006020820190508181036000830152613ab081613a74565b9050919050565b600081519050919050565b600082825260208201905092915050565b6000613ade82613ab7565b613ae88185613ac2565b9350613af8818560208601612762565b613b0181612795565b840191505092915050565b6000608082019050613b216000830187612896565b613b2e6020830186612896565b613b3b604083018561292c565b8181036060830152613b4d8184613ad3565b905095945050505050565b600081519050613b67816126b7565b92915050565b600060208284031215613b8357613b82612681565b5b6000613b9184828501613b58565b91505092915050565b7f4e487b7100000000000000000000000000000000000000000000000000000000600052601260045260246000fd5b6000613bd482612801565b9150613bdf83612801565b925082613bef57613bee613b9a565b5b828204905092915050565b6000613c0582612801565b9150613c1083612801565b925082613c2057613c1f613b9a565b5b828206905092915050565b7f4e487b7100000000000000000000000000000000000000000000000000000000600052603160045260246000fdfea2646970667358221220b2e0b696fe02640b8439ae824fc290bccdd80da260bdb3b539672555d4a0b85f64736f6c634300080b0033",
  "immutableReferences": {},
  "source": "// SPDX-License-Identifier: MIT\npragma solidity >=0.4.22 <0.9.0;\n\nimport \"@openzeppelin/contracts/token/ERC721/ERC721.sol\";\nimport \"@openzeppelin/contracts/access/Ownable.sol\";\nimport \"@openzeppelin/contracts/utils/math/SafeMath.sol\";\nimport \"@openzeppelin/contracts/utils/Counters.sol\";\nimport \"@openzeppelin/contracts/token/ERC721/extensions/ERC721Enumerable.sol\";\nimport \"./SetTokenUri.sol\";\n\ncontract Nft is ERC721, Ownable, ERC721Enumerable, SetTokenUri(\"Nft\", \"NFT\") {\n    using SafeMath for uint256;\n    using Counters for Counters.Counter;\n\n    uint256 public constant MAX_SUPPLY = 50000;\n    uint256 public constant PRICE = 0.0001 ether;\n    uint256 public constant MAX_PER_MINT = 100;\n    string public baseTokenURI = \"https://ipfs.io/ipfs/\";\n\n    mapping(uint256 => address) tokensToOwner;\n\n    Counters.Counter private _tokenIds;\n    mapping(string => bool) _tokenExists;\n    mapping(address => bool) _userExists;\n\n    function mint(string memory cid) public returns (uint256 _id) {\n        require(!_tokenExists[cid], \"Object already exists\");\n\n        _id = _tokenIds.current();\n        _mint(msg.sender, _id);\n        tokensToOwner[_id] = msg.sender;\n        tokenURIs[_id] = cid;\n        _tokenExists[cid] = true;\n        _setTokenURI(_id, cid);\n        _tokenIds.increment();\n\n        return _id;\n    }\n\n    function tokensOfOwner(address _owner)\n        public\n        view\n        returns (uint256[] memory)\n    {\n        uint256 tokenCount = balanceOf(_owner);\n        uint256[] memory tokensId = new uint256[](tokenCount);\n        // string[] memory  userTokens = new string[](tokenCount);\n\n        for (uint256 i = 0; i < tokenCount; i++) {\n            tokensId[i] = tokenOfOwnerByIndex(_owner, i);\n            // if(tokensId[i]  == i){\n            //    userTokens[i] = tokensList[i];\n            // }\n        }\n        return tokensId;\n    }\n\n    function _baseURI()\n        internal\n        view\n        virtual\n        override(ERC721, SetTokenUri)\n        returns (string memory)\n    {\n        return baseTokenURI;\n    }\n\n    function tokenURI(uint256 tokenId)\n        public\n        view\n        virtual\n        override(ERC721, SetTokenUri)\n        returns (string memory)\n    {\n        return super.tokenURI(tokenId);\n    }\n\n    // The following functions are overrides for ERC721Enumerable required by Solidity.\n    function _beforeTokenTransfer(\n        address from,\n        address to,\n        uint256 tokenId\n    ) internal override(ERC721, ERC721Enumerable) {\n        super._beforeTokenTransfer(from, to, tokenId);\n    }\n\n    function supportsInterface(bytes4 interfaceId)\n        public\n        view\n        override(ERC721, ERC721Enumerable)\n        returns (bool)\n    {\n        return super.supportsInterface(interfaceId);\n    }\n}\n",
  "sourcePath": "/Users/lenahierzi/Developer/consensys/blockchain-developer-bootcamp-final-project/contracts/NFT.sol",
  "compiler": {
    "name": "solc",
    "version": "0.8.11+commit.d7f03943.Emscripten.clang"
  },
  "schemaVersion": "3.4.3",
  "updatedAt": "2022-01-08T11:43:34.855Z",
  "networkType": "ethereum",
  "devdoc": {
    "kind": "dev",
    "methods": {
      "approve(address,uint256)": {
        "details": "See {IERC721-approve}."
      },
      "balanceOf(address)": {
        "details": "See {IERC721-balanceOf}."
      },
      "getApproved(uint256)": {
        "details": "See {IERC721-getApproved}."
      },
      "isApprovedForAll(address,address)": {
        "details": "See {IERC721-isApprovedForAll}."
      },
      "name()": {
        "details": "See {IERC721Metadata-name}."
      },
      "owner()": {
        "details": "Returns the address of the current owner."
      },
      "ownerOf(uint256)": {
        "details": "See {IERC721-ownerOf}."
      },
      "renounceOwnership()": {
        "details": "Leaves the contract without owner. It will not be possible to call `onlyOwner` functions anymore. Can only be called by the current owner. NOTE: Renouncing ownership will leave the contract without an owner, thereby removing any functionality that is only available to the owner."
      },
      "safeTransferFrom(address,address,uint256)": {
        "details": "See {IERC721-safeTransferFrom}."
      },
      "safeTransferFrom(address,address,uint256,bytes)": {
        "details": "See {IERC721-safeTransferFrom}."
      },
      "setApprovalForAll(address,bool)": {
        "details": "See {IERC721-setApprovalForAll}."
      },
      "symbol()": {
        "details": "See {IERC721Metadata-symbol}."
      },
      "tokenByIndex(uint256)": {
        "details": "See {IERC721Enumerable-tokenByIndex}."
      },
      "tokenOfOwnerByIndex(address,uint256)": {
        "details": "See {IERC721Enumerable-tokenOfOwnerByIndex}."
      },
      "totalSupply()": {
        "details": "See {IERC721Enumerable-totalSupply}."
      },
      "transferFrom(address,address,uint256)": {
        "details": "See {IERC721-transferFrom}."
      },
      "transferOwnership(address)": {
        "details": "Transfers ownership of the contract to a new account (`newOwner`). Can only be called by the current owner."
      }
    },
    "version": 1
  },
  "userdoc": {
    "kind": "user",
    "methods": {},
    "version": 1
  }
}