{
  "contractName": "Nft",
  "abi": [
    {
      "anonymous": false,
      "inputs": [
        {
          "indexed": true,
          "internalType": "address",
          "name": "owner",
          "type": "address"
        },
        {
          "indexed": true,
          "internalType": "address",
          "name": "approved",
          "type": "address"
        },
        {
          "indexed": true,
          "internalType": "uint256",
          "name": "tokenId",
          "type": "uint256"
        }
      ],
      "name": "Approval",
      "type": "event"
    },
    {
      "anonymous": false,
      "inputs": [
        {
          "indexed": true,
          "internalType": "address",
          "name": "owner",
          "type": "address"
        },
        {
          "indexed": true,
          "internalType": "address",
          "name": "operator",
          "type": "address"
        },
        {
          "indexed": false,
          "internalType": "bool",
          "name": "approved",
          "type": "bool"
        }
      ],
      "name": "ApprovalForAll",
      "type": "event"
    },
    {
      "anonymous": false,
      "inputs": [
        {
          "indexed": true,
          "internalType": "address",
          "name": "previousOwner",
          "type": "address"
        },
        {
          "indexed": true,
          "internalType": "address",
          "name": "newOwner",
          "type": "address"
        }
      ],
      "name": "OwnershipTransferred",
      "type": "event"
    },
    {
      "anonymous": false,
      "inputs": [
        {
          "indexed": true,
          "internalType": "address",
          "name": "from",
          "type": "address"
        },
        {
          "indexed": true,
          "internalType": "address",
          "name": "to",
          "type": "address"
        },
        {
          "indexed": true,
          "internalType": "uint256",
          "name": "tokenId",
          "type": "uint256"
        }
      ],
      "name": "Transfer",
      "type": "event"
    },
    {
      "inputs": [],
      "name": "MAX_PER_MINT",
      "outputs": [
        {
          "internalType": "uint256",
          "name": "",
          "type": "uint256"
        }
      ],
      "stateMutability": "view",
      "type": "function"
    },
    {
      "inputs": [],
      "name": "MAX_SUPPLY",
      "outputs": [
        {
          "internalType": "uint256",
          "name": "",
          "type": "uint256"
        }
      ],
      "stateMutability": "view",
      "type": "function"
    },
    {
      "inputs": [
        {
          "internalType": "address",
          "name": "to",
          "type": "address"
        },
        {
          "internalType": "uint256",
          "name": "tokenId",
          "type": "uint256"
        }
      ],
      "name": "approve",
      "outputs": [],
      "stateMutability": "nonpayable",
      "type": "function"
    },
    {
      "inputs": [
        {
          "internalType": "address",
          "name": "owner",
          "type": "address"
        }
      ],
      "name": "balanceOf",
      "outputs": [
        {
          "internalType": "uint256",
          "name": "",
          "type": "uint256"
        }
      ],
      "stateMutability": "view",
      "type": "function"
    },
    {
      "inputs": [
        {
          "internalType": "uint256",
          "name": "tokenId",
          "type": "uint256"
        }
      ],
      "name": "getApproved",
      "outputs": [
        {
          "internalType": "address",
          "name": "",
          "type": "address"
        }
      ],
      "stateMutability": "view",
      "type": "function"
    },
    {
      "inputs": [
        {
          "internalType": "address",
          "name": "owner",
          "type": "address"
        },
        {
          "internalType": "address",
          "name": "operator",
          "type": "address"
        }
      ],
      "name": "isApprovedForAll",
      "outputs": [
        {
          "internalType": "bool",
          "name": "",
          "type": "bool"
        }
      ],
      "stateMutability": "view",
      "type": "function"
    },
    {
      "inputs": [],
      "name": "name",
      "outputs": [
        {
          "internalType": "string",
          "name": "",
          "type": "string"
        }
      ],
      "stateMutability": "view",
      "type": "function"
    },
    {
      "inputs": [],
      "name": "owner",
      "outputs": [
        {
          "internalType": "address",
          "name": "",
          "type": "address"
        }
      ],
      "stateMutability": "view",
      "type": "function"
    },
    {
      "inputs": [
        {
          "internalType": "uint256",
          "name": "tokenId",
          "type": "uint256"
        }
      ],
      "name": "ownerOf",
      "outputs": [
        {
          "internalType": "address",
          "name": "",
          "type": "address"
        }
      ],
      "stateMutability": "view",
      "type": "function"
    },
    {
      "inputs": [],
      "name": "renounceOwnership",
      "outputs": [],
      "stateMutability": "nonpayable",
      "type": "function"
    },
    {
      "inputs": [
        {
          "internalType": "address",
          "name": "from",
          "type": "address"
        },
        {
          "internalType": "address",
          "name": "to",
          "type": "address"
        },
        {
          "internalType": "uint256",
          "name": "tokenId",
          "type": "uint256"
        }
      ],
      "name": "safeTransferFrom",
      "outputs": [],
      "stateMutability": "nonpayable",
      "type": "function"
    },
    {
      "inputs": [
        {
          "internalType": "address",
          "name": "from",
          "type": "address"
        },
        {
          "internalType": "address",
          "name": "to",
          "type": "address"
        },
        {
          "internalType": "uint256",
          "name": "tokenId",
          "type": "uint256"
        },
        {
          "internalType": "bytes",
          "name": "_data",
          "type": "bytes"
        }
      ],
      "name": "safeTransferFrom",
      "outputs": [],
      "stateMutability": "nonpayable",
      "type": "function"
    },
    {
      "inputs": [
        {
          "internalType": "address",
          "name": "operator",
          "type": "address"
        },
        {
          "internalType": "bool",
          "name": "approved",
          "type": "bool"
        }
      ],
      "name": "setApprovalForAll",
      "outputs": [],
      "stateMutability": "nonpayable",
      "type": "function"
    },
    {
      "inputs": [],
      "name": "symbol",
      "outputs": [
        {
          "internalType": "string",
          "name": "",
          "type": "string"
        }
      ],
      "stateMutability": "view",
      "type": "function"
    },
    {
      "inputs": [
        {
          "internalType": "uint256",
          "name": "index",
          "type": "uint256"
        }
      ],
      "name": "tokenByIndex",
      "outputs": [
        {
          "internalType": "uint256",
          "name": "",
          "type": "uint256"
        }
      ],
      "stateMutability": "view",
      "type": "function"
    },
    {
      "inputs": [
        {
          "internalType": "address",
          "name": "owner",
          "type": "address"
        },
        {
          "internalType": "uint256",
          "name": "index",
          "type": "uint256"
        }
      ],
      "name": "tokenOfOwnerByIndex",
      "outputs": [
        {
          "internalType": "uint256",
          "name": "",
          "type": "uint256"
        }
      ],
      "stateMutability": "view",
      "type": "function"
    },
    {
      "inputs": [],
      "name": "totalSupply",
      "outputs": [
        {
          "internalType": "uint256",
          "name": "",
          "type": "uint256"
        }
      ],
      "stateMutability": "view",
      "type": "function"
    },
    {
      "inputs": [
        {
          "internalType": "address",
          "name": "from",
          "type": "address"
        },
        {
          "internalType": "address",
          "name": "to",
          "type": "address"
        },
        {
          "internalType": "uint256",
          "name": "tokenId",
          "type": "uint256"
        }
      ],
      "name": "transferFrom",
      "outputs": [],
      "stateMutability": "nonpayable",
      "type": "function"
    },
    {
      "inputs": [
        {
          "internalType": "address",
          "name": "newOwner",
          "type": "address"
        }
      ],
      "name": "transferOwnership",
      "outputs": [],
      "stateMutability": "nonpayable",
      "type": "function"
    },
    {
      "inputs": [
        {
          "internalType": "address",
          "name": "to",
          "type": "address"
        },
        {
          "internalType": "string",
          "name": "cid",
          "type": "string"
        }
      ],
      "name": "mint",
      "outputs": [
        {
          "internalType": "uint256",
          "name": "_id",
          "type": "uint256"
        }
      ],
      "stateMutability": "nonpayable",
      "type": "function"
    },
    {
      "inputs": [
        {
          "internalType": "address",
          "name": "_owner",
          "type": "address"
        }
      ],
      "name": "tokensOfOwner",
      "outputs": [
        {
          "internalType": "uint256[]",
          "name": "",
          "type": "uint256[]"
        }
      ],
      "stateMutability": "view",
      "type": "function"
    },
    {
      "inputs": [
        {
          "internalType": "uint256",
          "name": "tokenId",
          "type": "uint256"
        }
      ],
      "name": "tokenURI",
      "outputs": [
        {
          "internalType": "string",
          "name": "",
          "type": "string"
        }
      ],
      "stateMutability": "view",
      "type": "function"
    },
    {
      "inputs": [
        {
          "internalType": "bytes4",
          "name": "interfaceId",
          "type": "bytes4"
        }
      ],
      "name": "supportsInterface",
      "outputs": [
        {
          "internalType": "bool",
          "name": "",
          "type": "bool"
        }
      ],
      "stateMutability": "view",
      "type": "function"
    }
  ],
  "bytecode": "0x60806040523480156200001157600080fd5b506040518060400160405280600381526020017f4e667400000000000000000000000000000000000000000000000000000000008152506040518060400160405280600781526020017f4f63746f707573000000000000000000000000000000000000000000000000008152508181816000908051906020019062000098929190620001bc565b508060019080519060200190620000b1929190620001bc565b505050620000e6620000d1620000ee640100000000026401000000009004565b620000f6640100000000026401000000009004565b5050620002d1565b600033905090565b6000600660009054906101000a900473ffffffffffffffffffffffffffffffffffffffff16905081600660006101000a81548173ffffffffffffffffffffffffffffffffffffffff021916908373ffffffffffffffffffffffffffffffffffffffff1602179055508173ffffffffffffffffffffffffffffffffffffffff168173ffffffffffffffffffffffffffffffffffffffff167f8be0079c531659141344cd1fd0a4f28419497f9722a3daafe3b4186f6b6457e060405160405180910390a35050565b828054620001ca906200029b565b90600052602060002090601f016020900481019282620001ee57600085556200023a565b82601f106200020957805160ff19168380011785556200023a565b828001600101855582156200023a579182015b82811115620002395782518255916020019190600101906200021c565b5b5090506200024991906200024d565b5090565b5b80821115620002685760008160009055506001016200024e565b5090565b7f4e487b7100000000000000000000000000000000000000000000000000000000600052602260045260246000fd5b60006002820490506001821680620002b457607f821691505b60208210811415620002cb57620002ca6200026c565b5b50919050565b613aec80620002e16000396000f3fe608060405234801561001057600080fd5b506004361061016a576000357c0100000000000000000000000000000000000000000000000000000000900480636352211e116100e0578063a22cb46511610099578063a22cb465146103d1578063b88d4fde146103ed578063c87b56dd14610409578063d0def52114610439578063e985e9c514610469578063f2fde38b146104995761016a565b80636352211e146102fb57806370a082311461032b578063715018a61461035b5780638462151c146103655780638da5cb5b1461039557806395d89b41146103b35761016a565b806318160ddd1161013257806318160ddd1461022757806323b872dd146102455780632f745c591461026157806332cb6b0c1461029157806342842e0e146102af5780634f6ccce7146102cb5761016a565b806301ffc9a71461016f57806306fdde031461019f578063081812fc146101bd578063095ea7b3146101ed57806309d42b3014610209575b600080fd5b61018960048036038101906101849190612552565b6104b5565b604051610196919061259a565b60405180910390f35b6101a76104c7565b6040516101b4919061264e565b60405180910390f35b6101d760048036038101906101d291906126a6565b610559565b6040516101e49190612714565b60405180910390f35b6102076004803603810190610202919061275b565b6105de565b005b6102116106f6565b60405161021e91906127aa565b60405180910390f35b61022f6106fb565b60405161023c91906127aa565b60405180910390f35b61025f600480360381019061025a91906127c5565b610708565b005b61027b6004803603810190610276919061275b565b610768565b60405161028891906127aa565b60405180910390f35b61029961080d565b6040516102a691906127aa565b60405180910390f35b6102c960048036038101906102c491906127c5565b610813565b005b6102e560048036038101906102e091906126a6565b610833565b6040516102f291906127aa565b60405180910390f35b610315600480360381019061031091906126a6565b6108a4565b6040516103229190612714565b60405180910390f35b61034560048036038101906103409190612818565b610956565b60405161035291906127aa565b60405180910390f35b610363610a0e565b005b61037f600480360381019061037a9190612818565b610a96565b60405161038c9190612903565b60405180910390f35b61039d610b44565b6040516103aa9190612714565b60405180910390f35b6103bb610b6e565b6040516103c8919061264e565b60405180910390f35b6103eb60048036038101906103e69190612951565b610c00565b005b61040760048036038101906104029190612ac6565b610c16565b005b610423600480360381019061041e91906126a6565b610c78565b604051610430919061264e565b60405180910390f35b610453600480360381019061044e9190612bea565b610c8a565b60405161046091906127aa565b60405180910390f35b610483600480360381019061047e9190612c46565b610e9a565b604051610490919061259a565b60405180910390f35b6104b360048036038101906104ae9190612818565b610f2e565b005b60006104c082611026565b9050919050565b6060600080546104d690612cb5565b80601f016020809104026020016040519081016040528092919081815260200182805461050290612cb5565b801561054f5780601f106105245761010080835404028352916020019161054f565b820191906000526020600020905b81548152906001019060200180831161053257829003601f168201915b5050505050905090565b6000610564826110a0565b6105a3576040517f08c379a000000000000000000000000000000000000000000000000000000000815260040161059a90612d59565b60405180910390fd5b6004600083815260200190815260200160002060009054906101000a900473ffffffffffffffffffffffffffffffffffffffff169050919050565b60006105e9826108a4565b90508073ffffffffffffffffffffffffffffffffffffffff168373ffffffffffffffffffffffffffffffffffffffff16141561065a576040517f08c379a000000000000000000000000000000000000000000000000000000000815260040161065190612deb565b60405180910390fd5b8073ffffffffffffffffffffffffffffffffffffffff1661067961110c565b73ffffffffffffffffffffffffffffffffffffffff1614806106a857506106a7816106a261110c565b610e9a565b5b6106e7576040517f08c379a00000000000000000000000000000000000000000000000000000000081526004016106de90612e7d565b60405180910390fd5b6106f18383611114565b505050565b606481565b6000600980549050905090565b61071961071361110c565b826111cd565b610758576040517f08c379a000000000000000000000000000000000000000000000000000000000815260040161074f90612f0f565b60405180910390fd5b6107638383836112ab565b505050565b600061077383610956565b82106107b4576040517f08c379a00000000000000000000000000000000000000000000000000000000081526004016107ab90612fa1565b60405180910390fd5b600760008473ffffffffffffffffffffffffffffffffffffffff1673ffffffffffffffffffffffffffffffffffffffff168152602001908152602001600020600083815260200190815260200160002054905092915050565b61c35081565b61082e83838360405180602001604052806000815250610c16565b505050565b600061083d6106fb565b821061087e576040517f08c379a000000000000000000000000000000000000000000000000000000000815260040161087590613033565b60405180910390fd5b6009828154811061089257610891613053565b5b90600052602060002001549050919050565b6000806002600084815260200190815260200160002060009054906101000a900473ffffffffffffffffffffffffffffffffffffffff169050600073ffffffffffffffffffffffffffffffffffffffff168173ffffffffffffffffffffffffffffffffffffffff16141561094d576040517f08c379a0000000000000000000000000000000000000000000000000000000008152600401610944906130f4565b60405180910390fd5b80915050919050565b60008073ffffffffffffffffffffffffffffffffffffffff168273ffffffffffffffffffffffffffffffffffffffff1614156109c7576040517f08c379a00000000000000000000000000000000000000000000000000000000081526004016109be90613186565b60405180910390fd5b600360008373ffffffffffffffffffffffffffffffffffffffff1673ffffffffffffffffffffffffffffffffffffffff168152602001908152602001600020549050919050565b610a1661110c565b73ffffffffffffffffffffffffffffffffffffffff16610a34610b44565b73ffffffffffffffffffffffffffffffffffffffff1614610a8a576040517f08c379a0000000000000000000000000000000000000000000000000000000008152600401610a81906131f2565b60405180910390fd5b610a946000611507565b565b60606000610aa383610956565b905060008167ffffffffffffffff811115610ac157610ac061299b565b5b604051908082528060200260200182016040528015610aef5781602001602082028036833780820191505090505b50905060005b82811015610b3957610b078582610768565b828281518110610b1a57610b19613053565b5b6020026020010181815250508080610b3190613241565b915050610af5565b508092505050919050565b6000600660009054906101000a900473ffffffffffffffffffffffffffffffffffffffff16905090565b606060018054610b7d90612cb5565b80601f0160208091040260200160405190810160405280929190818152602001828054610ba990612cb5565b8015610bf65780601f10610bcb57610100808354040283529160200191610bf6565b820191906000526020600020905b815481529060010190602001808311610bd957829003601f168201915b5050505050905090565b610c12610c0b61110c565b83836115cd565b5050565b610c27610c2161110c565b836111cd565b610c66576040517f08c379a0000000000000000000000000000000000000000000000000000000008152600401610c5d90612f0f565b60405180910390fd5b610c728484848461173a565b50505050565b6060610c8382611796565b9050919050565b600081600e81604051610c9d91906132c6565b908152602001604051809103902060009054906101000a900460ff1615610cf9576040517f08c379a0000000000000000000000000000000000000000000000000000000008152600401610cf090613329565b60405180910390fd5b83600f60008273ffffffffffffffffffffffffffffffffffffffff1673ffffffffffffffffffffffffffffffffffffffff16815260200190815260200160002060009054906101000a900460ff1615610d87576040517f08c379a0000000000000000000000000000000000000000000000000000000008152600401610d7e90613395565b60405180910390fd5b610d91600d61190b565b9250610d9d8584611919565b84600c600085815260200190815260200160002060006101000a81548173ffffffffffffffffffffffffffffffffffffffff021916908373ffffffffffffffffffffffffffffffffffffffff1602179055506001600e85604051610e0191906132c6565b908152602001604051809103902060006101000a81548160ff0219169083151502179055506001600f60008773ffffffffffffffffffffffffffffffffffffffff1673ffffffffffffffffffffffffffffffffffffffff16815260200190815260200160002060006101000a81548160ff021916908315150217905550610e888385611ae7565b610e92600d611b13565b505092915050565b6000600560008473ffffffffffffffffffffffffffffffffffffffff1673ffffffffffffffffffffffffffffffffffffffff16815260200190815260200160002060008373ffffffffffffffffffffffffffffffffffffffff1673ffffffffffffffffffffffffffffffffffffffff16815260200190815260200160002060009054906101000a900460ff16905092915050565b610f3661110c565b73ffffffffffffffffffffffffffffffffffffffff16610f54610b44565b73ffffffffffffffffffffffffffffffffffffffff1614610faa576040517f08c379a0000000000000000000000000000000000000000000000000000000008152600401610fa1906131f2565b60405180910390fd5b600073ffffffffffffffffffffffffffffffffffffffff168173ffffffffffffffffffffffffffffffffffffffff16141561101a576040517f08c379a000000000000000000000000000000000000000000000000000000000815260040161101190613427565b60405180910390fd5b61102381611507565b50565b60007f780e9d63000000000000000000000000000000000000000000000000000000007bffffffffffffffffffffffffffffffffffffffffffffffffffffffff1916827bffffffffffffffffffffffffffffffffffffffffffffffffffffffff19161480611099575061109882611b29565b5b9050919050565b60008073ffffffffffffffffffffffffffffffffffffffff166002600084815260200190815260200160002060009054906101000a900473ffffffffffffffffffffffffffffffffffffffff1673ffffffffffffffffffffffffffffffffffffffff1614159050919050565b600033905090565b816004600083815260200190815260200160002060006101000a81548173ffffffffffffffffffffffffffffffffffffffff021916908373ffffffffffffffffffffffffffffffffffffffff160217905550808273ffffffffffffffffffffffffffffffffffffffff16611187836108a4565b73ffffffffffffffffffffffffffffffffffffffff167f8c5be1e5ebec7d5bd14f71427d1e84f3dd0314c0f7b2291e5b200ac8c7c3b92560405160405180910390a45050565b60006111d8826110a0565b611217576040517f08c379a000000000000000000000000000000000000000000000000000000000815260040161120e906134b9565b60405180910390fd5b6000611222836108a4565b90508073ffffffffffffffffffffffffffffffffffffffff168473ffffffffffffffffffffffffffffffffffffffff16148061129157508373ffffffffffffffffffffffffffffffffffffffff1661127984610559565b73ffffffffffffffffffffffffffffffffffffffff16145b806112a257506112a18185610e9a565b5b91505092915050565b8273ffffffffffffffffffffffffffffffffffffffff166112cb826108a4565b73ffffffffffffffffffffffffffffffffffffffff1614611321576040517f08c379a00000000000000000000000000000000000000000000000000000000081526004016113189061354b565b60405180910390fd5b600073ffffffffffffffffffffffffffffffffffffffff168273ffffffffffffffffffffffffffffffffffffffff161415611391576040517f08c379a0000000000000000000000000000000000000000000000000000000008152600401611388906135dd565b60405180910390fd5b61139c838383611c0b565b6113a7600082611114565b6001600360008573ffffffffffffffffffffffffffffffffffffffff1673ffffffffffffffffffffffffffffffffffffffff16815260200190815260200160002060008282546113f791906135fd565b925050819055506001600360008473ffffffffffffffffffffffffffffffffffffffff1673ffffffffffffffffffffffffffffffffffffffff168152602001908152602001600020600082825461144e9190613631565b92505081905550816002600083815260200190815260200160002060006101000a81548173ffffffffffffffffffffffffffffffffffffffff021916908373ffffffffffffffffffffffffffffffffffffffff160217905550808273ffffffffffffffffffffffffffffffffffffffff168473ffffffffffffffffffffffffffffffffffffffff167fddf252ad1be2c89b69c2b068fc378daa952ba7f163c4a11628f55a4df523b3ef60405160405180910390a4505050565b6000600660009054906101000a900473ffffffffffffffffffffffffffffffffffffffff16905081600660006101000a81548173ffffffffffffffffffffffffffffffffffffffff021916908373ffffffffffffffffffffffffffffffffffffffff1602179055508173ffffffffffffffffffffffffffffffffffffffff168173ffffffffffffffffffffffffffffffffffffffff167f8be0079c531659141344cd1fd0a4f28419497f9722a3daafe3b4186f6b6457e060405160405180910390a35050565b8173ffffffffffffffffffffffffffffffffffffffff168373ffffffffffffffffffffffffffffffffffffffff16141561163c576040517f08c379a0000000000000000000000000000000000000000000000000000000008152600401611633906136d3565b60405180910390fd5b80600560008573ffffffffffffffffffffffffffffffffffffffff1673ffffffffffffffffffffffffffffffffffffffff16815260200190815260200160002060008473ffffffffffffffffffffffffffffffffffffffff1673ffffffffffffffffffffffffffffffffffffffff16815260200190815260200160002060006101000a81548160ff0219169083151502179055508173ffffffffffffffffffffffffffffffffffffffff168373ffffffffffffffffffffffffffffffffffffffff167f17307eab39ab6107e8899845ad3d59bd9653f200f220920489ca2b5937696c318360405161172d919061259a565b60405180910390a3505050565b6117458484846112ab565b61175184848484611c1b565b611790576040517f08c379a000000000000000000000000000000000000000000000000000000000815260040161178790613765565b60405180910390fd5b50505050565b6060816117a2816110a0565b6117e1576040517f08c379a00000000000000000000000000000000000000000000000000000000081526004016117d8906137f7565b60405180910390fd5b6000600b6000858152602001908152602001600020805461180190612cb5565b80601f016020809104026020016040519081016040528092919081815260200182805461182d90612cb5565b801561187a5780601f1061184f5761010080835404028352916020019161187a565b820191906000526020600020905b81548152906001019060200180831161185d57829003601f168201915b50505050509050600061188b611ddb565b90506000815114156118a1578193505050611905565b6000825111156118d65780826040516020016118be929190613817565b60405160208183030381529060405293505050611905565b806118e086611dea565b6040516020016118f1929190613817565b604051602081830303815290604052935050505b50919050565b600081600001549050919050565b600073ffffffffffffffffffffffffffffffffffffffff168273ffffffffffffffffffffffffffffffffffffffff161415611989576040517f08c379a000000000000000000000000000000000000000000000000000000000815260040161198090613887565b60405180910390fd5b611992816110a0565b156119d2576040517f08c379a00000000000000000000000000000000000000000000000000000000081526004016119c9906138f3565b60405180910390fd5b6119de60008383611c0b565b6001600360008473ffffffffffffffffffffffffffffffffffffffff1673ffffffffffffffffffffffffffffffffffffffff1681526020019081526020016000206000828254611a2e9190613631565b92505081905550816002600083815260200190815260200160002060006101000a81548173ffffffffffffffffffffffffffffffffffffffff021916908373ffffffffffffffffffffffffffffffffffffffff160217905550808273ffffffffffffffffffffffffffffffffffffffff16600073ffffffffffffffffffffffffffffffffffffffff167fddf252ad1be2c89b69c2b068fc378daa952ba7f163c4a11628f55a4df523b3ef60405160405180910390a45050565b80600b60008481526020019081526020016000209080519060200190611b0e929190612443565b505050565b6001816000016000828254019250508190555050565b60007f80ac58cd000000000000000000000000000000000000000000000000000000007bffffffffffffffffffffffffffffffffffffffffffffffffffffffff1916827bffffffffffffffffffffffffffffffffffffffffffffffffffffffff19161480611bf457507f5b5e139f000000000000000000000000000000000000000000000000000000007bffffffffffffffffffffffffffffffffffffffffffffffffffffffff1916827bffffffffffffffffffffffffffffffffffffffffffffffffffffffff1916145b80611c045750611c0382611f6a565b5b9050919050565b611c16838383611fd4565b505050565b6000611c3c8473ffffffffffffffffffffffffffffffffffffffff166120e8565b15611dce578373ffffffffffffffffffffffffffffffffffffffff1663150b7a02611c6561110c565b8786866040518563ffffffff167c0100000000000000000000000000000000000000000000000000000000028152600401611ca39493929190613968565b6020604051808303816000875af1925050508015611cdf57506040513d601f19601f82011682018060405250810190611cdc91906139c9565b60015b611d62573d8060008114611d0f576040519150601f19603f3d011682016040523d82523d6000602084013e611d14565b606091505b50600081511415611d5a576040517f08c379a0000000000000000000000000000000000000000000000000000000008152600401611d5190613765565b60405180910390fd5b805181602001fd5b63150b7a027c0100000000000000000000000000000000000000000000000000000000027bffffffffffffffffffffffffffffffffffffffffffffffffffffffff1916817bffffffffffffffffffffffffffffffffffffffffffffffffffffffff191614915050611dd3565b600190505b949350505050565b6060611de56120fb565b905090565b60606000821415611e32576040518060400160405280600181526020017f30000000000000000000000000000000000000000000000000000000000000008152509050611f65565b600082905060005b60008214611e64578080611e4d90613241565b915050600a82611e5d9190613a25565b9150611e3a565b60008167ffffffffffffffff811115611e8057611e7f61299b565b5b6040519080825280601f01601f191660200182016040528015611eb25781602001600182028036833780820191505090505b5090505b60008514611f5e57600182611ecb91906135fd565b9150600a85611eda9190613a56565b6030611ee69190613631565b7f010000000000000000000000000000000000000000000000000000000000000002818381518110611f1b57611f1a613053565b5b60200101907effffffffffffffffffffffffffffffffffffffffffffffffffffffffffffff1916908160001a905350600a85611f579190613a25565b9450611eb6565b8093505050505b919050565b60007f01ffc9a7000000000000000000000000000000000000000000000000000000007bffffffffffffffffffffffffffffffffffffffffffffffffffffffff1916827bffffffffffffffffffffffffffffffffffffffffffffffffffffffff1916149050919050565b611fdf838383612138565b600073ffffffffffffffffffffffffffffffffffffffff168373ffffffffffffffffffffffffffffffffffffffff1614156120225761201d8161213d565b612061565b8173ffffffffffffffffffffffffffffffffffffffff168373ffffffffffffffffffffffffffffffffffffffff16146120605761205f8382612186565b5b5b600073ffffffffffffffffffffffffffffffffffffffff168273ffffffffffffffffffffffffffffffffffffffff1614156120a45761209f816122f3565b6120e3565b8273ffffffffffffffffffffffffffffffffffffffff168273ffffffffffffffffffffffffffffffffffffffff16146120e2576120e182826123c4565b5b5b505050565b600080823b905060008111915050919050565b60606040518060400160405280601581526020017f68747470733a2f2f697066732e696f2f697066732f0000000000000000000000815250905090565b505050565b600980549050600a600083815260200190815260200160002081905550600981908060018154018082558091505060019003906000526020600020016000909190919091505550565b6000600161219384610956565b61219d91906135fd565b9050600060086000848152602001908152602001600020549050818114612282576000600760008673ffffffffffffffffffffffffffffffffffffffff1673ffffffffffffffffffffffffffffffffffffffff168152602001908152602001600020600084815260200190815260200160002054905080600760008773ffffffffffffffffffffffffffffffffffffffff1673ffffffffffffffffffffffffffffffffffffffff168152602001908152602001600020600084815260200190815260200160002081905550816008600083815260200190815260200160002081905550505b6008600084815260200190815260200160002060009055600760008573ffffffffffffffffffffffffffffffffffffffff1673ffffffffffffffffffffffffffffffffffffffff16815260200190815260200160002060008381526020019081526020016000206000905550505050565b6000600160098054905061230791906135fd565b90506000600a600084815260200190815260200160002054905060006009838154811061233757612336613053565b5b90600052602060002001549050806009838154811061235957612358613053565b5b906000526020600020018190555081600a600083815260200190815260200160002081905550600a60008581526020019081526020016000206000905560098054806123a8576123a7613a87565b5b6001900381819060005260206000200160009055905550505050565b60006123cf83610956565b905081600760008573ffffffffffffffffffffffffffffffffffffffff1673ffffffffffffffffffffffffffffffffffffffff168152602001908152602001600020600083815260200190815260200160002081905550806008600084815260200190815260200160002081905550505050565b82805461244f90612cb5565b90600052602060002090601f01602090048101928261247157600085556124b8565b82601f1061248a57805160ff19168380011785556124b8565b828001600101855582156124b8579182015b828111156124b757825182559160200191906001019061249c565b5b5090506124c591906124c9565b5090565b5b808211156124e25760008160009055506001016124ca565b5090565b6000604051905090565b600080fd5b600080fd5b60007fffffffff0000000000000000000000000000000000000000000000000000000082169050919050565b61252f816124fa565b811461253a57600080fd5b50565b60008135905061254c81612526565b92915050565b600060208284031215612568576125676124f0565b5b60006125768482850161253d565b91505092915050565b60008115159050919050565b6125948161257f565b82525050565b60006020820190506125af600083018461258b565b92915050565b600081519050919050565b600082825260208201905092915050565b60005b838110156125ef5780820151818401526020810190506125d4565b838111156125fe576000848401525b50505050565b6000601f19601f8301169050919050565b6000612620826125b5565b61262a81856125c0565b935061263a8185602086016125d1565b61264381612604565b840191505092915050565b600060208201905081810360008301526126688184612615565b905092915050565b6000819050919050565b61268381612670565b811461268e57600080fd5b50565b6000813590506126a08161267a565b92915050565b6000602082840312156126bc576126bb6124f0565b5b60006126ca84828501612691565b91505092915050565b600073ffffffffffffffffffffffffffffffffffffffff82169050919050565b60006126fe826126d3565b9050919050565b61270e816126f3565b82525050565b60006020820190506127296000830184612705565b92915050565b612738816126f3565b811461274357600080fd5b50565b6000813590506127558161272f565b92915050565b60008060408385031215612772576127716124f0565b5b600061278085828601612746565b925050602061279185828601612691565b9150509250929050565b6127a481612670565b82525050565b60006020820190506127bf600083018461279b565b92915050565b6000806000606084860312156127de576127dd6124f0565b5b60006127ec86828701612746565b93505060206127fd86828701612746565b925050604061280e86828701612691565b9150509250925092565b60006020828403121561282e5761282d6124f0565b5b600061283c84828501612746565b91505092915050565b600081519050919050565b600082825260208201905092915050565b6000819050602082019050919050565b61287a81612670565b82525050565b600061288c8383612871565b60208301905092915050565b6000602082019050919050565b60006128b082612845565b6128ba8185612850565b93506128c583612861565b8060005b838110156128f65781516128dd8882612880565b97506128e883612898565b9250506001810190506128c9565b5085935050505092915050565b6000602082019050818103600083015261291d81846128a5565b905092915050565b61292e8161257f565b811461293957600080fd5b50565b60008135905061294b81612925565b92915050565b60008060408385031215612968576129676124f0565b5b600061297685828601612746565b92505060206129878582860161293c565b9150509250929050565b600080fd5b600080fd5b7f4e487b7100000000000000000000000000000000000000000000000000000000600052604160045260246000fd5b6129d382612604565b810181811067ffffffffffffffff821117156129f2576129f161299b565b5b80604052505050565b6000612a056124e6565b9050612a1182826129ca565b919050565b600067ffffffffffffffff821115612a3157612a3061299b565b5b612a3a82612604565b9050602081019050919050565b82818337600083830152505050565b6000612a69612a6484612a16565b6129fb565b905082815260208101848484011115612a8557612a84612996565b5b612a90848285612a47565b509392505050565b600082601f830112612aad57612aac612991565b5b8135612abd848260208601612a56565b91505092915050565b60008060008060808587031215612ae057612adf6124f0565b5b6000612aee87828801612746565b9450506020612aff87828801612746565b9350506040612b1087828801612691565b925050606085013567ffffffffffffffff811115612b3157612b306124f5565b5b612b3d87828801612a98565b91505092959194509250565b600067ffffffffffffffff821115612b6457612b6361299b565b5b612b6d82612604565b9050602081019050919050565b6000612b8d612b8884612b49565b6129fb565b905082815260208101848484011115612ba957612ba8612996565b5b612bb4848285612a47565b509392505050565b600082601f830112612bd157612bd0612991565b5b8135612be1848260208601612b7a565b91505092915050565b60008060408385031215612c0157612c006124f0565b5b6000612c0f85828601612746565b925050602083013567ffffffffffffffff811115612c3057612c2f6124f5565b5b612c3c85828601612bbc565b9150509250929050565b60008060408385031215612c5d57612c5c6124f0565b5b6000612c6b85828601612746565b9250506020612c7c85828601612746565b9150509250929050565b7f4e487b7100000000000000000000000000000000000000000000000000000000600052602260045260246000fd5b60006002820490506001821680612ccd57607f821691505b60208210811415612ce157612ce0612c86565b5b50919050565b7f4552433732313a20617070726f76656420717565727920666f72206e6f6e657860008201527f697374656e7420746f6b656e0000000000000000000000000000000000000000602082015250565b6000612d43602c836125c0565b9150612d4e82612ce7565b604082019050919050565b60006020820190508181036000830152612d7281612d36565b9050919050565b7f4552433732313a20617070726f76616c20746f2063757272656e74206f776e6560008201527f7200000000000000000000000000000000000000000000000000000000000000602082015250565b6000612dd56021836125c0565b9150612de082612d79565b604082019050919050565b60006020820190508181036000830152612e0481612dc8565b9050919050565b7f4552433732313a20617070726f76652063616c6c6572206973206e6f74206f7760008201527f6e6572206e6f7220617070726f76656420666f7220616c6c0000000000000000602082015250565b6000612e676038836125c0565b9150612e7282612e0b565b604082019050919050565b60006020820190508181036000830152612e9681612e5a565b9050919050565b7f4552433732313a207472616e736665722063616c6c6572206973206e6f74206f60008201527f776e6572206e6f7220617070726f766564000000000000000000000000000000602082015250565b6000612ef96031836125c0565b9150612f0482612e9d565b604082019050919050565b60006020820190508181036000830152612f2881612eec565b9050919050565b7f455243373231456e756d657261626c653a206f776e657220696e646578206f7560008201527f74206f6620626f756e6473000000000000000000000000000000000000000000602082015250565b6000612f8b602b836125c0565b9150612f9682612f2f565b604082019050919050565b60006020820190508181036000830152612fba81612f7e565b9050919050565b7f455243373231456e756d657261626c653a20676c6f62616c20696e646578206f60008201527f7574206f6620626f756e64730000000000000000000000000000000000000000602082015250565b600061301d602c836125c0565b915061302882612fc1565b604082019050919050565b6000602082019050818103600083015261304c81613010565b9050919050565b7f4e487b7100000000000000000000000000000000000000000000000000000000600052603260045260246000fd5b7f4552433732313a206f776e657220717565727920666f72206e6f6e657869737460008201527f656e7420746f6b656e0000000000000000000000000000000000000000000000602082015250565b60006130de6029836125c0565b91506130e982613082565b604082019050919050565b6000602082019050818103600083015261310d816130d1565b9050919050565b7f4552433732313a2062616c616e636520717565727920666f7220746865207a6560008201527f726f206164647265737300000000000000000000000000000000000000000000602082015250565b6000613170602a836125c0565b915061317b82613114565b604082019050919050565b6000602082019050818103600083015261319f81613163565b9050919050565b7f4f776e61626c653a2063616c6c6572206973206e6f7420746865206f776e6572600082015250565b60006131dc6020836125c0565b91506131e7826131a6565b602082019050919050565b6000602082019050818103600083015261320b816131cf565b9050919050565b7f4e487b7100000000000000000000000000000000000000000000000000000000600052601160045260246000fd5b600061324c82612670565b91507fffffffffffffffffffffffffffffffffffffffffffffffffffffffffffffffff82141561327f5761327e613212565b5b600182019050919050565b600081905092915050565b60006132a0826125b5565b6132aa818561328a565b93506132ba8185602086016125d1565b80840191505092915050565b60006132d28284613295565b915081905092915050565b7f746f6b656e20616c726561647920657869737473000000000000000000000000600082015250565b60006133136014836125c0565b915061331e826132dd565b602082019050919050565b6000602082019050818103600083015261334281613306565b9050919050565b7f5573657220616c72656164792020657869737473000000000000000000000000600082015250565b600061337f6014836125c0565b915061338a82613349565b602082019050919050565b600060208201905081810360008301526133ae81613372565b9050919050565b7f4f776e61626c653a206e6577206f776e657220697320746865207a65726f206160008201527f6464726573730000000000000000000000000000000000000000000000000000602082015250565b60006134116026836125c0565b915061341c826133b5565b604082019050919050565b6000602082019050818103600083015261344081613404565b9050919050565b7f4552433732313a206f70657261746f7220717565727920666f72206e6f6e657860008201527f697374656e7420746f6b656e0000000000000000000000000000000000000000602082015250565b60006134a3602c836125c0565b91506134ae82613447565b604082019050919050565b600060208201905081810360008301526134d281613496565b9050919050565b7f4552433732313a207472616e73666572206f6620746f6b656e2074686174206960008201527f73206e6f74206f776e0000000000000000000000000000000000000000000000602082015250565b60006135356029836125c0565b9150613540826134d9565b604082019050919050565b6000602082019050818103600083015261356481613528565b9050919050565b7f4552433732313a207472616e7366657220746f20746865207a65726f2061646460008201527f7265737300000000000000000000000000000000000000000000000000000000602082015250565b60006135c76024836125c0565b91506135d28261356b565b604082019050919050565b600060208201905081810360008301526135f6816135ba565b9050919050565b600061360882612670565b915061361383612670565b92508282101561362657613625613212565b5b828203905092915050565b600061363c82612670565b915061364783612670565b9250827fffffffffffffffffffffffffffffffffffffffffffffffffffffffffffffffff0382111561367c5761367b613212565b5b828201905092915050565b7f4552433732313a20617070726f766520746f2063616c6c657200000000000000600082015250565b60006136bd6019836125c0565b91506136c882613687565b602082019050919050565b600060208201905081810360008301526136ec816136b0565b9050919050565b7f4552433732313a207472616e7366657220746f206e6f6e20455243373231526560008201527f63656976657220696d706c656d656e7465720000000000000000000000000000602082015250565b600061374f6032836125c0565b915061375a826136f3565b604082019050919050565b6000602082019050818103600083015261377e81613742565b9050919050565b7f4552433732314d657461646174613a2055524920717565727920666f72206e6f60008201527f6e6578697374656e7420746f6b656e0000000000000000000000000000000000602082015250565b60006137e1602f836125c0565b91506137ec82613785565b604082019050919050565b60006020820190508181036000830152613810816137d4565b9050919050565b60006138238285613295565b915061382f8284613295565b91508190509392505050565b7f4552433732313a206d696e7420746f20746865207a65726f2061646472657373600082015250565b60006138716020836125c0565b915061387c8261383b565b602082019050919050565b600060208201905081810360008301526138a081613864565b9050919050565b7f4552433732313a20746f6b656e20616c7265616479206d696e74656400000000600082015250565b60006138dd601c836125c0565b91506138e8826138a7565b602082019050919050565b6000602082019050818103600083015261390c816138d0565b9050919050565b600081519050919050565b600082825260208201905092915050565b600061393a82613913565b613944818561391e565b93506139548185602086016125d1565b61395d81612604565b840191505092915050565b600060808201905061397d6000830187612705565b61398a6020830186612705565b613997604083018561279b565b81810360608301526139a9818461392f565b905095945050505050565b6000815190506139c381612526565b92915050565b6000602082840312156139df576139de6124f0565b5b60006139ed848285016139b4565b91505092915050565b7f4e487b7100000000000000000000000000000000000000000000000000000000600052601260045260246000fd5b6000613a3082612670565b9150613a3b83612670565b925082613a4b57613a4a6139f6565b5b828204905092915050565b6000613a6182612670565b9150613a6c83612670565b925082613a7c57613a7b6139f6565b5b828206905092915050565b7f4e487b7100000000000000000000000000000000000000000000000000000000600052603160045260246000fdfea2646970667358221220ee07ab5393225cfdf25ded02f131b75440b94bc7e4fac47c5e1928c662497a0e64736f6c634300080a0033",
  "immutableReferences": {},
  "source": "// SPDX-License-Identifier: MIT\npragma solidity 0.8.10;\n/// @title An NFT game for newcomer to the blockchain world. Can be used complementary to Bootcamps to get used to MetaMask and Dapps.\n/// @author Lena Hierzi\n/// @notice This contract is not aiming for security as it is designed for a playful entry into Dapps and only to be deployed on testnet.\n/// @custom:experimental This is an experimental contract.\n\nimport \"@openzeppelin/contracts/token/ERC721/ERC721.sol\";\nimport \"@openzeppelin/contracts/access/Ownable.sol\";\nimport \"@openzeppelin/contracts/utils/math/SafeMath.sol\";\nimport \"@openzeppelin/contracts/utils/Counters.sol\";\nimport \"@openzeppelin/contracts/token/ERC721/extensions/ERC721Enumerable.sol\";\nimport \"./BaseContract.sol\";\n\ncontract Nft is\n    ERC721,\n    Ownable,\n    ERC721Enumerable,\n    BaseContract(\"Nft\", \"Octopus\")\n{\n    using SafeMath for uint256;\n    using Strings for uint256;\n    using Counters for Counters.Counter;\n    uint256 public constant MAX_SUPPLY = 50000;\n    // uint256 public constant PRICE = 0.0001 ether;\n    uint256 public constant MAX_PER_MINT = 100;\n    mapping(uint256 => address) tokensToOwner;\n\n    Counters.Counter private _tokenIds;\n    mapping(string => bool) _tokenExists;\n    mapping(address => bool) _userExists;\n\n    /*\n     * Modifiers\n     */\n    modifier tokenUnique(string memory token) {\n        require(!_tokenExists[token], \"token already exists\");\n        _;\n    }\n    modifier userDoesntExists(address user) {\n        require(!_userExists[user], \"User already  exists\");\n        _;\n    }\n    modifier userExists(address user) {\n        require(_userExists[user], \"User doesn't exists\");\n        _;\n    }\n    modifier addressNotSender(address user1, address user2) {\n        require(user1 != user2, \"Address same as message sender\");\n        _;\n    }\n\n    /// @notice  Token is minted. Can only be called once by every user.\n    /// @param to The address, the Token should be transfered to\n    /// @param cid The CID of the Tokens metadata\n    /// @return _id\n    function mint(address to, string memory cid)\n        public\n        tokenUnique(cid)\n        userDoesntExists(to)\n        returns (uint256 _id)\n    {\n        _id = _tokenIds.current();\n        _mint(to, _id);\n        tokensToOwner[_id] = to;\n        _tokenExists[cid] = true;\n        _userExists[to] = true;\n        _setTokenURI(_id, cid);\n        _tokenIds.increment();\n\n        return _id;\n    }\n\n    /// @notice Returns the ids of tokens of one owner\n    /// @param _owner The person that wants to know which tokens belong to them\n    /// @return userTokens  all ids of tokens belonging to one owner\n    function tokensOfOwner(address _owner)\n        public\n        view\n        returns (uint256[] memory)\n    {\n        uint256 tokenCount = balanceOf(_owner);\n        uint256[] memory tokenIds = new uint256[](tokenCount);\n        // string[] memory userTokens = new string[](tokenCount);\n\n        for (uint256 i = 0; i < tokenCount; i++) {\n            tokenIds[i] = tokenOfOwnerByIndex(_owner, i);\n            // if(tokensId[i]  == i){\n            //    userTokens[i] = tokensList[i];\n            // }\n        }\n        return tokenIds;\n    }\n\n    // The following functions are overrides for the BaseContract.\n\n    function _baseURI()\n        internal\n        view\n        virtual\n        override(BaseContract, ERC721)\n        returns (string memory)\n    {\n        return super._baseURI();\n    }\n\n    function tokenURI(uint256 tokenId)\n        public\n        view\n        virtual\n        override(BaseContract, ERC721)\n        returns (string memory)\n    {\n        return super.tokenURI(tokenId);\n    }\n\n    // The following functions are overrides for ERC721Enumerable required by Solidity.\n    function _beforeTokenTransfer(\n        address from,\n        address to,\n        uint256 tokenId\n    ) internal override(ERC721, ERC721Enumerable) {\n        super._beforeTokenTransfer(from, to, tokenId);\n    }\n\n    function supportsInterface(bytes4 interfaceId)\n        public\n        view\n        override(ERC721, ERC721Enumerable)\n        returns (bool)\n    {\n        return super.supportsInterface(interfaceId);\n    }\n}\n",
  "sourcePath": "/Users/lenahierzi/Developer/consensys/blockchain-developer-bootcamp-final-project/contracts/NFT.sol",
  "compiler": {
    "name": "solc",
    "version": "0.8.10+commit.fc410830.Emscripten.clang"
  },
  "schemaVersion": "3.4.3",
  "updatedAt": "2022-01-09T11:56:54.441Z",
  "devdoc": {
    "kind": "dev",
    "methods": {
      "approve(address,uint256)": {
        "details": "See {IERC721-approve}."
      },
      "balanceOf(address)": {
        "details": "See {IERC721-balanceOf}."
      },
      "getApproved(uint256)": {
        "details": "See {IERC721-getApproved}."
      },
      "isApprovedForAll(address,address)": {
        "details": "See {IERC721-isApprovedForAll}."
      },
      "mint(address,string)": {
        "params": {
          "cid": "The CID of the Tokens metadata",
          "to": "The address, the Token should be transfered to"
        },
        "returns": {
          "_id": "_id"
        }
      },
      "name()": {
        "details": "See {IERC721Metadata-name}."
      },
      "owner()": {
        "details": "Returns the address of the current owner."
      },
      "ownerOf(uint256)": {
        "details": "See {IERC721-ownerOf}."
      },
      "renounceOwnership()": {
        "details": "Leaves the contract without owner. It will not be possible to call `onlyOwner` functions anymore. Can only be called by the current owner. NOTE: Renouncing ownership will leave the contract without an owner, thereby removing any functionality that is only available to the owner."
      },
      "safeTransferFrom(address,address,uint256)": {
        "details": "See {IERC721-safeTransferFrom}."
      },
      "safeTransferFrom(address,address,uint256,bytes)": {
        "details": "See {IERC721-safeTransferFrom}."
      },
      "setApprovalForAll(address,bool)": {
        "details": "See {IERC721-setApprovalForAll}."
      },
      "symbol()": {
        "details": "See {IERC721Metadata-symbol}."
      },
      "tokenByIndex(uint256)": {
        "details": "See {IERC721Enumerable-tokenByIndex}."
      },
      "tokenOfOwnerByIndex(address,uint256)": {
        "details": "See {IERC721Enumerable-tokenOfOwnerByIndex}."
      },
      "tokensOfOwner(address)": {
        "params": {
          "_owner": "The person that wants to know which tokens belong to them"
        },
        "returns": {
          "_0": "userTokens  all ids of tokens belonging to one owner"
        }
      },
      "totalSupply()": {
        "details": "See {IERC721Enumerable-totalSupply}."
      },
      "transferFrom(address,address,uint256)": {
        "details": "See {IERC721-transferFrom}."
      },
      "transferOwnership(address)": {
        "details": "Transfers ownership of the contract to a new account (`newOwner`). Can only be called by the current owner."
      }
    },
    "version": 1
  },
  "userdoc": {
    "kind": "user",
    "methods": {
      "mint(address,string)": {
        "notice": "Token is minted. Can only be called once by every user."
      },
      "tokensOfOwner(address)": {
        "notice": "Returns the ids of tokens of one owner"
      }
    },
    "version": 1
  }
}