{
  "contractName": "Nft",
  "abi": [
    {
      "anonymous": false,
      "inputs": [
        {
          "indexed": true,
          "internalType": "address",
          "name": "owner",
          "type": "address"
        },
        {
          "indexed": true,
          "internalType": "address",
          "name": "approved",
          "type": "address"
        },
        {
          "indexed": true,
          "internalType": "uint256",
          "name": "tokenId",
          "type": "uint256"
        }
      ],
      "name": "Approval",
      "type": "event"
    },
    {
      "anonymous": false,
      "inputs": [
        {
          "indexed": true,
          "internalType": "address",
          "name": "owner",
          "type": "address"
        },
        {
          "indexed": true,
          "internalType": "address",
          "name": "operator",
          "type": "address"
        },
        {
          "indexed": false,
          "internalType": "bool",
          "name": "approved",
          "type": "bool"
        }
      ],
      "name": "ApprovalForAll",
      "type": "event"
    },
    {
      "anonymous": false,
      "inputs": [
        {
          "indexed": true,
          "internalType": "address",
          "name": "previousOwner",
          "type": "address"
        },
        {
          "indexed": true,
          "internalType": "address",
          "name": "newOwner",
          "type": "address"
        }
      ],
      "name": "OwnershipTransferred",
      "type": "event"
    },
    {
      "anonymous": false,
      "inputs": [
        {
          "indexed": true,
          "internalType": "address",
          "name": "from",
          "type": "address"
        },
        {
          "indexed": true,
          "internalType": "address",
          "name": "to",
          "type": "address"
        },
        {
          "indexed": true,
          "internalType": "uint256",
          "name": "tokenId",
          "type": "uint256"
        }
      ],
      "name": "Transfer",
      "type": "event"
    },
    {
      "inputs": [],
      "name": "MAX_PER_MINT",
      "outputs": [
        {
          "internalType": "uint256",
          "name": "",
          "type": "uint256"
        }
      ],
      "stateMutability": "view",
      "type": "function"
    },
    {
      "inputs": [],
      "name": "MAX_SUPPLY",
      "outputs": [
        {
          "internalType": "uint256",
          "name": "",
          "type": "uint256"
        }
      ],
      "stateMutability": "view",
      "type": "function"
    },
    {
      "inputs": [],
      "name": "PRICE",
      "outputs": [
        {
          "internalType": "uint256",
          "name": "",
          "type": "uint256"
        }
      ],
      "stateMutability": "view",
      "type": "function"
    },
    {
      "inputs": [
        {
          "internalType": "address",
          "name": "to",
          "type": "address"
        },
        {
          "internalType": "uint256",
          "name": "tokenId",
          "type": "uint256"
        }
      ],
      "name": "approve",
      "outputs": [],
      "stateMutability": "nonpayable",
      "type": "function"
    },
    {
      "inputs": [
        {
          "internalType": "address",
          "name": "owner",
          "type": "address"
        }
      ],
      "name": "balanceOf",
      "outputs": [
        {
          "internalType": "uint256",
          "name": "",
          "type": "uint256"
        }
      ],
      "stateMutability": "view",
      "type": "function"
    },
    {
      "inputs": [],
      "name": "baseTokenURI",
      "outputs": [
        {
          "internalType": "string",
          "name": "",
          "type": "string"
        }
      ],
      "stateMutability": "view",
      "type": "function"
    },
    {
      "inputs": [
        {
          "internalType": "uint256",
          "name": "tokenId",
          "type": "uint256"
        }
      ],
      "name": "getApproved",
      "outputs": [
        {
          "internalType": "address",
          "name": "",
          "type": "address"
        }
      ],
      "stateMutability": "view",
      "type": "function"
    },
    {
      "inputs": [
        {
          "internalType": "address",
          "name": "owner",
          "type": "address"
        },
        {
          "internalType": "address",
          "name": "operator",
          "type": "address"
        }
      ],
      "name": "isApprovedForAll",
      "outputs": [
        {
          "internalType": "bool",
          "name": "",
          "type": "bool"
        }
      ],
      "stateMutability": "view",
      "type": "function"
    },
    {
      "inputs": [],
      "name": "name",
      "outputs": [
        {
          "internalType": "string",
          "name": "",
          "type": "string"
        }
      ],
      "stateMutability": "view",
      "type": "function"
    },
    {
      "inputs": [],
      "name": "owner",
      "outputs": [
        {
          "internalType": "address",
          "name": "",
          "type": "address"
        }
      ],
      "stateMutability": "view",
      "type": "function"
    },
    {
      "inputs": [
        {
          "internalType": "uint256",
          "name": "tokenId",
          "type": "uint256"
        }
      ],
      "name": "ownerOf",
      "outputs": [
        {
          "internalType": "address",
          "name": "",
          "type": "address"
        }
      ],
      "stateMutability": "view",
      "type": "function"
    },
    {
      "inputs": [],
      "name": "renounceOwnership",
      "outputs": [],
      "stateMutability": "nonpayable",
      "type": "function"
    },
    {
      "inputs": [
        {
          "internalType": "address",
          "name": "from",
          "type": "address"
        },
        {
          "internalType": "address",
          "name": "to",
          "type": "address"
        },
        {
          "internalType": "uint256",
          "name": "tokenId",
          "type": "uint256"
        }
      ],
      "name": "safeTransferFrom",
      "outputs": [],
      "stateMutability": "nonpayable",
      "type": "function"
    },
    {
      "inputs": [
        {
          "internalType": "address",
          "name": "from",
          "type": "address"
        },
        {
          "internalType": "address",
          "name": "to",
          "type": "address"
        },
        {
          "internalType": "uint256",
          "name": "tokenId",
          "type": "uint256"
        },
        {
          "internalType": "bytes",
          "name": "_data",
          "type": "bytes"
        }
      ],
      "name": "safeTransferFrom",
      "outputs": [],
      "stateMutability": "nonpayable",
      "type": "function"
    },
    {
      "inputs": [
        {
          "internalType": "address",
          "name": "operator",
          "type": "address"
        },
        {
          "internalType": "bool",
          "name": "approved",
          "type": "bool"
        }
      ],
      "name": "setApprovalForAll",
      "outputs": [],
      "stateMutability": "nonpayable",
      "type": "function"
    },
    {
      "inputs": [
        {
          "internalType": "string",
          "name": "baseURI_",
          "type": "string"
        }
      ],
      "name": "setBaseURI",
      "outputs": [],
      "stateMutability": "nonpayable",
      "type": "function"
    },
    {
      "inputs": [],
      "name": "symbol",
      "outputs": [
        {
          "internalType": "string",
          "name": "",
          "type": "string"
        }
      ],
      "stateMutability": "view",
      "type": "function"
    },
    {
      "inputs": [
        {
          "internalType": "uint256",
          "name": "index",
          "type": "uint256"
        }
      ],
      "name": "tokenByIndex",
      "outputs": [
        {
          "internalType": "uint256",
          "name": "",
          "type": "uint256"
        }
      ],
      "stateMutability": "view",
      "type": "function"
    },
    {
      "inputs": [
        {
          "internalType": "address",
          "name": "owner",
          "type": "address"
        },
        {
          "internalType": "uint256",
          "name": "index",
          "type": "uint256"
        }
      ],
      "name": "tokenOfOwnerByIndex",
      "outputs": [
        {
          "internalType": "uint256",
          "name": "",
          "type": "uint256"
        }
      ],
      "stateMutability": "view",
      "type": "function"
    },
    {
      "inputs": [],
      "name": "totalSupply",
      "outputs": [
        {
          "internalType": "uint256",
          "name": "",
          "type": "uint256"
        }
      ],
      "stateMutability": "view",
      "type": "function"
    },
    {
      "inputs": [
        {
          "internalType": "address",
          "name": "from",
          "type": "address"
        },
        {
          "internalType": "address",
          "name": "to",
          "type": "address"
        },
        {
          "internalType": "uint256",
          "name": "tokenId",
          "type": "uint256"
        }
      ],
      "name": "transferFrom",
      "outputs": [],
      "stateMutability": "nonpayable",
      "type": "function"
    },
    {
      "inputs": [
        {
          "internalType": "address",
          "name": "newOwner",
          "type": "address"
        }
      ],
      "name": "transferOwnership",
      "outputs": [],
      "stateMutability": "nonpayable",
      "type": "function"
    },
    {
      "inputs": [
        {
          "internalType": "string",
          "name": "cid",
          "type": "string"
        }
      ],
      "name": "mint",
      "outputs": [
        {
          "internalType": "uint256",
          "name": "_id",
          "type": "uint256"
        }
      ],
      "stateMutability": "nonpayable",
      "type": "function"
    },
    {
      "inputs": [
        {
          "internalType": "address",
          "name": "_owner",
          "type": "address"
        }
      ],
      "name": "tokensOfOwner",
      "outputs": [
        {
          "internalType": "uint256[]",
          "name": "",
          "type": "uint256[]"
        }
      ],
      "stateMutability": "view",
      "type": "function"
    },
    {
      "inputs": [
        {
          "internalType": "uint256",
          "name": "tokenId",
          "type": "uint256"
        }
      ],
      "name": "tokenURI",
      "outputs": [
        {
          "internalType": "string",
          "name": "",
          "type": "string"
        }
      ],
      "stateMutability": "view",
      "type": "function"
    },
    {
      "inputs": [
        {
          "internalType": "bytes4",
          "name": "interfaceId",
          "type": "bytes4"
        }
      ],
      "name": "supportsInterface",
      "outputs": [
        {
          "internalType": "bool",
          "name": "",
          "type": "bool"
        }
      ],
      "stateMutability": "view",
      "type": "function"
    }
  ],
  "bytecode": "0x60806040526040518060400160405280601581526020017f68747470733a2f2f697066732e696f2f697066732f0000000000000000000000815250600d9080519060200190620000519291906200020a565b503480156200005f57600080fd5b506040518060400160405280600381526020017f4e667400000000000000000000000000000000000000000000000000000000008152506040518060400160405280600381526020017f4e4654000000000000000000000000000000000000000000000000000000000081525081818160009080519060200190620000e69291906200020a565b508060019080519060200190620000ff9291906200020a565b505050620001346200011f6200013c640100000000026401000000009004565b62000144640100000000026401000000009004565b50506200031f565b600033905090565b6000600660009054906101000a900473ffffffffffffffffffffffffffffffffffffffff16905081600660006101000a81548173ffffffffffffffffffffffffffffffffffffffff021916908373ffffffffffffffffffffffffffffffffffffffff1602179055508173ffffffffffffffffffffffffffffffffffffffff168173ffffffffffffffffffffffffffffffffffffffff167f8be0079c531659141344cd1fd0a4f28419497f9722a3daafe3b4186f6b6457e060405160405180910390a35050565b8280546200021890620002e9565b90600052602060002090601f0160209004810192826200023c576000855562000288565b82601f106200025757805160ff191683800117855562000288565b8280016001018555821562000288579182015b82811115620002875782518255916020019190600101906200026a565b5b5090506200029791906200029b565b5090565b5b80821115620002b65760008160009055506001016200029c565b5090565b7f4e487b7100000000000000000000000000000000000000000000000000000000600052602260045260246000fd5b600060028204905060018216806200030257607f821691505b60208210811415620003195762000318620002ba565b5b50919050565b613bf5806200032f6000396000f3fe608060405234801561001057600080fd5b50600436106101ab576000357c01000000000000000000000000000000000000000000000000000000009004806370a08231116100fb578063a22cb465116100b4578063d547cfb71161008e578063d547cfb7146104b4578063d85d3d27146104d2578063e985e9c514610502578063f2fde38b14610532576101ab565b8063a22cb4651461044c578063b88d4fde14610468578063c87b56dd14610484576101ab565b806370a0823114610388578063715018a6146103b85780638462151c146103c25780638d859f3e146103f25780638da5cb5b1461041057806395d89b411461042e576101ab565b806323b872dd1161016857806342842e0e1161014257806342842e0e146102f05780634f6ccce71461030c57806355f804b31461033c5780636352211e14610358576101ab565b806323b872dd146102865780632f745c59146102a257806332cb6b0c146102d2576101ab565b806301ffc9a7146101b057806306fdde03146101e0578063081812fc146101fe578063095ea7b31461022e57806309d42b301461024a57806318160ddd14610268575b600080fd5b6101ca60048036038101906101c591906126b4565b61054e565b6040516101d791906126fc565b60405180910390f35b6101e8610560565b6040516101f591906127b0565b60405180910390f35b61021860048036038101906102139190612808565b6105f2565b6040516102259190612876565b60405180910390f35b610248600480360381019061024391906128bd565b610677565b005b61025261078f565b60405161025f919061290c565b60405180910390f35b610270610794565b60405161027d919061290c565b60405180910390f35b6102a0600480360381019061029b9190612927565b6107a1565b005b6102bc60048036038101906102b791906128bd565b610801565b6040516102c9919061290c565b60405180910390f35b6102da6108a6565b6040516102e7919061290c565b60405180910390f35b61030a60048036038101906103059190612927565b6108ac565b005b61032660048036038101906103219190612808565b6108cc565b604051610333919061290c565b60405180910390f35b61035660048036038101906103519190612aaf565b61093d565b005b610372600480360381019061036d9190612808565b6109d3565b60405161037f9190612876565b60405180910390f35b6103a2600480360381019061039d9190612af8565b610a85565b6040516103af919061290c565b60405180910390f35b6103c0610b3d565b005b6103dc60048036038101906103d79190612af8565b610bc5565b6040516103e99190612be3565b60405180910390f35b6103fa610c73565b604051610407919061290c565b60405180910390f35b610418610c7d565b6040516104259190612876565b60405180910390f35b610436610ca7565b60405161044391906127b0565b60405180910390f35b61046660048036038101906104619190612c31565b610d39565b005b610482600480360381019061047d9190612d12565b610eba565b005b61049e60048036038101906104999190612808565b610f1c565b6040516104ab91906127b0565b60405180910390f35b6104bc610f2e565b6040516104c991906127b0565b60405180910390f35b6104ec60048036038101906104e79190612aaf565b610fbc565b6040516104f9919061290c565b60405180910390f35b61051c60048036038101906105179190612d95565b6110dd565b60405161052991906126fc565b60405180910390f35b61054c60048036038101906105479190612af8565b611171565b005b600061055982611269565b9050919050565b60606000805461056f90612e04565b80601f016020809104026020016040519081016040528092919081815260200182805461059b90612e04565b80156105e85780601f106105bd576101008083540402835291602001916105e8565b820191906000526020600020905b8154815290600101906020018083116105cb57829003601f168201915b5050505050905090565b60006105fd826112e3565b61063c576040517f08c379a000000000000000000000000000000000000000000000000000000000815260040161063390612ea8565b60405180910390fd5b6004600083815260200190815260200160002060009054906101000a900473ffffffffffffffffffffffffffffffffffffffff169050919050565b6000610682826109d3565b90508073ffffffffffffffffffffffffffffffffffffffff168373ffffffffffffffffffffffffffffffffffffffff1614156106f3576040517f08c379a00000000000000000000000000000000000000000000000000000000081526004016106ea90612f3a565b60405180910390fd5b8073ffffffffffffffffffffffffffffffffffffffff1661071261134f565b73ffffffffffffffffffffffffffffffffffffffff16148061074157506107408161073b61134f565b6110dd565b5b610780576040517f08c379a000000000000000000000000000000000000000000000000000000000815260040161077790612fcc565b60405180910390fd5b61078a8383611357565b505050565b606481565b6000600980549050905090565b6107b26107ac61134f565b82611410565b6107f1576040517f08c379a00000000000000000000000000000000000000000000000000000000081526004016107e89061305e565b60405180910390fd5b6107fc8383836114ee565b505050565b600061080c83610a85565b821061084d576040517f08c379a0000000000000000000000000000000000000000000000000000000008152600401610844906130f0565b60405180910390fd5b600760008473ffffffffffffffffffffffffffffffffffffffff1673ffffffffffffffffffffffffffffffffffffffff168152602001908152602001600020600083815260200190815260200160002054905092915050565b61c35081565b6108c783838360405180602001604052806000815250610eba565b505050565b60006108d6610794565b8210610917576040517f08c379a000000000000000000000000000000000000000000000000000000000815260040161090e90613182565b60405180910390fd5b6009828154811061092b5761092a6131a2565b5b90600052602060002001549050919050565b61094561134f565b73ffffffffffffffffffffffffffffffffffffffff16610963610c7d565b73ffffffffffffffffffffffffffffffffffffffff16146109b9576040517f08c379a00000000000000000000000000000000000000000000000000000000081526004016109b09061321d565b60405180910390fd5b80600c90805190602001906109cf9291906125a5565b5050565b6000806002600084815260200190815260200160002060009054906101000a900473ffffffffffffffffffffffffffffffffffffffff169050600073ffffffffffffffffffffffffffffffffffffffff168173ffffffffffffffffffffffffffffffffffffffff161415610a7c576040517f08c379a0000000000000000000000000000000000000000000000000000000008152600401610a73906132af565b60405180910390fd5b80915050919050565b60008073ffffffffffffffffffffffffffffffffffffffff168273ffffffffffffffffffffffffffffffffffffffff161415610af6576040517f08c379a0000000000000000000000000000000000000000000000000000000008152600401610aed90613341565b60405180910390fd5b600360008373ffffffffffffffffffffffffffffffffffffffff1673ffffffffffffffffffffffffffffffffffffffff168152602001908152602001600020549050919050565b610b4561134f565b73ffffffffffffffffffffffffffffffffffffffff16610b63610c7d565b73ffffffffffffffffffffffffffffffffffffffff1614610bb9576040517f08c379a0000000000000000000000000000000000000000000000000000000008152600401610bb09061321d565b60405180910390fd5b610bc3600061174a565b565b60606000610bd283610a85565b905060008167ffffffffffffffff811115610bf057610bef612984565b5b604051908082528060200260200182016040528015610c1e5781602001602082028036833780820191505090505b50905060005b82811015610c6857610c368582610801565b828281518110610c4957610c486131a2565b5b6020026020010181815250508080610c6090613390565b915050610c24565b508092505050919050565b655af3107a400081565b6000600660009054906101000a900473ffffffffffffffffffffffffffffffffffffffff16905090565b606060018054610cb690612e04565b80601f0160208091040260200160405190810160405280929190818152602001828054610ce290612e04565b8015610d2f5780601f10610d0457610100808354040283529160200191610d2f565b820191906000526020600020905b815481529060010190602001808311610d1257829003601f168201915b5050505050905090565b610d4161134f565b73ffffffffffffffffffffffffffffffffffffffff168273ffffffffffffffffffffffffffffffffffffffff161415610daf576040517f08c379a0000000000000000000000000000000000000000000000000000000008152600401610da690613425565b60405180910390fd5b8060056000610dbc61134f565b73ffffffffffffffffffffffffffffffffffffffff1673ffffffffffffffffffffffffffffffffffffffff16815260200190815260200160002060008473ffffffffffffffffffffffffffffffffffffffff1673ffffffffffffffffffffffffffffffffffffffff16815260200190815260200160002060006101000a81548160ff0219169083151502179055508173ffffffffffffffffffffffffffffffffffffffff16610e6961134f565b73ffffffffffffffffffffffffffffffffffffffff167f17307eab39ab6107e8899845ad3d59bd9653f200f220920489ca2b5937696c3183604051610eae91906126fc565b60405180910390a35050565b610ecb610ec561134f565b83611410565b610f0a576040517f08c379a0000000000000000000000000000000000000000000000000000000008152600401610f019061305e565b60405180910390fd5b610f1684848484611810565b50505050565b6060610f278261186c565b9050919050565b600d8054610f3b90612e04565b80601f0160208091040260200160405190810160405280929190818152602001828054610f6790612e04565b8015610fb45780601f10610f8957610100808354040283529160200191610fb4565b820191906000526020600020905b815481529060010190602001808311610f9757829003601f168201915b505050505081565b6000601182604051610fce9190613481565b908152602001604051809103902060009054906101000a900460ff1615610ff457600080fd5b610ffe600f6119df565b905061100a33826119ed565b33600e600083815260200190815260200160002060006101000a81548173ffffffffffffffffffffffffffffffffffffffff021916908373ffffffffffffffffffffffffffffffffffffffff160217905550816010600061106b600f6119df565b8152602001908152602001600020908051906020019061108c9291906125a5565b50600160118360405161109f9190613481565b908152602001604051809103902060006101000a81548160ff0219169083151502179055506110ce8183611bbb565b6110d8600f611c2f565b919050565b6000600560008473ffffffffffffffffffffffffffffffffffffffff1673ffffffffffffffffffffffffffffffffffffffff16815260200190815260200160002060008373ffffffffffffffffffffffffffffffffffffffff1673ffffffffffffffffffffffffffffffffffffffff16815260200190815260200160002060009054906101000a900460ff16905092915050565b61117961134f565b73ffffffffffffffffffffffffffffffffffffffff16611197610c7d565b73ffffffffffffffffffffffffffffffffffffffff16146111ed576040517f08c379a00000000000000000000000000000000000000000000000000000000081526004016111e49061321d565b60405180910390fd5b600073ffffffffffffffffffffffffffffffffffffffff168173ffffffffffffffffffffffffffffffffffffffff16141561125d576040517f08c379a00000000000000000000000000000000000000000000000000000000081526004016112549061350a565b60405180910390fd5b6112668161174a565b50565b60007f780e9d63000000000000000000000000000000000000000000000000000000007bffffffffffffffffffffffffffffffffffffffffffffffffffffffff1916827bffffffffffffffffffffffffffffffffffffffffffffffffffffffff191614806112dc57506112db82611c45565b5b9050919050565b60008073ffffffffffffffffffffffffffffffffffffffff166002600084815260200190815260200160002060009054906101000a900473ffffffffffffffffffffffffffffffffffffffff1673ffffffffffffffffffffffffffffffffffffffff1614159050919050565b600033905090565b816004600083815260200190815260200160002060006101000a81548173ffffffffffffffffffffffffffffffffffffffff021916908373ffffffffffffffffffffffffffffffffffffffff160217905550808273ffffffffffffffffffffffffffffffffffffffff166113ca836109d3565b73ffffffffffffffffffffffffffffffffffffffff167f8c5be1e5ebec7d5bd14f71427d1e84f3dd0314c0f7b2291e5b200ac8c7c3b92560405160405180910390a45050565b600061141b826112e3565b61145a576040517f08c379a00000000000000000000000000000000000000000000000000000000081526004016114519061359c565b60405180910390fd5b6000611465836109d3565b90508073ffffffffffffffffffffffffffffffffffffffff168473ffffffffffffffffffffffffffffffffffffffff1614806114d457508373ffffffffffffffffffffffffffffffffffffffff166114bc846105f2565b73ffffffffffffffffffffffffffffffffffffffff16145b806114e557506114e481856110dd565b5b91505092915050565b8273ffffffffffffffffffffffffffffffffffffffff1661150e826109d3565b73ffffffffffffffffffffffffffffffffffffffff1614611564576040517f08c379a000000000000000000000000000000000000000000000000000000000815260040161155b9061362e565b60405180910390fd5b600073ffffffffffffffffffffffffffffffffffffffff168273ffffffffffffffffffffffffffffffffffffffff1614156115d4576040517f08c379a00000000000000000000000000000000000000000000000000000000081526004016115cb906136c0565b60405180910390fd5b6115df838383611d27565b6115ea600082611357565b6001600360008573ffffffffffffffffffffffffffffffffffffffff1673ffffffffffffffffffffffffffffffffffffffff168152602001908152602001600020600082825461163a91906136e0565b925050819055506001600360008473ffffffffffffffffffffffffffffffffffffffff1673ffffffffffffffffffffffffffffffffffffffff16815260200190815260200160002060008282546116919190613714565b92505081905550816002600083815260200190815260200160002060006101000a81548173ffffffffffffffffffffffffffffffffffffffff021916908373ffffffffffffffffffffffffffffffffffffffff160217905550808273ffffffffffffffffffffffffffffffffffffffff168473ffffffffffffffffffffffffffffffffffffffff167fddf252ad1be2c89b69c2b068fc378daa952ba7f163c4a11628f55a4df523b3ef60405160405180910390a4505050565b6000600660009054906101000a900473ffffffffffffffffffffffffffffffffffffffff16905081600660006101000a81548173ffffffffffffffffffffffffffffffffffffffff021916908373ffffffffffffffffffffffffffffffffffffffff1602179055508173ffffffffffffffffffffffffffffffffffffffff168173ffffffffffffffffffffffffffffffffffffffff167f8be0079c531659141344cd1fd0a4f28419497f9722a3daafe3b4186f6b6457e060405160405180910390a35050565b61181b8484846114ee565b61182784848484611d37565b611866576040517f08c379a000000000000000000000000000000000000000000000000000000000815260040161185d906137dc565b60405180910390fd5b50505050565b6060611877826112e3565b6118b6576040517f08c379a00000000000000000000000000000000000000000000000000000000081526004016118ad9061386e565b60405180910390fd5b6000600b600084815260200190815260200160002080546118d690612e04565b80601f016020809104026020016040519081016040528092919081815260200182805461190290612e04565b801561194f5780601f106119245761010080835404028352916020019161194f565b820191906000526020600020905b81548152906001019060200180831161193257829003601f168201915b505050505090506000611960611ef7565b90506000815114156119765781925050506119da565b6000825111156119ab57808260405160200161199392919061388e565b604051602081830303815290604052925050506119da565b806119b585611f89565b6040516020016119c692919061388e565b604051602081830303815290604052925050505b919050565b600081600001549050919050565b600073ffffffffffffffffffffffffffffffffffffffff168273ffffffffffffffffffffffffffffffffffffffff161415611a5d576040517f08c379a0000000000000000000000000000000000000000000000000000000008152600401611a54906138fe565b60405180910390fd5b611a66816112e3565b15611aa6576040517f08c379a0000000000000000000000000000000000000000000000000000000008152600401611a9d9061396a565b60405180910390fd5b611ab260008383611d27565b6001600360008473ffffffffffffffffffffffffffffffffffffffff1673ffffffffffffffffffffffffffffffffffffffff1681526020019081526020016000206000828254611b029190613714565b92505081905550816002600083815260200190815260200160002060006101000a81548173ffffffffffffffffffffffffffffffffffffffff021916908373ffffffffffffffffffffffffffffffffffffffff160217905550808273ffffffffffffffffffffffffffffffffffffffff16600073ffffffffffffffffffffffffffffffffffffffff167fddf252ad1be2c89b69c2b068fc378daa952ba7f163c4a11628f55a4df523b3ef60405160405180910390a45050565b611bc4826112e3565b611c03576040517f08c379a0000000000000000000000000000000000000000000000000000000008152600401611bfa906139fc565b60405180910390fd5b80600b60008481526020019081526020016000209080519060200190611c2a9291906125a5565b505050565b6001816000016000828254019250508190555050565b60007f80ac58cd000000000000000000000000000000000000000000000000000000007bffffffffffffffffffffffffffffffffffffffffffffffffffffffff1916827bffffffffffffffffffffffffffffffffffffffffffffffffffffffff19161480611d1057507f5b5e139f000000000000000000000000000000000000000000000000000000007bffffffffffffffffffffffffffffffffffffffffffffffffffffffff1916827bffffffffffffffffffffffffffffffffffffffffffffffffffffffff1916145b80611d205750611d1f82612109565b5b9050919050565b611d32838383612173565b505050565b6000611d588473ffffffffffffffffffffffffffffffffffffffff16612287565b15611eea578373ffffffffffffffffffffffffffffffffffffffff1663150b7a02611d8161134f565b8786866040518563ffffffff167c0100000000000000000000000000000000000000000000000000000000028152600401611dbf9493929190613a71565b6020604051808303816000875af1925050508015611dfb57506040513d601f19601f82011682018060405250810190611df89190613ad2565b60015b611e7e573d8060008114611e2b576040519150601f19603f3d011682016040523d82523d6000602084013e611e30565b606091505b50600081511415611e76576040517f08c379a0000000000000000000000000000000000000000000000000000000008152600401611e6d906137dc565b60405180910390fd5b805181602001fd5b63150b7a027c0100000000000000000000000000000000000000000000000000000000027bffffffffffffffffffffffffffffffffffffffffffffffffffffffff1916817bffffffffffffffffffffffffffffffffffffffffffffffffffffffff191614915050611eef565b600190505b949350505050565b6060600d8054611f0690612e04565b80601f0160208091040260200160405190810160405280929190818152602001828054611f3290612e04565b8015611f7f5780601f10611f5457610100808354040283529160200191611f7f565b820191906000526020600020905b815481529060010190602001808311611f6257829003601f168201915b5050505050905090565b60606000821415611fd1576040518060400160405280600181526020017f30000000000000000000000000000000000000000000000000000000000000008152509050612104565b600082905060005b60008214612003578080611fec90613390565b915050600a82611ffc9190613b2e565b9150611fd9565b60008167ffffffffffffffff81111561201f5761201e612984565b5b6040519080825280601f01601f1916602001820160405280156120515781602001600182028036833780820191505090505b5090505b600085146120fd5760018261206a91906136e0565b9150600a856120799190613b5f565b60306120859190613714565b7f0100000000000000000000000000000000000000000000000000000000000000028183815181106120ba576120b96131a2565b5b60200101907effffffffffffffffffffffffffffffffffffffffffffffffffffffffffffff1916908160001a905350600a856120f69190613b2e565b9450612055565b8093505050505b919050565b60007f01ffc9a7000000000000000000000000000000000000000000000000000000007bffffffffffffffffffffffffffffffffffffffffffffffffffffffff1916827bffffffffffffffffffffffffffffffffffffffffffffffffffffffff1916149050919050565b61217e83838361229a565b600073ffffffffffffffffffffffffffffffffffffffff168373ffffffffffffffffffffffffffffffffffffffff1614156121c1576121bc8161229f565b612200565b8173ffffffffffffffffffffffffffffffffffffffff168373ffffffffffffffffffffffffffffffffffffffff16146121ff576121fe83826122e8565b5b5b600073ffffffffffffffffffffffffffffffffffffffff168273ffffffffffffffffffffffffffffffffffffffff1614156122435761223e81612455565b612282565b8273ffffffffffffffffffffffffffffffffffffffff168273ffffffffffffffffffffffffffffffffffffffff1614612281576122808282612526565b5b5b505050565b600080823b905060008111915050919050565b505050565b600980549050600a600083815260200190815260200160002081905550600981908060018154018082558091505060019003906000526020600020016000909190919091505550565b600060016122f584610a85565b6122ff91906136e0565b90506000600860008481526020019081526020016000205490508181146123e4576000600760008673ffffffffffffffffffffffffffffffffffffffff1673ffffffffffffffffffffffffffffffffffffffff168152602001908152602001600020600084815260200190815260200160002054905080600760008773ffffffffffffffffffffffffffffffffffffffff1673ffffffffffffffffffffffffffffffffffffffff168152602001908152602001600020600084815260200190815260200160002081905550816008600083815260200190815260200160002081905550505b6008600084815260200190815260200160002060009055600760008573ffffffffffffffffffffffffffffffffffffffff1673ffffffffffffffffffffffffffffffffffffffff16815260200190815260200160002060008381526020019081526020016000206000905550505050565b6000600160098054905061246991906136e0565b90506000600a6000848152602001908152602001600020549050600060098381548110612499576124986131a2565b5b9060005260206000200154905080600983815481106124bb576124ba6131a2565b5b906000526020600020018190555081600a600083815260200190815260200160002081905550600a600085815260200190815260200160002060009055600980548061250a57612509613b90565b5b6001900381819060005260206000200160009055905550505050565b600061253183610a85565b905081600760008573ffffffffffffffffffffffffffffffffffffffff1673ffffffffffffffffffffffffffffffffffffffff168152602001908152602001600020600083815260200190815260200160002081905550806008600084815260200190815260200160002081905550505050565b8280546125b190612e04565b90600052602060002090601f0160209004810192826125d3576000855561261a565b82601f106125ec57805160ff191683800117855561261a565b8280016001018555821561261a579182015b828111156126195782518255916020019190600101906125fe565b5b509050612627919061262b565b5090565b5b8082111561264457600081600090555060010161262c565b5090565b6000604051905090565b600080fd5b600080fd5b60007fffffffff0000000000000000000000000000000000000000000000000000000082169050919050565b6126918161265c565b811461269c57600080fd5b50565b6000813590506126ae81612688565b92915050565b6000602082840312156126ca576126c9612652565b5b60006126d88482850161269f565b91505092915050565b60008115159050919050565b6126f6816126e1565b82525050565b600060208201905061271160008301846126ed565b92915050565b600081519050919050565b600082825260208201905092915050565b60005b83811015612751578082015181840152602081019050612736565b83811115612760576000848401525b50505050565b6000601f19601f8301169050919050565b600061278282612717565b61278c8185612722565b935061279c818560208601612733565b6127a581612766565b840191505092915050565b600060208201905081810360008301526127ca8184612777565b905092915050565b6000819050919050565b6127e5816127d2565b81146127f057600080fd5b50565b600081359050612802816127dc565b92915050565b60006020828403121561281e5761281d612652565b5b600061282c848285016127f3565b91505092915050565b600073ffffffffffffffffffffffffffffffffffffffff82169050919050565b600061286082612835565b9050919050565b61287081612855565b82525050565b600060208201905061288b6000830184612867565b92915050565b61289a81612855565b81146128a557600080fd5b50565b6000813590506128b781612891565b92915050565b600080604083850312156128d4576128d3612652565b5b60006128e2858286016128a8565b92505060206128f3858286016127f3565b9150509250929050565b612906816127d2565b82525050565b600060208201905061292160008301846128fd565b92915050565b6000806000606084860312156129405761293f612652565b5b600061294e868287016128a8565b935050602061295f868287016128a8565b9250506040612970868287016127f3565b9150509250925092565b600080fd5b600080fd5b7f4e487b7100000000000000000000000000000000000000000000000000000000600052604160045260246000fd5b6129bc82612766565b810181811067ffffffffffffffff821117156129db576129da612984565b5b80604052505050565b60006129ee612648565b90506129fa82826129b3565b919050565b600067ffffffffffffffff821115612a1a57612a19612984565b5b612a2382612766565b9050602081019050919050565b82818337600083830152505050565b6000612a52612a4d846129ff565b6129e4565b905082815260208101848484011115612a6e57612a6d61297f565b5b612a79848285612a30565b509392505050565b600082601f830112612a9657612a9561297a565b5b8135612aa6848260208601612a3f565b91505092915050565b600060208284031215612ac557612ac4612652565b5b600082013567ffffffffffffffff811115612ae357612ae2612657565b5b612aef84828501612a81565b91505092915050565b600060208284031215612b0e57612b0d612652565b5b6000612b1c848285016128a8565b91505092915050565b600081519050919050565b600082825260208201905092915050565b6000819050602082019050919050565b612b5a816127d2565b82525050565b6000612b6c8383612b51565b60208301905092915050565b6000602082019050919050565b6000612b9082612b25565b612b9a8185612b30565b9350612ba583612b41565b8060005b83811015612bd6578151612bbd8882612b60565b9750612bc883612b78565b925050600181019050612ba9565b5085935050505092915050565b60006020820190508181036000830152612bfd8184612b85565b905092915050565b612c0e816126e1565b8114612c1957600080fd5b50565b600081359050612c2b81612c05565b92915050565b60008060408385031215612c4857612c47612652565b5b6000612c56858286016128a8565b9250506020612c6785828601612c1c565b9150509250929050565b600067ffffffffffffffff821115612c8c57612c8b612984565b5b612c9582612766565b9050602081019050919050565b6000612cb5612cb084612c71565b6129e4565b905082815260208101848484011115612cd157612cd061297f565b5b612cdc848285612a30565b509392505050565b600082601f830112612cf957612cf861297a565b5b8135612d09848260208601612ca2565b91505092915050565b60008060008060808587031215612d2c57612d2b612652565b5b6000612d3a878288016128a8565b9450506020612d4b878288016128a8565b9350506040612d5c878288016127f3565b925050606085013567ffffffffffffffff811115612d7d57612d7c612657565b5b612d8987828801612ce4565b91505092959194509250565b60008060408385031215612dac57612dab612652565b5b6000612dba858286016128a8565b9250506020612dcb858286016128a8565b9150509250929050565b7f4e487b7100000000000000000000000000000000000000000000000000000000600052602260045260246000fd5b60006002820490506001821680612e1c57607f821691505b60208210811415612e3057612e2f612dd5565b5b50919050565b7f4552433732313a20617070726f76656420717565727920666f72206e6f6e657860008201527f697374656e7420746f6b656e0000000000000000000000000000000000000000602082015250565b6000612e92602c83612722565b9150612e9d82612e36565b604082019050919050565b60006020820190508181036000830152612ec181612e85565b9050919050565b7f4552433732313a20617070726f76616c20746f2063757272656e74206f776e6560008201527f7200000000000000000000000000000000000000000000000000000000000000602082015250565b6000612f24602183612722565b9150612f2f82612ec8565b604082019050919050565b60006020820190508181036000830152612f5381612f17565b9050919050565b7f4552433732313a20617070726f76652063616c6c6572206973206e6f74206f7760008201527f6e6572206e6f7220617070726f76656420666f7220616c6c0000000000000000602082015250565b6000612fb6603883612722565b9150612fc182612f5a565b604082019050919050565b60006020820190508181036000830152612fe581612fa9565b9050919050565b7f4552433732313a207472616e736665722063616c6c6572206973206e6f74206f60008201527f776e6572206e6f7220617070726f766564000000000000000000000000000000602082015250565b6000613048603183612722565b915061305382612fec565b604082019050919050565b600060208201905081810360008301526130778161303b565b9050919050565b7f455243373231456e756d657261626c653a206f776e657220696e646578206f7560008201527f74206f6620626f756e6473000000000000000000000000000000000000000000602082015250565b60006130da602b83612722565b91506130e58261307e565b604082019050919050565b60006020820190508181036000830152613109816130cd565b9050919050565b7f455243373231456e756d657261626c653a20676c6f62616c20696e646578206f60008201527f7574206f6620626f756e64730000000000000000000000000000000000000000602082015250565b600061316c602c83612722565b915061317782613110565b604082019050919050565b6000602082019050818103600083015261319b8161315f565b9050919050565b7f4e487b7100000000000000000000000000000000000000000000000000000000600052603260045260246000fd5b7f4f776e61626c653a2063616c6c6572206973206e6f7420746865206f776e6572600082015250565b6000613207602083612722565b9150613212826131d1565b602082019050919050565b60006020820190508181036000830152613236816131fa565b9050919050565b7f4552433732313a206f776e657220717565727920666f72206e6f6e657869737460008201527f656e7420746f6b656e0000000000000000000000000000000000000000000000602082015250565b6000613299602983612722565b91506132a48261323d565b604082019050919050565b600060208201905081810360008301526132c88161328c565b9050919050565b7f4552433732313a2062616c616e636520717565727920666f7220746865207a6560008201527f726f206164647265737300000000000000000000000000000000000000000000602082015250565b600061332b602a83612722565b9150613336826132cf565b604082019050919050565b6000602082019050818103600083015261335a8161331e565b9050919050565b7f4e487b7100000000000000000000000000000000000000000000000000000000600052601160045260246000fd5b600061339b826127d2565b91507fffffffffffffffffffffffffffffffffffffffffffffffffffffffffffffffff8214156133ce576133cd613361565b5b600182019050919050565b7f4552433732313a20617070726f766520746f2063616c6c657200000000000000600082015250565b600061340f601983612722565b915061341a826133d9565b602082019050919050565b6000602082019050818103600083015261343e81613402565b9050919050565b600081905092915050565b600061345b82612717565b6134658185613445565b9350613475818560208601612733565b80840191505092915050565b600061348d8284613450565b915081905092915050565b7f4f776e61626c653a206e6577206f776e657220697320746865207a65726f206160008201527f6464726573730000000000000000000000000000000000000000000000000000602082015250565b60006134f4602683612722565b91506134ff82613498565b604082019050919050565b60006020820190508181036000830152613523816134e7565b9050919050565b7f4552433732313a206f70657261746f7220717565727920666f72206e6f6e657860008201527f697374656e7420746f6b656e0000000000000000000000000000000000000000602082015250565b6000613586602c83612722565b91506135918261352a565b604082019050919050565b600060208201905081810360008301526135b581613579565b9050919050565b7f4552433732313a207472616e73666572206f6620746f6b656e2074686174206960008201527f73206e6f74206f776e0000000000000000000000000000000000000000000000602082015250565b6000613618602983612722565b9150613623826135bc565b604082019050919050565b600060208201905081810360008301526136478161360b565b9050919050565b7f4552433732313a207472616e7366657220746f20746865207a65726f2061646460008201527f7265737300000000000000000000000000000000000000000000000000000000602082015250565b60006136aa602483612722565b91506136b58261364e565b604082019050919050565b600060208201905081810360008301526136d98161369d565b9050919050565b60006136eb826127d2565b91506136f6836127d2565b92508282101561370957613708613361565b5b828203905092915050565b600061371f826127d2565b915061372a836127d2565b9250827fffffffffffffffffffffffffffffffffffffffffffffffffffffffffffffffff0382111561375f5761375e613361565b5b828201905092915050565b7f4552433732313a207472616e7366657220746f206e6f6e20455243373231526560008201527f63656976657220696d706c656d656e7465720000000000000000000000000000602082015250565b60006137c6603283612722565b91506137d18261376a565b604082019050919050565b600060208201905081810360008301526137f5816137b9565b9050919050565b7f4552433732314d657461646174613a2055524920717565727920666f72206e6f60008201527f6e6578697374656e7420746f6b656e0000000000000000000000000000000000602082015250565b6000613858602f83612722565b9150613863826137fc565b604082019050919050565b600060208201905081810360008301526138878161384b565b9050919050565b600061389a8285613450565b91506138a68284613450565b91508190509392505050565b7f4552433732313a206d696e7420746f20746865207a65726f2061646472657373600082015250565b60006138e8602083612722565b91506138f3826138b2565b602082019050919050565b60006020820190508181036000830152613917816138db565b9050919050565b7f4552433732313a20746f6b656e20616c7265616479206d696e74656400000000600082015250565b6000613954601c83612722565b915061395f8261391e565b602082019050919050565b6000602082019050818103600083015261398381613947565b9050919050565b7f4552433732314d657461646174613a2055524920736574206f66206e6f6e657860008201527f697374656e7420746f6b656e0000000000000000000000000000000000000000602082015250565b60006139e6602c83612722565b91506139f18261398a565b604082019050919050565b60006020820190508181036000830152613a15816139d9565b9050919050565b600081519050919050565b600082825260208201905092915050565b6000613a4382613a1c565b613a4d8185613a27565b9350613a5d818560208601612733565b613a6681612766565b840191505092915050565b6000608082019050613a866000830187612867565b613a936020830186612867565b613aa060408301856128fd565b8181036060830152613ab28184613a38565b905095945050505050565b600081519050613acc81612688565b92915050565b600060208284031215613ae857613ae7612652565b5b6000613af684828501613abd565b91505092915050565b7f4e487b7100000000000000000000000000000000000000000000000000000000600052601260045260246000fd5b6000613b39826127d2565b9150613b44836127d2565b925082613b5457613b53613aff565b5b828204905092915050565b6000613b6a826127d2565b9150613b75836127d2565b925082613b8557613b84613aff565b5b828206905092915050565b7f4e487b7100000000000000000000000000000000000000000000000000000000600052603160045260246000fdfea26469706673582212201c4f881f9ec714ce313bd847314ee4ffbcc876a5a3470b2d4a10d1bba688d3fd64736f6c634300080a0033",
  "immutableReferences": {},
  "source": "// SPDX-License-Identifier: MIT\npragma solidity >=0.4.22 <0.9.0;\n\nimport \"@openzeppelin/contracts/token/ERC721/ERC721.sol\";\nimport \"@openzeppelin/contracts/access/Ownable.sol\";\nimport \"@openzeppelin/contracts/utils/math/SafeMath.sol\";\nimport \"@openzeppelin/contracts/utils/Counters.sol\";\nimport \"@openzeppelin/contracts/token/ERC721/extensions/ERC721Enumerable.sol\";\nimport \"./SetTokenUri.sol\";\n\ncontract Nft is ERC721, Ownable, ERC721Enumerable, SetTokenUri('Nft', 'NFT') {\n\n    using SafeMath for uint256;\n    using Counters for Counters.Counter;\n\n    uint256 public constant MAX_SUPPLY = 50000;\n    uint256 public constant PRICE = 0.0001 ether;\n    uint256 public constant MAX_PER_MINT = 100;\n    string public baseTokenURI = \"https://ipfs.io/ipfs/\";\n\n    mapping(uint256 => address) tokensToOwner;\n\n    Counters.Counter private _tokenIds;\n    mapping(uint256 => string) tokensList;\n    mapping(string => bool) _tokenExists;\n\n    function mint(string memory cid) public returns (uint256 _id) {\n        require(!_tokenExists[cid]);\n\n        _id = _tokenIds.current();\n        _mint(msg.sender, _id);\n        tokensToOwner[_id] = msg.sender;\n        tokensList[_tokenIds.current()] = cid;\n        _tokenExists[cid] = true;\n        _setTokenURI(_id, cid);\n        _tokenIds.increment();\n\n        return _id;\n    }\n\n    function tokensOfOwner(address _owner)\n        public\n        view\n        returns (uint256[] memory)\n    {\n        uint256 tokenCount = balanceOf(_owner);\n        uint256[] memory tokensId = new uint256[](tokenCount);\n        // string[] memory  userTokens = new string[](tokenCount);\n\n        for (uint256 i = 0; i < tokenCount; i++) {\n            tokensId[i] = tokenOfOwnerByIndex(_owner, i);\n            // if(tokensId[i]  == i){\n            //    userTokens[i] = tokensList[i];\n            // }\n        }\n        return tokensId;\n    }\n\n    function _baseURI()\n        internal\n        view\n        virtual\n        override(ERC721, SetTokenUri)\n        returns (string memory)\n    {\n        return baseTokenURI;\n    }\n\n    function tokenURI(uint256 tokenId)\n        public\n        view\n        virtual\n        override(ERC721, SetTokenUri)\n        returns (string memory)\n    {\n        return super.tokenURI(tokenId);\n    }\n\n    // The following functions are overrides for ERC721Enumerable required by Solidity.\n    function _beforeTokenTransfer(\n        address from,\n        address to,\n        uint256 tokenId\n    ) internal override(ERC721, ERC721Enumerable) {\n        super._beforeTokenTransfer(from, to, tokenId);\n    }\n\n    function supportsInterface(bytes4 interfaceId)\n        public\n        view\n        override(ERC721, ERC721Enumerable)\n        returns (bool)\n    {\n        return super.supportsInterface(interfaceId);\n    }\n}\n",
  "sourcePath": "/Users/lenahierzi/Developer/consensys/blockchain-developer-bootcamp-final-project/contracts/Nft.sol",
  "compiler": {
    "name": "solc",
    "version": "0.8.10+commit.fc410830.Emscripten.clang"
  },
  "schemaVersion": "3.4.3",
  "updatedAt": "2021-11-27T08:47:20.673Z",
  "devdoc": {
    "kind": "dev",
    "methods": {
      "approve(address,uint256)": {
        "details": "See {IERC721-approve}."
      },
      "balanceOf(address)": {
        "details": "See {IERC721-balanceOf}."
      },
      "getApproved(uint256)": {
        "details": "See {IERC721-getApproved}."
      },
      "isApprovedForAll(address,address)": {
        "details": "See {IERC721-isApprovedForAll}."
      },
      "name()": {
        "details": "See {IERC721Metadata-name}."
      },
      "owner()": {
        "details": "Returns the address of the current owner."
      },
      "ownerOf(uint256)": {
        "details": "See {IERC721-ownerOf}."
      },
      "renounceOwnership()": {
        "details": "Leaves the contract without owner. It will not be possible to call `onlyOwner` functions anymore. Can only be called by the current owner. NOTE: Renouncing ownership will leave the contract without an owner, thereby removing any functionality that is only available to the owner."
      },
      "safeTransferFrom(address,address,uint256)": {
        "details": "See {IERC721-safeTransferFrom}."
      },
      "safeTransferFrom(address,address,uint256,bytes)": {
        "details": "See {IERC721-safeTransferFrom}."
      },
      "setApprovalForAll(address,bool)": {
        "details": "See {IERC721-setApprovalForAll}."
      },
      "symbol()": {
        "details": "See {IERC721Metadata-symbol}."
      },
      "tokenByIndex(uint256)": {
        "details": "See {IERC721Enumerable-tokenByIndex}."
      },
      "tokenOfOwnerByIndex(address,uint256)": {
        "details": "See {IERC721Enumerable-tokenOfOwnerByIndex}."
      },
      "totalSupply()": {
        "details": "See {IERC721Enumerable-totalSupply}."
      },
      "transferFrom(address,address,uint256)": {
        "details": "See {IERC721-transferFrom}."
      },
      "transferOwnership(address)": {
        "details": "Transfers ownership of the contract to a new account (`newOwner`). Can only be called by the current owner."
      }
    },
    "version": 1
  },
  "userdoc": {
    "kind": "user",
    "methods": {},
    "version": 1
  }
}