{
  "contractName": "NftV2",
  "abi": [
    {
      "anonymous": false,
      "inputs": [
        {
          "indexed": true,
          "internalType": "address",
          "name": "owner",
          "type": "address"
        },
        {
          "indexed": true,
          "internalType": "address",
          "name": "approved",
          "type": "address"
        },
        {
          "indexed": true,
          "internalType": "uint256",
          "name": "tokenId",
          "type": "uint256"
        }
      ],
      "name": "Approval",
      "type": "event"
    },
    {
      "anonymous": false,
      "inputs": [
        {
          "indexed": true,
          "internalType": "address",
          "name": "owner",
          "type": "address"
        },
        {
          "indexed": true,
          "internalType": "address",
          "name": "operator",
          "type": "address"
        },
        {
          "indexed": false,
          "internalType": "bool",
          "name": "approved",
          "type": "bool"
        }
      ],
      "name": "ApprovalForAll",
      "type": "event"
    },
    {
      "anonymous": false,
      "inputs": [
        {
          "indexed": true,
          "internalType": "address",
          "name": "previousOwner",
          "type": "address"
        },
        {
          "indexed": true,
          "internalType": "address",
          "name": "newOwner",
          "type": "address"
        }
      ],
      "name": "OwnershipTransferred",
      "type": "event"
    },
    {
      "anonymous": false,
      "inputs": [
        {
          "indexed": true,
          "internalType": "bytes32",
          "name": "role",
          "type": "bytes32"
        },
        {
          "indexed": true,
          "internalType": "bytes32",
          "name": "previousAdminRole",
          "type": "bytes32"
        },
        {
          "indexed": true,
          "internalType": "bytes32",
          "name": "newAdminRole",
          "type": "bytes32"
        }
      ],
      "name": "RoleAdminChanged",
      "type": "event"
    },
    {
      "anonymous": false,
      "inputs": [
        {
          "indexed": true,
          "internalType": "bytes32",
          "name": "role",
          "type": "bytes32"
        },
        {
          "indexed": true,
          "internalType": "address",
          "name": "account",
          "type": "address"
        },
        {
          "indexed": true,
          "internalType": "address",
          "name": "sender",
          "type": "address"
        }
      ],
      "name": "RoleGranted",
      "type": "event"
    },
    {
      "anonymous": false,
      "inputs": [
        {
          "indexed": true,
          "internalType": "bytes32",
          "name": "role",
          "type": "bytes32"
        },
        {
          "indexed": true,
          "internalType": "address",
          "name": "account",
          "type": "address"
        },
        {
          "indexed": true,
          "internalType": "address",
          "name": "sender",
          "type": "address"
        }
      ],
      "name": "RoleRevoked",
      "type": "event"
    },
    {
      "anonymous": false,
      "inputs": [
        {
          "indexed": true,
          "internalType": "address",
          "name": "from",
          "type": "address"
        },
        {
          "indexed": true,
          "internalType": "address",
          "name": "to",
          "type": "address"
        },
        {
          "indexed": true,
          "internalType": "uint256",
          "name": "tokenId",
          "type": "uint256"
        }
      ],
      "name": "Transfer",
      "type": "event"
    },
    {
      "inputs": [],
      "name": "DEFAULT_ADMIN_ROLE",
      "outputs": [
        {
          "internalType": "bytes32",
          "name": "",
          "type": "bytes32"
        }
      ],
      "stateMutability": "view",
      "type": "function"
    },
    {
      "inputs": [],
      "name": "MAX_PER_MINT",
      "outputs": [
        {
          "internalType": "uint256",
          "name": "",
          "type": "uint256"
        }
      ],
      "stateMutability": "view",
      "type": "function"
    },
    {
      "inputs": [],
      "name": "MAX_SUPPLY",
      "outputs": [
        {
          "internalType": "uint256",
          "name": "",
          "type": "uint256"
        }
      ],
      "stateMutability": "view",
      "type": "function"
    },
    {
      "inputs": [],
      "name": "MINTER_ROLE",
      "outputs": [
        {
          "internalType": "bytes32",
          "name": "",
          "type": "bytes32"
        }
      ],
      "stateMutability": "view",
      "type": "function"
    },
    {
      "inputs": [],
      "name": "PRICE",
      "outputs": [
        {
          "internalType": "uint256",
          "name": "",
          "type": "uint256"
        }
      ],
      "stateMutability": "view",
      "type": "function"
    },
    {
      "inputs": [
        {
          "internalType": "address",
          "name": "to",
          "type": "address"
        },
        {
          "internalType": "uint256",
          "name": "tokenId",
          "type": "uint256"
        }
      ],
      "name": "approve",
      "outputs": [],
      "stateMutability": "nonpayable",
      "type": "function"
    },
    {
      "inputs": [
        {
          "internalType": "address",
          "name": "owner",
          "type": "address"
        }
      ],
      "name": "balanceOf",
      "outputs": [
        {
          "internalType": "uint256",
          "name": "",
          "type": "uint256"
        }
      ],
      "stateMutability": "view",
      "type": "function"
    },
    {
      "inputs": [],
      "name": "baseTokenURI",
      "outputs": [
        {
          "internalType": "string",
          "name": "",
          "type": "string"
        }
      ],
      "stateMutability": "view",
      "type": "function"
    },
    {
      "inputs": [
        {
          "internalType": "uint256",
          "name": "tokenId",
          "type": "uint256"
        }
      ],
      "name": "getApproved",
      "outputs": [
        {
          "internalType": "address",
          "name": "",
          "type": "address"
        }
      ],
      "stateMutability": "view",
      "type": "function"
    },
    {
      "inputs": [
        {
          "internalType": "bytes32",
          "name": "role",
          "type": "bytes32"
        }
      ],
      "name": "getRoleAdmin",
      "outputs": [
        {
          "internalType": "bytes32",
          "name": "",
          "type": "bytes32"
        }
      ],
      "stateMutability": "view",
      "type": "function"
    },
    {
      "inputs": [
        {
          "internalType": "bytes32",
          "name": "role",
          "type": "bytes32"
        },
        {
          "internalType": "address",
          "name": "account",
          "type": "address"
        }
      ],
      "name": "grantRole",
      "outputs": [],
      "stateMutability": "nonpayable",
      "type": "function"
    },
    {
      "inputs": [
        {
          "internalType": "bytes32",
          "name": "role",
          "type": "bytes32"
        },
        {
          "internalType": "address",
          "name": "account",
          "type": "address"
        }
      ],
      "name": "hasRole",
      "outputs": [
        {
          "internalType": "bool",
          "name": "",
          "type": "bool"
        }
      ],
      "stateMutability": "view",
      "type": "function"
    },
    {
      "inputs": [
        {
          "internalType": "address",
          "name": "owner",
          "type": "address"
        },
        {
          "internalType": "address",
          "name": "operator",
          "type": "address"
        }
      ],
      "name": "isApprovedForAll",
      "outputs": [
        {
          "internalType": "bool",
          "name": "",
          "type": "bool"
        }
      ],
      "stateMutability": "view",
      "type": "function"
    },
    {
      "inputs": [],
      "name": "name",
      "outputs": [
        {
          "internalType": "string",
          "name": "",
          "type": "string"
        }
      ],
      "stateMutability": "view",
      "type": "function"
    },
    {
      "inputs": [],
      "name": "owner",
      "outputs": [
        {
          "internalType": "address",
          "name": "",
          "type": "address"
        }
      ],
      "stateMutability": "view",
      "type": "function"
    },
    {
      "inputs": [
        {
          "internalType": "uint256",
          "name": "tokenId",
          "type": "uint256"
        }
      ],
      "name": "ownerOf",
      "outputs": [
        {
          "internalType": "address",
          "name": "",
          "type": "address"
        }
      ],
      "stateMutability": "view",
      "type": "function"
    },
    {
      "inputs": [],
      "name": "renounceOwnership",
      "outputs": [],
      "stateMutability": "nonpayable",
      "type": "function"
    },
    {
      "inputs": [
        {
          "internalType": "bytes32",
          "name": "role",
          "type": "bytes32"
        },
        {
          "internalType": "address",
          "name": "account",
          "type": "address"
        }
      ],
      "name": "renounceRole",
      "outputs": [],
      "stateMutability": "nonpayable",
      "type": "function"
    },
    {
      "inputs": [
        {
          "internalType": "bytes32",
          "name": "role",
          "type": "bytes32"
        },
        {
          "internalType": "address",
          "name": "account",
          "type": "address"
        }
      ],
      "name": "revokeRole",
      "outputs": [],
      "stateMutability": "nonpayable",
      "type": "function"
    },
    {
      "inputs": [
        {
          "internalType": "address",
          "name": "from",
          "type": "address"
        },
        {
          "internalType": "address",
          "name": "to",
          "type": "address"
        },
        {
          "internalType": "uint256",
          "name": "tokenId",
          "type": "uint256"
        }
      ],
      "name": "safeTransferFrom",
      "outputs": [],
      "stateMutability": "nonpayable",
      "type": "function"
    },
    {
      "inputs": [
        {
          "internalType": "address",
          "name": "from",
          "type": "address"
        },
        {
          "internalType": "address",
          "name": "to",
          "type": "address"
        },
        {
          "internalType": "uint256",
          "name": "tokenId",
          "type": "uint256"
        },
        {
          "internalType": "bytes",
          "name": "_data",
          "type": "bytes"
        }
      ],
      "name": "safeTransferFrom",
      "outputs": [],
      "stateMutability": "nonpayable",
      "type": "function"
    },
    {
      "inputs": [
        {
          "internalType": "address",
          "name": "operator",
          "type": "address"
        },
        {
          "internalType": "bool",
          "name": "approved",
          "type": "bool"
        }
      ],
      "name": "setApprovalForAll",
      "outputs": [],
      "stateMutability": "nonpayable",
      "type": "function"
    },
    {
      "inputs": [
        {
          "internalType": "string",
          "name": "baseURI_",
          "type": "string"
        }
      ],
      "name": "setBaseURI",
      "outputs": [],
      "stateMutability": "nonpayable",
      "type": "function"
    },
    {
      "inputs": [],
      "name": "symbol",
      "outputs": [
        {
          "internalType": "string",
          "name": "",
          "type": "string"
        }
      ],
      "stateMutability": "view",
      "type": "function"
    },
    {
      "inputs": [
        {
          "internalType": "uint256",
          "name": "index",
          "type": "uint256"
        }
      ],
      "name": "tokenByIndex",
      "outputs": [
        {
          "internalType": "uint256",
          "name": "",
          "type": "uint256"
        }
      ],
      "stateMutability": "view",
      "type": "function"
    },
    {
      "inputs": [
        {
          "internalType": "address",
          "name": "owner",
          "type": "address"
        },
        {
          "internalType": "uint256",
          "name": "index",
          "type": "uint256"
        }
      ],
      "name": "tokenOfOwnerByIndex",
      "outputs": [
        {
          "internalType": "uint256",
          "name": "",
          "type": "uint256"
        }
      ],
      "stateMutability": "view",
      "type": "function"
    },
    {
      "inputs": [],
      "name": "totalSupply",
      "outputs": [
        {
          "internalType": "uint256",
          "name": "",
          "type": "uint256"
        }
      ],
      "stateMutability": "view",
      "type": "function"
    },
    {
      "inputs": [
        {
          "internalType": "address",
          "name": "from",
          "type": "address"
        },
        {
          "internalType": "address",
          "name": "to",
          "type": "address"
        },
        {
          "internalType": "uint256",
          "name": "tokenId",
          "type": "uint256"
        }
      ],
      "name": "transferFrom",
      "outputs": [],
      "stateMutability": "nonpayable",
      "type": "function"
    },
    {
      "inputs": [
        {
          "internalType": "address",
          "name": "newOwner",
          "type": "address"
        }
      ],
      "name": "transferOwnership",
      "outputs": [],
      "stateMutability": "nonpayable",
      "type": "function"
    },
    {
      "inputs": [
        {
          "internalType": "string",
          "name": "_name",
          "type": "string"
        },
        {
          "internalType": "string",
          "name": "_symbol",
          "type": "string"
        },
        {
          "internalType": "string",
          "name": "_baseTokenURI",
          "type": "string"
        }
      ],
      "name": "initialize",
      "outputs": [],
      "stateMutability": "nonpayable",
      "type": "function"
    },
    {
      "inputs": [
        {
          "internalType": "address",
          "name": "to",
          "type": "address"
        },
        {
          "internalType": "string",
          "name": "cid",
          "type": "string"
        }
      ],
      "name": "mint",
      "outputs": [
        {
          "internalType": "uint256",
          "name": "_id",
          "type": "uint256"
        }
      ],
      "stateMutability": "nonpayable",
      "type": "function"
    },
    {
      "inputs": [
        {
          "internalType": "address",
          "name": "to",
          "type": "address"
        },
        {
          "internalType": "string",
          "name": "uri",
          "type": "string"
        }
      ],
      "name": "safeMint",
      "outputs": [],
      "stateMutability": "nonpayable",
      "type": "function"
    },
    {
      "inputs": [
        {
          "internalType": "address",
          "name": "_owner",
          "type": "address"
        }
      ],
      "name": "tokensOfOwner",
      "outputs": [
        {
          "internalType": "string[]",
          "name": "",
          "type": "string[]"
        }
      ],
      "stateMutability": "view",
      "type": "function"
    },
    {
      "inputs": [
        {
          "internalType": "uint256",
          "name": "tokenId",
          "type": "uint256"
        }
      ],
      "name": "tokenURI",
      "outputs": [
        {
          "internalType": "string",
          "name": "",
          "type": "string"
        }
      ],
      "stateMutability": "view",
      "type": "function"
    },
    {
      "inputs": [
        {
          "internalType": "bytes4",
          "name": "interfaceId",
          "type": "bytes4"
        }
      ],
      "name": "supportsInterface",
      "outputs": [
        {
          "internalType": "bool",
          "name": "",
          "type": "bool"
        }
      ],
      "stateMutability": "view",
      "type": "function"
    }
  ],
  "bytecode": "0x608060405234801561001057600080fd5b50615253806100206000396000f3fe608060405234801561001057600080fd5b506004361061022e576000357c010000000000000000000000000000000000000000000000000000000090048063715018a611610142578063b88d4fde116100ca578063d539139311610099578063d539139314610655578063d547741f14610673578063d547cfb71461068f578063e985e9c5146106ad578063f2fde38b146106dd5761022e565b8063b88d4fde146105bd578063c87b56dd146105d9578063d0def52114610609578063d204c45e146106395761022e565b806391d148541161011157806391d148541461051957806395d89b4114610549578063a217fddf14610567578063a22cb46514610585578063a6487c53146105a15761022e565b8063715018a6146104a35780638462151c146104ad5780638d859f3e146104dd5780638da5cb5b146104fb5761022e565b80632f2ff15d116101c557806342842e0e1161019457806342842e0e146103db5780634f6ccce7146103f757806355f804b3146104275780636352211e1461044357806370a08231146104735761022e565b80632f2ff15d146103555780632f745c591461037157806332cb6b0c146103a157806336568abe146103bf5761022e565b806309d42b301161020157806309d42b30146102cd57806318160ddd146102eb57806323b872dd14610309578063248a9ca3146103255761022e565b806301ffc9a71461023357806306fdde0314610263578063081812fc14610281578063095ea7b3146102b1575b600080fd5b61024d600480360381019061024891906137a2565b6106f9565b60405161025a91906137ea565b60405180910390f35b61026b61070b565b604051610278919061389e565b60405180910390f35b61029b600480360381019061029691906138f6565b61079d565b6040516102a89190613964565b60405180910390f35b6102cb60048036038101906102c691906139ab565b610822565b005b6102d561093a565b6040516102e291906139fa565b60405180910390f35b6102f361093f565b60405161030091906139fa565b60405180910390f35b610323600480360381019061031e9190613a15565b61094c565b005b61033f600480360381019061033a9190613a9e565b6109ac565b60405161034c9190613ada565b60405180910390f35b61036f600480360381019061036a9190613af5565b6109cc565b005b61038b600480360381019061038691906139ab565b6109f5565b60405161039891906139fa565b60405180910390f35b6103a9610a9a565b6040516103b691906139fa565b60405180910390f35b6103d960048036038101906103d49190613af5565b610aa0565b005b6103f560048036038101906103f09190613a15565b610b23565b005b610411600480360381019061040c91906138f6565b610b43565b60405161041e91906139fa565b60405180910390f35b610441600480360381019061043c9190613c6a565b610bb4565b005b61045d600480360381019061045891906138f6565b610c4b565b60405161046a9190613964565b60405180910390f35b61048d60048036038101906104889190613cb3565b610cfd565b60405161049a91906139fa565b60405180910390f35b6104ab610db5565b005b6104c760048036038101906104c29190613cb3565b610e3d565b6040516104d49190613dec565b60405180910390f35b6104e561101c565b6040516104f291906139fa565b60405180910390f35b610503611026565b6040516105109190613964565b60405180910390f35b610533600480360381019061052e9190613af5565b611051565b60405161054091906137ea565b60405180910390f35b6105516110bc565b60405161055e919061389e565b60405180910390f35b61056f61114e565b60405161057c9190613ada565b60405180910390f35b61059f600480360381019061059a9190613e3a565b611156565b005b6105bb60048036038101906105b69190613e7a565b61116c565b005b6105d760048036038101906105d29190613fc2565b611253565b005b6105f360048036038101906105ee91906138f6565b6112b5565b604051610600919061389e565b60405180910390f35b610623600480360381019061061e9190614045565b6112c7565b60405161063091906139fa565b60405180910390f35b610653600480360381019061064e9190614045565b61137d565b005b61065d6114a1565b60405161066a9190613ada565b60405180910390f35b61068d60048036038101906106889190613af5565b6114c5565b005b6106976114ee565b6040516106a4919061389e565b60405180910390f35b6106c760048036038101906106c291906140a1565b61157d565b6040516106d491906137ea565b60405180910390f35b6106f760048036038101906106f29190613cb3565b611611565b005b600061070482611709565b9050919050565b60606065805461071a90614110565b80601f016020809104026020016040519081016040528092919081815260200182805461074690614110565b80156107935780601f1061076857610100808354040283529160200191610793565b820191906000526020600020905b81548152906001019060200180831161077657829003601f168201915b5050505050905090565b60006107a88261171b565b6107e7576040517f08c379a00000000000000000000000000000000000000000000000000000000081526004016107de906141b4565b60405180910390fd5b6069600083815260200190815260200160002060009054906101000a900473ffffffffffffffffffffffffffffffffffffffff169050919050565b600061082d82610c4b565b90508073ffffffffffffffffffffffffffffffffffffffff168373ffffffffffffffffffffffffffffffffffffffff16141561089e576040517f08c379a000000000000000000000000000000000000000000000000000000000815260040161089590614246565b60405180910390fd5b8073ffffffffffffffffffffffffffffffffffffffff166108bd611787565b73ffffffffffffffffffffffffffffffffffffffff1614806108ec57506108eb816108e6611787565b61157d565b5b61092b576040517f08c379a0000000000000000000000000000000000000000000000000000000008152600401610922906142d8565b60405180910390fd5b610935838361178f565b505050565b606481565b600060fd80549050905090565b61095d610957611787565b82611848565b61099c576040517f08c379a00000000000000000000000000000000000000000000000000000000081526004016109939061436a565b60405180910390fd5b6109a7838383611926565b505050565b600060c96000838152602001908152602001600020600101549050919050565b6109d5826109ac565b6109e6816109e1611787565b611b82565b6109f08383611c20565b505050565b6000610a0083610cfd565b8210610a41576040517f08c379a0000000000000000000000000000000000000000000000000000000008152600401610a38906143fc565b60405180910390fd5b60fb60008473ffffffffffffffffffffffffffffffffffffffff1673ffffffffffffffffffffffffffffffffffffffff168152602001908152602001600020600083815260200190815260200160002054905092915050565b61c35081565b610aa8611787565b73ffffffffffffffffffffffffffffffffffffffff168173ffffffffffffffffffffffffffffffffffffffff1614610b15576040517f08c379a0000000000000000000000000000000000000000000000000000000008152600401610b0c9061448e565b60405180910390fd5b610b1f8282611d01565b5050565b610b3e83838360405180602001604052806000815250611253565b505050565b6000610b4d61093f565b8210610b8e576040517f08c379a0000000000000000000000000000000000000000000000000000000008152600401610b8590614520565b60405180910390fd5b60fd8281548110610ba257610ba1614540565b5b90600052602060002001549050919050565b610bbc611787565b73ffffffffffffffffffffffffffffffffffffffff16610bda611026565b73ffffffffffffffffffffffffffffffffffffffff1614610c30576040517f08c379a0000000000000000000000000000000000000000000000000000000008152600401610c27906145bb565b60405180910390fd5b806101619080519060200190610c47929190613693565b5050565b6000806067600084815260200190815260200160002060009054906101000a900473ffffffffffffffffffffffffffffffffffffffff169050600073ffffffffffffffffffffffffffffffffffffffff168173ffffffffffffffffffffffffffffffffffffffff161415610cf4576040517f08c379a0000000000000000000000000000000000000000000000000000000008152600401610ceb9061464d565b60405180910390fd5b80915050919050565b60008073ffffffffffffffffffffffffffffffffffffffff168273ffffffffffffffffffffffffffffffffffffffff161415610d6e576040517f08c379a0000000000000000000000000000000000000000000000000000000008152600401610d65906146df565b60405180910390fd5b606860008373ffffffffffffffffffffffffffffffffffffffff1673ffffffffffffffffffffffffffffffffffffffff168152602001908152602001600020549050919050565b610dbd611787565b73ffffffffffffffffffffffffffffffffffffffff16610ddb611026565b73ffffffffffffffffffffffffffffffffffffffff1614610e31576040517f08c379a0000000000000000000000000000000000000000000000000000000008152600401610e28906145bb565b60405180910390fd5b610e3b6000611de3565b565b60606000610e4a83610cfd565b905060008167ffffffffffffffff811115610e6857610e67613b3f565b5b604051908082528060200260200182016040528015610e965781602001602082028036833780820191505090505b50905060008267ffffffffffffffff811115610eb557610eb4613b3f565b5b604051908082528060200260200182016040528015610ee857816020015b6060815260200190600190039081610ed35790505b50905060005b8381101561101057610f0086826109f5565b838281518110610f1357610f12614540565b5b60200260200101818152505080838281518110610f3357610f32614540565b5b60200260200101511415610ffd5761015f60008281526020019081526020016000208054610f6090614110565b80601f0160208091040260200160405190810160405280929190818152602001828054610f8c90614110565b8015610fd95780601f10610fae57610100808354040283529160200191610fd9565b820191906000526020600020905b815481529060010190602001808311610fbc57829003601f168201915b5050505050828281518110610ff157610ff0614540565b5b60200260200101819052505b80806110089061472e565b915050610eee565b50809350505050919050565b655af3107a400081565b600061012d60009054906101000a900473ffffffffffffffffffffffffffffffffffffffff16905090565b600060c9600084815260200190815260200160002060000160008373ffffffffffffffffffffffffffffffffffffffff1673ffffffffffffffffffffffffffffffffffffffff16815260200190815260200160002060009054906101000a900460ff16905092915050565b6060606680546110cb90614110565b80601f01602080910402602001604051908101604052809291908181526020018280546110f790614110565b80156111445780601f1061111957610100808354040283529160200191611144565b820191906000526020600020905b81548152906001019060200180831161112757829003601f168201915b5050505050905090565b600060010281565b611168611161611787565b8383611eab565b5050565b600060019054906101000a900460ff1680611192575060008054906101000a900460ff16155b6111d1576040517f08c379a00000000000000000000000000000000000000000000000000000000081526004016111c8906147e9565b60405180910390fd5b60008060019054906101000a900460ff161590508015611221576001600060016101000a81548160ff02191690831515021790555060016000806101000a81548160ff0219169083151502179055505b61122c848484612018565b801561124d5760008060016101000a81548160ff0219169083151502179055505b50505050565b61126461125e611787565b83611848565b6112a3576040517f08c379a000000000000000000000000000000000000000000000000000000000815260040161129a9061436a565b60405180910390fd5b6112af8484848461215c565b50505050565b60606112c0826121b8565b9050919050565b6000610164826040516112da9190614845565b908152602001604051809103902060009054906101000a900460ff1615611336576040517f08c379a000000000000000000000000000000000000000000000000000000000815260040161132d906148a8565b60405180910390fd5b61134161016261232c565b905061136d7f9f2df0fed2c77648de5860a4cc508cd0818c85b8b8a1ab4ceeef8d981c8956a684611c20565b611377838361137d565b92915050565b7f9f2df0fed2c77648de5860a4cc508cd0818c85b8b8a1ab4ceeef8d981c8956a66113af816113aa611787565b611b82565b60006113bc61016261232c565b90506113c8848261233a565b6113d28184612358565b83610163600083815260200190815260200160002060006101000a81548173ffffffffffffffffffffffffffffffffffffffff021916908373ffffffffffffffffffffffffffffffffffffffff1602179055508261015f6000838152602001908152602001600020908051906020019061144d929190613693565b506001610164846040516114619190614845565b908152602001604051809103902060006101000a81548160ff0219169083151502179055506114908184612358565b61149b6101626123cd565b50505050565b7f9f2df0fed2c77648de5860a4cc508cd0818c85b8b8a1ab4ceeef8d981c8956a681565b6114ce826109ac565b6114df816114da611787565b611b82565b6114e98383611d01565b505050565b61016080546114fc90614110565b80601f016020809104026020016040519081016040528092919081815260200182805461152890614110565b80156115755780601f1061154a57610100808354040283529160200191611575565b820191906000526020600020905b81548152906001019060200180831161155857829003601f168201915b505050505081565b6000606a60008473ffffffffffffffffffffffffffffffffffffffff1673ffffffffffffffffffffffffffffffffffffffff16815260200190815260200160002060008373ffffffffffffffffffffffffffffffffffffffff1673ffffffffffffffffffffffffffffffffffffffff16815260200190815260200160002060009054906101000a900460ff16905092915050565b611619611787565b73ffffffffffffffffffffffffffffffffffffffff16611637611026565b73ffffffffffffffffffffffffffffffffffffffff161461168d576040517f08c379a0000000000000000000000000000000000000000000000000000000008152600401611684906145bb565b60405180910390fd5b600073ffffffffffffffffffffffffffffffffffffffff168173ffffffffffffffffffffffffffffffffffffffff1614156116fd576040517f08c379a00000000000000000000000000000000000000000000000000000000081526004016116f49061493a565b60405180910390fd5b61170681611de3565b50565b6000611714826123e3565b9050919050565b60008073ffffffffffffffffffffffffffffffffffffffff166067600084815260200190815260200160002060009054906101000a900473ffffffffffffffffffffffffffffffffffffffff1673ffffffffffffffffffffffffffffffffffffffff1614159050919050565b600033905090565b816069600083815260200190815260200160002060006101000a81548173ffffffffffffffffffffffffffffffffffffffff021916908373ffffffffffffffffffffffffffffffffffffffff160217905550808273ffffffffffffffffffffffffffffffffffffffff1661180283610c4b565b73ffffffffffffffffffffffffffffffffffffffff167f8c5be1e5ebec7d5bd14f71427d1e84f3dd0314c0f7b2291e5b200ac8c7c3b92560405160405180910390a45050565b60006118538261171b565b611892576040517f08c379a0000000000000000000000000000000000000000000000000000000008152600401611889906149cc565b60405180910390fd5b600061189d83610c4b565b90508073ffffffffffffffffffffffffffffffffffffffff168473ffffffffffffffffffffffffffffffffffffffff16148061190c57508373ffffffffffffffffffffffffffffffffffffffff166118f48461079d565b73ffffffffffffffffffffffffffffffffffffffff16145b8061191d575061191c818561157d565b5b91505092915050565b8273ffffffffffffffffffffffffffffffffffffffff1661194682610c4b565b73ffffffffffffffffffffffffffffffffffffffff161461199c576040517f08c379a000000000000000000000000000000000000000000000000000000000815260040161199390614a5e565b60405180910390fd5b600073ffffffffffffffffffffffffffffffffffffffff168273ffffffffffffffffffffffffffffffffffffffff161415611a0c576040517f08c379a0000000000000000000000000000000000000000000000000000000008152600401611a0390614af0565b60405180910390fd5b611a1783838361245d565b611a2260008261178f565b6001606860008573ffffffffffffffffffffffffffffffffffffffff1673ffffffffffffffffffffffffffffffffffffffff1681526020019081526020016000206000828254611a729190614b10565b925050819055506001606860008473ffffffffffffffffffffffffffffffffffffffff1673ffffffffffffffffffffffffffffffffffffffff1681526020019081526020016000206000828254611ac99190614b44565b92505081905550816067600083815260200190815260200160002060006101000a81548173ffffffffffffffffffffffffffffffffffffffff021916908373ffffffffffffffffffffffffffffffffffffffff160217905550808273ffffffffffffffffffffffffffffffffffffffff168473ffffffffffffffffffffffffffffffffffffffff167fddf252ad1be2c89b69c2b068fc378daa952ba7f163c4a11628f55a4df523b3ef60405160405180910390a4505050565b611b8c8282611051565b611c1c57611bb18173ffffffffffffffffffffffffffffffffffffffff16601461246d565b611bc08360019004602061246d565b604051602001611bd1929190614c32565b6040516020818303038152906040526040517f08c379a0000000000000000000000000000000000000000000000000000000008152600401611c13919061389e565b60405180910390fd5b5050565b611c2a8282611051565b611cfd57600160c9600084815260200190815260200160002060000160008373ffffffffffffffffffffffffffffffffffffffff1673ffffffffffffffffffffffffffffffffffffffff16815260200190815260200160002060006101000a81548160ff021916908315150217905550611ca2611787565b73ffffffffffffffffffffffffffffffffffffffff168173ffffffffffffffffffffffffffffffffffffffff16837f2f8788117e7eff1d82e926ec794901d17c78024a50270940304540a733656f0d60405160405180910390a45b5050565b611d0b8282611051565b15611ddf57600060c9600084815260200190815260200160002060000160008373ffffffffffffffffffffffffffffffffffffffff1673ffffffffffffffffffffffffffffffffffffffff16815260200190815260200160002060006101000a81548160ff021916908315150217905550611d84611787565b73ffffffffffffffffffffffffffffffffffffffff168173ffffffffffffffffffffffffffffffffffffffff16837ff6391f5c32d9c69d2a47ea670b442974b53935d1edc7fd64eb21e047a839171b60405160405180910390a45b5050565b600061012d60009054906101000a900473ffffffffffffffffffffffffffffffffffffffff1690508161012d60006101000a81548173ffffffffffffffffffffffffffffffffffffffff021916908373ffffffffffffffffffffffffffffffffffffffff1602179055508173ffffffffffffffffffffffffffffffffffffffff168173ffffffffffffffffffffffffffffffffffffffff167f8be0079c531659141344cd1fd0a4f28419497f9722a3daafe3b4186f6b6457e060405160405180910390a35050565b8173ffffffffffffffffffffffffffffffffffffffff168373ffffffffffffffffffffffffffffffffffffffff161415611f1a576040517f08c379a0000000000000000000000000000000000000000000000000000000008152600401611f1190614cb8565b60405180910390fd5b80606a60008573ffffffffffffffffffffffffffffffffffffffff1673ffffffffffffffffffffffffffffffffffffffff16815260200190815260200160002060008473ffffffffffffffffffffffffffffffffffffffff1673ffffffffffffffffffffffffffffffffffffffff16815260200190815260200160002060006101000a81548160ff0219169083151502179055508173ffffffffffffffffffffffffffffffffffffffff168373ffffffffffffffffffffffffffffffffffffffff167f17307eab39ab6107e8899845ad3d59bd9653f200f220920489ca2b5937696c318360405161200b91906137ea565b60405180910390a3505050565b600060019054906101000a900460ff168061203e575060008054906101000a900460ff16155b61207d576040517f08c379a0000000000000000000000000000000000000000000000000000000008152600401612074906147e9565b60405180910390fd5b60008060019054906101000a900460ff1615905080156120cd576001600060016101000a81548160ff02191690831515021790555060016000806101000a81548160ff0219169083151502179055505b6120d784846126d0565b8161016090805190602001906120ee929190613693565b5061210460006001026120ff611026565b611c20565b6121357f9f2df0fed2c77648de5860a4cc508cd0818c85b8b8a1ab4ceeef8d981c8956a6612130611026565b611c20565b80156121565760008060016101000a81548160ff0219169083151502179055505b50505050565b612167848484611926565b612173848484846127c5565b6121b2576040517f08c379a00000000000000000000000000000000000000000000000000000000081526004016121a990614d4a565b60405180910390fd5b50505050565b60606121c38261171b565b612202576040517f08c379a00000000000000000000000000000000000000000000000000000000081526004016121f990614ddc565b60405180910390fd5b600061015f6000848152602001908152602001600020805461222390614110565b80601f016020809104026020016040519081016040528092919081815260200182805461224f90614110565b801561229c5780601f106122715761010080835404028352916020019161229c565b820191906000526020600020905b81548152906001019060200180831161227f57829003601f168201915b5050505050905060006122ad612985565b90506000815114156122c3578192505050612327565b6000825111156122f85780826040516020016122e0929190614dfc565b60405160208183030381529060405292505050612327565b8061230285612994565b604051602001612313929190614dfc565b604051602081830303815290604052925050505b919050565b600081600001549050919050565b612354828260405180602001604052806000815250612b14565b5050565b6123618261171b565b6123a0576040517f08c379a000000000000000000000000000000000000000000000000000000000815260040161239790614e92565b60405180910390fd5b8061015f600084815260200190815260200160002090805190602001906123c8929190613693565b505050565b6001816000016000828254019250508190555050565b60007f780e9d63000000000000000000000000000000000000000000000000000000007bffffffffffffffffffffffffffffffffffffffffffffffffffffffff1916827bffffffffffffffffffffffffffffffffffffffffffffffffffffffff19161480612456575061245582612b6f565b5b9050919050565b612468838383612be9565b505050565b6060600060028360026124809190614eb2565b61248a9190614b44565b67ffffffffffffffff8111156124a3576124a2613b3f565b5b6040519080825280601f01601f1916602001820160405280156124d55781602001600182028036833780820191505090505b5090507f30000000000000000000000000000000000000000000000000000000000000008160008151811061250d5761250c614540565b5b60200101907effffffffffffffffffffffffffffffffffffffffffffffffffffffffffffff1916908160001a9053507f78000000000000000000000000000000000000000000000000000000000000008160018151811061257157612570614540565b5b60200101907effffffffffffffffffffffffffffffffffffffffffffffffffffffffffffff1916908160001a905350600060018460026125b19190614eb2565b6125bb9190614b44565b90505b6001811115612682577f3031323334353637383961626364656600000000000000000000000000000000600f8616601081106125fd576125fc614540565b5b1a7f01000000000000000000000000000000000000000000000000000000000000000282828151811061263357612632614540565b5b60200101907effffffffffffffffffffffffffffffffffffffffffffffffffffffffffffff1916908160001a905350600485908060020a820491505094508061267b90614f0c565b90506125be565b50600084146126c6576040517f08c379a00000000000000000000000000000000000000000000000000000000081526004016126bd90614f82565b60405180910390fd5b8091505092915050565b600060019054906101000a900460ff16806126f6575060008054906101000a900460ff16155b612735576040517f08c379a000000000000000000000000000000000000000000000000000000000815260040161272c906147e9565b60405180910390fd5b60008060019054906101000a900460ff161590508015612785576001600060016101000a81548160ff02191690831515021790555060016000806101000a81548160ff0219169083151502179055505b61278d612bf9565b612795612cd2565b61279f8383612dab565b80156127c05760008060016101000a81548160ff0219169083151502179055505b505050565b60006127e68473ffffffffffffffffffffffffffffffffffffffff16612eb4565b15612978578373ffffffffffffffffffffffffffffffffffffffff1663150b7a0261280f611787565b8786866040518563ffffffff167c010000000000000000000000000000000000000000000000000000000002815260040161284d9493929190614ff7565b6020604051808303816000875af192505050801561288957506040513d601f19601f820116820180604052508101906128869190615058565b60015b61290c573d80600081146128b9576040519150601f19603f3d011682016040523d82523d6000602084013e6128be565b606091505b50600081511415612904576040517f08c379a00000000000000000000000000000000000000000000000000000000081526004016128fb90614d4a565b60405180910390fd5b805181602001fd5b63150b7a027c0100000000000000000000000000000000000000000000000000000000027bffffffffffffffffffffffffffffffffffffffffffffffffffffffff1916817bffffffffffffffffffffffffffffffffffffffffffffffffffffffff19161491505061297d565b600190505b949350505050565b606061298f612ec7565b905090565b606060008214156129dc576040518060400160405280600181526020017f30000000000000000000000000000000000000000000000000000000000000008152509050612b0f565b600082905060005b60008214612a0e5780806129f79061472e565b915050600a82612a0791906150b4565b91506129e4565b60008167ffffffffffffffff811115612a2a57612a29613b3f565b5b6040519080825280601f01601f191660200182016040528015612a5c5781602001600182028036833780820191505090505b5090505b60008514612b0857600182612a759190614b10565b9150600a85612a8491906150e5565b6030612a909190614b44565b7f010000000000000000000000000000000000000000000000000000000000000002818381518110612ac557612ac4614540565b5b60200101907effffffffffffffffffffffffffffffffffffffffffffffffffffffffffffff1916908160001a905350600a85612b0191906150b4565b9450612a60565b8093505050505b919050565b612b1e8383612f5a565b612b2b60008484846127c5565b612b6a576040517f08c379a0000000000000000000000000000000000000000000000000000000008152600401612b6190614d4a565b60405180910390fd5b505050565b60007f7965db0b000000000000000000000000000000000000000000000000000000007bffffffffffffffffffffffffffffffffffffffffffffffffffffffff1916827bffffffffffffffffffffffffffffffffffffffffffffffffffffffff19161480612be25750612be182613128565b5b9050919050565b612bf483838361320a565b505050565b600060019054906101000a900460ff1680612c1f575060008054906101000a900460ff16155b612c5e576040517f08c379a0000000000000000000000000000000000000000000000000000000008152600401612c55906147e9565b60405180910390fd5b60008060019054906101000a900460ff161590508015612cae576001600060016101000a81548160ff02191690831515021790555060016000806101000a81548160ff0219169083151502179055505b8015612ccf5760008060016101000a81548160ff0219169083151502179055505b50565b600060019054906101000a900460ff1680612cf8575060008054906101000a900460ff16155b612d37576040517f08c379a0000000000000000000000000000000000000000000000000000000008152600401612d2e906147e9565b60405180910390fd5b60008060019054906101000a900460ff161590508015612d87576001600060016101000a81548160ff02191690831515021790555060016000806101000a81548160ff0219169083151502179055505b8015612da85760008060016101000a81548160ff0219169083151502179055505b50565b600060019054906101000a900460ff1680612dd1575060008054906101000a900460ff16155b612e10576040517f08c379a0000000000000000000000000000000000000000000000000000000008152600401612e07906147e9565b60405180910390fd5b60008060019054906101000a900460ff161590508015612e60576001600060016101000a81548160ff02191690831515021790555060016000806101000a81548160ff0219169083151502179055505b8260659080519060200190612e76929190613693565b508160669080519060200190612e8d929190613693565b508015612eaf5760008060016101000a81548160ff0219169083151502179055505b505050565b600080823b905060008111915050919050565b60606101618054612ed790614110565b80601f0160208091040260200160405190810160405280929190818152602001828054612f0390614110565b8015612f505780601f10612f2557610100808354040283529160200191612f50565b820191906000526020600020905b815481529060010190602001808311612f3357829003601f168201915b5050505050905090565b600073ffffffffffffffffffffffffffffffffffffffff168273ffffffffffffffffffffffffffffffffffffffff161415612fca576040517f08c379a0000000000000000000000000000000000000000000000000000000008152600401612fc190615162565b60405180910390fd5b612fd38161171b565b15613013576040517f08c379a000000000000000000000000000000000000000000000000000000000815260040161300a906151ce565b60405180910390fd5b61301f6000838361245d565b6001606860008473ffffffffffffffffffffffffffffffffffffffff1673ffffffffffffffffffffffffffffffffffffffff168152602001908152602001600020600082825461306f9190614b44565b92505081905550816067600083815260200190815260200160002060006101000a81548173ffffffffffffffffffffffffffffffffffffffff021916908373ffffffffffffffffffffffffffffffffffffffff160217905550808273ffffffffffffffffffffffffffffffffffffffff16600073ffffffffffffffffffffffffffffffffffffffff167fddf252ad1be2c89b69c2b068fc378daa952ba7f163c4a11628f55a4df523b3ef60405160405180910390a45050565b60007f80ac58cd000000000000000000000000000000000000000000000000000000007bffffffffffffffffffffffffffffffffffffffffffffffffffffffff1916827bffffffffffffffffffffffffffffffffffffffffffffffffffffffff191614806131f357507f5b5e139f000000000000000000000000000000000000000000000000000000007bffffffffffffffffffffffffffffffffffffffffffffffffffffffff1916827bffffffffffffffffffffffffffffffffffffffffffffffffffffffff1916145b8061320357506132028261331e565b5b9050919050565b613215838383613388565b600073ffffffffffffffffffffffffffffffffffffffff168373ffffffffffffffffffffffffffffffffffffffff161415613258576132538161338d565b613297565b8173ffffffffffffffffffffffffffffffffffffffff168373ffffffffffffffffffffffffffffffffffffffff16146132965761329583826133d6565b5b5b600073ffffffffffffffffffffffffffffffffffffffff168273ffffffffffffffffffffffffffffffffffffffff1614156132da576132d581613543565b613319565b8273ffffffffffffffffffffffffffffffffffffffff168273ffffffffffffffffffffffffffffffffffffffff1614613318576133178282613614565b5b5b505050565b60007f01ffc9a7000000000000000000000000000000000000000000000000000000007bffffffffffffffffffffffffffffffffffffffffffffffffffffffff1916827bffffffffffffffffffffffffffffffffffffffffffffffffffffffff1916149050919050565b505050565b60fd8054905060fe60008381526020019081526020016000208190555060fd81908060018154018082558091505060019003906000526020600020016000909190919091505550565b600060016133e384610cfd565b6133ed9190614b10565b9050600060fc60008481526020019081526020016000205490508181146134d257600060fb60008673ffffffffffffffffffffffffffffffffffffffff1673ffffffffffffffffffffffffffffffffffffffff16815260200190815260200160002060008481526020019081526020016000205490508060fb60008773ffffffffffffffffffffffffffffffffffffffff1673ffffffffffffffffffffffffffffffffffffffff1681526020019081526020016000206000848152602001908152602001600020819055508160fc600083815260200190815260200160002081905550505b60fc60008481526020019081526020016000206000905560fb60008573ffffffffffffffffffffffffffffffffffffffff1673ffffffffffffffffffffffffffffffffffffffff16815260200190815260200160002060008381526020019081526020016000206000905550505050565b6000600160fd805490506135579190614b10565b9050600060fe6000848152602001908152602001600020549050600060fd838154811061358757613586614540565b5b906000526020600020015490508060fd83815481106135a9576135a8614540565b5b90600052602060002001819055508160fe60008381526020019081526020016000208190555060fe60008581526020019081526020016000206000905560fd8054806135f8576135f76151ee565b5b6001900381819060005260206000200160009055905550505050565b600061361f83610cfd565b90508160fb60008573ffffffffffffffffffffffffffffffffffffffff1673ffffffffffffffffffffffffffffffffffffffff1681526020019081526020016000206000838152602001908152602001600020819055508060fc600084815260200190815260200160002081905550505050565b82805461369f90614110565b90600052602060002090601f0160209004810192826136c15760008555613708565b82601f106136da57805160ff1916838001178555613708565b82800160010185558215613708579182015b828111156137075782518255916020019190600101906136ec565b5b5090506137159190613719565b5090565b5b8082111561373257600081600090555060010161371a565b5090565b6000604051905090565b600080fd5b600080fd5b60007fffffffff0000000000000000000000000000000000000000000000000000000082169050919050565b61377f8161374a565b811461378a57600080fd5b50565b60008135905061379c81613776565b92915050565b6000602082840312156137b8576137b7613740565b5b60006137c68482850161378d565b91505092915050565b60008115159050919050565b6137e4816137cf565b82525050565b60006020820190506137ff60008301846137db565b92915050565b600081519050919050565b600082825260208201905092915050565b60005b8381101561383f578082015181840152602081019050613824565b8381111561384e576000848401525b50505050565b6000601f19601f8301169050919050565b600061387082613805565b61387a8185613810565b935061388a818560208601613821565b61389381613854565b840191505092915050565b600060208201905081810360008301526138b88184613865565b905092915050565b6000819050919050565b6138d3816138c0565b81146138de57600080fd5b50565b6000813590506138f0816138ca565b92915050565b60006020828403121561390c5761390b613740565b5b600061391a848285016138e1565b91505092915050565b600073ffffffffffffffffffffffffffffffffffffffff82169050919050565b600061394e82613923565b9050919050565b61395e81613943565b82525050565b60006020820190506139796000830184613955565b92915050565b61398881613943565b811461399357600080fd5b50565b6000813590506139a58161397f565b92915050565b600080604083850312156139c2576139c1613740565b5b60006139d085828601613996565b92505060206139e1858286016138e1565b9150509250929050565b6139f4816138c0565b82525050565b6000602082019050613a0f60008301846139eb565b92915050565b600080600060608486031215613a2e57613a2d613740565b5b6000613a3c86828701613996565b9350506020613a4d86828701613996565b9250506040613a5e868287016138e1565b9150509250925092565b6000819050919050565b613a7b81613a68565b8114613a8657600080fd5b50565b600081359050613a9881613a72565b92915050565b600060208284031215613ab457613ab3613740565b5b6000613ac284828501613a89565b91505092915050565b613ad481613a68565b82525050565b6000602082019050613aef6000830184613acb565b92915050565b60008060408385031215613b0c57613b0b613740565b5b6000613b1a85828601613a89565b9250506020613b2b85828601613996565b9150509250929050565b600080fd5b600080fd5b7f4e487b7100000000000000000000000000000000000000000000000000000000600052604160045260246000fd5b613b7782613854565b810181811067ffffffffffffffff82111715613b9657613b95613b3f565b5b80604052505050565b6000613ba9613736565b9050613bb58282613b6e565b919050565b600067ffffffffffffffff821115613bd557613bd4613b3f565b5b613bde82613854565b9050602081019050919050565b82818337600083830152505050565b6000613c0d613c0884613bba565b613b9f565b905082815260208101848484011115613c2957613c28613b3a565b5b613c34848285613beb565b509392505050565b600082601f830112613c5157613c50613b35565b5b8135613c61848260208601613bfa565b91505092915050565b600060208284031215613c8057613c7f613740565b5b600082013567ffffffffffffffff811115613c9e57613c9d613745565b5b613caa84828501613c3c565b91505092915050565b600060208284031215613cc957613cc8613740565b5b6000613cd784828501613996565b91505092915050565b600081519050919050565b600082825260208201905092915050565b6000819050602082019050919050565b600082825260208201905092915050565b6000613d2882613805565b613d328185613d0c565b9350613d42818560208601613821565b613d4b81613854565b840191505092915050565b6000613d628383613d1d565b905092915050565b6000602082019050919050565b6000613d8282613ce0565b613d8c8185613ceb565b935083602082028501613d9e85613cfc565b8060005b85811015613dda5784840389528151613dbb8582613d56565b9450613dc683613d6a565b925060208a01995050600181019050613da2565b50829750879550505050505092915050565b60006020820190508181036000830152613e068184613d77565b905092915050565b613e17816137cf565b8114613e2257600080fd5b50565b600081359050613e3481613e0e565b92915050565b60008060408385031215613e5157613e50613740565b5b6000613e5f85828601613996565b9250506020613e7085828601613e25565b9150509250929050565b600080600060608486031215613e9357613e92613740565b5b600084013567ffffffffffffffff811115613eb157613eb0613745565b5b613ebd86828701613c3c565b935050602084013567ffffffffffffffff811115613ede57613edd613745565b5b613eea86828701613c3c565b925050604084013567ffffffffffffffff811115613f0b57613f0a613745565b5b613f1786828701613c3c565b9150509250925092565b600067ffffffffffffffff821115613f3c57613f3b613b3f565b5b613f4582613854565b9050602081019050919050565b6000613f65613f6084613f21565b613b9f565b905082815260208101848484011115613f8157613f80613b3a565b5b613f8c848285613beb565b509392505050565b600082601f830112613fa957613fa8613b35565b5b8135613fb9848260208601613f52565b91505092915050565b60008060008060808587031215613fdc57613fdb613740565b5b6000613fea87828801613996565b9450506020613ffb87828801613996565b935050604061400c878288016138e1565b925050606085013567ffffffffffffffff81111561402d5761402c613745565b5b61403987828801613f94565b91505092959194509250565b6000806040838503121561405c5761405b613740565b5b600061406a85828601613996565b925050602083013567ffffffffffffffff81111561408b5761408a613745565b5b61409785828601613c3c565b9150509250929050565b600080604083850312156140b8576140b7613740565b5b60006140c685828601613996565b92505060206140d785828601613996565b9150509250929050565b7f4e487b7100000000000000000000000000000000000000000000000000000000600052602260045260246000fd5b6000600282049050600182168061412857607f821691505b6020821081141561413c5761413b6140e1565b5b50919050565b7f4552433732313a20617070726f76656420717565727920666f72206e6f6e657860008201527f697374656e7420746f6b656e0000000000000000000000000000000000000000602082015250565b600061419e602c83613810565b91506141a982614142565b604082019050919050565b600060208201905081810360008301526141cd81614191565b9050919050565b7f4552433732313a20617070726f76616c20746f2063757272656e74206f776e6560008201527f7200000000000000000000000000000000000000000000000000000000000000602082015250565b6000614230602183613810565b915061423b826141d4565b604082019050919050565b6000602082019050818103600083015261425f81614223565b9050919050565b7f4552433732313a20617070726f76652063616c6c6572206973206e6f74206f7760008201527f6e6572206e6f7220617070726f76656420666f7220616c6c0000000000000000602082015250565b60006142c2603883613810565b91506142cd82614266565b604082019050919050565b600060208201905081810360008301526142f1816142b5565b9050919050565b7f4552433732313a207472616e736665722063616c6c6572206973206e6f74206f60008201527f776e6572206e6f7220617070726f766564000000000000000000000000000000602082015250565b6000614354603183613810565b915061435f826142f8565b604082019050919050565b6000602082019050818103600083015261438381614347565b9050919050565b7f455243373231456e756d657261626c653a206f776e657220696e646578206f7560008201527f74206f6620626f756e6473000000000000000000000000000000000000000000602082015250565b60006143e6602b83613810565b91506143f18261438a565b604082019050919050565b60006020820190508181036000830152614415816143d9565b9050919050565b7f416363657373436f6e74726f6c3a2063616e206f6e6c792072656e6f756e636560008201527f20726f6c657320666f722073656c660000000000000000000000000000000000602082015250565b6000614478602f83613810565b91506144838261441c565b604082019050919050565b600060208201905081810360008301526144a78161446b565b9050919050565b7f455243373231456e756d657261626c653a20676c6f62616c20696e646578206f60008201527f7574206f6620626f756e64730000000000000000000000000000000000000000602082015250565b600061450a602c83613810565b9150614515826144ae565b604082019050919050565b60006020820190508181036000830152614539816144fd565b9050919050565b7f4e487b7100000000000000000000000000000000000000000000000000000000600052603260045260246000fd5b7f4f776e61626c653a2063616c6c6572206973206e6f7420746865206f776e6572600082015250565b60006145a5602083613810565b91506145b08261456f565b602082019050919050565b600060208201905081810360008301526145d481614598565b9050919050565b7f4552433732313a206f776e657220717565727920666f72206e6f6e657869737460008201527f656e7420746f6b656e0000000000000000000000000000000000000000000000602082015250565b6000614637602983613810565b9150614642826145db565b604082019050919050565b600060208201905081810360008301526146668161462a565b9050919050565b7f4552433732313a2062616c616e636520717565727920666f7220746865207a6560008201527f726f206164647265737300000000000000000000000000000000000000000000602082015250565b60006146c9602a83613810565b91506146d48261466d565b604082019050919050565b600060208201905081810360008301526146f8816146bc565b9050919050565b7f4e487b7100000000000000000000000000000000000000000000000000000000600052601160045260246000fd5b6000614739826138c0565b91507fffffffffffffffffffffffffffffffffffffffffffffffffffffffffffffffff82141561476c5761476b6146ff565b5b600182019050919050565b7f496e697469616c697a61626c653a20636f6e747261637420697320616c72656160008201527f647920696e697469616c697a6564000000000000000000000000000000000000602082015250565b60006147d3602e83613810565b91506147de82614777565b604082019050919050565b60006020820190508181036000830152614802816147c6565b9050919050565b600081905092915050565b600061481f82613805565b6148298185614809565b9350614839818560208601613821565b80840191505092915050565b60006148518284614814565b915081905092915050565b7f4f626a65637420616c7265616479206578697374730000000000000000000000600082015250565b6000614892601583613810565b915061489d8261485c565b602082019050919050565b600060208201905081810360008301526148c181614885565b9050919050565b7f4f776e61626c653a206e6577206f776e657220697320746865207a65726f206160008201527f6464726573730000000000000000000000000000000000000000000000000000602082015250565b6000614924602683613810565b915061492f826148c8565b604082019050919050565b6000602082019050818103600083015261495381614917565b9050919050565b7f4552433732313a206f70657261746f7220717565727920666f72206e6f6e657860008201527f697374656e7420746f6b656e0000000000000000000000000000000000000000602082015250565b60006149b6602c83613810565b91506149c18261495a565b604082019050919050565b600060208201905081810360008301526149e5816149a9565b9050919050565b7f4552433732313a207472616e73666572206f6620746f6b656e2074686174206960008201527f73206e6f74206f776e0000000000000000000000000000000000000000000000602082015250565b6000614a48602983613810565b9150614a53826149ec565b604082019050919050565b60006020820190508181036000830152614a7781614a3b565b9050919050565b7f4552433732313a207472616e7366657220746f20746865207a65726f2061646460008201527f7265737300000000000000000000000000000000000000000000000000000000602082015250565b6000614ada602483613810565b9150614ae582614a7e565b604082019050919050565b60006020820190508181036000830152614b0981614acd565b9050919050565b6000614b1b826138c0565b9150614b26836138c0565b925082821015614b3957614b386146ff565b5b828203905092915050565b6000614b4f826138c0565b9150614b5a836138c0565b9250827fffffffffffffffffffffffffffffffffffffffffffffffffffffffffffffffff03821115614b8f57614b8e6146ff565b5b828201905092915050565b7f416363657373436f6e74726f6c3a206163636f756e7420000000000000000000600082015250565b6000614bd0601783614809565b9150614bdb82614b9a565b601782019050919050565b7f206973206d697373696e6720726f6c6520000000000000000000000000000000600082015250565b6000614c1c601183614809565b9150614c2782614be6565b601182019050919050565b6000614c3d82614bc3565b9150614c498285614814565b9150614c5482614c0f565b9150614c608284614814565b91508190509392505050565b7f4552433732313a20617070726f766520746f2063616c6c657200000000000000600082015250565b6000614ca2601983613810565b9150614cad82614c6c565b602082019050919050565b60006020820190508181036000830152614cd181614c95565b9050919050565b7f4552433732313a207472616e7366657220746f206e6f6e20455243373231526560008201527f63656976657220696d706c656d656e7465720000000000000000000000000000602082015250565b6000614d34603283613810565b9150614d3f82614cd8565b604082019050919050565b60006020820190508181036000830152614d6381614d27565b9050919050565b7f4552433732314d657461646174613a2055524920717565727920666f72206e6f60008201527f6e6578697374656e7420746f6b656e0000000000000000000000000000000000602082015250565b6000614dc6602f83613810565b9150614dd182614d6a565b604082019050919050565b60006020820190508181036000830152614df581614db9565b9050919050565b6000614e088285614814565b9150614e148284614814565b91508190509392505050565b7f4552433732314d657461646174613a2055524920736574206f66206e6f6e657860008201527f697374656e7420746f6b656e0000000000000000000000000000000000000000602082015250565b6000614e7c602c83613810565b9150614e8782614e20565b604082019050919050565b60006020820190508181036000830152614eab81614e6f565b9050919050565b6000614ebd826138c0565b9150614ec8836138c0565b9250817fffffffffffffffffffffffffffffffffffffffffffffffffffffffffffffffff0483118215151615614f0157614f006146ff565b5b828202905092915050565b6000614f17826138c0565b91506000821415614f2b57614f2a6146ff565b5b600182039050919050565b7f537472696e67733a20686578206c656e67746820696e73756666696369656e74600082015250565b6000614f6c602083613810565b9150614f7782614f36565b602082019050919050565b60006020820190508181036000830152614f9b81614f5f565b9050919050565b600081519050919050565b600082825260208201905092915050565b6000614fc982614fa2565b614fd38185614fad565b9350614fe3818560208601613821565b614fec81613854565b840191505092915050565b600060808201905061500c6000830187613955565b6150196020830186613955565b61502660408301856139eb565b81810360608301526150388184614fbe565b905095945050505050565b60008151905061505281613776565b92915050565b60006020828403121561506e5761506d613740565b5b600061507c84828501615043565b91505092915050565b7f4e487b7100000000000000000000000000000000000000000000000000000000600052601260045260246000fd5b60006150bf826138c0565b91506150ca836138c0565b9250826150da576150d9615085565b5b828204905092915050565b60006150f0826138c0565b91506150fb836138c0565b92508261510b5761510a615085565b5b828206905092915050565b7f4552433732313a206d696e7420746f20746865207a65726f2061646472657373600082015250565b600061514c602083613810565b915061515782615116565b602082019050919050565b6000602082019050818103600083015261517b8161513f565b9050919050565b7f4552433732313a20746f6b656e20616c7265616479206d696e74656400000000600082015250565b60006151b8601c83613810565b91506151c382615182565b602082019050919050565b600060208201905081810360008301526151e7816151ab565b9050919050565b7f4e487b7100000000000000000000000000000000000000000000000000000000600052603160045260246000fdfea2646970667358221220ae4dafa38a69504492e73572c8a607308d6c81d0f9a7dc5d8a36764c27dc102964736f6c634300080a0033",
  "immutableReferences": {},
  "source": "// SPDX-License-Identifier: MIT\npragma solidity >=0.4.22 <0.9.0;\n\nimport \"./BaseContract.sol\";\n\ncontract NftV2 is BaseContract {\n    using CountersUpgradeable for CountersUpgradeable.Counter;\n    CountersUpgradeable.Counter internal _tokenIdCounter;\n    mapping(uint256 => address) tokensToOwner;\n\n    mapping(string => bool) _tokenExists;\n    mapping(address => bool) _userExists;\n\n    function initialize(\n        string memory _name,\n        string memory _symbol,\n        string memory _baseTokenURI\n    ) public override(BaseContract) initializer {\n        BaseContract.initialize(_name, _symbol, _baseTokenURI);\n    }\n\n    function mint(address to, string memory cid) public returns (uint256 _id) {\n        require(!_tokenExists[cid], \"Object already exists\");\n\n        _id = _tokenIdCounter.current();\n        _grantRole(MINTER_ROLE, to);\n        safeMint(to, cid);\n\n        return _id;\n    }\n\n    function safeMint(address to, string memory uri)\n        public\n        onlyRole(MINTER_ROLE)\n    {\n        uint256 tokenId = _tokenIdCounter.current();\n        _safeMint(to, tokenId);\n        _setTokenURI(tokenId, uri);\n        tokensToOwner[tokenId] = to;\n        tokenURIs[tokenId] = uri;\n        _tokenExists[uri] = true;\n\n        _setTokenURI(tokenId, uri);\n        _tokenIdCounter.increment();\n    }\n\n    function tokensOfOwner(address _owner)\n        public\n        view\n        returns (string[] memory)\n    {\n        uint256 tokenCount = balanceOf(_owner);\n        uint256[] memory tokensId = new uint256[](tokenCount);\n        string[] memory userTokens = new string[](tokenCount);\n\n        for (uint256 i = 0; i < tokenCount; i++) {\n            tokensId[i] = tokenOfOwnerByIndex(_owner, i);\n            if (tokensId[i] == i) {\n                userTokens[i] = tokenURIs[i];\n            }\n        }\n        return userTokens;\n    }\n\n    function tokenURI(uint256 tokenId)\n        public\n        view\n        override(BaseContract)\n        returns (string memory)\n    {\n        return super.tokenURI(tokenId);\n    }\n\n    function _baseURI()\n        internal\n        view\n        virtual\n        override(BaseContract)\n        returns (string memory)\n    {\n        return super._baseURI();\n    }\n\n    function _burn(uint256 tokenId) internal virtual override(BaseContract) {\n        super._burn(tokenId);\n    }\n\n    // The following functions are overrides for ERC721Enumerable required by Solidity.\n    function _beforeTokenTransfer(\n        address from,\n        address to,\n        uint256 tokenId\n    ) internal override(BaseContract) {\n        super._beforeTokenTransfer(from, to, tokenId);\n    }\n\n    function supportsInterface(bytes4 interfaceId)\n        public\n        view\n        override(BaseContract)\n        returns (bool)\n    {\n        return super.supportsInterface(interfaceId);\n    }\n}\n",
  "sourcePath": "/Users/lenahierzi/Developer/consensys/blockchain-developer-bootcamp-final-project/contracts/NftV2.sol",
  "compiler": {
    "name": "solc",
    "version": "0.8.10+commit.fc410830.Emscripten.clang"
  },
  "schemaVersion": "3.4.3",
  "updatedAt": "2021-11-29T21:57:43.868Z",
  "devdoc": {
    "kind": "dev",
    "methods": {
      "approve(address,uint256)": {
        "details": "See {IERC721-approve}."
      },
      "balanceOf(address)": {
        "details": "See {IERC721-balanceOf}."
      },
      "getApproved(uint256)": {
        "details": "See {IERC721-getApproved}."
      },
      "getRoleAdmin(bytes32)": {
        "details": "Returns the admin role that controls `role`. See {grantRole} and {revokeRole}. To change a role's admin, use {_setRoleAdmin}."
      },
      "grantRole(bytes32,address)": {
        "details": "Grants `role` to `account`. If `account` had not been already granted `role`, emits a {RoleGranted} event. Requirements: - the caller must have ``role``'s admin role."
      },
      "hasRole(bytes32,address)": {
        "details": "Returns `true` if `account` has been granted `role`."
      },
      "isApprovedForAll(address,address)": {
        "details": "See {IERC721-isApprovedForAll}."
      },
      "name()": {
        "details": "See {IERC721Metadata-name}."
      },
      "owner()": {
        "details": "Returns the address of the current owner."
      },
      "ownerOf(uint256)": {
        "details": "See {IERC721-ownerOf}."
      },
      "renounceOwnership()": {
        "details": "Leaves the contract without owner. It will not be possible to call `onlyOwner` functions anymore. Can only be called by the current owner. NOTE: Renouncing ownership will leave the contract without an owner, thereby removing any functionality that is only available to the owner."
      },
      "renounceRole(bytes32,address)": {
        "details": "Revokes `role` from the calling account. Roles are often managed via {grantRole} and {revokeRole}: this function's purpose is to provide a mechanism for accounts to lose their privileges if they are compromised (such as when a trusted device is misplaced). If the calling account had been revoked `role`, emits a {RoleRevoked} event. Requirements: - the caller must be `account`."
      },
      "revokeRole(bytes32,address)": {
        "details": "Revokes `role` from `account`. If `account` had been granted `role`, emits a {RoleRevoked} event. Requirements: - the caller must have ``role``'s admin role."
      },
      "safeTransferFrom(address,address,uint256)": {
        "details": "See {IERC721-safeTransferFrom}."
      },
      "safeTransferFrom(address,address,uint256,bytes)": {
        "details": "See {IERC721-safeTransferFrom}."
      },
      "setApprovalForAll(address,bool)": {
        "details": "See {IERC721-setApprovalForAll}."
      },
      "symbol()": {
        "details": "See {IERC721Metadata-symbol}."
      },
      "tokenByIndex(uint256)": {
        "details": "See {IERC721Enumerable-tokenByIndex}."
      },
      "tokenOfOwnerByIndex(address,uint256)": {
        "details": "See {IERC721Enumerable-tokenOfOwnerByIndex}."
      },
      "totalSupply()": {
        "details": "See {IERC721Enumerable-totalSupply}."
      },
      "transferFrom(address,address,uint256)": {
        "details": "See {IERC721-transferFrom}."
      },
      "transferOwnership(address)": {
        "details": "Transfers ownership of the contract to a new account (`newOwner`). Can only be called by the current owner."
      }
    },
    "version": 1
  },
  "userdoc": {
    "kind": "user",
    "methods": {},
    "version": 1
  }
}