{
  "contractName": "NftV2",
  "abi": [
    {
      "anonymous": false,
      "inputs": [
        {
          "indexed": true,
          "internalType": "address",
          "name": "owner",
          "type": "address"
        },
        {
          "indexed": true,
          "internalType": "address",
          "name": "approved",
          "type": "address"
        },
        {
          "indexed": true,
          "internalType": "uint256",
          "name": "tokenId",
          "type": "uint256"
        }
      ],
      "name": "Approval",
      "type": "event"
    },
    {
      "anonymous": false,
      "inputs": [
        {
          "indexed": true,
          "internalType": "address",
          "name": "owner",
          "type": "address"
        },
        {
          "indexed": true,
          "internalType": "address",
          "name": "operator",
          "type": "address"
        },
        {
          "indexed": false,
          "internalType": "bool",
          "name": "approved",
          "type": "bool"
        }
      ],
      "name": "ApprovalForAll",
      "type": "event"
    },
    {
      "anonymous": false,
      "inputs": [
        {
          "indexed": true,
          "internalType": "address",
          "name": "previousOwner",
          "type": "address"
        },
        {
          "indexed": true,
          "internalType": "address",
          "name": "newOwner",
          "type": "address"
        }
      ],
      "name": "OwnershipTransferred",
      "type": "event"
    },
    {
      "anonymous": false,
      "inputs": [
        {
          "indexed": true,
          "internalType": "bytes32",
          "name": "role",
          "type": "bytes32"
        },
        {
          "indexed": true,
          "internalType": "bytes32",
          "name": "previousAdminRole",
          "type": "bytes32"
        },
        {
          "indexed": true,
          "internalType": "bytes32",
          "name": "newAdminRole",
          "type": "bytes32"
        }
      ],
      "name": "RoleAdminChanged",
      "type": "event"
    },
    {
      "anonymous": false,
      "inputs": [
        {
          "indexed": true,
          "internalType": "bytes32",
          "name": "role",
          "type": "bytes32"
        },
        {
          "indexed": true,
          "internalType": "address",
          "name": "account",
          "type": "address"
        },
        {
          "indexed": true,
          "internalType": "address",
          "name": "sender",
          "type": "address"
        }
      ],
      "name": "RoleGranted",
      "type": "event"
    },
    {
      "anonymous": false,
      "inputs": [
        {
          "indexed": true,
          "internalType": "bytes32",
          "name": "role",
          "type": "bytes32"
        },
        {
          "indexed": true,
          "internalType": "address",
          "name": "account",
          "type": "address"
        },
        {
          "indexed": true,
          "internalType": "address",
          "name": "sender",
          "type": "address"
        }
      ],
      "name": "RoleRevoked",
      "type": "event"
    },
    {
      "anonymous": false,
      "inputs": [
        {
          "indexed": true,
          "internalType": "address",
          "name": "from",
          "type": "address"
        },
        {
          "indexed": true,
          "internalType": "address",
          "name": "to",
          "type": "address"
        },
        {
          "indexed": true,
          "internalType": "uint256",
          "name": "tokenId",
          "type": "uint256"
        }
      ],
      "name": "Transfer",
      "type": "event"
    },
    {
      "inputs": [],
      "name": "DEFAULT_ADMIN_ROLE",
      "outputs": [
        {
          "internalType": "bytes32",
          "name": "",
          "type": "bytes32"
        }
      ],
      "stateMutability": "view",
      "type": "function"
    },
    {
      "inputs": [],
      "name": "MAX_PER_MINT",
      "outputs": [
        {
          "internalType": "uint256",
          "name": "",
          "type": "uint256"
        }
      ],
      "stateMutability": "view",
      "type": "function"
    },
    {
      "inputs": [],
      "name": "MAX_SUPPLY",
      "outputs": [
        {
          "internalType": "uint256",
          "name": "",
          "type": "uint256"
        }
      ],
      "stateMutability": "view",
      "type": "function"
    },
    {
      "inputs": [],
      "name": "MINTER_ROLE",
      "outputs": [
        {
          "internalType": "bytes32",
          "name": "",
          "type": "bytes32"
        }
      ],
      "stateMutability": "view",
      "type": "function"
    },
    {
      "inputs": [],
      "name": "PRICE",
      "outputs": [
        {
          "internalType": "uint256",
          "name": "",
          "type": "uint256"
        }
      ],
      "stateMutability": "view",
      "type": "function"
    },
    {
      "inputs": [
        {
          "internalType": "address",
          "name": "to",
          "type": "address"
        },
        {
          "internalType": "uint256",
          "name": "tokenId",
          "type": "uint256"
        }
      ],
      "name": "approve",
      "outputs": [],
      "stateMutability": "nonpayable",
      "type": "function"
    },
    {
      "inputs": [
        {
          "internalType": "address",
          "name": "owner",
          "type": "address"
        }
      ],
      "name": "balanceOf",
      "outputs": [
        {
          "internalType": "uint256",
          "name": "",
          "type": "uint256"
        }
      ],
      "stateMutability": "view",
      "type": "function"
    },
    {
      "inputs": [],
      "name": "baseTokenURI",
      "outputs": [
        {
          "internalType": "string",
          "name": "",
          "type": "string"
        }
      ],
      "stateMutability": "view",
      "type": "function"
    },
    {
      "inputs": [
        {
          "internalType": "uint256",
          "name": "tokenId",
          "type": "uint256"
        }
      ],
      "name": "getApproved",
      "outputs": [
        {
          "internalType": "address",
          "name": "",
          "type": "address"
        }
      ],
      "stateMutability": "view",
      "type": "function"
    },
    {
      "inputs": [
        {
          "internalType": "bytes32",
          "name": "role",
          "type": "bytes32"
        }
      ],
      "name": "getRoleAdmin",
      "outputs": [
        {
          "internalType": "bytes32",
          "name": "",
          "type": "bytes32"
        }
      ],
      "stateMutability": "view",
      "type": "function"
    },
    {
      "inputs": [
        {
          "internalType": "bytes32",
          "name": "role",
          "type": "bytes32"
        },
        {
          "internalType": "address",
          "name": "account",
          "type": "address"
        }
      ],
      "name": "grantRole",
      "outputs": [],
      "stateMutability": "nonpayable",
      "type": "function"
    },
    {
      "inputs": [
        {
          "internalType": "bytes32",
          "name": "role",
          "type": "bytes32"
        },
        {
          "internalType": "address",
          "name": "account",
          "type": "address"
        }
      ],
      "name": "hasRole",
      "outputs": [
        {
          "internalType": "bool",
          "name": "",
          "type": "bool"
        }
      ],
      "stateMutability": "view",
      "type": "function"
    },
    {
      "inputs": [
        {
          "internalType": "address",
          "name": "owner",
          "type": "address"
        },
        {
          "internalType": "address",
          "name": "operator",
          "type": "address"
        }
      ],
      "name": "isApprovedForAll",
      "outputs": [
        {
          "internalType": "bool",
          "name": "",
          "type": "bool"
        }
      ],
      "stateMutability": "view",
      "type": "function"
    },
    {
      "inputs": [],
      "name": "name",
      "outputs": [
        {
          "internalType": "string",
          "name": "",
          "type": "string"
        }
      ],
      "stateMutability": "view",
      "type": "function"
    },
    {
      "inputs": [],
      "name": "owner",
      "outputs": [
        {
          "internalType": "address",
          "name": "",
          "type": "address"
        }
      ],
      "stateMutability": "view",
      "type": "function"
    },
    {
      "inputs": [
        {
          "internalType": "uint256",
          "name": "tokenId",
          "type": "uint256"
        }
      ],
      "name": "ownerOf",
      "outputs": [
        {
          "internalType": "address",
          "name": "",
          "type": "address"
        }
      ],
      "stateMutability": "view",
      "type": "function"
    },
    {
      "inputs": [],
      "name": "renounceOwnership",
      "outputs": [],
      "stateMutability": "nonpayable",
      "type": "function"
    },
    {
      "inputs": [
        {
          "internalType": "bytes32",
          "name": "role",
          "type": "bytes32"
        },
        {
          "internalType": "address",
          "name": "account",
          "type": "address"
        }
      ],
      "name": "renounceRole",
      "outputs": [],
      "stateMutability": "nonpayable",
      "type": "function"
    },
    {
      "inputs": [
        {
          "internalType": "bytes32",
          "name": "role",
          "type": "bytes32"
        },
        {
          "internalType": "address",
          "name": "account",
          "type": "address"
        }
      ],
      "name": "revokeRole",
      "outputs": [],
      "stateMutability": "nonpayable",
      "type": "function"
    },
    {
      "inputs": [
        {
          "internalType": "address",
          "name": "from",
          "type": "address"
        },
        {
          "internalType": "address",
          "name": "to",
          "type": "address"
        },
        {
          "internalType": "uint256",
          "name": "tokenId",
          "type": "uint256"
        }
      ],
      "name": "safeTransferFrom",
      "outputs": [],
      "stateMutability": "nonpayable",
      "type": "function"
    },
    {
      "inputs": [
        {
          "internalType": "address",
          "name": "from",
          "type": "address"
        },
        {
          "internalType": "address",
          "name": "to",
          "type": "address"
        },
        {
          "internalType": "uint256",
          "name": "tokenId",
          "type": "uint256"
        },
        {
          "internalType": "bytes",
          "name": "_data",
          "type": "bytes"
        }
      ],
      "name": "safeTransferFrom",
      "outputs": [],
      "stateMutability": "nonpayable",
      "type": "function"
    },
    {
      "inputs": [
        {
          "internalType": "address",
          "name": "operator",
          "type": "address"
        },
        {
          "internalType": "bool",
          "name": "approved",
          "type": "bool"
        }
      ],
      "name": "setApprovalForAll",
      "outputs": [],
      "stateMutability": "nonpayable",
      "type": "function"
    },
    {
      "inputs": [
        {
          "internalType": "string",
          "name": "baseURI_",
          "type": "string"
        }
      ],
      "name": "setBaseURI",
      "outputs": [],
      "stateMutability": "nonpayable",
      "type": "function"
    },
    {
      "inputs": [],
      "name": "symbol",
      "outputs": [
        {
          "internalType": "string",
          "name": "",
          "type": "string"
        }
      ],
      "stateMutability": "view",
      "type": "function"
    },
    {
      "inputs": [
        {
          "internalType": "uint256",
          "name": "index",
          "type": "uint256"
        }
      ],
      "name": "tokenByIndex",
      "outputs": [
        {
          "internalType": "uint256",
          "name": "",
          "type": "uint256"
        }
      ],
      "stateMutability": "view",
      "type": "function"
    },
    {
      "inputs": [
        {
          "internalType": "address",
          "name": "owner",
          "type": "address"
        },
        {
          "internalType": "uint256",
          "name": "index",
          "type": "uint256"
        }
      ],
      "name": "tokenOfOwnerByIndex",
      "outputs": [
        {
          "internalType": "uint256",
          "name": "",
          "type": "uint256"
        }
      ],
      "stateMutability": "view",
      "type": "function"
    },
    {
      "inputs": [],
      "name": "totalSupply",
      "outputs": [
        {
          "internalType": "uint256",
          "name": "",
          "type": "uint256"
        }
      ],
      "stateMutability": "view",
      "type": "function"
    },
    {
      "inputs": [
        {
          "internalType": "address",
          "name": "from",
          "type": "address"
        },
        {
          "internalType": "address",
          "name": "to",
          "type": "address"
        },
        {
          "internalType": "uint256",
          "name": "tokenId",
          "type": "uint256"
        }
      ],
      "name": "transferFrom",
      "outputs": [],
      "stateMutability": "nonpayable",
      "type": "function"
    },
    {
      "inputs": [
        {
          "internalType": "address",
          "name": "newOwner",
          "type": "address"
        }
      ],
      "name": "transferOwnership",
      "outputs": [],
      "stateMutability": "nonpayable",
      "type": "function"
    },
    {
      "inputs": [
        {
          "internalType": "string",
          "name": "_name",
          "type": "string"
        },
        {
          "internalType": "string",
          "name": "_symbol",
          "type": "string"
        },
        {
          "internalType": "string",
          "name": "_baseTokenURI",
          "type": "string"
        },
        {
          "internalType": "address",
          "name": "_owner",
          "type": "address"
        }
      ],
      "name": "initialize",
      "outputs": [],
      "stateMutability": "nonpayable",
      "type": "function"
    },
    {
      "inputs": [
        {
          "internalType": "address",
          "name": "to",
          "type": "address"
        },
        {
          "internalType": "string",
          "name": "cid",
          "type": "string"
        }
      ],
      "name": "mint",
      "outputs": [
        {
          "internalType": "uint256",
          "name": "_id",
          "type": "uint256"
        }
      ],
      "stateMutability": "nonpayable",
      "type": "function"
    },
    {
      "inputs": [
        {
          "internalType": "address",
          "name": "to",
          "type": "address"
        },
        {
          "internalType": "string",
          "name": "uri",
          "type": "string"
        }
      ],
      "name": "safeMint",
      "outputs": [],
      "stateMutability": "nonpayable",
      "type": "function"
    },
    {
      "inputs": [
        {
          "internalType": "address",
          "name": "_owner",
          "type": "address"
        }
      ],
      "name": "tokensOfOwner",
      "outputs": [
        {
          "internalType": "string[]",
          "name": "",
          "type": "string[]"
        }
      ],
      "stateMutability": "view",
      "type": "function"
    },
    {
      "inputs": [
        {
          "internalType": "uint256",
          "name": "tokenId",
          "type": "uint256"
        }
      ],
      "name": "tokenURI",
      "outputs": [
        {
          "internalType": "string",
          "name": "",
          "type": "string"
        }
      ],
      "stateMutability": "view",
      "type": "function"
    },
    {
      "inputs": [
        {
          "internalType": "bytes4",
          "name": "interfaceId",
          "type": "bytes4"
        }
      ],
      "name": "supportsInterface",
      "outputs": [
        {
          "internalType": "bool",
          "name": "",
          "type": "bool"
        }
      ],
      "stateMutability": "view",
      "type": "function"
    }
  ],
  "bytecode": "0x608060405234801561001057600080fd5b5061525c806100206000396000f3fe608060405234801561001057600080fd5b506004361061022e576000357c01000000000000000000000000000000000000000000000000000000009004806370a0823111610142578063b88d4fde116100ca578063d539139311610099578063d539139314610655578063d547741f14610673578063d547cfb71461068f578063e985e9c5146106ad578063f2fde38b146106dd5761022e565b8063b88d4fde146105bd578063c87b56dd146105d9578063d0def52114610609578063d204c45e146106395761022e565b80638da5cb5b116101115780638da5cb5b1461051757806391d148541461053557806395d89b4114610565578063a217fddf14610583578063a22cb465146105a15761022e565b806370a082311461048f578063715018a6146104bf5780638462151c146104c95780638d859f3e146104f95761022e565b80632f2ff15d116101c557806342842e0e1161019457806342842e0e146103db5780634f6ccce7146103f757806355f804b3146104275780635c6d8da1146104435780636352211e1461045f5761022e565b80632f2ff15d146103555780632f745c591461037157806332cb6b0c146103a157806336568abe146103bf5761022e565b806309d42b301161020157806309d42b30146102cd57806318160ddd146102eb57806323b872dd14610309578063248a9ca3146103255761022e565b806301ffc9a71461023357806306fdde0314610263578063081812fc14610281578063095ea7b3146102b1575b600080fd5b61024d60048036038101906102489190613797565b6106f9565b60405161025a91906137df565b60405180910390f35b61026b61070b565b6040516102789190613893565b60405180910390f35b61029b600480360381019061029691906138eb565b61079d565b6040516102a89190613959565b60405180910390f35b6102cb60048036038101906102c691906139a0565b610822565b005b6102d561093a565b6040516102e291906139ef565b60405180910390f35b6102f361093f565b60405161030091906139ef565b60405180910390f35b610323600480360381019061031e9190613a0a565b61094c565b005b61033f600480360381019061033a9190613a93565b6109ac565b60405161034c9190613acf565b60405180910390f35b61036f600480360381019061036a9190613aea565b6109cc565b005b61038b600480360381019061038691906139a0565b6109f5565b60405161039891906139ef565b60405180910390f35b6103a9610a9a565b6040516103b691906139ef565b60405180910390f35b6103d960048036038101906103d49190613aea565b610aa0565b005b6103f560048036038101906103f09190613a0a565b610b23565b005b610411600480360381019061040c91906138eb565b610b43565b60405161041e91906139ef565b60405180910390f35b610441600480360381019061043c9190613c5f565b610bb4565b005b61045d60048036038101906104589190613ca8565b610c4b565b005b610479600480360381019061047491906138eb565b610d34565b6040516104869190613959565b60405180910390f35b6104a960048036038101906104a49190613d63565b610de6565b6040516104b691906139ef565b60405180910390f35b6104c7610e9e565b005b6104e360048036038101906104de9190613d63565b610f26565b6040516104f09190613e9c565b60405180910390f35b610501611105565b60405161050e91906139ef565b60405180910390f35b61051f61110f565b60405161052c9190613959565b60405180910390f35b61054f600480360381019061054a9190613aea565b61113a565b60405161055c91906137df565b60405180910390f35b61056d6111a5565b60405161057a9190613893565b60405180910390f35b61058b611237565b6040516105989190613acf565b60405180910390f35b6105bb60048036038101906105b69190613eea565b61123f565b005b6105d760048036038101906105d29190613fcb565b611255565b005b6105f360048036038101906105ee91906138eb565b6112b7565b6040516106009190613893565b60405180910390f35b610623600480360381019061061e919061404e565b6112c9565b60405161063091906139ef565b60405180910390f35b610653600480360381019061064e919061404e565b61137f565b005b61065d6114a3565b60405161066a9190613acf565b60405180910390f35b61068d60048036038101906106889190613aea565b6114c7565b005b6106976114f0565b6040516106a49190613893565b60405180910390f35b6106c760048036038101906106c291906140aa565b61157f565b6040516106d491906137df565b60405180910390f35b6106f760048036038101906106f29190613d63565b611613565b005b60006107048261170b565b9050919050565b60606065805461071a90614119565b80601f016020809104026020016040519081016040528092919081815260200182805461074690614119565b80156107935780601f1061076857610100808354040283529160200191610793565b820191906000526020600020905b81548152906001019060200180831161077657829003601f168201915b5050505050905090565b60006107a88261171d565b6107e7576040517f08c379a00000000000000000000000000000000000000000000000000000000081526004016107de906141bd565b60405180910390fd5b6069600083815260200190815260200160002060009054906101000a900473ffffffffffffffffffffffffffffffffffffffff169050919050565b600061082d82610d34565b90508073ffffffffffffffffffffffffffffffffffffffff168373ffffffffffffffffffffffffffffffffffffffff16141561089e576040517f08c379a00000000000000000000000000000000000000000000000000000000081526004016108959061424f565b60405180910390fd5b8073ffffffffffffffffffffffffffffffffffffffff166108bd611789565b73ffffffffffffffffffffffffffffffffffffffff1614806108ec57506108eb816108e6611789565b61157f565b5b61092b576040517f08c379a0000000000000000000000000000000000000000000000000000000008152600401610922906142e1565b60405180910390fd5b6109358383611791565b505050565b606481565b600060fd80549050905090565b61095d610957611789565b8261184a565b61099c576040517f08c379a000000000000000000000000000000000000000000000000000000000815260040161099390614373565b60405180910390fd5b6109a7838383611928565b505050565b600060c96000838152602001908152602001600020600101549050919050565b6109d5826109ac565b6109e6816109e1611789565b611b84565b6109f08383611c22565b505050565b6000610a0083610de6565b8210610a41576040517f08c379a0000000000000000000000000000000000000000000000000000000008152600401610a3890614405565b60405180910390fd5b60fb60008473ffffffffffffffffffffffffffffffffffffffff1673ffffffffffffffffffffffffffffffffffffffff168152602001908152602001600020600083815260200190815260200160002054905092915050565b61c35081565b610aa8611789565b73ffffffffffffffffffffffffffffffffffffffff168173ffffffffffffffffffffffffffffffffffffffff1614610b15576040517f08c379a0000000000000000000000000000000000000000000000000000000008152600401610b0c90614497565b60405180910390fd5b610b1f8282611d03565b5050565b610b3e83838360405180602001604052806000815250611255565b505050565b6000610b4d61093f565b8210610b8e576040517f08c379a0000000000000000000000000000000000000000000000000000000008152600401610b8590614529565b60405180910390fd5b60fd8281548110610ba257610ba1614549565b5b90600052602060002001549050919050565b610bbc611789565b73ffffffffffffffffffffffffffffffffffffffff16610bda61110f565b73ffffffffffffffffffffffffffffffffffffffff1614610c30576040517f08c379a0000000000000000000000000000000000000000000000000000000008152600401610c27906145c4565b60405180910390fd5b806101619080519060200190610c47929190613688565b5050565b600060019054906101000a900460ff1680610c71575060008054906101000a900460ff16155b610cb0576040517f08c379a0000000000000000000000000000000000000000000000000000000008152600401610ca790614656565b60405180910390fd5b60008060019054906101000a900460ff161590508015610d00576001600060016101000a81548160ff02191690831515021790555060016000806101000a81548160ff0219169083151502179055505b610d0c85858585611de5565b8015610d2d5760008060016101000a81548160ff0219169083151502179055505b5050505050565b6000806067600084815260200190815260200160002060009054906101000a900473ffffffffffffffffffffffffffffffffffffffff169050600073ffffffffffffffffffffffffffffffffffffffff168173ffffffffffffffffffffffffffffffffffffffff161415610ddd576040517f08c379a0000000000000000000000000000000000000000000000000000000008152600401610dd4906146e8565b60405180910390fd5b80915050919050565b60008073ffffffffffffffffffffffffffffffffffffffff168273ffffffffffffffffffffffffffffffffffffffff161415610e57576040517f08c379a0000000000000000000000000000000000000000000000000000000008152600401610e4e9061477a565b60405180910390fd5b606860008373ffffffffffffffffffffffffffffffffffffffff1673ffffffffffffffffffffffffffffffffffffffff168152602001908152602001600020549050919050565b610ea6611789565b73ffffffffffffffffffffffffffffffffffffffff16610ec461110f565b73ffffffffffffffffffffffffffffffffffffffff1614610f1a576040517f08c379a0000000000000000000000000000000000000000000000000000000008152600401610f11906145c4565b60405180910390fd5b610f246000611f1c565b565b60606000610f3383610de6565b905060008167ffffffffffffffff811115610f5157610f50613b34565b5b604051908082528060200260200182016040528015610f7f5781602001602082028036833780820191505090505b50905060008267ffffffffffffffff811115610f9e57610f9d613b34565b5b604051908082528060200260200182016040528015610fd157816020015b6060815260200190600190039081610fbc5790505b50905060005b838110156110f957610fe986826109f5565b838281518110610ffc57610ffb614549565b5b6020026020010181815250508083828151811061101c5761101b614549565b5b602002602001015114156110e65761015f6000828152602001908152602001600020805461104990614119565b80601f016020809104026020016040519081016040528092919081815260200182805461107590614119565b80156110c25780601f10611097576101008083540402835291602001916110c2565b820191906000526020600020905b8154815290600101906020018083116110a557829003601f168201915b50505050508282815181106110da576110d9614549565b5b60200260200101819052505b80806110f1906147c9565b915050610fd7565b50809350505050919050565b655af3107a400081565b600061012d60009054906101000a900473ffffffffffffffffffffffffffffffffffffffff16905090565b600060c9600084815260200190815260200160002060000160008373ffffffffffffffffffffffffffffffffffffffff1673ffffffffffffffffffffffffffffffffffffffff16815260200190815260200160002060009054906101000a900460ff16905092915050565b6060606680546111b490614119565b80601f01602080910402602001604051908101604052809291908181526020018280546111e090614119565b801561122d5780601f106112025761010080835404028352916020019161122d565b820191906000526020600020905b81548152906001019060200180831161121057829003601f168201915b5050505050905090565b600060010281565b61125161124a611789565b8383611fe4565b5050565b611266611260611789565b8361184a565b6112a5576040517f08c379a000000000000000000000000000000000000000000000000000000000815260040161129c90614373565b60405180910390fd5b6112b184848484612151565b50505050565b60606112c2826121ad565b9050919050565b6000610164826040516112dc919061484e565b908152602001604051809103902060009054906101000a900460ff1615611338576040517f08c379a000000000000000000000000000000000000000000000000000000000815260040161132f906148b1565b60405180910390fd5b611343610162612321565b905061136f7f9f2df0fed2c77648de5860a4cc508cd0818c85b8b8a1ab4ceeef8d981c8956a684611c22565b611379838361137f565b92915050565b7f9f2df0fed2c77648de5860a4cc508cd0818c85b8b8a1ab4ceeef8d981c8956a66113b1816113ac611789565b611b84565b60006113be610162612321565b90506113ca848261232f565b6113d4818461234d565b83610163600083815260200190815260200160002060006101000a81548173ffffffffffffffffffffffffffffffffffffffff021916908373ffffffffffffffffffffffffffffffffffffffff1602179055508261015f6000838152602001908152602001600020908051906020019061144f929190613688565b50600161016484604051611463919061484e565b908152602001604051809103902060006101000a81548160ff021916908315150217905550611492818461234d565b61149d6101626123c2565b50505050565b7f9f2df0fed2c77648de5860a4cc508cd0818c85b8b8a1ab4ceeef8d981c8956a681565b6114d0826109ac565b6114e1816114dc611789565b611b84565b6114eb8383611d03565b505050565b61016080546114fe90614119565b80601f016020809104026020016040519081016040528092919081815260200182805461152a90614119565b80156115775780601f1061154c57610100808354040283529160200191611577565b820191906000526020600020905b81548152906001019060200180831161155a57829003601f168201915b505050505081565b6000606a60008473ffffffffffffffffffffffffffffffffffffffff1673ffffffffffffffffffffffffffffffffffffffff16815260200190815260200160002060008373ffffffffffffffffffffffffffffffffffffffff1673ffffffffffffffffffffffffffffffffffffffff16815260200190815260200160002060009054906101000a900460ff16905092915050565b61161b611789565b73ffffffffffffffffffffffffffffffffffffffff1661163961110f565b73ffffffffffffffffffffffffffffffffffffffff161461168f576040517f08c379a0000000000000000000000000000000000000000000000000000000008152600401611686906145c4565b60405180910390fd5b600073ffffffffffffffffffffffffffffffffffffffff168173ffffffffffffffffffffffffffffffffffffffff1614156116ff576040517f08c379a00000000000000000000000000000000000000000000000000000000081526004016116f690614943565b60405180910390fd5b61170881611f1c565b50565b6000611716826123d8565b9050919050565b60008073ffffffffffffffffffffffffffffffffffffffff166067600084815260200190815260200160002060009054906101000a900473ffffffffffffffffffffffffffffffffffffffff1673ffffffffffffffffffffffffffffffffffffffff1614159050919050565b600033905090565b816069600083815260200190815260200160002060006101000a81548173ffffffffffffffffffffffffffffffffffffffff021916908373ffffffffffffffffffffffffffffffffffffffff160217905550808273ffffffffffffffffffffffffffffffffffffffff1661180483610d34565b73ffffffffffffffffffffffffffffffffffffffff167f8c5be1e5ebec7d5bd14f71427d1e84f3dd0314c0f7b2291e5b200ac8c7c3b92560405160405180910390a45050565b60006118558261171d565b611894576040517f08c379a000000000000000000000000000000000000000000000000000000000815260040161188b906149d5565b60405180910390fd5b600061189f83610d34565b90508073ffffffffffffffffffffffffffffffffffffffff168473ffffffffffffffffffffffffffffffffffffffff16148061190e57508373ffffffffffffffffffffffffffffffffffffffff166118f68461079d565b73ffffffffffffffffffffffffffffffffffffffff16145b8061191f575061191e818561157f565b5b91505092915050565b8273ffffffffffffffffffffffffffffffffffffffff1661194882610d34565b73ffffffffffffffffffffffffffffffffffffffff161461199e576040517f08c379a000000000000000000000000000000000000000000000000000000000815260040161199590614a67565b60405180910390fd5b600073ffffffffffffffffffffffffffffffffffffffff168273ffffffffffffffffffffffffffffffffffffffff161415611a0e576040517f08c379a0000000000000000000000000000000000000000000000000000000008152600401611a0590614af9565b60405180910390fd5b611a19838383612452565b611a24600082611791565b6001606860008573ffffffffffffffffffffffffffffffffffffffff1673ffffffffffffffffffffffffffffffffffffffff1681526020019081526020016000206000828254611a749190614b19565b925050819055506001606860008473ffffffffffffffffffffffffffffffffffffffff1673ffffffffffffffffffffffffffffffffffffffff1681526020019081526020016000206000828254611acb9190614b4d565b92505081905550816067600083815260200190815260200160002060006101000a81548173ffffffffffffffffffffffffffffffffffffffff021916908373ffffffffffffffffffffffffffffffffffffffff160217905550808273ffffffffffffffffffffffffffffffffffffffff168473ffffffffffffffffffffffffffffffffffffffff167fddf252ad1be2c89b69c2b068fc378daa952ba7f163c4a11628f55a4df523b3ef60405160405180910390a4505050565b611b8e828261113a565b611c1e57611bb38173ffffffffffffffffffffffffffffffffffffffff166014612462565b611bc283600190046020612462565b604051602001611bd3929190614c3b565b6040516020818303038152906040526040517f08c379a0000000000000000000000000000000000000000000000000000000008152600401611c159190613893565b60405180910390fd5b5050565b611c2c828261113a565b611cff57600160c9600084815260200190815260200160002060000160008373ffffffffffffffffffffffffffffffffffffffff1673ffffffffffffffffffffffffffffffffffffffff16815260200190815260200160002060006101000a81548160ff021916908315150217905550611ca4611789565b73ffffffffffffffffffffffffffffffffffffffff168173ffffffffffffffffffffffffffffffffffffffff16837f2f8788117e7eff1d82e926ec794901d17c78024a50270940304540a733656f0d60405160405180910390a45b5050565b611d0d828261113a565b15611de157600060c9600084815260200190815260200160002060000160008373ffffffffffffffffffffffffffffffffffffffff1673ffffffffffffffffffffffffffffffffffffffff16815260200190815260200160002060006101000a81548160ff021916908315150217905550611d86611789565b73ffffffffffffffffffffffffffffffffffffffff168173ffffffffffffffffffffffffffffffffffffffff16837ff6391f5c32d9c69d2a47ea670b442974b53935d1edc7fd64eb21e047a839171b60405160405180910390a45b5050565b600060019054906101000a900460ff1680611e0b575060008054906101000a900460ff16155b611e4a576040517f08c379a0000000000000000000000000000000000000000000000000000000008152600401611e4190614656565b60405180910390fd5b60008060019054906101000a900460ff161590508015611e9a576001600060016101000a81548160ff02191690831515021790555060016000806101000a81548160ff0219169083151502179055505b611ea485856126c5565b826101609080519060200190611ebb929190613688565b50611eca600060010283611c22565b611ef47f9f2df0fed2c77648de5860a4cc508cd0818c85b8b8a1ab4ceeef8d981c8956a683611c22565b8015611f155760008060016101000a81548160ff0219169083151502179055505b5050505050565b600061012d60009054906101000a900473ffffffffffffffffffffffffffffffffffffffff1690508161012d60006101000a81548173ffffffffffffffffffffffffffffffffffffffff021916908373ffffffffffffffffffffffffffffffffffffffff1602179055508173ffffffffffffffffffffffffffffffffffffffff168173ffffffffffffffffffffffffffffffffffffffff167f8be0079c531659141344cd1fd0a4f28419497f9722a3daafe3b4186f6b6457e060405160405180910390a35050565b8173ffffffffffffffffffffffffffffffffffffffff168373ffffffffffffffffffffffffffffffffffffffff161415612053576040517f08c379a000000000000000000000000000000000000000000000000000000000815260040161204a90614cc1565b60405180910390fd5b80606a60008573ffffffffffffffffffffffffffffffffffffffff1673ffffffffffffffffffffffffffffffffffffffff16815260200190815260200160002060008473ffffffffffffffffffffffffffffffffffffffff1673ffffffffffffffffffffffffffffffffffffffff16815260200190815260200160002060006101000a81548160ff0219169083151502179055508173ffffffffffffffffffffffffffffffffffffffff168373ffffffffffffffffffffffffffffffffffffffff167f17307eab39ab6107e8899845ad3d59bd9653f200f220920489ca2b5937696c318360405161214491906137df565b60405180910390a3505050565b61215c848484611928565b612168848484846127ba565b6121a7576040517f08c379a000000000000000000000000000000000000000000000000000000000815260040161219e90614d53565b60405180910390fd5b50505050565b60606121b88261171d565b6121f7576040517f08c379a00000000000000000000000000000000000000000000000000000000081526004016121ee90614de5565b60405180910390fd5b600061015f6000848152602001908152602001600020805461221890614119565b80601f016020809104026020016040519081016040528092919081815260200182805461224490614119565b80156122915780601f1061226657610100808354040283529160200191612291565b820191906000526020600020905b81548152906001019060200180831161227457829003601f168201915b5050505050905060006122a261297a565b90506000815114156122b857819250505061231c565b6000825111156122ed5780826040516020016122d5929190614e05565b6040516020818303038152906040529250505061231c565b806122f785612989565b604051602001612308929190614e05565b604051602081830303815290604052925050505b919050565b600081600001549050919050565b612349828260405180602001604052806000815250612b09565b5050565b6123568261171d565b612395576040517f08c379a000000000000000000000000000000000000000000000000000000000815260040161238c90614e9b565b60405180910390fd5b8061015f600084815260200190815260200160002090805190602001906123bd929190613688565b505050565b6001816000016000828254019250508190555050565b60007f780e9d63000000000000000000000000000000000000000000000000000000007bffffffffffffffffffffffffffffffffffffffffffffffffffffffff1916827bffffffffffffffffffffffffffffffffffffffffffffffffffffffff1916148061244b575061244a82612b64565b5b9050919050565b61245d838383612bde565b505050565b6060600060028360026124759190614ebb565b61247f9190614b4d565b67ffffffffffffffff81111561249857612497613b34565b5b6040519080825280601f01601f1916602001820160405280156124ca5781602001600182028036833780820191505090505b5090507f30000000000000000000000000000000000000000000000000000000000000008160008151811061250257612501614549565b5b60200101907effffffffffffffffffffffffffffffffffffffffffffffffffffffffffffff1916908160001a9053507f78000000000000000000000000000000000000000000000000000000000000008160018151811061256657612565614549565b5b60200101907effffffffffffffffffffffffffffffffffffffffffffffffffffffffffffff1916908160001a905350600060018460026125a69190614ebb565b6125b09190614b4d565b90505b6001811115612677577f3031323334353637383961626364656600000000000000000000000000000000600f8616601081106125f2576125f1614549565b5b1a7f01000000000000000000000000000000000000000000000000000000000000000282828151811061262857612627614549565b5b60200101907effffffffffffffffffffffffffffffffffffffffffffffffffffffffffffff1916908160001a905350600485908060020a820491505094508061267090614f15565b90506125b3565b50600084146126bb576040517f08c379a00000000000000000000000000000000000000000000000000000000081526004016126b290614f8b565b60405180910390fd5b8091505092915050565b600060019054906101000a900460ff16806126eb575060008054906101000a900460ff16155b61272a576040517f08c379a000000000000000000000000000000000000000000000000000000000815260040161272190614656565b60405180910390fd5b60008060019054906101000a900460ff16159050801561277a576001600060016101000a81548160ff02191690831515021790555060016000806101000a81548160ff0219169083151502179055505b612782612bee565b61278a612cc7565b6127948383612da0565b80156127b55760008060016101000a81548160ff0219169083151502179055505b505050565b60006127db8473ffffffffffffffffffffffffffffffffffffffff16612ea9565b1561296d578373ffffffffffffffffffffffffffffffffffffffff1663150b7a02612804611789565b8786866040518563ffffffff167c01000000000000000000000000000000000000000000000000000000000281526004016128429493929190615000565b6020604051808303816000875af192505050801561287e57506040513d601f19601f8201168201806040525081019061287b9190615061565b60015b612901573d80600081146128ae576040519150601f19603f3d011682016040523d82523d6000602084013e6128b3565b606091505b506000815114156128f9576040517f08c379a00000000000000000000000000000000000000000000000000000000081526004016128f090614d53565b60405180910390fd5b805181602001fd5b63150b7a027c0100000000000000000000000000000000000000000000000000000000027bffffffffffffffffffffffffffffffffffffffffffffffffffffffff1916817bffffffffffffffffffffffffffffffffffffffffffffffffffffffff191614915050612972565b600190505b949350505050565b6060612984612ebc565b905090565b606060008214156129d1576040518060400160405280600181526020017f30000000000000000000000000000000000000000000000000000000000000008152509050612b04565b600082905060005b60008214612a035780806129ec906147c9565b915050600a826129fc91906150bd565b91506129d9565b60008167ffffffffffffffff811115612a1f57612a1e613b34565b5b6040519080825280601f01601f191660200182016040528015612a515781602001600182028036833780820191505090505b5090505b60008514612afd57600182612a6a9190614b19565b9150600a85612a7991906150ee565b6030612a859190614b4d565b7f010000000000000000000000000000000000000000000000000000000000000002818381518110612aba57612ab9614549565b5b60200101907effffffffffffffffffffffffffffffffffffffffffffffffffffffffffffff1916908160001a905350600a85612af691906150bd565b9450612a55565b8093505050505b919050565b612b138383612f4f565b612b2060008484846127ba565b612b5f576040517f08c379a0000000000000000000000000000000000000000000000000000000008152600401612b5690614d53565b60405180910390fd5b505050565b60007f7965db0b000000000000000000000000000000000000000000000000000000007bffffffffffffffffffffffffffffffffffffffffffffffffffffffff1916827bffffffffffffffffffffffffffffffffffffffffffffffffffffffff19161480612bd75750612bd68261311d565b5b9050919050565b612be98383836131ff565b505050565b600060019054906101000a900460ff1680612c14575060008054906101000a900460ff16155b612c53576040517f08c379a0000000000000000000000000000000000000000000000000000000008152600401612c4a90614656565b60405180910390fd5b60008060019054906101000a900460ff161590508015612ca3576001600060016101000a81548160ff02191690831515021790555060016000806101000a81548160ff0219169083151502179055505b8015612cc45760008060016101000a81548160ff0219169083151502179055505b50565b600060019054906101000a900460ff1680612ced575060008054906101000a900460ff16155b612d2c576040517f08c379a0000000000000000000000000000000000000000000000000000000008152600401612d2390614656565b60405180910390fd5b60008060019054906101000a900460ff161590508015612d7c576001600060016101000a81548160ff02191690831515021790555060016000806101000a81548160ff0219169083151502179055505b8015612d9d5760008060016101000a81548160ff0219169083151502179055505b50565b600060019054906101000a900460ff1680612dc6575060008054906101000a900460ff16155b612e05576040517f08c379a0000000000000000000000000000000000000000000000000000000008152600401612dfc90614656565b60405180910390fd5b60008060019054906101000a900460ff161590508015612e55576001600060016101000a81548160ff02191690831515021790555060016000806101000a81548160ff0219169083151502179055505b8260659080519060200190612e6b929190613688565b508160669080519060200190612e82929190613688565b508015612ea45760008060016101000a81548160ff0219169083151502179055505b505050565b600080823b905060008111915050919050565b60606101618054612ecc90614119565b80601f0160208091040260200160405190810160405280929190818152602001828054612ef890614119565b8015612f455780601f10612f1a57610100808354040283529160200191612f45565b820191906000526020600020905b815481529060010190602001808311612f2857829003601f168201915b5050505050905090565b600073ffffffffffffffffffffffffffffffffffffffff168273ffffffffffffffffffffffffffffffffffffffff161415612fbf576040517f08c379a0000000000000000000000000000000000000000000000000000000008152600401612fb69061516b565b60405180910390fd5b612fc88161171d565b15613008576040517f08c379a0000000000000000000000000000000000000000000000000000000008152600401612fff906151d7565b60405180910390fd5b61301460008383612452565b6001606860008473ffffffffffffffffffffffffffffffffffffffff1673ffffffffffffffffffffffffffffffffffffffff16815260200190815260200160002060008282546130649190614b4d565b92505081905550816067600083815260200190815260200160002060006101000a81548173ffffffffffffffffffffffffffffffffffffffff021916908373ffffffffffffffffffffffffffffffffffffffff160217905550808273ffffffffffffffffffffffffffffffffffffffff16600073ffffffffffffffffffffffffffffffffffffffff167fddf252ad1be2c89b69c2b068fc378daa952ba7f163c4a11628f55a4df523b3ef60405160405180910390a45050565b60007f80ac58cd000000000000000000000000000000000000000000000000000000007bffffffffffffffffffffffffffffffffffffffffffffffffffffffff1916827bffffffffffffffffffffffffffffffffffffffffffffffffffffffff191614806131e857507f5b5e139f000000000000000000000000000000000000000000000000000000007bffffffffffffffffffffffffffffffffffffffffffffffffffffffff1916827bffffffffffffffffffffffffffffffffffffffffffffffffffffffff1916145b806131f857506131f782613313565b5b9050919050565b61320a83838361337d565b600073ffffffffffffffffffffffffffffffffffffffff168373ffffffffffffffffffffffffffffffffffffffff16141561324d5761324881613382565b61328c565b8173ffffffffffffffffffffffffffffffffffffffff168373ffffffffffffffffffffffffffffffffffffffff161461328b5761328a83826133cb565b5b5b600073ffffffffffffffffffffffffffffffffffffffff168273ffffffffffffffffffffffffffffffffffffffff1614156132cf576132ca81613538565b61330e565b8273ffffffffffffffffffffffffffffffffffffffff168273ffffffffffffffffffffffffffffffffffffffff161461330d5761330c8282613609565b5b5b505050565b60007f01ffc9a7000000000000000000000000000000000000000000000000000000007bffffffffffffffffffffffffffffffffffffffffffffffffffffffff1916827bffffffffffffffffffffffffffffffffffffffffffffffffffffffff1916149050919050565b505050565b60fd8054905060fe60008381526020019081526020016000208190555060fd81908060018154018082558091505060019003906000526020600020016000909190919091505550565b600060016133d884610de6565b6133e29190614b19565b9050600060fc60008481526020019081526020016000205490508181146134c757600060fb60008673ffffffffffffffffffffffffffffffffffffffff1673ffffffffffffffffffffffffffffffffffffffff16815260200190815260200160002060008481526020019081526020016000205490508060fb60008773ffffffffffffffffffffffffffffffffffffffff1673ffffffffffffffffffffffffffffffffffffffff1681526020019081526020016000206000848152602001908152602001600020819055508160fc600083815260200190815260200160002081905550505b60fc60008481526020019081526020016000206000905560fb60008573ffffffffffffffffffffffffffffffffffffffff1673ffffffffffffffffffffffffffffffffffffffff16815260200190815260200160002060008381526020019081526020016000206000905550505050565b6000600160fd8054905061354c9190614b19565b9050600060fe6000848152602001908152602001600020549050600060fd838154811061357c5761357b614549565b5b906000526020600020015490508060fd838154811061359e5761359d614549565b5b90600052602060002001819055508160fe60008381526020019081526020016000208190555060fe60008581526020019081526020016000206000905560fd8054806135ed576135ec6151f7565b5b6001900381819060005260206000200160009055905550505050565b600061361483610de6565b90508160fb60008573ffffffffffffffffffffffffffffffffffffffff1673ffffffffffffffffffffffffffffffffffffffff1681526020019081526020016000206000838152602001908152602001600020819055508060fc600084815260200190815260200160002081905550505050565b82805461369490614119565b90600052602060002090601f0160209004810192826136b657600085556136fd565b82601f106136cf57805160ff19168380011785556136fd565b828001600101855582156136fd579182015b828111156136fc5782518255916020019190600101906136e1565b5b50905061370a919061370e565b5090565b5b8082111561372757600081600090555060010161370f565b5090565b6000604051905090565b600080fd5b600080fd5b60007fffffffff0000000000000000000000000000000000000000000000000000000082169050919050565b6137748161373f565b811461377f57600080fd5b50565b6000813590506137918161376b565b92915050565b6000602082840312156137ad576137ac613735565b5b60006137bb84828501613782565b91505092915050565b60008115159050919050565b6137d9816137c4565b82525050565b60006020820190506137f460008301846137d0565b92915050565b600081519050919050565b600082825260208201905092915050565b60005b83811015613834578082015181840152602081019050613819565b83811115613843576000848401525b50505050565b6000601f19601f8301169050919050565b6000613865826137fa565b61386f8185613805565b935061387f818560208601613816565b61388881613849565b840191505092915050565b600060208201905081810360008301526138ad818461385a565b905092915050565b6000819050919050565b6138c8816138b5565b81146138d357600080fd5b50565b6000813590506138e5816138bf565b92915050565b60006020828403121561390157613900613735565b5b600061390f848285016138d6565b91505092915050565b600073ffffffffffffffffffffffffffffffffffffffff82169050919050565b600061394382613918565b9050919050565b61395381613938565b82525050565b600060208201905061396e600083018461394a565b92915050565b61397d81613938565b811461398857600080fd5b50565b60008135905061399a81613974565b92915050565b600080604083850312156139b7576139b6613735565b5b60006139c58582860161398b565b92505060206139d6858286016138d6565b9150509250929050565b6139e9816138b5565b82525050565b6000602082019050613a0460008301846139e0565b92915050565b600080600060608486031215613a2357613a22613735565b5b6000613a318682870161398b565b9350506020613a428682870161398b565b9250506040613a53868287016138d6565b9150509250925092565b6000819050919050565b613a7081613a5d565b8114613a7b57600080fd5b50565b600081359050613a8d81613a67565b92915050565b600060208284031215613aa957613aa8613735565b5b6000613ab784828501613a7e565b91505092915050565b613ac981613a5d565b82525050565b6000602082019050613ae46000830184613ac0565b92915050565b60008060408385031215613b0157613b00613735565b5b6000613b0f85828601613a7e565b9250506020613b208582860161398b565b9150509250929050565b600080fd5b600080fd5b7f4e487b7100000000000000000000000000000000000000000000000000000000600052604160045260246000fd5b613b6c82613849565b810181811067ffffffffffffffff82111715613b8b57613b8a613b34565b5b80604052505050565b6000613b9e61372b565b9050613baa8282613b63565b919050565b600067ffffffffffffffff821115613bca57613bc9613b34565b5b613bd382613849565b9050602081019050919050565b82818337600083830152505050565b6000613c02613bfd84613baf565b613b94565b905082815260208101848484011115613c1e57613c1d613b2f565b5b613c29848285613be0565b509392505050565b600082601f830112613c4657613c45613b2a565b5b8135613c56848260208601613bef565b91505092915050565b600060208284031215613c7557613c74613735565b5b600082013567ffffffffffffffff811115613c9357613c9261373a565b5b613c9f84828501613c31565b91505092915050565b60008060008060808587031215613cc257613cc1613735565b5b600085013567ffffffffffffffff811115613ce057613cdf61373a565b5b613cec87828801613c31565b945050602085013567ffffffffffffffff811115613d0d57613d0c61373a565b5b613d1987828801613c31565b935050604085013567ffffffffffffffff811115613d3a57613d3961373a565b5b613d4687828801613c31565b9250506060613d578782880161398b565b91505092959194509250565b600060208284031215613d7957613d78613735565b5b6000613d878482850161398b565b91505092915050565b600081519050919050565b600082825260208201905092915050565b6000819050602082019050919050565b600082825260208201905092915050565b6000613dd8826137fa565b613de28185613dbc565b9350613df2818560208601613816565b613dfb81613849565b840191505092915050565b6000613e128383613dcd565b905092915050565b6000602082019050919050565b6000613e3282613d90565b613e3c8185613d9b565b935083602082028501613e4e85613dac565b8060005b85811015613e8a5784840389528151613e6b8582613e06565b9450613e7683613e1a565b925060208a01995050600181019050613e52565b50829750879550505050505092915050565b60006020820190508181036000830152613eb68184613e27565b905092915050565b613ec7816137c4565b8114613ed257600080fd5b50565b600081359050613ee481613ebe565b92915050565b60008060408385031215613f0157613f00613735565b5b6000613f0f8582860161398b565b9250506020613f2085828601613ed5565b9150509250929050565b600067ffffffffffffffff821115613f4557613f44613b34565b5b613f4e82613849565b9050602081019050919050565b6000613f6e613f6984613f2a565b613b94565b905082815260208101848484011115613f8a57613f89613b2f565b5b613f95848285613be0565b509392505050565b600082601f830112613fb257613fb1613b2a565b5b8135613fc2848260208601613f5b565b91505092915050565b60008060008060808587031215613fe557613fe4613735565b5b6000613ff38782880161398b565b94505060206140048782880161398b565b9350506040614015878288016138d6565b925050606085013567ffffffffffffffff8111156140365761403561373a565b5b61404287828801613f9d565b91505092959194509250565b6000806040838503121561406557614064613735565b5b60006140738582860161398b565b925050602083013567ffffffffffffffff8111156140945761409361373a565b5b6140a085828601613c31565b9150509250929050565b600080604083850312156140c1576140c0613735565b5b60006140cf8582860161398b565b92505060206140e08582860161398b565b9150509250929050565b7f4e487b7100000000000000000000000000000000000000000000000000000000600052602260045260246000fd5b6000600282049050600182168061413157607f821691505b60208210811415614145576141446140ea565b5b50919050565b7f4552433732313a20617070726f76656420717565727920666f72206e6f6e657860008201527f697374656e7420746f6b656e0000000000000000000000000000000000000000602082015250565b60006141a7602c83613805565b91506141b28261414b565b604082019050919050565b600060208201905081810360008301526141d68161419a565b9050919050565b7f4552433732313a20617070726f76616c20746f2063757272656e74206f776e6560008201527f7200000000000000000000000000000000000000000000000000000000000000602082015250565b6000614239602183613805565b9150614244826141dd565b604082019050919050565b600060208201905081810360008301526142688161422c565b9050919050565b7f4552433732313a20617070726f76652063616c6c6572206973206e6f74206f7760008201527f6e6572206e6f7220617070726f76656420666f7220616c6c0000000000000000602082015250565b60006142cb603883613805565b91506142d68261426f565b604082019050919050565b600060208201905081810360008301526142fa816142be565b9050919050565b7f4552433732313a207472616e736665722063616c6c6572206973206e6f74206f60008201527f776e6572206e6f7220617070726f766564000000000000000000000000000000602082015250565b600061435d603183613805565b915061436882614301565b604082019050919050565b6000602082019050818103600083015261438c81614350565b9050919050565b7f455243373231456e756d657261626c653a206f776e657220696e646578206f7560008201527f74206f6620626f756e6473000000000000000000000000000000000000000000602082015250565b60006143ef602b83613805565b91506143fa82614393565b604082019050919050565b6000602082019050818103600083015261441e816143e2565b9050919050565b7f416363657373436f6e74726f6c3a2063616e206f6e6c792072656e6f756e636560008201527f20726f6c657320666f722073656c660000000000000000000000000000000000602082015250565b6000614481602f83613805565b915061448c82614425565b604082019050919050565b600060208201905081810360008301526144b081614474565b9050919050565b7f455243373231456e756d657261626c653a20676c6f62616c20696e646578206f60008201527f7574206f6620626f756e64730000000000000000000000000000000000000000602082015250565b6000614513602c83613805565b915061451e826144b7565b604082019050919050565b6000602082019050818103600083015261454281614506565b9050919050565b7f4e487b7100000000000000000000000000000000000000000000000000000000600052603260045260246000fd5b7f4f776e61626c653a2063616c6c6572206973206e6f7420746865206f776e6572600082015250565b60006145ae602083613805565b91506145b982614578565b602082019050919050565b600060208201905081810360008301526145dd816145a1565b9050919050565b7f496e697469616c697a61626c653a20636f6e747261637420697320616c72656160008201527f647920696e697469616c697a6564000000000000000000000000000000000000602082015250565b6000614640602e83613805565b915061464b826145e4565b604082019050919050565b6000602082019050818103600083015261466f81614633565b9050919050565b7f4552433732313a206f776e657220717565727920666f72206e6f6e657869737460008201527f656e7420746f6b656e0000000000000000000000000000000000000000000000602082015250565b60006146d2602983613805565b91506146dd82614676565b604082019050919050565b60006020820190508181036000830152614701816146c5565b9050919050565b7f4552433732313a2062616c616e636520717565727920666f7220746865207a6560008201527f726f206164647265737300000000000000000000000000000000000000000000602082015250565b6000614764602a83613805565b915061476f82614708565b604082019050919050565b6000602082019050818103600083015261479381614757565b9050919050565b7f4e487b7100000000000000000000000000000000000000000000000000000000600052601160045260246000fd5b60006147d4826138b5565b91507fffffffffffffffffffffffffffffffffffffffffffffffffffffffffffffffff8214156148075761480661479a565b5b600182019050919050565b600081905092915050565b6000614828826137fa565b6148328185614812565b9350614842818560208601613816565b80840191505092915050565b600061485a828461481d565b915081905092915050565b7f4f626a65637420616c7265616479206578697374730000000000000000000000600082015250565b600061489b601583613805565b91506148a682614865565b602082019050919050565b600060208201905081810360008301526148ca8161488e565b9050919050565b7f4f776e61626c653a206e6577206f776e657220697320746865207a65726f206160008201527f6464726573730000000000000000000000000000000000000000000000000000602082015250565b600061492d602683613805565b9150614938826148d1565b604082019050919050565b6000602082019050818103600083015261495c81614920565b9050919050565b7f4552433732313a206f70657261746f7220717565727920666f72206e6f6e657860008201527f697374656e7420746f6b656e0000000000000000000000000000000000000000602082015250565b60006149bf602c83613805565b91506149ca82614963565b604082019050919050565b600060208201905081810360008301526149ee816149b2565b9050919050565b7f4552433732313a207472616e73666572206f6620746f6b656e2074686174206960008201527f73206e6f74206f776e0000000000000000000000000000000000000000000000602082015250565b6000614a51602983613805565b9150614a5c826149f5565b604082019050919050565b60006020820190508181036000830152614a8081614a44565b9050919050565b7f4552433732313a207472616e7366657220746f20746865207a65726f2061646460008201527f7265737300000000000000000000000000000000000000000000000000000000602082015250565b6000614ae3602483613805565b9150614aee82614a87565b604082019050919050565b60006020820190508181036000830152614b1281614ad6565b9050919050565b6000614b24826138b5565b9150614b2f836138b5565b925082821015614b4257614b4161479a565b5b828203905092915050565b6000614b58826138b5565b9150614b63836138b5565b9250827fffffffffffffffffffffffffffffffffffffffffffffffffffffffffffffffff03821115614b9857614b9761479a565b5b828201905092915050565b7f416363657373436f6e74726f6c3a206163636f756e7420000000000000000000600082015250565b6000614bd9601783614812565b9150614be482614ba3565b601782019050919050565b7f206973206d697373696e6720726f6c6520000000000000000000000000000000600082015250565b6000614c25601183614812565b9150614c3082614bef565b601182019050919050565b6000614c4682614bcc565b9150614c52828561481d565b9150614c5d82614c18565b9150614c69828461481d565b91508190509392505050565b7f4552433732313a20617070726f766520746f2063616c6c657200000000000000600082015250565b6000614cab601983613805565b9150614cb682614c75565b602082019050919050565b60006020820190508181036000830152614cda81614c9e565b9050919050565b7f4552433732313a207472616e7366657220746f206e6f6e20455243373231526560008201527f63656976657220696d706c656d656e7465720000000000000000000000000000602082015250565b6000614d3d603283613805565b9150614d4882614ce1565b604082019050919050565b60006020820190508181036000830152614d6c81614d30565b9050919050565b7f4552433732314d657461646174613a2055524920717565727920666f72206e6f60008201527f6e6578697374656e7420746f6b656e0000000000000000000000000000000000602082015250565b6000614dcf602f83613805565b9150614dda82614d73565b604082019050919050565b60006020820190508181036000830152614dfe81614dc2565b9050919050565b6000614e11828561481d565b9150614e1d828461481d565b91508190509392505050565b7f4552433732314d657461646174613a2055524920736574206f66206e6f6e657860008201527f697374656e7420746f6b656e0000000000000000000000000000000000000000602082015250565b6000614e85602c83613805565b9150614e9082614e29565b604082019050919050565b60006020820190508181036000830152614eb481614e78565b9050919050565b6000614ec6826138b5565b9150614ed1836138b5565b9250817fffffffffffffffffffffffffffffffffffffffffffffffffffffffffffffffff0483118215151615614f0a57614f0961479a565b5b828202905092915050565b6000614f20826138b5565b91506000821415614f3457614f3361479a565b5b600182039050919050565b7f537472696e67733a20686578206c656e67746820696e73756666696369656e74600082015250565b6000614f75602083613805565b9150614f8082614f3f565b602082019050919050565b60006020820190508181036000830152614fa481614f68565b9050919050565b600081519050919050565b600082825260208201905092915050565b6000614fd282614fab565b614fdc8185614fb6565b9350614fec818560208601613816565b614ff581613849565b840191505092915050565b6000608082019050615015600083018761394a565b615022602083018661394a565b61502f60408301856139e0565b81810360608301526150418184614fc7565b905095945050505050565b60008151905061505b8161376b565b92915050565b60006020828403121561507757615076613735565b5b60006150858482850161504c565b91505092915050565b7f4e487b7100000000000000000000000000000000000000000000000000000000600052601260045260246000fd5b60006150c8826138b5565b91506150d3836138b5565b9250826150e3576150e261508e565b5b828204905092915050565b60006150f9826138b5565b9150615104836138b5565b9250826151145761511361508e565b5b828206905092915050565b7f4552433732313a206d696e7420746f20746865207a65726f2061646472657373600082015250565b6000615155602083613805565b91506151608261511f565b602082019050919050565b6000602082019050818103600083015261518481615148565b9050919050565b7f4552433732313a20746f6b656e20616c7265616479206d696e74656400000000600082015250565b60006151c1601c83613805565b91506151cc8261518b565b602082019050919050565b600060208201905081810360008301526151f0816151b4565b9050919050565b7f4e487b7100000000000000000000000000000000000000000000000000000000600052603160045260246000fdfea2646970667358221220f98af1949c60577ba0476c16a02a6e0315b51a0cc9a3328afad949049d53ff3164736f6c634300080a0033",
  "immutableReferences": {},
  "source": "// SPDX-License-Identifier: MIT\npragma solidity >=0.4.22 <0.9.0;\n\nimport \"./SetTokenUri.sol\";\n\ncontract NftV2 is SetTokenUri {\n    using CountersUpgradeable for CountersUpgradeable.Counter;\n    CountersUpgradeable.Counter internal _tokenIdCounter;\n    mapping(uint256 => address) tokensToOwner;\n\n    mapping(string => bool) _tokenExists;\n    mapping(address => bool) _userExists;\n\n    function initialize(\n        string memory _name,\n        string memory _symbol,\n        string memory _baseTokenURI,\n        address _owner\n    ) public override(SetTokenUri) initializer {\n        SetTokenUri.initialize(_name, _symbol, _baseTokenURI, _owner);\n    }\n\n    function mint(address to, string memory cid) public returns (uint256 _id) {\n        require(!_tokenExists[cid], \"Object already exists\");\n\n        _id = _tokenIdCounter.current();\n        _grantRole(MINTER_ROLE, to);\n        safeMint(to, cid);\n\n        return _id;\n    }\n\n    function safeMint(address to, string memory uri)\n        public\n        onlyRole(MINTER_ROLE)\n    {\n        uint256 tokenId = _tokenIdCounter.current();\n        _safeMint(to, tokenId);\n        _setTokenURI(tokenId, uri);\n        tokensToOwner[tokenId] = to;\n        tokenURIs[tokenId] = uri;\n        _tokenExists[uri] = true;\n\n        _setTokenURI(tokenId, uri);\n        _tokenIdCounter.increment();\n    }\n\n    function tokensOfOwner(address _owner)\n        public\n        view\n        returns (string[] memory)\n    {\n        uint256 tokenCount = balanceOf(_owner);\n        uint256[] memory tokensId = new uint256[](tokenCount);\n        string[] memory userTokens = new string[](tokenCount);\n\n        for (uint256 i = 0; i < tokenCount; i++) {\n            tokensId[i] = tokenOfOwnerByIndex(_owner, i);\n            if (tokensId[i] == i) {\n                userTokens[i] = tokenURIs[i];\n            }\n        }\n        return userTokens;\n    }\n\n    function tokenURI(uint256 tokenId)\n        public\n        view\n        override(SetTokenUri)\n        returns (string memory)\n    {\n        return super.tokenURI(tokenId);\n    }\n\n    function _baseURI()\n        internal\n        view\n        virtual\n        override(SetTokenUri)\n        returns (string memory)\n    {\n        return super._baseURI();\n    }\n\n    function _burn(uint256 tokenId) internal virtual override(SetTokenUri) {\n        super._burn(tokenId);\n    }\n\n    // The following functions are overrides for ERC721Enumerable required by Solidity.\n    function _beforeTokenTransfer(\n        address from,\n        address to,\n        uint256 tokenId\n    ) internal override(SetTokenUri) {\n        super._beforeTokenTransfer(from, to, tokenId);\n    }\n\n    function supportsInterface(bytes4 interfaceId)\n        public\n        view\n        override(SetTokenUri)\n        returns (bool)\n    {\n        return super.supportsInterface(interfaceId);\n    }\n}\n",
  "sourcePath": "/Users/lenahierzi/Developer/consensys/blockchain-developer-bootcamp-final-project/contracts/NftV2.sol",
  "compiler": {
    "name": "solc",
    "version": "0.8.10+commit.fc410830.Emscripten.clang"
  },
  "schemaVersion": "3.4.3",
  "updatedAt": "2021-11-29T21:40:03.770Z",
  "networkType": "ethereum",
  "devdoc": {
    "kind": "dev",
    "methods": {
      "approve(address,uint256)": {
        "details": "See {IERC721-approve}."
      },
      "balanceOf(address)": {
        "details": "See {IERC721-balanceOf}."
      },
      "getApproved(uint256)": {
        "details": "See {IERC721-getApproved}."
      },
      "getRoleAdmin(bytes32)": {
        "details": "Returns the admin role that controls `role`. See {grantRole} and {revokeRole}. To change a role's admin, use {_setRoleAdmin}."
      },
      "grantRole(bytes32,address)": {
        "details": "Grants `role` to `account`. If `account` had not been already granted `role`, emits a {RoleGranted} event. Requirements: - the caller must have ``role``'s admin role."
      },
      "hasRole(bytes32,address)": {
        "details": "Returns `true` if `account` has been granted `role`."
      },
      "isApprovedForAll(address,address)": {
        "details": "See {IERC721-isApprovedForAll}."
      },
      "name()": {
        "details": "See {IERC721Metadata-name}."
      },
      "owner()": {
        "details": "Returns the address of the current owner."
      },
      "ownerOf(uint256)": {
        "details": "See {IERC721-ownerOf}."
      },
      "renounceOwnership()": {
        "details": "Leaves the contract without owner. It will not be possible to call `onlyOwner` functions anymore. Can only be called by the current owner. NOTE: Renouncing ownership will leave the contract without an owner, thereby removing any functionality that is only available to the owner."
      },
      "renounceRole(bytes32,address)": {
        "details": "Revokes `role` from the calling account. Roles are often managed via {grantRole} and {revokeRole}: this function's purpose is to provide a mechanism for accounts to lose their privileges if they are compromised (such as when a trusted device is misplaced). If the calling account had been revoked `role`, emits a {RoleRevoked} event. Requirements: - the caller must be `account`."
      },
      "revokeRole(bytes32,address)": {
        "details": "Revokes `role` from `account`. If `account` had been granted `role`, emits a {RoleRevoked} event. Requirements: - the caller must have ``role``'s admin role."
      },
      "safeTransferFrom(address,address,uint256)": {
        "details": "See {IERC721-safeTransferFrom}."
      },
      "safeTransferFrom(address,address,uint256,bytes)": {
        "details": "See {IERC721-safeTransferFrom}."
      },
      "setApprovalForAll(address,bool)": {
        "details": "See {IERC721-setApprovalForAll}."
      },
      "symbol()": {
        "details": "See {IERC721Metadata-symbol}."
      },
      "tokenByIndex(uint256)": {
        "details": "See {IERC721Enumerable-tokenByIndex}."
      },
      "tokenOfOwnerByIndex(address,uint256)": {
        "details": "See {IERC721Enumerable-tokenOfOwnerByIndex}."
      },
      "totalSupply()": {
        "details": "See {IERC721Enumerable-totalSupply}."
      },
      "transferFrom(address,address,uint256)": {
        "details": "See {IERC721-transferFrom}."
      },
      "transferOwnership(address)": {
        "details": "Transfers ownership of the contract to a new account (`newOwner`). Can only be called by the current owner."
      }
    },
    "version": 1
  },
  "userdoc": {
    "kind": "user",
    "methods": {},
    "version": 1
  }
}