{
  "contractName": "NftV2",
  "abi": [
    {
      "anonymous": false,
      "inputs": [
        {
          "indexed": true,
          "internalType": "address",
          "name": "owner",
          "type": "address"
        },
        {
          "indexed": true,
          "internalType": "address",
          "name": "approved",
          "type": "address"
        },
        {
          "indexed": true,
          "internalType": "uint256",
          "name": "tokenId",
          "type": "uint256"
        }
      ],
      "name": "Approval",
      "type": "event"
    },
    {
      "anonymous": false,
      "inputs": [
        {
          "indexed": true,
          "internalType": "address",
          "name": "owner",
          "type": "address"
        },
        {
          "indexed": true,
          "internalType": "address",
          "name": "operator",
          "type": "address"
        },
        {
          "indexed": false,
          "internalType": "bool",
          "name": "approved",
          "type": "bool"
        }
      ],
      "name": "ApprovalForAll",
      "type": "event"
    },
    {
      "anonymous": false,
      "inputs": [
        {
          "indexed": true,
          "internalType": "address",
          "name": "previousOwner",
          "type": "address"
        },
        {
          "indexed": true,
          "internalType": "address",
          "name": "newOwner",
          "type": "address"
        }
      ],
      "name": "OwnershipTransferred",
      "type": "event"
    },
    {
      "anonymous": false,
      "inputs": [
        {
          "indexed": true,
          "internalType": "bytes32",
          "name": "role",
          "type": "bytes32"
        },
        {
          "indexed": true,
          "internalType": "bytes32",
          "name": "previousAdminRole",
          "type": "bytes32"
        },
        {
          "indexed": true,
          "internalType": "bytes32",
          "name": "newAdminRole",
          "type": "bytes32"
        }
      ],
      "name": "RoleAdminChanged",
      "type": "event"
    },
    {
      "anonymous": false,
      "inputs": [
        {
          "indexed": true,
          "internalType": "bytes32",
          "name": "role",
          "type": "bytes32"
        },
        {
          "indexed": true,
          "internalType": "address",
          "name": "account",
          "type": "address"
        },
        {
          "indexed": true,
          "internalType": "address",
          "name": "sender",
          "type": "address"
        }
      ],
      "name": "RoleGranted",
      "type": "event"
    },
    {
      "anonymous": false,
      "inputs": [
        {
          "indexed": true,
          "internalType": "bytes32",
          "name": "role",
          "type": "bytes32"
        },
        {
          "indexed": true,
          "internalType": "address",
          "name": "account",
          "type": "address"
        },
        {
          "indexed": true,
          "internalType": "address",
          "name": "sender",
          "type": "address"
        }
      ],
      "name": "RoleRevoked",
      "type": "event"
    },
    {
      "anonymous": false,
      "inputs": [
        {
          "indexed": true,
          "internalType": "address",
          "name": "from",
          "type": "address"
        },
        {
          "indexed": true,
          "internalType": "address",
          "name": "to",
          "type": "address"
        },
        {
          "indexed": true,
          "internalType": "uint256",
          "name": "tokenId",
          "type": "uint256"
        }
      ],
      "name": "Transfer",
      "type": "event"
    },
    {
      "inputs": [],
      "name": "DEFAULT_ADMIN_ROLE",
      "outputs": [
        {
          "internalType": "bytes32",
          "name": "",
          "type": "bytes32"
        }
      ],
      "stateMutability": "view",
      "type": "function"
    },
    {
      "inputs": [],
      "name": "MAX_PER_MINT",
      "outputs": [
        {
          "internalType": "uint256",
          "name": "",
          "type": "uint256"
        }
      ],
      "stateMutability": "view",
      "type": "function"
    },
    {
      "inputs": [],
      "name": "MAX_SUPPLY",
      "outputs": [
        {
          "internalType": "uint256",
          "name": "",
          "type": "uint256"
        }
      ],
      "stateMutability": "view",
      "type": "function"
    },
    {
      "inputs": [],
      "name": "MINTER_ROLE",
      "outputs": [
        {
          "internalType": "bytes32",
          "name": "",
          "type": "bytes32"
        }
      ],
      "stateMutability": "view",
      "type": "function"
    },
    {
      "inputs": [],
      "name": "PRICE",
      "outputs": [
        {
          "internalType": "uint256",
          "name": "",
          "type": "uint256"
        }
      ],
      "stateMutability": "view",
      "type": "function"
    },
    {
      "inputs": [
        {
          "internalType": "address",
          "name": "to",
          "type": "address"
        },
        {
          "internalType": "uint256",
          "name": "tokenId",
          "type": "uint256"
        }
      ],
      "name": "approve",
      "outputs": [],
      "stateMutability": "nonpayable",
      "type": "function"
    },
    {
      "inputs": [
        {
          "internalType": "address",
          "name": "owner",
          "type": "address"
        }
      ],
      "name": "balanceOf",
      "outputs": [
        {
          "internalType": "uint256",
          "name": "",
          "type": "uint256"
        }
      ],
      "stateMutability": "view",
      "type": "function"
    },
    {
      "inputs": [],
      "name": "baseTokenURI",
      "outputs": [
        {
          "internalType": "string",
          "name": "",
          "type": "string"
        }
      ],
      "stateMutability": "view",
      "type": "function"
    },
    {
      "inputs": [
        {
          "internalType": "uint256",
          "name": "tokenId",
          "type": "uint256"
        }
      ],
      "name": "getApproved",
      "outputs": [
        {
          "internalType": "address",
          "name": "",
          "type": "address"
        }
      ],
      "stateMutability": "view",
      "type": "function"
    },
    {
      "inputs": [
        {
          "internalType": "bytes32",
          "name": "role",
          "type": "bytes32"
        }
      ],
      "name": "getRoleAdmin",
      "outputs": [
        {
          "internalType": "bytes32",
          "name": "",
          "type": "bytes32"
        }
      ],
      "stateMutability": "view",
      "type": "function"
    },
    {
      "inputs": [
        {
          "internalType": "bytes32",
          "name": "role",
          "type": "bytes32"
        },
        {
          "internalType": "address",
          "name": "account",
          "type": "address"
        }
      ],
      "name": "grantRole",
      "outputs": [],
      "stateMutability": "nonpayable",
      "type": "function"
    },
    {
      "inputs": [
        {
          "internalType": "bytes32",
          "name": "role",
          "type": "bytes32"
        },
        {
          "internalType": "address",
          "name": "account",
          "type": "address"
        }
      ],
      "name": "hasRole",
      "outputs": [
        {
          "internalType": "bool",
          "name": "",
          "type": "bool"
        }
      ],
      "stateMutability": "view",
      "type": "function"
    },
    {
      "inputs": [
        {
          "internalType": "address",
          "name": "owner",
          "type": "address"
        },
        {
          "internalType": "address",
          "name": "operator",
          "type": "address"
        }
      ],
      "name": "isApprovedForAll",
      "outputs": [
        {
          "internalType": "bool",
          "name": "",
          "type": "bool"
        }
      ],
      "stateMutability": "view",
      "type": "function"
    },
    {
      "inputs": [],
      "name": "name",
      "outputs": [
        {
          "internalType": "string",
          "name": "",
          "type": "string"
        }
      ],
      "stateMutability": "view",
      "type": "function"
    },
    {
      "inputs": [],
      "name": "owner",
      "outputs": [
        {
          "internalType": "address",
          "name": "",
          "type": "address"
        }
      ],
      "stateMutability": "view",
      "type": "function"
    },
    {
      "inputs": [
        {
          "internalType": "uint256",
          "name": "tokenId",
          "type": "uint256"
        }
      ],
      "name": "ownerOf",
      "outputs": [
        {
          "internalType": "address",
          "name": "",
          "type": "address"
        }
      ],
      "stateMutability": "view",
      "type": "function"
    },
    {
      "inputs": [],
      "name": "renounceOwnership",
      "outputs": [],
      "stateMutability": "nonpayable",
      "type": "function"
    },
    {
      "inputs": [
        {
          "internalType": "bytes32",
          "name": "role",
          "type": "bytes32"
        },
        {
          "internalType": "address",
          "name": "account",
          "type": "address"
        }
      ],
      "name": "renounceRole",
      "outputs": [],
      "stateMutability": "nonpayable",
      "type": "function"
    },
    {
      "inputs": [
        {
          "internalType": "bytes32",
          "name": "role",
          "type": "bytes32"
        },
        {
          "internalType": "address",
          "name": "account",
          "type": "address"
        }
      ],
      "name": "revokeRole",
      "outputs": [],
      "stateMutability": "nonpayable",
      "type": "function"
    },
    {
      "inputs": [
        {
          "internalType": "address",
          "name": "from",
          "type": "address"
        },
        {
          "internalType": "address",
          "name": "to",
          "type": "address"
        },
        {
          "internalType": "uint256",
          "name": "tokenId",
          "type": "uint256"
        }
      ],
      "name": "safeTransferFrom",
      "outputs": [],
      "stateMutability": "nonpayable",
      "type": "function"
    },
    {
      "inputs": [
        {
          "internalType": "address",
          "name": "from",
          "type": "address"
        },
        {
          "internalType": "address",
          "name": "to",
          "type": "address"
        },
        {
          "internalType": "uint256",
          "name": "tokenId",
          "type": "uint256"
        },
        {
          "internalType": "bytes",
          "name": "_data",
          "type": "bytes"
        }
      ],
      "name": "safeTransferFrom",
      "outputs": [],
      "stateMutability": "nonpayable",
      "type": "function"
    },
    {
      "inputs": [
        {
          "internalType": "address",
          "name": "operator",
          "type": "address"
        },
        {
          "internalType": "bool",
          "name": "approved",
          "type": "bool"
        }
      ],
      "name": "setApprovalForAll",
      "outputs": [],
      "stateMutability": "nonpayable",
      "type": "function"
    },
    {
      "inputs": [
        {
          "internalType": "string",
          "name": "baseURI_",
          "type": "string"
        }
      ],
      "name": "setBaseURI",
      "outputs": [],
      "stateMutability": "nonpayable",
      "type": "function"
    },
    {
      "inputs": [],
      "name": "symbol",
      "outputs": [
        {
          "internalType": "string",
          "name": "",
          "type": "string"
        }
      ],
      "stateMutability": "view",
      "type": "function"
    },
    {
      "inputs": [
        {
          "internalType": "uint256",
          "name": "index",
          "type": "uint256"
        }
      ],
      "name": "tokenByIndex",
      "outputs": [
        {
          "internalType": "uint256",
          "name": "",
          "type": "uint256"
        }
      ],
      "stateMutability": "view",
      "type": "function"
    },
    {
      "inputs": [
        {
          "internalType": "address",
          "name": "owner",
          "type": "address"
        },
        {
          "internalType": "uint256",
          "name": "index",
          "type": "uint256"
        }
      ],
      "name": "tokenOfOwnerByIndex",
      "outputs": [
        {
          "internalType": "uint256",
          "name": "",
          "type": "uint256"
        }
      ],
      "stateMutability": "view",
      "type": "function"
    },
    {
      "inputs": [],
      "name": "totalSupply",
      "outputs": [
        {
          "internalType": "uint256",
          "name": "",
          "type": "uint256"
        }
      ],
      "stateMutability": "view",
      "type": "function"
    },
    {
      "inputs": [
        {
          "internalType": "address",
          "name": "from",
          "type": "address"
        },
        {
          "internalType": "address",
          "name": "to",
          "type": "address"
        },
        {
          "internalType": "uint256",
          "name": "tokenId",
          "type": "uint256"
        }
      ],
      "name": "transferFrom",
      "outputs": [],
      "stateMutability": "nonpayable",
      "type": "function"
    },
    {
      "inputs": [
        {
          "internalType": "address",
          "name": "newOwner",
          "type": "address"
        }
      ],
      "name": "transferOwnership",
      "outputs": [],
      "stateMutability": "nonpayable",
      "type": "function"
    },
    {
      "inputs": [
        {
          "internalType": "string",
          "name": "_name",
          "type": "string"
        },
        {
          "internalType": "string",
          "name": "_symbol",
          "type": "string"
        },
        {
          "internalType": "string",
          "name": "_baseTokenURI",
          "type": "string"
        }
      ],
      "name": "initialize",
      "outputs": [],
      "stateMutability": "nonpayable",
      "type": "function"
    },
    {
      "inputs": [
        {
          "internalType": "address",
          "name": "to",
          "type": "address"
        },
        {
          "internalType": "string",
          "name": "cid",
          "type": "string"
        }
      ],
      "name": "mint",
      "outputs": [
        {
          "internalType": "uint256",
          "name": "_id",
          "type": "uint256"
        }
      ],
      "stateMutability": "nonpayable",
      "type": "function"
    },
    {
      "inputs": [
        {
          "internalType": "address",
          "name": "to",
          "type": "address"
        },
        {
          "internalType": "string",
          "name": "uri",
          "type": "string"
        }
      ],
      "name": "safeMint",
      "outputs": [],
      "stateMutability": "nonpayable",
      "type": "function"
    },
    {
      "inputs": [
        {
          "internalType": "address",
          "name": "_owner",
          "type": "address"
        }
      ],
      "name": "tokensOfOwner",
      "outputs": [
        {
          "internalType": "string[]",
          "name": "",
          "type": "string[]"
        }
      ],
      "stateMutability": "view",
      "type": "function"
    },
    {
      "inputs": [
        {
          "internalType": "uint256",
          "name": "tokenId",
          "type": "uint256"
        }
      ],
      "name": "tokenURI",
      "outputs": [
        {
          "internalType": "string",
          "name": "",
          "type": "string"
        }
      ],
      "stateMutability": "view",
      "type": "function"
    },
    {
      "inputs": [
        {
          "internalType": "bytes4",
          "name": "interfaceId",
          "type": "bytes4"
        }
      ],
      "name": "supportsInterface",
      "outputs": [
        {
          "internalType": "bool",
          "name": "",
          "type": "bool"
        }
      ],
      "stateMutability": "view",
      "type": "function"
    }
  ],
  "bytecode": "0x608060405234801561001057600080fd5b506151ca806100206000396000f3fe608060405234801561001057600080fd5b506004361061022e576000357c010000000000000000000000000000000000000000000000000000000090048063715018a611610142578063b88d4fde116100ca578063d539139311610099578063d539139314610655578063d547741f14610673578063d547cfb71461068f578063e985e9c5146106ad578063f2fde38b146106dd5761022e565b8063b88d4fde146105bd578063c87b56dd146105d9578063d0def52114610609578063d204c45e146106395761022e565b806391d148541161011157806391d148541461051957806395d89b4114610549578063a217fddf14610567578063a22cb46514610585578063a6487c53146105a15761022e565b8063715018a6146104a35780638462151c146104ad5780638d859f3e146104dd5780638da5cb5b146104fb5761022e565b80632f2ff15d116101c557806342842e0e1161019457806342842e0e146103db5780634f6ccce7146103f757806355f804b3146104275780636352211e1461044357806370a08231146104735761022e565b80632f2ff15d146103555780632f745c591461037157806332cb6b0c146103a157806336568abe146103bf5761022e565b806309d42b301161020157806309d42b30146102cd57806318160ddd146102eb57806323b872dd14610309578063248a9ca3146103255761022e565b806301ffc9a71461023357806306fdde0314610263578063081812fc14610281578063095ea7b3146102b1575b600080fd5b61024d600480360381019061024891906137e2565b6106f9565b60405161025a919061382a565b60405180910390f35b61026b61070b565b60405161027891906138de565b60405180910390f35b61029b60048036038101906102969190613936565b61079d565b6040516102a891906139a4565b60405180910390f35b6102cb60048036038101906102c691906139eb565b610822565b005b6102d561093a565b6040516102e29190613a3a565b60405180910390f35b6102f361093f565b6040516103009190613a3a565b60405180910390f35b610323600480360381019061031e9190613a55565b61094c565b005b61033f600480360381019061033a9190613ade565b6109ac565b60405161034c9190613b1a565b60405180910390f35b61036f600480360381019061036a9190613b35565b6109cc565b005b61038b600480360381019061038691906139eb565b6109f5565b6040516103989190613a3a565b60405180910390f35b6103a9610a9a565b6040516103b69190613a3a565b60405180910390f35b6103d960048036038101906103d49190613b35565b610aa0565b005b6103f560048036038101906103f09190613a55565b610b23565b005b610411600480360381019061040c9190613936565b610b43565b60405161041e9190613a3a565b60405180910390f35b610441600480360381019061043c9190613caa565b610bb4565b005b61045d60048036038101906104589190613936565b610c4b565b60405161046a91906139a4565b60405180910390f35b61048d60048036038101906104889190613cf3565b610cfd565b60405161049a9190613a3a565b60405180910390f35b6104ab610db5565b005b6104c760048036038101906104c29190613cf3565b610e3d565b6040516104d49190613e2c565b60405180910390f35b6104e561101c565b6040516104f29190613a3a565b60405180910390f35b610503611026565b60405161051091906139a4565b60405180910390f35b610533600480360381019061052e9190613b35565b611051565b604051610540919061382a565b60405180910390f35b6105516110bc565b60405161055e91906138de565b60405180910390f35b61056f61114e565b60405161057c9190613b1a565b60405180910390f35b61059f600480360381019061059a9190613e7a565b611156565b005b6105bb60048036038101906105b69190613eba565b61116c565b005b6105d760048036038101906105d29190614002565b611253565b005b6105f360048036038101906105ee9190613936565b6112b5565b60405161060091906138de565b60405180910390f35b610623600480360381019061061e9190614085565b6112c7565b6040516106309190613a3a565b60405180910390f35b610653600480360381019061064e9190614085565b61137d565b005b61065d6114a1565b60405161066a9190613b1a565b60405180910390f35b61068d60048036038101906106889190613b35565b6114c5565b005b6106976114ee565b6040516106a491906138de565b60405180910390f35b6106c760048036038101906106c291906140e1565b61157d565b6040516106d4919061382a565b60405180910390f35b6106f760048036038101906106f29190613cf3565b611611565b005b600061070482611709565b9050919050565b60606065805461071a90614150565b80601f016020809104026020016040519081016040528092919081815260200182805461074690614150565b80156107935780601f1061076857610100808354040283529160200191610793565b820191906000526020600020905b81548152906001019060200180831161077657829003601f168201915b5050505050905090565b60006107a88261171b565b6107e7576040517f08c379a00000000000000000000000000000000000000000000000000000000081526004016107de906141f4565b60405180910390fd5b6069600083815260200190815260200160002060009054906101000a900473ffffffffffffffffffffffffffffffffffffffff169050919050565b600061082d82610c4b565b90508073ffffffffffffffffffffffffffffffffffffffff168373ffffffffffffffffffffffffffffffffffffffff16141561089e576040517f08c379a000000000000000000000000000000000000000000000000000000000815260040161089590614286565b60405180910390fd5b8073ffffffffffffffffffffffffffffffffffffffff166108bd611787565b73ffffffffffffffffffffffffffffffffffffffff1614806108ec57506108eb816108e6611787565b61157d565b5b61092b576040517f08c379a000000000000000000000000000000000000000000000000000000000815260040161092290614318565b60405180910390fd5b610935838361178f565b505050565b606481565b600060fd80549050905090565b61095d610957611787565b82611848565b61099c576040517f08c379a0000000000000000000000000000000000000000000000000000000008152600401610993906143aa565b60405180910390fd5b6109a7838383611926565b505050565b600060c96000838152602001908152602001600020600101549050919050565b6109d5826109ac565b6109e6816109e1611787565b611b82565b6109f08383611c20565b505050565b6000610a0083610cfd565b8210610a41576040517f08c379a0000000000000000000000000000000000000000000000000000000008152600401610a389061443c565b60405180910390fd5b60fb60008473ffffffffffffffffffffffffffffffffffffffff1673ffffffffffffffffffffffffffffffffffffffff168152602001908152602001600020600083815260200190815260200160002054905092915050565b61c35081565b610aa8611787565b73ffffffffffffffffffffffffffffffffffffffff168173ffffffffffffffffffffffffffffffffffffffff1614610b15576040517f08c379a0000000000000000000000000000000000000000000000000000000008152600401610b0c906144ce565b60405180910390fd5b610b1f8282611d01565b5050565b610b3e83838360405180602001604052806000815250611253565b505050565b6000610b4d61093f565b8210610b8e576040517f08c379a0000000000000000000000000000000000000000000000000000000008152600401610b8590614560565b60405180910390fd5b60fd8281548110610ba257610ba1614580565b5b90600052602060002001549050919050565b610bbc611787565b73ffffffffffffffffffffffffffffffffffffffff16610bda611026565b73ffffffffffffffffffffffffffffffffffffffff1614610c30576040517f08c379a0000000000000000000000000000000000000000000000000000000008152600401610c27906145fb565b60405180910390fd5b8061015f9080519060200190610c479291906136d3565b5050565b6000806067600084815260200190815260200160002060009054906101000a900473ffffffffffffffffffffffffffffffffffffffff169050600073ffffffffffffffffffffffffffffffffffffffff168173ffffffffffffffffffffffffffffffffffffffff161415610cf4576040517f08c379a0000000000000000000000000000000000000000000000000000000008152600401610ceb9061468d565b60405180910390fd5b80915050919050565b60008073ffffffffffffffffffffffffffffffffffffffff168273ffffffffffffffffffffffffffffffffffffffff161415610d6e576040517f08c379a0000000000000000000000000000000000000000000000000000000008152600401610d659061471f565b60405180910390fd5b606860008373ffffffffffffffffffffffffffffffffffffffff1673ffffffffffffffffffffffffffffffffffffffff168152602001908152602001600020549050919050565b610dbd611787565b73ffffffffffffffffffffffffffffffffffffffff16610ddb611026565b73ffffffffffffffffffffffffffffffffffffffff1614610e31576040517f08c379a0000000000000000000000000000000000000000000000000000000008152600401610e28906145fb565b60405180910390fd5b610e3b6000611de3565b565b60606000610e4a83610cfd565b905060008167ffffffffffffffff811115610e6857610e67613b7f565b5b604051908082528060200260200182016040528015610e965781602001602082028036833780820191505090505b50905060008267ffffffffffffffff811115610eb557610eb4613b7f565b5b604051908082528060200260200182016040528015610ee857816020015b6060815260200190600190039081610ed35790505b50905060005b8381101561101057610f0086826109f5565b838281518110610f1357610f12614580565b5b60200260200101818152505080838281518110610f3357610f32614580565b5b60200260200101511415610ffd5761016160008281526020019081526020016000208054610f6090614150565b80601f0160208091040260200160405190810160405280929190818152602001828054610f8c90614150565b8015610fd95780601f10610fae57610100808354040283529160200191610fd9565b820191906000526020600020905b815481529060010190602001808311610fbc57829003601f168201915b5050505050828281518110610ff157610ff0614580565b5b60200260200101819052505b80806110089061476e565b915050610eee565b50809350505050919050565b655af3107a400081565b600061012d60009054906101000a900473ffffffffffffffffffffffffffffffffffffffff16905090565b600060c9600084815260200190815260200160002060000160008373ffffffffffffffffffffffffffffffffffffffff1673ffffffffffffffffffffffffffffffffffffffff16815260200190815260200160002060009054906101000a900460ff16905092915050565b6060606680546110cb90614150565b80601f01602080910402602001604051908101604052809291908181526020018280546110f790614150565b80156111445780601f1061111957610100808354040283529160200191611144565b820191906000526020600020905b81548152906001019060200180831161112757829003601f168201915b5050505050905090565b600060010281565b611168611161611787565b8383611eab565b5050565b600060019054906101000a900460ff1680611192575060008054906101000a900460ff16155b6111d1576040517f08c379a00000000000000000000000000000000000000000000000000000000081526004016111c890614829565b60405180910390fd5b60008060019054906101000a900460ff161590508015611221576001600060016101000a81548160ff02191690831515021790555060016000806101000a81548160ff0219169083151502179055505b61122c848484612018565b801561124d5760008060016101000a81548160ff0219169083151502179055505b50505050565b61126461125e611787565b83611848565b6112a3576040517f08c379a000000000000000000000000000000000000000000000000000000000815260040161129a906143aa565b60405180910390fd5b6112af8484848461215c565b50505050565b60606112c0826121b8565b9050919050565b6000610164826040516112da9190614885565b908152602001604051809103902060009054906101000a900460ff1615611336576040517f08c379a000000000000000000000000000000000000000000000000000000000815260040161132d906148e8565b60405180910390fd5b61134161016261234c565b905061136d7f9f2df0fed2c77648de5860a4cc508cd0818c85b8b8a1ab4ceeef8d981c8956a684611c20565b611377838361137d565b92915050565b7f9f2df0fed2c77648de5860a4cc508cd0818c85b8b8a1ab4ceeef8d981c8956a66113af816113aa611787565b611b82565b60006113bc61016261234c565b90506113c8848261235a565b6113d28184612378565b83610163600083815260200190815260200160002060006101000a81548173ffffffffffffffffffffffffffffffffffffffff021916908373ffffffffffffffffffffffffffffffffffffffff160217905550826101616000838152602001908152602001600020908051906020019061144d9291906136d3565b506001610164846040516114619190614885565b908152602001604051809103902060006101000a81548160ff0219169083151502179055506114908184612378565b61149b61016261240d565b50505050565b7f9f2df0fed2c77648de5860a4cc508cd0818c85b8b8a1ab4ceeef8d981c8956a681565b6114ce826109ac565b6114df816114da611787565b611b82565b6114e98383611d01565b505050565b61016080546114fc90614150565b80601f016020809104026020016040519081016040528092919081815260200182805461152890614150565b80156115755780601f1061154a57610100808354040283529160200191611575565b820191906000526020600020905b81548152906001019060200180831161155857829003601f168201915b505050505081565b6000606a60008473ffffffffffffffffffffffffffffffffffffffff1673ffffffffffffffffffffffffffffffffffffffff16815260200190815260200160002060008373ffffffffffffffffffffffffffffffffffffffff1673ffffffffffffffffffffffffffffffffffffffff16815260200190815260200160002060009054906101000a900460ff16905092915050565b611619611787565b73ffffffffffffffffffffffffffffffffffffffff16611637611026565b73ffffffffffffffffffffffffffffffffffffffff161461168d576040517f08c379a0000000000000000000000000000000000000000000000000000000008152600401611684906145fb565b60405180910390fd5b600073ffffffffffffffffffffffffffffffffffffffff168173ffffffffffffffffffffffffffffffffffffffff1614156116fd576040517f08c379a00000000000000000000000000000000000000000000000000000000081526004016116f49061497a565b60405180910390fd5b61170681611de3565b50565b600061171482612423565b9050919050565b60008073ffffffffffffffffffffffffffffffffffffffff166067600084815260200190815260200160002060009054906101000a900473ffffffffffffffffffffffffffffffffffffffff1673ffffffffffffffffffffffffffffffffffffffff1614159050919050565b600033905090565b816069600083815260200190815260200160002060006101000a81548173ffffffffffffffffffffffffffffffffffffffff021916908373ffffffffffffffffffffffffffffffffffffffff160217905550808273ffffffffffffffffffffffffffffffffffffffff1661180283610c4b565b73ffffffffffffffffffffffffffffffffffffffff167f8c5be1e5ebec7d5bd14f71427d1e84f3dd0314c0f7b2291e5b200ac8c7c3b92560405160405180910390a45050565b60006118538261171b565b611892576040517f08c379a000000000000000000000000000000000000000000000000000000000815260040161188990614a0c565b60405180910390fd5b600061189d83610c4b565b90508073ffffffffffffffffffffffffffffffffffffffff168473ffffffffffffffffffffffffffffffffffffffff16148061190c57508373ffffffffffffffffffffffffffffffffffffffff166118f48461079d565b73ffffffffffffffffffffffffffffffffffffffff16145b8061191d575061191c818561157d565b5b91505092915050565b8273ffffffffffffffffffffffffffffffffffffffff1661194682610c4b565b73ffffffffffffffffffffffffffffffffffffffff161461199c576040517f08c379a000000000000000000000000000000000000000000000000000000000815260040161199390614a9e565b60405180910390fd5b600073ffffffffffffffffffffffffffffffffffffffff168273ffffffffffffffffffffffffffffffffffffffff161415611a0c576040517f08c379a0000000000000000000000000000000000000000000000000000000008152600401611a0390614b30565b60405180910390fd5b611a1783838361249d565b611a2260008261178f565b6001606860008573ffffffffffffffffffffffffffffffffffffffff1673ffffffffffffffffffffffffffffffffffffffff1681526020019081526020016000206000828254611a729190614b50565b925050819055506001606860008473ffffffffffffffffffffffffffffffffffffffff1673ffffffffffffffffffffffffffffffffffffffff1681526020019081526020016000206000828254611ac99190614b84565b92505081905550816067600083815260200190815260200160002060006101000a81548173ffffffffffffffffffffffffffffffffffffffff021916908373ffffffffffffffffffffffffffffffffffffffff160217905550808273ffffffffffffffffffffffffffffffffffffffff168473ffffffffffffffffffffffffffffffffffffffff167fddf252ad1be2c89b69c2b068fc378daa952ba7f163c4a11628f55a4df523b3ef60405160405180910390a4505050565b611b8c8282611051565b611c1c57611bb18173ffffffffffffffffffffffffffffffffffffffff1660146124ad565b611bc0836001900460206124ad565b604051602001611bd1929190614c72565b6040516020818303038152906040526040517f08c379a0000000000000000000000000000000000000000000000000000000008152600401611c1391906138de565b60405180910390fd5b5050565b611c2a8282611051565b611cfd57600160c9600084815260200190815260200160002060000160008373ffffffffffffffffffffffffffffffffffffffff1673ffffffffffffffffffffffffffffffffffffffff16815260200190815260200160002060006101000a81548160ff021916908315150217905550611ca2611787565b73ffffffffffffffffffffffffffffffffffffffff168173ffffffffffffffffffffffffffffffffffffffff16837f2f8788117e7eff1d82e926ec794901d17c78024a50270940304540a733656f0d60405160405180910390a45b5050565b611d0b8282611051565b15611ddf57600060c9600084815260200190815260200160002060000160008373ffffffffffffffffffffffffffffffffffffffff1673ffffffffffffffffffffffffffffffffffffffff16815260200190815260200160002060006101000a81548160ff021916908315150217905550611d84611787565b73ffffffffffffffffffffffffffffffffffffffff168173ffffffffffffffffffffffffffffffffffffffff16837ff6391f5c32d9c69d2a47ea670b442974b53935d1edc7fd64eb21e047a839171b60405160405180910390a45b5050565b600061012d60009054906101000a900473ffffffffffffffffffffffffffffffffffffffff1690508161012d60006101000a81548173ffffffffffffffffffffffffffffffffffffffff021916908373ffffffffffffffffffffffffffffffffffffffff1602179055508173ffffffffffffffffffffffffffffffffffffffff168173ffffffffffffffffffffffffffffffffffffffff167f8be0079c531659141344cd1fd0a4f28419497f9722a3daafe3b4186f6b6457e060405160405180910390a35050565b8173ffffffffffffffffffffffffffffffffffffffff168373ffffffffffffffffffffffffffffffffffffffff161415611f1a576040517f08c379a0000000000000000000000000000000000000000000000000000000008152600401611f1190614cf8565b60405180910390fd5b80606a60008573ffffffffffffffffffffffffffffffffffffffff1673ffffffffffffffffffffffffffffffffffffffff16815260200190815260200160002060008473ffffffffffffffffffffffffffffffffffffffff1673ffffffffffffffffffffffffffffffffffffffff16815260200190815260200160002060006101000a81548160ff0219169083151502179055508173ffffffffffffffffffffffffffffffffffffffff168373ffffffffffffffffffffffffffffffffffffffff167f17307eab39ab6107e8899845ad3d59bd9653f200f220920489ca2b5937696c318360405161200b919061382a565b60405180910390a3505050565b600060019054906101000a900460ff168061203e575060008054906101000a900460ff16155b61207d576040517f08c379a000000000000000000000000000000000000000000000000000000000815260040161207490614829565b60405180910390fd5b60008060019054906101000a900460ff1615905080156120cd576001600060016101000a81548160ff02191690831515021790555060016000806101000a81548160ff0219169083151502179055505b6120d78484612710565b8161016090805190602001906120ee9291906136d3565b5061210460006001026120ff611026565b611c20565b6121357f9f2df0fed2c77648de5860a4cc508cd0818c85b8b8a1ab4ceeef8d981c8956a6612130611026565b611c20565b80156121565760008060016101000a81548160ff0219169083151502179055505b50505050565b612167848484611926565b61217384848484612805565b6121b2576040517f08c379a00000000000000000000000000000000000000000000000000000000081526004016121a990614d8a565b60405180910390fd5b50505050565b6060816040518060600160405280602f8152602001615166602f91396121dd8261171b565b819061221f576040517f08c379a000000000000000000000000000000000000000000000000000000000815260040161221691906138de565b60405180910390fd5b5060006101616000868152602001908152602001600020805461224190614150565b80601f016020809104026020016040519081016040528092919081815260200182805461226d90614150565b80156122ba5780601f1061228f576101008083540402835291602001916122ba565b820191906000526020600020905b81548152906001019060200180831161229d57829003601f168201915b5050505050905060006122cb6129c5565b90506000815114156122e1578194505050612345565b6000825111156123165780826040516020016122fe929190614daa565b60405160208183030381529060405294505050612345565b80612320876129d4565b604051602001612331929190614daa565b604051602081830303815290604052945050505b5050919050565b600081600001549050919050565b612374828260405180602001604052806000815250612b54565b5050565b816040518060600160405280602c815260200161513a602c913961239b8261171b565b81906123dd576040517f08c379a00000000000000000000000000000000000000000000000000000000081526004016123d491906138de565b60405180910390fd5b5082610161600086815260200190815260200160002090805190602001906124069291906136d3565b5050505050565b6001816000016000828254019250508190555050565b60007f780e9d63000000000000000000000000000000000000000000000000000000007bffffffffffffffffffffffffffffffffffffffffffffffffffffffff1916827bffffffffffffffffffffffffffffffffffffffffffffffffffffffff19161480612496575061249582612baf565b5b9050919050565b6124a8838383612c29565b505050565b6060600060028360026124c09190614dce565b6124ca9190614b84565b67ffffffffffffffff8111156124e3576124e2613b7f565b5b6040519080825280601f01601f1916602001820160405280156125155781602001600182028036833780820191505090505b5090507f30000000000000000000000000000000000000000000000000000000000000008160008151811061254d5761254c614580565b5b60200101907effffffffffffffffffffffffffffffffffffffffffffffffffffffffffffff1916908160001a9053507f7800000000000000000000000000000000000000000000000000000000000000816001815181106125b1576125b0614580565b5b60200101907effffffffffffffffffffffffffffffffffffffffffffffffffffffffffffff1916908160001a905350600060018460026125f19190614dce565b6125fb9190614b84565b90505b60018111156126c2577f3031323334353637383961626364656600000000000000000000000000000000600f86166010811061263d5761263c614580565b5b1a7f01000000000000000000000000000000000000000000000000000000000000000282828151811061267357612672614580565b5b60200101907effffffffffffffffffffffffffffffffffffffffffffffffffffffffffffff1916908160001a905350600485908060020a82049150509450806126bb90614e28565b90506125fe565b5060008414612706576040517f08c379a00000000000000000000000000000000000000000000000000000000081526004016126fd90614e9e565b60405180910390fd5b8091505092915050565b600060019054906101000a900460ff1680612736575060008054906101000a900460ff16155b612775576040517f08c379a000000000000000000000000000000000000000000000000000000000815260040161276c90614829565b60405180910390fd5b60008060019054906101000a900460ff1615905080156127c5576001600060016101000a81548160ff02191690831515021790555060016000806101000a81548160ff0219169083151502179055505b6127cd612c39565b6127d5612d12565b6127df8383612deb565b80156128005760008060016101000a81548160ff0219169083151502179055505b505050565b60006128268473ffffffffffffffffffffffffffffffffffffffff16612ef4565b156129b8578373ffffffffffffffffffffffffffffffffffffffff1663150b7a0261284f611787565b8786866040518563ffffffff167c010000000000000000000000000000000000000000000000000000000002815260040161288d9493929190614f13565b6020604051808303816000875af19250505080156128c957506040513d601f19601f820116820180604052508101906128c69190614f74565b60015b61294c573d80600081146128f9576040519150601f19603f3d011682016040523d82523d6000602084013e6128fe565b606091505b50600081511415612944576040517f08c379a000000000000000000000000000000000000000000000000000000000815260040161293b90614d8a565b60405180910390fd5b805181602001fd5b63150b7a027c0100000000000000000000000000000000000000000000000000000000027bffffffffffffffffffffffffffffffffffffffffffffffffffffffff1916817bffffffffffffffffffffffffffffffffffffffffffffffffffffffff1916149150506129bd565b600190505b949350505050565b60606129cf612f07565b905090565b60606000821415612a1c576040518060400160405280600181526020017f30000000000000000000000000000000000000000000000000000000000000008152509050612b4f565b600082905060005b60008214612a4e578080612a379061476e565b915050600a82612a479190614fd0565b9150612a24565b60008167ffffffffffffffff811115612a6a57612a69613b7f565b5b6040519080825280601f01601f191660200182016040528015612a9c5781602001600182028036833780820191505090505b5090505b60008514612b4857600182612ab59190614b50565b9150600a85612ac49190615001565b6030612ad09190614b84565b7f010000000000000000000000000000000000000000000000000000000000000002818381518110612b0557612b04614580565b5b60200101907effffffffffffffffffffffffffffffffffffffffffffffffffffffffffffff1916908160001a905350600a85612b419190614fd0565b9450612aa0565b8093505050505b919050565b612b5e8383612f9a565b612b6b6000848484612805565b612baa576040517f08c379a0000000000000000000000000000000000000000000000000000000008152600401612ba190614d8a565b60405180910390fd5b505050565b60007f7965db0b000000000000000000000000000000000000000000000000000000007bffffffffffffffffffffffffffffffffffffffffffffffffffffffff1916827bffffffffffffffffffffffffffffffffffffffffffffffffffffffff19161480612c225750612c2182613168565b5b9050919050565b612c3483838361324a565b505050565b600060019054906101000a900460ff1680612c5f575060008054906101000a900460ff16155b612c9e576040517f08c379a0000000000000000000000000000000000000000000000000000000008152600401612c9590614829565b60405180910390fd5b60008060019054906101000a900460ff161590508015612cee576001600060016101000a81548160ff02191690831515021790555060016000806101000a81548160ff0219169083151502179055505b8015612d0f5760008060016101000a81548160ff0219169083151502179055505b50565b600060019054906101000a900460ff1680612d38575060008054906101000a900460ff16155b612d77576040517f08c379a0000000000000000000000000000000000000000000000000000000008152600401612d6e90614829565b60405180910390fd5b60008060019054906101000a900460ff161590508015612dc7576001600060016101000a81548160ff02191690831515021790555060016000806101000a81548160ff0219169083151502179055505b8015612de85760008060016101000a81548160ff0219169083151502179055505b50565b600060019054906101000a900460ff1680612e11575060008054906101000a900460ff16155b612e50576040517f08c379a0000000000000000000000000000000000000000000000000000000008152600401612e4790614829565b60405180910390fd5b60008060019054906101000a900460ff161590508015612ea0576001600060016101000a81548160ff02191690831515021790555060016000806101000a81548160ff0219169083151502179055505b8260659080519060200190612eb69291906136d3565b508160669080519060200190612ecd9291906136d3565b508015612eef5760008060016101000a81548160ff0219169083151502179055505b505050565b600080823b905060008111915050919050565b606061015f8054612f1790614150565b80601f0160208091040260200160405190810160405280929190818152602001828054612f4390614150565b8015612f905780601f10612f6557610100808354040283529160200191612f90565b820191906000526020600020905b815481529060010190602001808311612f7357829003601f168201915b5050505050905090565b600073ffffffffffffffffffffffffffffffffffffffff168273ffffffffffffffffffffffffffffffffffffffff16141561300a576040517f08c379a00000000000000000000000000000000000000000000000000000000081526004016130019061507e565b60405180910390fd5b6130138161171b565b15613053576040517f08c379a000000000000000000000000000000000000000000000000000000000815260040161304a906150ea565b60405180910390fd5b61305f6000838361249d565b6001606860008473ffffffffffffffffffffffffffffffffffffffff1673ffffffffffffffffffffffffffffffffffffffff16815260200190815260200160002060008282546130af9190614b84565b92505081905550816067600083815260200190815260200160002060006101000a81548173ffffffffffffffffffffffffffffffffffffffff021916908373ffffffffffffffffffffffffffffffffffffffff160217905550808273ffffffffffffffffffffffffffffffffffffffff16600073ffffffffffffffffffffffffffffffffffffffff167fddf252ad1be2c89b69c2b068fc378daa952ba7f163c4a11628f55a4df523b3ef60405160405180910390a45050565b60007f80ac58cd000000000000000000000000000000000000000000000000000000007bffffffffffffffffffffffffffffffffffffffffffffffffffffffff1916827bffffffffffffffffffffffffffffffffffffffffffffffffffffffff1916148061323357507f5b5e139f000000000000000000000000000000000000000000000000000000007bffffffffffffffffffffffffffffffffffffffffffffffffffffffff1916827bffffffffffffffffffffffffffffffffffffffffffffffffffffffff1916145b8061324357506132428261335e565b5b9050919050565b6132558383836133c8565b600073ffffffffffffffffffffffffffffffffffffffff168373ffffffffffffffffffffffffffffffffffffffff16141561329857613293816133cd565b6132d7565b8173ffffffffffffffffffffffffffffffffffffffff168373ffffffffffffffffffffffffffffffffffffffff16146132d6576132d58382613416565b5b5b600073ffffffffffffffffffffffffffffffffffffffff168273ffffffffffffffffffffffffffffffffffffffff16141561331a5761331581613583565b613359565b8273ffffffffffffffffffffffffffffffffffffffff168273ffffffffffffffffffffffffffffffffffffffff1614613358576133578282613654565b5b5b505050565b60007f01ffc9a7000000000000000000000000000000000000000000000000000000007bffffffffffffffffffffffffffffffffffffffffffffffffffffffff1916827bffffffffffffffffffffffffffffffffffffffffffffffffffffffff1916149050919050565b505050565b60fd8054905060fe60008381526020019081526020016000208190555060fd81908060018154018082558091505060019003906000526020600020016000909190919091505550565b6000600161342384610cfd565b61342d9190614b50565b9050600060fc600084815260200190815260200160002054905081811461351257600060fb60008673ffffffffffffffffffffffffffffffffffffffff1673ffffffffffffffffffffffffffffffffffffffff16815260200190815260200160002060008481526020019081526020016000205490508060fb60008773ffffffffffffffffffffffffffffffffffffffff1673ffffffffffffffffffffffffffffffffffffffff1681526020019081526020016000206000848152602001908152602001600020819055508160fc600083815260200190815260200160002081905550505b60fc60008481526020019081526020016000206000905560fb60008573ffffffffffffffffffffffffffffffffffffffff1673ffffffffffffffffffffffffffffffffffffffff16815260200190815260200160002060008381526020019081526020016000206000905550505050565b6000600160fd805490506135979190614b50565b9050600060fe6000848152602001908152602001600020549050600060fd83815481106135c7576135c6614580565b5b906000526020600020015490508060fd83815481106135e9576135e8614580565b5b90600052602060002001819055508160fe60008381526020019081526020016000208190555060fe60008581526020019081526020016000206000905560fd8054806136385761363761510a565b5b6001900381819060005260206000200160009055905550505050565b600061365f83610cfd565b90508160fb60008573ffffffffffffffffffffffffffffffffffffffff1673ffffffffffffffffffffffffffffffffffffffff1681526020019081526020016000206000838152602001908152602001600020819055508060fc600084815260200190815260200160002081905550505050565b8280546136df90614150565b90600052602060002090601f0160209004810192826137015760008555613748565b82601f1061371a57805160ff1916838001178555613748565b82800160010185558215613748579182015b8281111561374757825182559160200191906001019061372c565b5b5090506137559190613759565b5090565b5b8082111561377257600081600090555060010161375a565b5090565b6000604051905090565b600080fd5b600080fd5b60007fffffffff0000000000000000000000000000000000000000000000000000000082169050919050565b6137bf8161378a565b81146137ca57600080fd5b50565b6000813590506137dc816137b6565b92915050565b6000602082840312156137f8576137f7613780565b5b6000613806848285016137cd565b91505092915050565b60008115159050919050565b6138248161380f565b82525050565b600060208201905061383f600083018461381b565b92915050565b600081519050919050565b600082825260208201905092915050565b60005b8381101561387f578082015181840152602081019050613864565b8381111561388e576000848401525b50505050565b6000601f19601f8301169050919050565b60006138b082613845565b6138ba8185613850565b93506138ca818560208601613861565b6138d381613894565b840191505092915050565b600060208201905081810360008301526138f881846138a5565b905092915050565b6000819050919050565b61391381613900565b811461391e57600080fd5b50565b6000813590506139308161390a565b92915050565b60006020828403121561394c5761394b613780565b5b600061395a84828501613921565b91505092915050565b600073ffffffffffffffffffffffffffffffffffffffff82169050919050565b600061398e82613963565b9050919050565b61399e81613983565b82525050565b60006020820190506139b96000830184613995565b92915050565b6139c881613983565b81146139d357600080fd5b50565b6000813590506139e5816139bf565b92915050565b60008060408385031215613a0257613a01613780565b5b6000613a10858286016139d6565b9250506020613a2185828601613921565b9150509250929050565b613a3481613900565b82525050565b6000602082019050613a4f6000830184613a2b565b92915050565b600080600060608486031215613a6e57613a6d613780565b5b6000613a7c868287016139d6565b9350506020613a8d868287016139d6565b9250506040613a9e86828701613921565b9150509250925092565b6000819050919050565b613abb81613aa8565b8114613ac657600080fd5b50565b600081359050613ad881613ab2565b92915050565b600060208284031215613af457613af3613780565b5b6000613b0284828501613ac9565b91505092915050565b613b1481613aa8565b82525050565b6000602082019050613b2f6000830184613b0b565b92915050565b60008060408385031215613b4c57613b4b613780565b5b6000613b5a85828601613ac9565b9250506020613b6b858286016139d6565b9150509250929050565b600080fd5b600080fd5b7f4e487b7100000000000000000000000000000000000000000000000000000000600052604160045260246000fd5b613bb782613894565b810181811067ffffffffffffffff82111715613bd657613bd5613b7f565b5b80604052505050565b6000613be9613776565b9050613bf58282613bae565b919050565b600067ffffffffffffffff821115613c1557613c14613b7f565b5b613c1e82613894565b9050602081019050919050565b82818337600083830152505050565b6000613c4d613c4884613bfa565b613bdf565b905082815260208101848484011115613c6957613c68613b7a565b5b613c74848285613c2b565b509392505050565b600082601f830112613c9157613c90613b75565b5b8135613ca1848260208601613c3a565b91505092915050565b600060208284031215613cc057613cbf613780565b5b600082013567ffffffffffffffff811115613cde57613cdd613785565b5b613cea84828501613c7c565b91505092915050565b600060208284031215613d0957613d08613780565b5b6000613d17848285016139d6565b91505092915050565b600081519050919050565b600082825260208201905092915050565b6000819050602082019050919050565b600082825260208201905092915050565b6000613d6882613845565b613d728185613d4c565b9350613d82818560208601613861565b613d8b81613894565b840191505092915050565b6000613da28383613d5d565b905092915050565b6000602082019050919050565b6000613dc282613d20565b613dcc8185613d2b565b935083602082028501613dde85613d3c565b8060005b85811015613e1a5784840389528151613dfb8582613d96565b9450613e0683613daa565b925060208a01995050600181019050613de2565b50829750879550505050505092915050565b60006020820190508181036000830152613e468184613db7565b905092915050565b613e578161380f565b8114613e6257600080fd5b50565b600081359050613e7481613e4e565b92915050565b60008060408385031215613e9157613e90613780565b5b6000613e9f858286016139d6565b9250506020613eb085828601613e65565b9150509250929050565b600080600060608486031215613ed357613ed2613780565b5b600084013567ffffffffffffffff811115613ef157613ef0613785565b5b613efd86828701613c7c565b935050602084013567ffffffffffffffff811115613f1e57613f1d613785565b5b613f2a86828701613c7c565b925050604084013567ffffffffffffffff811115613f4b57613f4a613785565b5b613f5786828701613c7c565b9150509250925092565b600067ffffffffffffffff821115613f7c57613f7b613b7f565b5b613f8582613894565b9050602081019050919050565b6000613fa5613fa084613f61565b613bdf565b905082815260208101848484011115613fc157613fc0613b7a565b5b613fcc848285613c2b565b509392505050565b600082601f830112613fe957613fe8613b75565b5b8135613ff9848260208601613f92565b91505092915050565b6000806000806080858703121561401c5761401b613780565b5b600061402a878288016139d6565b945050602061403b878288016139d6565b935050604061404c87828801613921565b925050606085013567ffffffffffffffff81111561406d5761406c613785565b5b61407987828801613fd4565b91505092959194509250565b6000806040838503121561409c5761409b613780565b5b60006140aa858286016139d6565b925050602083013567ffffffffffffffff8111156140cb576140ca613785565b5b6140d785828601613c7c565b9150509250929050565b600080604083850312156140f8576140f7613780565b5b6000614106858286016139d6565b9250506020614117858286016139d6565b9150509250929050565b7f4e487b7100000000000000000000000000000000000000000000000000000000600052602260045260246000fd5b6000600282049050600182168061416857607f821691505b6020821081141561417c5761417b614121565b5b50919050565b7f4552433732313a20617070726f76656420717565727920666f72206e6f6e657860008201527f697374656e7420746f6b656e0000000000000000000000000000000000000000602082015250565b60006141de602c83613850565b91506141e982614182565b604082019050919050565b6000602082019050818103600083015261420d816141d1565b9050919050565b7f4552433732313a20617070726f76616c20746f2063757272656e74206f776e6560008201527f7200000000000000000000000000000000000000000000000000000000000000602082015250565b6000614270602183613850565b915061427b82614214565b604082019050919050565b6000602082019050818103600083015261429f81614263565b9050919050565b7f4552433732313a20617070726f76652063616c6c6572206973206e6f74206f7760008201527f6e6572206e6f7220617070726f76656420666f7220616c6c0000000000000000602082015250565b6000614302603883613850565b915061430d826142a6565b604082019050919050565b60006020820190508181036000830152614331816142f5565b9050919050565b7f4552433732313a207472616e736665722063616c6c6572206973206e6f74206f60008201527f776e6572206e6f7220617070726f766564000000000000000000000000000000602082015250565b6000614394603183613850565b915061439f82614338565b604082019050919050565b600060208201905081810360008301526143c381614387565b9050919050565b7f455243373231456e756d657261626c653a206f776e657220696e646578206f7560008201527f74206f6620626f756e6473000000000000000000000000000000000000000000602082015250565b6000614426602b83613850565b9150614431826143ca565b604082019050919050565b6000602082019050818103600083015261445581614419565b9050919050565b7f416363657373436f6e74726f6c3a2063616e206f6e6c792072656e6f756e636560008201527f20726f6c657320666f722073656c660000000000000000000000000000000000602082015250565b60006144b8602f83613850565b91506144c38261445c565b604082019050919050565b600060208201905081810360008301526144e7816144ab565b9050919050565b7f455243373231456e756d657261626c653a20676c6f62616c20696e646578206f60008201527f7574206f6620626f756e64730000000000000000000000000000000000000000602082015250565b600061454a602c83613850565b9150614555826144ee565b604082019050919050565b600060208201905081810360008301526145798161453d565b9050919050565b7f4e487b7100000000000000000000000000000000000000000000000000000000600052603260045260246000fd5b7f4f776e61626c653a2063616c6c6572206973206e6f7420746865206f776e6572600082015250565b60006145e5602083613850565b91506145f0826145af565b602082019050919050565b60006020820190508181036000830152614614816145d8565b9050919050565b7f4552433732313a206f776e657220717565727920666f72206e6f6e657869737460008201527f656e7420746f6b656e0000000000000000000000000000000000000000000000602082015250565b6000614677602983613850565b91506146828261461b565b604082019050919050565b600060208201905081810360008301526146a68161466a565b9050919050565b7f4552433732313a2062616c616e636520717565727920666f7220746865207a6560008201527f726f206164647265737300000000000000000000000000000000000000000000602082015250565b6000614709602a83613850565b9150614714826146ad565b604082019050919050565b60006020820190508181036000830152614738816146fc565b9050919050565b7f4e487b7100000000000000000000000000000000000000000000000000000000600052601160045260246000fd5b600061477982613900565b91507fffffffffffffffffffffffffffffffffffffffffffffffffffffffffffffffff8214156147ac576147ab61473f565b5b600182019050919050565b7f496e697469616c697a61626c653a20636f6e747261637420697320616c72656160008201527f647920696e697469616c697a6564000000000000000000000000000000000000602082015250565b6000614813602e83613850565b915061481e826147b7565b604082019050919050565b6000602082019050818103600083015261484281614806565b9050919050565b600081905092915050565b600061485f82613845565b6148698185614849565b9350614879818560208601613861565b80840191505092915050565b60006148918284614854565b915081905092915050565b7f4f626a65637420616c7265616479206578697374730000000000000000000000600082015250565b60006148d2601583613850565b91506148dd8261489c565b602082019050919050565b60006020820190508181036000830152614901816148c5565b9050919050565b7f4f776e61626c653a206e6577206f776e657220697320746865207a65726f206160008201527f6464726573730000000000000000000000000000000000000000000000000000602082015250565b6000614964602683613850565b915061496f82614908565b604082019050919050565b6000602082019050818103600083015261499381614957565b9050919050565b7f4552433732313a206f70657261746f7220717565727920666f72206e6f6e657860008201527f697374656e7420746f6b656e0000000000000000000000000000000000000000602082015250565b60006149f6602c83613850565b9150614a018261499a565b604082019050919050565b60006020820190508181036000830152614a25816149e9565b9050919050565b7f4552433732313a207472616e73666572206f6620746f6b656e2074686174206960008201527f73206e6f74206f776e0000000000000000000000000000000000000000000000602082015250565b6000614a88602983613850565b9150614a9382614a2c565b604082019050919050565b60006020820190508181036000830152614ab781614a7b565b9050919050565b7f4552433732313a207472616e7366657220746f20746865207a65726f2061646460008201527f7265737300000000000000000000000000000000000000000000000000000000602082015250565b6000614b1a602483613850565b9150614b2582614abe565b604082019050919050565b60006020820190508181036000830152614b4981614b0d565b9050919050565b6000614b5b82613900565b9150614b6683613900565b925082821015614b7957614b7861473f565b5b828203905092915050565b6000614b8f82613900565b9150614b9a83613900565b9250827fffffffffffffffffffffffffffffffffffffffffffffffffffffffffffffffff03821115614bcf57614bce61473f565b5b828201905092915050565b7f416363657373436f6e74726f6c3a206163636f756e7420000000000000000000600082015250565b6000614c10601783614849565b9150614c1b82614bda565b601782019050919050565b7f206973206d697373696e6720726f6c6520000000000000000000000000000000600082015250565b6000614c5c601183614849565b9150614c6782614c26565b601182019050919050565b6000614c7d82614c03565b9150614c898285614854565b9150614c9482614c4f565b9150614ca08284614854565b91508190509392505050565b7f4552433732313a20617070726f766520746f2063616c6c657200000000000000600082015250565b6000614ce2601983613850565b9150614ced82614cac565b602082019050919050565b60006020820190508181036000830152614d1181614cd5565b9050919050565b7f4552433732313a207472616e7366657220746f206e6f6e20455243373231526560008201527f63656976657220696d706c656d656e7465720000000000000000000000000000602082015250565b6000614d74603283613850565b9150614d7f82614d18565b604082019050919050565b60006020820190508181036000830152614da381614d67565b9050919050565b6000614db68285614854565b9150614dc28284614854565b91508190509392505050565b6000614dd982613900565b9150614de483613900565b9250817fffffffffffffffffffffffffffffffffffffffffffffffffffffffffffffffff0483118215151615614e1d57614e1c61473f565b5b828202905092915050565b6000614e3382613900565b91506000821415614e4757614e4661473f565b5b600182039050919050565b7f537472696e67733a20686578206c656e67746820696e73756666696369656e74600082015250565b6000614e88602083613850565b9150614e9382614e52565b602082019050919050565b60006020820190508181036000830152614eb781614e7b565b9050919050565b600081519050919050565b600082825260208201905092915050565b6000614ee582614ebe565b614eef8185614ec9565b9350614eff818560208601613861565b614f0881613894565b840191505092915050565b6000608082019050614f286000830187613995565b614f356020830186613995565b614f426040830185613a2b565b8181036060830152614f548184614eda565b905095945050505050565b600081519050614f6e816137b6565b92915050565b600060208284031215614f8a57614f89613780565b5b6000614f9884828501614f5f565b91505092915050565b7f4e487b7100000000000000000000000000000000000000000000000000000000600052601260045260246000fd5b6000614fdb82613900565b9150614fe683613900565b925082614ff657614ff5614fa1565b5b828204905092915050565b600061500c82613900565b915061501783613900565b92508261502757615026614fa1565b5b828206905092915050565b7f4552433732313a206d696e7420746f20746865207a65726f2061646472657373600082015250565b6000615068602083613850565b915061507382615032565b602082019050919050565b600060208201905081810360008301526150978161505b565b9050919050565b7f4552433732313a20746f6b656e20616c7265616479206d696e74656400000000600082015250565b60006150d4601c83613850565b91506150df8261509e565b602082019050919050565b60006020820190508181036000830152615103816150c7565b9050919050565b7f4e487b7100000000000000000000000000000000000000000000000000000000600052603160045260246000fdfe4552433732314d657461646174613a2055524920736574206f66206e6f6e6578697374656e7420746f6b656e4552433732314d657461646174613a2055524920717565727920666f72206e6f6e6578697374656e7420746f6b656ea2646970667358221220797d94f100775a3d2c7b2ab6494c3ff82c8ac7b6a228ae85066b4c4a4dd0404864736f6c634300080a0033",
  "immutableReferences": {},
  "source": "// SPDX-License-Identifier: MIT\npragma solidity >=0.4.22 <0.9.0;\n\nimport \"./BaseContract.sol\";\n\ncontract NftV2 is BaseContract {\n    using CountersUpgradeable for CountersUpgradeable.Counter;\n    CountersUpgradeable.Counter internal _tokenIdCounter;\n    mapping(uint256 => address) tokensToOwner;\n\n    mapping(string => bool) _tokenExists;\n    mapping(address => bool) _userExists;\n\n    function initialize(\n        string memory _name,\n        string memory _symbol,\n        string memory _baseTokenURI\n    ) public override(BaseContract) initializer {\n        BaseContract.initialize(_name, _symbol, _baseTokenURI);\n    }\n\n    function mint(address to, string memory cid) public returns (uint256 _id) {\n        require(!_tokenExists[cid], \"Object already exists\");\n\n        _id = _tokenIdCounter.current();\n        _grantRole(MINTER_ROLE, to);\n        safeMint(to, cid);\n\n        return _id;\n    }\n\n    function safeMint(address to, string memory uri)\n        public\n        onlyRole(MINTER_ROLE)\n    {\n        uint256 tokenId = _tokenIdCounter.current();\n        _safeMint(to, tokenId);\n        _setTokenURI(tokenId, uri);\n        tokensToOwner[tokenId] = to;\n        tokenURIs[tokenId] = uri;\n        _tokenExists[uri] = true;\n\n        _setTokenURI(tokenId, uri);\n        _tokenIdCounter.increment();\n    }\n\n    function tokensOfOwner(address _owner)\n        public\n        view\n        returns (string[] memory)\n    {\n        uint256 tokenCount = balanceOf(_owner);\n        uint256[] memory tokensId = new uint256[](tokenCount);\n        string[] memory userTokens = new string[](tokenCount);\n\n        for (uint256 i = 0; i < tokenCount; i++) {\n            tokensId[i] = tokenOfOwnerByIndex(_owner, i);\n            if (tokensId[i] == i) {\n                userTokens[i] = tokenURIs[i];\n            }\n        }\n        return userTokens;\n    }\n\n    function tokenURI(uint256 tokenId)\n        public\n        view\n        override(BaseContract)\n        returns (string memory)\n    {\n        return super.tokenURI(tokenId);\n    }\n\n    function _baseURI()\n        internal\n        view\n        virtual\n        override(BaseContract)\n        returns (string memory)\n    {\n        return super._baseURI();\n    }\n\n    function _burn(uint256 tokenId) internal virtual override(BaseContract) {\n        super._burn(tokenId);\n    }\n\n    // The following functions are overrides for ERC721Enumerable required by Solidity.\n    function _beforeTokenTransfer(\n        address from,\n        address to,\n        uint256 tokenId\n    ) internal override(BaseContract) {\n        super._beforeTokenTransfer(from, to, tokenId);\n    }\n\n    function supportsInterface(bytes4 interfaceId)\n        public\n        view\n        override(BaseContract)\n        returns (bool)\n    {\n        return super.supportsInterface(interfaceId);\n    }\n}\n",
  "sourcePath": "/Users/lenahierzi/Developer/consensys/blockchain-developer-bootcamp-final-project/contracts/NftV2.sol",
  "compiler": {
    "name": "solc",
    "version": "0.8.10+commit.fc410830.Emscripten.clang"
  },
  "schemaVersion": "3.4.3",
  "updatedAt": "2021-11-30T02:39:04.745Z",
  "devdoc": {
    "kind": "dev",
    "methods": {
      "approve(address,uint256)": {
        "details": "See {IERC721-approve}."
      },
      "balanceOf(address)": {
        "details": "See {IERC721-balanceOf}."
      },
      "getApproved(uint256)": {
        "details": "See {IERC721-getApproved}."
      },
      "getRoleAdmin(bytes32)": {
        "details": "Returns the admin role that controls `role`. See {grantRole} and {revokeRole}. To change a role's admin, use {_setRoleAdmin}."
      },
      "grantRole(bytes32,address)": {
        "details": "Grants `role` to `account`. If `account` had not been already granted `role`, emits a {RoleGranted} event. Requirements: - the caller must have ``role``'s admin role."
      },
      "hasRole(bytes32,address)": {
        "details": "Returns `true` if `account` has been granted `role`."
      },
      "initialize(string,string,string)": {
        "details": "upgrade will hopefully work soon",
        "params": {
          "_baseTokenURI": "The CID of the Tokens metadata",
          "_name": "The address, the Token should be transfered to",
          "_symbol": "The CID of the Tokens metadata"
        }
      },
      "isApprovedForAll(address,address)": {
        "details": "See {IERC721-isApprovedForAll}."
      },
      "name()": {
        "details": "See {IERC721Metadata-name}."
      },
      "owner()": {
        "details": "Returns the address of the current owner."
      },
      "ownerOf(uint256)": {
        "details": "See {IERC721-ownerOf}."
      },
      "renounceOwnership()": {
        "details": "Leaves the contract without owner. It will not be possible to call `onlyOwner` functions anymore. Can only be called by the current owner. NOTE: Renouncing ownership will leave the contract without an owner, thereby removing any functionality that is only available to the owner."
      },
      "renounceRole(bytes32,address)": {
        "details": "Revokes `role` from the calling account. Roles are often managed via {grantRole} and {revokeRole}: this function's purpose is to provide a mechanism for accounts to lose their privileges if they are compromised (such as when a trusted device is misplaced). If the calling account had been revoked `role`, emits a {RoleRevoked} event. Requirements: - the caller must be `account`."
      },
      "revokeRole(bytes32,address)": {
        "details": "Revokes `role` from `account`. If `account` had been granted `role`, emits a {RoleRevoked} event. Requirements: - the caller must have ``role``'s admin role."
      },
      "safeTransferFrom(address,address,uint256)": {
        "details": "See {IERC721-safeTransferFrom}."
      },
      "safeTransferFrom(address,address,uint256,bytes)": {
        "details": "See {IERC721-safeTransferFrom}."
      },
      "setApprovalForAll(address,bool)": {
        "details": "See {IERC721-setApprovalForAll}."
      },
      "setBaseURI(string)": {
        "params": {
          "baseURI_": "baseUri for Token (ipfs)"
        }
      },
      "supportsInterface(bytes4)": {
        "details": "See {IERC165-supportsInterface}."
      },
      "symbol()": {
        "details": "See {IERC721Metadata-symbol}."
      },
      "tokenByIndex(uint256)": {
        "details": "See {IERC721Enumerable-tokenByIndex}."
      },
      "tokenOfOwnerByIndex(address,uint256)": {
        "details": "See {IERC721Enumerable-tokenOfOwnerByIndex}."
      },
      "tokenURI(uint256)": {
        "details": "If there is no base URI, return the token URI. If there is a baseURI but no tokenURI, concatenate the tokenID to the baseURI.",
        "params": {
          "tokenId": "of Token that should be burned"
        },
        "returns": {
          "_0": "tokenURI"
        }
      },
      "totalSupply()": {
        "details": "See {IERC721Enumerable-totalSupply}."
      },
      "transferFrom(address,address,uint256)": {
        "details": "See {IERC721-transferFrom}."
      },
      "transferOwnership(address)": {
        "details": "Transfers ownership of the contract to a new account (`newOwner`). Can only be called by the current owner."
      }
    },
    "version": 1
  },
  "userdoc": {
    "kind": "user",
    "methods": {
      "initialize(string,string,string)": {
        "notice": "Instead of the constructor we need this function as we are using the upgreadable plugin. Only called once when contract is initialized. Same s constructor."
      },
      "setBaseURI(string)": {
        "notice": "Sets the _baseURI of the contract"
      },
      "tokenURI(uint256)": {
        "notice": "Returns tokenURI. If baseURI is set, concatenate the baseURI and tokenURI (via abi.encodePacked)."
      }
    },
    "version": 1
  }
}