{
  "contractName": "NftV2",
  "abi": [
    {
      "anonymous": false,
      "inputs": [
        {
          "indexed": true,
          "internalType": "address",
          "name": "owner",
          "type": "address"
        },
        {
          "indexed": true,
          "internalType": "address",
          "name": "approved",
          "type": "address"
        },
        {
          "indexed": true,
          "internalType": "uint256",
          "name": "tokenId",
          "type": "uint256"
        }
      ],
      "name": "Approval",
      "type": "event"
    },
    {
      "anonymous": false,
      "inputs": [
        {
          "indexed": true,
          "internalType": "address",
          "name": "owner",
          "type": "address"
        },
        {
          "indexed": true,
          "internalType": "address",
          "name": "operator",
          "type": "address"
        },
        {
          "indexed": false,
          "internalType": "bool",
          "name": "approved",
          "type": "bool"
        }
      ],
      "name": "ApprovalForAll",
      "type": "event"
    },
    {
      "anonymous": false,
      "inputs": [
        {
          "indexed": false,
          "internalType": "address",
          "name": "owner",
          "type": "address"
        },
        {
          "indexed": false,
          "internalType": "uint256",
          "name": "tokenId",
          "type": "uint256"
        }
      ],
      "name": "LogForMint",
      "type": "event"
    },
    {
      "anonymous": false,
      "inputs": [
        {
          "indexed": true,
          "internalType": "address",
          "name": "previousOwner",
          "type": "address"
        },
        {
          "indexed": true,
          "internalType": "address",
          "name": "newOwner",
          "type": "address"
        }
      ],
      "name": "OwnershipTransferred",
      "type": "event"
    },
    {
      "anonymous": false,
      "inputs": [
        {
          "indexed": true,
          "internalType": "bytes32",
          "name": "role",
          "type": "bytes32"
        },
        {
          "indexed": true,
          "internalType": "bytes32",
          "name": "previousAdminRole",
          "type": "bytes32"
        },
        {
          "indexed": true,
          "internalType": "bytes32",
          "name": "newAdminRole",
          "type": "bytes32"
        }
      ],
      "name": "RoleAdminChanged",
      "type": "event"
    },
    {
      "anonymous": false,
      "inputs": [
        {
          "indexed": true,
          "internalType": "bytes32",
          "name": "role",
          "type": "bytes32"
        },
        {
          "indexed": true,
          "internalType": "address",
          "name": "account",
          "type": "address"
        },
        {
          "indexed": true,
          "internalType": "address",
          "name": "sender",
          "type": "address"
        }
      ],
      "name": "RoleGranted",
      "type": "event"
    },
    {
      "anonymous": false,
      "inputs": [
        {
          "indexed": true,
          "internalType": "bytes32",
          "name": "role",
          "type": "bytes32"
        },
        {
          "indexed": true,
          "internalType": "address",
          "name": "account",
          "type": "address"
        },
        {
          "indexed": true,
          "internalType": "address",
          "name": "sender",
          "type": "address"
        }
      ],
      "name": "RoleRevoked",
      "type": "event"
    },
    {
      "anonymous": false,
      "inputs": [
        {
          "indexed": true,
          "internalType": "address",
          "name": "from",
          "type": "address"
        },
        {
          "indexed": true,
          "internalType": "address",
          "name": "to",
          "type": "address"
        },
        {
          "indexed": true,
          "internalType": "uint256",
          "name": "tokenId",
          "type": "uint256"
        }
      ],
      "name": "Transfer",
      "type": "event"
    },
    {
      "inputs": [],
      "name": "DEFAULT_ADMIN_ROLE",
      "outputs": [
        {
          "internalType": "bytes32",
          "name": "",
          "type": "bytes32"
        }
      ],
      "stateMutability": "view",
      "type": "function"
    },
    {
      "inputs": [],
      "name": "MAX_PER_MINT",
      "outputs": [
        {
          "internalType": "uint256",
          "name": "",
          "type": "uint256"
        }
      ],
      "stateMutability": "view",
      "type": "function"
    },
    {
      "inputs": [],
      "name": "MAX_SUPPLY",
      "outputs": [
        {
          "internalType": "uint256",
          "name": "",
          "type": "uint256"
        }
      ],
      "stateMutability": "view",
      "type": "function"
    },
    {
      "inputs": [],
      "name": "MINTER_ROLE",
      "outputs": [
        {
          "internalType": "bytes32",
          "name": "",
          "type": "bytes32"
        }
      ],
      "stateMutability": "view",
      "type": "function"
    },
    {
      "inputs": [],
      "name": "PRICE",
      "outputs": [
        {
          "internalType": "uint256",
          "name": "",
          "type": "uint256"
        }
      ],
      "stateMutability": "view",
      "type": "function"
    },
    {
      "inputs": [
        {
          "internalType": "address",
          "name": "to",
          "type": "address"
        },
        {
          "internalType": "uint256",
          "name": "tokenId",
          "type": "uint256"
        }
      ],
      "name": "approve",
      "outputs": [],
      "stateMutability": "nonpayable",
      "type": "function"
    },
    {
      "inputs": [
        {
          "internalType": "address",
          "name": "owner",
          "type": "address"
        }
      ],
      "name": "balanceOf",
      "outputs": [
        {
          "internalType": "uint256",
          "name": "",
          "type": "uint256"
        }
      ],
      "stateMutability": "view",
      "type": "function"
    },
    {
      "inputs": [],
      "name": "baseTokenURI",
      "outputs": [
        {
          "internalType": "string",
          "name": "",
          "type": "string"
        }
      ],
      "stateMutability": "view",
      "type": "function"
    },
    {
      "inputs": [
        {
          "internalType": "uint256",
          "name": "tokenId",
          "type": "uint256"
        }
      ],
      "name": "getApproved",
      "outputs": [
        {
          "internalType": "address",
          "name": "",
          "type": "address"
        }
      ],
      "stateMutability": "view",
      "type": "function"
    },
    {
      "inputs": [
        {
          "internalType": "bytes32",
          "name": "role",
          "type": "bytes32"
        }
      ],
      "name": "getRoleAdmin",
      "outputs": [
        {
          "internalType": "bytes32",
          "name": "",
          "type": "bytes32"
        }
      ],
      "stateMutability": "view",
      "type": "function"
    },
    {
      "inputs": [
        {
          "internalType": "bytes32",
          "name": "role",
          "type": "bytes32"
        },
        {
          "internalType": "address",
          "name": "account",
          "type": "address"
        }
      ],
      "name": "grantRole",
      "outputs": [],
      "stateMutability": "nonpayable",
      "type": "function"
    },
    {
      "inputs": [
        {
          "internalType": "bytes32",
          "name": "role",
          "type": "bytes32"
        },
        {
          "internalType": "address",
          "name": "account",
          "type": "address"
        }
      ],
      "name": "hasRole",
      "outputs": [
        {
          "internalType": "bool",
          "name": "",
          "type": "bool"
        }
      ],
      "stateMutability": "view",
      "type": "function"
    },
    {
      "inputs": [
        {
          "internalType": "address",
          "name": "owner",
          "type": "address"
        },
        {
          "internalType": "address",
          "name": "operator",
          "type": "address"
        }
      ],
      "name": "isApprovedForAll",
      "outputs": [
        {
          "internalType": "bool",
          "name": "",
          "type": "bool"
        }
      ],
      "stateMutability": "view",
      "type": "function"
    },
    {
      "inputs": [],
      "name": "name",
      "outputs": [
        {
          "internalType": "string",
          "name": "",
          "type": "string"
        }
      ],
      "stateMutability": "view",
      "type": "function"
    },
    {
      "inputs": [],
      "name": "owner",
      "outputs": [
        {
          "internalType": "address",
          "name": "",
          "type": "address"
        }
      ],
      "stateMutability": "view",
      "type": "function"
    },
    {
      "inputs": [
        {
          "internalType": "uint256",
          "name": "tokenId",
          "type": "uint256"
        }
      ],
      "name": "ownerOf",
      "outputs": [
        {
          "internalType": "address",
          "name": "",
          "type": "address"
        }
      ],
      "stateMutability": "view",
      "type": "function"
    },
    {
      "inputs": [],
      "name": "renounceOwnership",
      "outputs": [],
      "stateMutability": "nonpayable",
      "type": "function"
    },
    {
      "inputs": [
        {
          "internalType": "bytes32",
          "name": "role",
          "type": "bytes32"
        },
        {
          "internalType": "address",
          "name": "account",
          "type": "address"
        }
      ],
      "name": "renounceRole",
      "outputs": [],
      "stateMutability": "nonpayable",
      "type": "function"
    },
    {
      "inputs": [
        {
          "internalType": "bytes32",
          "name": "role",
          "type": "bytes32"
        },
        {
          "internalType": "address",
          "name": "account",
          "type": "address"
        }
      ],
      "name": "revokeRole",
      "outputs": [],
      "stateMutability": "nonpayable",
      "type": "function"
    },
    {
      "inputs": [
        {
          "internalType": "address",
          "name": "from",
          "type": "address"
        },
        {
          "internalType": "address",
          "name": "to",
          "type": "address"
        },
        {
          "internalType": "uint256",
          "name": "tokenId",
          "type": "uint256"
        }
      ],
      "name": "safeTransferFrom",
      "outputs": [],
      "stateMutability": "nonpayable",
      "type": "function"
    },
    {
      "inputs": [
        {
          "internalType": "address",
          "name": "from",
          "type": "address"
        },
        {
          "internalType": "address",
          "name": "to",
          "type": "address"
        },
        {
          "internalType": "uint256",
          "name": "tokenId",
          "type": "uint256"
        },
        {
          "internalType": "bytes",
          "name": "_data",
          "type": "bytes"
        }
      ],
      "name": "safeTransferFrom",
      "outputs": [],
      "stateMutability": "nonpayable",
      "type": "function"
    },
    {
      "inputs": [
        {
          "internalType": "address",
          "name": "operator",
          "type": "address"
        },
        {
          "internalType": "bool",
          "name": "approved",
          "type": "bool"
        }
      ],
      "name": "setApprovalForAll",
      "outputs": [],
      "stateMutability": "nonpayable",
      "type": "function"
    },
    {
      "inputs": [],
      "name": "symbol",
      "outputs": [
        {
          "internalType": "string",
          "name": "",
          "type": "string"
        }
      ],
      "stateMutability": "view",
      "type": "function"
    },
    {
      "inputs": [
        {
          "internalType": "uint256",
          "name": "index",
          "type": "uint256"
        }
      ],
      "name": "tokenByIndex",
      "outputs": [
        {
          "internalType": "uint256",
          "name": "",
          "type": "uint256"
        }
      ],
      "stateMutability": "view",
      "type": "function"
    },
    {
      "inputs": [
        {
          "internalType": "address",
          "name": "owner",
          "type": "address"
        },
        {
          "internalType": "uint256",
          "name": "index",
          "type": "uint256"
        }
      ],
      "name": "tokenOfOwnerByIndex",
      "outputs": [
        {
          "internalType": "uint256",
          "name": "",
          "type": "uint256"
        }
      ],
      "stateMutability": "view",
      "type": "function"
    },
    {
      "inputs": [],
      "name": "totalSupply",
      "outputs": [
        {
          "internalType": "uint256",
          "name": "",
          "type": "uint256"
        }
      ],
      "stateMutability": "view",
      "type": "function"
    },
    {
      "inputs": [
        {
          "internalType": "address",
          "name": "from",
          "type": "address"
        },
        {
          "internalType": "address",
          "name": "to",
          "type": "address"
        },
        {
          "internalType": "uint256",
          "name": "tokenId",
          "type": "uint256"
        }
      ],
      "name": "transferFrom",
      "outputs": [],
      "stateMutability": "nonpayable",
      "type": "function"
    },
    {
      "inputs": [
        {
          "internalType": "address",
          "name": "newOwner",
          "type": "address"
        }
      ],
      "name": "transferOwnership",
      "outputs": [],
      "stateMutability": "nonpayable",
      "type": "function"
    },
    {
      "inputs": [
        {
          "internalType": "string",
          "name": "_name",
          "type": "string"
        },
        {
          "internalType": "string",
          "name": "_symbol",
          "type": "string"
        },
        {
          "internalType": "string",
          "name": "_baseTokenURI",
          "type": "string"
        }
      ],
      "name": "initialize",
      "outputs": [],
      "stateMutability": "nonpayable",
      "type": "function"
    },
    {
      "inputs": [
        {
          "internalType": "address",
          "name": "to",
          "type": "address"
        },
        {
          "internalType": "string",
          "name": "cid",
          "type": "string"
        },
        {
          "internalType": "string",
          "name": "color",
          "type": "string"
        }
      ],
      "name": "mint",
      "outputs": [
        {
          "internalType": "uint256",
          "name": "_id",
          "type": "uint256"
        }
      ],
      "stateMutability": "nonpayable",
      "type": "function"
    },
    {
      "inputs": [
        {
          "internalType": "address",
          "name": "user1",
          "type": "address"
        },
        {
          "internalType": "address",
          "name": "user2",
          "type": "address"
        },
        {
          "internalType": "string",
          "name": "cid",
          "type": "string"
        },
        {
          "internalType": "string",
          "name": "color",
          "type": "string"
        }
      ],
      "name": "handShake",
      "outputs": [
        {
          "internalType": "uint256",
          "name": "_id",
          "type": "uint256"
        }
      ],
      "stateMutability": "payable",
      "type": "function"
    },
    {
      "inputs": [
        {
          "internalType": "address",
          "name": "to",
          "type": "address"
        },
        {
          "internalType": "string",
          "name": "uri",
          "type": "string"
        },
        {
          "internalType": "string",
          "name": "color",
          "type": "string"
        }
      ],
      "name": "safeMint",
      "outputs": [],
      "stateMutability": "nonpayable",
      "type": "function"
    },
    {
      "inputs": [
        {
          "internalType": "address",
          "name": "_owner",
          "type": "address"
        }
      ],
      "name": "tokensOfOwner",
      "outputs": [
        {
          "internalType": "string[]",
          "name": "",
          "type": "string[]"
        }
      ],
      "stateMutability": "view",
      "type": "function"
    },
    {
      "inputs": [
        {
          "internalType": "address",
          "name": "_owner",
          "type": "address"
        }
      ],
      "name": "tokenIdsOfOwner",
      "outputs": [
        {
          "internalType": "uint256[]",
          "name": "",
          "type": "uint256[]"
        }
      ],
      "stateMutability": "view",
      "type": "function"
    },
    {
      "inputs": [
        {
          "internalType": "uint256",
          "name": "tokenId",
          "type": "uint256"
        }
      ],
      "name": "tokenURI",
      "outputs": [
        {
          "internalType": "string",
          "name": "",
          "type": "string"
        }
      ],
      "stateMutability": "view",
      "type": "function"
    },
    {
      "inputs": [
        {
          "internalType": "bytes4",
          "name": "interfaceId",
          "type": "bytes4"
        }
      ],
      "name": "supportsInterface",
      "outputs": [
        {
          "internalType": "bool",
          "name": "",
          "type": "bool"
        }
      ],
      "stateMutability": "view",
      "type": "function"
    }
  ],
  "bytecode": "0x608060405234801561001057600080fd5b50615c3580620000216000396000f3fe60806040526004361061022c576000357c0100000000000000000000000000000000000000000000000000000000900480638462151c11610135578063a6487c53116100bd578063d547741f1161008c578063d547741f1461081f578063d547cfb714610848578063e985e9c514610873578063eca81d42146108b0578063f2fde38b146108d95761022c565b8063a6487c5314610765578063b88d4fde1461078e578063c87b56dd146107b7578063d5391393146107f45761022c565b806395d89b411161010457806395d89b411461066c57806399071190146106975780639e59e598146106d4578063a217fddf14610711578063a22cb4651461073c5761022c565b80638462151c1461059c5780638d859f3e146105d95780638da5cb5b1461060457806391d148541461062f5761022c565b80632f2ff15d116101b857806342842e0e1161018757806342842e0e146104a55780634f6ccce7146104ce5780636352211e1461050b57806370a0823114610548578063715018a6146105855761022c565b80632f2ff15d146103eb5780632f745c591461041457806332cb6b0c1461045157806336568abe1461047c5761022c565b806309d42b30116101ff57806309d42b30146102ff5780630fe12bb31461032a57806318160ddd1461035a57806323b872dd14610385578063248a9ca3146103ae5761022c565b806301ffc9a71461023157806306fdde031461026e578063081812fc14610299578063095ea7b3146102d6575b600080fd5b34801561023d57600080fd5b5061025860048036038101906102539190613f3b565b610902565b6040516102659190613f83565b60405180910390f35b34801561027a57600080fd5b50610283610914565b6040516102909190614037565b60405180910390f35b3480156102a557600080fd5b506102c060048036038101906102bb919061408f565b6109a6565b6040516102cd91906140fd565b60405180910390f35b3480156102e257600080fd5b506102fd60048036038101906102f89190614144565b610a2b565b005b34801561030b57600080fd5b50610314610b43565b6040516103219190614193565b60405180910390f35b610344600480360381019061033f91906142e3565b610b48565b6040516103519190614193565b60405180910390f35b34801561036657600080fd5b5061036f610dd9565b60405161037c9190614193565b60405180910390f35b34801561039157600080fd5b506103ac60048036038101906103a79190614382565b610de6565b005b3480156103ba57600080fd5b506103d560048036038101906103d0919061440b565b610e46565b6040516103e29190614447565b60405180910390f35b3480156103f757600080fd5b50610412600480360381019061040d9190614462565b610e66565b005b34801561042057600080fd5b5061043b60048036038101906104369190614144565b610e8f565b6040516104489190614193565b60405180910390f35b34801561045d57600080fd5b50610466610f34565b6040516104739190614193565b60405180910390f35b34801561048857600080fd5b506104a3600480360381019061049e9190614462565b610f3a565b005b3480156104b157600080fd5b506104cc60048036038101906104c79190614382565b610fbd565b005b3480156104da57600080fd5b506104f560048036038101906104f0919061408f565b610fdd565b6040516105029190614193565b60405180910390f35b34801561051757600080fd5b50610532600480360381019061052d919061408f565b61104e565b60405161053f91906140fd565b60405180910390f35b34801561055457600080fd5b5061056f600480360381019061056a91906144a2565b611100565b60405161057c9190614193565b60405180910390f35b34801561059157600080fd5b5061059a6111b8565b005b3480156105a857600080fd5b506105c360048036038101906105be91906144a2565b611240565b6040516105d091906145db565b60405180910390f35b3480156105e557600080fd5b506105ee6114ae565b6040516105fb9190614193565b60405180910390f35b34801561061057600080fd5b506106196114b8565b60405161062691906140fd565b60405180910390f35b34801561063b57600080fd5b5061065660048036038101906106519190614462565b6114e3565b6040516106639190613f83565b60405180910390f35b34801561067857600080fd5b5061068161154e565b60405161068e9190614037565b60405180910390f35b3480156106a357600080fd5b506106be60048036038101906106b991906145fd565b6115e0565b6040516106cb9190614193565b60405180910390f35b3480156106e057600080fd5b506106fb60048036038101906106f691906144a2565b611799565b6040516107089190614746565b60405180910390f35b34801561071d57600080fd5b506107266118d6565b6040516107339190614447565b60405180910390f35b34801561074857600080fd5b50610763600480360381019061075e9190614794565b6118de565b005b34801561077157600080fd5b5061078c600480360381019061078791906147d4565b6118f4565b005b34801561079a57600080fd5b506107b560048036038101906107b0919061491c565b6119e4565b005b3480156107c357600080fd5b506107de60048036038101906107d9919061408f565b611a46565b6040516107eb9190614037565b60405180910390f35b34801561080057600080fd5b50610809611a58565b6040516108169190614447565b60405180910390f35b34801561082b57600080fd5b5061084660048036038101906108419190614462565b611a7c565b005b34801561085457600080fd5b5061085d611aa5565b60405161086a9190614037565b60405180910390f35b34801561087f57600080fd5b5061089a6004803603810190610895919061499f565b611b34565b6040516108a79190613f83565b60405180910390f35b3480156108bc57600080fd5b506108d760048036038101906108d291906145fd565b611bc8565b005b3480156108e557600080fd5b5061090060048036038101906108fb91906144a2565b611db7565b005b600061090d82611eaf565b9050919050565b60606065805461092390614a0e565b80601f016020809104026020016040519081016040528092919081815260200182805461094f90614a0e565b801561099c5780601f106109715761010080835404028352916020019161099c565b820191906000526020600020905b81548152906001019060200180831161097f57829003601f168201915b5050505050905090565b60006109b182611ec1565b6109f0576040517f08c379a00000000000000000000000000000000000000000000000000000000081526004016109e790614ab2565b60405180910390fd5b6069600083815260200190815260200160002060009054906101000a900473ffffffffffffffffffffffffffffffffffffffff169050919050565b6000610a368261104e565b90508073ffffffffffffffffffffffffffffffffffffffff168373ffffffffffffffffffffffffffffffffffffffff161415610aa7576040517f08c379a0000000000000000000000000000000000000000000000000000000008152600401610a9e90614b44565b60405180910390fd5b8073ffffffffffffffffffffffffffffffffffffffff16610ac6611f2d565b73ffffffffffffffffffffffffffffffffffffffff161480610af55750610af481610aef611f2d565b611b34565b5b610b34576040517f08c379a0000000000000000000000000000000000000000000000000000000008152600401610b2b90614bd6565b60405180910390fd5b610b3e8383611f35565b505050565b606481565b60008461016660008273ffffffffffffffffffffffffffffffffffffffff1673ffffffffffffffffffffffffffffffffffffffff16815260200190815260200160002060009054906101000a900460ff16610bd8576040517f08c379a0000000000000000000000000000000000000000000000000000000008152600401610bcf90614c42565b60405180910390fd5b8461016660008273ffffffffffffffffffffffffffffffffffffffff1673ffffffffffffffffffffffffffffffffffffffff16815260200190815260200160002060009054906101000a900460ff16610c66576040517f08c379a0000000000000000000000000000000000000000000000000000000008152600401610c5d90614c42565b60405180910390fd5b86868073ffffffffffffffffffffffffffffffffffffffff168273ffffffffffffffffffffffffffffffffffffffff161415610cd7576040517f08c379a0000000000000000000000000000000000000000000000000000000008152600401610cce90614cae565b60405180910390fd5b8661016481604051610ce99190614d0a565b908152602001604051809103902060009054906101000a900460ff1615610d45576040517f08c379a0000000000000000000000000000000000000000000000000000000008152600401610d3c90614d6d565b60405180910390fd5b8661016581604051610d579190614d0a565b908152602001604051809103902060009054906101000a900460ff1615610db3576040517f08c379a0000000000000000000000000000000000000000000000000000000008152600401610daa90614dd9565b60405180910390fd5b610dbe610162611fee565b9650610dcb8b8a8a611bc8565b505050505050949350505050565b600060fd80549050905090565b610df7610df1611f2d565b82611ffc565b610e36576040517f08c379a0000000000000000000000000000000000000000000000000000000008152600401610e2d90614e6b565b60405180910390fd5b610e418383836120da565b505050565b600060c96000838152602001908152602001600020600101549050919050565b610e6f82610e46565b610e8081610e7b611f2d565b612336565b610e8a83836123d4565b505050565b6000610e9a83611100565b8210610edb576040517f08c379a0000000000000000000000000000000000000000000000000000000008152600401610ed290614efd565b60405180910390fd5b60fb60008473ffffffffffffffffffffffffffffffffffffffff1673ffffffffffffffffffffffffffffffffffffffff168152602001908152602001600020600083815260200190815260200160002054905092915050565b61c35081565b610f42611f2d565b73ffffffffffffffffffffffffffffffffffffffff168173ffffffffffffffffffffffffffffffffffffffff1614610faf576040517f08c379a0000000000000000000000000000000000000000000000000000000008152600401610fa690614f8f565b60405180910390fd5b610fb982826124b5565b5050565b610fd8838383604051806020016040528060008152506119e4565b505050565b6000610fe7610dd9565b8210611028576040517f08c379a000000000000000000000000000000000000000000000000000000000815260040161101f90615021565b60405180910390fd5b60fd828154811061103c5761103b615041565b5b90600052602060002001549050919050565b6000806067600084815260200190815260200160002060009054906101000a900473ffffffffffffffffffffffffffffffffffffffff169050600073ffffffffffffffffffffffffffffffffffffffff168173ffffffffffffffffffffffffffffffffffffffff1614156110f7576040517f08c379a00000000000000000000000000000000000000000000000000000000081526004016110ee906150e2565b60405180910390fd5b80915050919050565b60008073ffffffffffffffffffffffffffffffffffffffff168273ffffffffffffffffffffffffffffffffffffffff161415611171576040517f08c379a000000000000000000000000000000000000000000000000000000000815260040161116890615174565b60405180910390fd5b606860008373ffffffffffffffffffffffffffffffffffffffff1673ffffffffffffffffffffffffffffffffffffffff168152602001908152602001600020549050919050565b6111c0611f2d565b73ffffffffffffffffffffffffffffffffffffffff166111de6114b8565b73ffffffffffffffffffffffffffffffffffffffff1614611234576040517f08c379a000000000000000000000000000000000000000000000000000000000815260040161122b906151e0565b60405180910390fd5b61123e6000612597565b565b60608161016660008273ffffffffffffffffffffffffffffffffffffffff1673ffffffffffffffffffffffffffffffffffffffff16815260200190815260200160002060009054906101000a900460ff166112d0576040517f08c379a00000000000000000000000000000000000000000000000000000000081526004016112c790614c42565b60405180910390fd5b60006112db84611100565b905060008167ffffffffffffffff8111156112f9576112f86141b8565b5b6040519080825280602002602001820160405280156113275781602001602082028036833780820191505090505b50905060008267ffffffffffffffff811115611346576113456141b8565b5b60405190808252806020026020018201604052801561137957816020015b60608152602001906001900390816113645790505b50905060005b838110156114a1576113918782610e8f565b8382815181106113a4576113a3615041565b5b602002602001018181525050808382815181106113c4576113c3615041565b5b6020026020010151141561148e57610161600082815260200190815260200160002080546113f190614a0e565b80601f016020809104026020016040519081016040528092919081815260200182805461141d90614a0e565b801561146a5780601f1061143f5761010080835404028352916020019161146a565b820191906000526020600020905b81548152906001019060200180831161144d57829003601f168201915b505050505082828151811061148257611481615041565b5b60200260200101819052505b80806114999061522f565b91505061137f565b5080945050505050919050565b655af3107a400081565b600061012d60009054906101000a900473ffffffffffffffffffffffffffffffffffffffff16905090565b600060c9600084815260200190815260200160002060000160008373ffffffffffffffffffffffffffffffffffffffff1673ffffffffffffffffffffffffffffffffffffffff16815260200190815260200160002060009054906101000a900460ff16905092915050565b60606066805461155d90614a0e565b80601f016020809104026020016040519081016040528092919081815260200182805461158990614a0e565b80156115d65780601f106115ab576101008083540402835291602001916115d6565b820191906000526020600020905b8154815290600101906020018083116115b957829003601f168201915b5050505050905090565b600082610164816040516115f49190614d0a565b908152602001604051809103902060009054906101000a900460ff1615611650576040517f08c379a000000000000000000000000000000000000000000000000000000000815260040161164790614d6d565b60405180910390fd5b82610165816040516116629190614d0a565b908152602001604051809103902060009054906101000a900460ff16156116be576040517f08c379a00000000000000000000000000000000000000000000000000000000081526004016116b590614dd9565b60405180910390fd5b8561016660008273ffffffffffffffffffffffffffffffffffffffff1673ffffffffffffffffffffffffffffffffffffffff16815260200190815260200160002060009054906101000a900460ff161561174d576040517f08c379a0000000000000000000000000000000000000000000000000000000008152600401611744906152c4565b60405180910390fd5b611758610162611fee565b93506117847f9f2df0fed2c77648de5860a4cc508cd0818c85b8b8a1ab4ceeef8d981c8956a6886123d4565b61178f878787611bc8565b5050509392505050565b60608161016660008273ffffffffffffffffffffffffffffffffffffffff1673ffffffffffffffffffffffffffffffffffffffff16815260200190815260200160002060009054906101000a900460ff16611829576040517f08c379a000000000000000000000000000000000000000000000000000000000815260040161182090614c42565b60405180910390fd5b600061183484611100565b905060008167ffffffffffffffff811115611852576118516141b8565b5b6040519080825280602002602001820160405280156118805781602001602082028036833780820191505090505b50905060005b828110156118ca576118988682610e8f565b8282815181106118ab576118aa615041565b5b60200260200101818152505080806118c29061522f565b915050611886565b50809350505050919050565b600060010281565b6118f06118e9611f2d565b838361265f565b5050565b600060019054906101000a900460ff168061191a575060008054906101000a900460ff16155b611959576040517f08c379a000000000000000000000000000000000000000000000000000000000815260040161195090615356565b60405180910390fd5b60008060019054906101000a900460ff1615905080156119a9576001600060016101000a81548160ff02191690831515021790555060016000806101000a81548160ff0219169083151502179055505b6119b2826127cc565b6119bd8484846127e7565b80156119de5760008060016101000a81548160ff0219169083151502179055505b50505050565b6119f56119ef611f2d565b83611ffc565b611a34576040517f08c379a0000000000000000000000000000000000000000000000000000000008152600401611a2b90614e6b565b60405180910390fd5b611a408484848461292b565b50505050565b6060611a5182612987565b9050919050565b7f9f2df0fed2c77648de5860a4cc508cd0818c85b8b8a1ab4ceeef8d981c8956a681565b611a8582610e46565b611a9681611a91611f2d565b612336565b611aa083836124b5565b505050565b6101608054611ab390614a0e565b80601f0160208091040260200160405190810160405280929190818152602001828054611adf90614a0e565b8015611b2c5780601f10611b0157610100808354040283529160200191611b2c565b820191906000526020600020905b815481529060010190602001808311611b0f57829003601f168201915b505050505081565b6000606a60008473ffffffffffffffffffffffffffffffffffffffff1673ffffffffffffffffffffffffffffffffffffffff16815260200190815260200160002060008373ffffffffffffffffffffffffffffffffffffffff1673ffffffffffffffffffffffffffffffffffffffff16815260200190815260200160002060009054906101000a900460ff16905092915050565b7f9f2df0fed2c77648de5860a4cc508cd0818c85b8b8a1ab4ceeef8d981c8956a6611bfa81611bf5611f2d565b612336565b6000611c07610162611fee565b9050611c138185612b1b565b84610163600083815260200190815260200160002060006101000a81548173ffffffffffffffffffffffffffffffffffffffff021916908373ffffffffffffffffffffffffffffffffffffffff1602179055508361016160008381526020019081526020016000209080519060200190611c8e929190613e2c565b50600161016660008773ffffffffffffffffffffffffffffffffffffffff1673ffffffffffffffffffffffffffffffffffffffff16815260200190815260200160002060006101000a81548160ff021916908315150217905550600161016485604051611cfb9190614d0a565b908152602001604051809103902060006101000a81548160ff021916908315150217905550600161016584604051611d339190614d0a565b908152602001604051809103902060006101000a81548160ff021916908315150217905550611d628185612b1b565b611d6c8582612b48565b7f73ed8f6ac83502da554e121d80b79f636b5c5e572a2e37120209738c4db5587a8582604051611d9d929190615376565b60405180910390a1611db0610162612b66565b5050505050565b611dbf611f2d565b73ffffffffffffffffffffffffffffffffffffffff16611ddd6114b8565b73ffffffffffffffffffffffffffffffffffffffff1614611e33576040517f08c379a0000000000000000000000000000000000000000000000000000000008152600401611e2a906151e0565b60405180910390fd5b600073ffffffffffffffffffffffffffffffffffffffff168173ffffffffffffffffffffffffffffffffffffffff161415611ea3576040517f08c379a0000000000000000000000000000000000000000000000000000000008152600401611e9a90615411565b60405180910390fd5b611eac81612597565b50565b6000611eba82612b7c565b9050919050565b60008073ffffffffffffffffffffffffffffffffffffffff166067600084815260200190815260200160002060009054906101000a900473ffffffffffffffffffffffffffffffffffffffff1673ffffffffffffffffffffffffffffffffffffffff1614159050919050565b600033905090565b816069600083815260200190815260200160002060006101000a81548173ffffffffffffffffffffffffffffffffffffffff021916908373ffffffffffffffffffffffffffffffffffffffff160217905550808273ffffffffffffffffffffffffffffffffffffffff16611fa88361104e565b73ffffffffffffffffffffffffffffffffffffffff167f8c5be1e5ebec7d5bd14f71427d1e84f3dd0314c0f7b2291e5b200ac8c7c3b92560405160405180910390a45050565b600081600001549050919050565b600061200782611ec1565b612046576040517f08c379a000000000000000000000000000000000000000000000000000000000815260040161203d906154a3565b60405180910390fd5b60006120518361104e565b90508073ffffffffffffffffffffffffffffffffffffffff168473ffffffffffffffffffffffffffffffffffffffff1614806120c057508373ffffffffffffffffffffffffffffffffffffffff166120a8846109a6565b73ffffffffffffffffffffffffffffffffffffffff16145b806120d157506120d08185611b34565b5b91505092915050565b8273ffffffffffffffffffffffffffffffffffffffff166120fa8261104e565b73ffffffffffffffffffffffffffffffffffffffff1614612150576040517f08c379a000000000000000000000000000000000000000000000000000000000815260040161214790615535565b60405180910390fd5b600073ffffffffffffffffffffffffffffffffffffffff168273ffffffffffffffffffffffffffffffffffffffff1614156121c0576040517f08c379a00000000000000000000000000000000000000000000000000000000081526004016121b7906155c7565b60405180910390fd5b6121cb838383612bf6565b6121d6600082611f35565b6001606860008573ffffffffffffffffffffffffffffffffffffffff1673ffffffffffffffffffffffffffffffffffffffff168152602001908152602001600020600082825461222691906155e7565b925050819055506001606860008473ffffffffffffffffffffffffffffffffffffffff1673ffffffffffffffffffffffffffffffffffffffff168152602001908152602001600020600082825461227d919061561b565b92505081905550816067600083815260200190815260200160002060006101000a81548173ffffffffffffffffffffffffffffffffffffffff021916908373ffffffffffffffffffffffffffffffffffffffff160217905550808273ffffffffffffffffffffffffffffffffffffffff168473ffffffffffffffffffffffffffffffffffffffff167fddf252ad1be2c89b69c2b068fc378daa952ba7f163c4a11628f55a4df523b3ef60405160405180910390a4505050565b61234082826114e3565b6123d0576123658173ffffffffffffffffffffffffffffffffffffffff166014612c06565b61237483600190046020612c06565b604051602001612385929190615709565b6040516020818303038152906040526040517f08c379a00000000000000000000000000000000000000000000000000000000081526004016123c79190614037565b60405180910390fd5b5050565b6123de82826114e3565b6124b157600160c9600084815260200190815260200160002060000160008373ffffffffffffffffffffffffffffffffffffffff1673ffffffffffffffffffffffffffffffffffffffff16815260200190815260200160002060006101000a81548160ff021916908315150217905550612456611f2d565b73ffffffffffffffffffffffffffffffffffffffff168173ffffffffffffffffffffffffffffffffffffffff16837f2f8788117e7eff1d82e926ec794901d17c78024a50270940304540a733656f0d60405160405180910390a45b5050565b6124bf82826114e3565b1561259357600060c9600084815260200190815260200160002060000160008373ffffffffffffffffffffffffffffffffffffffff1673ffffffffffffffffffffffffffffffffffffffff16815260200190815260200160002060006101000a81548160ff021916908315150217905550612538611f2d565b73ffffffffffffffffffffffffffffffffffffffff168173ffffffffffffffffffffffffffffffffffffffff16837ff6391f5c32d9c69d2a47ea670b442974b53935d1edc7fd64eb21e047a839171b60405160405180910390a45b5050565b600061012d60009054906101000a900473ffffffffffffffffffffffffffffffffffffffff1690508161012d60006101000a81548173ffffffffffffffffffffffffffffffffffffffff021916908373ffffffffffffffffffffffffffffffffffffffff1602179055508173ffffffffffffffffffffffffffffffffffffffff168173ffffffffffffffffffffffffffffffffffffffff167f8be0079c531659141344cd1fd0a4f28419497f9722a3daafe3b4186f6b6457e060405160405180910390a35050565b8173ffffffffffffffffffffffffffffffffffffffff168373ffffffffffffffffffffffffffffffffffffffff1614156126ce576040517f08c379a00000000000000000000000000000000000000000000000000000000081526004016126c59061578f565b60405180910390fd5b80606a60008573ffffffffffffffffffffffffffffffffffffffff1673ffffffffffffffffffffffffffffffffffffffff16815260200190815260200160002060008473ffffffffffffffffffffffffffffffffffffffff1673ffffffffffffffffffffffffffffffffffffffff16815260200190815260200160002060006101000a81548160ff0219169083151502179055508173ffffffffffffffffffffffffffffffffffffffff168373ffffffffffffffffffffffffffffffffffffffff167f17307eab39ab6107e8899845ad3d59bd9653f200f220920489ca2b5937696c31836040516127bf9190613f83565b60405180910390a3505050565b8061015f90805190602001906127e3929190613e2c565b5050565b600060019054906101000a900460ff168061280d575060008054906101000a900460ff16155b61284c576040517f08c379a000000000000000000000000000000000000000000000000000000000815260040161284390615356565b60405180910390fd5b60008060019054906101000a900460ff16159050801561289c576001600060016101000a81548160ff02191690831515021790555060016000806101000a81548160ff0219169083151502179055505b6128a68484612e69565b8161016090805190602001906128bd929190613e2c565b506128d360006001026128ce6114b8565b6123d4565b6129047f9f2df0fed2c77648de5860a4cc508cd0818c85b8b8a1ab4ceeef8d981c8956a66128ff6114b8565b6123d4565b80156129255760008060016101000a81548160ff0219169083151502179055505b50505050565b6129368484846120da565b61294284848484612f5e565b612981576040517f08c379a000000000000000000000000000000000000000000000000000000000815260040161297890615821565b60405180910390fd5b50505050565b6060816040518060600160405280602f8152602001615bd1602f91396129ac82611ec1565b81906129ee576040517f08c379a00000000000000000000000000000000000000000000000000000000081526004016129e59190614037565b60405180910390fd5b50600061016160008681526020019081526020016000208054612a1090614a0e565b80601f0160208091040260200160405190810160405280929190818152602001828054612a3c90614a0e565b8015612a895780601f10612a5e57610100808354040283529160200191612a89565b820191906000526020600020905b815481529060010190602001808311612a6c57829003601f168201915b505050505090506000612a9a61311e565b9050600081511415612ab0578194505050612b14565b600082511115612ae5578082604051602001612acd929190615841565b60405160208183030381529060405294505050612b14565b80612aef8761312d565b604051602001612b00929190615841565b604051602081830303815290604052945050505b5050919050565b8061016160008481526020019081526020016000209080519060200190612b43929190613e2c565b505050565b612b628282604051806020016040528060008152506132ad565b5050565b6001816000016000828254019250508190555050565b60007f780e9d63000000000000000000000000000000000000000000000000000000007bffffffffffffffffffffffffffffffffffffffffffffffffffffffff1916827bffffffffffffffffffffffffffffffffffffffffffffffffffffffff19161480612bef5750612bee82613308565b5b9050919050565b612c01838383613382565b505050565b606060006002836002612c199190615865565b612c23919061561b565b67ffffffffffffffff811115612c3c57612c3b6141b8565b5b6040519080825280601f01601f191660200182016040528015612c6e5781602001600182028036833780820191505090505b5090507f300000000000000000000000000000000000000000000000000000000000000081600081518110612ca657612ca5615041565b5b60200101907effffffffffffffffffffffffffffffffffffffffffffffffffffffffffffff1916908160001a9053507f780000000000000000000000000000000000000000000000000000000000000081600181518110612d0a57612d09615041565b5b60200101907effffffffffffffffffffffffffffffffffffffffffffffffffffffffffffff1916908160001a90535060006001846002612d4a9190615865565b612d54919061561b565b90505b6001811115612e1b577f3031323334353637383961626364656600000000000000000000000000000000600f861660108110612d9657612d95615041565b5b1a7f010000000000000000000000000000000000000000000000000000000000000002828281518110612dcc57612dcb615041565b5b60200101907effffffffffffffffffffffffffffffffffffffffffffffffffffffffffffff1916908160001a905350600485908060020a8204915050945080612e14906158bf565b9050612d57565b5060008414612e5f576040517f08c379a0000000000000000000000000000000000000000000000000000000008152600401612e5690615935565b60405180910390fd5b8091505092915050565b600060019054906101000a900460ff1680612e8f575060008054906101000a900460ff16155b612ece576040517f08c379a0000000000000000000000000000000000000000000000000000000008152600401612ec590615356565b60405180910390fd5b60008060019054906101000a900460ff161590508015612f1e576001600060016101000a81548160ff02191690831515021790555060016000806101000a81548160ff0219169083151502179055505b612f26613392565b612f2e61346b565b612f388383613544565b8015612f595760008060016101000a81548160ff0219169083151502179055505b505050565b6000612f7f8473ffffffffffffffffffffffffffffffffffffffff1661364d565b15613111578373ffffffffffffffffffffffffffffffffffffffff1663150b7a02612fa8611f2d565b8786866040518563ffffffff167c0100000000000000000000000000000000000000000000000000000000028152600401612fe694939291906159aa565b6020604051808303816000875af192505050801561302257506040513d601f19601f8201168201806040525081019061301f9190615a0b565b60015b6130a5573d8060008114613052576040519150601f19603f3d011682016040523d82523d6000602084013e613057565b606091505b5060008151141561309d576040517f08c379a000000000000000000000000000000000000000000000000000000000815260040161309490615821565b60405180910390fd5b805181602001fd5b63150b7a027c0100000000000000000000000000000000000000000000000000000000027bffffffffffffffffffffffffffffffffffffffffffffffffffffffff1916817bffffffffffffffffffffffffffffffffffffffffffffffffffffffff191614915050613116565b600190505b949350505050565b6060613128613660565b905090565b60606000821415613175576040518060400160405280600181526020017f300000000000000000000000000000000000000000000000000000000000000081525090506132a8565b600082905060005b600082146131a75780806131909061522f565b915050600a826131a09190615a67565b915061317d565b60008167ffffffffffffffff8111156131c3576131c26141b8565b5b6040519080825280601f01601f1916602001820160405280156131f55781602001600182028036833780820191505090505b5090505b600085146132a15760018261320e91906155e7565b9150600a8561321d9190615a98565b6030613229919061561b565b7f01000000000000000000000000000000000000000000000000000000000000000281838151811061325e5761325d615041565b5b60200101907effffffffffffffffffffffffffffffffffffffffffffffffffffffffffffff1916908160001a905350600a8561329a9190615a67565b94506131f9565b8093505050505b919050565b6132b783836136f3565b6132c46000848484612f5e565b613303576040517f08c379a00000000000000000000000000000000000000000000000000000000081526004016132fa90615821565b60405180910390fd5b505050565b60007f7965db0b000000000000000000000000000000000000000000000000000000007bffffffffffffffffffffffffffffffffffffffffffffffffffffffff1916827bffffffffffffffffffffffffffffffffffffffffffffffffffffffff1916148061337b575061337a826138c1565b5b9050919050565b61338d8383836139a3565b505050565b600060019054906101000a900460ff16806133b8575060008054906101000a900460ff16155b6133f7576040517f08c379a00000000000000000000000000000000000000000000000000000000081526004016133ee90615356565b60405180910390fd5b60008060019054906101000a900460ff161590508015613447576001600060016101000a81548160ff02191690831515021790555060016000806101000a81548160ff0219169083151502179055505b80156134685760008060016101000a81548160ff0219169083151502179055505b50565b600060019054906101000a900460ff1680613491575060008054906101000a900460ff16155b6134d0576040517f08c379a00000000000000000000000000000000000000000000000000000000081526004016134c790615356565b60405180910390fd5b60008060019054906101000a900460ff161590508015613520576001600060016101000a81548160ff02191690831515021790555060016000806101000a81548160ff0219169083151502179055505b80156135415760008060016101000a81548160ff0219169083151502179055505b50565b600060019054906101000a900460ff168061356a575060008054906101000a900460ff16155b6135a9576040517f08c379a00000000000000000000000000000000000000000000000000000000081526004016135a090615356565b60405180910390fd5b60008060019054906101000a900460ff1615905080156135f9576001600060016101000a81548160ff02191690831515021790555060016000806101000a81548160ff0219169083151502179055505b826065908051906020019061360f929190613e2c565b508160669080519060200190613626929190613e2c565b5080156136485760008060016101000a81548160ff0219169083151502179055505b505050565b600080823b905060008111915050919050565b606061015f805461367090614a0e565b80601f016020809104026020016040519081016040528092919081815260200182805461369c90614a0e565b80156136e95780601f106136be576101008083540402835291602001916136e9565b820191906000526020600020905b8154815290600101906020018083116136cc57829003601f168201915b5050505050905090565b600073ffffffffffffffffffffffffffffffffffffffff168273ffffffffffffffffffffffffffffffffffffffff161415613763576040517f08c379a000000000000000000000000000000000000000000000000000000000815260040161375a90615b15565b60405180910390fd5b61376c81611ec1565b156137ac576040517f08c379a00000000000000000000000000000000000000000000000000000000081526004016137a390615b81565b60405180910390fd5b6137b860008383612bf6565b6001606860008473ffffffffffffffffffffffffffffffffffffffff1673ffffffffffffffffffffffffffffffffffffffff1681526020019081526020016000206000828254613808919061561b565b92505081905550816067600083815260200190815260200160002060006101000a81548173ffffffffffffffffffffffffffffffffffffffff021916908373ffffffffffffffffffffffffffffffffffffffff160217905550808273ffffffffffffffffffffffffffffffffffffffff16600073ffffffffffffffffffffffffffffffffffffffff167fddf252ad1be2c89b69c2b068fc378daa952ba7f163c4a11628f55a4df523b3ef60405160405180910390a45050565b60007f80ac58cd000000000000000000000000000000000000000000000000000000007bffffffffffffffffffffffffffffffffffffffffffffffffffffffff1916827bffffffffffffffffffffffffffffffffffffffffffffffffffffffff1916148061398c57507f5b5e139f000000000000000000000000000000000000000000000000000000007bffffffffffffffffffffffffffffffffffffffffffffffffffffffff1916827bffffffffffffffffffffffffffffffffffffffffffffffffffffffff1916145b8061399c575061399b82613ab7565b5b9050919050565b6139ae838383613b21565b600073ffffffffffffffffffffffffffffffffffffffff168373ffffffffffffffffffffffffffffffffffffffff1614156139f1576139ec81613b26565b613a30565b8173ffffffffffffffffffffffffffffffffffffffff168373ffffffffffffffffffffffffffffffffffffffff1614613a2f57613a2e8382613b6f565b5b5b600073ffffffffffffffffffffffffffffffffffffffff168273ffffffffffffffffffffffffffffffffffffffff161415613a7357613a6e81613cdc565b613ab2565b8273ffffffffffffffffffffffffffffffffffffffff168273ffffffffffffffffffffffffffffffffffffffff1614613ab157613ab08282613dad565b5b5b505050565b60007f01ffc9a7000000000000000000000000000000000000000000000000000000007bffffffffffffffffffffffffffffffffffffffffffffffffffffffff1916827bffffffffffffffffffffffffffffffffffffffffffffffffffffffff1916149050919050565b505050565b60fd8054905060fe60008381526020019081526020016000208190555060fd81908060018154018082558091505060019003906000526020600020016000909190919091505550565b60006001613b7c84611100565b613b8691906155e7565b9050600060fc6000848152602001908152602001600020549050818114613c6b57600060fb60008673ffffffffffffffffffffffffffffffffffffffff1673ffffffffffffffffffffffffffffffffffffffff16815260200190815260200160002060008481526020019081526020016000205490508060fb60008773ffffffffffffffffffffffffffffffffffffffff1673ffffffffffffffffffffffffffffffffffffffff1681526020019081526020016000206000848152602001908152602001600020819055508160fc600083815260200190815260200160002081905550505b60fc60008481526020019081526020016000206000905560fb60008573ffffffffffffffffffffffffffffffffffffffff1673ffffffffffffffffffffffffffffffffffffffff16815260200190815260200160002060008381526020019081526020016000206000905550505050565b6000600160fd80549050613cf091906155e7565b9050600060fe6000848152602001908152602001600020549050600060fd8381548110613d2057613d1f615041565b5b906000526020600020015490508060fd8381548110613d4257613d41615041565b5b90600052602060002001819055508160fe60008381526020019081526020016000208190555060fe60008581526020019081526020016000206000905560fd805480613d9157613d90615ba1565b5b6001900381819060005260206000200160009055905550505050565b6000613db883611100565b90508160fb60008573ffffffffffffffffffffffffffffffffffffffff1673ffffffffffffffffffffffffffffffffffffffff1681526020019081526020016000206000838152602001908152602001600020819055508060fc600084815260200190815260200160002081905550505050565b828054613e3890614a0e565b90600052602060002090601f016020900481019282613e5a5760008555613ea1565b82601f10613e7357805160ff1916838001178555613ea1565b82800160010185558215613ea1579182015b82811115613ea0578251825591602001919060010190613e85565b5b509050613eae9190613eb2565b5090565b5b80821115613ecb576000816000905550600101613eb3565b5090565b6000604051905090565b600080fd5b600080fd5b60007fffffffff0000000000000000000000000000000000000000000000000000000082169050919050565b613f1881613ee3565b8114613f2357600080fd5b50565b600081359050613f3581613f0f565b92915050565b600060208284031215613f5157613f50613ed9565b5b6000613f5f84828501613f26565b91505092915050565b60008115159050919050565b613f7d81613f68565b82525050565b6000602082019050613f986000830184613f74565b92915050565b600081519050919050565b600082825260208201905092915050565b60005b83811015613fd8578082015181840152602081019050613fbd565b83811115613fe7576000848401525b50505050565b6000601f19601f8301169050919050565b600061400982613f9e565b6140138185613fa9565b9350614023818560208601613fba565b61402c81613fed565b840191505092915050565b600060208201905081810360008301526140518184613ffe565b905092915050565b6000819050919050565b61406c81614059565b811461407757600080fd5b50565b60008135905061408981614063565b92915050565b6000602082840312156140a5576140a4613ed9565b5b60006140b38482850161407a565b91505092915050565b600073ffffffffffffffffffffffffffffffffffffffff82169050919050565b60006140e7826140bc565b9050919050565b6140f7816140dc565b82525050565b600060208201905061411260008301846140ee565b92915050565b614121816140dc565b811461412c57600080fd5b50565b60008135905061413e81614118565b92915050565b6000806040838503121561415b5761415a613ed9565b5b60006141698582860161412f565b925050602061417a8582860161407a565b9150509250929050565b61418d81614059565b82525050565b60006020820190506141a86000830184614184565b92915050565b600080fd5b600080fd5b7f4e487b7100000000000000000000000000000000000000000000000000000000600052604160045260246000fd5b6141f082613fed565b810181811067ffffffffffffffff8211171561420f5761420e6141b8565b5b80604052505050565b6000614222613ecf565b905061422e82826141e7565b919050565b600067ffffffffffffffff82111561424e5761424d6141b8565b5b61425782613fed565b9050602081019050919050565b82818337600083830152505050565b600061428661428184614233565b614218565b9050828152602081018484840111156142a2576142a16141b3565b5b6142ad848285614264565b509392505050565b600082601f8301126142ca576142c96141ae565b5b81356142da848260208601614273565b91505092915050565b600080600080608085870312156142fd576142fc613ed9565b5b600061430b8782880161412f565b945050602061431c8782880161412f565b935050604085013567ffffffffffffffff81111561433d5761433c613ede565b5b614349878288016142b5565b925050606085013567ffffffffffffffff81111561436a57614369613ede565b5b614376878288016142b5565b91505092959194509250565b60008060006060848603121561439b5761439a613ed9565b5b60006143a98682870161412f565b93505060206143ba8682870161412f565b92505060406143cb8682870161407a565b9150509250925092565b6000819050919050565b6143e8816143d5565b81146143f357600080fd5b50565b600081359050614405816143df565b92915050565b60006020828403121561442157614420613ed9565b5b600061442f848285016143f6565b91505092915050565b614441816143d5565b82525050565b600060208201905061445c6000830184614438565b92915050565b6000806040838503121561447957614478613ed9565b5b6000614487858286016143f6565b92505060206144988582860161412f565b9150509250929050565b6000602082840312156144b8576144b7613ed9565b5b60006144c68482850161412f565b91505092915050565b600081519050919050565b600082825260208201905092915050565b6000819050602082019050919050565b600082825260208201905092915050565b600061451782613f9e565b61452181856144fb565b9350614531818560208601613fba565b61453a81613fed565b840191505092915050565b6000614551838361450c565b905092915050565b6000602082019050919050565b6000614571826144cf565b61457b81856144da565b93508360208202850161458d856144eb565b8060005b858110156145c957848403895281516145aa8582614545565b94506145b583614559565b925060208a01995050600181019050614591565b50829750879550505050505092915050565b600060208201905081810360008301526145f58184614566565b905092915050565b60008060006060848603121561461657614615613ed9565b5b60006146248682870161412f565b935050602084013567ffffffffffffffff81111561464557614644613ede565b5b614651868287016142b5565b925050604084013567ffffffffffffffff81111561467257614671613ede565b5b61467e868287016142b5565b9150509250925092565b600081519050919050565b600082825260208201905092915050565b6000819050602082019050919050565b6146bd81614059565b82525050565b60006146cf83836146b4565b60208301905092915050565b6000602082019050919050565b60006146f382614688565b6146fd8185614693565b9350614708836146a4565b8060005b8381101561473957815161472088826146c3565b975061472b836146db565b92505060018101905061470c565b5085935050505092915050565b6000602082019050818103600083015261476081846146e8565b905092915050565b61477181613f68565b811461477c57600080fd5b50565b60008135905061478e81614768565b92915050565b600080604083850312156147ab576147aa613ed9565b5b60006147b98582860161412f565b92505060206147ca8582860161477f565b9150509250929050565b6000806000606084860312156147ed576147ec613ed9565b5b600084013567ffffffffffffffff81111561480b5761480a613ede565b5b614817868287016142b5565b935050602084013567ffffffffffffffff81111561483857614837613ede565b5b614844868287016142b5565b925050604084013567ffffffffffffffff81111561486557614864613ede565b5b614871868287016142b5565b9150509250925092565b600067ffffffffffffffff821115614896576148956141b8565b5b61489f82613fed565b9050602081019050919050565b60006148bf6148ba8461487b565b614218565b9050828152602081018484840111156148db576148da6141b3565b5b6148e6848285614264565b509392505050565b600082601f830112614903576149026141ae565b5b81356149138482602086016148ac565b91505092915050565b6000806000806080858703121561493657614935613ed9565b5b60006149448782880161412f565b94505060206149558782880161412f565b93505060406149668782880161407a565b925050606085013567ffffffffffffffff81111561498757614986613ede565b5b614993878288016148ee565b91505092959194509250565b600080604083850312156149b6576149b5613ed9565b5b60006149c48582860161412f565b92505060206149d58582860161412f565b9150509250929050565b7f4e487b7100000000000000000000000000000000000000000000000000000000600052602260045260246000fd5b60006002820490506001821680614a2657607f821691505b60208210811415614a3a57614a396149df565b5b50919050565b7f4552433732313a20617070726f76656420717565727920666f72206e6f6e657860008201527f697374656e7420746f6b656e0000000000000000000000000000000000000000602082015250565b6000614a9c602c83613fa9565b9150614aa782614a40565b604082019050919050565b60006020820190508181036000830152614acb81614a8f565b9050919050565b7f4552433732313a20617070726f76616c20746f2063757272656e74206f776e6560008201527f7200000000000000000000000000000000000000000000000000000000000000602082015250565b6000614b2e602183613fa9565b9150614b3982614ad2565b604082019050919050565b60006020820190508181036000830152614b5d81614b21565b9050919050565b7f4552433732313a20617070726f76652063616c6c6572206973206e6f74206f7760008201527f6e6572206e6f7220617070726f76656420666f7220616c6c0000000000000000602082015250565b6000614bc0603883613fa9565b9150614bcb82614b64565b604082019050919050565b60006020820190508181036000830152614bef81614bb3565b9050919050565b7f5573657220646f65736e27742065786973747300000000000000000000000000600082015250565b6000614c2c601383613fa9565b9150614c3782614bf6565b602082019050919050565b60006020820190508181036000830152614c5b81614c1f565b9050919050565b7f416464726573732073616d65206173206d6573736167652073656e6465720000600082015250565b6000614c98601e83613fa9565b9150614ca382614c62565b602082019050919050565b60006020820190508181036000830152614cc781614c8b565b9050919050565b600081905092915050565b6000614ce482613f9e565b614cee8185614cce565b9350614cfe818560208601613fba565b80840191505092915050565b6000614d168284614cd9565b915081905092915050565b7f746f6b656e20616c726561647920657869737473000000000000000000000000600082015250565b6000614d57601483613fa9565b9150614d6282614d21565b602082019050919050565b60006020820190508181036000830152614d8681614d4a565b9050919050565b7f636f6c6f7220616c726561647920657869737473000000000000000000000000600082015250565b6000614dc3601483613fa9565b9150614dce82614d8d565b602082019050919050565b60006020820190508181036000830152614df281614db6565b9050919050565b7f4552433732313a207472616e736665722063616c6c6572206973206e6f74206f60008201527f776e6572206e6f7220617070726f766564000000000000000000000000000000602082015250565b6000614e55603183613fa9565b9150614e6082614df9565b604082019050919050565b60006020820190508181036000830152614e8481614e48565b9050919050565b7f455243373231456e756d657261626c653a206f776e657220696e646578206f7560008201527f74206f6620626f756e6473000000000000000000000000000000000000000000602082015250565b6000614ee7602b83613fa9565b9150614ef282614e8b565b604082019050919050565b60006020820190508181036000830152614f1681614eda565b9050919050565b7f416363657373436f6e74726f6c3a2063616e206f6e6c792072656e6f756e636560008201527f20726f6c657320666f722073656c660000000000000000000000000000000000602082015250565b6000614f79602f83613fa9565b9150614f8482614f1d565b604082019050919050565b60006020820190508181036000830152614fa881614f6c565b9050919050565b7f455243373231456e756d657261626c653a20676c6f62616c20696e646578206f60008201527f7574206f6620626f756e64730000000000000000000000000000000000000000602082015250565b600061500b602c83613fa9565b915061501682614faf565b604082019050919050565b6000602082019050818103600083015261503a81614ffe565b9050919050565b7f4e487b7100000000000000000000000000000000000000000000000000000000600052603260045260246000fd5b7f4552433732313a206f776e657220717565727920666f72206e6f6e657869737460008201527f656e7420746f6b656e0000000000000000000000000000000000000000000000602082015250565b60006150cc602983613fa9565b91506150d782615070565b604082019050919050565b600060208201905081810360008301526150fb816150bf565b9050919050565b7f4552433732313a2062616c616e636520717565727920666f7220746865207a6560008201527f726f206164647265737300000000000000000000000000000000000000000000602082015250565b600061515e602a83613fa9565b915061516982615102565b604082019050919050565b6000602082019050818103600083015261518d81615151565b9050919050565b7f4f776e61626c653a2063616c6c6572206973206e6f7420746865206f776e6572600082015250565b60006151ca602083613fa9565b91506151d582615194565b602082019050919050565b600060208201905081810360008301526151f9816151bd565b9050919050565b7f4e487b7100000000000000000000000000000000000000000000000000000000600052601160045260246000fd5b600061523a82614059565b91507fffffffffffffffffffffffffffffffffffffffffffffffffffffffffffffffff82141561526d5761526c615200565b5b600182019050919050565b7f5573657220206578697374730000000000000000000000000000000000000000600082015250565b60006152ae600c83613fa9565b91506152b982615278565b602082019050919050565b600060208201905081810360008301526152dd816152a1565b9050919050565b7f496e697469616c697a61626c653a20636f6e747261637420697320616c72656160008201527f647920696e697469616c697a6564000000000000000000000000000000000000602082015250565b6000615340602e83613fa9565b915061534b826152e4565b604082019050919050565b6000602082019050818103600083015261536f81615333565b9050919050565b600060408201905061538b60008301856140ee565b6153986020830184614184565b9392505050565b7f4f776e61626c653a206e6577206f776e657220697320746865207a65726f206160008201527f6464726573730000000000000000000000000000000000000000000000000000602082015250565b60006153fb602683613fa9565b91506154068261539f565b604082019050919050565b6000602082019050818103600083015261542a816153ee565b9050919050565b7f4552433732313a206f70657261746f7220717565727920666f72206e6f6e657860008201527f697374656e7420746f6b656e0000000000000000000000000000000000000000602082015250565b600061548d602c83613fa9565b915061549882615431565b604082019050919050565b600060208201905081810360008301526154bc81615480565b9050919050565b7f4552433732313a207472616e73666572206f6620746f6b656e2074686174206960008201527f73206e6f74206f776e0000000000000000000000000000000000000000000000602082015250565b600061551f602983613fa9565b915061552a826154c3565b604082019050919050565b6000602082019050818103600083015261554e81615512565b9050919050565b7f4552433732313a207472616e7366657220746f20746865207a65726f2061646460008201527f7265737300000000000000000000000000000000000000000000000000000000602082015250565b60006155b1602483613fa9565b91506155bc82615555565b604082019050919050565b600060208201905081810360008301526155e0816155a4565b9050919050565b60006155f282614059565b91506155fd83614059565b9250828210156156105761560f615200565b5b828203905092915050565b600061562682614059565b915061563183614059565b9250827fffffffffffffffffffffffffffffffffffffffffffffffffffffffffffffffff0382111561566657615665615200565b5b828201905092915050565b7f416363657373436f6e74726f6c3a206163636f756e7420000000000000000000600082015250565b60006156a7601783614cce565b91506156b282615671565b601782019050919050565b7f206973206d697373696e6720726f6c6520000000000000000000000000000000600082015250565b60006156f3601183614cce565b91506156fe826156bd565b601182019050919050565b60006157148261569a565b91506157208285614cd9565b915061572b826156e6565b91506157378284614cd9565b91508190509392505050565b7f4552433732313a20617070726f766520746f2063616c6c657200000000000000600082015250565b6000615779601983613fa9565b915061578482615743565b602082019050919050565b600060208201905081810360008301526157a88161576c565b9050919050565b7f4552433732313a207472616e7366657220746f206e6f6e20455243373231526560008201527f63656976657220696d706c656d656e7465720000000000000000000000000000602082015250565b600061580b603283613fa9565b9150615816826157af565b604082019050919050565b6000602082019050818103600083015261583a816157fe565b9050919050565b600061584d8285614cd9565b91506158598284614cd9565b91508190509392505050565b600061587082614059565b915061587b83614059565b9250817fffffffffffffffffffffffffffffffffffffffffffffffffffffffffffffffff04831182151516156158b4576158b3615200565b5b828202905092915050565b60006158ca82614059565b915060008214156158de576158dd615200565b5b600182039050919050565b7f537472696e67733a20686578206c656e67746820696e73756666696369656e74600082015250565b600061591f602083613fa9565b915061592a826158e9565b602082019050919050565b6000602082019050818103600083015261594e81615912565b9050919050565b600081519050919050565b600082825260208201905092915050565b600061597c82615955565b6159868185615960565b9350615996818560208601613fba565b61599f81613fed565b840191505092915050565b60006080820190506159bf60008301876140ee565b6159cc60208301866140ee565b6159d96040830185614184565b81810360608301526159eb8184615971565b905095945050505050565b600081519050615a0581613f0f565b92915050565b600060208284031215615a2157615a20613ed9565b5b6000615a2f848285016159f6565b91505092915050565b7f4e487b7100000000000000000000000000000000000000000000000000000000600052601260045260246000fd5b6000615a7282614059565b9150615a7d83614059565b925082615a8d57615a8c615a38565b5b828204905092915050565b6000615aa382614059565b9150615aae83614059565b925082615abe57615abd615a38565b5b828206905092915050565b7f4552433732313a206d696e7420746f20746865207a65726f2061646472657373600082015250565b6000615aff602083613fa9565b9150615b0a82615ac9565b602082019050919050565b60006020820190508181036000830152615b2e81615af2565b9050919050565b7f4552433732313a20746f6b656e20616c7265616479206d696e74656400000000600082015250565b6000615b6b601c83613fa9565b9150615b7682615b35565b602082019050919050565b60006020820190508181036000830152615b9a81615b5e565b9050919050565b7f4e487b7100000000000000000000000000000000000000000000000000000000600052603160045260246000fdfe4552433732314d657461646174613a2055524920717565727920666f72206e6f6e6578697374656e7420746f6b656ea264697066735822122048a7561fc94b4e28cd974deb8e82a41beb948657ba3b049c2d6136ddf2f3324064736f6c634300080a0033",
  "immutableReferences": {},
  "source": "// SPDX-License-Identifier: MIT\npragma solidity 0.8.10;\n\n/// @title An NFT game for newcomer to the blockchain world. Can be used complementary to Bootcamps to get used to MetaMask and Dapps.\n/// @author Lena Hierzi\n/// @notice This contract is not aiming for security as it is designed for testing and only to be deployed on testnet.\n/// @dev All Contract imports can be found in the BaseContract. I think it might be quite heavy and expensive to compile. But it's on the testnet. So go crazy.\n/// @custom:experimental This is an experimental contract.\n\nimport \"./BaseContract.sol\";\n\ncontract NftV2 is BaseContract {\n    using CountersUpgradeable for CountersUpgradeable.Counter;\n    // <tokenIdCounter mapping>\n    CountersUpgradeable.Counter internal _tokenIdCounter;\n    // <tokensToOWner mapping>\n    mapping(uint256 => address) tokensToOwner;\n    // <tokenExist mapping>\n    mapping(string => bool) _tokenExists;\n    // <tokenExist mapping>\n    mapping(string => bool) _colorExists;\n    // <userExist mapping>\n    mapping(address => bool) _userExists;\n\n    /*\n     * Events\n     */\n\n    // <LogForSale event: sku arg>\n    event LogForMint(address owner, uint256 tokenId);\n\n    /*\n     * Modifiers\n     */\n    modifier tokenUnique(string memory token) {\n        require(!_tokenExists[token], \"token already exists\");\n        _;\n    }\n    modifier colorUnique(string memory color) {\n        require(!_colorExists[color], \"color already exists\");\n        _;\n    }\n    modifier userDoesntExists(address user) {\n        require(!_userExists[user], \"User  exists\");\n        _;\n    }\n    modifier userExists(address user) {\n        require(_userExists[user], \"User doesn't exists\");\n        _;\n    }\n    modifier addressNotSender(address user1, address user2) {\n        require(user1 != user2, \"Address same as message sender\");\n        _;\n    }\n\n    /// only called once when contract is initialized. Same s constructor.\n    /// @inheritdoc BaseContract\n    function initialize(\n        string memory _name,\n        string memory _symbol,\n        string memory _baseTokenURI\n    ) public override(BaseContract) initializer {\n        setBaseURI(_baseTokenURI);\n        BaseContract.initialize(_name, _symbol, _baseTokenURI);\n    }\n\n    /// @notice assigns MinterRolle to msg.sender so msg.sender can mint the NFT. Then Token is minted. Can only be called once by every user.\n    /// @dev unfortunatly it dosn't work yet to mint from another address\n    /// @param to The address, the Token should be transfered to\n    /// @param cid The CID of the Tokens metadata\n    /// @param color needs to be checke so there wont be two NFTs with the same color\n    /// @return _id\n    function mint(\n        address to,\n        string memory cid,\n        string memory color\n    )\n        public\n        tokenUnique(cid)\n        colorUnique(color)\n        userDoesntExists(to)\n        returns (uint256 _id)\n    {\n        _id = _tokenIdCounter.current();\n        _grantRole(MINTER_ROLE, to);\n        safeMint(to, cid, color);\n\n        return _id;\n    }\n\n    /// @notice The handshake function is called when a user interacts with another user and a new token is created. The token will only be issued for the caller of the function.\n    /// @dev should only work once per user pair\n    /// @param user1 The address, of the user the token will be asigned too\n    /// @param user2 The address of the user user1 interacted with.\n    /// @param cid The CID of the Tokens metadata\n    /// @param color needs to be checke so there wont be two NFTs with the same color\n    /// @return _id\n\n    function handShake(\n        address user1,\n        address user2,\n        string memory cid,\n        string memory color\n    )\n        public\n        payable\n        userExists(user1)\n        userExists(user2)\n        addressNotSender(user1, user2)\n        tokenUnique(cid)\n        colorUnique(color)\n        returns (uint256 _id)\n    {\n        _id = _tokenIdCounter.current();\n        safeMint(user1, cid, color);\n        return _id;\n    }\n\n    /// @notice checks if the msg.sender has the minter role, if so the token is assigned to several mappings so you can later check who it belongs to, if it exists.\n    /// @dev unfortunatly it dosn't work yet to mint from another address\n    /// @param to The address, the Token should be transfered to\n    /// @param uri The CID of the Tokens metadata\n    function safeMint(\n        address to,\n        string memory uri,\n        string memory color\n    ) public onlyRole(MINTER_ROLE) {\n        uint256 tokenId = _tokenIdCounter.current();\n        _setTokenURI(tokenId, uri);\n        tokensToOwner[tokenId] = to;\n        tokenURIs[tokenId] = uri;\n        _userExists[to] = true;\n        _tokenExists[uri] = true;\n        _colorExists[color] = true;\n\n        _setTokenURI(tokenId, uri);\n        _safeMint(to, tokenId);\n        emit LogForMint(to, tokenId);\n        _tokenIdCounter.increment();\n    }\n\n    /// @notice Returns the cids of one owner without the BaseUri\n    /// @param _owner The person that wants to know which tokens belong to them\n    /// @return userTokens  all cids of tokens belonging to one owner\n    function tokensOfOwner(address _owner)\n        public\n        view\n        userExists(_owner)\n        returns (string[] memory)\n    {\n        uint256 tokenCount = balanceOf(_owner);\n        uint256[] memory tokensId = new uint256[](tokenCount);\n        string[] memory userTokens = new string[](tokenCount);\n\n        for (uint256 i = 0; i < tokenCount; i++) {\n            tokensId[i] = tokenOfOwnerByIndex(_owner, i);\n            if (tokensId[i] == i) {\n                userTokens[i] = tokenURIs[i];\n            }\n        }\n        return userTokens;\n    }\n\n    /// @notice all tokenIds of tokens belonging to one owner\n    /// @param _owner The person that wants to know which tokens belong to them\n    /// @return tokensId\n    function tokenIdsOfOwner(address _owner)\n        public\n        view\n        userExists(_owner)\n        returns (uint256[] memory)\n    {\n        uint256 tokenCount = balanceOf(_owner);\n        uint256[] memory tokensId = new uint256[](tokenCount);\n\n        for (uint256 i = 0; i < tokenCount; i++) {\n            tokensId[i] = tokenOfOwnerByIndex(_owner, i);\n        }\n        return tokensId;\n    }\n\n    /// @notice Returns the tokenUri of a token\n    /// @inheritdoc BaseContract\n    function tokenURI(uint256 tokenId)\n        public\n        view\n        override(BaseContract)\n        returns (string memory)\n    {\n        return super.tokenURI(tokenId);\n    }\n\n    /// @notice Returns the _baseURI of the contract\n    /// @inheritdoc BaseContract\n    function _baseURI()\n        internal\n        view\n        virtual\n        override(BaseContract)\n        returns (string memory)\n    {\n        return super._baseURI();\n    }\n\n    /// @notice Burns tokens\n    /// @inheritdoc BaseContract\n    function _burn(uint256 tokenId) internal virtual override(BaseContract) {\n        super._burn(tokenId);\n    }\n\n    ///  @notice The following functions are overrides for ERC721Enumerable required by Solidity.\n    /// @inheritdoc BaseContract\n\n    function _beforeTokenTransfer(\n        address from,\n        address to,\n        uint256 tokenId\n    ) internal override(BaseContract) {\n        super._beforeTokenTransfer(from, to, tokenId);\n    }\n\n    /// @inheritdoc BaseContract\n    function supportsInterface(bytes4 interfaceId)\n        public\n        view\n        override(BaseContract)\n        returns (bool)\n    {\n        return super.supportsInterface(interfaceId);\n    }\n}\n",
  "sourcePath": "/Users/lenahierzi/Developer/consensys/blockchain-developer-bootcamp-final-project/contracts/NftV2.sol",
  "compiler": {
    "name": "solc",
    "version": "0.8.10+commit.fc410830.Emscripten.clang"
  },
  "schemaVersion": "3.4.3",
  "updatedAt": "2021-12-01T05:11:20.753Z",
  "devdoc": {
    "kind": "dev",
    "methods": {
      "approve(address,uint256)": {
        "details": "See {IERC721-approve}."
      },
      "balanceOf(address)": {
        "details": "See {IERC721-balanceOf}."
      },
      "getApproved(uint256)": {
        "details": "See {IERC721-getApproved}."
      },
      "getRoleAdmin(bytes32)": {
        "details": "Returns the admin role that controls `role`. See {grantRole} and {revokeRole}. To change a role's admin, use {_setRoleAdmin}."
      },
      "grantRole(bytes32,address)": {
        "details": "Grants `role` to `account`. If `account` had not been already granted `role`, emits a {RoleGranted} event. Requirements: - the caller must have ``role``'s admin role."
      },
      "handShake(address,address,string,string)": {
        "details": "should only work once per user pair",
        "params": {
          "cid": "The CID of the Tokens metadata",
          "color": "needs to be checke so there wont be two NFTs with the same color",
          "user1": "The address, of the user the token will be asigned too",
          "user2": "The address of the user user1 interacted with."
        },
        "returns": {
          "_id": "_id"
        }
      },
      "hasRole(bytes32,address)": {
        "details": "Returns `true` if `account` has been granted `role`."
      },
      "initialize(string,string,string)": {
        "details": "upgrade will hopefully work soon",
        "params": {
          "_baseTokenURI": "The CID of the Tokens metadata",
          "_name": "The address, the Token should be transfered to",
          "_symbol": "The CID of the Tokens metadata"
        }
      },
      "isApprovedForAll(address,address)": {
        "details": "See {IERC721-isApprovedForAll}."
      },
      "mint(address,string,string)": {
        "details": "unfortunatly it dosn't work yet to mint from another address",
        "params": {
          "cid": "The CID of the Tokens metadata",
          "color": "needs to be checke so there wont be two NFTs with the same color",
          "to": "The address, the Token should be transfered to"
        },
        "returns": {
          "_id": "_id"
        }
      },
      "name()": {
        "details": "See {IERC721Metadata-name}."
      },
      "owner()": {
        "details": "Returns the address of the current owner."
      },
      "ownerOf(uint256)": {
        "details": "See {IERC721-ownerOf}."
      },
      "renounceOwnership()": {
        "details": "Leaves the contract without owner. It will not be possible to call `onlyOwner` functions anymore. Can only be called by the current owner. NOTE: Renouncing ownership will leave the contract without an owner, thereby removing any functionality that is only available to the owner."
      },
      "renounceRole(bytes32,address)": {
        "details": "Revokes `role` from the calling account. Roles are often managed via {grantRole} and {revokeRole}: this function's purpose is to provide a mechanism for accounts to lose their privileges if they are compromised (such as when a trusted device is misplaced). If the calling account had been revoked `role`, emits a {RoleRevoked} event. Requirements: - the caller must be `account`."
      },
      "revokeRole(bytes32,address)": {
        "details": "Revokes `role` from `account`. If `account` had been granted `role`, emits a {RoleRevoked} event. Requirements: - the caller must have ``role``'s admin role."
      },
      "safeMint(address,string,string)": {
        "details": "unfortunatly it dosn't work yet to mint from another address",
        "params": {
          "to": "The address, the Token should be transfered to",
          "uri": "The CID of the Tokens metadata"
        }
      },
      "safeTransferFrom(address,address,uint256)": {
        "details": "See {IERC721-safeTransferFrom}."
      },
      "safeTransferFrom(address,address,uint256,bytes)": {
        "details": "See {IERC721-safeTransferFrom}."
      },
      "setApprovalForAll(address,bool)": {
        "details": "See {IERC721-setApprovalForAll}."
      },
      "supportsInterface(bytes4)": {
        "details": "See {IERC165-supportsInterface}."
      },
      "symbol()": {
        "details": "See {IERC721Metadata-symbol}."
      },
      "tokenByIndex(uint256)": {
        "details": "See {IERC721Enumerable-tokenByIndex}."
      },
      "tokenIdsOfOwner(address)": {
        "params": {
          "_owner": "The person that wants to know which tokens belong to them"
        },
        "returns": {
          "_0": "tokensId"
        }
      },
      "tokenOfOwnerByIndex(address,uint256)": {
        "details": "See {IERC721Enumerable-tokenOfOwnerByIndex}."
      },
      "tokenURI(uint256)": {
        "details": "If there is no base URI, return the token URI. If there is a baseURI but no tokenURI, concatenate the tokenID to the baseURI.",
        "params": {
          "tokenId": "of Token that should be burned"
        },
        "returns": {
          "_0": "tokenURI"
        }
      },
      "tokensOfOwner(address)": {
        "params": {
          "_owner": "The person that wants to know which tokens belong to them"
        },
        "returns": {
          "_0": "userTokens  all cids of tokens belonging to one owner"
        }
      },
      "totalSupply()": {
        "details": "See {IERC721Enumerable-totalSupply}."
      },
      "transferFrom(address,address,uint256)": {
        "details": "See {IERC721-transferFrom}."
      },
      "transferOwnership(address)": {
        "details": "Transfers ownership of the contract to a new account (`newOwner`). Can only be called by the current owner."
      }
    },
    "version": 1
  },
  "userdoc": {
    "kind": "user",
    "methods": {
      "handShake(address,address,string,string)": {
        "notice": "The handshake function is called when a user interacts with another user and a new token is created. The token will only be issued for the caller of the function."
      },
      "initialize(string,string,string)": {
        "notice": "only called once when contract is initialized. Same s constructor."
      },
      "mint(address,string,string)": {
        "notice": "assigns MinterRolle to msg.sender so msg.sender can mint the NFT. Then Token is minted. Can only be called once by every user."
      },
      "safeMint(address,string,string)": {
        "notice": "checks if the msg.sender has the minter role, if so the token is assigned to several mappings so you can later check who it belongs to, if it exists."
      },
      "tokenIdsOfOwner(address)": {
        "notice": "all tokenIds of tokens belonging to one owner"
      },
      "tokenURI(uint256)": {
        "notice": "Returns the tokenUri of a token"
      },
      "tokensOfOwner(address)": {
        "notice": "Returns the cids of one owner without the BaseUri"
      }
    },
    "version": 1
  }
}