{
  "contractName": "SetTokenUri",
  "abi": [
    {
      "inputs": [
        {
          "internalType": "string",
          "name": "_name",
          "type": "string"
        },
        {
          "internalType": "string",
          "name": "_symbol",
          "type": "string"
        }
      ],
      "stateMutability": "nonpayable",
      "type": "constructor"
    },
    {
      "anonymous": false,
      "inputs": [
        {
          "indexed": true,
          "internalType": "address",
          "name": "owner",
          "type": "address"
        },
        {
          "indexed": true,
          "internalType": "address",
          "name": "approved",
          "type": "address"
        },
        {
          "indexed": true,
          "internalType": "uint256",
          "name": "tokenId",
          "type": "uint256"
        }
      ],
      "name": "Approval",
      "type": "event"
    },
    {
      "anonymous": false,
      "inputs": [
        {
          "indexed": true,
          "internalType": "address",
          "name": "owner",
          "type": "address"
        },
        {
          "indexed": true,
          "internalType": "address",
          "name": "operator",
          "type": "address"
        },
        {
          "indexed": false,
          "internalType": "bool",
          "name": "approved",
          "type": "bool"
        }
      ],
      "name": "ApprovalForAll",
      "type": "event"
    },
    {
      "anonymous": false,
      "inputs": [
        {
          "indexed": true,
          "internalType": "address",
          "name": "previousOwner",
          "type": "address"
        },
        {
          "indexed": true,
          "internalType": "address",
          "name": "newOwner",
          "type": "address"
        }
      ],
      "name": "OwnershipTransferred",
      "type": "event"
    },
    {
      "anonymous": false,
      "inputs": [
        {
          "indexed": true,
          "internalType": "address",
          "name": "from",
          "type": "address"
        },
        {
          "indexed": true,
          "internalType": "address",
          "name": "to",
          "type": "address"
        },
        {
          "indexed": true,
          "internalType": "uint256",
          "name": "tokenId",
          "type": "uint256"
        }
      ],
      "name": "Transfer",
      "type": "event"
    },
    {
      "inputs": [
        {
          "internalType": "address",
          "name": "to",
          "type": "address"
        },
        {
          "internalType": "uint256",
          "name": "tokenId",
          "type": "uint256"
        }
      ],
      "name": "approve",
      "outputs": [],
      "stateMutability": "nonpayable",
      "type": "function"
    },
    {
      "inputs": [
        {
          "internalType": "address",
          "name": "owner",
          "type": "address"
        }
      ],
      "name": "balanceOf",
      "outputs": [
        {
          "internalType": "uint256",
          "name": "",
          "type": "uint256"
        }
      ],
      "stateMutability": "view",
      "type": "function"
    },
    {
      "inputs": [
        {
          "internalType": "uint256",
          "name": "tokenId",
          "type": "uint256"
        }
      ],
      "name": "getApproved",
      "outputs": [
        {
          "internalType": "address",
          "name": "",
          "type": "address"
        }
      ],
      "stateMutability": "view",
      "type": "function"
    },
    {
      "inputs": [
        {
          "internalType": "address",
          "name": "owner",
          "type": "address"
        },
        {
          "internalType": "address",
          "name": "operator",
          "type": "address"
        }
      ],
      "name": "isApprovedForAll",
      "outputs": [
        {
          "internalType": "bool",
          "name": "",
          "type": "bool"
        }
      ],
      "stateMutability": "view",
      "type": "function"
    },
    {
      "inputs": [],
      "name": "name",
      "outputs": [
        {
          "internalType": "string",
          "name": "",
          "type": "string"
        }
      ],
      "stateMutability": "view",
      "type": "function"
    },
    {
      "inputs": [],
      "name": "owner",
      "outputs": [
        {
          "internalType": "address",
          "name": "",
          "type": "address"
        }
      ],
      "stateMutability": "view",
      "type": "function"
    },
    {
      "inputs": [
        {
          "internalType": "uint256",
          "name": "tokenId",
          "type": "uint256"
        }
      ],
      "name": "ownerOf",
      "outputs": [
        {
          "internalType": "address",
          "name": "",
          "type": "address"
        }
      ],
      "stateMutability": "view",
      "type": "function"
    },
    {
      "inputs": [],
      "name": "renounceOwnership",
      "outputs": [],
      "stateMutability": "nonpayable",
      "type": "function"
    },
    {
      "inputs": [
        {
          "internalType": "address",
          "name": "from",
          "type": "address"
        },
        {
          "internalType": "address",
          "name": "to",
          "type": "address"
        },
        {
          "internalType": "uint256",
          "name": "tokenId",
          "type": "uint256"
        }
      ],
      "name": "safeTransferFrom",
      "outputs": [],
      "stateMutability": "nonpayable",
      "type": "function"
    },
    {
      "inputs": [
        {
          "internalType": "address",
          "name": "from",
          "type": "address"
        },
        {
          "internalType": "address",
          "name": "to",
          "type": "address"
        },
        {
          "internalType": "uint256",
          "name": "tokenId",
          "type": "uint256"
        },
        {
          "internalType": "bytes",
          "name": "_data",
          "type": "bytes"
        }
      ],
      "name": "safeTransferFrom",
      "outputs": [],
      "stateMutability": "nonpayable",
      "type": "function"
    },
    {
      "inputs": [
        {
          "internalType": "address",
          "name": "operator",
          "type": "address"
        },
        {
          "internalType": "bool",
          "name": "approved",
          "type": "bool"
        }
      ],
      "name": "setApprovalForAll",
      "outputs": [],
      "stateMutability": "nonpayable",
      "type": "function"
    },
    {
      "inputs": [
        {
          "internalType": "bytes4",
          "name": "interfaceId",
          "type": "bytes4"
        }
      ],
      "name": "supportsInterface",
      "outputs": [
        {
          "internalType": "bool",
          "name": "",
          "type": "bool"
        }
      ],
      "stateMutability": "view",
      "type": "function"
    },
    {
      "inputs": [],
      "name": "symbol",
      "outputs": [
        {
          "internalType": "string",
          "name": "",
          "type": "string"
        }
      ],
      "stateMutability": "view",
      "type": "function"
    },
    {
      "inputs": [
        {
          "internalType": "address",
          "name": "from",
          "type": "address"
        },
        {
          "internalType": "address",
          "name": "to",
          "type": "address"
        },
        {
          "internalType": "uint256",
          "name": "tokenId",
          "type": "uint256"
        }
      ],
      "name": "transferFrom",
      "outputs": [],
      "stateMutability": "nonpayable",
      "type": "function"
    },
    {
      "inputs": [
        {
          "internalType": "address",
          "name": "newOwner",
          "type": "address"
        }
      ],
      "name": "transferOwnership",
      "outputs": [],
      "stateMutability": "nonpayable",
      "type": "function"
    },
    {
      "inputs": [
        {
          "internalType": "string",
          "name": "baseURI_",
          "type": "string"
        }
      ],
      "name": "setBaseURI",
      "outputs": [],
      "stateMutability": "nonpayable",
      "type": "function"
    },
    {
      "inputs": [
        {
          "internalType": "uint256",
          "name": "tokenId",
          "type": "uint256"
        }
      ],
      "name": "tokenURI",
      "outputs": [
        {
          "internalType": "string",
          "name": "",
          "type": "string"
        }
      ],
      "stateMutability": "view",
      "type": "function"
    }
  ],
  "bytecode": "0x60806040523480156200001157600080fd5b5060405162003061380380620030618339818101604052810190620000379190620003c2565b818181600090805190602001906200005192919062000175565b5080600190805190602001906200006a92919062000175565b5050506200009f6200008a620000a7640100000000026401000000009004565b620000af640100000000026401000000009004565b5050620004ac565b600033905090565b6000600660009054906101000a900473ffffffffffffffffffffffffffffffffffffffff16905081600660006101000a81548173ffffffffffffffffffffffffffffffffffffffff021916908373ffffffffffffffffffffffffffffffffffffffff1602179055508173ffffffffffffffffffffffffffffffffffffffff168173ffffffffffffffffffffffffffffffffffffffff167f8be0079c531659141344cd1fd0a4f28419497f9722a3daafe3b4186f6b6457e060405160405180910390a35050565b828054620001839062000476565b90600052602060002090601f016020900481019282620001a75760008555620001f3565b82601f10620001c257805160ff1916838001178555620001f3565b82800160010185558215620001f3579182015b82811115620001f2578251825591602001919060010190620001d5565b5b50905062000202919062000206565b5090565b5b808211156200022157600081600090555060010162000207565b5090565b6000604051905090565b600080fd5b600080fd5b600080fd5b600080fd5b6000601f19601f8301169050919050565b7f4e487b7100000000000000000000000000000000000000000000000000000000600052604160045260246000fd5b6200028e8262000243565b810181811067ffffffffffffffff82111715620002b057620002af62000254565b5b80604052505050565b6000620002c562000225565b9050620002d3828262000283565b919050565b600067ffffffffffffffff821115620002f657620002f562000254565b5b620003018262000243565b9050602081019050919050565b60005b838110156200032e57808201518184015260208101905062000311565b838111156200033e576000848401525b50505050565b60006200035b6200035584620002d8565b620002b9565b9050828152602081018484840111156200037a57620003796200023e565b5b620003878482856200030e565b509392505050565b600082601f830112620003a757620003a662000239565b5b8151620003b984826020860162000344565b91505092915050565b60008060408385031215620003dc57620003db6200022f565b5b600083015167ffffffffffffffff811115620003fd57620003fc62000234565b5b6200040b858286016200038f565b925050602083015167ffffffffffffffff8111156200042f576200042e62000234565b5b6200043d858286016200038f565b9150509250929050565b7f4e487b7100000000000000000000000000000000000000000000000000000000600052602260045260246000fd5b600060028204905060018216806200048f57607f821691505b60208210811415620004a657620004a562000447565b5b50919050565b612ba580620004bc6000396000f3fe608060405234801561001057600080fd5b5060043610610128576000357c01000000000000000000000000000000000000000000000000000000009004806370a08231116100bf578063a22cb4651161008e578063a22cb465146102c1578063b88d4fde146102dd578063c87b56dd146102f9578063e985e9c514610329578063f2fde38b1461035957610128565b806370a082311461024b578063715018a61461027b5780638da5cb5b1461028557806395d89b41146102a357610128565b806323b872dd116100fb57806323b872dd146101c757806342842e0e146101e357806355f804b3146101ff5780636352211e1461021b57610128565b806301ffc9a71461012d57806306fdde031461015d578063081812fc1461017b578063095ea7b3146101ab575b600080fd5b61014760048036038101906101429190611a18565b610375565b6040516101549190611a60565b60405180910390f35b610165610457565b6040516101729190611b14565b60405180910390f35b61019560048036038101906101909190611b6c565b6104e9565b6040516101a29190611bda565b60405180910390f35b6101c560048036038101906101c09190611c21565b61056e565b005b6101e160048036038101906101dc9190611c61565b610686565b005b6101fd60048036038101906101f89190611c61565b6106e6565b005b61021960048036038101906102149190611de9565b610706565b005b61023560048036038101906102309190611b6c565b61079c565b6040516102429190611bda565b60405180910390f35b61026560048036038101906102609190611e32565b61084e565b6040516102729190611e6e565b60405180910390f35b610283610906565b005b61028d61098e565b60405161029a9190611bda565b60405180910390f35b6102ab6109b8565b6040516102b89190611b14565b60405180910390f35b6102db60048036038101906102d69190611eb5565b610a4a565b005b6102f760048036038101906102f29190611f96565b610bcb565b005b610313600480360381019061030e9190611b6c565b610c2d565b6040516103209190611b14565b60405180910390f35b610343600480360381019061033e9190612019565b610da0565b6040516103509190611a60565b60405180910390f35b610373600480360381019061036e9190611e32565b610e34565b005b60007f80ac58cd000000000000000000000000000000000000000000000000000000007bffffffffffffffffffffffffffffffffffffffffffffffffffffffff1916827bffffffffffffffffffffffffffffffffffffffffffffffffffffffff1916148061044057507f5b5e139f000000000000000000000000000000000000000000000000000000007bffffffffffffffffffffffffffffffffffffffffffffffffffffffff1916827bffffffffffffffffffffffffffffffffffffffffffffffffffffffff1916145b80610450575061044f82610f2c565b5b9050919050565b60606000805461046690612088565b80601f016020809104026020016040519081016040528092919081815260200182805461049290612088565b80156104df5780601f106104b4576101008083540402835291602001916104df565b820191906000526020600020905b8154815290600101906020018083116104c257829003601f168201915b5050505050905090565b60006104f482610f96565b610533576040517f08c379a000000000000000000000000000000000000000000000000000000000815260040161052a9061212c565b60405180910390fd5b6004600083815260200190815260200160002060009054906101000a900473ffffffffffffffffffffffffffffffffffffffff169050919050565b60006105798261079c565b90508073ffffffffffffffffffffffffffffffffffffffff168373ffffffffffffffffffffffffffffffffffffffff1614156105ea576040517f08c379a00000000000000000000000000000000000000000000000000000000081526004016105e1906121be565b60405180910390fd5b8073ffffffffffffffffffffffffffffffffffffffff16610609611002565b73ffffffffffffffffffffffffffffffffffffffff161480610638575061063781610632611002565b610da0565b5b610677576040517f08c379a000000000000000000000000000000000000000000000000000000000815260040161066e90612250565b60405180910390fd5b610681838361100a565b505050565b610697610691611002565b826110c3565b6106d6576040517f08c379a00000000000000000000000000000000000000000000000000000000081526004016106cd906122e2565b60405180910390fd5b6106e18383836111a1565b505050565b61070183838360405180602001604052806000815250610bcb565b505050565b61070e611002565b73ffffffffffffffffffffffffffffffffffffffff1661072c61098e565b73ffffffffffffffffffffffffffffffffffffffff1614610782576040517f08c379a00000000000000000000000000000000000000000000000000000000081526004016107799061234e565b60405180910390fd5b8060089080519060200190610798929190611909565b5050565b6000806002600084815260200190815260200160002060009054906101000a900473ffffffffffffffffffffffffffffffffffffffff169050600073ffffffffffffffffffffffffffffffffffffffff168173ffffffffffffffffffffffffffffffffffffffff161415610845576040517f08c379a000000000000000000000000000000000000000000000000000000000815260040161083c906123e0565b60405180910390fd5b80915050919050565b60008073ffffffffffffffffffffffffffffffffffffffff168273ffffffffffffffffffffffffffffffffffffffff1614156108bf576040517f08c379a00000000000000000000000000000000000000000000000000000000081526004016108b690612472565b60405180910390fd5b600360008373ffffffffffffffffffffffffffffffffffffffff1673ffffffffffffffffffffffffffffffffffffffff168152602001908152602001600020549050919050565b61090e611002565b73ffffffffffffffffffffffffffffffffffffffff1661092c61098e565b73ffffffffffffffffffffffffffffffffffffffff1614610982576040517f08c379a00000000000000000000000000000000000000000000000000000000081526004016109799061234e565b60405180910390fd5b61098c60006113fd565b565b6000600660009054906101000a900473ffffffffffffffffffffffffffffffffffffffff16905090565b6060600180546109c790612088565b80601f01602080910402602001604051908101604052809291908181526020018280546109f390612088565b8015610a405780601f10610a1557610100808354040283529160200191610a40565b820191906000526020600020905b815481529060010190602001808311610a2357829003601f168201915b5050505050905090565b610a52611002565b73ffffffffffffffffffffffffffffffffffffffff168273ffffffffffffffffffffffffffffffffffffffff161415610ac0576040517f08c379a0000000000000000000000000000000000000000000000000000000008152600401610ab7906124de565b60405180910390fd5b8060056000610acd611002565b73ffffffffffffffffffffffffffffffffffffffff1673ffffffffffffffffffffffffffffffffffffffff16815260200190815260200160002060008473ffffffffffffffffffffffffffffffffffffffff1673ffffffffffffffffffffffffffffffffffffffff16815260200190815260200160002060006101000a81548160ff0219169083151502179055508173ffffffffffffffffffffffffffffffffffffffff16610b7a611002565b73ffffffffffffffffffffffffffffffffffffffff167f17307eab39ab6107e8899845ad3d59bd9653f200f220920489ca2b5937696c3183604051610bbf9190611a60565b60405180910390a35050565b610bdc610bd6611002565b836110c3565b610c1b576040517f08c379a0000000000000000000000000000000000000000000000000000000008152600401610c12906122e2565b60405180910390fd5b610c27848484846114c3565b50505050565b6060610c3882610f96565b610c77576040517f08c379a0000000000000000000000000000000000000000000000000000000008152600401610c6e90612570565b60405180910390fd5b6000600760008481526020019081526020016000208054610c9790612088565b80601f0160208091040260200160405190810160405280929190818152602001828054610cc390612088565b8015610d105780601f10610ce557610100808354040283529160200191610d10565b820191906000526020600020905b815481529060010190602001808311610cf357829003601f168201915b505050505090506000610d2161151f565b9050600081511415610d37578192505050610d9b565b600082511115610d6c578082604051602001610d549291906125cc565b60405160208183030381529060405292505050610d9b565b80610d76856115b1565b604051602001610d879291906125cc565b604051602081830303815290604052925050505b919050565b6000600560008473ffffffffffffffffffffffffffffffffffffffff1673ffffffffffffffffffffffffffffffffffffffff16815260200190815260200160002060008373ffffffffffffffffffffffffffffffffffffffff1673ffffffffffffffffffffffffffffffffffffffff16815260200190815260200160002060009054906101000a900460ff16905092915050565b610e3c611002565b73ffffffffffffffffffffffffffffffffffffffff16610e5a61098e565b73ffffffffffffffffffffffffffffffffffffffff1614610eb0576040517f08c379a0000000000000000000000000000000000000000000000000000000008152600401610ea79061234e565b60405180910390fd5b600073ffffffffffffffffffffffffffffffffffffffff168173ffffffffffffffffffffffffffffffffffffffff161415610f20576040517f08c379a0000000000000000000000000000000000000000000000000000000008152600401610f1790612662565b60405180910390fd5b610f29816113fd565b50565b60007f01ffc9a7000000000000000000000000000000000000000000000000000000007bffffffffffffffffffffffffffffffffffffffffffffffffffffffff1916827bffffffffffffffffffffffffffffffffffffffffffffffffffffffff1916149050919050565b60008073ffffffffffffffffffffffffffffffffffffffff166002600084815260200190815260200160002060009054906101000a900473ffffffffffffffffffffffffffffffffffffffff1673ffffffffffffffffffffffffffffffffffffffff1614159050919050565b600033905090565b816004600083815260200190815260200160002060006101000a81548173ffffffffffffffffffffffffffffffffffffffff021916908373ffffffffffffffffffffffffffffffffffffffff160217905550808273ffffffffffffffffffffffffffffffffffffffff1661107d8361079c565b73ffffffffffffffffffffffffffffffffffffffff167f8c5be1e5ebec7d5bd14f71427d1e84f3dd0314c0f7b2291e5b200ac8c7c3b92560405160405180910390a45050565b60006110ce82610f96565b61110d576040517f08c379a0000000000000000000000000000000000000000000000000000000008152600401611104906126f4565b60405180910390fd5b60006111188361079c565b90508073ffffffffffffffffffffffffffffffffffffffff168473ffffffffffffffffffffffffffffffffffffffff16148061118757508373ffffffffffffffffffffffffffffffffffffffff1661116f846104e9565b73ffffffffffffffffffffffffffffffffffffffff16145b8061119857506111978185610da0565b5b91505092915050565b8273ffffffffffffffffffffffffffffffffffffffff166111c18261079c565b73ffffffffffffffffffffffffffffffffffffffff1614611217576040517f08c379a000000000000000000000000000000000000000000000000000000000815260040161120e90612786565b60405180910390fd5b600073ffffffffffffffffffffffffffffffffffffffff168273ffffffffffffffffffffffffffffffffffffffff161415611287576040517f08c379a000000000000000000000000000000000000000000000000000000000815260040161127e90612818565b60405180910390fd5b611292838383611731565b61129d60008261100a565b6001600360008573ffffffffffffffffffffffffffffffffffffffff1673ffffffffffffffffffffffffffffffffffffffff16815260200190815260200160002060008282546112ed9190612867565b925050819055506001600360008473ffffffffffffffffffffffffffffffffffffffff1673ffffffffffffffffffffffffffffffffffffffff1681526020019081526020016000206000828254611344919061289b565b92505081905550816002600083815260200190815260200160002060006101000a81548173ffffffffffffffffffffffffffffffffffffffff021916908373ffffffffffffffffffffffffffffffffffffffff160217905550808273ffffffffffffffffffffffffffffffffffffffff168473ffffffffffffffffffffffffffffffffffffffff167fddf252ad1be2c89b69c2b068fc378daa952ba7f163c4a11628f55a4df523b3ef60405160405180910390a4505050565b6000600660009054906101000a900473ffffffffffffffffffffffffffffffffffffffff16905081600660006101000a81548173ffffffffffffffffffffffffffffffffffffffff021916908373ffffffffffffffffffffffffffffffffffffffff1602179055508173ffffffffffffffffffffffffffffffffffffffff168173ffffffffffffffffffffffffffffffffffffffff167f8be0079c531659141344cd1fd0a4f28419497f9722a3daafe3b4186f6b6457e060405160405180910390a35050565b6114ce8484846111a1565b6114da84848484611736565b611519576040517f08c379a000000000000000000000000000000000000000000000000000000000815260040161151090612963565b60405180910390fd5b50505050565b60606008805461152e90612088565b80601f016020809104026020016040519081016040528092919081815260200182805461155a90612088565b80156115a75780601f1061157c576101008083540402835291602001916115a7565b820191906000526020600020905b81548152906001019060200180831161158a57829003601f168201915b5050505050905090565b606060008214156115f9576040518060400160405280600181526020017f3000000000000000000000000000000000000000000000000000000000000000815250905061172c565b600082905060005b6000821461162b57808061161490612983565b915050600a8261162491906129fb565b9150611601565b60008167ffffffffffffffff81111561164757611646611cbe565b5b6040519080825280601f01601f1916602001820160405280156116795781602001600182028036833780820191505090505b5090505b60008514611725576001826116929190612867565b9150600a856116a19190612a2c565b60306116ad919061289b565b7f0100000000000000000000000000000000000000000000000000000000000000028183815181106116e2576116e1612a5d565b5b60200101907effffffffffffffffffffffffffffffffffffffffffffffffffffffffffffff1916908160001a905350600a8561171e91906129fb565b945061167d565b8093505050505b919050565b505050565b60006117578473ffffffffffffffffffffffffffffffffffffffff166118f6565b156118e9578373ffffffffffffffffffffffffffffffffffffffff1663150b7a02611780611002565b8786866040518563ffffffff167c01000000000000000000000000000000000000000000000000000000000281526004016117be9493929190612ae1565b6020604051808303816000875af19250505080156117fa57506040513d601f19601f820116820180604052508101906117f79190612b42565b60015b61187d573d806000811461182a576040519150601f19603f3d011682016040523d82523d6000602084013e61182f565b606091505b50600081511415611875576040517f08c379a000000000000000000000000000000000000000000000000000000000815260040161186c90612963565b60405180910390fd5b805181602001fd5b63150b7a027c0100000000000000000000000000000000000000000000000000000000027bffffffffffffffffffffffffffffffffffffffffffffffffffffffff1916817bffffffffffffffffffffffffffffffffffffffffffffffffffffffff1916149150506118ee565b600190505b949350505050565b600080823b905060008111915050919050565b82805461191590612088565b90600052602060002090601f016020900481019282611937576000855561197e565b82601f1061195057805160ff191683800117855561197e565b8280016001018555821561197e579182015b8281111561197d578251825591602001919060010190611962565b5b50905061198b919061198f565b5090565b5b808211156119a8576000816000905550600101611990565b5090565b6000604051905090565b600080fd5b600080fd5b60007fffffffff0000000000000000000000000000000000000000000000000000000082169050919050565b6119f5816119c0565b8114611a0057600080fd5b50565b600081359050611a12816119ec565b92915050565b600060208284031215611a2e57611a2d6119b6565b5b6000611a3c84828501611a03565b91505092915050565b60008115159050919050565b611a5a81611a45565b82525050565b6000602082019050611a756000830184611a51565b92915050565b600081519050919050565b600082825260208201905092915050565b60005b83811015611ab5578082015181840152602081019050611a9a565b83811115611ac4576000848401525b50505050565b6000601f19601f8301169050919050565b6000611ae682611a7b565b611af08185611a86565b9350611b00818560208601611a97565b611b0981611aca565b840191505092915050565b60006020820190508181036000830152611b2e8184611adb565b905092915050565b6000819050919050565b611b4981611b36565b8114611b5457600080fd5b50565b600081359050611b6681611b40565b92915050565b600060208284031215611b8257611b816119b6565b5b6000611b9084828501611b57565b91505092915050565b600073ffffffffffffffffffffffffffffffffffffffff82169050919050565b6000611bc482611b99565b9050919050565b611bd481611bb9565b82525050565b6000602082019050611bef6000830184611bcb565b92915050565b611bfe81611bb9565b8114611c0957600080fd5b50565b600081359050611c1b81611bf5565b92915050565b60008060408385031215611c3857611c376119b6565b5b6000611c4685828601611c0c565b9250506020611c5785828601611b57565b9150509250929050565b600080600060608486031215611c7a57611c796119b6565b5b6000611c8886828701611c0c565b9350506020611c9986828701611c0c565b9250506040611caa86828701611b57565b9150509250925092565b600080fd5b600080fd5b7f4e487b7100000000000000000000000000000000000000000000000000000000600052604160045260246000fd5b611cf682611aca565b810181811067ffffffffffffffff82111715611d1557611d14611cbe565b5b80604052505050565b6000611d286119ac565b9050611d348282611ced565b919050565b600067ffffffffffffffff821115611d5457611d53611cbe565b5b611d5d82611aca565b9050602081019050919050565b82818337600083830152505050565b6000611d8c611d8784611d39565b611d1e565b905082815260208101848484011115611da857611da7611cb9565b5b611db3848285611d6a565b509392505050565b600082601f830112611dd057611dcf611cb4565b5b8135611de0848260208601611d79565b91505092915050565b600060208284031215611dff57611dfe6119b6565b5b600082013567ffffffffffffffff811115611e1d57611e1c6119bb565b5b611e2984828501611dbb565b91505092915050565b600060208284031215611e4857611e476119b6565b5b6000611e5684828501611c0c565b91505092915050565b611e6881611b36565b82525050565b6000602082019050611e836000830184611e5f565b92915050565b611e9281611a45565b8114611e9d57600080fd5b50565b600081359050611eaf81611e89565b92915050565b60008060408385031215611ecc57611ecb6119b6565b5b6000611eda85828601611c0c565b9250506020611eeb85828601611ea0565b9150509250929050565b600067ffffffffffffffff821115611f1057611f0f611cbe565b5b611f1982611aca565b9050602081019050919050565b6000611f39611f3484611ef5565b611d1e565b905082815260208101848484011115611f5557611f54611cb9565b5b611f60848285611d6a565b509392505050565b600082601f830112611f7d57611f7c611cb4565b5b8135611f8d848260208601611f26565b91505092915050565b60008060008060808587031215611fb057611faf6119b6565b5b6000611fbe87828801611c0c565b9450506020611fcf87828801611c0c565b9350506040611fe087828801611b57565b925050606085013567ffffffffffffffff811115612001576120006119bb565b5b61200d87828801611f68565b91505092959194509250565b600080604083850312156120305761202f6119b6565b5b600061203e85828601611c0c565b925050602061204f85828601611c0c565b9150509250929050565b7f4e487b7100000000000000000000000000000000000000000000000000000000600052602260045260246000fd5b600060028204905060018216806120a057607f821691505b602082108114156120b4576120b3612059565b5b50919050565b7f4552433732313a20617070726f76656420717565727920666f72206e6f6e657860008201527f697374656e7420746f6b656e0000000000000000000000000000000000000000602082015250565b6000612116602c83611a86565b9150612121826120ba565b604082019050919050565b6000602082019050818103600083015261214581612109565b9050919050565b7f4552433732313a20617070726f76616c20746f2063757272656e74206f776e6560008201527f7200000000000000000000000000000000000000000000000000000000000000602082015250565b60006121a8602183611a86565b91506121b38261214c565b604082019050919050565b600060208201905081810360008301526121d78161219b565b9050919050565b7f4552433732313a20617070726f76652063616c6c6572206973206e6f74206f7760008201527f6e6572206e6f7220617070726f76656420666f7220616c6c0000000000000000602082015250565b600061223a603883611a86565b9150612245826121de565b604082019050919050565b600060208201905081810360008301526122698161222d565b9050919050565b7f4552433732313a207472616e736665722063616c6c6572206973206e6f74206f60008201527f776e6572206e6f7220617070726f766564000000000000000000000000000000602082015250565b60006122cc603183611a86565b91506122d782612270565b604082019050919050565b600060208201905081810360008301526122fb816122bf565b9050919050565b7f4f776e61626c653a2063616c6c6572206973206e6f7420746865206f776e6572600082015250565b6000612338602083611a86565b915061234382612302565b602082019050919050565b600060208201905081810360008301526123678161232b565b9050919050565b7f4552433732313a206f776e657220717565727920666f72206e6f6e657869737460008201527f656e7420746f6b656e0000000000000000000000000000000000000000000000602082015250565b60006123ca602983611a86565b91506123d58261236e565b604082019050919050565b600060208201905081810360008301526123f9816123bd565b9050919050565b7f4552433732313a2062616c616e636520717565727920666f7220746865207a6560008201527f726f206164647265737300000000000000000000000000000000000000000000602082015250565b600061245c602a83611a86565b915061246782612400565b604082019050919050565b6000602082019050818103600083015261248b8161244f565b9050919050565b7f4552433732313a20617070726f766520746f2063616c6c657200000000000000600082015250565b60006124c8601983611a86565b91506124d382612492565b602082019050919050565b600060208201905081810360008301526124f7816124bb565b9050919050565b7f4552433732314d657461646174613a2055524920717565727920666f72206e6f60008201527f6e6578697374656e7420746f6b656e0000000000000000000000000000000000602082015250565b600061255a602f83611a86565b9150612565826124fe565b604082019050919050565b600060208201905081810360008301526125898161254d565b9050919050565b600081905092915050565b60006125a682611a7b565b6125b08185612590565b93506125c0818560208601611a97565b80840191505092915050565b60006125d8828561259b565b91506125e4828461259b565b91508190509392505050565b7f4f776e61626c653a206e6577206f776e657220697320746865207a65726f206160008201527f6464726573730000000000000000000000000000000000000000000000000000602082015250565b600061264c602683611a86565b9150612657826125f0565b604082019050919050565b6000602082019050818103600083015261267b8161263f565b9050919050565b7f4552433732313a206f70657261746f7220717565727920666f72206e6f6e657860008201527f697374656e7420746f6b656e0000000000000000000000000000000000000000602082015250565b60006126de602c83611a86565b91506126e982612682565b604082019050919050565b6000602082019050818103600083015261270d816126d1565b9050919050565b7f4552433732313a207472616e73666572206f6620746f6b656e2074686174206960008201527f73206e6f74206f776e0000000000000000000000000000000000000000000000602082015250565b6000612770602983611a86565b915061277b82612714565b604082019050919050565b6000602082019050818103600083015261279f81612763565b9050919050565b7f4552433732313a207472616e7366657220746f20746865207a65726f2061646460008201527f7265737300000000000000000000000000000000000000000000000000000000602082015250565b6000612802602483611a86565b915061280d826127a6565b604082019050919050565b60006020820190508181036000830152612831816127f5565b9050919050565b7f4e487b7100000000000000000000000000000000000000000000000000000000600052601160045260246000fd5b600061287282611b36565b915061287d83611b36565b9250828210156128905761288f612838565b5b828203905092915050565b60006128a682611b36565b91506128b183611b36565b9250827fffffffffffffffffffffffffffffffffffffffffffffffffffffffffffffffff038211156128e6576128e5612838565b5b828201905092915050565b7f4552433732313a207472616e7366657220746f206e6f6e20455243373231526560008201527f63656976657220696d706c656d656e7465720000000000000000000000000000602082015250565b600061294d603283611a86565b9150612958826128f1565b604082019050919050565b6000602082019050818103600083015261297c81612940565b9050919050565b600061298e82611b36565b91507fffffffffffffffffffffffffffffffffffffffffffffffffffffffffffffffff8214156129c1576129c0612838565b5b600182019050919050565b7f4e487b7100000000000000000000000000000000000000000000000000000000600052601260045260246000fd5b6000612a0682611b36565b9150612a1183611b36565b925082612a2157612a206129cc565b5b828204905092915050565b6000612a3782611b36565b9150612a4283611b36565b925082612a5257612a516129cc565b5b828206905092915050565b7f4e487b7100000000000000000000000000000000000000000000000000000000600052603260045260246000fd5b600081519050919050565b600082825260208201905092915050565b6000612ab382612a8c565b612abd8185612a97565b9350612acd818560208601611a97565b612ad681611aca565b840191505092915050565b6000608082019050612af66000830187611bcb565b612b036020830186611bcb565b612b106040830185611e5f565b8181036060830152612b228184612aa8565b905095945050505050565b600081519050612b3c816119ec565b92915050565b600060208284031215612b5857612b576119b6565b5b6000612b6684828501612b2d565b9150509291505056fea2646970667358221220758fe93033cc4f60782c7f2202f31c523eef88735d55d319430448585057745464736f6c634300080a0033",
  "immutableReferences": {},
  "source": "// SPDX-License-Identifier: MIT\npragma solidity  >=0.4.22 <0.9.0;\n\nimport \"@openzeppelin/contracts/token/ERC721/ERC721.sol\";\nimport \"@openzeppelin/contracts/access/Ownable.sol\";\n\ncontract SetTokenUri is ERC721, Ownable {\n    using Strings for uint256;\n\n    // Optional mapping for token URIs\n    mapping(uint256 => string) internal tokenURIs;\n\n    // Base URI\n    string private _baseURIextended;\n\n    constructor(string memory _name, string memory _symbol)\n        ERC721(_name, _symbol)\n    {}\n\n    function setBaseURI(string memory baseURI_) external onlyOwner {\n        _baseURIextended = baseURI_;\n    }\n\n    function _setTokenURI(uint256 tokenId, string memory _tokenURI)\n        internal\n        virtual\n    {\n        require(\n            _exists(tokenId),\n            \"ERC721Metadata: URI set of nonexistent token\"\n        );\n        tokenURIs[tokenId] = _tokenURI;\n    }\n\n    function _baseURI() internal view virtual override returns (string memory) {\n        return _baseURIextended;\n    }\n\n    function tokenURI(uint256 tokenId)\n        public\n        view\n        virtual\n        override\n        returns (string memory)\n    {\n        require(\n            _exists(tokenId),\n            \"ERC721Metadata: URI query for nonexistent token\"\n        );\n\n        string memory _tokenURI = tokenURIs[tokenId];\n        string memory base = _baseURI();\n\n        // If there is no base URI, return the token URI.\n        if (bytes(base).length == 0) {\n            return _tokenURI;\n        }\n        // If both are set, concatenate the baseURI and tokenURI (via abi.encodePacked).\n        if (bytes(_tokenURI).length > 0) {\n            return string(abi.encodePacked(base, _tokenURI));\n        }\n        // If there is a baseURI but no tokenURI, concatenate the tokenID to the baseURI.\n        return string(abi.encodePacked(base, tokenId.toString()));\n    }\n}\n",
  "sourcePath": "/Users/lenahierzi/Developer/consensys/blockchain-developer-bootcamp-final-project/contracts/SetTokenUri.sol",
  "compiler": {
    "name": "solc",
    "version": "0.8.10+commit.fc410830.Emscripten.clang"
  },
  "schemaVersion": "3.4.3",
  "updatedAt": "2021-11-28T11:36:11.459Z",
  "devdoc": {
    "kind": "dev",
    "methods": {
      "approve(address,uint256)": {
        "details": "See {IERC721-approve}."
      },
      "balanceOf(address)": {
        "details": "See {IERC721-balanceOf}."
      },
      "getApproved(uint256)": {
        "details": "See {IERC721-getApproved}."
      },
      "isApprovedForAll(address,address)": {
        "details": "See {IERC721-isApprovedForAll}."
      },
      "name()": {
        "details": "See {IERC721Metadata-name}."
      },
      "owner()": {
        "details": "Returns the address of the current owner."
      },
      "ownerOf(uint256)": {
        "details": "See {IERC721-ownerOf}."
      },
      "renounceOwnership()": {
        "details": "Leaves the contract without owner. It will not be possible to call `onlyOwner` functions anymore. Can only be called by the current owner. NOTE: Renouncing ownership will leave the contract without an owner, thereby removing any functionality that is only available to the owner."
      },
      "safeTransferFrom(address,address,uint256)": {
        "details": "See {IERC721-safeTransferFrom}."
      },
      "safeTransferFrom(address,address,uint256,bytes)": {
        "details": "See {IERC721-safeTransferFrom}."
      },
      "setApprovalForAll(address,bool)": {
        "details": "See {IERC721-setApprovalForAll}."
      },
      "supportsInterface(bytes4)": {
        "details": "See {IERC165-supportsInterface}."
      },
      "symbol()": {
        "details": "See {IERC721Metadata-symbol}."
      },
      "tokenURI(uint256)": {
        "details": "See {IERC721Metadata-tokenURI}."
      },
      "transferFrom(address,address,uint256)": {
        "details": "See {IERC721-transferFrom}."
      },
      "transferOwnership(address)": {
        "details": "Transfers ownership of the contract to a new account (`newOwner`). Can only be called by the current owner."
      }
    },
    "version": 1
  },
  "userdoc": {
    "kind": "user",
    "methods": {},
    "version": 1
  }
}