{
  "contractName": "SetTokenUri",
  "abi": [
    {
      "anonymous": false,
      "inputs": [
        {
          "indexed": true,
          "internalType": "address",
          "name": "owner",
          "type": "address"
        },
        {
          "indexed": true,
          "internalType": "address",
          "name": "approved",
          "type": "address"
        },
        {
          "indexed": true,
          "internalType": "uint256",
          "name": "tokenId",
          "type": "uint256"
        }
      ],
      "name": "Approval",
      "type": "event"
    },
    {
      "anonymous": false,
      "inputs": [
        {
          "indexed": true,
          "internalType": "address",
          "name": "owner",
          "type": "address"
        },
        {
          "indexed": true,
          "internalType": "address",
          "name": "operator",
          "type": "address"
        },
        {
          "indexed": false,
          "internalType": "bool",
          "name": "approved",
          "type": "bool"
        }
      ],
      "name": "ApprovalForAll",
      "type": "event"
    },
    {
      "anonymous": false,
      "inputs": [
        {
          "indexed": true,
          "internalType": "address",
          "name": "previousOwner",
          "type": "address"
        },
        {
          "indexed": true,
          "internalType": "address",
          "name": "newOwner",
          "type": "address"
        }
      ],
      "name": "OwnershipTransferred",
      "type": "event"
    },
    {
      "anonymous": false,
      "inputs": [
        {
          "indexed": true,
          "internalType": "bytes32",
          "name": "role",
          "type": "bytes32"
        },
        {
          "indexed": true,
          "internalType": "bytes32",
          "name": "previousAdminRole",
          "type": "bytes32"
        },
        {
          "indexed": true,
          "internalType": "bytes32",
          "name": "newAdminRole",
          "type": "bytes32"
        }
      ],
      "name": "RoleAdminChanged",
      "type": "event"
    },
    {
      "anonymous": false,
      "inputs": [
        {
          "indexed": true,
          "internalType": "bytes32",
          "name": "role",
          "type": "bytes32"
        },
        {
          "indexed": true,
          "internalType": "address",
          "name": "account",
          "type": "address"
        },
        {
          "indexed": true,
          "internalType": "address",
          "name": "sender",
          "type": "address"
        }
      ],
      "name": "RoleGranted",
      "type": "event"
    },
    {
      "anonymous": false,
      "inputs": [
        {
          "indexed": true,
          "internalType": "bytes32",
          "name": "role",
          "type": "bytes32"
        },
        {
          "indexed": true,
          "internalType": "address",
          "name": "account",
          "type": "address"
        },
        {
          "indexed": true,
          "internalType": "address",
          "name": "sender",
          "type": "address"
        }
      ],
      "name": "RoleRevoked",
      "type": "event"
    },
    {
      "anonymous": false,
      "inputs": [
        {
          "indexed": true,
          "internalType": "address",
          "name": "from",
          "type": "address"
        },
        {
          "indexed": true,
          "internalType": "address",
          "name": "to",
          "type": "address"
        },
        {
          "indexed": true,
          "internalType": "uint256",
          "name": "tokenId",
          "type": "uint256"
        }
      ],
      "name": "Transfer",
      "type": "event"
    },
    {
      "inputs": [],
      "name": "DEFAULT_ADMIN_ROLE",
      "outputs": [
        {
          "internalType": "bytes32",
          "name": "",
          "type": "bytes32"
        }
      ],
      "stateMutability": "view",
      "type": "function"
    },
    {
      "inputs": [],
      "name": "MAX_PER_MINT",
      "outputs": [
        {
          "internalType": "uint256",
          "name": "",
          "type": "uint256"
        }
      ],
      "stateMutability": "view",
      "type": "function"
    },
    {
      "inputs": [],
      "name": "MAX_SUPPLY",
      "outputs": [
        {
          "internalType": "uint256",
          "name": "",
          "type": "uint256"
        }
      ],
      "stateMutability": "view",
      "type": "function"
    },
    {
      "inputs": [],
      "name": "MINTER_ROLE",
      "outputs": [
        {
          "internalType": "bytes32",
          "name": "",
          "type": "bytes32"
        }
      ],
      "stateMutability": "view",
      "type": "function"
    },
    {
      "inputs": [],
      "name": "PRICE",
      "outputs": [
        {
          "internalType": "uint256",
          "name": "",
          "type": "uint256"
        }
      ],
      "stateMutability": "view",
      "type": "function"
    },
    {
      "inputs": [
        {
          "internalType": "address",
          "name": "to",
          "type": "address"
        },
        {
          "internalType": "uint256",
          "name": "tokenId",
          "type": "uint256"
        }
      ],
      "name": "approve",
      "outputs": [],
      "stateMutability": "nonpayable",
      "type": "function"
    },
    {
      "inputs": [
        {
          "internalType": "address",
          "name": "owner",
          "type": "address"
        }
      ],
      "name": "balanceOf",
      "outputs": [
        {
          "internalType": "uint256",
          "name": "",
          "type": "uint256"
        }
      ],
      "stateMutability": "view",
      "type": "function"
    },
    {
      "inputs": [],
      "name": "baseTokenURI",
      "outputs": [
        {
          "internalType": "string",
          "name": "",
          "type": "string"
        }
      ],
      "stateMutability": "view",
      "type": "function"
    },
    {
      "inputs": [
        {
          "internalType": "uint256",
          "name": "tokenId",
          "type": "uint256"
        }
      ],
      "name": "getApproved",
      "outputs": [
        {
          "internalType": "address",
          "name": "",
          "type": "address"
        }
      ],
      "stateMutability": "view",
      "type": "function"
    },
    {
      "inputs": [
        {
          "internalType": "bytes32",
          "name": "role",
          "type": "bytes32"
        }
      ],
      "name": "getRoleAdmin",
      "outputs": [
        {
          "internalType": "bytes32",
          "name": "",
          "type": "bytes32"
        }
      ],
      "stateMutability": "view",
      "type": "function"
    },
    {
      "inputs": [
        {
          "internalType": "bytes32",
          "name": "role",
          "type": "bytes32"
        },
        {
          "internalType": "address",
          "name": "account",
          "type": "address"
        }
      ],
      "name": "grantRole",
      "outputs": [],
      "stateMutability": "nonpayable",
      "type": "function"
    },
    {
      "inputs": [
        {
          "internalType": "bytes32",
          "name": "role",
          "type": "bytes32"
        },
        {
          "internalType": "address",
          "name": "account",
          "type": "address"
        }
      ],
      "name": "hasRole",
      "outputs": [
        {
          "internalType": "bool",
          "name": "",
          "type": "bool"
        }
      ],
      "stateMutability": "view",
      "type": "function"
    },
    {
      "inputs": [
        {
          "internalType": "address",
          "name": "owner",
          "type": "address"
        },
        {
          "internalType": "address",
          "name": "operator",
          "type": "address"
        }
      ],
      "name": "isApprovedForAll",
      "outputs": [
        {
          "internalType": "bool",
          "name": "",
          "type": "bool"
        }
      ],
      "stateMutability": "view",
      "type": "function"
    },
    {
      "inputs": [],
      "name": "name",
      "outputs": [
        {
          "internalType": "string",
          "name": "",
          "type": "string"
        }
      ],
      "stateMutability": "view",
      "type": "function"
    },
    {
      "inputs": [],
      "name": "owner",
      "outputs": [
        {
          "internalType": "address",
          "name": "",
          "type": "address"
        }
      ],
      "stateMutability": "view",
      "type": "function"
    },
    {
      "inputs": [
        {
          "internalType": "uint256",
          "name": "tokenId",
          "type": "uint256"
        }
      ],
      "name": "ownerOf",
      "outputs": [
        {
          "internalType": "address",
          "name": "",
          "type": "address"
        }
      ],
      "stateMutability": "view",
      "type": "function"
    },
    {
      "inputs": [],
      "name": "renounceOwnership",
      "outputs": [],
      "stateMutability": "nonpayable",
      "type": "function"
    },
    {
      "inputs": [
        {
          "internalType": "bytes32",
          "name": "role",
          "type": "bytes32"
        },
        {
          "internalType": "address",
          "name": "account",
          "type": "address"
        }
      ],
      "name": "renounceRole",
      "outputs": [],
      "stateMutability": "nonpayable",
      "type": "function"
    },
    {
      "inputs": [
        {
          "internalType": "bytes32",
          "name": "role",
          "type": "bytes32"
        },
        {
          "internalType": "address",
          "name": "account",
          "type": "address"
        }
      ],
      "name": "revokeRole",
      "outputs": [],
      "stateMutability": "nonpayable",
      "type": "function"
    },
    {
      "inputs": [
        {
          "internalType": "address",
          "name": "from",
          "type": "address"
        },
        {
          "internalType": "address",
          "name": "to",
          "type": "address"
        },
        {
          "internalType": "uint256",
          "name": "tokenId",
          "type": "uint256"
        }
      ],
      "name": "safeTransferFrom",
      "outputs": [],
      "stateMutability": "nonpayable",
      "type": "function"
    },
    {
      "inputs": [
        {
          "internalType": "address",
          "name": "from",
          "type": "address"
        },
        {
          "internalType": "address",
          "name": "to",
          "type": "address"
        },
        {
          "internalType": "uint256",
          "name": "tokenId",
          "type": "uint256"
        },
        {
          "internalType": "bytes",
          "name": "_data",
          "type": "bytes"
        }
      ],
      "name": "safeTransferFrom",
      "outputs": [],
      "stateMutability": "nonpayable",
      "type": "function"
    },
    {
      "inputs": [
        {
          "internalType": "address",
          "name": "operator",
          "type": "address"
        },
        {
          "internalType": "bool",
          "name": "approved",
          "type": "bool"
        }
      ],
      "name": "setApprovalForAll",
      "outputs": [],
      "stateMutability": "nonpayable",
      "type": "function"
    },
    {
      "inputs": [],
      "name": "symbol",
      "outputs": [
        {
          "internalType": "string",
          "name": "",
          "type": "string"
        }
      ],
      "stateMutability": "view",
      "type": "function"
    },
    {
      "inputs": [
        {
          "internalType": "uint256",
          "name": "index",
          "type": "uint256"
        }
      ],
      "name": "tokenByIndex",
      "outputs": [
        {
          "internalType": "uint256",
          "name": "",
          "type": "uint256"
        }
      ],
      "stateMutability": "view",
      "type": "function"
    },
    {
      "inputs": [
        {
          "internalType": "address",
          "name": "owner",
          "type": "address"
        },
        {
          "internalType": "uint256",
          "name": "index",
          "type": "uint256"
        }
      ],
      "name": "tokenOfOwnerByIndex",
      "outputs": [
        {
          "internalType": "uint256",
          "name": "",
          "type": "uint256"
        }
      ],
      "stateMutability": "view",
      "type": "function"
    },
    {
      "inputs": [],
      "name": "totalSupply",
      "outputs": [
        {
          "internalType": "uint256",
          "name": "",
          "type": "uint256"
        }
      ],
      "stateMutability": "view",
      "type": "function"
    },
    {
      "inputs": [
        {
          "internalType": "address",
          "name": "from",
          "type": "address"
        },
        {
          "internalType": "address",
          "name": "to",
          "type": "address"
        },
        {
          "internalType": "uint256",
          "name": "tokenId",
          "type": "uint256"
        }
      ],
      "name": "transferFrom",
      "outputs": [],
      "stateMutability": "nonpayable",
      "type": "function"
    },
    {
      "inputs": [
        {
          "internalType": "address",
          "name": "newOwner",
          "type": "address"
        }
      ],
      "name": "transferOwnership",
      "outputs": [],
      "stateMutability": "nonpayable",
      "type": "function"
    },
    {
      "inputs": [
        {
          "internalType": "string",
          "name": "_name",
          "type": "string"
        },
        {
          "internalType": "string",
          "name": "_symbol",
          "type": "string"
        },
        {
          "internalType": "string",
          "name": "_baseTokenURI",
          "type": "string"
        },
        {
          "internalType": "address",
          "name": "_owner",
          "type": "address"
        }
      ],
      "name": "initialize",
      "outputs": [],
      "stateMutability": "nonpayable",
      "type": "function"
    },
    {
      "inputs": [
        {
          "internalType": "string",
          "name": "baseURI_",
          "type": "string"
        }
      ],
      "name": "setBaseURI",
      "outputs": [],
      "stateMutability": "nonpayable",
      "type": "function"
    },
    {
      "inputs": [
        {
          "internalType": "uint256",
          "name": "tokenId",
          "type": "uint256"
        }
      ],
      "name": "tokenURI",
      "outputs": [
        {
          "internalType": "string",
          "name": "",
          "type": "string"
        }
      ],
      "stateMutability": "view",
      "type": "function"
    },
    {
      "inputs": [
        {
          "internalType": "bytes4",
          "name": "interfaceId",
          "type": "bytes4"
        }
      ],
      "name": "supportsInterface",
      "outputs": [
        {
          "internalType": "bool",
          "name": "",
          "type": "bool"
        }
      ],
      "stateMutability": "view",
      "type": "function"
    }
  ],
  "bytecode": "0x608060405234801561001057600080fd5b50614683806100206000396000f3fe608060405234801561001057600080fd5b506004361061020d576000357c0100000000000000000000000000000000000000000000000000000000900480636352211e1161012c578063a22cb465116100bf578063d547741f1161008e578063d547741f146105d6578063d547cfb7146105f2578063e985e9c514610610578063f2fde38b146106405761020d565b8063a22cb46514610550578063b88d4fde1461056c578063c87b56dd14610588578063d5391393146105b85761020d565b80638da5cb5b116100fb5780638da5cb5b146104c657806391d14854146104e457806395d89b4114610514578063a217fddf146105325761020d565b80636352211e1461043e57806370a082311461046e578063715018a61461049e5780638d859f3e146104a85761020d565b80632f2ff15d116101a457806342842e0e1161017357806342842e0e146103ba5780634f6ccce7146103d657806355f804b3146104065780635c6d8da1146104225761020d565b80632f2ff15d146103345780632f745c591461035057806332cb6b0c1461038057806336568abe1461039e5761020d565b806309d42b30116101e057806309d42b30146102ac57806318160ddd146102ca57806323b872dd146102e8578063248a9ca3146103045761020d565b806301ffc9a71461021257806306fdde0314610242578063081812fc14610260578063095ea7b314610290575b600080fd5b61022c60048036038101906102279190612f35565b61065c565b6040516102399190612f7d565b60405180910390f35b61024a61066e565b6040516102579190613031565b60405180910390f35b61027a60048036038101906102759190613089565b610700565b60405161028791906130f7565b60405180910390f35b6102aa60048036038101906102a5919061313e565b610785565b005b6102b461089d565b6040516102c1919061318d565b60405180910390f35b6102d26108a2565b6040516102df919061318d565b60405180910390f35b61030260048036038101906102fd91906131a8565b6108af565b005b61031e60048036038101906103199190613231565b61090f565b60405161032b919061326d565b60405180910390f35b61034e60048036038101906103499190613288565b61092f565b005b61036a6004803603810190610365919061313e565b610958565b604051610377919061318d565b60405180910390f35b6103886109fd565b604051610395919061318d565b60405180910390f35b6103b860048036038101906103b39190613288565b610a03565b005b6103d460048036038101906103cf91906131a8565b610a86565b005b6103f060048036038101906103eb9190613089565b610aa6565b6040516103fd919061318d565b60405180910390f35b610420600480360381019061041b91906133fd565b610b17565b005b61043c60048036038101906104379190613446565b610bae565b005b61045860048036038101906104539190613089565b610ce5565b60405161046591906130f7565b60405180910390f35b61048860048036038101906104839190613501565b610d97565b604051610495919061318d565b60405180910390f35b6104a6610e4f565b005b6104b0610ed7565b6040516104bd919061318d565b60405180910390f35b6104ce610ee1565b6040516104db91906130f7565b60405180910390f35b6104fe60048036038101906104f99190613288565b610f0c565b60405161050b9190612f7d565b60405180910390f35b61051c610f77565b6040516105299190613031565b60405180910390f35b61053a611009565b604051610547919061326d565b60405180910390f35b61056a6004803603810190610565919061355a565b611011565b005b6105866004803603810190610581919061363b565b611027565b005b6105a2600480360381019061059d9190613089565b611089565b6040516105af9190613031565b60405180910390f35b6105c06111fd565b6040516105cd919061326d565b60405180910390f35b6105f060048036038101906105eb9190613288565b611221565b005b6105fa61124a565b6040516106079190613031565b60405180910390f35b61062a600480360381019061062591906136be565b6112d9565b6040516106379190612f7d565b60405180910390f35b61065a60048036038101906106559190613501565b61136d565b005b600061066782611465565b9050919050565b60606065805461067d9061372d565b80601f01602080910402602001604051908101604052809291908181526020018280546106a99061372d565b80156106f65780601f106106cb576101008083540402835291602001916106f6565b820191906000526020600020905b8154815290600101906020018083116106d957829003601f168201915b5050505050905090565b600061070b826114df565b61074a576040517f08c379a0000000000000000000000000000000000000000000000000000000008152600401610741906137d1565b60405180910390fd5b6069600083815260200190815260200160002060009054906101000a900473ffffffffffffffffffffffffffffffffffffffff169050919050565b600061079082610ce5565b90508073ffffffffffffffffffffffffffffffffffffffff168373ffffffffffffffffffffffffffffffffffffffff161415610801576040517f08c379a00000000000000000000000000000000000000000000000000000000081526004016107f890613863565b60405180910390fd5b8073ffffffffffffffffffffffffffffffffffffffff1661082061154b565b73ffffffffffffffffffffffffffffffffffffffff16148061084f575061084e8161084961154b565b6112d9565b5b61088e576040517f08c379a0000000000000000000000000000000000000000000000000000000008152600401610885906138f5565b60405180910390fd5b6108988383611553565b505050565b606481565b600060fd80549050905090565b6108c06108ba61154b565b8261160c565b6108ff576040517f08c379a00000000000000000000000000000000000000000000000000000000081526004016108f690613987565b60405180910390fd5b61090a8383836116ea565b505050565b600060c96000838152602001908152602001600020600101549050919050565b6109388261090f565b6109498161094461154b565b611946565b61095383836119e4565b505050565b600061096383610d97565b82106109a4576040517f08c379a000000000000000000000000000000000000000000000000000000000815260040161099b90613a19565b60405180910390fd5b60fb60008473ffffffffffffffffffffffffffffffffffffffff1673ffffffffffffffffffffffffffffffffffffffff168152602001908152602001600020600083815260200190815260200160002054905092915050565b61c35081565b610a0b61154b565b73ffffffffffffffffffffffffffffffffffffffff168173ffffffffffffffffffffffffffffffffffffffff1614610a78576040517f08c379a0000000000000000000000000000000000000000000000000000000008152600401610a6f90613aab565b60405180910390fd5b610a828282611ac5565b5050565b610aa183838360405180602001604052806000815250611027565b505050565b6000610ab06108a2565b8210610af1576040517f08c379a0000000000000000000000000000000000000000000000000000000008152600401610ae890613b3d565b60405180910390fd5b60fd8281548110610b0557610b04613b5d565b5b90600052602060002001549050919050565b610b1f61154b565b73ffffffffffffffffffffffffffffffffffffffff16610b3d610ee1565b73ffffffffffffffffffffffffffffffffffffffff1614610b93576040517f08c379a0000000000000000000000000000000000000000000000000000000008152600401610b8a90613bd8565b60405180910390fd5b806101619080519060200190610baa929190612e26565b5050565b600060019054906101000a900460ff1680610bd4575060008054906101000a900460ff16155b610c13576040517f08c379a0000000000000000000000000000000000000000000000000000000008152600401610c0a90613c6a565b60405180910390fd5b60008060019054906101000a900460ff161590508015610c63576001600060016101000a81548160ff02191690831515021790555060016000806101000a81548160ff0219169083151502179055505b610c6d8585611ba7565b826101609080519060200190610c84929190612e26565b50610c936000600102836119e4565b610cbd7f9f2df0fed2c77648de5860a4cc508cd0818c85b8b8a1ab4ceeef8d981c8956a6836119e4565b8015610cde5760008060016101000a81548160ff0219169083151502179055505b5050505050565b6000806067600084815260200190815260200160002060009054906101000a900473ffffffffffffffffffffffffffffffffffffffff169050600073ffffffffffffffffffffffffffffffffffffffff168173ffffffffffffffffffffffffffffffffffffffff161415610d8e576040517f08c379a0000000000000000000000000000000000000000000000000000000008152600401610d8590613cfc565b60405180910390fd5b80915050919050565b60008073ffffffffffffffffffffffffffffffffffffffff168273ffffffffffffffffffffffffffffffffffffffff161415610e08576040517f08c379a0000000000000000000000000000000000000000000000000000000008152600401610dff90613d8e565b60405180910390fd5b606860008373ffffffffffffffffffffffffffffffffffffffff1673ffffffffffffffffffffffffffffffffffffffff168152602001908152602001600020549050919050565b610e5761154b565b73ffffffffffffffffffffffffffffffffffffffff16610e75610ee1565b73ffffffffffffffffffffffffffffffffffffffff1614610ecb576040517f08c379a0000000000000000000000000000000000000000000000000000000008152600401610ec290613bd8565b60405180910390fd5b610ed56000611c9c565b565b655af3107a400081565b600061012d60009054906101000a900473ffffffffffffffffffffffffffffffffffffffff16905090565b600060c9600084815260200190815260200160002060000160008373ffffffffffffffffffffffffffffffffffffffff1673ffffffffffffffffffffffffffffffffffffffff16815260200190815260200160002060009054906101000a900460ff16905092915050565b606060668054610f869061372d565b80601f0160208091040260200160405190810160405280929190818152602001828054610fb29061372d565b8015610fff5780601f10610fd457610100808354040283529160200191610fff565b820191906000526020600020905b815481529060010190602001808311610fe257829003601f168201915b5050505050905090565b600060010281565b61102361101c61154b565b8383611d64565b5050565b61103861103261154b565b8361160c565b611077576040517f08c379a000000000000000000000000000000000000000000000000000000000815260040161106e90613987565b60405180910390fd5b61108384848484611ed1565b50505050565b6060611094826114df565b6110d3576040517f08c379a00000000000000000000000000000000000000000000000000000000081526004016110ca90613e20565b60405180910390fd5b600061015f600084815260200190815260200160002080546110f49061372d565b80601f01602080910402602001604051908101604052809291908181526020018280546111209061372d565b801561116d5780601f106111425761010080835404028352916020019161116d565b820191906000526020600020905b81548152906001019060200180831161115057829003601f168201915b50505050509050600061117e611f2d565b90506000815114156111945781925050506111f8565b6000825111156111c95780826040516020016111b1929190613e7c565b604051602081830303815290604052925050506111f8565b806111d385611fc0565b6040516020016111e4929190613e7c565b604051602081830303815290604052925050505b919050565b7f9f2df0fed2c77648de5860a4cc508cd0818c85b8b8a1ab4ceeef8d981c8956a681565b61122a8261090f565b61123b8161123661154b565b611946565b6112458383611ac5565b505050565b61016080546112589061372d565b80601f01602080910402602001604051908101604052809291908181526020018280546112849061372d565b80156112d15780601f106112a6576101008083540402835291602001916112d1565b820191906000526020600020905b8154815290600101906020018083116112b457829003601f168201915b505050505081565b6000606a60008473ffffffffffffffffffffffffffffffffffffffff1673ffffffffffffffffffffffffffffffffffffffff16815260200190815260200160002060008373ffffffffffffffffffffffffffffffffffffffff1673ffffffffffffffffffffffffffffffffffffffff16815260200190815260200160002060009054906101000a900460ff16905092915050565b61137561154b565b73ffffffffffffffffffffffffffffffffffffffff16611393610ee1565b73ffffffffffffffffffffffffffffffffffffffff16146113e9576040517f08c379a00000000000000000000000000000000000000000000000000000000081526004016113e090613bd8565b60405180910390fd5b600073ffffffffffffffffffffffffffffffffffffffff168173ffffffffffffffffffffffffffffffffffffffff161415611459576040517f08c379a000000000000000000000000000000000000000000000000000000000815260040161145090613f12565b60405180910390fd5b61146281611c9c565b50565b60007f780e9d63000000000000000000000000000000000000000000000000000000007bffffffffffffffffffffffffffffffffffffffffffffffffffffffff1916827bffffffffffffffffffffffffffffffffffffffffffffffffffffffff191614806114d857506114d782612140565b5b9050919050565b60008073ffffffffffffffffffffffffffffffffffffffff166067600084815260200190815260200160002060009054906101000a900473ffffffffffffffffffffffffffffffffffffffff1673ffffffffffffffffffffffffffffffffffffffff1614159050919050565b600033905090565b816069600083815260200190815260200160002060006101000a81548173ffffffffffffffffffffffffffffffffffffffff021916908373ffffffffffffffffffffffffffffffffffffffff160217905550808273ffffffffffffffffffffffffffffffffffffffff166115c683610ce5565b73ffffffffffffffffffffffffffffffffffffffff167f8c5be1e5ebec7d5bd14f71427d1e84f3dd0314c0f7b2291e5b200ac8c7c3b92560405160405180910390a45050565b6000611617826114df565b611656576040517f08c379a000000000000000000000000000000000000000000000000000000000815260040161164d90613fa4565b60405180910390fd5b600061166183610ce5565b90508073ffffffffffffffffffffffffffffffffffffffff168473ffffffffffffffffffffffffffffffffffffffff1614806116d057508373ffffffffffffffffffffffffffffffffffffffff166116b884610700565b73ffffffffffffffffffffffffffffffffffffffff16145b806116e157506116e081856112d9565b5b91505092915050565b8273ffffffffffffffffffffffffffffffffffffffff1661170a82610ce5565b73ffffffffffffffffffffffffffffffffffffffff1614611760576040517f08c379a000000000000000000000000000000000000000000000000000000000815260040161175790614036565b60405180910390fd5b600073ffffffffffffffffffffffffffffffffffffffff168273ffffffffffffffffffffffffffffffffffffffff1614156117d0576040517f08c379a00000000000000000000000000000000000000000000000000000000081526004016117c7906140c8565b60405180910390fd5b6117db8383836121ba565b6117e6600082611553565b6001606860008573ffffffffffffffffffffffffffffffffffffffff1673ffffffffffffffffffffffffffffffffffffffff16815260200190815260200160002060008282546118369190614117565b925050819055506001606860008473ffffffffffffffffffffffffffffffffffffffff1673ffffffffffffffffffffffffffffffffffffffff168152602001908152602001600020600082825461188d919061414b565b92505081905550816067600083815260200190815260200160002060006101000a81548173ffffffffffffffffffffffffffffffffffffffff021916908373ffffffffffffffffffffffffffffffffffffffff160217905550808273ffffffffffffffffffffffffffffffffffffffff168473ffffffffffffffffffffffffffffffffffffffff167fddf252ad1be2c89b69c2b068fc378daa952ba7f163c4a11628f55a4df523b3ef60405160405180910390a4505050565b6119508282610f0c565b6119e0576119758173ffffffffffffffffffffffffffffffffffffffff1660146121ca565b611984836001900460206121ca565b604051602001611995929190614239565b6040516020818303038152906040526040517f08c379a00000000000000000000000000000000000000000000000000000000081526004016119d79190613031565b60405180910390fd5b5050565b6119ee8282610f0c565b611ac157600160c9600084815260200190815260200160002060000160008373ffffffffffffffffffffffffffffffffffffffff1673ffffffffffffffffffffffffffffffffffffffff16815260200190815260200160002060006101000a81548160ff021916908315150217905550611a6661154b565b73ffffffffffffffffffffffffffffffffffffffff168173ffffffffffffffffffffffffffffffffffffffff16837f2f8788117e7eff1d82e926ec794901d17c78024a50270940304540a733656f0d60405160405180910390a45b5050565b611acf8282610f0c565b15611ba357600060c9600084815260200190815260200160002060000160008373ffffffffffffffffffffffffffffffffffffffff1673ffffffffffffffffffffffffffffffffffffffff16815260200190815260200160002060006101000a81548160ff021916908315150217905550611b4861154b565b73ffffffffffffffffffffffffffffffffffffffff168173ffffffffffffffffffffffffffffffffffffffff16837ff6391f5c32d9c69d2a47ea670b442974b53935d1edc7fd64eb21e047a839171b60405160405180910390a45b5050565b600060019054906101000a900460ff1680611bcd575060008054906101000a900460ff16155b611c0c576040517f08c379a0000000000000000000000000000000000000000000000000000000008152600401611c0390613c6a565b60405180910390fd5b60008060019054906101000a900460ff161590508015611c5c576001600060016101000a81548160ff02191690831515021790555060016000806101000a81548160ff0219169083151502179055505b611c6461242d565b611c6c612506565b611c7683836125df565b8015611c975760008060016101000a81548160ff0219169083151502179055505b505050565b600061012d60009054906101000a900473ffffffffffffffffffffffffffffffffffffffff1690508161012d60006101000a81548173ffffffffffffffffffffffffffffffffffffffff021916908373ffffffffffffffffffffffffffffffffffffffff1602179055508173ffffffffffffffffffffffffffffffffffffffff168173ffffffffffffffffffffffffffffffffffffffff167f8be0079c531659141344cd1fd0a4f28419497f9722a3daafe3b4186f6b6457e060405160405180910390a35050565b8173ffffffffffffffffffffffffffffffffffffffff168373ffffffffffffffffffffffffffffffffffffffff161415611dd3576040517f08c379a0000000000000000000000000000000000000000000000000000000008152600401611dca906142bf565b60405180910390fd5b80606a60008573ffffffffffffffffffffffffffffffffffffffff1673ffffffffffffffffffffffffffffffffffffffff16815260200190815260200160002060008473ffffffffffffffffffffffffffffffffffffffff1673ffffffffffffffffffffffffffffffffffffffff16815260200190815260200160002060006101000a81548160ff0219169083151502179055508173ffffffffffffffffffffffffffffffffffffffff168373ffffffffffffffffffffffffffffffffffffffff167f17307eab39ab6107e8899845ad3d59bd9653f200f220920489ca2b5937696c3183604051611ec49190612f7d565b60405180910390a3505050565b611edc8484846116ea565b611ee8848484846126e8565b611f27576040517f08c379a0000000000000000000000000000000000000000000000000000000008152600401611f1e90614351565b60405180910390fd5b50505050565b60606101618054611f3d9061372d565b80601f0160208091040260200160405190810160405280929190818152602001828054611f699061372d565b8015611fb65780601f10611f8b57610100808354040283529160200191611fb6565b820191906000526020600020905b815481529060010190602001808311611f9957829003601f168201915b5050505050905090565b60606000821415612008576040518060400160405280600181526020017f3000000000000000000000000000000000000000000000000000000000000000815250905061213b565b600082905060005b6000821461203a57808061202390614371565b915050600a8261203391906143e9565b9150612010565b60008167ffffffffffffffff811115612056576120556132d2565b5b6040519080825280601f01601f1916602001820160405280156120885781602001600182028036833780820191505090505b5090505b60008514612134576001826120a19190614117565b9150600a856120b0919061441a565b60306120bc919061414b565b7f0100000000000000000000000000000000000000000000000000000000000000028183815181106120f1576120f0613b5d565b5b60200101907effffffffffffffffffffffffffffffffffffffffffffffffffffffffffffff1916908160001a905350600a8561212d91906143e9565b945061208c565b8093505050505b919050565b60007f7965db0b000000000000000000000000000000000000000000000000000000007bffffffffffffffffffffffffffffffffffffffffffffffffffffffff1916827bffffffffffffffffffffffffffffffffffffffffffffffffffffffff191614806121b357506121b2826128a8565b5b9050919050565b6121c583838361298a565b505050565b6060600060028360026121dd919061444b565b6121e7919061414b565b67ffffffffffffffff811115612200576121ff6132d2565b5b6040519080825280601f01601f1916602001820160405280156122325781602001600182028036833780820191505090505b5090507f30000000000000000000000000000000000000000000000000000000000000008160008151811061226a57612269613b5d565b5b60200101907effffffffffffffffffffffffffffffffffffffffffffffffffffffffffffff1916908160001a9053507f7800000000000000000000000000000000000000000000000000000000000000816001815181106122ce576122cd613b5d565b5b60200101907effffffffffffffffffffffffffffffffffffffffffffffffffffffffffffff1916908160001a9053506000600184600261230e919061444b565b612318919061414b565b90505b60018111156123df577f3031323334353637383961626364656600000000000000000000000000000000600f86166010811061235a57612359613b5d565b5b1a7f0100000000000000000000000000000000000000000000000000000000000000028282815181106123905761238f613b5d565b5b60200101907effffffffffffffffffffffffffffffffffffffffffffffffffffffffffffff1916908160001a905350600485908060020a82049150509450806123d8906144a5565b905061231b565b5060008414612423576040517f08c379a000000000000000000000000000000000000000000000000000000000815260040161241a9061451b565b60405180910390fd5b8091505092915050565b600060019054906101000a900460ff1680612453575060008054906101000a900460ff16155b612492576040517f08c379a000000000000000000000000000000000000000000000000000000000815260040161248990613c6a565b60405180910390fd5b60008060019054906101000a900460ff1615905080156124e2576001600060016101000a81548160ff02191690831515021790555060016000806101000a81548160ff0219169083151502179055505b80156125035760008060016101000a81548160ff0219169083151502179055505b50565b600060019054906101000a900460ff168061252c575060008054906101000a900460ff16155b61256b576040517f08c379a000000000000000000000000000000000000000000000000000000000815260040161256290613c6a565b60405180910390fd5b60008060019054906101000a900460ff1615905080156125bb576001600060016101000a81548160ff02191690831515021790555060016000806101000a81548160ff0219169083151502179055505b80156125dc5760008060016101000a81548160ff0219169083151502179055505b50565b600060019054906101000a900460ff1680612605575060008054906101000a900460ff16155b612644576040517f08c379a000000000000000000000000000000000000000000000000000000000815260040161263b90613c6a565b60405180910390fd5b60008060019054906101000a900460ff161590508015612694576001600060016101000a81548160ff02191690831515021790555060016000806101000a81548160ff0219169083151502179055505b82606590805190602001906126aa929190612e26565b5081606690805190602001906126c1929190612e26565b5080156126e35760008060016101000a81548160ff0219169083151502179055505b505050565b60006127098473ffffffffffffffffffffffffffffffffffffffff16612a9e565b1561289b578373ffffffffffffffffffffffffffffffffffffffff1663150b7a0261273261154b565b8786866040518563ffffffff167c01000000000000000000000000000000000000000000000000000000000281526004016127709493929190614590565b6020604051808303816000875af19250505080156127ac57506040513d601f19601f820116820180604052508101906127a991906145f1565b60015b61282f573d80600081146127dc576040519150601f19603f3d011682016040523d82523d6000602084013e6127e1565b606091505b50600081511415612827576040517f08c379a000000000000000000000000000000000000000000000000000000000815260040161281e90614351565b60405180910390fd5b805181602001fd5b63150b7a027c0100000000000000000000000000000000000000000000000000000000027bffffffffffffffffffffffffffffffffffffffffffffffffffffffff1916817bffffffffffffffffffffffffffffffffffffffffffffffffffffffff1916149150506128a0565b600190505b949350505050565b60007f80ac58cd000000000000000000000000000000000000000000000000000000007bffffffffffffffffffffffffffffffffffffffffffffffffffffffff1916827bffffffffffffffffffffffffffffffffffffffffffffffffffffffff1916148061297357507f5b5e139f000000000000000000000000000000000000000000000000000000007bffffffffffffffffffffffffffffffffffffffffffffffffffffffff1916827bffffffffffffffffffffffffffffffffffffffffffffffffffffffff1916145b80612983575061298282612ab1565b5b9050919050565b612995838383612b1b565b600073ffffffffffffffffffffffffffffffffffffffff168373ffffffffffffffffffffffffffffffffffffffff1614156129d8576129d381612b20565b612a17565b8173ffffffffffffffffffffffffffffffffffffffff168373ffffffffffffffffffffffffffffffffffffffff1614612a1657612a158382612b69565b5b5b600073ffffffffffffffffffffffffffffffffffffffff168273ffffffffffffffffffffffffffffffffffffffff161415612a5a57612a5581612cd6565b612a99565b8273ffffffffffffffffffffffffffffffffffffffff168273ffffffffffffffffffffffffffffffffffffffff1614612a9857612a978282612da7565b5b5b505050565b600080823b905060008111915050919050565b60007f01ffc9a7000000000000000000000000000000000000000000000000000000007bffffffffffffffffffffffffffffffffffffffffffffffffffffffff1916827bffffffffffffffffffffffffffffffffffffffffffffffffffffffff1916149050919050565b505050565b60fd8054905060fe60008381526020019081526020016000208190555060fd81908060018154018082558091505060019003906000526020600020016000909190919091505550565b60006001612b7684610d97565b612b809190614117565b9050600060fc6000848152602001908152602001600020549050818114612c6557600060fb60008673ffffffffffffffffffffffffffffffffffffffff1673ffffffffffffffffffffffffffffffffffffffff16815260200190815260200160002060008481526020019081526020016000205490508060fb60008773ffffffffffffffffffffffffffffffffffffffff1673ffffffffffffffffffffffffffffffffffffffff1681526020019081526020016000206000848152602001908152602001600020819055508160fc600083815260200190815260200160002081905550505b60fc60008481526020019081526020016000206000905560fb60008573ffffffffffffffffffffffffffffffffffffffff1673ffffffffffffffffffffffffffffffffffffffff16815260200190815260200160002060008381526020019081526020016000206000905550505050565b6000600160fd80549050612cea9190614117565b9050600060fe6000848152602001908152602001600020549050600060fd8381548110612d1a57612d19613b5d565b5b906000526020600020015490508060fd8381548110612d3c57612d3b613b5d565b5b90600052602060002001819055508160fe60008381526020019081526020016000208190555060fe60008581526020019081526020016000206000905560fd805480612d8b57612d8a61461e565b5b6001900381819060005260206000200160009055905550505050565b6000612db283610d97565b90508160fb60008573ffffffffffffffffffffffffffffffffffffffff1673ffffffffffffffffffffffffffffffffffffffff1681526020019081526020016000206000838152602001908152602001600020819055508060fc600084815260200190815260200160002081905550505050565b828054612e329061372d565b90600052602060002090601f016020900481019282612e545760008555612e9b565b82601f10612e6d57805160ff1916838001178555612e9b565b82800160010185558215612e9b579182015b82811115612e9a578251825591602001919060010190612e7f565b5b509050612ea89190612eac565b5090565b5b80821115612ec5576000816000905550600101612ead565b5090565b6000604051905090565b600080fd5b600080fd5b60007fffffffff0000000000000000000000000000000000000000000000000000000082169050919050565b612f1281612edd565b8114612f1d57600080fd5b50565b600081359050612f2f81612f09565b92915050565b600060208284031215612f4b57612f4a612ed3565b5b6000612f5984828501612f20565b91505092915050565b60008115159050919050565b612f7781612f62565b82525050565b6000602082019050612f926000830184612f6e565b92915050565b600081519050919050565b600082825260208201905092915050565b60005b83811015612fd2578082015181840152602081019050612fb7565b83811115612fe1576000848401525b50505050565b6000601f19601f8301169050919050565b600061300382612f98565b61300d8185612fa3565b935061301d818560208601612fb4565b61302681612fe7565b840191505092915050565b6000602082019050818103600083015261304b8184612ff8565b905092915050565b6000819050919050565b61306681613053565b811461307157600080fd5b50565b6000813590506130838161305d565b92915050565b60006020828403121561309f5761309e612ed3565b5b60006130ad84828501613074565b91505092915050565b600073ffffffffffffffffffffffffffffffffffffffff82169050919050565b60006130e1826130b6565b9050919050565b6130f1816130d6565b82525050565b600060208201905061310c60008301846130e8565b92915050565b61311b816130d6565b811461312657600080fd5b50565b60008135905061313881613112565b92915050565b6000806040838503121561315557613154612ed3565b5b600061316385828601613129565b925050602061317485828601613074565b9150509250929050565b61318781613053565b82525050565b60006020820190506131a2600083018461317e565b92915050565b6000806000606084860312156131c1576131c0612ed3565b5b60006131cf86828701613129565b93505060206131e086828701613129565b92505060406131f186828701613074565b9150509250925092565b6000819050919050565b61320e816131fb565b811461321957600080fd5b50565b60008135905061322b81613205565b92915050565b60006020828403121561324757613246612ed3565b5b60006132558482850161321c565b91505092915050565b613267816131fb565b82525050565b6000602082019050613282600083018461325e565b92915050565b6000806040838503121561329f5761329e612ed3565b5b60006132ad8582860161321c565b92505060206132be85828601613129565b9150509250929050565b600080fd5b600080fd5b7f4e487b7100000000000000000000000000000000000000000000000000000000600052604160045260246000fd5b61330a82612fe7565b810181811067ffffffffffffffff82111715613329576133286132d2565b5b80604052505050565b600061333c612ec9565b90506133488282613301565b919050565b600067ffffffffffffffff821115613368576133676132d2565b5b61337182612fe7565b9050602081019050919050565b82818337600083830152505050565b60006133a061339b8461334d565b613332565b9050828152602081018484840111156133bc576133bb6132cd565b5b6133c784828561337e565b509392505050565b600082601f8301126133e4576133e36132c8565b5b81356133f484826020860161338d565b91505092915050565b60006020828403121561341357613412612ed3565b5b600082013567ffffffffffffffff81111561343157613430612ed8565b5b61343d848285016133cf565b91505092915050565b600080600080608085870312156134605761345f612ed3565b5b600085013567ffffffffffffffff81111561347e5761347d612ed8565b5b61348a878288016133cf565b945050602085013567ffffffffffffffff8111156134ab576134aa612ed8565b5b6134b7878288016133cf565b935050604085013567ffffffffffffffff8111156134d8576134d7612ed8565b5b6134e4878288016133cf565b92505060606134f587828801613129565b91505092959194509250565b60006020828403121561351757613516612ed3565b5b600061352584828501613129565b91505092915050565b61353781612f62565b811461354257600080fd5b50565b6000813590506135548161352e565b92915050565b6000806040838503121561357157613570612ed3565b5b600061357f85828601613129565b925050602061359085828601613545565b9150509250929050565b600067ffffffffffffffff8211156135b5576135b46132d2565b5b6135be82612fe7565b9050602081019050919050565b60006135de6135d98461359a565b613332565b9050828152602081018484840111156135fa576135f96132cd565b5b61360584828561337e565b509392505050565b600082601f830112613622576136216132c8565b5b81356136328482602086016135cb565b91505092915050565b6000806000806080858703121561365557613654612ed3565b5b600061366387828801613129565b945050602061367487828801613129565b935050604061368587828801613074565b925050606085013567ffffffffffffffff8111156136a6576136a5612ed8565b5b6136b28782880161360d565b91505092959194509250565b600080604083850312156136d5576136d4612ed3565b5b60006136e385828601613129565b92505060206136f485828601613129565b9150509250929050565b7f4e487b7100000000000000000000000000000000000000000000000000000000600052602260045260246000fd5b6000600282049050600182168061374557607f821691505b60208210811415613759576137586136fe565b5b50919050565b7f4552433732313a20617070726f76656420717565727920666f72206e6f6e657860008201527f697374656e7420746f6b656e0000000000000000000000000000000000000000602082015250565b60006137bb602c83612fa3565b91506137c68261375f565b604082019050919050565b600060208201905081810360008301526137ea816137ae565b9050919050565b7f4552433732313a20617070726f76616c20746f2063757272656e74206f776e6560008201527f7200000000000000000000000000000000000000000000000000000000000000602082015250565b600061384d602183612fa3565b9150613858826137f1565b604082019050919050565b6000602082019050818103600083015261387c81613840565b9050919050565b7f4552433732313a20617070726f76652063616c6c6572206973206e6f74206f7760008201527f6e6572206e6f7220617070726f76656420666f7220616c6c0000000000000000602082015250565b60006138df603883612fa3565b91506138ea82613883565b604082019050919050565b6000602082019050818103600083015261390e816138d2565b9050919050565b7f4552433732313a207472616e736665722063616c6c6572206973206e6f74206f60008201527f776e6572206e6f7220617070726f766564000000000000000000000000000000602082015250565b6000613971603183612fa3565b915061397c82613915565b604082019050919050565b600060208201905081810360008301526139a081613964565b9050919050565b7f455243373231456e756d657261626c653a206f776e657220696e646578206f7560008201527f74206f6620626f756e6473000000000000000000000000000000000000000000602082015250565b6000613a03602b83612fa3565b9150613a0e826139a7565b604082019050919050565b60006020820190508181036000830152613a32816139f6565b9050919050565b7f416363657373436f6e74726f6c3a2063616e206f6e6c792072656e6f756e636560008201527f20726f6c657320666f722073656c660000000000000000000000000000000000602082015250565b6000613a95602f83612fa3565b9150613aa082613a39565b604082019050919050565b60006020820190508181036000830152613ac481613a88565b9050919050565b7f455243373231456e756d657261626c653a20676c6f62616c20696e646578206f60008201527f7574206f6620626f756e64730000000000000000000000000000000000000000602082015250565b6000613b27602c83612fa3565b9150613b3282613acb565b604082019050919050565b60006020820190508181036000830152613b5681613b1a565b9050919050565b7f4e487b7100000000000000000000000000000000000000000000000000000000600052603260045260246000fd5b7f4f776e61626c653a2063616c6c6572206973206e6f7420746865206f776e6572600082015250565b6000613bc2602083612fa3565b9150613bcd82613b8c565b602082019050919050565b60006020820190508181036000830152613bf181613bb5565b9050919050565b7f496e697469616c697a61626c653a20636f6e747261637420697320616c72656160008201527f647920696e697469616c697a6564000000000000000000000000000000000000602082015250565b6000613c54602e83612fa3565b9150613c5f82613bf8565b604082019050919050565b60006020820190508181036000830152613c8381613c47565b9050919050565b7f4552433732313a206f776e657220717565727920666f72206e6f6e657869737460008201527f656e7420746f6b656e0000000000000000000000000000000000000000000000602082015250565b6000613ce6602983612fa3565b9150613cf182613c8a565b604082019050919050565b60006020820190508181036000830152613d1581613cd9565b9050919050565b7f4552433732313a2062616c616e636520717565727920666f7220746865207a6560008201527f726f206164647265737300000000000000000000000000000000000000000000602082015250565b6000613d78602a83612fa3565b9150613d8382613d1c565b604082019050919050565b60006020820190508181036000830152613da781613d6b565b9050919050565b7f4552433732314d657461646174613a2055524920717565727920666f72206e6f60008201527f6e6578697374656e7420746f6b656e0000000000000000000000000000000000602082015250565b6000613e0a602f83612fa3565b9150613e1582613dae565b604082019050919050565b60006020820190508181036000830152613e3981613dfd565b9050919050565b600081905092915050565b6000613e5682612f98565b613e608185613e40565b9350613e70818560208601612fb4565b80840191505092915050565b6000613e888285613e4b565b9150613e948284613e4b565b91508190509392505050565b7f4f776e61626c653a206e6577206f776e657220697320746865207a65726f206160008201527f6464726573730000000000000000000000000000000000000000000000000000602082015250565b6000613efc602683612fa3565b9150613f0782613ea0565b604082019050919050565b60006020820190508181036000830152613f2b81613eef565b9050919050565b7f4552433732313a206f70657261746f7220717565727920666f72206e6f6e657860008201527f697374656e7420746f6b656e0000000000000000000000000000000000000000602082015250565b6000613f8e602c83612fa3565b9150613f9982613f32565b604082019050919050565b60006020820190508181036000830152613fbd81613f81565b9050919050565b7f4552433732313a207472616e73666572206f6620746f6b656e2074686174206960008201527f73206e6f74206f776e0000000000000000000000000000000000000000000000602082015250565b6000614020602983612fa3565b915061402b82613fc4565b604082019050919050565b6000602082019050818103600083015261404f81614013565b9050919050565b7f4552433732313a207472616e7366657220746f20746865207a65726f2061646460008201527f7265737300000000000000000000000000000000000000000000000000000000602082015250565b60006140b2602483612fa3565b91506140bd82614056565b604082019050919050565b600060208201905081810360008301526140e1816140a5565b9050919050565b7f4e487b7100000000000000000000000000000000000000000000000000000000600052601160045260246000fd5b600061412282613053565b915061412d83613053565b9250828210156141405761413f6140e8565b5b828203905092915050565b600061415682613053565b915061416183613053565b9250827fffffffffffffffffffffffffffffffffffffffffffffffffffffffffffffffff03821115614196576141956140e8565b5b828201905092915050565b7f416363657373436f6e74726f6c3a206163636f756e7420000000000000000000600082015250565b60006141d7601783613e40565b91506141e2826141a1565b601782019050919050565b7f206973206d697373696e6720726f6c6520000000000000000000000000000000600082015250565b6000614223601183613e40565b915061422e826141ed565b601182019050919050565b6000614244826141ca565b91506142508285613e4b565b915061425b82614216565b91506142678284613e4b565b91508190509392505050565b7f4552433732313a20617070726f766520746f2063616c6c657200000000000000600082015250565b60006142a9601983612fa3565b91506142b482614273565b602082019050919050565b600060208201905081810360008301526142d88161429c565b9050919050565b7f4552433732313a207472616e7366657220746f206e6f6e20455243373231526560008201527f63656976657220696d706c656d656e7465720000000000000000000000000000602082015250565b600061433b603283612fa3565b9150614346826142df565b604082019050919050565b6000602082019050818103600083015261436a8161432e565b9050919050565b600061437c82613053565b91507fffffffffffffffffffffffffffffffffffffffffffffffffffffffffffffffff8214156143af576143ae6140e8565b5b600182019050919050565b7f4e487b7100000000000000000000000000000000000000000000000000000000600052601260045260246000fd5b60006143f482613053565b91506143ff83613053565b92508261440f5761440e6143ba565b5b828204905092915050565b600061442582613053565b915061443083613053565b9250826144405761443f6143ba565b5b828206905092915050565b600061445682613053565b915061446183613053565b9250817fffffffffffffffffffffffffffffffffffffffffffffffffffffffffffffffff048311821515161561449a576144996140e8565b5b828202905092915050565b60006144b082613053565b915060008214156144c4576144c36140e8565b5b600182039050919050565b7f537472696e67733a20686578206c656e67746820696e73756666696369656e74600082015250565b6000614505602083612fa3565b9150614510826144cf565b602082019050919050565b60006020820190508181036000830152614534816144f8565b9050919050565b600081519050919050565b600082825260208201905092915050565b60006145628261453b565b61456c8185614546565b935061457c818560208601612fb4565b61458581612fe7565b840191505092915050565b60006080820190506145a560008301876130e8565b6145b260208301866130e8565b6145bf604083018561317e565b81810360608301526145d18184614557565b905095945050505050565b6000815190506145eb81612f09565b92915050565b60006020828403121561460757614606612ed3565b5b6000614615848285016145dc565b91505092915050565b7f4e487b7100000000000000000000000000000000000000000000000000000000600052603160045260246000fdfea26469706673582212209ea490daabcf7bde6249dc77655a71568875ac612e829cf5eabbe663d61a8fb064736f6c634300080a0033",
  "immutableReferences": {},
  "source": "// SPDX-License-Identifier: MIT\npragma solidity >=0.4.22 <0.9.0;\n\nimport \"@openzeppelin/contracts-upgradeable/utils/math/SafeMathUpgradeable.sol\";\nimport \"@openzeppelin/contracts-upgradeable/utils/CountersUpgradeable.sol\";\nimport \"@openzeppelin/contracts-upgradeable/token/ERC721/ERC721Upgradeable.sol\";\nimport \"@openzeppelin/contracts-upgradeable/access/OwnableUpgradeable.sol\";\nimport \"@openzeppelin/contracts-upgradeable/token/ERC721/extensions/ERC721URIStorageUpgradeable.sol\";\nimport \"@openzeppelin/contracts-upgradeable/access/AccessControlUpgradeable.sol\";\nimport \"@openzeppelin/contracts-upgradeable/proxy/utils/Initializable.sol\";\nimport \"@openzeppelin/contracts-upgradeable/token/ERC721/extensions/ERC721EnumerableUpgradeable.sol\";\n\ncontract SetTokenUri is\n    Initializable,\n    ERC721Upgradeable,\n    ERC721URIStorageUpgradeable,\n    AccessControlUpgradeable,\n    ERC721EnumerableUpgradeable,\n    OwnableUpgradeable\n{\n    using StringsUpgradeable for uint256;\n    using SafeMathUpgradeable for uint256;\n\n    // Optional mapping for token URIs\n    mapping(uint256 => string) internal tokenURIs;\n\n    string public baseTokenURI;\n\n    uint256 public constant MAX_SUPPLY = 50000;\n    uint256 public constant PRICE = 0.0001 ether;\n    uint256 public constant MAX_PER_MINT = 100;\n    bytes32 public constant MINTER_ROLE = keccak256(\"MINTER_ROLE\");\n\n    // Base URI\n    string private _baseURIextended;\n\n    function initialize(\n        string memory _name,\n        string memory _symbol,\n        string memory _baseTokenURI,\n        address _owner\n    ) public virtual initializer {\n        __ERC721_init(_name, _symbol);\n        baseTokenURI = _baseTokenURI;\n\n        _grantRole(DEFAULT_ADMIN_ROLE, _owner);\n        _grantRole(MINTER_ROLE, _owner);\n    }\n\n    function setBaseURI(string memory baseURI_) external onlyOwner {\n        _baseURIextended = baseURI_;\n    }\n\n    function _setTokenURI(uint256 tokenId, string memory _tokenURI)\n        internal\n        virtual\n        override(ERC721URIStorageUpgradeable)\n    {\n        require(\n            _exists(tokenId),\n            \"ERC721Metadata: URI set of nonexistent token\"\n        );\n        tokenURIs[tokenId] = _tokenURI;\n    }\n\n    function _baseURI() internal view virtual override returns (string memory) {\n        return _baseURIextended;\n    }\n\n    function _burn(uint256 tokenId)\n        internal\n        virtual\n        override(ERC721Upgradeable, ERC721URIStorageUpgradeable)\n    {\n        super._burn(tokenId);\n    }\n\n    function tokenURI(uint256 tokenId)\n        public\n        view\n        virtual\n        override(ERC721Upgradeable, ERC721URIStorageUpgradeable)\n        returns (string memory)\n    {\n        require(\n            _exists(tokenId),\n            \"ERC721Metadata: URI query for nonexistent token\"\n        );\n\n        string memory _tokenURI = tokenURIs[tokenId];\n        string memory base = _baseURI();\n\n        // If there is no base URI, return the token URI.\n        if (bytes(base).length == 0) {\n            return _tokenURI;\n        }\n        // If both are set, concatenate the baseURI and tokenURI (via abi.encodePacked).\n        if (bytes(_tokenURI).length > 0) {\n            return string(abi.encodePacked(base, _tokenURI));\n        }\n        // If there is a baseURI but no tokenURI, concatenate the tokenID to the baseURI.\n        return string(abi.encodePacked(base, tokenId.toString()));\n    }\n\n    // The following functions are overrides for ERC721Enumerable required by Solidity.\n    function _beforeTokenTransfer(\n        address from,\n        address to,\n        uint256 tokenId\n    )\n        internal\n        virtual\n        override(ERC721Upgradeable, ERC721EnumerableUpgradeable)\n    {\n        super._beforeTokenTransfer(from, to, tokenId);\n    }\n\n    function supportsInterface(bytes4 interfaceId)\n        public\n        view\n        virtual\n        override(\n            ERC721Upgradeable,\n            ERC721EnumerableUpgradeable,\n            AccessControlUpgradeable\n        )\n        returns (bool)\n    {\n        return super.supportsInterface(interfaceId);\n    }\n}\n",
  "sourcePath": "/Users/lenahierzi/Developer/consensys/blockchain-developer-bootcamp-final-project/contracts/SetTokenUri.sol",
  "compiler": {
    "name": "solc",
    "version": "0.8.10+commit.fc410830.Emscripten.clang"
  },
  "schemaVersion": "3.4.3",
  "updatedAt": "2021-11-29T21:40:03.861Z",
  "networkType": "ethereum",
  "devdoc": {
    "kind": "dev",
    "methods": {
      "approve(address,uint256)": {
        "details": "See {IERC721-approve}."
      },
      "balanceOf(address)": {
        "details": "See {IERC721-balanceOf}."
      },
      "getApproved(uint256)": {
        "details": "See {IERC721-getApproved}."
      },
      "getRoleAdmin(bytes32)": {
        "details": "Returns the admin role that controls `role`. See {grantRole} and {revokeRole}. To change a role's admin, use {_setRoleAdmin}."
      },
      "grantRole(bytes32,address)": {
        "details": "Grants `role` to `account`. If `account` had not been already granted `role`, emits a {RoleGranted} event. Requirements: - the caller must have ``role``'s admin role."
      },
      "hasRole(bytes32,address)": {
        "details": "Returns `true` if `account` has been granted `role`."
      },
      "isApprovedForAll(address,address)": {
        "details": "See {IERC721-isApprovedForAll}."
      },
      "name()": {
        "details": "See {IERC721Metadata-name}."
      },
      "owner()": {
        "details": "Returns the address of the current owner."
      },
      "ownerOf(uint256)": {
        "details": "See {IERC721-ownerOf}."
      },
      "renounceOwnership()": {
        "details": "Leaves the contract without owner. It will not be possible to call `onlyOwner` functions anymore. Can only be called by the current owner. NOTE: Renouncing ownership will leave the contract without an owner, thereby removing any functionality that is only available to the owner."
      },
      "renounceRole(bytes32,address)": {
        "details": "Revokes `role` from the calling account. Roles are often managed via {grantRole} and {revokeRole}: this function's purpose is to provide a mechanism for accounts to lose their privileges if they are compromised (such as when a trusted device is misplaced). If the calling account had been revoked `role`, emits a {RoleRevoked} event. Requirements: - the caller must be `account`."
      },
      "revokeRole(bytes32,address)": {
        "details": "Revokes `role` from `account`. If `account` had been granted `role`, emits a {RoleRevoked} event. Requirements: - the caller must have ``role``'s admin role."
      },
      "safeTransferFrom(address,address,uint256)": {
        "details": "See {IERC721-safeTransferFrom}."
      },
      "safeTransferFrom(address,address,uint256,bytes)": {
        "details": "See {IERC721-safeTransferFrom}."
      },
      "setApprovalForAll(address,bool)": {
        "details": "See {IERC721-setApprovalForAll}."
      },
      "symbol()": {
        "details": "See {IERC721Metadata-symbol}."
      },
      "tokenByIndex(uint256)": {
        "details": "See {IERC721Enumerable-tokenByIndex}."
      },
      "tokenOfOwnerByIndex(address,uint256)": {
        "details": "See {IERC721Enumerable-tokenOfOwnerByIndex}."
      },
      "totalSupply()": {
        "details": "See {IERC721Enumerable-totalSupply}."
      },
      "transferFrom(address,address,uint256)": {
        "details": "See {IERC721-transferFrom}."
      },
      "transferOwnership(address)": {
        "details": "Transfers ownership of the contract to a new account (`newOwner`). Can only be called by the current owner."
      }
    },
    "version": 1
  },
  "userdoc": {
    "kind": "user",
    "methods": {},
    "version": 1
  }
}